:020000040800F2
:10000000000002201D160008AD130008B9130008F7
:10001000211500082915000831150008000000000E
:10002000000000000000000000000000751600083D
:100030003915000800000000751600084515000875
:100040007516000875160008751600087516000864
:100050007516000875160008751600087516000854
:100060007516000875160008751600087516000844
:100070007516000875160008751600087516000834
:100080007516000875160008751600087516000824
:10009000D9150008751600087516000875160008B1
:1000A0007516000875160008751600087516000804
:1000B00075160008751600087516000875160008F4
:1000C00075160008751600087516000875160008E4
:1000D00075160008751600087516000875160008D4
:1000E00051150008751600087516000875160008E9
:1000F00075160008751600087516000875160008B4
:1001000075160008751600087515000875160008A4
:100110007516000875160008751600087516000893
:100120007516000875160008751600087516000883
:100130007516000875160008751600087516000873
:100140007516000875160008751600087516000863
:100150007516000875160008751600087516000853
:100160007516000875160008751600087516000843
:100170007516000875160008751600087516000833
:08018000751600087516000851
:1001880010B5054C237833B9044B13B10448AFF3C9
:1001980000800123237010BDC80800200000000063
:1001A80024B0010808B5064B1BB106480649AFF351
:1001B80000800648036813B1054B03B1984708BD92
:1001C8000000000024B00108CC080020C808002066
:1001D8000000000010F8012B11F8013B012A28BF8C
:1001E8009A42F7D0D01A704781F0004102E000BF70
:1001F80083F0004330B54FEA41044FEA430594EADF
:10020800050F08BF90EA020F1FBF54EA000C55EA19
:10021800020C7FEA645C7FEA655C00F0E2804FEAEA
:100228005454D4EB5555B8BF6D420CDD2C4480EACC
:10023800020281EA030382EA000083EA010180EAFC
:10024800020281EA0303362D88BF30BD11F0004F4A
:100258004FEA01314FF4801C4CEA113102D0404280
:1002680061EB410113F0004F4FEA03334CEA1333BB
:1002780002D0524263EB430394EA050F00F0A780D3
:10028800A4F10104D5F1200E0DDB02FA0EFC22FACE
:1002980005F2801841F1000103FA0EF2801843FAC2
:1002A80005F359410EE0A5F120050EF1200E012AB3
:1002B80003FA0EFC28BF4CF0020C43FA05F3C018F1
:1002C80051EBE37101F0004507D54FF0000EDCF16A
:1002D800000C7EEB00006EEB0101B1F5801F1BD313
:1002E800B1F5001F0CD349085FEA30004FEA3C0C17
:1002F80004F101044FEA445212F5800F80F09A800D
:10030800BCF1004F08BF5FEA500C50F1000041EB10
:10031800045141EA050130BD5FEA4C0C404141EB14
:10032800010111F4801FA4F10104E9D191F0000F3B
:1003380004BF01460020B1FA81F308BF2033A3F1BE
:100348000B03B3F120020CDA0C3208DD02F1140CB5
:10035800C2F10C0201FA0CF021FA02F10CE002F1F0
:100368001402D8BFC2F1200C01FA02F120FA0CFCE9
:10037800DCBF41EA0C019040E41AA2BF01EB045132
:10038800294330BD6FEA04041F3C1CDA0C340EDC30
:1003980004F11404C4F1200220FA04F001FA02F373
:1003A80040EA030021FA04F345EA030130BDC4F131
:1003B8000C04C4F1200220FA02F001FA04F340EA26
:1003C8000300294630BD21FA04F0294630BD94F0D7
:1003D800000F83F4801306BF81F480110134013DBE
:1003E8004EE77FEA645C18BF7FEA655C29D094EA2F
:1003F800050F08BF90EA020F05D054EA000C04BFAD
:100408001946104630BD91EA030F1EBF0021002097
:1004180030BD5FEA545C05D14000494128BF41F036
:10042800004130BD14F580043CBF01F5801130BD9A
:1004380001F0004545F0FE4141F470014FF0000025
:1004480030BD7FEA645C1ABF194610467FEA655CD6
:100458001CBF0B46024650EA013406BF52EA033578
:1004680091EA030F41F4002130BD00BF90F0000F66
:1004780004BF0021704730B54FF4806404F13204A2
:100488004FF000054FF0000150E700BF90F0000F5B
:1004980004BF0021704730B54FF4806404F1320482
:1004A80010F0004548BF40424FF000013EE700BF52
:1004B80042004FEAE2014FEA31014FEA02701FBFE2
:1004C80012F07F4393F07F4F81F06051704792F0B4
:1004D800000F14BF93F07F4F704730B54FF460742E
:1004E80001F0004521F0004120E700BF50EA010279
:1004F80008BF704730B54FF000050AE050EA010226
:1005080008BF704730B511F0004502D5404261EB95
:1005180041014FF4806404F132045FEA915C3FF4D6
:10052800DCAE4FF003025FEADC0C18BF03325FEA6F
:10053800DC0C18BF033202EBDC02C2F1200300FA24
:1005480003FC20FA02F001FA03FE40EA0E0021FA49
:1005580002F11444C1E600BF70B54FF0FF0C4CF433
:10056800E06C1CEA11541DBF1CEA135594EA0C0FE9
:1005780095EA0C0F00F0DEF82C4481EA030621EA24
:100588004C5123EA4C5350EA013518BF52EA03355F
:1005980041F4801143F4801338D0A0FB02CE4FF011
:1005A8000005E1FB02E506F00042E0FB03E54FF041
:1005B8000006E1FB03569CF0000F18BF4EF0010E39
:1005C800A4F1FF04B6F5007F64F5407404D25FEA35
:1005D8004E0E6D4146EB060642EAC62141EA5551E8
:1005E8004FEAC52040EA5E504FEACE2EB4F1FD0C2A
:1005F80088BFBCF5E06F1ED8BEF1004F08BF5FEAA8
:10060800500E50F1000041EB045170BD06F0004659
:1006180046EA010140EA020081EA0301B4EB5C0406
:10062800C2BFD4EB0C0541EA045170BD41F48011FE
:100638004FF0000E013C00F3AB8014F1360FDEBF23
:10064800002001F0004170BDC4F10004203C35DAFF
:100658000C341BDC04F11404C4F1200500FA05F382
:1006680020FA04F001FA05F240EA020001F0004223
:1006780021F0004110EBD37021FA04F642EB060199
:100688005EEA430E08BF20EAD37070BDC4F10C04C3
:10069800C4F1200500FA04F320FA05F001FA04F287
:1006A80040EA020001F0004110EBD37041F1000173
:1006B8005EEA430E08BF20EAD37070BDC4F120057E
:1006C80000FA05F24EEA020E20FA04F301FA05F2E6
:1006D80043EA020321FA04F001F0004121FA04F28E
:1006E80020EA020000EBD3705EEA430E08BF20EA5E
:1006F800D37070BD94F0000F0FD101F00046400098
:1007080041EB010111F4801F08BF013CF7D041EA19
:10071800060195F0000F18BF704703F0004652001D
:1007280043EB030313F4801F08BF013DF7D043EAEE
:100738000603704794EA0C0F0CEA135518BF95EAA4
:100748000C0F0CD050EA410618BF52EA4306D1D12B
:1007580081EA030101F000414FF0000070BD50EA4A
:10076800410606BF1046194652EA430619D094EAD4
:100778000C0F02D150EA013613D195EA0C0F05D1BE
:1007880052EA03361CBF104619460AD181EA030112
:1007980001F0004141F0FE4141F470014FF00000CA
:1007A80070BD41F0FE4141F4780170BD70B54FF065
:1007B800FF0C4CF4E06C1CEA11541DBF1CEA1355E5
:1007C80094EA0C0F95EA0C0F00F0A7F8A4EB0504C7
:1007D80081EA030E52EA03354FEA013100F08880BE
:1007E8004FEA03334FF0805545EA131343EA126387
:1007F8004FEA022245EA111545EA10654FEA00263C
:100808000EF000419D4208BF964244F1FD0404F5F4
:10081800407402D25B084FEA3202B61A65EB030550
:100828005B084FEA32024FF480104FF4002CB6EB0D
:10083800020E75EB030E22BFB61A754640EA0C008D
:100848005B084FEA3202B6EB020E75EB030E22BFCD
:10085800B61A754640EA5C005B084FEA3202B6EB0E
:10086800020E75EB030E22BFB61A754640EA9C00CD
:100878005B084FEA3202B6EB020E75EB030E22BF9D
:10088800B61A754640EADC0055EA060E18D04FEA5B
:10089800051545EA16754FEA06164FEAC30343EAFB
:1008A80052734FEAC2025FEA1C1CC0D111F4801FC8
:1008B8000BD141EA00014FF000004FF0004CB6E7C1
:1008C80011F4801F04BF01430020B4F1FD0C88BF60
:1008D800BCF5E06F3FF6AFAEB5EB030C04BFB6EB6B
:1008E800020C5FEA500C50F1000041EB045170BD5E
:1008F8000EF0004E4EEA113114EB5C04C2BFD4EB8B
:100908000C0541EA045170BD41F480114FF0000E0E
:10091800013C90E645EA060E8DE60CEA135594EA8A
:100928000C0F08BF95EA0C0F3FF43BAF94EA0C0F8D
:100938000AD150EA01347FF434AF95EA0C0F7FF402
:1009480025AF104619462CE795EA0C0F06D152EA56
:1009580003353FF4FDAE1046194622E750EA41063A
:1009680018BF52EA43067FF4C5AE50EA41047FF44B
:100978000DAF52EA43057FF4EBAE12E74FF0FF3CB0
:1009880006E000BF4FF0010C02E000BF4FF0010C81
:100998004DF804CD4FEA410C7FEA6C5C4FEA430CFA
:1009A80018BF7FEA6C5C1BD001B050EA410C0CBF49
:1009B80052EA430C91EA030F02BF90EA020F0020AB
:1009C800704710F1000F91EA030F58BF994208BF12
:1009D80090422CBFD8176FEAE37040F001007047CF
:1009E8004FEA410C7FEA6C5C02D150EA013C07D126
:1009F8004FEA430C7FEA6C5CD6D152EA033CD3D071
:100A08005DF8040B704700BF8446104662468C466A
:100A18001946634600E000BF01B5FFF7B7FF00289D
:100A280048BF10F1000F01BD4DF808EDFFF7F4FFC6
:100A38000CBF012000205DF808FB00BF4DF808ED51
:100A4800FFF7EAFF34BF012000205DF808FB00BF74
:100A58004DF808EDFFF7E0FF94BF012000205DF896
:100A680008FB00BF4DF808EDFFF7CEFF94BF01204B
:100A780000205DF808FB00BF4DF808EDFFF7C4FF44
:100A880034BF012000205DF808FB00BF4FEA410297
:100A980012F5001215D211D56FF47873B3EB6252C8
:100AA80012D94FEAC12343F0004343EA505311F0EF
:100AB800004F23FA02F018BF404270474FF0000081
:100AC800704750EA013005D111F0004008BF6FF0BF
:100AD800004070474FF00000704700BF4BB942B963
:100AE800002908BF002802D04FF0FF31084600F067
:100AF8005FB882B0EC462DE9005000F041F8DDF80F
:100B080004E002B00CBC704770B5FFF7D1FC0022BE
:100B18000D4B04460D46FFF71FFD00F04BF8064647
:100B2800FFF7A4FC0022094BFFF716FD02460B460F
:100B380020462946FFF75CFB00F03CF8002242EA19
:100B480000042046314670BD0000F03D0000F04131
:100B58002DE97043069E14461D468046894600F0DE
:100B680049F804FB01F300FB0533A4FB00451D44D1
:100B7800B8EB040469EB0505C6E90045BDE87083D8
:100B88002DE97043069E1446804689461D4600F0AE
:100B98007DF900FB05F504FB0153A0FB04451D444A
:100BA800B8EB040469EB0505C6E90045BDE87083A8
:100BB800704700BF4A0011D212F5001211D20DD5AC
:100BC8006FF47873B3EB62520ED44FEAC12343F04B
:100BD800004343EA505323FA02F070474FF00000F5
:100BE800704750EA013002D14FF0FF3070474FF0A4
:100BF8000000704700292DE9F00FC0F29F80002403
:100C0800002BC0F29680154606460F46002B3ED1B3
:100C18008A4257D9B2FA82F34BB1C3F1200201FAE2
:100C280003F720FA02F29D40174300FA03F6290C55
:100C3800B7FBF1F2330C01FB127CA8B243EA0C4774
:100C480000FB02F3BB4209D97F1902F1FF3C80F097
:100C58000181BB4240F2FE80023A2F44FF1AB7FBE3
:100C6800F1F3B6B201FB137146EA014100FB03F050
:100C7800884208D9491903F1FF3780F0ED8088428E
:100C880040F2EA80023B43EA0242002303E08B423F
:100C98000AD900231A461046194614B1404261EB9E
:100CA8004101BDE8F00F7047B3FA83F8B8F1000FBF
:100CB80040F084808B4202D3824200F2DE8000231F
:100CC8000122E8E712B90123B3FBF2F5B5FA85F280
:100CD800002A39D17F1B280C1FFA85FC0123B7FB9A
:100CE800F0F1320C00FB117742EA07470CFB01F2E6
:100CF800BA4207D97F1901F1FF3802D2BA4200F28D
:100D0800C1804146BF1AB7FBF0F2B6B200FB1270C1
:100D180046EA00400CFB02FC844507D9401902F161
:100D2800FF3702D2844500F2AB803A4642EA0142DC
:100D3800B1E7E443524263EB430364E7404261EBAB
:100D480041014FF0FF345BE79540C2F1200327FAD9
:100D580003F1280C26FA03F39740B1FBF0F81F4380
:100D68003B0C00FB18111FFA85FC43EA01410CFB00
:100D780008F38B4206FA02F608D9491908F1FF323E
:100D880079D28B4277D9A8F102082944C91AB1FB54
:100D9800F0F3BFB200FB131147EA01470CFB03F263
:100DA800BA4207D97F1903F1FF3160D2BA425ED93E
:100DB800023B2F44BF1A43EA084390E7C8F12002D8
:100DC80003FA08FC25FA02F343EA0C0C4FEA1C4923
:100DD80021FA02F301FA08F720FA02F2B3FBF9F15B
:100DE800174309FB11333A0C1FFA8CFB42EA034301
:100DF8000BFB01FA9A4505FA08F008D913EB0C0326
:100E080001F1FF3235D29A4533D902396344CAEB2E
:100E18000303B3FBF9F209FB1233BFB247EA0347F6
:100E28000BFB02F9B94508D917EB0C0702F1FF33A0
:100E38001BD2B94519D9023A674442EA0145A5FBD4
:100E48000001C9EB07078F424FF000030AD305D012
:100E58002A4620E7624601E73B4614E706FA08F609
:100E68008642F5D26A1E002315E71A46E5E70B46C7
:100E7800A0E71146CBE7904688E7434642460AE793
:100E8800023A53E702392F443CE700BF2DE9F00F3F
:100E9800144605460E46002B43D18A4253D9B2FA6E
:100EA80082F757B1C7F1200620FA06F601FA07F3D0
:100EB80002FA07F41E4300FA07F5210CB6FBF1F21B
:100EC8002B0C01FB1267A0B243EA074600FB02F3B2
:100ED800B34209D9361902F1FF3780F0F680B342E0
:100EE80040F2F380023A2644F61AB6FBF1F3ADB2AB
:100EF80001FB136145EA014100FB03F0884208D970
:100F0800091903F1FF3680F0E280884240F2DF8061
:100F1800023B43EA0242002310461946BDE8F00F9F
:100F280070478B424AD8B3FA83F6002E4DD18B42D4
:100F380002D3824200F2D6800023012210461946CD
:100F4800BDE8F00F704712B90124B4FBF2F4B4FA0B
:100F580084F2002A7CD1091B260CA7B20123B1FB1D
:100F6800F6F02A0C06FB101142EA014107FB00F2D9
:100F78008A4207D9091900F1FF3C02D28A4200F2DD
:100F8800C3806046891AB1FBF6F2ADB206FB1211B6
:100F980045EA014507FB02F7AF4208D92C1902F1CF
:100FA800FF3180F09680A74240F29380023A42EAED
:100FB800004210461946BDE8F00F704700231A4654
:100FC80010461946BDE8F00F7047C6F1200522FA11
:100FD80005F4B3401C434FEA144821FA05F301FA1B
:100FE80006F720FA05F5B3FBF8FC2F4308FB1C3382
:100FF8003D0C1FFA84FA45EA03430AFB0CF99945AC
:1010080002FA06FB04D91B190CF1FF326DD3944682
:10101800C9EB0303B3FBF8F508FB1533BFB247EA86
:1010280003470AFB05F8B84504D93F1905F1FF3312
:1010380061D31D4645EA0C4CACFB0B23C8EB0707F4
:101048009F424FF0000549D345D062462B4663E7DF
:101058009440C2F1200321FA03FC260C20FA03F382
:1010680001FA02F5BCFBF6F843EA05010B0C06FB96
:1010780018CCA7B243EA0C4C07FB08F3634500FA07
:1010880002F509D91CEB040C08F1FF323AD263458A
:1010980038D9A8F10208A444C3EB0C0CBCFBF6F346
:1010A80089B206FB13CC41EA0C4107FB03F28A42E2
:1010B80007D9091903F1FF3022D28A4220D9023B0D
:1010C8002144891A43EA084349E73A460CE733467C
:1010D8001FE70A466BE7B0409042B6D20CF1FF32E8
:1010E800002319E73346324616E799458FD9ACF104
:1010F800020C23448CE7B8459BD9023D274499E765
:101108000346DEE79046C7E7023821443AE700BFC6
:1011180080B500AF154B154AD2F8882042F470020A
:10112800C3F88820124B124A126842F001021A6072
:101138000F4B00229A600E4A0D4B1B6823F08473F4
:1011480023F4803313600A4B0A4A5A60084B084A52
:10115800126822F480221A60054B0022DA6000F03F
:101168000BF8024B4FF000629A6080BD00ED00E082
:10117800003802401030002480B483B000AF002350
:101188007B6000233B60354B344A126842F480325E
:101198001A60324B1B6803F400333B607B680133F1
:1011A8007B603B68002B03D17B68B3F5A04FF0D17F
:1011B8002A4B1B6803F40033002B02D001233B6049
:1011C80001E000233B603B68012B42D1234B234ABB
:1011D800126C42F080521A64214B214A126842F480
:1011E80040421A601D4B1D4A92689A601B4B1B4A6D
:1011F800926842F400429A60184B184A926842F486
:10120800A0529A60154B174A5A60144B134A126839
:1012180042F080721A6000BF104B1B6803F0007325
:10122800002BF9D0104B40F205721A600B4B0B4A99
:10123800926822F003029A60084B084A926842F0CA
:1012480002029A6000BF054B9B6803F00C03082B51
:10125800F9D10C37BD465DF8047B70470038024071
:101268000070004019544007003C024080B586B029
:1012780000AFF860B9607A6000237B6100237B616E
:1012880012E07B69BA6813441B780C48194613F0BE
:101298009DF900BF0948402113F0AAF90346002B25
:1012A800F8D07B6901337B617A697B689A42E8DB15
:1012B8007B6818461837BD4680BD00BF004800400F
:1012C80080B485B000AF7860114B1B68002B02D149
:1012D8000F4B104A1A600E4B1B68FB600C4B1A68C8
:1012E8007B681A446B469A4205D90B4B0C221A604C
:1012F8004FF0FF3306E0064B1A687B681A44044B2C
:101308001A60FB6818461437BD465DF8047B7047C1
:10131800E4080020146601201066012080B483B020
:1013280000AF78604FF0FF3318460C37BD465DF8C4
:10133800047B704780B483B000AF786039603B6845
:101348004FF400525A60002318460C37BD465DF82A
:10135800047B704780B483B000AF786001231846DF
:101368000C37BD465DF8047B704700BF80B485B07C
:1013780000AFF860B9607A60002318461437BD469C
:101388005DF8047B704700BF80B485B000AFF8609B
:10139800B9607A60002318461437BD465DF8047BAF
:1013A800704700BF80B400AFBD465DF8047B70474E
:1013B80080B58AB000AF404B7B621EF0040F0CBFB3
:1013C800EFF30880EFF309807B6A1B683B627B6A56
:1013D8005B68FB617B6A9B68BB617B6ADB687B61DE
:1013E8007B6A1B693B617B6A5B69FB607B6A9B6903
:1013F800BB607B6ADB697B60304814F063FF3B6A43
:101408002F48194614F000FFFB692E48194614F0BE
:10141800FBFEBB692C48194614F0F6FE7B692B4885
:10142800194614F0F1FE3B692948194614F0ECFE00
:10143800FB682848194614F0E7FEBB682648194699
:1014480014F0E2FE7B682548194614F0DDFE244BB3
:101458001B682448194614F0D7FE234B1B68234801
:10146800194614F0D1FE224B1B682248194614F085
:10147800CBFE214BDB6A2148194614F0C5FE204BF0
:101488001B682048194614F0BFFE1F4B1B681F48F5
:10149800194614F0B9FE184BDB6A03F08043002BA1
:1014A80008D01B4814F00EFF134B9B6A19481946C5
:1014B80014F0AAFE00BEFDE70004002040B00108B9
:1014C80058B0010864B0010870B001087CB0010888
:1014D80088B0010894B00108A0B00108ACB00108B8
:1014E80038ED00E0B8B0010828ED00E0C4B001080C
:1014F8002CED00E0D0B0010800ED00E0DCB0010800
:1015080030ED00E0F4B001083CED00E000B1010866
:101518000CB1010820B1010880B400AFFEE700BF9C
:1015280080B400AFFEE700BF80B400AFFEE700BFA5
:1015380080B400AFBD465DF8047B704780B500AF4E
:1015480008F0B2FE80BD00BF80B500AF4FF4804008
:1015580013F048FE0346002B06D0012006F0D0F910
:101568004FF4804013F058FE80BD00BF98B500AF1F
:101578001348102113F064F80346002B1ED0114BBA
:101588001B681C46621C0F4B1A600D4813F04CF880
:1015980003469AB20C4B23F814200948102113F083
:1015A80079F8084B1B68012B08D9074B5A88064B5A
:1015B8001B88D31A9BB21A46044B1A6098BD00BF09
:1015C800000C004094250020E80800209825002001
:1015D80080B500AF0C4800210C4A13F02BFE0B4BD2
:1015E8001A6840F221339A420DD1084B1B7A002B1E
:1015F80009D1064B9B7A012B05D1044BDB7A0448B1
:10160800194614F001FE80BD006400400454002017
:1016180038B10108DFF83CD0002100F004B80E4BC7
:101628005B58435004310D480D4B42189A42FFF461
:10163800F6AF0C4A00F003B8002342F8043B0A4B0B
:101648009A42FFF4F9AFFFF763FD14F097FD00F03D
:1016580023F87047000002206CF101080000002008
:10166800C8080020C808002014660120FFF7FEBF44
:1016780080B400AFBFF34F8F054A054BDB6803F416
:10168800E061044B0B43D360BFF34F8FFEE700BF0D
:1016980000ED00E00400FA0580B500AF4FF440709B
:1016A80013F080FE09F032F9224814F0ADFD4FF036
:1016B8008050012113F01AFA012013F0B9FA13200F
:1016C80013F034F9034603F00203002B03D11A4840
:1016D80014F09AFD01E013F0D5F87D2013F060FABC
:1016E8000346002B02D013F095FA0EE07C2013F08D
:1016F80057FA0346002B08D17B2013F051FA034612
:10170800002B02D17A2013F04BFA13F083FA00F081
:1017180069F800F041F807F0F7FF0346002B04D101
:1017280002F098F800F00AF801E0FFF7A1FF0023A3
:10173800184680BD54B1010874B1010880B500AFE6
:1017480003F090FD06F074FE0346002B01D007F06D
:10175800CFF808F0BBFD02460B461046194607F0C5
:10176800CFF808F061F80346012B0ED108F01EF9F6
:1017780003461A46074B1A70064B1B78002B04D0F9
:10178800044B1B78184602F089F800F077F813F03C
:101798005FFAD5E71854002080B582B000AF08F092
:1017A8008DFE00237B6001231B067A6813437B6050
:1017B80001231B047A6813437B6000231B027A68A9
:1017C80013437B6002237A6813437B60786808F0D0
:1017D8000FFF034808F0CEFE0837BD4680BD00BFA6
:1017E800603D012080B584B000AF08F097FF03F09A
:1017F80025FD03F0ADFF02F0FFFE02F02FFA1A48B4
:1018080004F0F2FB184803F085F9174802F010FDC0
:1018180008F0A2FF09F0C0F90023FB71134BFB602D
:101828000023BB6015E0FA68114B9A4203D91148AE
:1018380014F0EAFC10E0FB681B78FB710E4ABB68E9
:101848001344FA791A70FB680133FB60BB680133F3
:10185800BB60BB681F2BE6DD074B002283F8202006
:101868001037BD4680BD00BF5D9A000800000E0815
:101878001F000E089CB10108603D0120F0B583B03F
:1018880000AF02F0E3FC0346012B28D107F0CCFFA0
:101898000346012B23D1134B134A14461D4604F16A
:1018A800200C2E46A646BEE80F0030607160B2607C
:1018B800F360103410356445F3D12B462246106886
:1018C800186012791A712423FB71FB79002B03D05D
:1018D800044808F0BFF802E0044814F095FC0C37FF
:1018E800BD46F0BD6C3B0120D0B10108F8B101083C
:1018F80080B483B000AF0346FB71FA79044B53F808
:10190800223018460C37BD465DF8047B704700BF8F
:101918000000002080B483B000AF0346FB71FA7961
:10192800044B53F8223018460C37BD465DF8047B4B
:10193800704700BF2400002080B400AFBFF34F8F72
:10194800054A054BDB6803F4E061044B0B43D360A5
:10195800BFF34F8FFEE700BF00ED00E00400FA057B
:1019680080B5E0B000AF07F10C03186007F1080379
:101978001960FB1D1A701F4814F046FC07F10C0390
:10198800186800F0BFFD07F10C03186800F002F9B1
:10199800034687F87E31002387F87F3107F1080076
:1019A80007F1C80107F11402FB1D1B78006800F05D
:1019B800C5F9034687F87D3197F87D31012B0DD1A4
:1019C80097F87E0107F1C80107F11402FB1D1B7887
:1019D80000F0CCFD034687F87F3102E0032387F847
:1019E8007F3197F87F31184600F00CF907F5C0777A
:1019F800BD4680BDACB7010880B5BCB000AF5D483E
:101A08005D4914F001FC002387F8EB305A485B4924
:101A180014F00FFDC7F8EC000DE097F8EB30013338
:101A280087F8EB30D7F8EC3001331846534914F0F7
:101A380000FDC7F8EC00D7F8EC30002BEDD197F893
:101A4800EB304F48194614F0DFFB97F8EB30002BCA
:101A580068D04948494914F0A8FC0346C7F8DC3067
:101A6800D7F8DC30242B05D1464814F0CDFB01F023
:101A7800F7FE7BE04048414914F0F4FCC7F8EC005D
:101A88003B461846D7F8EC1014F087FC0023C7F83B
:101A9800E4301DE00020394914F0E4FCC7F8EC00FC
:101AA800D7F8EC30002B00D118E0D7F8E420134623
:101AB800DB0013449B0007F1240213441846D7F8AF
:101AC800EC1014F06AFCD7F8E4300133C7F8E430BE
:101AD80097F8EB20D7F8E4309A42DBDC3B462A48FB
:101AE800194614F091FB0023C7F8E03013E007F122
:101AF8002401D7F8E0201346DB0013449B000B4475
:101B08002248D7F8E0101A4614F07EFBD7F8E030E8
:101B18000133C7F8E03097F8EB20D7F8E0309A4265
:101B2800E5DC19E0144814F050FC0346C7F8D83037
:101B3800D7F8D830232B05D9124814F065FB01F0EB
:101B48008FFE13E03B4618460B4914F026FC3B4633
:101B58000F48194614F058FB394607F1240297F844
:101B6800EB30084611461A46FFF7FAFEF037BD4635
:101B780080BD00BFD8B70108EC0800208CED010833
:101B8800F0B7010814B801084CB801087CB801087E
:101B98008CB8010880B584B000AF7860154814F09F
:101BA80033FB0023FB730EE0FA7B134B53F8223010
:101BB80078681946FEF70EFB0346002B00D105E0B6
:101BC800FB7B0133FB73FB7B1E2BEDD9FB7B1E2BB1
:101BD80008D8FA7B084B53F822300848194614F005
:101BE80013FB02E0064814F00FFBFB7B1846103786
:101BF800BD4680BDB0B8010880000020DCB80108EF
:101C080014B9010880B584B000AF0346FB71FB79B5
:101C18001846FFF76DFEF860FB79082B5ED801A225
:101C280052F823F0511C0008611C0008711C0008C0
:101C3800811C0008911C0008B51C0008C51C000880
:101C4800D51C0008A51C00082B484FF4FA712B4A34
:101C5800FB6814F03FFB49E027484FF4FA71284A23
:101C6800FB6814F037FB41E023484FF4FA71254A2A
:101C7800FB6814F02FFB39E01F484FF4FA71214A32
:101C8800FB6814F027FB31E01B484FF4FA711E4A39
:101C9800FB6814F01FFB00F03BF827E016484FF4F0
:101CA800FA71184AFB6814F015FB1FE012484FF44C
:101CB800FA71144AFB6814F00DFB17E00E484FF454
:101CC800FA71104AFB6814F005FB0FE00A484FF45C
:101CD800FA710C4AFB6814F0FDFA07E006484FF465
:101CE800FA710A4AFB6814F0F5FA00BF024808F0D6
:101CF800D5F91037BD4680BD6C3B01204CB90108B1
:101D08005CB9010868B9010874B9010884B9010807
:101D180080B500AF064B1B781846FFF7FBFD03465E
:101D280004484FF4FA71044A14F0D4FA80BD00BF95
:101D3800F00A00206C3B012090B9010880B590B0F2
:101D480000AFF860B9607A60FB70012387F83F3014
:101D58000023BB6359E0BA6B1346DB0013449B00B6
:101D6800FA6813447B63786B2D49022214F04AFB0E
:101D78000346002B3DD17B6B023307F1100210465E
:101D8800194614F00AFB07F110031846254914F008
:101D980069FB7863786B00F0B5FBBA6B1346DB0020
:101DA80013449B00BA6813441846796B14F0F5FA8B
:101DB80000201C4914F056FB78637B6B002B0ED077
:101DC800786B00F09FFBBA6B1346DB0013449B0053
:101DD8007A6813441846796B14F0DFFA12E0BA6B8C
:101DE8001346DB0013449B007A68134400221A70E0
:101DF80008E00D48B96B7A6B14F006FA002387F8EF
:101E08003F3006E0BB6B0133BB63FA78BB6B9A4289
:101E1800A1DC97F83F3018464037BD4680BD00BF6B
:101E2800A4B90108A8B90108ACB9010880B588B0FF
:101E380000AFF860B960FA71BB71FA79BB799A4260
:101E480001D9002334E00023FB610023FB76002343
:101E58007B6128E00023FB610023FB7617E07A69A9
:101E68001346DB0013449B00FA681A44FB69591CAB
:101E7800F9619B00B96A0B441B6810461946FEF7C6
:101E8800A9F90346002B02D10123FB7603E0BA79B6
:101E9800FB699A42E3DCFB7E002B01D1002307E0BB
:101EA8007B6901337B61FA797B699A42D2DC012331
:101EB80018462037BD4680BD80B582B000AF786037
:101EC80078680F49FEF786F90346002B01D10323F2
:101ED80012E078682C2114F053FA0346002B01D045
:101EE800022309E078682D2114F04AFA0346002BF2
:101EF80001D0012300E0002318460837BD4680BD05
:101F0800F8B9010880B58CB000AF03463960FB71A1
:101F1800002387F82F300023BB60FF23FB750023C5
:101F28003B610023BB62002387F82730002387F832
:101F380026300023FB730023BB7300233B6207E0BA
:101F4800684B3A6A002143F822103B6A01333B622E
:101F58003B6A242BF4D9FB79032B00F2BC8001A245
:101F680052F823F07D1F00080F200008B11F000859
:101F7800AD200008386800210A2214F05FFB0346F0
:101F8800FB7597F91730002B02DBFB7D252B03D956
:101F9800554814F039F9A2E0FB7D184603F058FFC4
:101FA8000246504B1A609AE03B68002B2AD03B68E7
:101FB800BB62BB681B782C2B02D1BB680133BB62A8
:101FC80007F10803B86A19460A2214F037FB38618A
:101FD8003B69242B11D83B69002B0EDB3B69DBB234
:101FE800184603F035FF01463E4B3A6943F8221084
:101FF80097F82F30013387F82F30BB68002B00D1BA
:1020080000E0D6E76BE0002387F82730002387F845
:10201800263007F10803386819460A2214F00EFB27
:102028000346FB73BB680133184600210A2214F0EB
:1020380005FB0346BB73FB7B002B03D0FB7B87F8B8
:10204800273002E0002387F82730BB7B002B03D022
:10205800BB7B87F8263002E0252387F8263097F8DF
:10206800262097F82730D31ADBB2013387F82F30B0
:102078000023FB6110E0FB69DAB297F827301344BC
:10208800DBB2184603F0E4FE0146164BFA6943F842
:102098002210FB690133FB6197F82F20FB699A42F4
:1020A800E9DC1CE0252387F82F300023BB610CE016
:1020B800BB69DBB2184603F0CBFE0146094BBA698F
:1020C80043F82210BB690133BB6197F82F20BB6925
:1020D8009A42EDDC03E0054814F096F800BF30376B
:1020E800BD4680BD84540020FCB9010840BA0108EF
:1020F80080B58CB000AF03463960FB71002387F8C8
:102108002F300023BB60FF23FB7500233B610023B6
:10211800BB62002387F82730002387F82630002386
:10212800FB730023BB7300233B6207E0684B3A6AEA
:10213800002143F822103B6A01333B623B6A172BAC
:10214800F4D9FB79032B00F2BC8001A252F823F0EA
:1021580069210008FB2100089D2100089922000838
:10216800386800210A2214F069FA0346FB7597F9CA
:102178001730002B02DBFB7D182B03D9554814F0D0
:1021880043F8A2E0FB7D184602F08CFC0246504B57
:102198001A609AE03B68002B2AD03B68BB62BB6898
:1021A8001B782C2B02D1BB680133BB6207F10803F3
:1021B800B86A19460A2214F041FA38613B69172BAC
:1021C80011D83B69002B0EDB3B69DBB2184602F0E5
:1021D80069FC01463E4B3A6943F8221097F82F30C4
:1021E800013387F82F30BB68002B00D100E0D6E719
:1021F8006BE0002387F82730002387F8263007F1A3
:102208000803386819460A2214F018FA0346FB73C3
:10221800BB680133184600210A2214F00FFA03465E
:10222800BB73FB7B002B03D0FB7B87F8273002E0D6
:10223800002387F82730BB7B002B03D0BB7B87F8B4
:10224800263002E0182387F8263097F8262097F8DA
:102258002730D31ADBB2013387F82F300023FB6114
:1022680010E0FB69DAB297F827301344DBB218465E
:1022780002F018FC0146164BFA6943F82210FB6974
:102288000133FB6197F82F20FB699A42E9DC1CE0D7
:10229800182387F82F300023BB610CE0BB69DBB241
:1022A800184602F0FFFB0146094BBA6943F82210B1
:1022B800BB690133BB6197F82F20BB699A42EDDCFB
:1022C80003E0054813F0A0FF00BF3037BD4680BDCE
:1022D80024540020FCB9010840BA010880B58CB02C
:1022E80000AF03463960FB71002387F82F300023C5
:1022F800BB60FF23FB7500233B610023BB62002307
:1023080087F82730002387F826300023FB73002343
:10231800BB7300233B6207E0684B3A6A002143F82D
:1023280022103B6A01333B623B6A0F2BF4D9FB79DD
:10233800032B00F2BC8001A252F823F055230008B9
:10234800E72300088923000885240008386800214D
:102358000A2214F073F90346FB7597F91730002B1E
:1023680002DBFB7D102B03D9554813F04DFFA1E08C
:10237800FB7D184601F080FE0246504B1A6099E03A
:102388003B68002B2AD03B68BB62BB681B782C2BB0
:1023980002D1BB680133BB6207F10803B86A19466A
:1023A8000A2214F04BF938613B690F2B11D83B69AD
:1023B800002B0EDB3B69DBB2184601F05DFE0146DF
:1023C8003E4B3A6943F8221097F82F30013387F8CB
:1023D8002F30BB68002B00D100E0D6E76AE000236D
:1023E80087F82730002387F8263007F10803386874
:1023F80019460A2214F022F90346FB73BB6801331D
:10240800184600210A2214F019F90346BB73FB7B16
:10241800002B03D0FB7B87F8273002E0002387F8E6
:102428002730BB7B002B03D0BB7B87F8263002E02C
:10243800102387F8263097F8262097F82730D31AE4
:10244800DBB2013387F82F300023FB6110E0FB6912
:10245800DAB297F827301344DBB2184601F00CFEC5
:102468000146164BFA6943F82210FB690133FB61F8
:1024780097F82F20FB699A42E9DC1BE0102387F8C4
:102488002F300023BB610CE0BB69DBB2184601F0BA
:10249800F3FD0146094BBA6943F82210BB690133C1
:1024A800BB6197F82F20BB699A42EDDC02E0054832
:1024B80013F0AAFE3037BD4680BD00BF1855002076
:1024C800FCB9010840BA010880B483B000AF0346E4
:1024D800FB71FB795F2B0BD0FB79402B02D9FB7981
:1024E8005A2B05D9FB79602B04D9FB797A2B01D8B3
:1024F800012300E0002318460C37BD465DF8047B35
:10250800704700BF80B584B000AF78600023FB60DF
:1025180023E0FB687A6813441B78FB72FB7A184641
:10252800FFF7D2FF0346002B14D0FB7A402B04D9C7
:10253800FB7A5A2B01D8012300E00023002B09D194
:10254800FB7A5F2B06D0FB687A681344FA7A203A44
:10255800D2B21A70FB680133FB60FB687A681344D7
:102568001B78002BD5D11037BD4680BD80B586B00D
:1025780000AFB9607A600246FA73BB730023FB753B
:10258800FB7B1E2B00F2448101A252F823F000BF0E
:102598001526000827260008392600084B260008BB
:1025A8005D2600086F26000881260008932600088B
:1025B800A5260008B7260008C9260008DB2600085B
:1025C800ED260008FF260008112700082327000829
:1025D8003527000847270008592700086B270008F7
:1025E8007D2700088F27000895270008B3270008D3
:1025F800B9270008CB270008D1270008E3270008DF
:10260800F52700080728000825280008BB7BB868BC
:1026180079681A4600F00AF90346FB75FFE0BB7BB0
:10262800B86879681A4600F03FF90346FB75F6E08A
:10263800BB7BB86879681A4600F072F90346FB75E7
:10264800EDE0BB7BB86879681A4600F051FA03469A
:10265800FB75E4E0BB7BB86879681A4600F092FA2B
:102668000346FB75DBE0BB7BB86879681A4600F067
:10267800D3FA0346FB75D2E0BB7BB86879681A4683
:1026880000F0DAFA0346FB75C9E0BB7BB8687968E5
:102698001A4600F029FB0346FB75C0E0BB7BB8680F
:1026A80079681A4600F07CFB0346FB75B7E0BB7BF4
:1026B800B86879681A4600F03BFB0346FB75AEE044
:1026C800BB7BB86879681A4600F086FB0346FB7541
:1026D800A5E0BB7BB86879681A4600F09DFB034605
:1026E800FB759CE0BB7BB86879681A4600F0D2FBA2
:1026F8000346FB7593E0BB7BB86879681A4600F01F
:10270800A5FC0346FB758AE0BB7BB86879681A4666
:1027180000F0E6FC0346FB7581E0BB7BB86879688E
:102728001A4600F027FD0346FB7578E0BB7BB868C6
:1027380079681A4600F05CFD0346FB756FE0BB7BC9
:10274800B86879681A4600F091FD0346FB7566E0A3
:10275800BB7BB86879681A4600F048FE0346FB75EB
:102768005DE0BB7BB86879681A4600F089FE0346CD
:10277800FB7554E0BB7BB86879681A4600F0CAFE5E
:102788000346FB754BE007F017F848E0132012F0FA
:10279800CDF8034643F001031320194612F0AEF8B2
:1027A80007F00AF8FFF7C8F839E000F04BFF36E009
:1027B800BB7BB86879681A4600F0BCFE0346FB7517
:1027C8002DE002F0B9FD2AE0BB7BB86879681A46AB
:1027D80000F0E4FF0346FB7521E0BB7BB86879682D
:1027E8001A4600F0EBFF0346FB7518E0BB7BB868A0
:1027F80079681A4600F0F2FF0346FB750FE0BB7BD1
:10280800B86879681A4600F0F9FF0346FB7506E0D8
:10281800054813F0F9FC0223FB7500E000BFFB7DBF
:1028280018461837BD4680BD80BA010880B588B003
:1028380002AFF860B9601346FB710023FB75FB79A2
:10284800154A0092F868B9681A460023FFF7EEFAAD
:102858000346002B16D002F0E3FF0346BB75BB7D91
:10286800002B0ED0BB7D1846FFF754F803460B48E3
:10287800194613F0C9FC0A4BBA7D1A700423FB757C
:1028880005E004E0074813F0BFFC0123FB75FB7D5E
:1028980018461837BD4680BDEC080020C0BA0108AC
:1028A800F00A002008BB010880B588B002AFF860C4
:1028B800B9601346FB710023FB75FB79144A00923B
:1028C800F868B9681A460023FFF7B0FA0346002BE8
:1028D80013D007F069FF08F05FFE0E4B1B78002B42
:1028E80005D00C4807F03AFC07F05EFF0AE00A48FA
:1028F80013F08AFC0423FB7504E0084813F084FCF9
:102908000123FB75FB7D18461837BD4680BD00BF07
:10291800EC0800206C3B012060BB0108A8BB010843
:1029280080B58CB002AFF860B9601346FB71002324
:1029380087F82730FB79684A0092F868B9681A4620
:102948000223FFF773FA0346002B00F0B980002337
:102958003B620323FB77FF23FB740023BB6150E03A
:102968005D4BBA6953F82220FB79F86811461A467C
:1029780000F0FAFF0346FB7497F91330002B38DB9D
:10298800BB69002B02D0012B1ED02FE0534813F057
:102998003BFC97F913201346DB0013449B00BA68ED
:1029A80013441846FFF788FA0346FB7797F9132074
:1029B8001346DB0013449B00BA681344FA7F1046A1
:1029C8001946FFF79FFA14E0454813F01DFC97F9E4
:1029D80013201346DB0013449B00BA6813441846BF
:1029E80000210A2213F02AFE386202E0032387F846
:1029F800273097F82730002B00D005E0BB6901335A
:102A0800BB61BB69012BABDD97F82730002B1FD1C9
:102A1800FB7F032B1CD000237B6116E0314B7A69C6
:102A280053F82230002B0DD02E4B7A6953F8223000
:102A38001B78012B06D1042387F827302A4B032261
:102A48001A7005E07B6901337B617B69242BE5D92A
:102A580097F82730002B32D1FB7F032B26D801A211
:102A680052F823F07D2A0008992A00088B2A0008CA
:102A7800A72A00083B6A1B481946012204F06EFC8D
:102A88001AE03B6A17481946002204F067FC13E075
:102A98003B6A14481946002204F060FC0CE03B6ACB
:102AA80010481946002204F059FC05E0042387F871
:102AB80027300D4B05221A7002F094FC06E005E061
:102AC8000A4813F0A1FB012387F8273097F827302D
:102AD80018462837BD4680BDFC00002000BC010810
:102AE80018BC010884540020F00A002030BC0108FA
:102AF80080B588B002AFF860B9601346FB71002357
:102B0800FB7502F0DDFC0346002B2CD1FB79194A3A
:102B18000092F868B9681A460523FFF787F9034653
:102B2800012B1AD1FB79F868B9681A4602F0B4FF8C
:102B38000346BB75BB7D002B0ED0BB7D1846FEF748
:102B4800E9FE03460C48194613F05EFB0B4BBA7DB1
:102B58001A700423FB7508E007E0094813F054FBDA
:102B68000323FB7501E00523FB75FB7D1846183729
:102B7800BD4680BD0401002088BC0108F00A002081
:102B8800D4BC010880B588B002AFF860B9601346BC
:102B9800FB710023FB7502F093FC0346002B2CD13C
:102BA800FB79194A0092F868B9681A460123FFF7B9
:102BB8003DF90346002B1AD0FB79F868B9681A4624
:102BC80003F0DEF80346BB75BB7D002B0ED0BB7D42
:102BD8001846FEF79FFE03460C48194613F014FBEF
:102BE8000B4BBA7D1A700423FB7508E007E009480F
:102BF80013F00AFB0123FB7501E00523FB75FB7D40
:102C080018461837BD4680BD1801002034BD01089C
:102C1800F00A002084BD010880B487B000AFF860D6
:102C2800B9601346FB710023FB75FB7D18461C3702
:102C3800BD465DF8047B704780B58AB002AFF86086
:102C4800B9601346FB710023FB77FB79244A009295
:102C5800F868B9681A460123FFF7E8F80346002B1D
:102C680038D0FF23FB750023BB6130E01C4BBA69E9
:102C780053F82220FB79F86811461A4600F074FED2
:102C88000346FB7597F91730002B19DBBB69002B3E
:102C980014D1144813F0B8FA97F917201346DB003B
:102CA80013449B00BA681344184607F0D7FF03463D
:102CB800BB75BB7D184607F0B5FF01E00323FB7722
:102CC800FB7F002B00D005E0BB690133BB61BB690A
:102CD800002BCBDDFB7F18462037BD4680BD00BFEB
:102CE8001C010020E0BD010880B586B000AFF86087
:102CF800B9601346FB710023FB7507F0A3FF034679
:102D0800184607F0CDFF386107484FF4FA71074AB3
:102D18003B6913F0DFFA044807F020FAFB7D1846F8
:102D28001837BD4680BD00BF6C3B0120F8BD0108C7
:102D380080B588B002AFF860B9601346FB71002314
:102D4800FB75FB79134A0092F868B9681A460423A0
:102D5800FFF76CF80346002B11D0FB79F868B968C7
:102D68001A4600F05DFE0346BB75BB7D002B05D0FF
:102D7800094BBA7D1A700423FB7505E004E0074887
:102D880013F042FA0123FB75FB7D18461837BD4640
:102D980080BD00BF20010020F00A002020BE0108ED
:102DA80080B586B000AFF860B9601346FB710023A8
:102DB800FB7500F029FE0346BB75BB7D002B04D0D4
:102DC800044BBA7D1A700423FB75FB7D184618372F
:102DD800BD4680BDF00A002080B586B000AFF8601F
:102DE800B9601346FB710023FB7509F09DF9386142
:102DF80007484FF4FA71074A3B6913F06BFA044825
:102E080007F0ACF9FB7D18461837BD4680BD00BFFA
:102E18006C3B012084BE010880B588B002AFF86021
:102E2800B9601346FB710023FB75FB79154A0092C4
:102E3800F868B9681A460023FEF7F8FF0346002B26
:102E480016D001F041FC0346BB75BB7D002B0ED0AC
:102E5800BB7D1846FEF75EFD03460B48194613F086
:102E6800D3F90A4BBA7D1A700423FB7505E004E018
:102E7800074813F0C9F90123FB75FB7D184618377D
:102E8800BD4680BDEC080020A4BE0108F00A002061
:102E9800F0BE010880B58CB002AFF860B960134687
:102EA800FB71002387F82730FB79634A0092F868A2
:102EB800B9681A460223FEF7B9FF0346002B00F053
:102EC800B48000233B620023FB77FF23FB740023BD
:102ED800BB6150E0584BBA6953F82220FB79F86877
:102EE80011461A4600F040FD0346FB7497F913306B
:102EF800002B38DBBB69002B02D0012B1ED02FE042
:102F08004E4813F081F997F913201346DB00134458
:102F18009B00BA6813441846FEF7CEFF0346FB77BA
:102F280097F913201346DB0013449B00BA68134437
:102F3800FA7F10461946FFF7DBF814E0404813F013
:102F480063F997F913201346DB0013449B00BA6812
:102F58001344184600210A2213F070FB386202E07D
:102F6800032387F8273097F82730002B00D005E097
:102F7800BB690133BB61BB69012BABDD97F8273017
:102F8800002B1FD1FB7F032B1CD000237B6116E095
:102F98002C4B7A6953F82230002B0DD0294B7A69D3
:102FA80053F822301B78012B06D1042387F82730E9
:102FB800254B0A221A7005E07B6901337B617B6926
:102FC800172BE5D997F82730002B2ED1FB7F032B41
:102FD80026D801A252F823F0F12F00080D3000087E
:102FE800FF2F00081B3000083B6A164819460122CB
:102FF80002F078F817E03B6A12481946002202F0FE
:1030080071F810E03B6A0F481946002202F06AF88E
:1030180009E03B6A0B481946002202F063F802E017
:10302800042387F8273002F0EDF997F8273018467F
:103038002837BD4680BD00BF3001002000BC010814
:1030480018BC010824540020F00A002080B588B07C
:1030580002AFF860B9601346FB710023FB7502F0FC
:103068003BFA0346002B2CD1FB79194A0092F868E9
:10307800B9681A460223FEF7D9FE0346012B1AD176
:10308800FB79F868B9681A4601F0A4FB0346BB75DA
:10309800BB7D002B0ED0BB7D1846FEF73BFC0346DC
:1030A8000C48194613F0B0F80B4BBA7D1A7004237C
:1030B800FB7508E007E0094813F0A6F80123FB7543
:1030C80001E00623FB75FB7D18461837BD4680BD19
:1030D800380100204CBF0108F00A0020A0BF0108F9
:1030E80080B588B002AFF860B9601346FB71002361
:1030F800FB7502F0F1F90346002B2CD1FB79194A34
:103108000092F868B9681A460123FEF78FFE034655
:10311800002B1AD0FB79F868B9681A4601F04EFC02
:103128000346BB75BB7D002B0ED0BB7D1846FEF752
:10313800F1FB03460C48194613F066F80B4BBA7DB1
:103148001A700423FB7508E007E0094813F05CF8DF
:103158000123FB7501E00623FB75FB7D1846183734
:10316800BD4680BD4001002000C00108F00A0020D3
:1031780050C0010880B588B002AFF860B960134646
:10318800FB710023FB75FB79154A0092F868B96852
:103198001A460023FEF74AFE0346002B16D000F01D
:1031A80079FD0346BB75BB7D002B0ED0BB7D184651
:1031B800FEF7B0FB03460B48194613F025F80A4BF7
:1031C800BA7D1A700423FB7505E004E0074813F084
:1031D8001BF80123FB75FB7D18461837BD4680BDDB
:1031E800EC080020ACC00108F00A0020F8C0010873
:1031F80080B588B002AFF860B9601346FB71002350
:10320800FB75FB79154A0092F868B9681A460223DB
:10321800FEF70CFE0346002B16D0FB79F868B96858
:103228001A4600F049FF0346BB75BB7D002B0AD048
:10323800BB7D0B48194612F0E7FF0A4BBA7D1A709E
:103248000423FB7505E004E0074812F0DDFF0123C5
:10325800FB75FB7D18461837BD4680BD440100202C
:1032680054C10108F00A0020A0C1010880B58CB043
:1032780002AFF860B9601346FB71002387F8273066
:10328800FB79554A0092F868B9681A460223FEF796
:10329800CDFD0346002B00F0928000233B62002303
:1032A800FB77FF23FB750023BB6150E04A4BBA69EB
:1032B80053F82220FB79F86811461A4600F054FBAF
:1032C8000346FB7597F91730002B38DBBB69002BD9
:1032D80002D0012B1ED02FE0404812F095FF97F93D
:1032E80017201346DB0013449B00BA6813441846A2
:1032F800FEF7E2FD0346FB7797F917201346DB003C
:1033080013449B00BA681344FA7F10461946FEF727
:10331800E5FF14E0324812F077FF97F917201346BB
:10332800DB0013449B00BA681344184600210A22A4
:1033380013F084F9386202E0032387F8273097F8FE
:103348002730002B00D005E0BB690133BB61BB69A6
:10335800012BABDD97F82730002B2FD1FB7F032BF8
:1033680026D801A252F823F0813300089D330008C3
:103378008F330008AB3300083B6A1A48194601220C
:1033880001F004FD17E03B6A16481946002201F0D7
:10339800FDFC10E03B6A13481946002201F0F6FCD8
:1033A80009E03B6A0F481946002201F0EFFC02E0F1
:1033B800042387F8273002F035F806E005E00A48CC
:1033C80012F022FF012387F8273097F82730184694
:1033D8002837BD4680BD00BF4C01002000BC010855
:1033E80018BC010818550020F8C1010880B588B03C
:1033F80002AFF860B9601346FB710023FB7502F059
:1034080077F80346002B2CD1FB79194A0092F8680B
:10341800B9681A460223FEF709FD0346002B1AD0A5
:10342800FB79F868B9681A4600F0BEFC0346BB751C
:10343800BB7D002B0ED0BB7D1846FEF76BFA03460A
:103448000C48194612F0E0FE0B4BBA7D1A700423A3
:10345800FB7508E007E0094812F0D6FE0123FB756A
:1034680001E00723FB75FB7D18461837BD4680BD74
:103478005401002050C20108F00A0020A4C201082B
:1034880080B588B002AFF860B9601346FB710023BD
:10349800FB7502F02DF80346002B2CD1FB79194A55
:1034A8000092F868B9681A460123FEF7BFFC034684
:1034B800002B1AD0FB79F868B9681A4600F068FD45
:1034C8000346BB75BB7D002B0ED0BB7D1846FEF7AF
:1034D80021FA03460C48194612F096FE0B4BBA7DAA
:1034E8001A700423FB7508E007E0094812F08CFE07
:1034F8000123FB7501E00723FB75FB7D1846183790
:10350800BD4680BD5C01002004C30108F00A00200C
:1035180054C3010880B487B000AFF860B96013469F
:10352800FB710023FB75FB7D18461C37BD465DF813
:10353800047B704780B58AB002AFF860B960134663
:10354800FB710023FB77FB79384A0092F868B96869
:103558001A460123FEF76AFC0346002B5CD00023C1
:10356800BB61FF23FB7400237B612DE02F4B7A693D
:1035780053F82220FB79F86811461A4600F0F4F94E
:103588000346FB7497F91330002B16DB7B69002B7D
:1035980011D1274812F038FE97F913201346DB00A3
:1035A80013449B00BA681344184600210A2213F0FA
:1035B80045F8B86101E00323FB77FB7F002B00D0BF
:1035C80005E07B6901337B617B69002BCEDDFB7FE6
:1035D800002B20D103200021FEF794FC03200021BA
:1035E800FEF786FD03200021FEF778FEBB6911482F
:1035F8001946002203F0B2FEBB690F4819460022A3
:1036080001F070FDBB690D481946002201F0BEFBB0
:1036180001F018FF05E004E0094812F0F5FD012368
:10362800FB77FB7F18462037BD4680BD6001002030
:1036380018BC010884540020245400201855002088
:1036480030BC0108F0B58DB006AF0023FB7406F05E
:10365800FDFF78617B69002B01D1494B7B6106F046
:10366800E9FF0346BB7406F0FBFFF86007F022F899
:10367800B86007F029F8786000233B60414A424B64
:10368800144607CB20606160A2601A889B78A281EB
:10369800A3730E233B603A683A4B13441846332110
:1036A8003A4A7B6912F016FE03463A6813443B60B7
:1036B8003B68023B3B603A68324B1A44BB7C7968F2
:1036C800CDB27968090ACCB27968090CC8B27968B0
:1036D800090E009501940290039110464FF4FA7177
:1036E8002B4A12F0F7FD03463A6813443B603A68E8
:1036F800244B1A44FB68DBB2F968090ACCB2F968B2
:10370800090CC8B2F968090E00940190029110469C
:103718004FF4FA711F4A12F0DDFD03463A6813446C
:103728003B603A68174B1A44BB681B78B96801318B
:1037380009780E46B968023109780D46B96803312F
:1037480009780C46B968043109780846B968053122
:1037580009780096019502940390049110464FF45D
:10376800FA710D4A12F0B6FD03463A6813443B60FD
:10377800044806F093FCFB7C18461C37BD46F0BD98
:10378800B0C301086C3B0120B8C30108C8C30108D5
:10379800E0C301081CC401083CC4010880B487B018
:1037A80000AFF860B9601346FB710023FB75FB7D21
:1037B80018461C37BD465DF8047B704780B487B057
:1037C80000AFF860B9601346FB710023FB75FB7D01
:1037D80018461C37BD465DF8047B704780B487B037
:1037E80000AFF860B9601346FB710023FB75FB7DE1
:1037F80018461C37BD465DF8047B704780B586B017
:1038080000AFF860B9601346FB710023FB7500F048
:1038180061F90346BB75BB7D012B01D1094B00E063
:10382800094B0A484FF4FA71094A12F053FD03464E
:103838007B75064806F032FCFB7D18461837BD46F6
:1038480080BD00BF6CC4010874C401086C3B012032
:103858007CC4010880B500AF00F002F880BD00BF4D
:1038680080B483B000AF00237B6007E00A4A7B681E
:10387800134400221A707B6801337B607B68B3F5C0
:10388800007FF3D3044B0022A3F800220C37BD4677
:103898005DF8047B704700BFEC08002080B582B05B
:1038A80000AF0346FB71FB79002B58D02D4BB3F8C2
:1038B8000032B3F5007F52D2FB790A2B02D0FB7994
:1038C8000D2B04D1FEF798F8FFF7CAFF47E0FB7904
:1038D800082B02D0FB797F2B14D1224BB3F800328E
:1038E800002B0ED01F4BB3F80032013B9AB21D4B90
:1038F800A3F800221B4BB3F800321A4A0021D15416
:103908002DE02CE0FB79202B1BD1164BB3F80032AD
:10391800002B24D0134BB3F80032013B114AD35C7F
:10392800202B1CD00F4BB3F800320E4AF979D15432
:103938000C4BB3F8003201339AB20A4BA3F80022B9
:103948000DE0084BB3F80032064AF979D154054B1B
:10395800B3F8003201339AB2024BA3F800220837B9
:10396800BD4680BDEC08002080B586B000AFF86089
:10397800B9601346FB71FF23FB7500233B6113E01D
:103988003A691346DB0013449B00FA68134418464F
:10399800B968FCF71FFC0346002B02D13B69FB7595
:1039A80006E03B6901333B61FA793B699A42E7D803
:1039B800FB7D5BB218461837BD4680BD80B588B020
:1039C80000AFF860B9601346FB710023FB77FF2353
:1039D800BB7700237B7772233B770023FB7600239A
:1039E8007B6100BFFB7E184608F05CFA3B7F1846F7
:1039F80008F014FB7B7F184608F0A8FAFB7F1846EE
:103A08002037BD4680BD00BF80B582B000AF00231F
:103A1800FB7103F091FBFB7918460837BD4680BD62
:103A280080B588B000AFF860B9601346FB71002319
:103A3800FB77FB79F868B9681A46FFF7BFFF0346BA
:103A4800FB770023BB77FF23FB750023BB6133E0C3
:103A58001F4BBA6953F82220FB79F86811461A46B9
:103A6800FFF782FF0346FB7597F91730002B14DB2D
:103A7800BB69032B0ED197F917201346DB001344BB
:103A88009B00BA681344184607F0A2FE0346BB77AA
:103A980000BF0EE00423FB770BE0BB69002B05D0C9
:103AA800BB69012B02D0BB69022B00D101E00223C4
:103AB800FB77BB690133BB61BB69032BC8D9BB7FEB
:103AC800184603F071FBFB7F18462037BD4680BDC2
:103AD8002001002080B584B000AF0123FB7301F002
:103AE8005DFD87ED020A01F087FD87ED010A97ED7C
:103AF800027ADFED0A7AB4EEE77AF1EE10FA06DC24
:103B0800D7ED017AF5EEC07AF1EE10FA01D500236F
:103B1800FB73FB7B18461037BD4680BD000048424A
:103B280080B582B000AF0346FB71FB79184600F000
:103B380019F80346002B0AD0FA791346DB009B1AC2
:103B4800DB00064A1344184600F01EF802E0044859
:103B580012F05AFB0837BD4680BD00BFF80A0020A6
:103B680094C4010880B483B000AF0346FB71FB79AD
:103B78000F2B01D8012300E0002318460C37BD465F
:103B88005DF8047B704700BF80B483B000AF7860F5
:103B98007B6801221A707B6801229A7679684FF057
:103BA80000024FF00003C1E908237B6802330C4A86
:103BB8001068186012791A717B68FF225A707B6846
:103BC800032283F8302079684FF000024FF0000399
:103BD800C1E90A230C37BD465DF8047B704700BF76
:103BE800F4C4010880B584B000AF78600B46FB7060
:103BF8007B685B7803F00703DBB24FF4E06019469B
:103C080007F0CCFB0346FB737B685B78BB73BB7B1D
:103C1800072B02D9BB7B083BBB73BB7B012202FA93
:103C280003F37B73FB78012B04D1FA7B7B7B134373
:103C3800FB7303E0FA7B7B7B5340FB737B685B7809
:103C480003F00703DBB2FA7B4FF4E06011461A4633
:103C580007F054FB1037BD4680BD00BF80B582B069
:103C680000AF00237B600CE07A681346DB009B1AE8
:103C7800DB00074A13441846FFF786FF7B680133C9
:103C88007B607B680F2BEFD90837BD4680BD00BF2E
:103C9800F80A00202DE9F04194B002AF002387F81C
:103CA800473006F081FD394B394A14461D4604F168
:103CB80030082E46A446BCE80F0030607160B26040
:103CC800F360103410354445F3D12B462246128850
:103CD8001A80312387F83F3097F83F30002B06D100
:103CE8002C4812F091FA162387F8473046E02A4B01
:103CF8001B68002B03D0284B1B68244898470023D7
:103D08003B6438E025493A6C1346DB009B1ADB001C
:103D18000B443C461D460FCD0FC40FCD0FC40FCD2D
:103D28000FC495E8030084E803003B78002B1FD1FB
:103D38007B783A460232009214484FF4FA71184AD6
:103D480012F0C8FA034687F83F3097F83F30002B47
:103D580006D1144812F058FA162387F847300DE0B8
:103D68000D4B1B68002B03D00B4B1B68074898476B
:103D78003B6C01333B643B6C0F2BC3D997F847303E
:103D880018464837BD46BDE8F08100BF6C3B0120AE
:103D9800FCC4010830C50108F40A0020F80A002014
:103DA80064C5010888C5010880B590B000AFF86007
:103DB800B9607A60002387F83F300023BB62FF2395
:103DC80087F83730FF2387F83E30FF2387F83630EF
:103DD80007F110035A4A92E8030018600433197077
:103DE8000023BB6366E0574BBA6B53F822207B680D
:103DF800DBB2F86811461A46FFF7B6FD034687F8A6
:103E0800373097F93730002B3DDB97F937201346C9
:103E1800DB0013449B00BA6813443B63BB6B002B65
:103E280002D0012B23D029E007F12803386B19466B
:103E38000A2212F003FC034687F83630BA6A3B6B55
:103E48009A4203D1122387F83F300FE097F83630B3
:103E5800102B04D897F8363087F83E3006E03A48F9
:103E680012F0D2F90F2387F83F300BE00AE007F190
:103E780010031846396B12F090FA03E0122387F802
:103E88003F300FE00EE0BB6B012B00D10FE02D4B54
:103E9800BA6B53F822302D48194612F0B5F91023A1
:103EA80087F83F3097F83F30002B00D005E0BB6B18
:103EB8000133BB63BB6B012B95DD97F83F30002BBB
:103EC80038D197F83E30FF2B31D097F83E3018465E
:103ED80000F0D2F8F862FB6A002B24D0FB6A1B784A
:103EE800002B1CD0FB6A97F83E205A70FB6A9A1C7C
:103EF80007F110031046194612F04FFAFB6A012227
:103F08009A76F96A4FF000024FF00003C1E90823DE
:103F1800F86A00F01DF8034687F83F300AE01423DA
:103F280087F83F3006E0112387F83F3002E013237B
:103F380087F83F3097F83F3018464037BD4680BD78
:103F4800F4C4010854010020BCC50108F8C50108E3
:103F580080B584B000AF78600023FB737B685B7822
:103F6800BB73BB7B0F2B07D87B6800221A7078685D
:103F78000121FFF737FE04E0044812F045F90F234A
:103F8800FB73FB7B18461037BD4680BD30C6010861
:103F980080B58AB000AFF860B9607A60002387F80E
:103FA8002730FF23FB7700233B6255E02F4B3A6A0B
:103FB80053F822207B68DBB2F86811461A46FFF7EF
:103FC800D3FC0346FB7797F91F30002B36DB97F9B4
:103FD8001F201346DB0013449B00BA681344BB61DF
:103FE8003B6A002B26D100233B6107F11003B86917
:103FF80019460A2212F022FB0346FB753A69BB698F
:104008009A4203D1122387F8273011E0FB7D184626
:10401800FFF7A8FD0346002B04D0FB7D1846FFF7E9
:104028007FFD05E0124812F0EFF80F2387F82730DC
:1040380000BF0EE0122387F827300AE00B4B3A6ADC
:1040480053F822300B48194612F0DEF8102387F88F
:1040580027303B6A01333B623B6A002BA6D097F8B6
:10406800273018462837BD4680BD00BF5C010020B8
:1040780094C60108F8C5010880B582B000AF0346B0
:10408800FB71FB791846FFF76DFD0346002B07D03F
:10409800FA791346DB009B1ADB00054A134403E058
:1040A800044812F0B1F8002318460837BD4680BD11
:1040B800F80A0020D0C6010880B58CB000AFF860BF
:1040C800B9601346FB71002387F82F30FF2387F868
:1040D8002730FF2387F82E30002387F82D30002360
:1040E800BB6268E04D4BBA6A53F82220FB79F86846
:1040F80011461A46FFF738FC034687F8273097F928
:104108002730002B44DB97F927201346DB001344A4
:104118009B00BA6813443B62BB6A002B02D0012B98
:1041280022D030E000237B6107F11403386A194676
:104138000A2212F083FA0346FB777A693B6A9A42AD
:1041480003D1122387F82F300CE0FB7F102B03D804
:10415800FB7F87F82E3005E0314812F055F80F2321
:1041680087F82F3000BF12E0386A2E49FCF732F882
:104178000346002B03D1012387F82D3007E00023E5
:1041880087F82D3003E0122387F82F300BE00AE080
:10419800224BBA6A53F822302348194612F034F8F1
:1041A800102387F82F3097F82F30002B00D005E028
:1041B800BB6A0133BB62BB6A012B93DD97F82F30D2
:1041C800002B25D197F82E30FF2B1ED097F82E30D4
:1041D8001846FFF751FFB861BB69002B11D0BB69C6
:1041E8001B78002B06D197F82D30B8691946FFF7D0
:1041F800F9FC0DE00D4812F007F8152387F82F3069
:1042080006E0112387F82F3002E0132387F82F30B8
:1042180097F82F3018463037BD4680BD440100203E
:10422800BCC5010834C70108F8C5010838C701082A
:1042380080B483B000AF7860034B7A681A600C379B
:10424800BD465DF8047B7047F40A0020B0B590B015
:1042580000AF002387F83F3007F01AF80023BB634C
:1042680020E01549BA6B1346DB009B1ADB000B44B0
:104278003C461D460FCD0FC40FCD0FC40FCD0FC444
:1042880095E8030084E803003B78002B07D197F8F2
:104298003030032B03D0012387F83F3005E0BB6B98
:1042A8000133BB63BB6B0F2BDBD997F83F30184644
:1042B8004037BD46B0BD00BFF80A002090B585B0B4
:1042C80000AF13460246FA710A46BA717B710023A1
:1042D800FB73BB790133DBB27A7902FB03F3BB735F
:1042E800BB7B0F2B18D8BA7B10491346DB009B1AEF
:1042F800DB000B443033FA791A70BC7B05F0E6FF1B
:104308000A4A2346DB001B1BDB0013442833C3E99E
:1043180000010123FB7304E0054811F075FF002339
:10432800FB73FB7B18461437BD4690BDF80A002086
:1043380064C8010880B584B000AF0346FB71002350
:10434800FB73FB79172B00F2E88001A252F823F0E7
:10435800B9430008C7430008D5430008E5430008EF
:10436800F5430008034400081144000821440008EC
:104378003144000841440008514400085F440008E3
:104388006F4400087D4400088B44000899440008E5
:10439800A9440008B9440008C7440008D5440008E7
:1043A800E5440008F34400080345000813450008E5
:1043B8005F48202110F0E6FC0346FB73AEE05C4842
:1043C800102110F0DFFC0346FB73A7E059484FF4B7
:1043D800807110F0D7FC0346FB739FE055484FF4FB
:1043E800006110F0CFFC0346FB7397E052480121AF
:1043F80010F0C8FC0346FB7390E04F48102110F002
:10440800C1FC0346FB7389E04C484FF4006110F08F
:10441800B9FC0346FB7381E048484FF4004110F0B3
:10442800B1FC0346FB7379E041484FF4807110F00A
:10443800A9FC0346FB7371E03D484FF4805110F02E
:10444800A1FC0346FB7369E03B48402110F09AFC4D
:104458000346FB7362E038484FF4006110F092FCA9
:104468000346FB735AE03248082110F08BFC0346E0
:10447800FB7353E02E48042110F084FC0346FB73C1
:104488004CE02B48402110F07DFC0346FB7345E0CF
:104498002B484FF4804110F075FC0346FB733DE058
:1044A80026484FF4007110F06DFC0346FB7335E0AD
:1044B8002148042110F066FC0346FB732EE02148D6
:1044C800022110F05FFC0346FB7327E01B484FF402
:1044D800005110F057FC0346FB731FE01A480221F5
:1044E80010F050FC0346FB7318E011484FF480614C
:1044F80010F048FC0346FB7310E00F484FF480713E
:1045080010F040FC0346FB7308E00B484FF4806151
:1045180010F038FC0346FB7300E000BFFB7B002B68
:1045280001D0002300E0012318461037BD4680BDA6
:104538000010024000200240001C0240001402400B
:1045480000080240000402400018024080B483B012
:1045580000AF0346FB71FB79172B01D8012300E05C
:10456800002318460C37BD465DF8047B704700BF32
:1045780080B483B000AF78607B6801221A707B68D2
:1045880001229A7679684FF000024FF00003C1E9E2
:1045980008237B680233064A1068186012791A717A
:1045A8007B68FF225A700C37BD465DF8047B704764
:1045B800B0C8010880B582B000AF0346FB71FB7933
:1045C8001846FFF7C3FF0346002B0AD0FA791346B3
:1045D8009B001344DB00064A13441846FFF7C8FF44
:1045E80002E0044811F010FE0837BD4680BD00BF48
:1045F800800E0020B8C8010880B584B000AF4FF421
:10460800FB70012110F054FA00233B720023FB7267
:1046180002237B603B1D2448194610F025FB4FF40C
:1046280080437B603B1D2148194610F01DFB41F279
:104638007C537B603B1D1E48194610F015FB4FF458
:104648002A437B603B1D1B48194610F00DFB0223D3
:104658007B603B1D1848194610F006FB40F6555381
:104668007B603B1D1548194610F0FEFA4FF41063A5
:104678007B603B1D1248194610F0F6FA0023FB60D8
:104688000CE0FA6813469B001344DB000D4A134400
:104698001846FFF76DFFFB680133FB60FB68172BBB
:1046A800EFD91037BD4680BD000402400008024023
:1046B800001002400014024000180240001C024092
:1046C80000200240800E00202DE9F04190B002AF9A
:1046D800002387F83730384B384A14461D4604F112
:1046E80030082E46A446BCE80F0030607160B26006
:1046F800F360103410354445F3D12B462246127826
:104708001A70302387F82F3097F82F30002B06D1F6
:104718002B4811F079FD0E2387F8373044E0294BF8
:104728001B68002B03D0274B1B682348984700239E
:104738003B6336E024493A6B13469B001344DB0085
:104748000B443C461D460FCD0FC40FCD0FC495E852
:10475800030084E803003B78002B1FD17B783A469E
:104768000232009214484FF4FA71184A11F0B2FD5F
:10477800034687F82F3097F82F30002B06D11448BE
:1047880011F042FD0E2387F837300DE00D4B1B6802
:10479800002B03D00B4B1B68074898473B6B013332
:1047A8003B633B6B172BC5D997F83730184638371A
:1047B800BD46BDE8F08100BF6C3B012018C9010867
:1047C8004CC90108780E0020800E00207CC9010821
:1047D800A0C9010880B590B000AFF860B9607A60F0
:1047E800002387F83F300023BB62FF2387F8373068
:1047F800FF2387F83E30FF2387F8363007F1100390
:10480800594A92E803001860043319700023BB6307
:1048180066E0564BBA6B53F822207B68DBB2F86827
:1048280011461A46FFF7A0F8034687F8373097F97C
:104838003730002B3DDB97F937201346DB00134454
:104848009B00BA6813443B63BB6B002B02D0012B5F
:1048580023D029E007F12803386B19460A2211F002
:10486800EDFE034687F83630BA6A3B6B9A4203D1AD
:104878000B2387F83F300FE097F83630182B04D811
:1048880097F8363087F83E3006E0394811F0BCFC1E
:10489800082387F83F300BE00AE007F110031846B9
:1048A800396B11F07AFD03E00B2387F83F300FE0F6
:1048B8000EE0BB6B012B00D10FE02C4BBA6B53F809
:1048C80022302C48194611F09FFC092387F83F3005
:1048D80097F83F30002B00D005E0BB6B0133BB637A
:1048E800BB6B012B95DD97F83F30002B36D197F83D
:1048F8003E30FF2B2FD097F83E30184600F0D2F804
:10490800F862FB6A002B24D0FB6A1B78012B1CD1B0
:10491800FB6A97F83E205A70FB6A9A1C07F110034D
:104928001046194611F039FDFB6A01229A76F96A98
:104938004FF000024FF00003C1E90823F86A00F0C5
:104948001BF8034687F83F3008E00D2387F83F300F
:1049580004E00A2304E00C2387F83F3097F83F303F
:1049680018464037BD4680BDB0C801083801002050
:10497800D0C901080CCA010880B584B000AF7860BE
:104988000023FB737B685B78BB73BB7B172B06D854
:104998007B6800221A70074811F036FC04E00648CC
:1049A80011F032FC0823FB73FB7B18461037BD4619
:1049B80080BD00BF40CA010878CA010880B58AB026
:1049C80000AFF860B9607A60002387F82730FF23CA
:1049D800FB7700233B6255E02F4B3A6A53F82220BD
:1049E8007B68DBB2F86811461A46FEF7BDFF03463E
:1049F800FB7797F91F30002B36DB97F91F201346FA
:104A0800DB0013449B00BA681344BB613B6A002B6C
:104A180026D100233B6107F11003B86919460A2221
:104A280011F00CFE0346FB753A69BB699A4203D143
:104A38000B2387F8273011E0FB7D1846FFF786FD2A
:104A48000346002B04D0FB7D1846FFF7B3FD05E0B5
:104A5800124811F0D9FB082387F8273000BF0EE071
:104A68000B2387F827300AE00B4B3A6A53F82230B9
:104A78000B48194611F0C8FB092387F827303B6A11
:104A880001333B623B6A002BA6D097F827301846C3
:104A98002837BD4680BD00BF40010020D0C90108AD
:104AA8000CCA010880B582B000AF0346FB71FB79E0
:104AB8001846FFF74BFD0346002B07D0FA7913463B
:104AC8009B001344DB00054A134403E0044811F03B
:104AD8009BFB002318460837BD4680BD800E00208A
:104AE800B8C8010880B582B000AF786005F0EEFB69
:104AF80002460B467968C1E908237B685B7818464B
:104B0800FFF718FC03461A467B689A760837BD46B5
:104B180080BD00BF80B483B000AF7860034B7A6873
:104B28001A600C37BD465DF8047B7047780E00208C
:104B38002DE9F04188B004AF78607B6803F1020882
:104B48007B685B781E467B68D3E908457B689B7E5B
:104B5800184605F007FE0346CDE9004502930C48C8
:104B68000C494246334611F0E7FB0346FB730A4BF8
:104B78001B68002B04D0084B1B680548984702E0C7
:104B8800064811F041FB1037BD46BDE8F08100BF73
:104B98006C3B0120D8CA0108780E002058CB0108C8
:104BA80080B483B000AF0346FB71FA79044B53F825
:104BB800223018460C37BD465DF8047B704700BFAD
:104BC8006401002080B500AF034811F01DFB034BC2
:104BD80000221A7080BD00BFACCB01084012002033
:104BE80080B500AF134B1B78002B0AD0114B1B78F4
:104BF8001846FFF7D5FF03460F48194611F004FB86
:104C080016E00E4811F000FB06F006FB0C4806F013
:104C180021FC0C4B00221A600B4B00221A600B4B34
:104C280000221A600A4B00221A70024B01221A70E5
:104C380080BD00BF40120020DCCB010824CC010855
:104C4800C542000844120020481200204C120020DF
:104C58005012002080B582B000AF2E4B1B78042B79
:104C680054D801A252F823F0854C00088B4C000858
:104C7800154D0008914C0008F74C0008FFF7B0FFED
:104C880045E000F061F842E000233B60224B1A68DF
:104C9800224B1B689A421FD2214B1B78012B05D14E
:104CA8001D4B1B685A1C1C4B1A6030E000237B60AC
:104CB80009E01C4B1A687B689B0013441B683B6027
:104CC8007B6801337B607B680F2BF2D9124B1B6822
:104CD8005A1C114B1A601AE0134811F095FA134840
:104CE80005F0DCF900F030F800F0DEFB0FE00A4BCD
:104CF80000221A60094B00221A600A4B00221A602F
:104D0800074B00221A7000F01FF800E000BF0837B8
:104D1800BD4680BD401200204812002044120020E9
:104D2800501200204C1200205CCC010890CC0108E5
:104D380080B500AF034811F067FA00F005F800F0FD
:104D4800B3FB80BDB0CC010880B500AF0C4B1B781D
:104D5800012B0ED00A4B1B78032B0AD0084B1B786B
:104D68001846FFF71DFF03460648194611F04CFA8E
:104D780005E0054811F048FA014B02221A7080BD7F
:104D880040120020DCCC01081CCD010880B586B09B
:104D980000AFF860B9601346FB71384B1B78022BE3
:104DA8000AD0364B1B781846FFF7FAFE03463448FC
:104DB800194611F029FA5EE0FB68002B03D131484F
:104DC80011F022FA57E0FB79012B0ED1FB681B6822
:104DD800002B03D12C4811F017FA4CE02B4B002282
:104DE8001A702B4B01221A701DE00023FB750AE094
:104DF800FB7D9B00FA6813441B68002B00D005E07C
:104E0800FB7D0133FB75FB7D0F2BF1D9FB7D0F2B50
:104E180003D9204811F0F8F92DE01C4BFA7D1A70DF
:104E28001B4B10221A701C4BFA681A600023BB75C2
:104E3800194B1A68154B1B789B0013441B683B6180
:104E48000DE0154B1A68BB7D0133BB75BB7D9B001C
:104E580013441B683B61BB7D102B00D10BE03B6901
:104E6800002BEED00D4B00221A600D4BBA681A6069
:104E7800024B03221A701837BD4680BD401200202D
:104E88004CCD010898CD010808CE01085112002028
:104E98005012002074CE01084C1200204812002045
:104EA8004412002080B483B000AF0346FB71FA7946
:104EB800044B53F8223018460C37BD465DF8047B86
:104EC800704700BF7801002080B500AF034811F09B
:104ED8009BF9034B00221A7080BD00BF6CCF0108FC
:104EE8005212002080B500AF104B1B78002B0AD05F
:104EF8000E4B1B781846FFF7D5FF03460C4819469A
:104F080011F082F911E00B4811F07EF90A4B0022EA
:104F18001A600A4B00221A60094B00221A60094BDA
:104F280000221A70014B01221A7080BD5212002013
:104F38009CCF0108E4CF0108541200205812002029
:104F48005C1200206012002080B582B000AF464B92
:104F58001B78042B00F2848001A252F823F000BFD2
:104F68007D4F0008834F000869500008894F0008EA
:104F78004B500008FFF7B6FF73E000F091F870E0BF
:104F88003A4B1A683A4B1B789B0013441B683B60EA
:104F9800384B1A68384B1B689A4203D3364B1B6848
:104FA800002B42D1354B1B78012B11D12F4B1B689D
:104FB8001B681846FFF796FD2C4B1B681B681846A4
:104FC800FFF7B6FD2B4B1B685A1C2A4B1A6037E0BB
:104FD80000237B6020E0254B1A687B689B00134404
:104FE8001B683B603B68002B0CBF00230123DAB22F
:104FF8003B681B78002B14BF00230123DBB213404E
:10500800DBB2002B05D03868FFF76CFD3868FFF776
:105018008FFD7B6801337B607B68172BDBD9154BD1
:105028001B685A1C134B1A600AE0154811F0ECF87B
:10503800144805F033F800F033F800F029FA10E0CE
:105048000FE00C4B00221A600B4B00221A60074B32
:1050580000221A60094B00221A7000F021F800E0C3
:1050680000BF0837BD4680BD521200205C120020E8
:1050780061120020581200205412002060120020F3
:105088001CD0010850D0010880B500AF034811F0CA
:10509800BBF800F005F800F0FBF980BD70D00108FE
:1050A80080B500AF0C4B1B78012B0ED00A4B1B7838
:1050B800032B0AD0084B1B781846FFF7F3FE03466C
:1050C8000648194611F0A0F805E0054811F09CF8CB
:1050D800014B02221A7080BD521200209CD0010898
:1050E800DCD0010880B588B000AFF860B96013461D
:1050F800FB71474B1B78022B0AD0454B1B7818468F
:10510800FFF7D0FE03464348194611F07DF87BE0CF
:10511800FB68002B03D1404811F076F874E03F4B50
:1051280000221A603E4BBA681A60FB79012B17D12E
:10513800FB681B68002B03D13A4811F065F863E05F
:10514800FB681B681B78012B03D1374811F05CF80A
:105158005AE0364B00221A70354B01221A7025E0AE
:105168000023FB7712E0FB7F9B00FA6813441B685F
:10517800002B08D0FB7F9B00FA6813441B681B7840
:10518800002B00D105E0FB7F0133FB77FB7F172B5A
:10519800E9D9FB7F172B03D9264811F035F833E0FE
:1051A800224BFA7F1A70224B18221A70224BFA6887
:1051B8001A60214B1A681D4B1B789B0013441B680F
:1051C800BB61BB69002B16D10023FB750DE01A4BA0
:1051D8001A68FB7D0133FB75FB7D9B0013441B683C
:1051E800BB61FB7D182B00D10EE0BB69002BEED014
:1051F8000E4BFA7D1A70094B00221A60084BBA68E8
:105208001A60034B03221A702037BD4680BD00BFC9
:10521800521200200CD1010858D101085812002060
:1052280054120020C8D1010834D2010861120020AC
:1052380060120020A4D201085C12002080B500AFE3
:10524800074B00221A7001F027FF01F033FFFFF728
:105258003BFEFFF747FEFFF7B5FCFFF7C1FC80BD3B
:105268006212002080B500AF2F4B1B78052B58D851
:1052780001A252F823F000BF99520008AD5200086D
:10528800BB520008D1520008E7520008FD5200083E
:1052980001F0BAFFFFF758FEFFF7DCFC224B0122B2
:1052A8001A703FE001F0B0FFFFF74EFEFFF7D2FCA7
:1052B80038E01E4B1B78012B02D101F0A5FF31E02D
:1052C800194B01221A702DE0194B1B78012B02D1C2
:1052D800FFF73AFE26E0144B01221A7022E0154B24
:1052E8001B78012B02D1FFF7B5FC1BE00E4B012206
:1052F8001A7017E00D4B1B78012B07D00C4B1B784D
:10530800012B03D00B4B1B78012B06D101F07CFF3E
:10531800FFF71AFEFFF79EFC04E0034B01221A7008
:1053280000E000BF80BD00BF6212002063120020B1
:10533800641200206512002080B500AF224810F0EA
:1053480063FF224B1B78052B36D801A252F823F0B5
:10535800CB530008CB53000871530008835300084F
:1053680095530008A7530008194810F04DFF01F0A5
:10537800A9FF164B01221A7024E0164810F044FFCA
:10538800FFF782FE114B01221A701BE0124810F041
:105398003BFFFFF7CDFC0D4B01221A7012E00F48BE
:1053A80010F032FF01F08EFFFFF76EFEFFF7C0FC32
:1053B800064B01221A7005E0094810F025FF00BFCE
:1053C80000E000BF80BD00BF98D301086212002032
:1053D800C0D30108F4D3010828D401085CD401081B
:1053E80084D4010880B400AF044B02221A70044B25
:1053F80001221A70BD465DF8047B704762120020D6
:105408006312002080B400AF044B03221A70044BCF
:1054180001221A70BD465DF8047B704762120020B5
:105428006412002080B400AF044B04221A70044BAD
:1054380001221A70BD465DF8047B70476212002095
:105448006512002080B400AF074B05221A70074B85
:1054580001221A70064B01221A70064B01221A709B
:10546800BD465DF8047B704762120020631200207D
:10547800641200206512002080B400AF034B0022A4
:105488001A70BD465DF8047B704700BF63120020A8
:1054980080B400AF034B00221A70BD465DF8047B50
:1054A800704700BF6412002080B400AF034B002295
:1054B8001A70BD465DF8047B704700BF6512002076
:1054C80080B400AF034B1B781846BD465DF8047BDB
:1054D800704700BF6312002080B400AF034B1B78F5
:1054E8001846BD465DF8047B704700BF6412002073
:1054F80080B400AF034B1B781846BD465DF8047BAB
:10550800704700BF6512002080B584B000AF786096
:105518003960184BFB603B68002B02DAFB680133EB
:10552800FB607B6893F8DC34184606F023FD0346DD
:1055380006EE103AF8EEC67AB1EE047A87EE277ACC
:10554800DFED0D7A27EE277A3B6807EE903AF8EE02
:10555800E76AFB6806EE103AF8EEC67AC6EEA77A56
:1055680067EE277A054BC3ED007A00BF1037BD46BA
:1055780080BD00BFFFFF7F000000C8426812002006
:1055880080B400AF044B1B6807EE903AB0EE670A90
:10559800BD465DF8047B70476812002080B500AFF7
:1055A800114BD3ED007AF5EE407AF1EE10FA13D1F3
:1055B80000200E4903F01CFE01200D4903F018FEDF
:1055C8000A4B1B881A040A4B1B881A43094B1A609A
:1055D800084B1A68044B1A60034B1B6807EE903A95
:1055E800B0EE670A80BD00BF6C1200207612002062
:1055F800741200207C12002080B500AF114BD3ED4F
:10560800007AF5EE407AF1EE10FA13D102200E4935
:1056180003F0EEFD03200D4903F0EAFD0A4B1B8859
:105628001A040A4B1B881A43094B1A60084B1A685C
:10563800044B1A60034B1B6807EE903AB0EE670AFA
:1056480080BD00BF701200207A120020781200205E
:105658007C12002080B485B000AF78607B6801229E
:1056680083F8DB247B68002283F8DC247B68232210
:1056780083F8DD247B68002283F8D8247B68002225
:1056880083F8D9247B6800221A627B6800225A6258
:105698000023FB6013E07B68FA680A32002143F8B4
:1056A80022107A68FB683733DB00D1184FF000020C
:1056B8004FF00003C1E90023FB680133FB60FB687E
:1056C800632BE8D97B6801221A701437BD465DF850
:1056D800047B704780B582B000AF0346FB71FB794D
:1056E800184600F075FE0346002B0AD0FB794FF4EC
:1056F8009C6202FB03F2134B13441846FFF7AAFF00
:105708001CE0FB79184600F0D3FE0346002B0FD0AF
:10571800FB79242B00D111E0FB79213B4FF49C62EB
:1057280002FB03F2084B13441846FFF793FF05E00A
:10573800FB79202B02D0054810F066FD0837BD46DE
:1057480080BD00BF5855002058F10020CCD4010876
:1057580090B583B000AF00F0D9FE00237B600CE069
:105768007B684FF49C6202FB03F2294B13441846F2
:10577800FFF770FF7B6801337B607B681F2BEFD9D5
:1057880000237B600CE07B684FF49C6202FB03F211
:10579800204B13441846FFF75DFF7B6801337B609D
:1057A8007B68032BEFD91C48FFF754FF242000F037
:1057B8004FFB38603B6824225A703B68012283F80B
:1057C800DB243B68F02283F8DD243B68032283F85E
:1057D800DC243B685A1D114B144607CB20606160DE
:1057E800A2601B88A3813B68002283F8D8243B6809
:1057F800002283F8D9243B6800221A623B68002201
:105808005A62386800F062FA0C37BD4690BD00BF96
:105818005855002058F10020D804012028D5010847
:105828002DE9F041ADF5A16D06AF002387F8EF34FF
:1058380004F0BAFF8D4A8E4B11461A46412308469A
:1058480011461A4610F0CFFC402387F8E33497F846
:10585800E334002B06D1874810F0D6FC072387F8DD
:10586800EF34FBE0844B1B68002B03D0824B1B6892
:105878007E4898470023C7F8E8345DE03A467F49F8
:10588800D7F8E8344FF49C6000FB03F30B4411464F
:105898001A464FF49C63084611461A4610F0A3FCBA
:1058A8003B461B78002B42D13B465B781C463B4667
:1058B8005B88184600F0A6FB80463B4693F8DC342C
:1058C800184605F02FFF06463B4693F8DD34184688
:1058D80005F0BCFE05463B4693F8DB34184605F058
:1058E8005BFF0346CDF800803A46053201920296E6
:1058F800039504935D484FF4FA71614A234610F00A
:10590800E9FC034687F8E33497F8E334002B06D123
:105918005C4810F079FC072387F8EF3410E0564B09
:105928001B68002B03D0544B1B6850489847D7F886
:10593800E8340133C7F8E834D7F8E8341F2B9DD989
:1059480097F8EF34002B40F08980484A4E4B1546B3
:105958001C460FCC28606960AA60EB60206828614B
:10596800A388AB82152387F8E33497F8E334002B38
:1059780006D1464810F048FC072387F8EF346DE05D
:105988003D4B1B68002B03D03B4B1B68374898479F
:105998000023C7F8E4345DE03A463D49D7F8E434DB
:1059A8004FF49C6000FB03F30B4411461A464FF476
:1059B8009C63084611461A4610F015FC3B461B78B6
:1059C800002B42D13B465B781C463B461B79184668
:1059D80000F03CFC80463B4693F8DC34184605F062
:1059E800A1FE06463B4693F8DD34184605F02EFE28
:1059F80005463B4693F8DB34184605F0CDFE0346D2
:105A0800CDF800803A460532019202960395049338
:105A180016484FF4FA711F4A234610F05BFC034600
:105A280087F8E33497F8E334002B06D1154810F0D3
:105A3800EBFB072387F8EF3410E00F4B1B68002BB4
:105A480003D00D4B1B6809489847D7F8E434013355
:105A5800C7F8E434D7F8E434032B9DD997F8EF342A
:105A6800184607F59E67BD46BDE8F0816C3B0120EE
:105A780038D501087CD5010880120020585500202F
:105A8800ACD5010810D6010840D6010858D601083F
:105A980058F1002090D6010880B592B000AFF860A8
:105AA800B9601346FB71002387F84730FF2387F856
:105AB8003B30FF2387F84630012387F845302323FE
:105AC80087F84430002387F8433007F114037B4AF2
