:020000040800F2
:1000000000000220A5150008B1130008B513000870
:10001000E5140008E9140008ED14000800000000D1
:10002000000000000000000000000000FD150008B6
:10003000F114000800000000FD150008F514000888
:10004000FD150008FD150008FD150008FD15000848
:10005000FD150008FD150008FD150008FD15000838
:10006000FD150008FD150008FD150008FD15000828
:10007000FD150008FD150008FD150008FD15000818
:10008000FD150008FD150008FD150008FD15000808
:1000900069150008FD150008FD150008FD1500088C
:1000A000FD150008FD150008FD150008FD150008E8
:1000B000FD150008FD150008FD150008FD150008D8
:1000C000FD150008FD150008FD150008FD150008C8
:1000D000FD150008FD150008FD150008FD150008B8
:1000E000FD140008FD150008FD150008FD150008A9
:1000F000FD150008FD150008FD150008FD15000898
:10010000FD150008FD15000819150008FD1500086B
:10011000FD150008FD150008FD150008FD15000877
:10012000FD150008FD150008FD150008FD15000867
:10013000FD150008FD150008FD150008FD15000857
:10014000FD150008FD150008FD150008FD15000847
:10015000FD150008FD150008FD150008FD15000837
:10016000FD150008FD150008FD150008FD15000827
:10017000FD150008FD150008FD1500080000000031
:08018000FD150008FD15000843
:1001880010B5054C237833B9044B13B10448AFF3C9
:1001980000800123237010BD5006002000000000DD
:1001A800EC56010808B5064B1BB106480649AFF3E3
:1001B80000800648036813B1054B03B1984708BD92
:1001C80000000000EC5601085406002050060020EC
:1001D8000000000010F8012B11F8013B012A28BF8C
:1001E8009A42F7D0D01A704781F0004102E000BF70
:1001F80083F0004330B54FEA41044FEA430594EADF
:10020800050F08BF90EA020F1FBF54EA000C55EA19
:10021800020C7FEA645C7FEA655C00F0E2804FEAEA
:100228005454D4EB5555B8BF6D420CDD2C4480EACC
:10023800020281EA030382EA000083EA010180EAFC
:10024800020281EA0303362D88BF30BD11F0004F4A
:100258004FEA01314FF4801C4CEA113102D0404280
:1002680061EB410113F0004F4FEA03334CEA1333BB
:1002780002D0524263EB430394EA050F00F0A780D3
:10028800A4F10104D5F1200E0DDB02FA0EFC22FACE
:1002980005F2801841F1000103FA0EF2801843FAC2
:1002A80005F359410EE0A5F120050EF1200E012AB3
:1002B80003FA0EFC28BF4CF0020C43FA05F3C018F1
:1002C80051EBE37101F0004507D54FF0000EDCF16A
:1002D800000C7EEB00006EEB0101B1F5801F1BD313
:1002E800B1F5001F0CD349085FEA30004FEA3C0C17
:1002F80004F101044FEA445212F5800F80F09A800D
:10030800BCF1004F08BF5FEA500C50F1000041EB10
:10031800045141EA050130BD5FEA4C0C404141EB14
:10032800010111F4801FA4F10104E9D191F0000F3B
:1003380004BF01460020B1FA81F308BF2033A3F1BE
:100348000B03B3F120020CDA0C3208DD02F1140CB5
:10035800C2F10C0201FA0CF021FA02F10CE002F1F0
:100368001402D8BFC2F1200C01FA02F120FA0CFCE9
:10037800DCBF41EA0C019040E41AA2BF01EB045132
:10038800294330BD6FEA04041F3C1CDA0C340EDC30
:1003980004F11404C4F1200220FA04F001FA02F373
:1003A80040EA030021FA04F345EA030130BDC4F131
:1003B8000C04C4F1200220FA02F001FA04F340EA26
:1003C8000300294630BD21FA04F0294630BD94F0D7
:1003D800000F83F4801306BF81F480110134013DBE
:1003E8004EE77FEA645C18BF7FEA655C29D094EA2F
:1003F800050F08BF90EA020F05D054EA000C04BFAD
:100408001946104630BD91EA030F1EBF0021002097
:1004180030BD5FEA545C05D14000494128BF41F036
:10042800004130BD14F580043CBF01F5801130BD9A
:1004380001F0004545F0FE4141F470014FF0000025
:1004480030BD7FEA645C1ABF194610467FEA655CD6
:100458001CBF0B46024650EA013406BF52EA033578
:1004680091EA030F41F4002130BD00BF90F0000F66
:1004780004BF0021704730B54FF4806404F13204A2
:100488004FF000054FF0000150E700BF90F0000F5B
:1004980004BF0021704730B54FF4806404F1320482
:1004A80010F0004548BF40424FF000013EE700BF52
:1004B80042004FEAE2014FEA31014FEA02701FBFE2
:1004C80012F07F4393F07F4F81F06051704792F0B4
:1004D800000F14BF93F07F4F704730B54FF460742E
:1004E80001F0004521F0004120E700BF50EA010279
:1004F80008BF704730B54FF000050AE050EA010226
:1005080008BF704730B511F0004502D5404261EB95
:1005180041014FF4806404F132045FEA915C3FF4D6
:10052800DCAE4FF003025FEADC0C18BF03325FEA6F
:10053800DC0C18BF033202EBDC02C2F1200300FA24
:1005480003FC20FA02F001FA03FE40EA0E0021FA49
:1005580002F11444C1E600BF70B54FF0FF0C4CF433
:10056800E06C1CEA11541DBF1CEA135594EA0C0FE9
:1005780095EA0C0F00F0DEF82C4481EA030621EA24
:100588004C5123EA4C5350EA013518BF52EA03355F
:1005980041F4801143F4801338D0A0FB02CE4FF011
:1005A8000005E1FB02E506F00042E0FB03E54FF041
:1005B8000006E1FB03569CF0000F18BF4EF0010E39
:1005C800A4F1FF04B6F5007F64F5407404D25FEA35
:1005D8004E0E6D4146EB060642EAC62141EA5551E8
:1005E8004FEAC52040EA5E504FEACE2EB4F1FD0C2A
:1005F80088BFBCF5E06F1ED8BEF1004F08BF5FEAA8
:10060800500E50F1000041EB045170BD06F0004659
:1006180046EA010140EA020081EA0301B4EB5C0406
:10062800C2BFD4EB0C0541EA045170BD41F48011FE
:100638004FF0000E013C00F3AB8014F1360FDEBF23
:10064800002001F0004170BDC4F10004203C35DAFF
:100658000C341BDC04F11404C4F1200500FA05F382
:1006680020FA04F001FA05F240EA020001F0004223
:1006780021F0004110EBD37021FA04F642EB060199
:100688005EEA430E08BF20EAD37070BDC4F10C04C3
:10069800C4F1200500FA04F320FA05F001FA04F287
:1006A80040EA020001F0004110EBD37041F1000173
:1006B8005EEA430E08BF20EAD37070BDC4F120057E
:1006C80000FA05F24EEA020E20FA04F301FA05F2E6
:1006D80043EA020321FA04F001F0004121FA04F28E
:1006E80020EA020000EBD3705EEA430E08BF20EA5E
:1006F800D37070BD94F0000F0FD101F00046400098
:1007080041EB010111F4801F08BF013CF7D041EA19
:10071800060195F0000F18BF704703F0004652001D
:1007280043EB030313F4801F08BF013DF7D043EAEE
:100738000603704794EA0C0F0CEA135518BF95EAA4
:100748000C0F0CD050EA410618BF52EA4306D1D12B
:1007580081EA030101F000414FF0000070BD50EA4A
:10076800410606BF1046194652EA430619D094EAD4
:100778000C0F02D150EA013613D195EA0C0F05D1BE
:1007880052EA03361CBF104619460AD181EA030112
:1007980001F0004141F0FE4141F470014FF00000CA
:1007A80070BD41F0FE4141F4780170BD70B54FF065
:1007B800FF0C4CF4E06C1CEA11541DBF1CEA1355E5
:1007C80094EA0C0F95EA0C0F00F0A7F8A4EB0504C7
:1007D80081EA030E52EA03354FEA013100F08880BE
:1007E8004FEA03334FF0805545EA131343EA126387
:1007F8004FEA022245EA111545EA10654FEA00263C
:100808000EF000419D4208BF964244F1FD0404F5F4
:10081800407402D25B084FEA3202B61A65EB030550
:100828005B084FEA32024FF480104FF4002CB6EB0D
:10083800020E75EB030E22BFB61A754640EA0C008D
:100848005B084FEA3202B6EB020E75EB030E22BFCD
:10085800B61A754640EA5C005B084FEA3202B6EB0E
:10086800020E75EB030E22BFB61A754640EA9C00CD
:100878005B084FEA3202B6EB020E75EB030E22BF9D
:10088800B61A754640EADC0055EA060E18D04FEA5B
:10089800051545EA16754FEA06164FEAC30343EAFB
:1008A80052734FEAC2025FEA1C1CC0D111F4801FC8
:1008B8000BD141EA00014FF000004FF0004CB6E7C1
:1008C80011F4801F04BF01430020B4F1FD0C88BF60
:1008D800BCF5E06F3FF6AFAEB5EB030C04BFB6EB6B
:1008E800020C5FEA500C50F1000041EB045170BD5E
:1008F8000EF0004E4EEA113114EB5C04C2BFD4EB8B
:100908000C0541EA045170BD41F480114FF0000E0E
:10091800013C90E645EA060E8DE60CEA135594EA8A
:100928000C0F08BF95EA0C0F3FF43BAF94EA0C0F8D
:100938000AD150EA01347FF434AF95EA0C0F7FF402
:1009480025AF104619462CE795EA0C0F06D152EA56
:1009580003353FF4FDAE1046194622E750EA41063A
:1009680018BF52EA43067FF4C5AE50EA41047FF44B
:100978000DAF52EA43057FF4EBAE12E74FF0FF3CB0
:1009880006E000BF4FF0010C02E000BF4FF0010C81
:100998004DF804CD4FEA410C7FEA6C5C4FEA430CFA
:1009A80018BF7FEA6C5C1BD001B050EA410C0CBF49
:1009B80052EA430C91EA030F02BF90EA020F0020AB
:1009C800704710F1000F91EA030F58BF994208BF12
:1009D80090422CBFD8176FEAE37040F001007047CF
:1009E8004FEA410C7FEA6C5C02D150EA013C07D126
:1009F8004FEA430C7FEA6C5CD6D152EA033CD3D071
:100A08005DF8040B704700BF8446104662468C466A
:100A18001946634600E000BF01B5FFF7B7FF00289D
:100A280048BF10F1000F01BD4DF808EDFFF7F4FFC6
:100A38000CBF012000205DF808FB00BF4DF808ED51
:100A4800FFF7EAFF34BF012000205DF808FB00BF74
:100A58004DF808EDFFF7E0FF94BF012000205DF896
:100A680008FB00BF4DF808EDFFF7CEFF94BF01204B
:100A780000205DF808FB00BF4DF808EDFFF7C4FF44
:100A880034BF012000205DF808FB00BF4FEA410297
:100A980012F5001215D211D56FF47873B3EB6252C8
:100AA80012D94FEAC12343F0004343EA505311F0EF
:100AB800004F23FA02F018BF404270474FF0000081
:100AC800704750EA013005D111F0004008BF6FF0BF
:100AD800004070474FF00000704700BF4A0011D235
:100AE80012F5001211D20DD56FF47873B3EB625280
:100AF8000ED44FEAC12343F0004343EA505323FA8C
:100B080002F070474FF00000704750EA013002D100
:100B18004FF0FF3070474FF0000070474FEA410236
:100B2800B2F1E04324BFB3F5001CDCF1FE5C0DD943
:100B380001F0004C4FEAC0024CEA5070B2F1004F8D
:100B480040EB830008BF20F00100704711F0804F90
:100B580021D113F13872BCBF01F00040704741F455
:100B680080114FEA5252C2F11802C2F1200C10FA59
:100B78000CF320FA02F018BF40F001004FEAC1233D
:100B88004FEAD32303FA0CFC40EA0C0023FA02F3E1
:100B98004FEA4303CCE77FEA625307D150EA0133B7
:100BA8001EBF4FF0FE4040F44000704701F0004087
:100BB80040F0FE4040F40000704700BF4BB942B916
:100BC800002908BF002802D04FF0FF31084600F086
:100BD8005FB882B0EC462DE9005000F041F8DDF82E
:100BE80004E002B00CBC704770B5FFF761FC00224E
:100BF8000D4B04460D46FFF7AFFCFFF76FFF0646A7
:100C0800FFF734FC0022094BFFF7A6FC02460B460F
:100C180020462946FFF7ECFAFFF760FF002242EA78
:100C280000042046314670BD0000F03D0000F04150
:100C38002DE97043069E14461D468046894600F0FD
:100C480029F804FB01F300FB0533A4FB00451D4410
:100C5800B8EB040469EB0505C6E90045BDE87083F7
:100C68002DE97043069E1446804689461D4600F0CD
:100C78005DF900FB05F504FB0153A0FB04451D4489
:100C8800B8EB040469EB0505C6E90045BDE87083C7
:100C9800704700BF00292DE9F00FC0F29F800024A3
:100CA800002BC0F29680154606460F46002B3ED113
:100CB8008A4257D9B2FA82F34BB1C3F1200201FA42
:100CC80003F720FA02F29D40174300FA03F6290CB5
:100CD800B7FBF1F2330C01FB127CA8B243EA0C47D4
:100CE80000FB02F3BB4209D97F1902F1FF3C80F0F7
:100CF8000181BB4240F2FE80023A2F44FF1AB7FB43
:100D0800F1F3B6B201FB137146EA014100FB03F0AF
:100D1800884208D9491903F1FF3780F0ED808842ED
:100D280040F2EA80023B43EA0242002303E08B429E
:100D38000AD900231A461046194614B1404261EBFD
:100D48004101BDE8F00F7047B3FA83F8B8F1000F1E
:100D580040F084808B4202D3824200F2DE8000237E
:100D68000122E8E712B90123B3FBF2F5B5FA85F2DF
:100D7800002A39D17F1B280C1FFA85FC0123B7FBF9
:100D8800F0F1320C00FB117742EA07470CFB01F245
:100D9800BA4207D97F1901F1FF3802D2BA4200F2EC
:100DA800C1804146BF1AB7FBF0F2B6B200FB127021
:100DB80046EA00400CFB02FC844507D9401902F1C1
:100DC800FF3702D2844500F2AB803A4642EA01423C
:100DD800B1E7E443524263EB430364E7404261EB0B
:100DE80041014FF0FF345BE79540C2F1200327FA39
:100DF80003F1280C26FA03F39740B1FBF0F81F43E0
:100E08003B0C00FB18111FFA85FC43EA01410CFB5F
:100E180008F38B4206FA02F608D9491908F1FF329D
:100E280079D28B4277D9A8F102082944C91AB1FBB3
:100E3800F0F3BFB200FB131147EA01470CFB03F2C2
:100E4800BA4207D97F1903F1FF3160D2BA425ED99D
:100E5800023B2F44BF1A43EA084390E7C8F1200237
:100E680003FA08FC25FA02F343EA0C0C4FEA1C4982
:100E780021FA02F301FA08F720FA02F2B3FBF9F1BA
:100E8800174309FB11333A0C1FFA8CFB42EA034360
:100E98000BFB01FA9A4505FA08F008D913EB0C0385
:100EA80001F1FF3235D29A4533D902396344CAEB8E
:100EB8000303B3FBF9F209FB1233BFB247EA034756
:100EC8000BFB02F9B94508D917EB0C0702F1FF3300
:100ED8001BD2B94519D9023A674442EA0145A5FB34
:100EE8000001C9EB07078F424FF000030AD305D072
:100EF8002A4620E7624601E73B4614E706FA08F669
:100F08008642F5D26A1E002315E71A46E5E70B4626
:100F1800A0E71146CBE7904688E7434642460AE7F2
:100F2800023A53E702392F443CE700BF2DE9F00F9E
:100F3800144605460E46002B43D18A4253D9B2FACD
:100F480082F757B1C7F1200620FA06F601FA07F32F
:100F580002FA07F41E4300FA07F5210CB6FBF1F27A
:100F68002B0C01FB1267A0B243EA074600FB02F311
:100F7800B34209D9361902F1FF3780F0F680B3423F
:100F880040F2F380023A2644F61AB6FBF1F3ADB20A
:100F980001FB136145EA014100FB03F0884208D9CF
:100FA800091903F1FF3680F0E280884240F2DF80C1
:100FB800023B43EA0242002310461946BDE8F00FFF
:100FC80070478B424AD8B3FA83F6002E4DD18B4234
:100FD80002D3824200F2D68000230122104619462D
:100FE800BDE8F00F704712B90124B4FBF2F4B4FA6B
:100FF80084F2002A7CD1091B260CA7B20123B1FB7D
:10100800F6F02A0C06FB101142EA014107FB00F238
:101018008A4207D9091900F1FF3C02D28A4200F23C
:10102800C3806046891AB1FBF6F2ADB206FB121115
:1010380045EA014507FB02F7AF4208D92C1902F12E
:10104800FF3180F09680A74240F29380023A42EA4C
:10105800004210461946BDE8F00F704700231A46B3
:1010680010461946BDE8F00F7047C6F1200522FA70
:1010780005F4B3401C434FEA144821FA05F301FA7A
:1010880006F720FA05F5B3FBF8FC2F4308FB1C33E1
:101098003D0C1FFA84FA45EA03430AFB0CF999450B
:1010A80002FA06FB04D91B190CF1FF326DD39446E2
:1010B800C9EB0303B3FBF8F508FB1533BFB247EAE6
:1010C80003470AFB05F8B84504D93F1905F1FF3372
:1010D80061D31D4645EA0C4CACFB0B23C8EB070754
:1010E8009F424FF0000549D345D062462B4663E73F
:1010F8009440C2F1200321FA03FC260C20FA03F3E2
:1011080001FA02F5BCFBF6F843EA05010B0C06FBF5
:1011180018CCA7B243EA0C4C07FB08F3634500FA66
:1011280002F509D91CEB040C08F1FF323AD26345E9
:1011380038D9A8F10208A444C3EB0C0CBCFBF6F3A5
:1011480089B206FB13CC41EA0C4107FB03F28A4241
:1011580007D9091903F1FF3022D28A4220D9023B6C
:101168002144891A43EA084349E73A460CE73346DB
:101178001FE70A466BE7B0409042B6D20CF1FF3247
:10118800002319E73346324616E799458FD9ACF163
:10119800020C23448CE7B8459BD9023D274499E7C4
:1011A8000346DEE79046C7E7023821443AE700BF26
:1011B80082B00023019300931A4B1A6C42F08052BC
:1011C8001A64194A116841F4404111609A689A609A
:1011D8009A6842F400429A609A6842F4A0529A606F
:1011E800124A5A601A6842F080721A601A461368E6
:1011F80013F0007FFBD040F205720D4B1A60A3F587
:1012080080639A6822F003029A609A6842F00202A8
:101218009A601A46936803F00C03082BFAD102B0BF
:10122800704700BF00380240007000408A34000850
:10123800003C02401E4B9B6803F00C03042B06D0B5
:10124800082B08D023BB1B4A1B4B1A6023E01B4A00
:10125800194B1A601FE0164B59685B6803F03F038F
:1012680011F4800F14BF154A124AB2FBF3F3104A67
:101278005268C2F3881202FB03F20D4B5B68C3F39A
:10128800014301335B00B2FBF3F20B4B1A6002E03F
:10129800084A094B1A60064B9B68C3F30313084AB4
:1012A800D15CC9B2044B1A68CA401A60704700BFC3
:1012B800003802400024F4001000002000127A00D8
:1012C8000000002010B5114CD4F8883043F47003A6
:1012D800C4F888300E4B1A6842F001021A600021E7
:1012E80099601A6822F0847222F480321A60094ADE
:1012F8005A601A6822F480221A60D960FFF758FFF2
:10130800FFF798FF4FF00063A36010BD00ED00E009
:1013180000380240103000242DE9F0418846174675
:1013280000260A4C40250BE0204618F806100CF061
:10133800F3FE204629460CF0F3FE0028F9D00136CA
:10134800BE42F1DB3846BDE8F08100BF00480040EE
:101358000A4B1B6813B90A4A084B1A60074B1B68EB
:1013680018446A46904205D90C22064B1A604FF081
:10137800FF307047014A1060184670476C0600201D
:10138800CC630120C86301204FF0FF30704700BFD5
:101398004FF400534B600020704700BF0120704796
:1013A8000020704700207047704700BF10B588B014
:1013B8001EF0040F0CBFEFF30880EFF309802F4BEA
:1013C8001A6807925A6806929A680592DA6804922F
:1013D8001A6903925A6902929A690192DB69009329
:1013E80027480DF071FF079926480DF00FFF069961
:1013F80025480DF00BFF059924480DF007FF0499C7
:1014080023480DF003FF039922480DF0FFFE0299CF
:1014180021480DF0FBFE019920480DF0F7FE0099D8
:101428001F480DF0F3FE1F4B19681F480DF0EEFE24
:101438001E4B19681E480DF0E9FE1E4B19681E4820
:101448000DF0E4FE1D4CE16A1D480DF0DFFE1D4B5A
:1014580019681D480DF0DAFE1C4B19681C480DF080
:10146800D5FEE36A13F0804F06D01A480DF02CFF22
:10147800A16A19480DF0CAFE00BEFDE7000400206D
:1014880008570108205701082C5701083857010848
:1014980044570108505701085C570108685701086C
:1014A8007457010838ED00E08057010828ED00E086
:1014B8008C5701082CED00E09857010800ED00E07A
:1014C800A457010830ED00E0BC5701083CED00E0EE
:1014D800C8570108D4570108E8570108FEE700BFBC
:1014E800FEE700BFFEE700BF704700BF08B506F083
:1014F8008FF908BD08B54FF480400DF027F930B1D9
:10150800012004F0BDFB4FF480400DF029F908BD1F
:1015180070B50F4810210CF00BFEC0B10D4C2668B9
:10152800731C23600A4D28460CF000FE0A4B23F872
:101538001600284610210CF007FE2368012B06D957
:10154800054B5A881B88D21A92B2044B1A6070BD98
:10155800000C0040342300207006002038230020AF
:1015680010B50B4C0B48002122460DF0FFF82268FD
:1015780040F221339A4209D1A36803F0FF13B3F56F
:10158800803F03D10448E17A0DF040FE10BD00BF52
:10159800A05100200064004000580108DFF83CD04A
:1015A800002100F004B80E4B5B58435004310D483D
:1015B8000D4B42189A42FFF4F6AF0C4A00F003B8FC
:1015C800002342F8043B0A4B9A42FFF4F9AFFFF7B5
:1015D80079FE0DF0D5FD00F06DF87047000002208F
:1015E8009CA10108000000205006002050060020A1
:1015F800CC630120FFF7FEBF10B506F05FFA06F0D6
:1016080049FA02F0DDFD03F067F802F0A5F901F0F0
:10161800DBFE0A4C204603F0B9F9204602F046FBEF
:10162800204602F097F806F0FDFB05480DF0EEFDA8
:101638000022044B83F8202010BD00BF95710008DC
:101648001C5801080C3B012008B506F085F94FF03D
:10165800013006F0DBF9024806F0B6F908BD00BF14
:101668000C3B012070B5114C0125114E02F0BCFD58
:101678002378012B15D10023237004F00BFD08B14A
:1016880005F00AF806F0D0F805F088F805F006FD30
:10169800012807D105F03EFD307018B101F01EF8A1
:1016A80000E025700CF09AFEE0E700BF140000206F
:1016B800B451002008B54FF440700DF0A7F806F0BB
:1016C8008DFA21480DF0A2FD4FF0805001210CF059
:1016D80039FE01200CF07CFE13200CF0C1FD10F047
:1016E800020F03D119480DF091FD01E00CF092FDB5
:1016F8007D200CF051FE10B10CF062FE0AE07C2057
:101708000CF04AFE30B97B200CF046FE10B97A2066
:101718000CF042FE0CF054FEFFF76EFFFFF794FF4B
:1017280005F022FC18B900F04FFFFFF79BFFBFF34D
:101738004F8F074AD16801F4E061064B0B43D36031
:10174800BFF34F8FFEE700BF5058010870580108DB
:1017580000ED00E00400FA05014B53F82000704743
:1017680098580108014B53F820007047BC580108ED
:10177800BFF34F8F044AD16801F4E061034B0B4378
:10178800D360BFF34F8FFEE700ED00E00400FA05D9
:101798005F280CD0A0F14103DBB2192B09D96138BD
:1017A80000F0FF0019288CBF00200120704701209D
:1017B80070470120704700BFF8B5064600240DE0C9
:1017C8002846FFF7E5FF40B1A5F14103DBB2192B2D
:1017D80003D95F2D1CBF203D3D7001343719355D9D
:1017E800002DEDD1F8BD00BF10B5044C54F82040D1
:1017F800084611461A46A04710BD00BFCC5C010838
:101808000020704700207047002070470020704774
:101818000020704770B506460E480DF0F7FC00240E
:101828000D4D07E0304655F82410FEF7D3FC18B1EB
:101838000134E4B22A2CF5D92A2C06D80748064BDD
:1018480053F824100DF0E2FC02E005480DF0DEFC30
:10185800204670BD245E0108785D0108505E0108CD
:10186800885E01082DE9F84F834692461E460A9F76
:101878009A421ED84FF00008C14615E05C1C284665
:1018880057F82310FEF7A6FC50B1234604E04B4658
:1018980008EBC8050BEB85059E42EFDC4B4600E0E4
:1018A80001234BB108F10108C245F0DC0120BDE875
:1018B800F88F0020BDE8F88F0020BDE8F88F00BF42
:1018C8002DE9F04F8DB0834600910192994600248E
:1018D8004FF0020ADFF8848035E004EBC407BD004E
:1018E8000BEB050630461B4952460DF08DFD10BB2B
:1018F80003A8B11C0DF053FD03A841460EF022FCCD
:101908000646FFF759FF0098284431460DF047FD79
:10191800002041460EF016FC064638B1FFF74CFF92
:101928000198284431460DF03AFD0BE00023019A56
:1019380002F8273006E00848214632460DF066FCDA
:10194800002003E00134A145C7DC01200DB0BDE84B
:10195800F08F00BFC05E0108C85E0108C45E0108C0
:1019680008B506F02FFC002008BD00BF08B506F03A
:10197800A5FC092804D01822024B1A70042008BDBF
:10198800002008BD7C08002070B582B006460D46D0
:101998001446104B00930623FFF764FF012810D16B
:1019A80030462946224601F047FC044670B1FFF74D
:1019B800D9FE014608480DF029FC084B1C7004208C
:1019C80005E007480DF022FC032000E0002002B0EB
:1019D80070BD00BF60000020145F01087C08002073
:1019E800645F010808B506F0D7FB092804D0172260
:1019F800024B1A70042008BD002008BD7C08002096
:101A080008B5064B1878FFF7ADFE034604484FF4B7
:101A18000071044A0DF060FC08BD00BF7C0800207E
:101A28000C390120C45F010870B501F0A5FB06461A
:101A3800084C20464FF40071074A084D084B012E08
:101A480008BF2B460DF048FC204605F0DDFD0020C0
:101A580070BD00BF0C390120E85F0108D85F01089C
:101A6800E05F010800B583B0094B00930123FFF73D
:101A7800F9FE28B10720002105F016FA002003E03E
:101A880004480DF0C3FB012003B05DF804FB00BF60
:101A9800780800200060010800B583B0084B009367
:101AA8000023FFF7DFFE18B102F0FAFB002003E085
:101AB80004480DF0ABFB012003B05DF804FB00BF48
:101AC800740600205C600108F0B583B00D46002361
:101AD8000193354C1A4602E044F823200133242BA5
:101AE800FAD903285AD8DFE800F0022D1354284603
:101AF80000210A220EF012FCC0B2252803D92B4877
:101B08000DF084FB4DE002F0BFFD274B186048E064
:101B1800002D46D00A26244F019B19782C2908BF8E
:101B28005D1C284601A932460EF0F8FB044624281D
:101B380004D8C0B202F0A8FD47F82400019B002B8E
:101B4800EAD12EE0284601A90A220EF0E7FBC6B228
:101B58000198013000210A220EF0E0FBC0B20028F3
:101B680008BF2520801B451CEDB200240E4F06E05F
:101B78003019C0B202F088FD47F824000134A542AC
:101B8800F6DC0EE0E0B202F07FFD45F824000134F7
:101B980001E00024044D242CF4DD02E004480DF09B
:101BA80035FB03B0F0BD00BF20520020B86001082B
:101BB800FC600108F0B583B00D4600230193354C55
:101BC8001A4602E044F823200133172BFAD90328D8
:101BD8005AD8DFE800F0022D1354284600210A22C3
:101BE8000EF09CFBC0B2182803D92B480DF00EFB51
:101BF8004DE001F0C3FF274B186048E0002D46D0A8
:101C08000A26244F019B19782C2908BF5D1C2846F9
:101C180001A932460EF082FB0446172804D8C0B248
:101C280001F0ACFF47F82400019B002BEAD12EE01D
:101C3800284601A90A220EF071FBC6B201980130AC
:101C480000210A220EF06AFBC0B2002808BF182043
:101C5800801B451CEDB200240E4F06E03019C0B2BF
:101C680001F08CFF47F824000134A542F6DC0EE0B1
:101C7800E0B201F083FF45F82400013401E00024BC
:101C8800044D172CF4DD02E004480DF0BFFA03B050
:101C9800F0BD00BFC0510020B8600108FC60010819
:101CA800F0B583B00D4600230193354C1A4602E087
:101CB80044F8232001330F2BFAD903285AD8DFE838
:101CC80000F0022D1354284600210A220EF026FBAC
:101CD800C0B2102803D92B480DF098FA4DE001F056
:101CE8003DFC274B186048E0002D46D00A26244FBB
:101CF800019B19782C2908BF5D1C284601A932468A
:101D08000EF00CFB04460F2804D8C0B201F026FCE4
:101D180047F82400019B002BEAD12EE0284601A9B0
:101D28000A220EF0FBFAC6B20198013000210A22FD
:101D38000EF0F4FAC0B2002808BF1020801B451C22
:101D4800EDB200240E4F06E03019C0B201F006FCD7
:101D580047F824000134A542F6DC0EE0E0B201F0B9
:101D6800FDFB45F82400013401E00024044D0F2C4C
:101D7800F4DD02E004480DF049FA03B0F0BD00BFFD
:101D8800B4520020B8600108FC6001082DE9F04752
:101D980086B0384B00930023FFF764FD002862D01B
:101DA80005F04CFEB0F10009334B002808BF9946F6
:101DB80005F03EFE824605F045FE074605F054FE56
:101DC800064605F055FE80462C4C2D4D07CD20606B
:101DD8006160A2602A88AB78A281204600F80E3F95
:101DE8003321284A4B460DF077FA00F10C054FEAEB
:101DF80018635FFA88F20092C8F307220192C8F3C9
:101E080007420292039360194FF400711E4A534629
:101E18000DF062FA05443B0EC7F307220092C7F3A0
:101E280007420192029360194FF40071174AFBB2FE
:101E38000DF052FA2844337896F801E0B778F5782F
:101E480031797279CDF800E00197029503910492F7
:101E580020444FF400710E4A0DF03EFA204605F07A
:101E6800D3FB002003E00B480DF0D0F9012006B0A9
:101E7800BDE8F087740600203C6101080C39012098
:101E880044610108546101086C610108A8610108F6
:101E9800C8610108F861010800B583B00A4B0093D6
:101EA8000023FFF7DFFC38B10720012104F0FCFF15
:101EB80005F092F8FFF75CFC04480DF0A7F9012043
:101EC80003B05DF804FB00BF7406002048620108F7
:101ED80000B583B0084B00930023FFF7C3FC18B18B
:101EE80005F07AF8FFF744FC04480DF08FF901205B
:101EF80003B05DF804FB00BF7406002048620108C7
:101F080000B583B0084B00930023FFF7ABFC18B172
:101F180005F062F8002003E004480DF077F901208D
:101F280003B05DF804FB00BF740600209C62010842
:101F380070B582B006460D46144602F04FFAF0B965
:101F4800114B00933046294622460123FFF78AFCAD
:101F580080B130462946224601F0B6FA044680B1DF
:101F6800FFF700FC014609480DF050F9084B1C70BA
:101F7800042007E007480DF049F9012002E0072096
:101F880000E0002002B070BD40000020006301089E
:101F98007C0800205063010870B582B006460D46E3
:101FA800144602F01BFAF0B9114B0093304629464B
:101FB80022460223FFF756FC80B1304629462246C6
:101FC80001F0E0FA044680B1FFF7CCFB014609486E
:101FD8000DF01CF9084B1C70042007E007480DF0B1
:101FE80015F9012002E0072000E0002002B070BDD2
:101FF80048000020AC6301087C0800200064010848
:1020080010B504460A49FEF7E5F860B120462C21D0
:102018000DF0B8F948B920462D210DF0B3F900307C
:1020280018BF012010BD032010BD022010BD00BF45
:102038006064010870B582B006460D4614460E4B22
:1020480000930223FFF70EFC70B130462946224662
:1020580001F010FB044660B1084821460DF0D6F89F
:10206800074B1C70042005E006480DF0CFF801204E
:1020780000E0002002B070BD200000206464010868
:102088007C080020B064010810B582B00D4B0093A5
:102098000023FFF7E7FB68B101F0A6F9044670B129
:1020A800FFF760FB014608480DF0B0F8074B1C70BD
:1020B800042005E006480DF0A9F8012000E0002002
:1020C80002B010BD80080020086501087C080020C7
:1020D8005465010870B582B006460D46144602F0F4
:1020E80077F9F0B9114B009330462946224601236F
:1020F800FFF7B8FB80B130462946224601F0F4FCD0
:10210800044680B1FFF72EFB014609480DF07EF822
:10211800084B1C70042007E007480DF077F80120F1
:1021280002E0062000E0002002B070BD540000204C
:10213800B06501087C0800200066010870B582B00F
:1021480006460D46144602F043F9F8B9124B0093BF
:102158003046294622460223FFF784FB012810D186
:1021680030462946224601F01DFD044680B1FFF79E
:10217800F9FA014609480DF049F8094B1C7004208A
:1021880007E008480DF042F8012002E0062000E0D0
:10219800002002B070BD00BF180000205C66010876
:1021A8007C080020B066010810B582B00D4B009382
:1021B8000023FFF757FB68B101F028FC044670B113
:1021C800FFF7D0FA014608480DF020F8074B1C70BD
:1021D800042005E006480DF019F8012000E0002071
:1021E80002B010BD74060020106701087C080020AA
:1021F8005C67010838B50024084B1C7006F0A8FF7E
:102208000346074D28464FF40071064A0DF064F85E
:10221800284605F0A9FA204638BD00BF7C080020F2
:102228000C390120B8670108F0B585B007460E469D
:102238001546124C00940323FFF714FBB8B103A80A
:10224800394632462B4600F0B5FF18B10C4A1070DB
:10225800042010E00B4C20464FF400710A4A039BFF
:102268000DF03AF8204605F07FFA002003E0074811
:102278000CF0CCFF012005B0F0BD00BF9C00002091
:102288007C0800200C390120B8670108D8670108CC
:1022980070B582B006460D4614460C4B00930123D8
:1022A800FFF7E0FA48B130462946224600F032FFEF
:1022B80040B1074A1070042005E006480CF0A6FF5C
:1022C800012000E0002002B070BD00BF34000020F3
:1022D8007C0800204068010808B500F015FF18B117
:1022E800024A1070042008BD002008BD7C080020A8
:1022F80010B505F0D5FD05F0EFFD0346054C204669
:102308004FF40071044A0CF0E7FF204605F02CFA60
:10231800002010BD0C390120A468010870B582B0F6
:1023280006460D46144602F04DF8F0B9114B0093DD
:102338003046294622460123FFF794FA80B13046F9
:102348002946224602F05EF9044680B1FFF70AFAF0
:10235800014609480CF05AFF084B1C70042007E09E
:1023680007480CF053FF012002E0052000E00020A0
:1023780002B070BD3C000020CC6801087C08002039
:102388001C69010870B582B006460D46144602F075
:1023980019F8F8B9124B009330462946224605230E
:1023A800FFF760FA012810D130462946224602F08C
:1023B800DFF9044680B1FFF7D5F9014609480CF06A
:1023C80025FF094B1C70042007E008480CF01EFF8D
:1023D800032002E0052000E0002002B070BD00BF2D
:1023E80088000020786901087C080020C469010879
:1023F80000B583B00F4B00930023FFF733FA90B179
:1024080005F06EFB06F064FD0B4B1B7833B10A48F0
:1024180005F0AAF905F064FB002008E007480CF075
:10242800F5FE042003E006480CF0F0FE012003B09E
:102438005DF804FB740600200C390120246A0108A9
:102448006C6A010810B582B00D4B00930023FFF7AA
:1024580009FA68B102F0B4FB044670B1FFF782F9DB
:10246800014608480CF0D2FE074B1C70042005E01A
:1024780006480CF0CBFE012000E0002002B010BDA1
:1024880080080020C46A01087C0800200C6B010841
:1024980010B50446FFF760F90346082C47D8DFE873
:1024A80004F0050C131A2131383F2A0025484FF44F
:1024B8000071254A0CF010FF3FE022484FF40071EC
:1024C800224A0CF009FF38E01E484FF40071204AF8
:1024D8000CF002FF31E01B484FF400711C4A0CF06D
:1024E800FBFE2AE017484FF400711A4A0CF0F4FE7C
:1024F800FFF786FA21E013484FF40071144A0CF0F4
:10250800EBFE1AE00F484FF40071114A0CF0E4FE9C
:1025180013E00C484FF400710D4A0CF0DDFE0CE09E
:1025280008484FF400710A4A0CF0D6FE05E0054849
:102538004FF40071084A0CF0CFFE024805F064F829
:1025480010BD00BF0C390120646B0108746B0108D1
:10255800806B01088C6B01089C6B010870B5ECB0AE
:1025680004460E4615460F480CF050FE2046FFF76D
:1025780023F92046FFF74EF90446304636A96A4645
:102588002B46FFF79DF9012806D1204636A96A4651
:102598002B46FFF729F900E00320FFF779FF6CB01D
:1025A80070BD00BFA86B0108002306491A4601E068
:1025B800CA540133B3F5007FFAD30022014BA3F8C4
:1025C800002270477406002008B5FFF7EDFF08BD2C
:1025D8002DE9F041C0B0394C394821460CF016FEBF
:1025E800204638490CF027FF0024364D05E0013419
:1025F800E4B2013029460CF01EFF0028F7D1264628
:10260800314821460CF002FE002C3CD02B482D49C5
:102618000CF0CDFE242805D12C480CF0F7FDFFF76F
:10262800C3FF48E0254827490DF08CFD014601A865
:102638000CF0B5FE0025DFF88C802F460DE03846FB
:1026480041460DF07FFD014648B105EBC5000AABD8
:1026580003EB80000CF0A3FE0135B542EFDB1C480C
:1026680001A90CF0D3FD00251A4F09E005EBC502BE
:10267800384629460AAB03EB82020CF0C7FD013548
:10268800B542F3DB12E00D480CF0A1FE232805D972
:102698000E480CF0BBFDFFF787FF0CE001A80749C7
:1026A8000CF07DFE0C4801A90CF0B0FD01A80AA9A8
:1026B8002246FFF753FF40B0BDE8F08174060020C2
:1026C800D46B0108C85C0108EC6B0108106C0108A8
:1026D800486C0108786C0108886C010808B5034645
:1026E80068B3174AB2F80022B2F5007F27D20A2849
:1026F80001D00D2804D1FFF76BFFFFF755FF08BD88
:10270800082801D07F2808D1CAB1013A92B20C4BEF
:10271800A3F800220021995408BD20280AD172B1DB
:10272800511E0748415C202909D083540132A0F882
:10273800002208BD024988540132A1F8002208BDD0
:1027480074060020F8B507460E46154600240AE030
:1027580004EBC40007EB80003146FDF73BFD08B9E8
:10276800E0B203E00134A542F2D8FF2040B2F8BD40
:102778002DE9F04F83B080468B4691462E4B00934F
:102788000123FFF76FF8F0B94DE040465AF82510DD
:102798004A46FFF7D7FF002812DB85B927480CF017
:1027A80035FD05EBC5070BEB870701E00134E4B203
:1027B8003B5D002BFAD11F2C98BF032600E00326AF
:1027C80046B9013504E0002501242E46DFF868A04B
:1027D800002DDADD5EBB0BF085FEF3200BF09AFED0
:1027E8000BF0C6FE09280CD015480CF00FFD182276
:1027F800144B1A70042613E0284639780BF042FF70
:1028080000E0114D092801D1002CF5D10F48002115
:102818000BF038FF092803D018220A4B1A70042637
:102828000BF070FE03E00A480CF0F0FC012630467D
:1028380003B0BDE8F08F00BF30000020AC6C010889
:10284800C46C01087C0800202078FF1F017AFF1F54
:10285800E46C01082DE9F04F89B080468B4691461B
:102868004B4B00930123FEF7FDFF002836D186E08D
:1028780040465AF826104A46FFF764FF00282ADB2C
:1028880046BB44480CF0C2FC06EBC6000BEB8000CC
:10289800002110220DF050FD04460D463E48224608
:1028A8000B460CF0B3FCA3B20693230C43EA054392
:1028B80002932B0C0393BDF808300793049500236B
:1028C8000593BDF8104035482146079A069B0CF041
:1028D8009DFC00E003273FB9013603E00026374698
:1028E800DFF8ACA0002EC3DD002F4CD10BF0FAFDB1
:1028F800F3200BF00FFE0BF03BFE092807D0284809
:102908000CF084FC1822274B1A70042734E0264860
:10291800C4F307210BF0B6FE092803D12348E1B21E
:102928000BF0B0FE092805D12148079BC3F3072106
:102938000BF0A8FE092804D11E48079BD9B20BF05A
:10294800A1FE092805D11C48069BC3F307210BF0FB
:1029580099FE092804D11948069BD9B20BF092FEBA
:10296800092803D1164800210BF08CFE092803D052
:1029780018220C4B1A7004270BF0C4FD03E0114811
:102988000CF044FC0127384609B0BDE8F08F00BFC1
:1029980030000020AC6C0108446D0108686D010826
:1029A800C46C01087C0800200078FF1F0178FF1F15
:1029B8000278FF1F0378FF1F0478FF1F0578FF1FA9
:1029C800007AFF1FE46C01082DE9F04F2DED028B12
:1029D80083B0064689461746214B00930123FEF72C
:1029E80041FF78BB002535E0304658F824103A46B8
:1029F800FFF7A8FEB0F1000A21DBECB958460CF04D
:102A080005FC0CF0B7FB002101600AEBCA0009EBDA
:102A180080000DF07DFBB0EE408A0CF0ABFB036844
:102A280063B9B0EE480A05F023FC092807D018233B
:102A38000C4A1370042502E0032500E003254DB974
:102A4800013405E000242546DFF81480DFF818B0CB
:102A5800002CC9DD284603B0BDEC028BBDE8F08F21
:102A68002C0000207C080020A46D01082DE9F04FFF
:102A78002DED028B83B0064689461746214B0093FD
:102A88000123FEF7EFFE78BB002535E0304658F805
:102A980024103A46FFF756FEB0F1000A21DBECB9E4
:102AA80058460CF0B3FB0CF065FB002101600AEB03
:102AB800CA0009EB80000DF02BFBB0EE408A0CF049
:102AC80059FB036863B9B0EE480A05F0ABFB092867
:102AD80007D018230C4A1370042502E0032500E0F0
:102AE80003254DB9013405E000242546DFF814809C
:102AF800DFF818B0002CC9DD284603B0BDEC028B06
:102B0800BDE8F08F380000207C080020A46D010883
:102B18002DE9F04F2DED028B83B006468946174606
:102B2800214B00930123FEF79DFE78BB002535E07D
:102B3800304658F824103A46FFF704FEB0F1000A70
:102B480021DBECB958460CF061FB0CF013FB0021BB
:102B580001600AEBCA0009EB80000DF0D9FAB0EE6B
:102B6800408A0CF007FB036863B9B0EE480A05F029
:102B780033FB092807D018230C4A1370042502E0F8
:102B8800032500E003254DB9013405E0002425465E
:102B9800DFF81480DFF818B0002CC9DD284603B030
:102BA800BDEC028BBDE8F08FA80000207C08002057
:102BB800A46D01082DE9F04F89B080468B469146F7
:102BC8002E4B00930123FEF74DFE002847D14DE020
:102BD80040465AF826104A46FFF7B4FD00283BDB6A
:102BE800002E38D126480CF011FB06EBC6000BEB83
:102BF8008000002110220DF09FFB04460D4621485D
:102C080022460B460CF002FBA3B20493230C43EAC2
:102C1800054302932B0C0393BDF8083005930695E2
:102C280000230793BDF8184017482146059A049BCE
:102C38000CF0ECFA0420049904F036F90520059903
:102C480004F032F90620214604F02EF9072001216C
:102C580004F02AF900E0032767B9013603E00026EB
:102C68003746DFF818A0002EB2DD03E007480CF065
:102C7800CDFA0127384609B0BDE8F08F28000020BA
:102C8800AC6C0108446D0108C46D0108F46D0108BD
:102C98002DE9F04F83B006468A461746274B009326
:102CA8000123FEF7DFFDD8B940E0304659F824107B
:102CB8003A46FFF747FDB0F1000B0EDB64B9204838
:102CC8000CF0A4FA0BEBCB000AEB800000210A22DF
:102CD8000DF024FB804600E0032545B9013404E0EB
:102CE8000024A0462546DFF85490002CDDDD0DBBFE
:102CF80003200021FEF7E8FE03200021FEF75AFF1B
:102D080003200021FEF7CCFF0E484146002202F0C6
:102D180099FD0D484146002201F0DAF90B48414679
:102D2800002201F0A3F801F027FB03E008480CF0AB
:102D38006DFA0125284603B0BDE8F08F4400002055
:102D4800506E010820520020C0510020B4520020CB
:102D5800686E01082DE9F04F85B007468A4690460F
:102D6800334B00930223FEF77DFD60BB57E03846E6
:102D780059F824104246FFF7E5FC061E20DB14B183
:102D8800012C0FD01BE02B480CF040FA06EBC606CE
:102D98000AEB86063046FFF733F983463146FEF7DD
:102DA8007FFF0DE024480CF031FA06EBC6000AEB71
:102DB800800000210A220DF0B1FA039000E00325FB
:102DC8004DB9013405E00024A34603942546DFF8F5
:102DD8006090012CCBDD35BBBBF1030F1BD8DFE8BE
:102DE8000BF0020E081415480399012201F03EF871
:102DF80012E012480399002201F038F80CE00F485D
:102E08000399002201F032F806E00C4803990022E9
:102E180001F02CF800E0042501F0A2FA03E00848CC
:102E28000CF0F4F90125284605B0BDE8F08F00BF85
:102E380058000020B06E0108506E0108B4520020FE
:102E4800C86E01082DE9F04F85B007468B469046BD
:102E58003C4B00930223FEF705FD68BB00256CE0A0
:102E680038465AF824104246FFF76CFC061E20DB51
:102E780014B1012C0FD01BE033480CF0C7F906EB56
:102E8800C6060BEB86063046FFF7BAF88146314690
:102E9800FEF790FE0DE02D480CF0B8F906EBC600E1
:102EA8000BEB800000210A220DF038FA039000E0B5
:102EB80003254DB9013405E00024A14603942546B5
:102EC800DFF880A0012CCBDDA5B9B9F1030F0DD136
:102ED80010E051F823203AB11278012A04D10A22CD
:102EE8001B4B1A70042505E0013301E00023194942
:102EF800172BEED90DBBB9F1030F1BD8DFE809F08A
:102F0800020E081413480399012201F0E1F812E0B7
:102F180010480399002201F0DBF80CE00D480399F2
:102F2800002201F0D5F806E00A480399002201F0D2
:102F3800CFF800E0042501F007FA284605B0BDE8FF
:102F4800F08F00BF80000020B06E0108506E0108AD
:102F58007C080020C05100202DE9F04F83B00646C0
:102F680089461746164B00930123FEF77BFCD8B918
:102F7800002521E0304658F824103A46FFF7E2FBD6
:102F8800B0F1000B0DDB5CB90E480CF03FF90BEB10
:102F9800CB0009EB800004F089FF04F07BFF00E020
:102FA80055464DB9013405E000242546DFF8108068
:102FB8004FF0030A002CDDDD284603B0BDE8F08F92
:102FC80050000020206F01082DE9F04F85B007461A
:102FD8008B469046404B00930223FEF743FC60BBB0
:102FE80071E038465AF824104246FFF7ABFB061E3C
:102FF80020DB14B1012C0FD01BE038480CF006F987
:1030080006EBC6060BEB86063046FEF7F9FF81464F
:103018003146FEF759FD0DE031480CF0F7F806EBA4
:10302800C6000BEB800000210A220DF077F903900F
:1030380000E0032555B9013406E000244FF00309E8
:1030480003942546DFF890A0012CCADDA5B9B9F193
:10305800030F0DD110E051F823203AB11278012A5C
:1030680004D103221F4B1A70042505E0013301E047
:1030780000231D49242BEED94DBBB9F1030F1BD8F2
:10308800DFE809F0020E081417480399012202F03C
:10309800D9FB15E014480399002202F0D3FB0FE096
:1030A80011480399002202F0CDFB09E00E4803996C
:1030B800002202F0C7FB03E005220A4B1A70042520
:1030C80001F036F903E009480CF0A0F8012528467C
:1030D80005B0BDE8F08F00BF78000020B06E010891
:1030E800506E01087C08002020520020386F01082B
:1030F80008B5002005F0B0FD722005F003FE0020A1
:1031080005F0DCFD002008BD08B502F039F9002003
:1031180008BD00BF2DE9F04F83B08146019190466C
:10312800FFF7E6FF054600242646124F4FF01A0B1C
:103138004FF0190A15E0484657F824104246FFF7A1
:1031480001FB002809DB54B900EBC000019B03EB2D
:10315800800005F04FFC064602E05D4600E055465B
:103168000134002CE7D0304602F036F9284603B087
:10317800BDE8F08F3400002008B52DED028B01F07A
:1031880067F9B0EE408A01F08BF9DFED097AB4EE09
:10319800E78AF1EE10FA07DCB5EEC00AF1EE10FA94
:1031A8004CBF0020012000E00020BDEC028B08BDD0
:1031B800000048422DE9F04F85B0009088469146BE
:1031C8001F46002425461B4E4FF01A0A4FF0190BD4
:1031D80022E0404656F824103A46FFF7B3FA002892
:1031E80015DB00EBC00009EB8000012C07D014B1FF
:1031F800022C08D00DE005F0FDFB01900AE005F077
:1032080003FC029006E005F061FC039002E05546DD
:1032180000E05D4615B90134022CDAD935B90298B7
:103228000399019A04F068FE009B1860284605B0CF
:10323800BDE8F08F9C0000202DE9F04F2DED028BAA
:103248008BB081468A46904600242546304F4FF081
:103258001A0B46E0484657F824104246FFF772FA20
:10326800002839DB00EBC0030AEB8306052C35D8B0
:10327800DFE804F00310151A1F2400220AA941F8F8
:10328800042D30460DF04AF80390099BB34208BF5D
:10329800192524E0304605F019FC06901FE0304659
:1032A80005F0B2FB05901AE0304605F0A3FB049048
:1032B80015E0304604F0FAFD079010E00021154BA8
:1032C800196030460CF024FFB0EE408A114A1368AA
:1032D800002B18BF192502E05D4600E0192515B935
:1032E8000134052CB6D965B9079B00930398059955
:1032F800069A049BB0EE480A05F004F8092818BF9E
:10330800182528460BB0BDEC028BBDE8F08F00BF36
:1033180060000020C86301200F288CBF0020012016
:10332800704700BF10B40146012303708376002262
:103338000023C0E90823084C2068C1F8020020795E
:103348008871FF204870032081F83000C1E90A2302
:103358005DF8044B704700BF1073010810B50446B0
:10336800FFF7DAFF38B1C4EBC404054800EBC4002A
:10337800FFF7D8FF10BD03480BF048FF10BD00BF92
:10338800880800201873010838B504460D464178AE
:103398004FF4E06001F0070105F044F96278072A6C
:1033A80086BFA2F10801C9B2114601238B40DBB2E6
:1033B800012D0CBF03434340D9B24FF4E06002F043
:1033C800070205F0F9F838BD38B50024054D06E0C8
:1033D800C4EBC40005EBC000FFF7A4FF01340F2CB9
:1033E800F6D938BD880800202DE9F04391B004F0E3
:1033F80077FB264E264C06F1300735460FCD206068
:103408006160A260E3602E461034BD42F5D12B887E
:103418002380204B1B680BB11D48984700261E4F80
:10342800DFF86C80DFF8789029E0C6EBC60502ACBF
:1034380007EBC5050FCD0FC40FCD0FC40FCD0FC4BB
:1034480095E8030084E803009DF80830B3B99DF8B7
:1034580009300DF10A02009240464FF400714A46C5
:103468000BF03AFFC0B220B90C480BF0CFFE162083
:1034780008E0084B1B680BB14046984701360F2EF1
:10348800D3D9002011B0BDE8F08300BF78730108DC
:103498000C3901208008002088080020D07301081A
:1034A800AC73010810B543780F2B06D800240470BC
:1034B8000121FFF769FF204610BD02480BF0A6FE68
:1034C8000F2010BD047401082DE9F04F85B0804627
:1034D80089461746002425461D4EDFF87CB030E0AB
:1034E800404656F82410FAB2FFF72CF900281FDBE3
:1034F80000EBC00009EB800A0CBB04A9002341F8CB
:10350800043D50460A220CF009FFC0B20190039B0B
:1035180053450BD0FFF700FF18B10198FFF71EFFC6
:103528000EE00C480BF072FE0F2509E0122507E0AB
:10353800584656F824100BF069FE102500E01225B5
:103548000134002CCCD0284605B0BDE8F08F00BF70
:103558004000002068740108A474010810B50446EE
:10356800FFF7DAFE28B1C4EBC404044B03EBC40034
:1035780010BD03480BF04AFE002010BD880800204B
:10358800DC7401082DE9F04F89B080468A46174659
:1035980000250795334B93E8030001908DF8081038
:1035A8002C464FF0FF0B304E34E0404656F82410BE
:1035B800FAB2FFF7C7F800281CDB00EBC0000AEBE3
:1035C800800914B1012C10D01DE0484607A90A2231
:1035D8000CF0A4FEC0B2079B4B4516D0102816D994
:1035E80022480BF013FE0F2512E001A849460BF004
:1035F800D6FE0DE0012C0CD01D4856F824100BF017
:1036080005FE102504E0122502E0122500E083469D
:1036180015B90134012CC8DDFDB9BBF1FF0F17D076
:103628005846FFF79BFF0446A0B10378A3B180F882
:1036380001B0023001A90BF0B2FE0123A3760022EB
:103648000023C4E908232046FFF72CFF054604E0C1
:10365800132502E0112500E01425284609B0BDE82D
:10366800F08F00BF10730108480000204075010862
:10367800A47401082DE9F04F85B081468A4690462A
:10368800002401944FF0FF0B25462D4F3BE04846A0
:1036980057F824104246FFF755F8002829DB00EBBD
:1036A800C0030AEB830614B1012C18D028E004A942
:1036B800002341F8043D30460A220CF02FFEC0B228
:1036C800039BB34207D0102807D91E480BF09EFD74
:1036D80058460F2501E058461225834611E030462A
:1036E8001949FCF777FDD0F1010038BF002001909F
:1036F80007E0164857F824100BF088FD102500E065
:10370800122515B90134012CC1DDA5B9BBF1FF0F94
:103718000ED05846FFF722FF60B102781AB9019916
:10372800FFF732FE07E00A480BF070FD152502E0AE
:10373800132500E01125284605B0BDE8F08F00BF2D
:103748002000002040750108545C0108A474010899
:103758007C750108014B1860704700BF8008002085
:1037680070B501FB0222D4B20F2C0FD80A4DE60027
:10377800331B05EBC30383F8300004F055F8341B02
:1037880005EBC405C5E90A01012070BD03480BF02B
:103798003DFD002070BD00BF88080020A876010804
:1037A80017288CBF00200120704700BF0146012365
:1037B8000370837600220023C0E90823044B1868AD
:1037C800C1F802001B798B71FF234B70704700BF53
:1037D8001073010810B50446FFF7E2FF38B104EB97
:1037E8008404054800EBC400FFF7E0FF10BD034860
:1037F8000BF00CFD10BD00BF100C0020F476010882
:1038080008B5172800F29380DFE800F00C11161CA9
:1038180022272C32383E44494F54595E646A6F74EB
:103828007A7F858B454820210AF028FE80E04348AE
:1038380010210AF023FE7BE041484FF480710AF022
:103848001DFE75E03E484FF400610AF017FE6FE078
:103858003C4801210AF012FE6AE03A4810210AF0B9
:103868000DFE65E038484FF400610AF007FE5FE09E
:1038780035484FF400410AF001FE59E02F484FF453
:1038880080710AF0FBFD53E02C484FF480510AF098
:10389800F5FD4DE02B4840210AF0F0FD48E02948AD
:1038A8004FF400610AF0EAFD42E0244808210AF0DA
:1038B800E5FD3DE0214804210AF0E0FD38E01F481D
:1038C80040210AF0DBFD33E020484FF480410AF044
:1038D800D5FD2DE01C484FF400710AF0CFFD27E01C
:1038E800184804210AF0CAFD22E0194802210AF00A
:1038F800C5FD1DE014484FF400510AF0BFFD17E064
:10390800144802210AF0BAFD12E00C484FF4806115
:103918000AF0B4FD0CE00B484FF480710AF0AEFDDC
:1039280006E008484FF480610AF0A8FD00E0002096
:10393800D0F1010038BF002008BD00BF00100240D0
:1039480000200240001C024000140240000802400F
:10395800000402400018024070B582B04FF4FB70BA
:1039680001210AF0E1FC00248DF804408DF807409D
:10397800022602AD45F8086D1C4869460AF036FD76
:103988004FF4804300931A4869460AF02FFD41F22C
:103998007C530093174869460AF028FD4FF42A43E0
:1039A8000093154869460AF021FD009613486946B8
:1039B8000AF01CFD40F655530093114869460AF079
:1039C80015FD4FF4106300930E4869460AF00EFD8A
:1039D8000D4D06E004EB840005EBC000FFF7E6FEA2
:1039E8000134172CF6D902B070BD00BF00040240A4
:1039F8000008024000100240001402400018024073
:103A0800001C024000200240100C00202DE9F04369
:103A18008DB0254E254C06F1300735460FCD206078
:103A28006160A260E3602E461034BD42F5D12B7868
:103A380023701F4B1B680BB11C48984700261D4F6D
:103A4800DFF86880DFF8749027E006EB860502ACA3
:103A580007EBC5050FCD0FC40FCD0FC495E80300C4
:103A680084E803009DF80830B3B99DF809300DF1DA
:103A78000A02009240464FF400714A460BF02CFCB3
:103A8800C0B220B90C480BF0C1FB0E2008E0084B6F
:103A98001B680BB1404698470136172ED5D9002030
:103AA8000DB0BDE8F08300BF547701080C39012040
:103AB800080C0020100C0020AC770108887701085A
:103AC80010B54378172B06D80024047004480BF06F
:103AD8009DFB204610BD03480BF098FB082010BD45
:103AE800DC770108147801082DE9F04F85B080468D
:103AF80089461746002425461D4EDFF87CB030E085
:103B0800404656F82410FAB2FEF71CFE00281FDBC8
:103B180000EBC00009EB800A0CBB04A9002341F8A4
:103B2800043D50460A220CF0F9FBC0B20190039BF9
:103B380053450BD0FFF734FE18B10198FFF74AFE42
:103B48000EE00C480BF062FB082509E00B2507E0A6
:103B5800584656F824100BF059FB092500E00B25B0
:103B68000134002CCCD0284605B0BDE8F08F00BF4A
:103B78005400002074780108B078010810B5044694
:103B8800FFF70EFE28B104EB8404044B03EBC400DA
:103B980010BD03480BF03AFB002010BD100C0020AC
:103BA800F47601082DE9F04F89B080468A46174619
:103BB80000250795334B93E8030001908DF8081012
:103BC8002C464FF0FF0B304E34E0404656F8241098
:103BD800FAB2FEF7B7FD00281CDB00EBC0000AEBC9
:103BE800800914B1012C10D01DE0484607A90A220B
:103BF8000CF094FBC0B2079B4B4516D0182816D979
:103C080022480BF003FB082512E001A849460BF0F7
:103C1800C6FB0DE0012C0CD01D4856F824100BF003
:103C2800F5FA092504E00B2502E00B2500E08346A0
:103C380015B90134012CC8DDF5B9BBF1FF0F18D057
:103C48005846FFF79BFF0446C0B10378012B12D1F9
:103C580080F801B0023001A90BF0A1FB0123A37683
:103C680000220023C4E908232046FFF729FF054660
:103C780002E00C2500E00D25284600E00A2009B0E6
:103C8800BDE8F08F1073010818000020747801084F
:103C9800B078010810B5044603F0C6FDC4E9080170
:103CA8006078FFF7ADFDA07610BD00BF014B18602E
:103CB800704700BF080C0020F0B585B0871C467817
:103CC800D0E90845807E03F0FDFECDE9004502906D
:103CD800084809493A4633460BF030FB074B1B6846
:103CE80013B10448984702E005480BF08FFA05B075
:103CF800F0BD00BF0C390120E4780108080C002051
:103D08006479010808B503480BF080FA0022024BD9
:103D18001A7008BDB8790108DD0F002008B50F4BEF
:103D28001B7833B10E480F4A52F823100BF06EFA85
:103D380008BD0D480BF06AFA04F01AFC0B4804F0B1
:103D4800B9FC00230A4A13600A4A13600A4A13603E
:103D58000A4A13700122014B1A7008BDDD0F0020BA
:103D6800E8790108787D0108307A01086937000888
:103D7800D00F0020D40F0020D80F0020DC0F002027
:103D880008B50A4B1B78012B08D0032B06D008482E
:103D9800084A52F823100BF039FA08BD06480BF010
:103DA80035FA0222014B1A7008BD00BFDD0F002052
:103DB800687A0108787D0108A87A010808B51E4BC1
:103DC8001B78042B37D8DFE803F0030636092B00ED
:103DD800FFF7A4FF08BDFFF7D3FF08BD174B1A680C
:103DE800174B1B689A4210D2164B1B78012B05D132
:103DF8000132124B1A6008BD013300E000230F2B7B
:103E0800FAD901320D4B1A6008BD0F480BF0FEF9C4
:103E18000E4803F0F9FBFFF7B3FF00F0CDFA08BD39
:103E28000023064A1360064A1360094A1360054ACC
:103E38001370FFF7A5FF08BDDD0F0020D40F002089
:103E4800D00F0020DC0F0020D87A01080C7B010875
:103E5800D80F002008B504480BF0D8F9FFF790FFF9
:103E680000F0AAFA08BD00BF2C7B010808B5264B54
:103E78001B78022B06D02548254A52F823100BF050
:103E8800C5F908BD18B923480BF0C0F908BD012AC7
:103E980012D103681BB920480BF0B8F908BD0022FD
:103EA8001E4B1A7001221E4B1A7013E050F8232083
:103EB8002AB90133DBB200E000230F2BF6D90F2B10
:103EC80003D918480BF0A2F908BD144A1370102240
:103ED800134B1A70144B1860104B1B7850F82320A2
:103EE800002305E00133DBB250F82320102B09D062
:103EF800002AF7D000220D4B1A600D4B19600322DF
:103F0800014B1A7008BD00BFDD0F0020587B010867
:103F1800787D0108A47B0108147C0108DE0F0020CD
:103F2800DC0F0020807C0108D80F0020D40F00206F
:103F3800D00F002008B503480BF068F90022024BA7
:103F48001A7008BD8C7D0108E80F002008B50D4BDC
:103F58001B7833B10C480D4A52F823100BF056F970
:103F680008BD0B480BF052F900230A4A13600A4AAD
:103F780013600A4A13600A4A13700122014B1A702F
:103F880008BD00BFE80F0020BC7D0108B88101080A
:103F9800047E0108E00F0020E40F0020EC0F002051
:103FA800E90F002008B50A4B1B78012B08D0032B1A
:103FB80006D00848084A52F823100BF027F908BD24
:103FC80006480BF023F90222014B1A7008BD00BF06
:103FD800E80F00203C7E0108B88101087C7E0108BA
:103FE80070B52E4B1B78042B56D8DFE803F0030678
:103FF80055094A00FFF7AAFF70BDFFF7D3FF70BD50
:10400800274B1A68274B1B689A4201D3002B2DD1E6
:10401800254B1B78012B20D1244C23681868FFF707
:1040280039FE23681868FFF747FE1D4B1A680132EE
:104038001A6070BD336853F824502A782B1C18BFB7
:104048000123002A18BF00232BB12846FFF722FEC0
:104058002846FFF731FE013401E00024134E172CE7
:10406800E8D90F4B1A6801321A6070BD10480BF07E
:10407800CDF8104803F0C8FAFFF794FF00F096F95E
:1040880070BD0023064A1360064A1360074A13608E
:10409800054A1370FFF786FF70BD00BFE80F0020C8
:1040A800E40F0020E00F0020E90F0020EC0F0020B3
:1040B800AC7E0108E07E010808B504480BF0A6F8BC
:1040C800FFF770FF00F072F908BD00BF007F01081C
:1040D80010B52F4B1B78022B06D02E482E4A52F8CB
:1040E80023100BF093F810BD18B92C480BF08EF87C
:1040F80010BD00242A4B1C602A4B1960012A1BD1D1
:1041080003681BB928480BF081F810BD1B78012BF8
:1041180003D126480BF07AF810BD0022244B1A7000
:104128000122244B1A7015E050F823200AB11278A6
:104138002AB10133DBB200E00023172BF4D9172B87
:1041480003D91D480BF062F810BD194A13701822E4
:10415800184B1A70194B1860154B1B7850F8232010
:1041680062B906E00133DBB250F82320182B01D1E5
:1041780010BD0023002AF5D00D4A13700022084B09
:104188001A60084B19600322014B1A7010BD00BF5A
:10419800E80F00202C7F0108B8810108787F01080A
:1041A800E40F0020E00F0020E87F01085480010898
:1041B800EA0F0020E90F0020C4800108EC0F00205E
:1041C80008B50022074B1A7001F09AF801F0A4F81C
:1041D800FFF7B0FEFFF7BAFEFFF794FDFFF79EFD6D
:1041E80008BD00BFF00F002008B5294B1B78052B30
:1041F8004CD8DFE803F0030D141F2A3501F0CCFA80
:10420800FFF7EEFEFFF7DAFD0122214B1A7008BD19
:1042180001F0C2FAFFF7E4FEFFF7D0FD08BD1D4B21
:104228001B78012B02D101F0B7FA08BD0122184B07
:104238001A7008BD184B1B78012B02D1FFF7D0FE6E
:1042480008BD0122124B1A7008BD144B1B78012BB4
:1042580002D1FFF7B3FD08BD01220D4B1A7008BD4E
:104268000C4B1B78012B07D00B4B1B78012B03D071
:104278000A4B1B78012B06D101F08EFAFFF7B0FE2E
:10428800FFF79CFD08BD0122014B1A7008BD00BF55
:10429800F00F0020F20F0020F30F0020F10F002094
:1042A80008B51C480AF0B2FF1B4B1B78052B2CD80D
:1042B800DFE803F02E2E030C151E18480AF0A6FF9F
:1042C80001F0B4FA0122144B1A7008BD14480AF020
:1042D8009DFFFFF7F1FE01220F4B1A7008BD114830
:1042E8000AF094FFFFF7B6FD01220B4B1A7008BDC8
:1042F8000D480AF08BFF01F099FAFFF7DDFEFFF792
:10430800A9FD0122044B1A7008BD08480AF07EFF77
:1043180008BD00BFCC810108F00F0020F48101081E
:10432800288201085C82010890820108B88201088D
:104338000222034B1A700122024B1A70704700BF09
:10434800F00F0020F20F00200322034B1A70012205
:10435800024B1A70704700BFF00F0020F30F0020C7
:104368000422034B1A700122024B1A70704700BFD7
:10437800F00F0020F10F00200522054B1A700123D1
:10438800044A1370044A1370044A1370704700BF3C
:10439800F00F0020F20F0020F30F0020F10F002093
:1043A8000022014B1A707047F20F00200022014BC7
:1043B8001A707047F30F00200022014B1A707047E3
:1043C800F10F0020014B1878704700BFF20F002052
:1043D800014B1878704700BFF30F0020014B187885
:1043E800704700BFF10F002038B50C1E124BB4BF48
:1043F8004FF400051D4690F8DC0404F06DFC06EE51
:10440800100AF8EEC67AB1EE047AC7EE277A9FED65
:104418000B7A67EE877A07EE104AF8EEC76A06EE5F
:10442800105AB8EEC67A86EE877A67EE877A044B1A
:10443800C3ED007A38BD00BFFFFF7F000000C8420F
:10444800F80F0020014B93ED000A7047F80F002089
:1044580038B50F4BD3ED007AF5EE407AF1EE10FA4D
:1044680011D10C4D0020294602F0DAFB0A4C01203C
:10447800214602F0D5FB2A88238843EA0243074AEB
:104488001360034A1360024B93ED000A38BD00BF66
:1044980004100020F40F00200A1000200010002053
:1044A80038B50F4BD3ED007AF5EE407AF1EE10FAFD
:1044B80011D10C4D0220294602F0B2FB0A4C032010
:1044C800214602F0ADFB2A88238843EA0243074AC3
:1044D8001360034A1360024B93ED000A38BD00BF16
:1044E800FC0F00200C1000200810002000100020F5
:1044F80030B4012380F8DB34002180F8DC14232356
:1045080080F8DD3480F8D81480F8D914016241624B
:104518000D46002200230AE001F10A0440F8245065
:1045280001F1370400EBC404C4E900230131632915
:10453800F2D90123037030BC704700BF10B50446A0
:1045480000F05AFC38B10E4B4FF49C6000FB04306D
:10455800FFF7CEFF10BD204600F054FC50B1242CCC
:104568000DD0213C074B4FF49C6000FB0430FFF753
:10457800BFFF10BD202C02D003480AF047FE10BD33
:10458800F8520020F8EE00200083010838B50446F0
:104598004578284600F030FC60B1284600F012FD4E
:1045A8006080FF2323710025257012480AF02EFE33
:1045B800284638BD284600F025FC50B1FF2363800B
:1045C800213D2571002525700B480AF01FFE28465D
:1045D80038BD202D09D1FF23638023710025257064
:1045E80006480AF013FE284638BD05480AF00EFEB4
:1045F800012038BD5C83010894830108CC8301083D
:10460800FC8301082DE9F84F8046894617460024A7
:104618002546194EDFF86CA028E0404656F82410CD
:104628003A46FEF78FF8002817DB00EBC00009EBCD
:10463800800BCCB950460AF0E9FD584600210A2201
:104648000BF06CFEC0B2252802D8FFF777FF0CE00C
:104658000A480AF0DBFD012507E0094856F824104E
:104668000AF0D4FD022500E004250134002CD4D042
:104678002846BDE8F88F00BF3C0000205884010898
:1046880090840108B06E010810B5044600F0B4FB30
:1046980028B10D4B4FF49C6000FB043010BD204640
:1046A80000F0B0FB30B1213C084B4FF49C6000FB9C
:1046B800043010BD202C04D005480AF0A7FD0020C6
:1046C80010BD044810BD00BFF8520020F8EE0020CD
:1046D800008301087802012070B500F0ABFB0024CC
:1046E8004FF49C661E4D04E006FB0450FFF700FFE4
:1046F80001341F2CF8D900244FF49C66194D04E0AE
:1047080006FB0450FFF7F4FE0134032CF8D91648D1
:10471800FFF7EEFE2420FFF7B7FF0346242242707E
:10472800012280F8DB24C02280F8DD24032280F8EF
:10473800DC240E4C07CCC3F80500C3F80910C3F8F5
:104748000D202288A3F81120002283F8D82483F8AA
:10475800D9241A625A621846FFF718FF70BD00BFC5
:10476800F8520020F8EE002078020120C4840108E5
:104778002DE9F04F8DB081468A469046474B93E825
:10478800030006908DF81C10002403942323029341
:10479800012301934FF0FF0B2546414F4BE048465C
:1047A80057F824104246FDF7CDFF002836DB00EB12
:1047B800C0010AEB8106042C3AD8DFE804F0031B99
:1047C80020252A000CA9002341F81C3D30460A2266
:1047D8000BF0A4FDC0B2059BB34207D0252807D92A
:1047E80030480AF013FD5846012501E058460425D3
:1047F80083461EE0304604F0FDF8019019E030468B
:1048080004F002F9029014E0304604F05FF90390D6
:104818000FE006A831460AF0C2FD0AE0631E042B29
:1048280008D9214857F824100AF0F0FC022500E0C6
:10483800042515B90134042CB1D95DBBBBF1FF0FB8
:1048480024D05846FFF720FF044608B30378012B0D
:1048580018BF06251ED180F801B0019B80F8DB3413
:10486800029B80F8DD34039B80F8DC34053006A910
:104878000AF095FD002384F8D83484F8D9342362EB
:1048880063622046FFF782FE054603E0052501E046
:104898000325FFE728460DB0BDE8F08F1073010827
:1048A8008800002058840108908401082DE9F04F01
:1048B80087B0044600252E4EDFF8CC802D4F47E008
:1048C80005BB04F1050994F801A094F8DC0404F090
:1048D80059F8834694F8DD0403F0F0FF059094F846
:1048E800DB0404F077F8CDF800B005990191029047
:1048F800304641464A4653460AF020FD1E4B1B6887
:104908003046984794F8D81401F1370304EBC303F1
:10491800D3E900230A3154F8211000913046174991
:104928000AF00CFD94F8D8240132A7FB02135B09A6
:10493800642101FB132384F8D8340F4B1B6813B18F
:104948003046984702E00E480AF060FC0135EDB2A7
:10495800092D05D894F8D82494F8D9349A42AFD1BF
:10496800054B1B680BB10748984707B0BDE8F08FA7
:104978000C3901201F85EB51101000205C850108BF
:104988006C850108A0940108D4840108014B1860C3
:10499800704700BF10100020B0F5F04F75D034D824
:1049A800B0F5605F6FD018D8B0F5C05F00F0A58093
:1049B80009D8B0F5006F00F08280B0F5805F5ED056
:1049C80000285AD179E0B0F5205F7AD0B0F5405F81
:1049D80057D0B0F5005F50D175E0B0F5B04F5AD060
:1049E80009D8B0F5904F72D0B0F5A04F4FD0B0F5C0
:1049F800804F42D169E0B0F5D04F6AD0B0F5E04FB2
:104A080069D0B0F5C04F38D143E0B0F5384F4AD03F
:104A180017D8B0F5184F40D009D8B0F5084F5ED078
:104A2800B0F5104F3BD0B0F5004F26D155E0B0F5AA
:104A3800284F56D0B0F5304F33D0B0F5204F1CD1A9
:104A480051E0B0F5584F36D009D8B0F5484F4ED0A0
:104A5800B0F5504F2BD0B0F5404F0ED145E0B0F532
:104A6800684F46D003D8B0F5604F22D005E0B0F5C6
:104A7800704F40D0B0F5784F17D0002070472048CD
:104A880070472048704720487047204870472048A2
:104A98007047204870472048704720487047204892
:104AA8007047204870472048704720487047204882
:104AB8007047204870472048704720487047204872
:104AC8007047204870472048704720487047204862
:104AD8007047204870472048704720487047204852
:104AE8007047204870472048704720487047204842
:104AF800704720487047204870472048704700BFDB
:104B0800CC850108D8850108E4850108F0850108ED
:104B1800FC8501080886010814860108208601081A
:104B28002C86010838860108448601085086010849
:104B38005C86010868860108748601088086010879
:104B48008C86010898860108A4860108B0860108A9
:104B5800BC860108C8860108D4860108E0860108D9
:104B6800EC860108F8860108048701081087010807
:104B78001C8701082887010834870108C0850108B7
:104B880004280CD8DFE800F0030D050709000648E3
:104B980070470648704706487047064870470648F9
:104BA80070470648704700BF4087010858870108CA
:104BB800C4840108648701087C8701084C870108C0
:104BC8002DE9F04FADF2FC4D02F08AFF54485549EB
:104BD80041220AF00AFB544B1B680BB15048984716
:104BE8000024524D4E4FDFF858813CE04FF49C6250
:104BF80006A802FB04510AF0F8FA9DF818308BBB9E
:104C08009DF81960BDF81A00FFF7C6FE83469DF8A7
:104C1800F40403F0B7FE82469DF8F50403F04EFE57
:104C280081469DF8F30403F0D5FECDF800B00DF1F0
:104C38001D030193CDF808A0CDF80C9004903846D8
:104C48004FF40071424633460AF046FBC0B220B921
:104C580037480AF0DBFA072508E0334B1B680BB12D
:104C68003846984701341F2CC0D90025002D52D151
:104C78002B4E304C0FCC30607160B260F36020680E
:104C88003061A388B382284B1B680BB13046984724
:104C98000024294E224F3CE04FF49C6206A802FBF8
:104CA80004610AF0A2FA9DF818308BBB9DF81980B0
:104CB8009DF81C00FFF764FF83469DF8F40403F099
:104CC80061FE82469DF8F50403F0F8FD81469DF8E3
:104CD800F30403F07FFECDF800B00DF11D0301933E
:104CE800CDF808A0CDF80C90049038464FF4007128
:104CF800124A43460AF0F0FAC0B220B90C480AF04A
:104D080085FA072507E0084B1B680BB1384698471A
:104D18000134032CC0D928460DF2FC4DBDE8F08FB4
:104D28000C3901208487010810100020F852002057
:104D38002C8801085C880108F8EE002074880108B6
:104D4800C887010808B5FF2803D110480AF05EFAA1
:104D580008BD04280DD8DFE800F010130306090089
:104D6800082107200EE0082106200BE00121002081
:104D780008E007480AF04AFA08BD0821032001E0C4
:104D88000821042003F070FF08BD00BFD88801087F
:104D98004089010870B504460E46FF2803D1124821
:104DA8000AF034FA70BD0420FFF7CCFF0F484FF427
:104DB8008051012209F070FB0D4D284609F064FB73
:104DC800C0F30A012846214309F06CFB012E0AD1E1
:104DD80002F02AFD10F57A7041F10001054BC3E994
:104DE800000100F0B9FD70BD88890108001C02406F
:104DF800000C0240181000201F288CBF0020012042
:104E0800704700BF2138C0B203288CBF00200120A2
:104E1800704700BF08B502F007FD054BD3E9002332
:104E2800994208BF904234BF0020012008BD00BF4E
:104E380018100020F0B583B08020012109F074FA21
:104E48004FF48056009601258DF8045000248DF803
:104E580006408DF807508DF80540154F38466946CD
:104E680009F0C4FA38463146224609F015FB0820F5
:104E7800294609F059FA4FF4784300938DF8045005
:104E88008DF806408DF807508DF80540094C2046EE
:104E9800694609F0ABFA204609F0F6FAC0F30A01B0
:104EA800204641F4C05109F0FDFA03B0F0BD00BF3F
:104EB800001C0240000C024008B54FF4C05001210C
:104EC800FFF768FF08BD00BF70B50E46054648B33A
:104ED80044782046FFF790FF30B168883146FFF7E5
:104EE80059FF124B1D6070BD2046FFF78BFF28B19C
:104EF8002879FFF727FF0D4B1D6070BD202C04D1CA
:104F0800FFF7DAFF094B1D6070BD094C20460949BF
:104F18004E220AF06AF9204602F056FB06480AF0CB
:104F280075F970BD05480AF071F970BD14100020BC
:104F38000C390120F0890108408A0108908A01088B
:104F480038B504460D46FFF757FF38B120462946C5
:104F5800FFF720FF0022114B1A6038BD2046FFF7EB
:104F680051FF30B12046FFF7EDFE00220B4B1A60CF
:104F780038BD202C05D1FFF79FFF0022074B1A6090
:104F880038BD074C2046074956220AF02EF920461C
:104F980002F01AFB04480AF039F938BD1410002051
:104FA8000C390120D08A0108408A010808B503207D
:104FB800FFF7C8FE08BD00BF08B50420FFF7C2FE12
:104FC80008BD00BF10B50446FFF716FF002871D0D2
:104FD8001F2C11D8DFE804F0701215181B1E2124AD
:104FE800272A2D303336393C3F4144474A4D5053E8
:104FF80056595C5F6265686BFF2010BD4FF48050A6
:1050080010BD4FF4405010BD4FF4605010BD4FF428
:10501800F04010BD4FF4A04010BD4FF4C04010BD8B
:105028004FF4B04010BD4FF4184010BD4FF410407D
:1050380010BD4FF4304010BD4FF4384010BD4FF450
:10504800784010BD4FF4504010BD4FF4604010BD83
:105058004FF4584010BD002010BD4FF4006010BD43
:105068004FF4205010BD4FF4005010BD4FF4804055
:1050780010BD4FF4904010BD4FF4D04010BD4FF418
:10508800E04010BD4FF4004010BD4FF4084010BD83
:105098004FF4284010BD4FF4204010BD4FF440405D
:1050A80010BD4FF4484010BD4FF4684010BD4FF498
:1050B800704010BDFF2010BD4FF4C05010BD00BFA0
:1050C8000170C1F307234370C1F307418170704732
:1050D80038B5002003F04EFF00283CD02420FFF70D
:1050E800D3FA0446012003F069FD00221A4B1A7016
:1050F80094F8D95403F084FD0A3544F8250094F84F
:10510800D9340A33204654F82310FFF76DF994F880
:10511800D9540135EDB284F8D95402F085FB3735FE
:1051280004EBC505C5E9000103F056FD94F8D93430
:1051380094F8D824934209D101320849A1FB02010D
:105148004909642000FB112184F8D814642B04BF9A
:10515800002384F8D93438BD301000201F85EB5166
:10516800F8B504461C48611D0AF050F86378242BF2
:1051780006D102F0F3FF064602F0FEFF054616E0F0
:1051880094F8DD0494F8DC1494F8DB2402F0C0FFF2
:10519800064694F8DD7494F8DC5494F8DB44FFF781
:1051A80051F938462946224602F0D6FE05460B48F4
:1051B80031462A460AF02AF8094C20463146FFF7BC
:1051C8007FFF204603F0C8FD20462946FFF778FFF9
:1051D800204603F0C9FDF8BD588B0108888B0108EB
:1051E8002C10002038B5044690F8DD0403F08AFD41
:1051F80094F8DC0403F062FD94F8DB0403F02CFD62
:105208002046FFF7ADFF012003F0D8FC03F0E4FCD3
:1052180094F8D95402F008FB373504EBC504C4E907
:10522800000138BD38B52420FFF72EFA04462D4B6F
:105238001B78002B55D0002003F09CFE20B394F877
:10524800D95403F0DDFC014605F10A0344F82300B4
:105258002046FFF7C9F80135234BA3FB05135B096B
:10526800642202FB1353DBB284F8D93494F8D824AF
:10527800934209D101321C4BA3FB02135B09642141
:1052880001FB132384F8D834184B1B78052B12D153
:10529800FFF7C0FD01280ED1FFF78EFE134B1A78D9
:1052A800134B1A70134B1A78134B1B6853F82200D0
:1052B800FFF798FF38BD0D4B1B78042B03D0022B4A
:1052C80001D0032B0AD1FFF7A5FD012806D1074B12
:1052D8001A78074B1A70FFF76FFE38BD074809F0B8
:1052E80095FF38BD301000201F85EB51401000207D
:1052F80028100020321000203C100020B88B010834
:1053080008B5034809F082FF0022024B1A7008BD55
:10531800DC8B01082810002008B5104B1B7833B12E
:105328000F48104A52F8231009F070FF08BD0E48C4
:1053380009F06CFF03F020FF00230C4A13600C4AAD
:1053480013600C4A13600C4A13700C4A9370137064
:105358005370D3700122014B1A7008BD2810002029
:10536800108C0108388B0108588C01082010002087
:10537800241000203C1000203110002034100020A0
:1053880008B5104B1B78042B06D00F480F4A52F86B
:10539800231009F03BFF08BD0D4809F037FF022232
:1053A800084B1A700B4B0022DA701A719A705A70F7
:1053B8001A70FFF781FD4FF47A70002102F03AFA73
:1053C80008BD00BF28100020908C0108388B010808
:1053D800D88C01083410002010B504460C4B1B78FB
:1053E800042B06D00B480C4A52F8231009F00EFF84
:1053F80010BD0A4809F00AFF0322054B1A70084B32
:105408000022DA701A7120460121FFF799FD10BDBC
:1054180028100020908C0108388B0108D88C0108CE
:105428003410002010B5144B1B78012B0ED0052B1F
:105438000CD0072B0AD0022B08D0032B06D00F481C
:105448000F4A52F8231009F0E1FE10BD0D4809F08B
:10545800DDFE0422084B1A7003F0BEFB012003F0A6
:10546800ADFB2420FFF710F904460021FFF72CFDBF
:105478002046FFF7B7FE10BD28100020108D010848
:10548800388B0108508D0108F0B583B03C4BDB78B0
:10549800002B6AD13A4B1B78062B40D8384A5278F1
:1054A8000F2A36D8364B9B78012B2CD8354DE85C23
:1054B80003F0D2FB324C6378334FF85C03F022FCE4
:1054C8002378324EF05C03F0F9FB03F077FD03F02C
:1054D8003FFE61782278A378795CB25CEB5C02F0DD
:1054E80057FF03F083FD03F01FFE6378F95C237810
:1054F800F25CA3785E1CA670EB5C02F023FF2379B4
:10550800013323710EE01E4B0021997001325A704D
:1055180008E01B4A002151700133137002E0012298
:10552800174BDA70164B1B7907EE103AB8EE477A2C
:10553800DFED177A87EE277A164CDFED177A67EEDC
:10554800277A17EE900AFAF7B3FFCDE90001204653
:105558004FF40071114A09F0BFFE1148214609F0C5
:1055680055FE204602F050F808E00E4C204609F09F
:105578004DFE204602F048F8FFF754FF03B0F0BD97
:105588003410002074920108288B01086C920108DD
:10559800000060430C3901200000C842808D0108DA
:1055A800A46B0108B48D010808B503F013FDFFF7DB
:1055B80039FF08BDF0B583B0002003F0DBFC0028FC
:1055C80000F0C680674D684E32782B6853F8227019
:1055D80097F8D94403F014FB04F10A0347F82300B1
:1055E80031782A6852F821000134604BA3FB045338
:1055F8005B09642505FB134380F8D93452F8213040
:1056080093F8D92493F8D8349A4215D1584809F018
:10561800FDFD584801F0D8FF3278524B1B6853F80B
:10562800222092F8D8140131504BA3FB01035B09E7
:1056380005FB131382F8D8344F4B1B78012B43D941
:10564800494B1A78474B1B6853F822600020464C98
:105658004A4D4B4F15E023780133DBB22370252BDD
:105668000AD10023237029683A684648013109F0B5
:10567800CDFD2B6801332B6022783A4B1B6853F819
:1056880022000028E7D00278012AE4D0B04206D0F0
:105698000121FFF719FC3046FFF708F938E03A48CE
:1056A80009F0B4FD03F098FA2F4B1A782D4B1B68BC
:1056B80053F8224094F8D95402F0B6F8373504EB81
:1056C800C504C4E9000123E02C4C23682C4A126865
:1056D8002E4D009228464FF400712A4A013309F0F2
:1056E800FBFD284601F090FF23680133236003F097
:1056F80073FA1D4B1A781B4B1B6853F8224094F819
:10570800D95402F091F8373504EBC504C4E9000117
:105718001A4B1A681A4B1B689A4221D1164B1B78F0
:10572800012B02D9154B1B68D3B10F4B1A780D4BBF
:105738001B6853F82200FFF7B9F8FFF773FE144807
:1057480009F064FD134801F05FFFFEF729FE07E04A
:10575800054B1A78034B1B6853F82200FFF7A6F88D
:1057680003B0F0BD3C100020321000201F85EB5123
:10577800E48D0108348E0108311000202410002027
:10578800201000206C8E0108A48E01080C3901201D
:105798000C8F0108408F010808B51D4B1B78072B9B
:1057A80034D8DFE803F004070A0D101D2031FFF795
:1057B800B3FD08BDFFF736FE08BDFFF765FE08BD5F
:1057C800FFF7F2FE08BD134B1B78012B05D1002211
:1057D800104B1A70FDF798FC08BDFFF779FC08BD5F
:1057E800FFF7E8FE08BD03F0DFFA00230A4A13605A
:1057F8000A4A13600A4A13600A4A1370FF220A4BC6
:105808001A70FFF70FFE08BDFFF70CFD08BD00BFBB
:1058180028100020AC0000202410002020100020B8
:105828003C100020311000203210002008B5044838
:1058380009F0ECFCFFF7F6FDFEF7B2FD08BD00BF6E
:10584800608F010838B5394B1B78042B06D03848CF
:10585800384A52F8231009F0D9FC38BD18B936482F
:1058680009F0D4FC38BD0024344B1C60344B19605B
:10587800012A1BD103681BB9324809F0C7FC38BD9F
:105888001B78012B03D1304809F0C0FC38BD002239
:105898002E4B1A7001222E4B1A7015E050F8232057
:1058A8000AB112782AB10133DBB200E00023242BBD
:1058B800F4D9242B03D9234809F0A8FC38BD234A7E
:1058C80013702522224B1A70224B18601F4B1B782D
:1058D80050F82340154D05232B7020460121FFF772
:1058E800F3FA2B78052B1DD194F8DD0403F00AFA9E
:1058F80094F8DC0403F0E2F994F8DB0403F0ACF963
:105908002046FFF72DFC002003F058F903F064F956
:1059180094F8D95401F088FF373504EBC504C4E97D
:10592800000138BD002003F049F938BD28100020D7
:105938008C8F0108388B0108D88F010824100020AB
:105948002010002048900108B4900108321000206F
:10595800311000203C10002008B5144B1B78062B92
:105968000ED0042B0CD0052B0AD0022B08D0032B09
:1059780006D00F480F4A52F8231009F047FC08BD1B
:105988000D480E4909F042FC084B19780C4A117071
:1059980007221A70FFF70AFB2420FEF775FEFFF7AF
:1059A80021FC0122074B1A7008BD00BF28100020F7
:1059B80068910108388B0108B4910108DC9101084D
:1059C80040100020301000202DE9F04182B0032360
:1059D8008DF8053002278DF8047000238DF8063005
:1059E8008DF807304720012108F09EFC4FF48040D5
:1059F800012108F0B5FC012008F0C4FB4FF00408B1
:105A080002AC44F8088D344E3046694608F0EEFC86
:105A1800304639460B2208F047FD00972F4D28469F
:105A2800694608F0E3FC284601210B2208F03CFDFA
:105A380000973046694608F0D9FC304601210B2210
:105A480008F032FD802300933046694608F0CEFC0A
:105A5800304607210B2208F027FD10230093284623
:105A6800694608F0C3FC284641460B2208F01CFD95
:105A7800202300932846694608F0B8FC28460521EB
:105A88000B2208F011FD4FF400630093A5F5806523
:105A98002846694608F0AAFC28460B210A4608F061
:105AA80003FD4FF4005600960D4F3846694608F03E
:105AB8009DFC38460D210B2208F0F6FC009628467E
:105AC800694608F093FC28460D210B2208F0ECFCEF
