:020000040800F2
:10000000000002209517000825150008311500088A
:1000100099160008A1160008A916000800000000A3
:10002000000000000000000000000000ED170008C4
:10003000B116000800000000ED170008BD1600080A
:10004000ED170008ED170008ED170008ED17000880
:10005000ED170008ED170008ED170008ED17000870
:10006000ED170008ED170008ED170008ED17000860
:10007000ED170008ED170008ED170008ED17000850
:10008000ED170008ED170008ED170008ED17000840
:1000900051170008ED170008ED170008ED170008CC
:1000A000ED170008ED170008ED170008ED17000820
:1000B000ED170008ED170008ED170008ED17000810
:1000C000ED170008ED170008ED170008ED17000800
:1000D000ED170008ED170008ED170008ED170008F0
:1000E000C9160008ED170008ED170008ED17000805
:1000F000ED170008ED170008ED170008ED170008D0
:10010000ED170008ED170008ED160008ED170008C0
:10011000ED170008ED170008ED170008ED170008AF
:10012000ED170008ED170008ED170008ED1700089F
:10013000ED170008ED170008ED170008ED1700088F
:10014000ED170008ED170008ED170008ED1700087F
:10015000ED170008ED170008ED170008ED1700086F
:10016000ED170008ED170008ED170008ED1700085F
:10017000ED170008ED170008ED170008000000005B
:08018000ED170008ED1700085F
:1001880010B5054C237833B9044B13B10448AFF3C9
:1001980000800123237010BD080900200000000022
:1001A80074DF010808B5064B1BB106480649AFF3D2
:1001B80000800648036813B1054B03B1984708BD92
:1001C8000000000074DF01080C0900200809002065
:1001D8000000000010F8012B11F8013B012A28BF8C
:1001E8009A42F7D0D01A704781F0004102E000BF70
:1001F80083F0004330B54FEA41044FEA430594EADF
:10020800050F08BF90EA020F1FBF54EA000C55EA19
:10021800020C7FEA645C7FEA655C00F0E2804FEAEA
:100228005454D4EB5555B8BF6D420CDD2C4480EACC
:10023800020281EA030382EA000083EA010180EAFC
:10024800020281EA0303362D88BF30BD11F0004F4A
:100258004FEA01314FF4801C4CEA113102D0404280
:1002680061EB410113F0004F4FEA03334CEA1333BB
:1002780002D0524263EB430394EA050F00F0A780D3
:10028800A4F10104D5F1200E0DDB02FA0EFC22FACE
:1002980005F2801841F1000103FA0EF2801843FAC2
:1002A80005F359410EE0A5F120050EF1200E012AB3
:1002B80003FA0EFC28BF4CF0020C43FA05F3C018F1
:1002C80051EBE37101F0004507D54FF0000EDCF16A
:1002D800000C7EEB00006EEB0101B1F5801F1BD313
:1002E800B1F5001F0CD349085FEA30004FEA3C0C17
:1002F80004F101044FEA445212F5800F80F09A800D
:10030800BCF1004F08BF5FEA500C50F1000041EB10
:10031800045141EA050130BD5FEA4C0C404141EB14
:10032800010111F4801FA4F10104E9D191F0000F3B
:1003380004BF01460020B1FA81F308BF2033A3F1BE
:100348000B03B3F120020CDA0C3208DD02F1140CB5
:10035800C2F10C0201FA0CF021FA02F10CE002F1F0
:100368001402D8BFC2F1200C01FA02F120FA0CFCE9
:10037800DCBF41EA0C019040E41AA2BF01EB045132
:10038800294330BD6FEA04041F3C1CDA0C340EDC30
:1003980004F11404C4F1200220FA04F001FA02F373
:1003A80040EA030021FA04F345EA030130BDC4F131
:1003B8000C04C4F1200220FA02F001FA04F340EA26
:1003C8000300294630BD21FA04F0294630BD94F0D7
:1003D800000F83F4801306BF81F480110134013DBE
:1003E8004EE77FEA645C18BF7FEA655C29D094EA2F
:1003F800050F08BF90EA020F05D054EA000C04BFAD
:100408001946104630BD91EA030F1EBF0021002097
:1004180030BD5FEA545C05D14000494128BF41F036
:10042800004130BD14F580043CBF01F5801130BD9A
:1004380001F0004545F0FE4141F470014FF0000025
:1004480030BD7FEA645C1ABF194610467FEA655CD6
:100458001CBF0B46024650EA013406BF52EA033578
:1004680091EA030F41F4002130BD00BF90F0000F66
:1004780004BF0021704730B54FF4806404F13204A2
:100488004FF000054FF0000150E700BF90F0000F5B
:1004980004BF0021704730B54FF4806404F1320482
:1004A80010F0004548BF40424FF000013EE700BF52
:1004B80042004FEAE2014FEA31014FEA02701FBFE2
:1004C80012F07F4393F07F4F81F06051704792F0B4
:1004D800000F14BF93F07F4F704730B54FF460742E
:1004E80001F0004521F0004120E700BF50EA010279
:1004F80008BF704730B54FF000050AE050EA010226
:1005080008BF704730B511F0004502D5404261EB95
:1005180041014FF4806404F132045FEA915C3FF4D6
:10052800DCAE4FF003025FEADC0C18BF03325FEA6F
:10053800DC0C18BF033202EBDC02C2F1200300FA24
:1005480003FC20FA02F001FA03FE40EA0E0021FA49
:1005580002F11444C1E600BF70B54FF0FF0C4CF433
:10056800E06C1CEA11541DBF1CEA135594EA0C0FE9
:1005780095EA0C0F00F0DEF82C4481EA030621EA24
:100588004C5123EA4C5350EA013518BF52EA03355F
:1005980041F4801143F4801338D0A0FB02CE4FF011
:1005A8000005E1FB02E506F00042E0FB03E54FF041
:1005B8000006E1FB03569CF0000F18BF4EF0010E39
:1005C800A4F1FF04B6F5007F64F5407404D25FEA35
:1005D8004E0E6D4146EB060642EAC62141EA5551E8
:1005E8004FEAC52040EA5E504FEACE2EB4F1FD0C2A
:1005F80088BFBCF5E06F1ED8BEF1004F08BF5FEAA8
:10060800500E50F1000041EB045170BD06F0004659
:1006180046EA010140EA020081EA0301B4EB5C0406
:10062800C2BFD4EB0C0541EA045170BD41F48011FE
:100638004FF0000E013C00F3AB8014F1360FDEBF23
:10064800002001F0004170BDC4F10004203C35DAFF
:100658000C341BDC04F11404C4F1200500FA05F382
:1006680020FA04F001FA05F240EA020001F0004223
:1006780021F0004110EBD37021FA04F642EB060199
:100688005EEA430E08BF20EAD37070BDC4F10C04C3
:10069800C4F1200500FA04F320FA05F001FA04F287
:1006A80040EA020001F0004110EBD37041F1000173
:1006B8005EEA430E08BF20EAD37070BDC4F120057E
:1006C80000FA05F24EEA020E20FA04F301FA05F2E6
:1006D80043EA020321FA04F001F0004121FA04F28E
:1006E80020EA020000EBD3705EEA430E08BF20EA5E
:1006F800D37070BD94F0000F0FD101F00046400098
:1007080041EB010111F4801F08BF013CF7D041EA19
:10071800060195F0000F18BF704703F0004652001D
:1007280043EB030313F4801F08BF013DF7D043EAEE
:100738000603704794EA0C0F0CEA135518BF95EAA4
:100748000C0F0CD050EA410618BF52EA4306D1D12B
:1007580081EA030101F000414FF0000070BD50EA4A
:10076800410606BF1046194652EA430619D094EAD4
:100778000C0F02D150EA013613D195EA0C0F05D1BE
:1007880052EA03361CBF104619460AD181EA030112
:1007980001F0004141F0FE4141F470014FF00000CA
:1007A80070BD41F0FE4141F4780170BD70B54FF065
:1007B800FF0C4CF4E06C1CEA11541DBF1CEA1355E5
:1007C80094EA0C0F95EA0C0F00F0A7F8A4EB0504C7
:1007D80081EA030E52EA03354FEA013100F08880BE
:1007E8004FEA03334FF0805545EA131343EA126387
:1007F8004FEA022245EA111545EA10654FEA00263C
:100808000EF000419D4208BF964244F1FD0404F5F4
:10081800407402D25B084FEA3202B61A65EB030550
:100828005B084FEA32024FF480104FF4002CB6EB0D
:10083800020E75EB030E22BFB61A754640EA0C008D
:100848005B084FEA3202B6EB020E75EB030E22BFCD
:10085800B61A754640EA5C005B084FEA3202B6EB0E
:10086800020E75EB030E22BFB61A754640EA9C00CD
:100878005B084FEA3202B6EB020E75EB030E22BF9D
:10088800B61A754640EADC0055EA060E18D04FEA5B
:10089800051545EA16754FEA06164FEAC30343EAFB
:1008A80052734FEAC2025FEA1C1CC0D111F4801FC8
:1008B8000BD141EA00014FF000004FF0004CB6E7C1
:1008C80011F4801F04BF01430020B4F1FD0C88BF60
:1008D800BCF5E06F3FF6AFAEB5EB030C04BFB6EB6B
:1008E800020C5FEA500C50F1000041EB045170BD5E
:1008F8000EF0004E4EEA113114EB5C04C2BFD4EB8B
:100908000C0541EA045170BD41F480114FF0000E0E
:10091800013C90E645EA060E8DE60CEA135594EA8A
:100928000C0F08BF95EA0C0F3FF43BAF94EA0C0F8D
:100938000AD150EA01347FF434AF95EA0C0F7FF402
:1009480025AF104619462CE795EA0C0F06D152EA56
:1009580003353FF4FDAE1046194622E750EA41063A
:1009680018BF52EA43067FF4C5AE50EA41047FF44B
:100978000DAF52EA43057FF4EBAE12E74FF0FF3CB0
:1009880006E000BF4FF0010C02E000BF4FF0010C81
:100998004DF804CD4FEA410C7FEA6C5C4FEA430CFA
:1009A80018BF7FEA6C5C1BD001B050EA410C0CBF49
:1009B80052EA430C91EA030F02BF90EA020F0020AB
:1009C800704710F1000F91EA030F58BF994208BF12
:1009D80090422CBFD8176FEAE37040F001007047CF
:1009E8004FEA410C7FEA6C5C02D150EA013C07D126
:1009F8004FEA430C7FEA6C5CD6D152EA033CD3D071
:100A08005DF8040B704700BF8446104662468C466A
:100A18001946634600E000BF01B5FFF7B7FF00289D
:100A280048BF10F1000F01BD4DF808EDFFF7F4FFC6
:100A38000CBF012000205DF808FB00BF4DF808ED51
:100A4800FFF7EAFF34BF012000205DF808FB00BF74
:100A58004DF808EDFFF7E0FF94BF012000205DF896
:100A680008FB00BF4DF808EDFFF7CEFF94BF01204B
:100A780000205DF808FB00BF4DF808EDFFF7C4FF44
:100A880034BF012000205DF808FB00BF4FEA410297
:100A980012F5001215D211D56FF47873B3EB6252C8
:100AA80012D94FEAC12343F0004343EA505311F0EF
:100AB800004F23FA02F018BF404270474FF0000081
:100AC800704750EA013005D111F0004008BF6FF0BF
:100AD800004070474FF00000704700BF4A0011D235
:100AE80012F5001211D20DD56FF47873B3EB625280
:100AF8000ED44FEAC12343F0004343EA505323FA8C
:100B080002F070474FF00000704750EA013002D100
:100B18004FF0FF3070474FF0000070474FEA410236
:100B2800B2F1E04324BFB3F5001CDCF1FE5C0DD943
:100B380001F0004C4FEAC0024CEA5070B2F1004F8D
:100B480040EB830008BF20F00100704711F0804F90
:100B580021D113F13872BCBF01F00040704741F455
:100B680080114FEA5252C2F11802C2F1200C10FA59
:100B78000CF320FA02F018BF40F001004FEAC1233D
:100B88004FEAD32303FA0CFC40EA0C0023FA02F3E1
:100B98004FEA4303CCE77FEA625307D150EA0133B7
:100BA8001EBF4FF0FE4040F44000704701F0004087
:100BB80040F0FE4040F40000704700BF4BB942B916
:100BC800002908BF002802D04FF0FF31084600F086
:100BD8005FB882B0EC462DE9005000F041F8DDF82E
:100BE80004E002B00CBC704770B5FFF761FC00224E
:100BF8000D4B04460D46FFF7AFFCFFF76FFF0646A7
:100C0800FFF734FC0022094BFFF7A6FC02460B460F
:100C180020462946FFF7ECFAFFF760FF002242EA78
:100C280000042046314670BD0000F03D0000F04150
:100C38002DE97043069E14461D468046894600F0FD
:100C480029F804FB01F300FB0533A4FB00451D4410
:100C5800B8EB040469EB0505C6E90045BDE87083F7
:100C68002DE97043069E1446804689461D4600F0CD
:100C78005DF900FB05F504FB0153A0FB04451D4489
:100C8800B8EB040469EB0505C6E90045BDE87083C7
:100C9800704700BF00292DE9F00FC0F29F800024A3
:100CA800002BC0F29680154606460F46002B3ED113
:100CB8008A4257D9B2FA82F34BB1C3F1200201FA42
:100CC80003F720FA02F29D40174300FA03F6290CB5
:100CD800B7FBF1F2330C01FB127CA8B243EA0C47D4
:100CE80000FB02F3BB4209D97F1902F1FF3C80F0F7
:100CF8000181BB4240F2FE80023A2F44FF1AB7FB43
:100D0800F1F3B6B201FB137146EA014100FB03F0AF
:100D1800884208D9491903F1FF3780F0ED808842ED
:100D280040F2EA80023B43EA0242002303E08B429E
:100D38000AD900231A461046194614B1404261EBFD
:100D48004101BDE8F00F7047B3FA83F8B8F1000F1E
:100D580040F084808B4202D3824200F2DE8000237E
:100D68000122E8E712B90123B3FBF2F5B5FA85F2DF
:100D7800002A39D17F1B280C1FFA85FC0123B7FBF9
:100D8800F0F1320C00FB117742EA07470CFB01F245
:100D9800BA4207D97F1901F1FF3802D2BA4200F2EC
:100DA800C1804146BF1AB7FBF0F2B6B200FB127021
:100DB80046EA00400CFB02FC844507D9401902F1C1
:100DC800FF3702D2844500F2AB803A4642EA01423C
:100DD800B1E7E443524263EB430364E7404261EB0B
:100DE80041014FF0FF345BE79540C2F1200327FA39
:100DF80003F1280C26FA03F39740B1FBF0F81F43E0
:100E08003B0C00FB18111FFA85FC43EA01410CFB5F
:100E180008F38B4206FA02F608D9491908F1FF329D
:100E280079D28B4277D9A8F102082944C91AB1FBB3
:100E3800F0F3BFB200FB131147EA01470CFB03F2C2
:100E4800BA4207D97F1903F1FF3160D2BA425ED99D
:100E5800023B2F44BF1A43EA084390E7C8F1200237
:100E680003FA08FC25FA02F343EA0C0C4FEA1C4982
:100E780021FA02F301FA08F720FA02F2B3FBF9F1BA
:100E8800174309FB11333A0C1FFA8CFB42EA034360
:100E98000BFB01FA9A4505FA08F008D913EB0C0385
:100EA80001F1FF3235D29A4533D902396344CAEB8E
:100EB8000303B3FBF9F209FB1233BFB247EA034756
:100EC8000BFB02F9B94508D917EB0C0702F1FF3300
:100ED8001BD2B94519D9023A674442EA0145A5FB34
:100EE8000001C9EB07078F424FF000030AD305D072
:100EF8002A4620E7624601E73B4614E706FA08F669
:100F08008642F5D26A1E002315E71A46E5E70B4626
:100F1800A0E71146CBE7904688E7434642460AE7F2
:100F2800023A53E702392F443CE700BF2DE9F00F9E
:100F3800144605460E46002B43D18A4253D9B2FACD
:100F480082F757B1C7F1200620FA06F601FA07F32F
:100F580002FA07F41E4300FA07F5210CB6FBF1F27A
:100F68002B0C01FB1267A0B243EA074600FB02F311
:100F7800B34209D9361902F1FF3780F0F680B3423F
:100F880040F2F380023A2644F61AB6FBF1F3ADB20A
:100F980001FB136145EA014100FB03F0884208D9CF
:100FA800091903F1FF3680F0E280884240F2DF80C1
:100FB800023B43EA0242002310461946BDE8F00FFF
:100FC80070478B424AD8B3FA83F6002E4DD18B4234
:100FD80002D3824200F2D68000230122104619462D
:100FE800BDE8F00F704712B90124B4FBF2F4B4FA6B
:100FF80084F2002A7CD1091B260CA7B20123B1FB7D
:10100800F6F02A0C06FB101142EA014107FB00F238
:101018008A4207D9091900F1FF3C02D28A4200F23C
:10102800C3806046891AB1FBF6F2ADB206FB121115
:1010380045EA014507FB02F7AF4208D92C1902F12E
:10104800FF3180F09680A74240F29380023A42EA4C
:10105800004210461946BDE8F00F704700231A46B3
:1010680010461946BDE8F00F7047C6F1200522FA70
:1010780005F4B3401C434FEA144821FA05F301FA7A
:1010880006F720FA05F5B3FBF8FC2F4308FB1C33E1
:101098003D0C1FFA84FA45EA03430AFB0CF999450B
:1010A80002FA06FB04D91B190CF1FF326DD39446E2
:1010B800C9EB0303B3FBF8F508FB1533BFB247EAE6
:1010C80003470AFB05F8B84504D93F1905F1FF3372
:1010D80061D31D4645EA0C4CACFB0B23C8EB070754
:1010E8009F424FF0000549D345D062462B4663E73F
:1010F8009440C2F1200321FA03FC260C20FA03F3E2
:1011080001FA02F5BCFBF6F843EA05010B0C06FBF5
:1011180018CCA7B243EA0C4C07FB08F3634500FA66
:1011280002F509D91CEB040C08F1FF323AD26345E9
:1011380038D9A8F10208A444C3EB0C0CBCFBF6F3A5
:1011480089B206FB13CC41EA0C4107FB03F28A4241
:1011580007D9091903F1FF3022D28A4220D9023B6C
:101168002144891A43EA084349E73A460CE73346DB
:101178001FE70A466BE7B0409042B6D20CF1FF3247
:10118800002319E73346324616E799458FD9ACF163
:10119800020C23448CE7B8459BD9023D274499E7C4
:1011A8000346DEE79046C7E7023821443AE700BF26
:1011B80080B500AF164B164AD2F8882042F4700268
:1011C800C3F88820134B134A126842F001021A60D0
:1011D800104B00229A600F4A0E4B1B6823F0847351
:1011E80023F4803313600B4B0B4A5A60094B094AAE
:1011F800126822F480221A60064B0022DA6000F09E
:1012080089F800F00BF8024B4FF000629A6080BD3D
:1012180000ED00E0003802401030002480B487B0B0
:1012280000AF00233B6100237B610223FB600023A6
:10123800BB6002237B60324B9B6803F00C033B616D
:101248003B69042B07D0082B09D0002B3FD12D4B2D
:101258002D4A1A603FE02B4B2C4A1A603BE0284B82
:101268005B6803F480039B0DBB60254B5B6803F050
:101278003F037B60BB68002B0DD0244A7B68B2FB20
:10128800F3F21F4B596847F6C0730B409B0903FBE9
:1012980002F37B610CE01C4A7B68B2FBF3F2184B4B
:1012A800596847F6C0730B409B0903FB02F37B6147
:1012B800134B5B6803F440331B0C01335B00FB608A
:1012C8007A69FB68B2FBF3F20E4B1A6003E00D4B30
:1012D8000D4A1A6000BF0A4B9B6803F0F0031B0914
:1012E8000B4AD35CDBB23B61064B1A683B69DA40B8
:1012F800044B1A601C37BD465DF8047B704700BF7D
:1013080000380240000000200024F40000127A0097
:101318000400002080B483B000AF00237B6000236A
:101328003B60244B234A126C42F080521A64224BD1
:10133800214A126842F440421A601E4B1D4A9268C4
:101348009A601C4B1B4A926842F400429A60194BFF
:10135800184A926842F4A0529A60164B174A5A608B
:10136800144B144A126842F080721A6000BF114B85
:101378001B6803F00073002BF9D0114B40F2057283
:101388001A600C4B0B4A926822F003029A60094BD0
:10139800084A926842F002029A6000BF054B9B68B7
:1013A80003F00C03082BF9D10C37BD465DF8047B1C
:1013B800704700BF00380240007000408A340008BF
:1013C800003C024080B586B000AFF860B9607A6032
:1013D80000237B6100237B6112E07B69BA681344B8
:1013E8001B780C48194614F0BBF900BF0948402186
:1013F80014F0C8F90346002BF8D07B6901337B61F0
:101408007A697B689A42E8DB7B6818461837BD46DC
:1014180080BD00BF0048004080B485B000AF786050
:10142800114B1B68002B02D10F4B104A1A600E4B50
:101438001B68FB600C4B1A687B681A446B469A421F
:1014480005D90B4B0C221A604FF0FF3306E0064B10
:101458001A687B681A44044B1A60FB6818461437EC
:10146800BD465DF8047B7047240900202C1001203C
:101478002810012080B483B000AF78604FF0FF33AC
:1014880018460C37BD465DF8047B704780B483B0BE
:1014980000AF786039603B684FF400525A6000230F
:1014A80018460C37BD465DF8047B704780B483B09E
:1014B80000AF7860012318460C37BD465DF8047B01
:1014C800704700BF80B485B000AFF860B9607A603B
:1014D800002318461437BD465DF8047B704700BFEB
:1014E80080B485B000AFF860B9607A600023184610
:1014F8001437BD465DF8047B704700BF80B483B0E5
:1015080000AF0346FB71044BFA791A700C37BD46DD
:101518005DF8047B704700BF2C09002080B400AF41
:10152800BD465DF8047B704780B58AB000AF404B7C
:101538007B621EF0040F0CBFEFF30880EFF3098005
:101548007B6A1B683B627B6A5B68FB617B6A9B68A2
:10155800BB617B6ADB687B617B6A1B693B617B6A79
:101568005B69FB607B6A9B69BB607B6ADB697B604C
:10157800304816F01FFA3B6A2F48194616F01AFA37
:10158800FB692E48194616F015FABB692C4819460E
:1015980016F010FA7B692B48194616F00BFA3B69CE
:1015A8002948194616F006FAFB682848194616F025
:1015B80001FABB682648194616F0FCF97B682548ED
:1015C800194616F0F7F9244B1B682448194616F0FB
:1015D800F1F9234B1B682348194616F0EBF9224B07
:1015E8001B682248194616F0E5F9214BDB6A2148A9
:1015F800194616F0DFF9204B1B682048194616F0EB
:10160800D9F91F4B1B681F48194616F0D3F9184B18
:10161800DB6A03F08043002B08D01B4816F0CAF998
:10162800134B9B6A1948194616F0C4F900BEFDE72A
:101638000004002090DF0108A8DF0108B4DF0108DA
:10164800C0DF0108CCDF0108D8DF0108E4DF0108AA
:10165800F0DF0108FCDF010838ED00E008E00108D0
:1016680028ED00E018E001082CED00E028E0010872
:1016780000ED00E038E0010830ED00E050E001083E
:101688003CED00E060E0010870E0010884E001083A
:1016980080B400AFFEE700BF80B400AFFEE700BF34
:1016A80080B400AFFEE700BF80B400AFBD465DF870
:1016B800047B704780B500AF09F0D2F880BD00BF49
:1016C80080B500AF4FF4804015F05EF90346002B5B
:1016D80006D0012006F0AAFA4FF4804015F06EF902
:1016E80080BD00BF98B500AF1348102114F072F800
:1016F8000346002B1ED0114B1B681C46621C0F4B67
:101708001A600D4814F05AF803469AB20C4B23F8A5
:1017180014200948102114F087F8084B1B68012B86
:1017280008D9074B5A88064B1B88D31A9BB21A460E
:10173800044B1A6098BD00BF000C0040FC25002037
:10174800280900200026002080B500AF0C480021A1
:101758000C4A15F041F90B4B1A6840F221339A42B2
:101768000DD1084B1B7A002B09D1064B9B7A012B14
:1017780005D1044BDB7A0448194616F01BF980BDE5
:1017880000640040B85400209CE00108DFF83CD019
:10179800002100F004B80E4B5B58435004310D484B
:1017A8000D4B42189A42FFF4F6AF0C4A00F003B80A
:1017B800002342F8043B0A4B9A42FFF4F9AFFFF7C3
:1017C800F7FC16F0B1F800F023F87047000002208B
:1017D8007C030208000000200809002008090020F6
:1017E8002C100120FFF7FEBF80B400AFBFF34F8F6E
:1017F800054A054BDB6803F4E061044B0B43D360F7
:10180800BFF34F8FFEE700BF00ED00E00400FA05CC
:1018180080B500AF4FF4407015F096F909F064FCFC
:10182800244816F0C7F8132014F0E8FA034603F02A
:101838000203002B08D1204816F0BCF847F6FF70C9
:10184800012109F081F804E01C4816F0B3F814F0FF
:1018580067F97D2014F094FC0346002B02D014F0A5
:10186800C9FC0EE07C2014F08BFC0346002B08D149
:101878007B2014F085FC0346002B02D17A2014F05B
:101888007FFC14F0B7FC00F06DF800F045F808F0A4
:1018980011FA0346002B07D102F006FA0120FFF7E0
:1018A8002DFE00F00DF801E0FFF79EFF002318461B
:1018B80080BD00BFB8E00108D8E0010800E10108D8
:1018C80080B500AF03F0E4FE06F048FF0346002BA6
:1018D80001D007F0A3F908F0D5FF02460B461046E1
:1018E800194607F0A3F908F075FA0346012B0FD142
:1018F80008F032FB03461A46064B1A70054B1B7854
:10190800002B05D0034B1B78184602F0F1F9D9E7F4
:10191800D8E700BFCC54002080B582B000AF09F0F2
:1019280009F900237B6001231B067A6813437B6057
:1019380001231B047A6813437B6001231B027A6826
:1019480013437B600C237A6813437B60786809F043
:10195800F7F9034809F0B6F90837BD4680BD00BF5E
:101968006CE7002080B584B000AF09F0CFFA09F029
:10197800AFFA03F079FE04F05DF903F045F902F0DF
:10198800D3FC174804F04CFD154803F08BFB1448B2
:1019980002F086FF09F0F4FC0023FB71114BFB6099
:1019A8000023BB600DE0FB681B78FB710E4ABB6827
:1019B8001344FA791A70FB680133FB60BB68013382
:1019C800BB60BB681F2BEEDD074B002283F820208D
:1019D8000648054915F0EEFF1037BD4680BD00BF2B
:1019E80015A000082078FF1F6CE7002040E10108DF
:1019F80080B483B000AF0346FB71FA79044B53F807
:101A0800223018460C37BD465DF8047B704700BF8E
:101A18001400002080B483B000AF0346FB71FA794C
:101A2800044B53F8223018460C37BD465DF8047B4A
:101A3800704700BF3800002080B400AFBFF34F8F5D
:101A4800054A054BDB6803F4E061044B0B43D360A4
:101A5800BFF34F8FFEE700BF00ED00E00400FA057A
:101A680080B5ADF51C7D00AF07F10C03186007F1D8
:101A780008031960FB1D1A7007F10C03186800F0C1
:101A88004FFD07F10C03186800F0BCF8034687F80F
:101A98006E32002387F86F3207F1080007F5A0714E
:101AA80007F11402FB1D1B78006800F075F9034666
:101AB80087F86D3297F86D32012B0DD197F86E02C9
:101AC80007F5A07107F11402FB1D1B7800F05CFDFF
:101AD800034687F86F3202E0032387F86F3297F8DE
:101AE8006F32184600F0B4F807F51C77BD4680BD84
:101AF80080B5DEB000AF002387F873313F48404916
:101B080016F033F8C7F874010DE097F87331013314
:101B180087F87331D7F8743101331846384916F00D
:101B280024F8C7F87401D7F87431002BEDD197F871
:101B38007331002B41D03148314915F0D2FF0346AB
:101B4800C7F86831D7F86831322B02D102F0B2F801
:101B58004FE02A482A4916F08DFEC7F874013B1D4C
:101B68001846D7F8741115F0B4FF0023C7F86C3184
:101B78001CE00020224916F07DFEC7F87401D7F852
:101B88007431002B00D117E0D7F86C31322202FBF8
:101B980003F307F1380213441846D7F8741115F007
:101BA80098FFD7F86C310133C7F86C3197F8732177
:101BB800D7F86C319A42DCDC11E0104815F0A1FF2F
:101BC8000346C7F86431D7F86431312B02D902F0E3
:101BD80071F80EE03B1D1846084915F07AFF391DCB
:101BE80007F1380297F87331084611461A46FFF78D
:101BF80037FF07F5BC77BD4680BD00BF340900201C
:101C080078FE010880B584B000AF78600023FB73CC
:101C18000EE0FA7B0D4B53F8223078681946FEF730
:101C2800D9FA0346002B00D105E0FB7B0133FB7397
:101C3800FB7B282BEDD9FB7B282B01D92823FB73B1
:101C4800FB7B18461037BD4680BD00BFA4000020AE
:101C580080B584B000AF0346FB71FB791846FFF7E7
:101C6800C7FEF860FB79082B5ED801A252F823F072
:101C78009D1C0008AD1C0008BD1C0008CD1C0008F8
:101C8800DD1C0008011D0008111D0008211D0008A9
:101C9800F11C00082F484FF400712F4AFB6815F01B
:101CA800B5FE49E02B484FF400712C4AFB6815F04B
:101CB800ADFE41E027484FF40071294AFB6815F052
:101CC800A5FE39E023484FF40071254AFB6815F05A
:101CD8009DFE31E01F484FF40071224AFB6815F061
:101CE80095FE00F043F827E01A484FF400711C4AAB
:101CF800FB6815F08BFE1FE016484FF40071184A78
:101D0800FB6815F083FE17E012484FF40071144A7F
:101D1800FB6815F07BFE0FE00E484FF40071104A87
:101D2800FB6815F073FE07E00A484FF400710E4A8D
:101D3800FB6815F06BFE00BFFB79002B03D105484B
:101D480008F088FC02E0034808F058FC1037BD464C
:101D580080BD00BF6CE5002068E8010878E801084C
:101D680084E8010890E80108A0E8010880B500AF00
:101D7800064B1B781846FFF74DFE034604484FF400
:101D88000071044A15F042FE80BD00BF380B0020E8
:101D98006CE50020ACE8010880B594B000AFF860AD
:101DA800B9607A60FB70012387F84F300023BB6469
:101DB80050E0BB6C322202FB03F3FA6813447B64E5
:101DC800786C2949022215F0B9FE0346002B3AD156
:101DD8007B6C023307F110021046194615F079FEA4
:101DE80007F110031846214916F044FD7864786C11
:101DF80000F096FBBB6C322202FB03F3BA68134473
:101E08001846796C15F065FE0020184916F032FD69
:101E180078647B6C002B0DD0786C00F081FBBB6C78
:101E2800322202FB03F37A6813441846796C15F0E2
:101E380050FE0CE0BB6C322202FB03F37A681344B9
:101E480000221A7003E0002387F84F3006E0BB6CCD
:101E58000133BB64FA78BB6C9A42AADC97F84F301E
:101E680018465037BD4680BDC0E80108C4E80108DF
:101E780080B588B000AFF860B960FA71BB71FA79C3
:101E8800BB799A4201D9002333E00023FB61002388
:101E9800FB7600237B6127E00023FB610023FB76B0
:101EA80016E07B69322202FB03F3FA681A44FB69E5
:101EB800591CF9619B00B96A0B441B681046194606
:101EC800FEF788F90346002B02D10123FB7603E0D5
:101ED800BA79FB699A42E4DCFB7E002B01D100232E
:101EE80007E07B6901337B61FA797B699A42D3DC2D
:101EF800012318462037BD4680BD00BF80B582B09B
:101F080000AF786078680F49FEF764F90346002B44
:101F180001D1032312E078682C2115F0CDFD03468A
:101F2800002B01D0022309E078682D2115F0C4FDAB
:101F38000346002B01D0012300E000231846083790
:101F4800BD4680BDC8E8010880B58CB000AF034627
:101F58003960FB71002387F82F300023BB60FF2313
:101F6800FB7500233B610023BB62002387F8273001
:101F7800002387F826300023FB730023BB7300235C
:101F88003B6207E0694B3A6A002143F822103B6A3A
:101F980001333B623B6A242BF4D9FB79032B00F213
:101FA800C18001A252F823F0C11F00085D2000087B
:101FB800F11F0008FB200008386800210A2216F0EB
:101FC800CBFD0346FB7597F91730002BC0F2AB80A9
:101FD800FB7D252B00F2A780FB7D184604F060F9F5
:101FE8000246524B1A609EE03B68002B31D03B689A
:101FF800BB62BB681B782C2B02D1BB680133BB6268
:1020080007F10803B86A19460A2216F0A5FD034627
:102018003B613B69242B11D83B69002B0EDB3B69E4
:10202800DBB2184604F03CF90146404B3A6943F8E4
:10203800221097F82F30013387F82F30BB68002B18
:1020480007D097F82F30002B02D03B69002B00D027
:10205800CFE768E0002387F82730002387F8263089
:1020680007F10803386819460A2216F075FD034679
:10207800FB73BB680133184600210A2216F06CFD79
:102088000346BB73FB7B002B03D0FB7B87F8273011
:1020980002E0002387F82730BB7B002B03D0BB7BF3
:1020A80087F8263002E0252387F8263097F826207F
:1020B80097F82730D31ADBB2013387F82F30002383
:1020C800FB6110E0FB69DAB297F827301344DBB202
:1020D800184604F0E5F80146144BFA6943F8221053
:1020E800FB690133FB6197F82F20FB699A42E9DC11
:1020F80019E0252387F82F300023BB610CE0BB696A
:10210800DBB2184604F0CCF80146084BBA6943F82C
:102118002210BB690133BB6197F82F20BB699A4233
:10212800EDDC00E000BF3037BD4680BD38550020EB
:1021380080B58CB000AF03463960FB71002387F887
:102148002F300023BB60FF23FB7500233B61002376
:10215800BB62002387F82730002387F82630002346
:10216800FB730023BB7300233B6207E0664B3A6AAC
:10217800002143F822103B6A01333B623B6A172B6C
:10218800F4D9FB79032B00F2BA8001A252F823F0AC
:10219800A921000837220008D9210008D522000803
:1021A800386800210A2216F051FC0346FB7597F99E
:1021B8001730002BC0F2A480FB7D182B00F2A08002
:1021C800FB7D184602F03AFF02464F4B1A6097E033
:1021D8003B68002B2AD03B68BB62BB681B782C2B62
:1021E80002D1BB680133BB6207F10803B86A19461C
:1021F8000A2216F02BFC38613B69172B11D83B6972
:10220800002B0EDB3B69DBB2184602F017FF0146D4
:102218003D4B3A6943F8221097F82F30013387F87D
:102228002F30BB68002B00D100E0D6E768E0002320
:1022380087F82730002387F8263007F10803386825
:1022480019460A2216F002FC0346FB73BB680133E9
:10225800184600210A2216F0F9FB0346BB73FB7BE4
:10226800002B03D0FB7B87F8273002E0002387F898
:102278002730BB7B002B03D0BB7B87F8263002E0DE
:10228800182387F8263097F8262097F82730D31A8E
:10229800DBB2013387F82F300023FB6110E0FB69C4
:1022A800DAB297F827301344DBB2184602F0C6FEBC
:1022B8000146154BFA6943F82210FB690133FB61AB
:1022C80097F82F20FB699A42E9DC19E0182387F870
:1022D8002F300023BB610CE0BB69DBB2184602F06B
:1022E800ADFE0146084BBA6943F82210BB690133B9
:1022F800BB6197F82F20BB699A42EDDC00E000BF74
:102308003037BD4680BD00BFD854002080B58CB0A2
:1023180000AF03463960FB71002387F82F30002394
:10232800BB60FF23FB7500233B610023BB620023D6
:1023380087F82730002387F826300023FB73002313
:10234800BB7300233B6207E0654B3A6A002143F800
:1023580022103B6A01333B623B6A0F2BF4D9FB79AD
:10236800032B00F2BA8001A252F823F0852300085B
:1023780013240008B5230008B12400083868002198
:102388000A2216F063FB0346FB7597F91730002BFA
:10239800C0F2A380FB7D102B00F29F80FB7D1846C6
:1023A80002F0BAF902464E4B1A6096E03B68002BE1
:1023B8002AD03B68BB62BB681B782C2B02D1BB6858
:1023C8000133BB6207F10803B86A19460A2216F0FE
:1023D8003DFB38613B690F2B11D83B69002B0EDBA5
:1023E8003B69DBB2184602F097F901463C4B3A6963
:1023F80043F8221097F82F30013387F82F30BB6845
:10240800002B00D100E0D6E767E0002387F82730EB
:10241800002387F8263007F10803386819460A228E
:1024280016F014FB0346FB73BB6801331846002102
:102438000A2216F00BFB0346BB73FB7B002B03D071
:10244800FB7B87F8273002E0002387F82730BB7B27
:10245800002B03D0BB7B87F8263002E0102387F8D7
:10246800263097F8262097F82730D31ADBB20133A5
:1024780087F82F300023FB6110E0FB69DAB297F888
:1024880027301344DBB2184602F046F90146144BD4
:10249800FA6943F82210FB690133FB6197F82F2092
:1024A800FB699A42E9DC18E0102387F82F300023F3
:1024B800BB610CE0BB69DBB2184602F02DF901469E
:1024C800074BBA6943F82210BB690133BB6197F81F
:1024D8002F20BB699A42EDDC00BF3037BD4680BD76
:1024E800CC55002080B483B000AF0346FB71FB7964
:1024F8005F2B0BD0FB79402B02D9FB795A2B05D9DE
:10250800FB79602B04D9FB797A2B01D8012300E0F1
:10251800002318460C37BD465DF8047B704700BFA2
:1025280080B584B000AF78600023FB6023E0FB68CF
:102538007A6813441B78FB72FB7A1846FFF7D2FFC0
:102548000346002B14D0FB7A402B04D9FB7A5A2B74
:1025580001D8012300E00023002B09D1FB7A5F2B6F
:1025680006D0FB687A681344FA7A203AD2B21A7015
:10257800FB680133FB60FB687A6813441B78002B07
:10258800D5D11037BD4680BD80B586B000AFB960E3
:102598007A600246FA73BB730023FB75FA7B084B1B
:1025A80053F822303B61BA7B3B69B8687968984731
:1025B8000346FB75FB7D18461837BD4680BD00BF36
:1025C8007CFE010880B588B002AFF860B960134698
:1025D800FB710023FB75FB790F4A0092F868B96814
:1025E8001A460023FFF744FC0346002B0DD003F0E6
:1025F80087FB0346BB75BB7D002B05D0074BBA7D17
:102608001A700423FB7502E001E00123FB75FB7DD2
:1026180018461837BD4680BD30090020380B002009
:1026280080B588B002AFF860B9601346FB7100232B
:10263800FB75FB79114A0092F868B9681A460023BD
:10264800FFF716FC0346002B10D008F087FC09F0B2
:102658003FFE0B4B1B78002B05D0094808F05AF8B1
:1026680008F07CFC04E00423FB7501E00123FB7502
:10267800FB7D18461837BD4680BD00BF30090020D5
:102688006CE5002080B58CB002AFF860B9601346E5
:10269800FB71002387F82730FB79634A0092F868BA
:1026A800B9681A460223FFF7E3FB0346002B00F044
:1026B800B18000233B620323FB77FF23FB740023D5
:1026C800BB6147E0584BBA6953F82220FB79F86898
:1026D80011461A4601F072FB0346FB7497F9133052
:1026E800002B2FDBBB69002B02D0012B19D026E071
:1026F80097F91330322202FB03F3BA6813441846E1
:10270800FFF7FCFB0346FB7797F91330322202FBF5
:1027180003F3BA681344FA7F10461946FFF714FC0E
:1027280010E097F91330322202FB03F3BA6813441E
:10273800184600210A2216F089F9386202E00323BC
:1027480087F8273097F82730002B00D005E0BB69C1
:102758000133BB61BB69012BB4DD97F82730002B2F
:102768001FD1FB7F032B1CD000237B6116E02F4B6E
:102778007A6953F82230002B0DD02C4B7A6953F824
:1027880022301B78012B06D1042387F82730284BE9
:1027980003221A7005E07B6901337B617B69242B76
:1027A800E5D997F82730002B33D1FB7F032B27D8A7
:1027B80001A252F823F000BFD1270008ED27000836
:1027C800DF270008FB2700083B6A18481946012242
:1027D80004F086FF1AE03B6A14481946002204F008
:1027E8007FFF13E03B6A11481946002204F078FF86
:1027F8000CE03B6A0D481946002204F071FF05E021
:10280800042387F827300A4B05221A7003F05EF874
:1028180003E002E0012387F8273097F827301846AD
:102828002837BD4680BD00BF48010020385500202C
:10283800380B002080B588B002AFF860B960134645
:10284800FB710023FB7503F0AFF80346002B20D182
:10285800FB79134A0092F868B9681A460523FFF70E
:1028680007FB0346012B11D1FB79F868B9681A46B2
:1028780003F070FB0346BB75BB7D002B05D0094BED
:10288800BA7D1A700423FB7505E004E00323FB7589
:1028980001E00523FB75FB7D18461837BD4680BD52
:1028A80050010020380B002080B588B002AFF860D6
:1028B800B9601346FB710023FB7503F075F80346F6
:1028C800002B20D1FB79134A0092F868B9681A46A0
:1028D8000123FFF7CDFA0346002B11D0FB79F868E6
:1028E800B9681A4603F084FC0346BB75BB7D002B10
:1028F80005D0094BBA7D1A700423FB7505E004E086
:102908000123FB7501E00523FB75FB7D184618378D
:10291800BD4680BD64010020380B002080B487B01C
:1029280000AFF860B9601346FB710023FB75FB7DAF
:1029380018461C37BD465DF8047B704780B58AB0E1
:1029480002AFF860B9601346FB710023FB77FB798F
:10295800224A0092F868B9681A460123FFF788FAF4
:102968000346002B34D0FF23FB750023BB612CE00A
:102978001A4BBA6953F82220FB79F86811461A46AF
:1029880001F01CFA0346FB7597F91730002B15DB8D
:10299800BB69002B10D197F91730322202FB03F3E1
:1029A800BA681344184608F05FFD0346BB75BB7D43
:1029B800184608F03DFD01E00323FB77FB7F002B61
:1029C80000D005E0BB690133BB61BB69002BCFDDDB
:1029D800FB7F18462037BD4680BD00BF6801002038
:1029E80080B586B000AFF860B9601346FB7100236C
:1029F800FB7508F02DFD0346184608F057FD3861B1
:102A080007484FF40071074A3B6914F0FFFF044878
:102A180007F080FEFB7D18461837BD4680BD00BF15
:102A28006CE50020CCE8010880B588B002AFF860FA
:102A3800B9601346FB710023FB75FB79114A0092BC
:102A4800F868B9681A460123FFF712FA0346002B03
:102A580011D0FB79F868B9681A4601F00BFA0346F9
:102A6800BB75BB7D002B05D0074BBA7D1A700423BC
:102A7800FB7502E001E00123FB75FB7D1846183762
:102A8800BD4680BD6C010020380B002080B586B0A3
:102A980000AFF860B9601346FB710023FB7501F0C5
:102AA800DDF90346BB75BB7D002B04D0044BBA7D12
:102AB8001A700423FB75FB7D18461837BD4680BD88
:102AC800380B002080B588B002AFF860B9601346B3
:102AD800FB710023FB75FB79174A0092F868B96807
:102AE8001A460323FFF7C4F90346002B1DD007F14C
:102AF8001002FB791046F968BA6801F031FA03460A
:102B0800BB75BB7D002B05D00C4BBA7D1A70042316
:102B1800FB750CE03B690A484FF40071094A14F050
:102B280075FF074807F0F6FD01E00123FB75FB7D03
:102B380018461837BD4680BD70010020380B0020AC
:102B48006CE50020F4E8010880B586B000AFF860B5
:102B5800B9601346FB710023FB750A4B00221A70FB
:102B68000AF08CF9386108484FF40071074A3B694C
:102B780014F04CFF044807F0CDFDFB7D18461837CC
:102B8800BD4680BD380B00206CE50020F4E8010844
:102B980080B588B002AFF860B9601346FB710023B6
:102BA800FB75FB790F4A0092F868B9681A4600234A
:102BB800FFF75EF90346002B0DD002F083F80346B9
:102BC800BB75BB7D002B05D0074BBA7D1A7004235B
:102BD800FB7502E001E00123FB75FB7D1846183701
:102BE800BD4680BD30090020380B002080B58CB070
:102BF80002AFF860B9601346FB71002387F82730ED
:102C0800FB795F4A0092F868B9681A460223FFF711
:102C18002FF90346002B00F0AC8000233B62002311
:102C2800FB77FF23FB740023BB6147E0544BBA6971
:102C380053F82220FB79F86811461A4601F0BEF8CD
:102C48000346FB7497F91330002B2FDBBB69002B6D
:102C580002D0012B19D026E097F91330322202FB5B
:102C680003F3BA6813441846FFF748F90346FB779D
:102C780097F91330322202FB03F3BA681344FA7F40
:102C880010461946FFF754FA10E097F9133032222C
:102C980002FB03F3BA681344184600210A2215F010
:102CA800D5FE386202E0032387F8273097F82730EB
:102CB800002B00D005E0BB690133BB61BB69012B68
:102CC800B4DD97F82730002B1FD1FB7F032B1CD0D6
:102CD80000237B6116E02B4B7A6953F82230002BD6
:102CE8000DD0284B7A6953F822301B78012B06D176
:102CF800042387F82730244B0A221A7005E07B69E1
:102D080001337B617B69172BE5D997F82730002BB6
:102D18002FD1FB7F032B27D801A252F823F000BF45
:102D2800392D0008552D0008472D0008632D00088F
:102D38003B6A14481946012202F008FC17E03B6A76
:102D480010481946002202F001FC10E03B6A0D48C9
:102D58001946002202F0FAFB09E03B6A09481946C5
:102D6800002202F0F3FB02E0042387F8273002F088
:102D7800BDFD97F8273018462837BD4680BD00BFEF
:102D88007C010020D8540020380B002080B588B082
:102D980002AFF860B9601346FB710023FB7502F0BF
:102DA8000FFE0346002B20D1FB79134A0092F868E6
:102DB800B9681A460223FFF75BF80346012B11D1C5
:102DC800FB79F868B9681A4601F0F8FF0346BB7545
:102DD800BB7D002B05D0094BBA7D1A700423FB7507
:102DE80005E004E00123FB7501E00623FB75FB7D8C
:102DF80018461837BD4680BD84010020380B0020D6
:102E080080B588B002AFF860B9601346FB71002343
:102E1800FB7502F0D5FD0346002B20D1FB79134A40
:102E28000092F868B9681A460123FFF721F80346AB
:102E3800002B11D0FB79F868B9681A4602F09AF8A5
:102E48000346BB75BB7D002B05D0094BBA7D1A70B4
:102E58000423FB7505E004E00123FB7501E006236C
:102E6800FB75FB7D18461837BD4680BD8C010020D8
:102E7800380B002080B588B002AFF860B9601346FF
:102E8800FB710023FB75FB790F4A0092F868B9685B
:102E98001A460023FEF7ECFF0346002B0DD001F085
:102EA8006FFA0346BB75BB7D002B05D0074BBA7D77
:102EB8001A700423FB7502E001E00123FB75FB7D1A
:102EC80018461837BD4680BD30090020380B002051
:102ED80080B588B002AFF860B9601346FB71002373
:102EE800FB75FB79114A0092F868B9681A46022303
:102EF800FEF7BEFF0346002B11D0FB79F868B968CE
:102F08001A4601F025FC0346BB75BB7D002B05D096
:102F1800074BBA7D1A700423FB7502E001E0012318
:102F2800FB75FB7D18461837BD4680BD9001002013
:102F3800380B002080B58CB002AFF860B96013463A
:102F4800FB71002387F82730FB794F4A0092F86815
:102F5800B9681A460223FEF78BFF0346002B00F0E0
:102F68008A8000233B620023FB77FF23FB75002345
:102F7800BB6147E0444BBA6953F82220FB79F868F3
:102F880011461A4600F01AFF0346FB7597F91730E9
:102F9800002B2FDBBB69002B02D0012B19D026E0B8
:102FA80097F91730322202FB03F3BA681344184624
:102FB800FEF7A4FF0346FB7797F91730322202FB8E
:102FC80003F3BA681344FA7F10461946FFF79EF9CF
:102FD80010E097F91730322202FB03F3BA68134462
:102FE800184600210A2215F031FD386202E0032359
:102FF80087F8273097F82730002B00D005E0BB6909
:103008000133BB61BB69012BB4DD97F82730002B76
:1030180030D1FB7F032B27D801A252F823F000BF41
:103028003930000855300008473000086330000880
:103038003B6A16481946012202F02EF917E03B6A4E
:1030480012481946002202F027F910E03B6A0F489F
:103058001946002202F020F909E03B6A0B4819469C
:10306800002202F019F902E0042387F8273002F061
:103078004DFC03E002E0012387F8273097F827305A
:1030880018462837BD4680BD98010020CC55002041
:1030980080B588B002AFF860B9601346FB710023B1
:1030A800FB7502F099FC0346002B20D1FB79134AEB
:1030B8000092F868B9681A460223FEF7D9FE03465B
:1030C800002B11D0FB79F868B9681A4601F0D8F9D5
:1030D8000346BB75BB7D002B05D0094BBA7D1A7022
:1030E8000423FB7505E004E00123FB7501E00723D9
:1030F800FB75FB7D18461837BD4680BDA001002032
:10310800380B002080B588B002AFF860B96013466C
:10311800FB710023FB7502F05FFC0346002B20D1F6
:10312800FB79134A0092F868B9681A460123FEF73A
:103138009FFE0346002B11D0FB79F868B9681A4640
:1031480001F086FA0346BB75BB7D002B05D0094B01
:10315800BA7D1A700423FB7505E004E00123FB75B2
:1031680001E00723FB75FB7D18461837BD4680BD77
:10317800A8010020380B002080B487B000AFF860A9
:10318800B9601346FB710023FB75FB7D18461C379D
:10319800BD465DF8047B704780B588B002AFF86023
:1031A800B9601346FB710023FB75FB790A4A00924C
:1031B800F868B9681A460023FEF75AFE0346002B42
:1031C80002D006F0CFFD01E00123FB75FB7D184618
:1031D8001837BD4680BD00BF3009002080B588B0D3
:1031E80002AFF860B9601346FB710023FB75FB79E9
:1031F8000B4A0092F868B9681A460023FEF738FEB1
:103208000346002B04D006F0ADFDFEF715FC01E0E7
:103218000123FB75FB7D18461837BD4680BD00BFEE
:103228003009002080B588B002AFF860B960134655
:10323800FB710023FB75FB790D4A0092F868B968A9
:103248001A460023FEF714FE0346002B08D0072079
:10325800012106F025FA06F085FDFEF7EDFB01E0F9
:103268000123FB75FB7D18461837BD4680BD00BF9E
:1032780030090020F0B593B006AFF860B960134686
:10328800FB71002387F82F30FB79564A0092F868C3
:10329800B9681A460023FEF7EBFD0346002B00F041
:1032A800978007F07BFDB862BB6A002B01D14E4BBB
:1032B800BB6207F067FD034687F8273007F078FD03
:1032C800386207F09FFDF86107F0A6FDB86100239A
:1032D8007B61464A464B144607CB20606160A2607A
:1032E8001A889B78A281A3730E237B617A693F4B6E
:1032F8001344184633213F4ABB6A14F087FB034640
:103308007A6913447B617B69023B7B617A69374B3D
:103318001A4497F82730B969CDB2B969090ACCB20D
:10332800B969090CC8B2B969090E009501940290EF
:10333800039110464FF400712F4A14F067FB0346BF
:103348007A6913447B617A69284B1A443B6ADBB279
:10335800396A090ACCB2396A090CC8B2396A090E45
:1033680000940190029110464FF40071234A14F022
:103378004DFB03467A6913447B617A691B4B1A44F7
:10338800FB691B78F969013109780E46F969023140
:1033980009780D46F969033109780C46F969043151
:1033A80009780846F969053109780096019502946B
:1033B8000390049110464FF40071114A14F026FB53
:1033C80003467A6913447B61084807F043F902E031
:1033D800012387F82F3097F82F3018463437BD4629
:1033E800F0BD00BF3009002014E901086CE5002099
:1033F8001CE901082CE9010844E9010880E90108F1
:10340800A0E9010880B58AB002AFF860B960134638
:10341800FB710023FB77FB79354A0092F868B9689D
:103428001A460123FEF724FD0346002B58D000233B
:10343800BB61FF23FB7400237B6129E02C4B7A6975
:1034480053F82220FB79F86811461A4600F0B6FCBA
:103458000346FB7497F91330002B12DB7B69002BB2
:103468000DD197F91330322202FB03F3BA681344E3
:10347800184600210A2215F0E9FAB86101E0032391
:10348800FB77FB7F002B00D005E07B6901337B6174
:103498007B69002BD2DDFB7F002B20D1032000218C
:1034A800FEF752FD03200021FEF742FE0320002113
:1034B800FEF72CFFBB690F481946002204F010F9EB
:1034C800BB690D481946002202F040F8BB690B4859
:1034D8001946002201F0E0FE02F028FA02E001E0BD
:1034E8000123FB77FB7F18462037BD4680BD00BF10
:1034F800AC01002038550020D8540020CC550020BD
:1035080080B588B002AFF860B9601346FB7100233C
:10351800FB75FB790A4A0092F868B9681A460023D5
:10352800FEF7A6FC0346002B02D002F079F901E071
:103538000123FB75FB7D18461837BD4680BD00BFCB
:103548003009002080B487B000AFF860B960134636
:10355800FB710023FB75FB7D18461C37BD465DF8E3
:10356800047B70472DE9B0438EB002AFF860B960B4
:103578001346FB71002387F82F30FB79374A0092F6
:10358800F868B9681A460123FEF772FC0346002B57
:103598005AD0FF2387F827300023BB6250E02F4B17
:1035A800BA6A53F82220FB79F86811461A4600F0E7
:1035B80005FC034687F8273097F92730002B37DBBF
:1035C800BB6A002B31D1BB6A322202FB03F3BA6813
:1035D800134418460021102215F0CCFAC7E9060159
:1035E800BB69FB82D7E90623140C44EA03441D0C8B
:1035F8002346BB82D7E9062398464FF00009434685
:103608007B82FB8A0420194606F04AF8BB8A05200B
:10361800194606F045F87B8A0620194606F040F858
:103628000720012106F03CF802E0032387F82F3039
:1036380097F82F30002B00D005E0BB6A0133BB623E
:10364800BB6A002BABDD02E0012387F82F3097F827
:103658002F3018463037BD46BDE8B083B001002092
:1036680080B588B002AFF860B9601346FB710023DB
:10367800FB75FB790B4A0092F868B9681A46012372
:10368800FEF7F6FB0346002B04D00720002106F0C6
:1036980007F801E00123FB75FB7D18461837BD4686
:1036A80080BD00BF3009002080B487B000AFF8604B
:1036B800B9601346FB710023FB75FB7D18461C3768
:1036C800BD465DF8047B704780B586B000AFF860F2
:1036D800B9601346FB710023FB7500F01BFC034621
:1036E800BB75BB7D012B01D1094B00E0094B0A4892
:1036F8004FF40071094A14F089F903467B750648AE
:1037080006F0A8FFFB7D18461837BD4680BD00BFF0
:10371800D0E90108D8E901086CE50020E0E90108D2
:1037280080B586B000AFF860B9601346FB7100231E
:10373800FB7508F031F90346092B14BF0023012358
:10374800DBB2BB75BB7D012B04D00423FB75044B96
:1037580017221A70FB7D18461837BD4680BD00BF7A
:10376800380B002080B588B002AFF860B960134606
:10377800FB710023FB75FB79114A0092F868B96860
:103788001A460623FEF774FB0346012B11D1FB7979
:10379800F868B9681A4600F049FC0346BB75BB7D5A
:1037A800002B05D0074BBA7D1A700423FB7502E085
:1037B80001E00323FB75FB7D18461837BD4680BD25
:1037C800B4010020380B002080B58CB002AFF8603F
:1037D800B9601346FB71002387F82730FB79404A0C
:1037E8000092F868B9681A460223FEF741FB0346BF
:1037F800002B6ED0FF23FB750023BB614CE0384BD8
:10380800BA6953F82220FB79F86811461A4600F085
:10381800D5FA0346FB7597F91730002B34DBBB69E3
:10382800002B02D0012B1DD02BE014F077F80346B3
:1038380000221A6097F91730322202FB03F3BA68A4
:1038480013441846002114F0FBFF87ED080A14F012
:1038580065F803461B68002B03D0032387F827303D
:1038680012E011E097F91730322202FB03F3BA682D
:103878001344184600210A2215F0E8F80346FB779E
:1038880002E0032387F8273097F82730002B00D071
:1038980005E0BB690133BB61BB69012BAFDD97F85C
:1038A8002730002B15D1FB7F97ED080A184608F042
:1038B800C3F80346092B14BF00230123DBB2BB75F1
:1038C800BB7D012B05D0042387F82730054B182230
:1038D8001A7097F8273018462837BD4680BD00BFB4
:1038E800CC010020380B002080B586B000AFF8600E
:1038F800B9601346FB710023FB7508F0D9F803463D
:10390800092B14BF00230123DBB2BB75BB7D012B40
:1039180004D00423FB75044B18221A70FB7D18464B
:103928001837BD4680BD00BF380B002080B586B073
:1039380000AFF860B9601346FB710023FB7508F00F
:103948005BF8FB7D18461837BD4680BD2DE9B043AE
:103958008CB002AFF860B9601346FB71002387F89A
:103968002730FB79664A0092F868B9681A4601233D
:10397800FEF77EFA0346002B00F0B780FF23BB76E4
:103988000023FB613CE05E4BFA6953F82220FB7987
:10399800F86811461A4600F011FA0346BB7697F903
:1039A8001A30002B24DBFB69002B1ED1FB69322265
:1039B80002FB03F3BA68134418460021102215F0DD
:1039C800D9F8C7E904013B69BB84D7E90423140C7F
:1039D80044EA03441D0C23467B84D7E90423984614
:1039E8004FF0000943463B8402E0032387F8273061
:1039F80097F82730002B00D005E0FB690133FB6105
:103A0800FB69002BBFDD97F82730002B6CD112F033
:103A18005DFDF32012F0E6FE12F030FF0346FB7660
:103A2800FB7E092B06D0374B18221A70042387F81F
:103A3800273056E03B8C1B0A9BB2DBB23248194652
:103A480012F032FE0346FB76FB7E092B07D13B8C36
:103A5800DBB22E48194612F027FE0346FB76FB7EA2
:103A6800092B09D17B8C1B0A9BB2DBB2284819466B
:103A780012F01AFE0346FB76FB7E092B07D17B8CDE
:103A8800DBB22448194612F00FFE0346FB76FB7E94
:103A9800092B09D1BB8C1B0A9BB2DBB21E48194605
:103AA80012F002FE0346FB76FB7E092B07D1BB8C86
:103AB800DBB21A48194612F0F7FD0346FB76FB7E87
:103AC800092B05D11648002112F0EEFD0346FB76BE
:103AD800FB7E092B05D00B4B18221A70042387F89C
:103AE800273012F009FD03E002E0012387F82730B0
:103AF80097F8273018462837BD46BDE8B08300BF81
:103B0800D4010020380B00200078FF1F0178FF1F28
:103B18000278FF1F0378FF1F0478FF1F0578FF1F37
:103B2800007AFF1F80B58CB002AFF860B960134609
:103B3800FB71002387F827300123FB77FB794E4A76
:103B48000092F868B9681A460123FEF791F903460E
:103B5800002B00F08880FF237B750023BB613AE0CF
:103B6800454BBA6953F82220FB79F86811461A4682
:103B780000F024F903467B7597F91530002B22DBFA
:103B8800BB69002B1CD1BB69322202FB03F3BA6864
:103B980013443B623948396A13F00CFF02E0FB7F9B
:103BA8000133FB77FB7F3A6A13441B78002BF6D16D
:103BB800FB7F1F2B03D8032387F8273003E002E09D
:103BC800032387F8273097F82730002B00D005E02B
:103BD800BB690133BB61BB69002BC1DD97F8273096
:103BE800002B3FD112F072FCF32012F0FBFD12F013
:103BF80045FE0346FB75FB7D092B06D0204B18229A
:103C08001A70042387F8273029E00023BB7510E0D9
:103C1800BA7D1C4B13441A46BB7D396A0B441B788A
:103C28001046194612F040FD0346FB75BB7D013373
:103C3800BB75FB7D092B03D1BA7DFB7F9A42E7D385
:103C48001148002112F030FD0346FB75FB7D092B5E
:103C580005D00B4B18221A70042387F8273012F06E
:103C68004BFC03E002E0012387F8273097F8273060
:103C780018462837BD4680BDD8010020F8E901085C
:103C8800380B00202078FF1F017AFF1F80B485B011
:103C980000AFF860B9601346FB710023184614376B
:103CA800BD465DF8047B704780B500AF00F002F8B0
:103CB80080BD00BF80B483B000AF00237B6007E005
:103CC8000A4A7B68134400221A707B6801337B60C0
:103CD8007B68B3F5007FF3D3044B0022A3F80022DE
:103CE8000C37BD465DF8047B704700BF34090020DF
:103CF80080B582B000AF0346FB71FB79002B58D02A
:103D08002D4BB3F80032B3F5007F52D2FB790A2B62
:103D180002D0FB790D2B04D1FDF7EAFEFFF7CAFFAD
:103D280047E0FB79082B02D0FB797F2B14D1224B7B
:103D3800B3F80032002B0ED01F4BB3F80032013B12
:103D48009AB21D4BA3F800221B4BB3F800321A4A53
:103D58000021D1542DE02CE0FB79202B1BD1164BF0
:103D6800B3F80032002B24D0134BB3F80032013BD8
:103D7800114AD35C202B1CD00F4BB3F800320E4AEB
:103D8800F979D1540C4BB3F8003201339AB20A4B8B
:103D9800A3F800220DE0084BB3F80032064AF9797F
:103DA800D154054BB3F8003201339AB2024BA3F851
:103DB80000220837BD4680BD3409002080B586B092
:103DC80000AFF860B9601346FB71FF23FB75002351
:103DD8003B6112E03B69322202FB03F3FA681344A9
:103DE8001846B968FCF7F6F90346002B02D13B697F
:103DF800FB7506E03B6901333B61FA793B699A42FE
:103E0800E8D8FB7D5BB218461837BD4680BD00BFB9
:103E180080B588B000AFF860B9601346FB71002325
:103E2800FB77FF23BB7700237B7772233B77002345
:103E3800FB7600237B6100BFFB7E184608F0DCFEA2
:103E48003B7F184608F094FF7B7F184608F028FF50
:103E5800FB7F18462037BD4680BD00BF80B582B0C5
:103E680000AF0023FB7103F051FBFB7918460837BC
:103E7800BD4680BD80B588B000AFF860B960134614
:103E8800FB710023FB77FB79F868B9681A46FFF7DE
:103E9800BFFF0346FB770023BB77FF23FB75002397
:103EA800BB6128E01A4BBA6953F82220FB79F868FD
:103EB80011461A46FFF782FF0346FB7597F917303C
:103EC800002B13DBBB69002B0DD197F91730322279
:103ED80002FB03F3BA681344184608F015FB0346BF
:103EE800BB7700BF04E01923FB7701E01A23FB77B7
:103EF800BB690133BB61BB69002BD3D0BB7F1846BC
:103F080003F02AFBFB7F18462037BD4680BD00BF63
:103F18006C01002080B584B000AF0123FB7301F071
:103F2800B9FD87ED020A01F0E3FD87ED010A97ED7F
:103F3800027ADFED0A7AB4EEE77AF1EE10FA06DCDF
:103F4800D7ED017AF5EEC07AF1EE10FA01D500232B
:103F5800FB73FB7B18461037BD4680BD0000484206
:103F680080B588B000AFF860B9607A60FB70002354
:103F7800FB77FF23FB750023BB613EE02A4BBA6940
:103F880053F82220FB78B86811461A46FFF716FF47
:103F98000346FB7597F91730002B25DB97F9173087
:103FA800322202FB03F37A6813443B61BB69012B9D
:103FB8000AD0012B02D3022B0CD011E0386908F08B
:103FC800A3FA0346BB770EE0386908F0BBFA03464C
:103FD8007B7708E0386908F027FB03463B7702E067
:103FE8001923FB7702E001E01A23FB77FB7F002B04
:103FF80000D005E0BB690133BB61BB69022BBDD9A9
:10400800FB7F002B0AD1797F3A7FBB7F0846114698
:104018001A4607F073FA0246FB681A60FB7F1846D7
:104028002037BD4680BD00BF700100202DE9F0415A
:1040380090B004AFF860B9601346FB71002387F8AD
:104048002F30FF23FB760023FB6183E0634BFA6983
:1040580053F82220FB79F86811461A46FFF7AEFE9E
:104068000346FB7697F91B30002B68DB97F91B306A
:10407800322202FB03F3BA6813447B61FB69052B08
:1040880058D801A252F823F0A9400008CF400008F0
:10409800DD400008EB400008F9400008074100082F
:1040A80000233B6107F110037869194614F0C8FB37
:1040B80087ED0A0A3A697B699A4202D1192387F87F
:1040C8002F3000BF3AE0786908F0AEFA034687F867
:1040D800253033E0786908F035FA034687F826304A
:1040E8002CE0786908F010FA034687F8273025E0B5
:1040F800786907F0B9F9034687F824301EE0384B91
:1041080000221A6097F91B30322202FB03F3BA68C7
:10411800134418460021002214F098FC034687F83F
:1041280023302F4B1B68002B03D0192387F82F301F
:1041380004E003E0192387F82F3003E002E01A2394
:1041480087F82F3097F82F30002B00D006E0FB6956
:104158000133FB61FB69052B7FF678AF97F82F30A9
:10416800002B34D1B86AFCF7A3F904460D4697F83A
:104178002630184608F006F9804697F82530184684
:1041880008F06CF9064697F82730184608F0A0F9A9
:104198000346CDF8008001960293124822462B462A
:1041A80013F008FC97F8260097F8251097F82720B1
:1041B80097F8243097F82340009497ED0A0A07F0FF
:1041C800A7FC0346092B02D0182387F82F3097F84D
:1041D8002F3018463037BD46BDE8F081B4010020C5
:1041E8002810012018EA010880B582B000AF034604
:1041F800FB71FB79184600F013F80346002B09D031
:10420800FA791346DB009B1ADB00044A134418466C
:1042180000F018F80837BD4680BD00BF400B0020ED
:1042280080B483B000AF0346FB71FB790F2B01D834
:10423800012300E0002318460C37BD465DF8047BD7
:10424800704700BF80B483B000AF78607B680122FC
:104258001A707B680122DA7679684FF000024FF015
:104268000003C1E908237B6803330D4A106818600E
:1042780012791A717B68FF225A707B68FF229A7044
:104288007B68032283F8302079684FF000024FF0F2
:104298000003C1E90A230C37BD465DF8047B70476B
:1042A80064EA010880B584B000AF78600B46FB7003
:1042B80007F0F6FD7B689B78DB08DBB24FF4E06023
:1042C800194607F0BDFE0346FB737B689A787B6846
:1042D8009B78DB08DBB2DB00DBB2D31ABB73BB7B9A
:1042E800012202FA03F37B73FB78002B04D1FA7BDB
:1042F8007B7B1343FB7306E07B7BDB43DAB2FB7B00
:104308001340DBB2FB737B689B78DB08DBB2FA7B7C
:104318004FF4E06011461A4607F0F8FD07F0C0FDBB
:104328001037BD4680BD00BF80B584B000AF002304
:10433800FB600CE0FA681346DB009B1ADB000F4AAF
:1043480013441846FFF77EFFFB680133FB60FB68E8
:104358000F2BEFD900233B7200237B723B1D4FF4D8
:104368008070194607F0DCFE07F108034FF48070EF
:10437800194607F01BFE1037BD4680BD400B0020D4
:104388002DE9F04194B002AF002387F8473006F0DA
:10439800E5FD364B364A14461D4604F130082E46D4
:1043A800A446BCE80F0030607160B260F36010345E
:1043B80010354445F3D12B46224612881A80312302
:1043C80087F83F3097F83F30002B03D1162387F842
:1043D800473043E0274B1B68002B03D0254B1B6855
:1043E8002248984700233B6435E023493A6C13463A
:1043F800DB009B1ADB000B443C461D460FCD0FC467
:104408000FCD0FC40FCD0FC495E8030084E8030057
:104418003B78002B1CD17B783A4603320092134834
:104428004FF40071154A13F0F1FA034687F83F304C
:1044380097F83F30002B03D1162387F847300DE05B
:104448000C4B1B68002B03D00A4B1B680748984786
:104458003B6C01333B643B6C0F2BC6D997F8473054
:1044680018464837BD46BDE8F08100BF6CE500201E
:104478006CEA01083C0B0020400B0020A0EA010870
:1044880080B590B000AFF860B9607A60002387F813
:104498003F300023BB62FF2387F83730FF2387F8BC
:1044A8003E30FF2387F8363007F11003574A92E869
:1044B80003001860043319700023BB635AE0544B9F
:1044C800BA6B53F822207B68DBB2F86811461A46AB
:1044D800FFF774FC034687F8373097F93730002B1D
:1044E80039DB97F93730322202FB03F3BA681344F9
:1044F8003B63BB6B002B02D0012B20D026E007F1D9
:104508002803386B19460A2214F0A0FA034687F8E4
:104518003630BA6A3B6B9A4203D1122387F83F3090
:104528000CE097F83630102B04D897F8363087F817
:104538003E3003E00F2387F83F300BE00AE007F135
:1045480010031846396B13F0C4FA03E0122387F8F6
:104558003F3007E006E0BB6B012B00D107E01023DA
:1045680087F83F3097F83F30002B00D005E0BB6B51
:104578000133BB63BB6B012BA1DD97F83F30002BE8
:104588003ED197F83E30FF2B37D097F83E3018468B
:1045980000F0C2F8F862FB6A002B2AD0FB6A1B788D
:1045A800002B22D0FB6A97F83E205A7097F83E30CD
:1045B800184AD25CFB6A9A70FB6ADA1C07F110038E
:1045C8001046194613F085FAFB6A0122DA76F96A71
:1045D8004FF000024FF00003C1E90823F86A00F029
:1045E8001BF8034687F83F300AE0142387F83F306A
:1045F80006E0112387F83F3002E0132387F83F30A5
:1046080097F83F3018464037BD4680BD64EA010838
:10461800A0010020DC01002080B584B000AF7860E4
:104628000023FB737B685B78BB73BB7B0F2B07D8BE
:104638007B6800221A7078680121FFF733FE01E0D9
:104648000F23FB73FB7B18461037BD4680BD00BFA8
:1046580080B58AB000AFF860B9607A60002387F847
:104668002730FF23FB7700233B6249E0294B3A6A56
:1046780053F822207B68DBB2F86811461A46FFF728
:104688009DFB0346FB7797F91F30002B32DB97F928
:104698001F30322202FB03F3BA681344BB613B6A42
:1046A800002B23D100233B6107F11003B869194699
:1046B8000A2214F0CBF90346FB753A69BB699A42A2
:1046C80003D1122387F827300EE0FB7D1846FFF749
:1046D800A7FD0346002B04D0FB7D1846FFF784FD99
:1046E80002E00F2387F8273000BF06E0122387F87F
:1046F800273002E0102387F827303B6A01333B62FA
:104708003B6A002BB2D097F8273018462837BD46A9
:1047180080BD00BFA801002080B582B000AF03466D
:10472800FB71FB791846FFF77BFD0346002B07D08A
:10473800FA791346DB009B1ADB00044A134400E0B5
:10474800002318460837BD4680BD00BF400B002037
:1047580080B58CB000AFF860B9601346FB710023D8
:1047680087F82F30FF2387F82730FF2387F82E306C
:10477800012387F82D300023BB625CE0464BBA6A00
:1047880053F82220FB79F86811461A46FFF716FB02
:10479800034687F8273097F92730002B40DB97F935
:1047A8002730322202FB03F3BA6813443B62BB6A28
:1047B800002B02D0012B1FD02DE000237B6107F1D5
:1047C8001403386A19460A2214F040F90346FB77A5
:1047D8007A693B6A9A4203D1122387F82F3009E09D
:1047E800FB7F102B03D8FB7F87F82E3002E00F23C6
:1047F80087F82F3000BF12E0386A2849FBF7EAFC37
:104808000346002B03D1002387F82D3007E001234E
:1048180087F82D3003E0122387F82F3003E002E0F9
:10482800102387F82F3097F82F30002B00D005E0A1
:10483800BB6A0133BB62BB6A012B9FDD97F82F303F
:10484800002B22D197F82E30FF2B1BD097F82E3053
:104858001846FFF761FFB861BB69002B0ED0BB6932
:104868001B78002B06D197F82D30B8691946FFF749
:1048780019FD0AE0152387F82F3006E0112387F881
:104888002F3002E0132387F82F3097F82F3018467F
:104898003037BD4680BD00BF90010020C4EA010842
:1048A80080B483B000AF7860034B7A681A600C3725
:1048B800BD465DF8047B70473C0B002090B585B081
:1048C80000AF13460246FA710A46BA717B7100239B
:1048D800FB73BB790133DBB27A7902FB03F3BB7359
:1048E80000237B730BE07B7B184AD35CBA7B9A422C
:1048F80002D17B7BBB7305E07B7B01337B737B7BC6
:104908000F2BF0D9BB7B0F2B18D8BA7B1049134655
:10491800DB009B1ADB000B443033FA791A70BC7B3E
:1049280005F0B0FF0A4A2346DB001B1BDB001344DB
:104938002833C3E900010123FB7301E00023FB7363
:10494800FB7B18461437BD4690BD00BFDC01002034
:10495800400B002080B584B000AF0346FB710023F4
:10496800FB73FB79172B00F2E78001A252F823F0C2
:10497800D9490008E7490008F5490008054A000830
:10498800154A0008234A0008314A0008414A00082D
:10499800514A0008614A0008714A00087F4A000825
:1049A8008F4A00089D4A0008AB4A0008B94A000827
:1049B800C74A0008D74A0008E54A0008F34A000831
:1049C800034B0008114B0008214B0008314B00082D
:1049D8005F48202111F0BAFC0346FB73ADE05C4848
:1049E800102111F0B3FC0346FB73A6E059484FF4BD
:1049F800807111F0ABFC0346FB739EE055484FF401
:104A0800006111F0A3FC0346FB7396E052480821AD
:104A180011F09CFC0346FB738FE04F48102111F006
:104A280095FC0346FB7388E04C484FF4006111F095
:104A38008DFC0346FB7380E048484FF4004111F0B9
:104A480085FC0346FB7378E041484FF4807111F010
:104A58007DFC0346FB7370E03D484FF4805111F034
:104A680075FC0346FB7368E03B48402111F06EFC7F
:104A78000346FB7361E038484FF4006111F066FCAF
:104A88000346FB7359E03248082111F05FFC0346E6
:104A9800FB7352E02E48042111F058FC0346FB73C7
:104AA8004BE02B48402111F051FC0346FB7344E0D6
:104AB8002948202111F04AFC0346FB733DE02748B2
:104AC8004FF4007111F042FC0346FB7335E02248B5
:104AD800042111F03BFC0346FB732EE02048022121
:104AE80011F034FC0346FB7327E01C484FF40051D7
:104AF80011F02CFC0346FB731FE01A48022111F049
:104B080025FC0346FB7318E011484FF4806111F04F
:104B18001DFC0346FB7310E00F484FF4807111F041
:104B280015FC0346FB7308E00B484FF4806111F055
:104B38000DFC0346FB7300E000BFFB7B002B01D09C
:104B4800002300E0012318461037BD4680BD00BF92
:104B58000010024000200240001C024000140240E5
:104B6800000402400018024080B483B000AF03463E
:104B7800FB71FB79172B01D8012300E000231846AD
:104B88000C37BD465DF8047B704700BF80B483B026
:104B980000AF78607B6801221A707B6801229A76E0
:104BA80079684FF000024FF00003C1E908237B68E1
:104BB8000233064A1068186012791A717B68FF225E
:104BC8005A700C37BD465DF8047B704748EB010806
:104BD80080B582B000AF0346FB71FB791846FFF73A
:104BE800C3FF0346002B09D0FA7913469B001344F0
:104BF800DB00044A13441846FFF7C8FF0837BD46D0
:104C080080BD00BFC80E002080B584B000AF4FF44F
:104C1800F970012111F03CFA00233B720023FB726A
:104C280002237B603B1D2048194611F001FB41F22D
:104C38007C537B603B1D1D48194611F0F9FA4FF46F
:104C48002A437B603B1D1A48194611F0F1FA0223EA
:104C58007B603B1D1748194611F0EAFA40F67C5371
:104C68007B603B1D1448194611F0E2FA4FF41063BB
:104C78007B603B1D1148194611F0DAFA0023FB60EE
:104C88000CE0FA6813469B001344DB000C4A1344FB
:104C98001846FFF77BFFFB680133FB60FB68172BA7
:104CA800EFD91037BD4680BD000402400010024015
:104CB8000014024000180240001C0240002002407C
:104CC800C80E00202DE9F04190B002AF002387F80C
:104CD8003730354B354A14461D4604F130082E4608
:104CE800A446BCE80F0030607160B260F360103415
:104CF80010354445F3D12B46224612781A703023DA
:104D080087F82F3097F82F30002B03D10E2387F820
:104D1800373041E0264B1B68002B03D0244B1B681F
:104D28002148984700233B6333E022493A6B1346F6
:104D38009B001344DB000B443C461D460FCD0FC4BB
:104D48000FCD0FC495E8030084E803003B78002BDF
:104D58001CD17B783A460232009213484FF4007116
:104D6800154A12F053FE034687F82F3097F82F3074
:104D7800002B03D10E2387F837300DE00C4B1B684E
:104D8800002B03D00A4B1B68074898473B6B01333D
:104D98003B633B6B172BC8D997F837301846383721
:104DA800BD46BDE8F08100BF6CE5002050EB01086E
:104DB800C00E0020C80E002084EB010880B590B01A
:104DC80000AFF860B9607A60002387F83F300023AD
:104DD800BB62FF2387F83730FF2387F83E30FF2375
:104DE80087F8363007F11003534A92E80300186039
:104DF800043319700023BB635AE0504BBA6B53F865
:104E080022207B68DBB2F86811461A46FEF7D6FF07
:104E1800034687F8373097F93730002B39DB97F995
:104E28003730322202FB03F3BA6813443B63BB6B8F
:104E3800002B02D0012B20D026E007F12803386B85
:104E480019460A2213F002FE034687F83630BA6A7A
:104E58003B6B9A4203D10B2387F83F300CE097F85D
:104E68003630182B04D897F8363087F83E3003E0F0
:104E7800082387F83F300BE00AE007F110031846D3
:104E8800396B12F026FE03E00B2387F83F3007E06A
:104E980006E0BB6B012B00D107E0092387F83F3000
:104EA80097F83F30002B00D005E0BB6B0133BB63A4
:104EB800BB6B012BA1DD97F83F30002B36D197F85B
:104EC8003E30FF2B2FD097F83E30184600F0B6F84A
:104ED800F862FB6A002B24D0FB6A1B78012B1CD1DB
:104EE800FB6A97F83E205A70FB6A9A1C07F1100378
:104EF8001046194612F0EDFDFB6A01229A76F96A0E
:104F08004FF000024FF00003C1E90823F86A00F0EF
:104F180017F8034687F83F3008E00D2387F83F303D
:104F280004E00A2304E00C2387F83F3097F83F3069
:104F380018464037BD4680BD48EB01088401002073
:104F480080B485B000AF78600023FB737B685B7822
:104F5800BB73BB7B172B03D87B6800221A7001E058
:104F68000823FB73FB7B18461437BD465DF8047BAA
:104F7800704700BF80B58AB000AFF860B9607A604A
:104F8800002387F82730FF23FB7700233B6249E0A3
:104F9800294B3A6A53F822207B68DBB2F86811463D
:104FA8001A46FEF70BFF0346FB7797F91F30002BD5
:104FB80032DB97F91F30322202FB03F3BA6813443D
:104FC800BB613B6A002B23D100233B6107F110032F
:104FD800B86919460A2213F039FD0346FB753A6988
:104FE800BB699A4203D10B2387F827300EE0FB7D7B
:104FF8001846FFF7B9FD0346002B04D0FB7D184681
:10500800FFF7E6FD02E0082387F8273000BF06E037
:105018000B2387F8273002E0092387F827303B6AFB
:1050280001333B623B6A002BB2D097F82730184611
:105038002837BD4680BD00BF8C01002080B582B0F6
:1050480000AF0346FB71FB791846FFF78DFD034659
:10505800002B07D0FA7913469B001344DB00044A5F
:10506800134400E0002318460837BD4680BD00BF42
:10507800C80E002080B582B000AF786005F002FC51
:1050880002460B467968C1E908237B685B781846B5
:10509800FFF760FC03461A467B689A760837BD46D8
:1050A80080BD00BF80B483B000AF7860034B7A68DE
:1050B8001A600C37BD465DF8047B7047C00E0020AF
:1050C8002DE9F04188B004AF78607B6803F10208ED
:1050D8007B685B781E467B68D3E908457B689B7EC6
:1050E800184605F019FF0346CDE9004502930A4822
:1050F8000A494246334612F0BBFC0346FB73084B91
:105108001B68002B03D0064B1B68034898471037D1
:10511800BD46BDE8F08100BF6CE50020A8EB0108A2
:10512800C00E002080B400AF034B00221A70BD46A9
:105138005DF8047B704700BF8812002080B500AF7F
:105148000C4B1B78002B00D013E006F06DFE0A48CC
:1051580007F042F8094B00221A60094B00221A6036
:10516800084B00221A60084B00221A70014B0122DA
:105178001A7080BD88120020C54800088C120020D3
:1051880090120020941200209812002080B582B05E
:1051980000AF2D4B1B78042B51D801A252F823F0F5
:1051A800BD510008C351000847520008C951000802
:1051B80029520008FFF7C2FF42E000F059F83FE02B
:1051C80000233B60214B1A68214B1B689A421FD26F
:1051D800204B1B78012B05D11C4B1B685A1C1B4B01
:1051E8001A602DE000237B6009E01B4B1A687B687E
:1051F8009B0013441B683B607B6801337B607B68C2
:105208000F2BF2D9114B1B685A1C104B1A6017E070
:10521800124805F01FFA00F02BF800F0B9FB0FE078
:105228000A4B00221A600A4B00221A600A4B00221D
:105238001A60084B00221A7000F01AF800E000BF4C
:105248000837BD4680BD00BF88120020901200209C
:105258008C120020981200209412002028EC0108DB
:1052680080B500AF00F004F800F092FB80BD00BFED
:1052780080B400AF074B1B78012B04D0054B1B787B
:10528800032B00D002E0034B02221A70BD465DF8E2
:10529800047B70478812002080B487B000AFF860A4
:1052A800B9601346FB71304B1B78022B00D055E0D8
:1052B800FB68002B00D151E0FB79012B0BD1FB6877
:1052C8001B68002B00D149E0284B00221A70284B9C
:1052D80001221A701AE00023FB750AE0FB7D9B008F
:1052E800FA6813441B68002B00D005E0FB7D0133EE
:1052F800FB75FB7D0F2BF1D9FB7D0F2B00D92DE022
:105308001A4BFA7D1A701A4B10221A70194BFA6848
:105318001A600023BB75174B1A68144B1B789B0047
:1053280013441B683B610DE0124B1A68BB7D0133C7
:10533800BB75BB7D9B0013441B683B61BB7D102B79
:1053480000D10BE03B69002BEED00B4B00221A601A
:105358000A4BBA681A60044B03221A701C37BD4600
:105368005DF8047B704700BF881200209912002066
:105378009812002094120020901200208C12002015
:1053880080B400AF034B00221A70BD465DF8047B61
:10539800704700BF9A12002080B400AF0B4B1B78F7
:1053A800002B00D00EE00A4B00221A60094B0022A5
:1053B8001A60094B00221A60084B00221A70034B2E
:1053C80001221A70BD465DF8047B70479A120020CE
:1053D8009C120020A0120020A4120020A812002075
:1053E80080B582B000AF444B1B78042B7FD801A254
:1053F80052F823F01154000817540008F754000815
:105408001D540008D9540008FFF7C6FF70E000F0EB
:1054180089F86DE0394B1A68394B1B789B001344A7
:105428001B683B60374B1A68374B1B689A4203D39B
:10543800354B1B68002B42D1344B1B78012B11D103
:105448002E4B1B681B681846FFF714FE2B4B1B6876
:105458001B681846FFF734FE2A4B1B685A1C294B59
:105468001A6034E000237B6020E0244B1A687B68D4
:105478009B0013441B683B603B68002B0CBF002358
:105488000123DAB23B681B78002B14BF00230123E9
:10549800DBB21340DBB2002B05D03868FFF7EAFD1A
:1054A8003868FFF70DFE7B6801337B607B68172B3C
:1054B800DBD9144B1B685A1C124B1A6007E01448BE
:1054C80005F0C8F800F02EF800F056FA10E00FE0EA
:1054D8000C4B00221A600C4B00221A60074B00226A
:1054E8001A600A4B00221A7000F01CF800E000BF96
:1054F8000837BD4680BD00BF9A120020A4120020C4
:10550800A9120020A01200209C120020A81200203E
:1055180048EC010880B500AF00F004F800F02CFA60
:1055280080BD00BF80B400AF074B1B78012B04D0AF
:10553800054B1B78032B00D002E0034B02221A70A4
:10554800BD465DF8047B70479A12002080B489B08C
:1055580000AFF860B9601346FB713D4B1B78022B16
:1055680000D06FE0FB68002B00D16BE0394B0022C4
:105578001A60394BBA681A60FB79012B11D1FB68A4
:105588001B68002B00D15DE0FB681B681B78012BB2
:1055980000D157E0314B00221A70314B01221A70AA
:1055A80022E00023FB7712E0FB7F9B00FA6813449C
:1055B8001B68002B08D0FB7F9B00FA6813441B680C
:1055C8001B78002B00D105E0FB7F0133FB77FB7FC5
:1055D800172BE9D9FB7F172B00D933E01F4BFA7F34
:1055E8001A701F4B18221A701E4BFA681A601D4B4E
:1055F8001A681A4B1B789B0013441B68BB61BB6974
:10560800002B16D10023FB750DE0164B1A68FB7DA5
:105618000133FB75FB7D9B0013441B68BB61FB7D5D
:10562800182B00D10EE0BB69002BEED00B4BFA7D96
:105638001A70084B00221A60074BBA681A60044BAC
:1056480003221A702437BD465DF8047B704700BFFB
:105658009A120020A01200209C120020A9120020FB
:10566800A8120020A412002080B500AF074B00222A
:105678001A7001F00FFF01F019FFFFF781FEFFF725
:105688008BFEFFF74FFDFFF759FD80BDAA120020E2
:1056980080B500AF5A4B1B78052B00F2A88001A2F9
:1056A80052F823F0C5560008D9560008E7560008F6
:1056B800FD560008675700087D57000801F074FF81
:1056C800FFF78EFEFFF762FD4D4B01221A708FE047
:1056D80001F06AFFFFF784FEFFF758FD88E0494BA9
:1056E8001B78012B02D101F05FFF81E0444B0122BE
:1056F8001A707DE0444B1B78012B2CD105F0C2F8C1
:1057080002460B464149C1E90023404BD3E9000159
:105718003F4BD3E90023821A61EB03031046194675
:10572800FAF7E4FE02460B461046194632A3D3E9BF
:105738000023FBF797F90346002B00D158E03548C2
:1057480012F038F9FFF74CFE304BD3E9002330490B
:10575800C1E900234CE02A4B01221A7048E02E4B85
:105768001B78012B02D1FFF711FD41E0244B0122E8
:105778001A703DE0234B1B78012B07D0224B1B7876
:10578800012B03D0244B1B78012B2CD101F00CFFEB
:1057980005F078F802460B461C49C1E900231B4B6B
:1057A800D3E900011A4BD3E90023821A61EB030302
:1057B80010461946FAF79AFE02460B461046194655
:1057C8000DA3D3E90023FBF74DF90346002B07D0BF
:1057D800FFF706FE0D4BD3E900230D49C1E900236D
:1057E800FFF7D4FC04E0064B01221A7000E000BF6A
:1057F80080BD00BFAFF300800000000080842E4110
:10580800AA120020AB120020AC120020B81200200F
:10581800B012002068EC0108AD120020AFF3008040
:1058280080B500AF224812F0C5F8224B1B78052B33
:1058380036D801A252F823F0B3580008B35800082C
:10584800595800086B5800087D5800088F58000800
:10585800194812F0AFF801F005FF164B01221A7033
:1058680024E0164812F0A6F8FFF754FE114B012267
:105878001A701BE0124812F09DF8FFF7F1FC0D4B6F
:1058880001221A7012E00F4812F094F801F0EAFEB3
:10589800FFF740FEFFF7E4FC064B01221A7005E013
:1058A800094812F087F800BF00E000BF80BD00BFC4
:1058B8009CEC0108AA120020C4EC0108F8EC0108CD
:1058C8002CED010860ED010888ED010880B400AFF7
:1058D800044B02221A70044B01221A70BD465DF86F
:1058E800047B7047AA120020AB12002080B400AFDE
:1058F800044B03221A70044B01221A70BD465DF84E
:10590800047B7047AA120020AC12002080B400AFBC
:10591800044B04221A70044B01221A70BD465DF82C
:10592800047B7047AA120020AD12002080B400AF9B
:10593800074B05221A70074B01221A70064B0122E9
:105948001A70064B01221A70BD465DF8047B704739
:10595800AA120020AB120020AC120020AD120020C9
:1059680080B400AF034B00221A70BD465DF8047B7B
:10597800704700BFAB12002080B400AF034B002279
:105988001A70BD465DF8047B704700BFAC1200205A
:1059980080B400AF034B00221A70BD465DF8047B4B
:1059A800704700BFAD12002080B400AF034B1B78D6
:1059B8001846BD465DF8047B704700BFAB12002057
:1059C80080B400AF034B1B781846BD465DF8047BD6
:1059D800704700BFAC12002080B400AF034B1B78A7
:1059E8001846BD465DF8047B704700BFAD12002025
:1059F80080B584B000AF786039601B4B1B78DBB290
:105A0800002B00D12CE0194BFB603B68002B02DA1D
:105A1800FB680133FB607B6893F82130184607F078
:105A280053F9034606EE103AF8EEC67AB1EE047A58
:105A380087EE277ADFED0E7A27EE277A3B6807EEA6
:105A4800903AF8EEE76AFB6806EE103AF8EEC67A86
:105A5800C6EEA77A67EE277A064BC3ED007A00BF39
:105A68001037BD4680BD00BF04260020FFFF7F0021
:105A78000000C842C012002080B400AF044B1B686D
:105A880007EE903AB0EE670ABD465DF8047B7047B2
:105A9800C012002080B500AF114BD3ED007AF5EEAF
:105AA800407AF1EE10FA13D100200E4903F0B0FD50
:105AB80001200D4903F0ACFD0A4B1B881A040A4B60
:105AC8001B881A43094B1A60084B1A68044B1A6062
