:020000040800F2
:1000000000000220BD1600084D1400085914000815
:10001000C1150008C9150008D1150008000000002E
:10002000000000000000000000000000151700089C
:10003000D91500080000000015170008E515000894
:1000400015170008151700081517000815170008E0
:1000500015170008151700081517000815170008D0
:1000600015170008151700081517000815170008C0
:1000700015170008151700081517000815170008B0
:1000800015170008151700081517000815170008A0
:10009000791600081517000815170008151700082D
:1000A0001517000815170008151700081517000880
:1000B0001517000815170008151700081517000870
:1000C0001517000815170008151700081517000860
:1000D0001517000815170008151700081517000850
:1000E000F115000815170008151700081517000866
:1000F0001517000815170008151700081517000830
:100100001517000815170008151600081517000820
:10011000151700081517000815170008151700080F
:1001200015170008151700081517000815170008FF
:1001300015170008151700081517000815170008EF
:1001400015170008151700081517000815170008DF
:1001500015170008151700081517000815170008CF
:1001600015170008151700081517000815170008BF
:1001700015170008151700081517000815170008AF
:0801800015170008151700080F
:1001880010B5054C237833B9044B13B10448AFF3C9
:1001980000800123237010BD3809002000000000F2
:1001A800A4D7010808B5064B1BB106480649AFF3AA
:1001B80000800648036813B1054B03B1984708BD92
:1001C80000000000A4D701083C09002034090020E1
:1001D8000000000010F8012B11F8013B012A28BF8C
:1001E8009A42F7D0D01A704781F0004102E000BF70
:1001F80083F0004330B54FEA41044FEA430594EADF
:10020800050F08BF90EA020F1FBF54EA000C55EA19
:10021800020C7FEA645C7FEA655C00F0E2804FEAEA
:100228005454D4EB5555B8BF6D420CDD2C4480EACC
:10023800020281EA030382EA000083EA010180EAFC
:10024800020281EA0303362D88BF30BD11F0004F4A
:100258004FEA01314FF4801C4CEA113102D0404280
:1002680061EB410113F0004F4FEA03334CEA1333BB
:1002780002D0524263EB430394EA050F00F0A780D3
:10028800A4F10104D5F1200E0DDB02FA0EFC22FACE
:1002980005F2801841F1000103FA0EF2801843FAC2
:1002A80005F359410EE0A5F120050EF1200E012AB3
:1002B80003FA0EFC28BF4CF0020C43FA05F3C018F1
:1002C80051EBE37101F0004507D54FF0000EDCF16A
:1002D800000C7EEB00006EEB0101B1F5801F1BD313
:1002E800B1F5001F0CD349085FEA30004FEA3C0C17
:1002F80004F101044FEA445212F5800F80F09A800D
:10030800BCF1004F08BF5FEA500C50F1000041EB10
:10031800045141EA050130BD5FEA4C0C404141EB14
:10032800010111F4801FA4F10104E9D191F0000F3B
:1003380004BF01460020B1FA81F308BF2033A3F1BE
:100348000B03B3F120020CDA0C3208DD02F1140CB5
:10035800C2F10C0201FA0CF021FA02F10CE002F1F0
:100368001402D8BFC2F1200C01FA02F120FA0CFCE9
:10037800DCBF41EA0C019040E41AA2BF01EB045132
:10038800294330BD6FEA04041F3C1CDA0C340EDC30
:1003980004F11404C4F1200220FA04F001FA02F373
:1003A80040EA030021FA04F345EA030130BDC4F131
:1003B8000C04C4F1200220FA02F001FA04F340EA26
:1003C8000300294630BD21FA04F0294630BD94F0D7
:1003D800000F83F4801306BF81F480110134013DBE
:1003E8004EE77FEA645C18BF7FEA655C29D094EA2F
:1003F800050F08BF90EA020F05D054EA000C04BFAD
:100408001946104630BD91EA030F1EBF0021002097
:1004180030BD5FEA545C05D14000494128BF41F036
:10042800004130BD14F580043CBF01F5801130BD9A
:1004380001F0004545F0FE4141F470014FF0000025
:1004480030BD7FEA645C1ABF194610467FEA655CD6
:100458001CBF0B46024650EA013406BF52EA033578
:1004680091EA030F41F4002130BD00BF90F0000F66
:1004780004BF0021704730B54FF4806404F13204A2
:100488004FF000054FF0000150E700BF90F0000F5B
:1004980004BF0021704730B54FF4806404F1320482
:1004A80010F0004548BF40424FF000013EE700BF52
:1004B80042004FEAE2014FEA31014FEA02701FBFE2
:1004C80012F07F4393F07F4F81F06051704792F0B4
:1004D800000F14BF93F07F4F704730B54FF460742E
:1004E80001F0004521F0004120E700BF50EA010279
:1004F80008BF704730B54FF000050AE050EA010226
:1005080008BF704730B511F0004502D5404261EB95
:1005180041014FF4806404F132045FEA915C3FF4D6
:10052800DCAE4FF003025FEADC0C18BF03325FEA6F
:10053800DC0C18BF033202EBDC02C2F1200300FA24
:1005480003FC20FA02F001FA03FE40EA0E0021FA49
:1005580002F11444C1E600BF70B54FF0FF0C4CF433
:10056800E06C1CEA11541DBF1CEA135594EA0C0FE9
:1005780095EA0C0F00F0DEF82C4481EA030621EA24
:100588004C5123EA4C5350EA013518BF52EA03355F
:1005980041F4801143F4801338D0A0FB02CE4FF011
:1005A8000005E1FB02E506F00042E0FB03E54FF041
:1005B8000006E1FB03569CF0000F18BF4EF0010E39
:1005C800A4F1FF04B6F5007F64F5407404D25FEA35
:1005D8004E0E6D4146EB060642EAC62141EA5551E8
:1005E8004FEAC52040EA5E504FEACE2EB4F1FD0C2A
:1005F80088BFBCF5E06F1ED8BEF1004F08BF5FEAA8
:10060800500E50F1000041EB045170BD06F0004659
:1006180046EA010140EA020081EA0301B4EB5C0406
:10062800C2BFD4EB0C0541EA045170BD41F48011FE
:100638004FF0000E013C00F3AB8014F1360FDEBF23
:10064800002001F0004170BDC4F10004203C35DAFF
:100658000C341BDC04F11404C4F1200500FA05F382
:1006680020FA04F001FA05F240EA020001F0004223
:1006780021F0004110EBD37021FA04F642EB060199
:100688005EEA430E08BF20EAD37070BDC4F10C04C3
:10069800C4F1200500FA04F320FA05F001FA04F287
:1006A80040EA020001F0004110EBD37041F1000173
:1006B8005EEA430E08BF20EAD37070BDC4F120057E
:1006C80000FA05F24EEA020E20FA04F301FA05F2E6
:1006D80043EA020321FA04F001F0004121FA04F28E
:1006E80020EA020000EBD3705EEA430E08BF20EA5E
:1006F800D37070BD94F0000F0FD101F00046400098
:1007080041EB010111F4801F08BF013CF7D041EA19
:10071800060195F0000F18BF704703F0004652001D
:1007280043EB030313F4801F08BF013DF7D043EAEE
:100738000603704794EA0C0F0CEA135518BF95EAA4
:100748000C0F0CD050EA410618BF52EA4306D1D12B
:1007580081EA030101F000414FF0000070BD50EA4A
:10076800410606BF1046194652EA430619D094EAD4
:100778000C0F02D150EA013613D195EA0C0F05D1BE
:1007880052EA03361CBF104619460AD181EA030112
:1007980001F0004141F0FE4141F470014FF00000CA
:1007A80070BD41F0FE4141F4780170BD70B54FF065
:1007B800FF0C4CF4E06C1CEA11541DBF1CEA1355E5
:1007C80094EA0C0F95EA0C0F00F0A7F8A4EB0504C7
:1007D80081EA030E52EA03354FEA013100F08880BE
:1007E8004FEA03334FF0805545EA131343EA126387
:1007F8004FEA022245EA111545EA10654FEA00263C
:100808000EF000419D4208BF964244F1FD0404F5F4
:10081800407402D25B084FEA3202B61A65EB030550
:100828005B084FEA32024FF480104FF4002CB6EB0D
:10083800020E75EB030E22BFB61A754640EA0C008D
:100848005B084FEA3202B6EB020E75EB030E22BFCD
:10085800B61A754640EA5C005B084FEA3202B6EB0E
:10086800020E75EB030E22BFB61A754640EA9C00CD
:100878005B084FEA3202B6EB020E75EB030E22BF9D
:10088800B61A754640EADC0055EA060E18D04FEA5B
:10089800051545EA16754FEA06164FEAC30343EAFB
:1008A80052734FEAC2025FEA1C1CC0D111F4801FC8
:1008B8000BD141EA00014FF000004FF0004CB6E7C1
:1008C80011F4801F04BF01430020B4F1FD0C88BF60
:1008D800BCF5E06F3FF6AFAEB5EB030C04BFB6EB6B
:1008E800020C5FEA500C50F1000041EB045170BD5E
:1008F8000EF0004E4EEA113114EB5C04C2BFD4EB8B
:100908000C0541EA045170BD41F480114FF0000E0E
:10091800013C90E645EA060E8DE60CEA135594EA8A
:100928000C0F08BF95EA0C0F3FF43BAF94EA0C0F8D
:100938000AD150EA01347FF434AF95EA0C0F7FF402
:1009480025AF104619462CE795EA0C0F06D152EA56
:1009580003353FF4FDAE1046194622E750EA41063A
:1009680018BF52EA43067FF4C5AE50EA41047FF44B
:100978000DAF52EA43057FF4EBAE12E74FF0FF3CB0
:1009880006E000BF4FF0010C02E000BF4FF0010C81
:100998004DF804CD4FEA410C7FEA6C5C4FEA430CFA
:1009A80018BF7FEA6C5C1BD001B050EA410C0CBF49
:1009B80052EA430C91EA030F02BF90EA020F0020AB
:1009C800704710F1000F91EA030F58BF994208BF12
:1009D80090422CBFD8176FEAE37040F001007047CF
:1009E8004FEA410C7FEA6C5C02D150EA013C07D126
:1009F8004FEA430C7FEA6C5CD6D152EA033CD3D071
:100A08005DF8040B704700BF8446104662468C466A
:100A18001946634600E000BF01B5FFF7B7FF00289D
:100A280048BF10F1000F01BD4DF808EDFFF7F4FFC6
:100A38000CBF012000205DF808FB00BF4DF808ED51
:100A4800FFF7EAFF34BF012000205DF808FB00BF74
:100A58004DF808EDFFF7E0FF94BF012000205DF896
:100A680008FB00BF4DF808EDFFF7CEFF94BF01204B
:100A780000205DF808FB00BF4DF808EDFFF7C4FF44
:100A880034BF012000205DF808FB00BF4FEA410297
:100A980012F5001215D211D56FF47873B3EB6252C8
:100AA80012D94FEAC12343F0004343EA505311F0EF
:100AB800004F23FA02F018BF404270474FF0000081
:100AC800704750EA013005D111F0004008BF6FF0BF
:100AD800004070474FF00000704700BF4A0011D235
:100AE80012F5001211D20DD56FF47873B3EB625280
:100AF8000ED44FEAC12343F0004343EA505323FA8C
:100B080002F070474FF00000704750EA013002D100
:100B18004FF0FF3070474FF0000070474FEA410236
:100B2800B2F1E04324BFB3F5001CDCF1FE5C0DD943
:100B380001F0004C4FEAC0024CEA5070B2F1004F8D
:100B480040EB830008BF20F00100704711F0804F90
:100B580021D113F13872BCBF01F00040704741F455
:100B680080114FEA5252C2F11802C2F1200C10FA59
:100B78000CF320FA02F018BF40F001004FEAC1233D
:100B88004FEAD32303FA0CFC40EA0C0023FA02F3E1
:100B98004FEA4303CCE77FEA625307D150EA0133B7
:100BA8001EBF4FF0FE4040F44000704701F0004087
:100BB80040F0FE4040F40000704700BF4BB942B916
:100BC800002908BF002802D04FF0FF31084600F086
:100BD8005FB882B0EC462DE9005000F041F8DDF82E
:100BE80004E002B00CBC704770B5FFF761FC00224E
:100BF8000D4B04460D46FFF7AFFCFFF76FFF0646A7
:100C0800FFF734FC0022094BFFF7A6FC02460B460F
:100C180020462946FFF7ECFAFFF760FF002242EA78
:100C280000042046314670BD0000F03D0000F04150
:100C38002DE97043069E14461D468046894600F0FD
:100C480029F804FB01F300FB0533A4FB00451D4410
:100C5800B8EB040469EB0505C6E90045BDE87083F7
:100C68002DE97043069E1446804689461D4600F0CD
:100C78005DF900FB05F504FB0153A0FB04451D4489
:100C8800B8EB040469EB0505C6E90045BDE87083C7
:100C9800704700BF00292DE9F00FC0F29F800024A3
:100CA800002BC0F29680154606460F46002B3ED113
:100CB8008A4257D9B2FA82F34BB1C3F1200201FA42
:100CC80003F720FA02F29D40174300FA03F6290CB5
:100CD800B7FBF1F2330C01FB127CA8B243EA0C47D4
:100CE80000FB02F3BB4209D97F1902F1FF3C80F0F7
:100CF8000181BB4240F2FE80023A2F44FF1AB7FB43
:100D0800F1F3B6B201FB137146EA014100FB03F0AF
:100D1800884208D9491903F1FF3780F0ED808842ED
:100D280040F2EA80023B43EA0242002303E08B429E
:100D38000AD900231A461046194614B1404261EBFD
:100D48004101BDE8F00F7047B3FA83F8B8F1000F1E
:100D580040F084808B4202D3824200F2DE8000237E
:100D68000122E8E712B90123B3FBF2F5B5FA85F2DF
:100D7800002A39D17F1B280C1FFA85FC0123B7FBF9
:100D8800F0F1320C00FB117742EA07470CFB01F245
:100D9800BA4207D97F1901F1FF3802D2BA4200F2EC
:100DA800C1804146BF1AB7FBF0F2B6B200FB127021
:100DB80046EA00400CFB02FC844507D9401902F1C1
:100DC800FF3702D2844500F2AB803A4642EA01423C
:100DD800B1E7E443524263EB430364E7404261EB0B
:100DE80041014FF0FF345BE79540C2F1200327FA39
:100DF80003F1280C26FA03F39740B1FBF0F81F43E0
:100E08003B0C00FB18111FFA85FC43EA01410CFB5F
:100E180008F38B4206FA02F608D9491908F1FF329D
:100E280079D28B4277D9A8F102082944C91AB1FBB3
:100E3800F0F3BFB200FB131147EA01470CFB03F2C2
:100E4800BA4207D97F1903F1FF3160D2BA425ED99D
:100E5800023B2F44BF1A43EA084390E7C8F1200237
:100E680003FA08FC25FA02F343EA0C0C4FEA1C4982
:100E780021FA02F301FA08F720FA02F2B3FBF9F1BA
:100E8800174309FB11333A0C1FFA8CFB42EA034360
:100E98000BFB01FA9A4505FA08F008D913EB0C0385
:100EA80001F1FF3235D29A4533D902396344CAEB8E
:100EB8000303B3FBF9F209FB1233BFB247EA034756
:100EC8000BFB02F9B94508D917EB0C0702F1FF3300
:100ED8001BD2B94519D9023A674442EA0145A5FB34
:100EE8000001C9EB07078F424FF000030AD305D072
:100EF8002A4620E7624601E73B4614E706FA08F669
:100F08008642F5D26A1E002315E71A46E5E70B4626
:100F1800A0E71146CBE7904688E7434642460AE7F2
:100F2800023A53E702392F443CE700BF2DE9F00F9E
:100F3800144605460E46002B43D18A4253D9B2FACD
:100F480082F757B1C7F1200620FA06F601FA07F32F
:100F580002FA07F41E4300FA07F5210CB6FBF1F27A
:100F68002B0C01FB1267A0B243EA074600FB02F311
:100F7800B34209D9361902F1FF3780F0F680B3423F
:100F880040F2F380023A2644F61AB6FBF1F3ADB20A
:100F980001FB136145EA014100FB03F0884208D9CF
:100FA800091903F1FF3680F0E280884240F2DF80C1
:100FB800023B43EA0242002310461946BDE8F00FFF
:100FC80070478B424AD8B3FA83F6002E4DD18B4234
:100FD80002D3824200F2D68000230122104619462D
:100FE800BDE8F00F704712B90124B4FBF2F4B4FA6B
:100FF80084F2002A7CD1091B260CA7B20123B1FB7D
:10100800F6F02A0C06FB101142EA014107FB00F238
:101018008A4207D9091900F1FF3C02D28A4200F23C
:10102800C3806046891AB1FBF6F2ADB206FB121115
:1010380045EA014507FB02F7AF4208D92C1902F12E
:10104800FF3180F09680A74240F29380023A42EA4C
:10105800004210461946BDE8F00F704700231A46B3
:1010680010461946BDE8F00F7047C6F1200522FA70
:1010780005F4B3401C434FEA144821FA05F301FA7A
:1010880006F720FA05F5B3FBF8FC2F4308FB1C33E1
:101098003D0C1FFA84FA45EA03430AFB0CF999450B
:1010A80002FA06FB04D91B190CF1FF326DD39446E2
:1010B800C9EB0303B3FBF8F508FB1533BFB247EAE6
:1010C80003470AFB05F8B84504D93F1905F1FF3372
:1010D80061D31D4645EA0C4CACFB0B23C8EB070754
:1010E8009F424FF0000549D345D062462B4663E73F
:1010F8009440C2F1200321FA03FC260C20FA03F3E2
:1011080001FA02F5BCFBF6F843EA05010B0C06FBF5
:1011180018CCA7B243EA0C4C07FB08F3634500FA66
:1011280002F509D91CEB040C08F1FF323AD26345E9
:1011380038D9A8F10208A444C3EB0C0CBCFBF6F3A5
:1011480089B206FB13CC41EA0C4107FB03F28A4241
:1011580007D9091903F1FF3022D28A4220D9023B6C
:101168002144891A43EA084349E73A460CE73346DB
:101178001FE70A466BE7B0409042B6D20CF1FF3247
:10118800002319E73346324616E799458FD9ACF163
:10119800020C23448CE7B8459BD9023D274499E7C4
:1011A8000346DEE79046C7E7023821443AE700BF26
:1011B80080B500AF154B154AD2F8882042F470026A
:1011C800C3F88820124B124A126842F001021A60D2
:1011D8000F4B00229A600E4A0D4B1B6823F0847354
:1011E80023F4803313600A4B0A4A5A60084B084AB2
:1011F800126822F480221A60054B0022DA6000F09F
:101208000BF8024B4FF000629A6080BD00ED00E0E1
:10121800003802401030002480B483B000AF0023AF
:101228007B6000233B60354B344A126842F48032BD
:101238001A60324B1B6803F400333B607B68013350
:101248007B603B68002B03D17B68B3F5A04FF0D1DE
:101258002A4B1B6803F40033002B02D001233B60A8
:1012680001E000233B603B68012B42D1234B234A1A
:10127800126C42F080521A64214B214A126842F4DF
:1012880040421A601D4B1D4A92689A601B4B1B4ACC
:10129800926842F400429A60184B184A926842F4E5
:1012A800A0529A60154B174A5A60144B134A126899
:1012B80042F080721A6000BF104B1B6803F0007385
:1012C800002BF9D0104B40F205721A600B4B0B4AF9
:1012D800926822F003029A60084B084A926842F02A
:1012E80002029A6000BF054B9B6803F00C03082BB1
:1012F800F9D10C37BD465DF8047B704700380240D1
:101308000070004019544007003C024080B586B088
:1013180000AFF860B9607A6000237B6100237B61CD
:1013280012E07B69BA6813441B780C48194614F01C
:1013380039F900BF0948402114F046F90346002B4B
:10134800F8D07B6901337B617A697B689A42E8DB74
:101358007B6818461837BD4680BD00BF004800406E
:1013680080B485B000AF7860114B1B68002B02D1A8
:101378000F4B104A1A600E4B1B68FB600C4B1A6827
:101388007B681A446B469A4205D90B4B0C221A60AB
:101398004FF0FF3306E0064B1A687B681A44044B8B
:1013A8001A60FB6818461437BD465DF8047B704721
:1013B80054090020A4660120A066012080B483B0EF
:1013C80000AF78604FF0FF3318460C37BD465DF824
:1013D800047B704780B483B000AF786039603B68A5
:1013E8004FF400525A60002318460C37BD465DF88A
:1013F800047B704780B483B000AF7860012318463F
:101408000C37BD465DF8047B704700BF80B485B0DB
:1014180000AFF860B9607A60002318461437BD46FB
:101428005DF8047B704700BF80B485B000AFF860FA
:10143800B9607A60002318461437BD465DF8047B0E
:10144800704700BF80B400AFBD465DF8047B7047AD
:1014580080B58AB000AF404B7B621EF0040F0CBF12
:10146800EFF30880EFF309807B6A1B683B627B6AB5
:101478005B68FB617B6A9B68BB617B6ADB687B613D
:101488007B6A1B693B617B6A5B69FB607B6A9B6962
:10149800BB607B6ADB697B60304815F071FF3B6A93
:1014A8002F48194615F00EFFFB692E48194615F00E
:1014B80009FFBB692C48194615F004FF7B692B48C6
:1014C800194615F0FFFE3B692948194615F0FAFE42
:1014D800FB682848194615F0F5FEBB6826481946EA
:1014E80015F0F0FE7B682548194615F0EBFE244BF5
:1014F8001B682448194615F0E5FE234B1B68234852
:10150800194615F0DFFE224B1B682248194615F0D4
:10151800D9FE214BDB6A2148194615F0D3FE204B32
:101528001B682048194615F0CDFE1F4B1B681F4845
:10153800194615F0C7FE184BDB6A03F08043002BF1
:1015480008D01B4815F01CFF134B9B6A1948194615
:1015580015F0B8FE00BEFDE700040020C0D7010862
:10156800D8D70108E4D70108F0D70108FCD701084B
:1015780008D8010814D8010820D801082CD8010877
:1015880038ED00E038D8010828ED00E044D801081B
:101598002CED00E050D8010800ED00E05CD801080F
:1015A80030ED00E074D801083CED00E080D8010877
:1015B8008CD80108A0D8010880B400AFFEE700BFAE
:1015C80080B400AFFEE700BF80B400AFFEE700BF05
:1015D80080B400AFBD465DF8047B704780B500AFAE
:1015E80009F0EEFC80BD00BF80B500AF4FF480402D
:1015F80014F050FE0346002B06D0012006F0DAFE58
:101608004FF4804014F060FE80BD00BF98B500AF75
:101618001348102114F000F80346002B1ED0114B7C
:101628001B681C46621C0F4B1A600D4813F0E8FF3C
:1016380003469AB20C4B23F814200948102114F0E1
:1016480015F8084B1B68012B08D9074B5A88064B1D
:101658001B88D31A9BB21A46044B1A6098BD00BF68
:10166800000C00400C2600205809002010260020FD
:1016780080B500AF0C4800210C4A14F033FE0B4B28
:101688001A6840F221339A420DD1084B1B7A002B7D
:1016980009D1064B9B7A012B05D1044BDB7A044810
:1016A800194615F00FFE80BD0064004078540020F4
:1016B800B8D80108DFF83CD0002100F004B80E4B80
:1016C8005B58435004310D480D4B42189A42FFF4C1
:1016D800F6AF0C4A00F003B8002342F8043B0A4B6B
:1016E8009A42FFF4F9AFFFF763FD15F0A5FD00F08E
:1016F80023F8704700000220B41F020800000020F1
:101708003409002038090020A4660120FFF7FEBF35
:1017180080B400AFBFF34F8F054A054BDB6803F475
:10172800E061044B0B43D360BFF34F8FFEE700BF6C
:1017380000ED00E00400FA0580B500AF4FF44070FA
:1017480014F088FE09F06EFF224815F0BBFD4FF03B
:101758008050012114F09EF9012014F03DFA132065
:1017680014F0B8F8034603F00203002B03D11A481B
:1017780015F0A8FD01E014F071F87D2014F0E4F9EB
:101788000346002B02D014F019FA0EE07C2014F066
:10179800DBF90346002B08D17B2014F0D5F903466A
:1017A800002B02D17A2014F0CFF914F007FA00F0D8
:1017B80067F800F03FF808F02DFE0346002B04D12F
:1017C80002F0C4FC00F00AF801E0FFF7A1FF0023D3
:1017D800184680BDD4D80108F4D8010880B500AFF8
:1017E80004F09AFA07F07EFB0346002B01D007F0BD
:1017F800D9FD09F0F7FB02460B461046194607F0DB
:10180800D9FD08F097FE0346012B0ED108F054FFCE
:1018180003461A46064B1A70054B1B78002B04D05A
:10182800034B1B78184602F0B5FC14F0E5F9D7E72E
:101838008C54002080B582B000AF09F0CBFC0023A7
:101848007B6001231B067A6813437B6001231B041A
:101858007A6813437B6001231B027A6813437B6019
:1018680001237A6813437B60786809F04DFD0348CB
:1018780009F00CFD0837BD4680BD00BFE43D0120DE
:1018880080B584B000AF09F0F3FD09F0D3FD04F092
:101898002FFA04F0B7FC03F009FC02F071FF1948B5
:1018A80005F0FCF8174803F08FFE164803F052FACB
:1018B8000AF036F80023FB71134BFB600023BB6072
:1018C80015E0FA68114B9A4203D9114815F0FAFC51
:1018D80010E0FB681B78FB710E4ABB681344FA7969
:1018E8001A70FB680133FB60BB680133BB60BB68DF
:1018F8001F2BE6DD074B002283F820201037BD465A
:1019080080BD00BF75A7000800000E081F000E0864
:101918001CD90108E43D012080B483B000AF034620
:10192800FB71FA79044B53F8223018460C37BD4640
:101938005DF8047B704700BF0000002080B483B0CE
:1019480000AF0346FB71FA79044B53F8223018466E
:101958000C37BD465DF8047B704700BF24000020AB
:1019680080B400AFBFF34F8F054A054BDB6803F423
:10197800E061044B0B43D360BFF34F8FFEE700BF1A
:1019880000ED00E00400FA0580B5F2B000AF07F101
:101998000C03186007F108031960FB1D1A701F4833
:1019A80015F090FC07F10C03186800F0BFFD07F173
:1019B8000C03186800F002F9034687F8C6310023C3
:1019C80087F8C73107F1080007F1EC0107F11402A5
:1019D800FB1D1B78006800F0C5F9034687F8C53180
:1019E80097F8C531012B0DD197F8C60107F1EC0125
:1019F80007F11402FB1D1B7800F0CCFD034687F8A5
:101A0800C73102E0032387F8C73197F8C731184672
:101A180000F00CF907F5E477BD4680BDD0E0010879
:101A280080B5C6B000AF5D485D4915F04BFC00239A
:101A380087F813315A485B4915F059FDC7F8140166
:101A48000DE097F81331013387F81331D7F81431C3
:101A580001331846534915F04AFDC7F81401D7F861
:101A68001431002BEDD197F813314F48194615F072
:101A780029FC97F81331002B68D04948494915F0DB
:101A8800F2FC0346C7F80431D7F80431242B05D1FA
:101A9800464815F017FC02F05FFB7BE040484149DF
:101AA80016F0ACFBC7F814013B1D1846D7F8141103
:101AB80015F0D1FC0023C7F80C311DE0002039498E
:101AC80016F09CFBC7F81401D7F81431002B00D18D
:101AD80018E0D7F80C211346DB0013449B0007F1EC
:101AE800280213441846D7F8141115F0B4FCD7F897
:101AF8000C310133C7F80C3197F81321D7F80C31A2
:101B08009A42DBDC3B1D2A48194615F0DBFB002313
:101B1800C7F8083113E007F12801D7F80821134660
:101B2800DB0013449B000B442248D7F808111A46DF
:101B380015F0C8FBD7F808310133C7F8083197F812
:101B48001321D7F808319A42E5DC19E0144815F05A
:101B58009AFC0346C7F80031D7F80031232B05D982
:101B6800124815F0AFFB02F0F7FA13E03B1D1846D8
:101B78000B4915F070FC3B1D0F48194615F0A2FBE8
:101B8800391D07F1280297F81331084611461A46FD
:101B9800FFF7FAFE07F58C77BD4680BDFCE001082B
:101BA8005C090020801B020814E1010838E10108E3
:101BB80070E10108A0E10108B0E1010880B584B036
:101BC80000AF7860154815F07DFB0023FB730EE02D
:101BD800FA7B134B53F8223078681946FEF7FAFA65
:101BE8000346002B00D105E0FB7B0133FB73FB7B35
:101BF8002A2BEDD9FB7B2A2B08D8FA7B084B53F804
:101C080022300848194615F05DFB02E0064815F039
:101C180059FBFB7B18461037BD4680BDD4E101084F
:101C28009000002000E2010838E2010880B584B085
:101C380000AF0346FB71FB791846FFF76DFEF860AD
:101C4800FB79082B5ED801A252F823F0791C000812
:101C5800891C0008991C0008A91C0008B91C000868
:101C6800DD1C0008ED1C0008FD1C0008CD1C000848
:101C78002B484FF400712B4AFB6815F089FB49E0AB
:101C880027484FF40071284AFB6815F081FB41E0B2
:101C980023484FF40071254AFB6815F079FB39E0B9
:101CA8001F484FF40071214AFB6815F071FB31E0C1
:101CB8001B484FF400711E4AFB6815F069FB00F0E1
:101CC8003BF827E016484FF40071184AFB6815F0F6
:101CD8005FFB1FE012484FF40071144AFB6815F0CF
:101CE80057FB17E00E484FF40071104AFB6815F0D7
:101CF8004FFB0FE00A484FF400710C4AFB6815F0DF
:101D080047FB07E006484FF400710A4AFB6815F0E4
:101D18003FFB00BF024809F04DF81037BD4680BDB3
:101D2800E43B012070E2010880E201088CE201082E
:101D380098E20108A8E2010880B500AF064B1B78BD
:101D48001846FFF7FBFD034604484FF40071044AA8
:101D580015F01EFB80BD00BF600B0020E43B012096
:101D6800B4E2010880B590B000AFF860B9607A605D
:101D7800FB70012387F83F300023BB6359E0BA6B3F
:101D88001346DB0013449B00FA6813447B63786BAB
:101D98002D49022215F094FB0346002B3DD17B6BA5
:101DA800023307F110021046194615F054FB07F1EB
:101DB80010031846254916F021FA7863786B00F06D
:101DC800B5FBBA6B1346DB0013449B00BA68134497
:101DD8001846796B15F03FFB00201C4916F00EFAE7
:101DE80078637B6B002B0ED0786B00F09FFBBA6B8F
:101DF8001346DB0013449B007A6813441846796B3A
:101E080015F029FB12E0BA6B1346DB0013449B0064
:101E18007A68134400221A7008E00D48B96B7A6B8F
:101E280015F050FA002387F83F3006E0BB6B01330A
:101E3800BB63FA78BB6B9A42A1DC97F83F3018462F
:101E48004037BD4680BD00BFC8E20108CCE20108AA
:101E5800D0E2010880B588B000AFF860B960FA71C7
:101E6800BB71FA79BB799A4201D9002334E0002387
:101E7800FB610023FB7600237B6128E00023FB61E4
:101E88000023FB7617E07A691346DB0013449B00B6
:101E9800FA681A44FB69591CF9619B00B96A0B443A
:101EA8001B6810461946FEF795F90346002B02D128
:101EB8000123FB7603E0BA79FB699A42E3DCFB7EF7
:101EC800002B01D1002307E07B6901337B61FA799C
:101ED8007B699A42D2DC012318462037BD4680BD73
:101EE80080B582B000AF786078680F49FEF772F964
:101EF8000346002B01D1032312E078682C2115F04A
:101F08009DFA0346002B01D0022309E078682D21B1
:101F180015F094FA0346002B01D0012300E00023BA
:101F280018460837BD4680BD1CE3010880B58CB053
:101F380000AF03463960FB71002387F82F30002378
:101F4800BB60FF23FB7500233B610023BB620023BA
:101F580087F82730002387F826300023FB730023F7
:101F6800BB7300233B6207E0684B3A6A002143F8E1
:101F780022103B6A01333B623B6A242BF4D9FB797C
:101F8800032B00F2BC8001A252F823F0A51F000821
:101F980037200008D91F0008D5200008386800211C
:101FA8000A2216F017FA0346FB7597F91730002B2B
:101FB80002DBFB7D252B03D9554815F083F9A2E0F8
:101FC800FB7D184604F09EFC0246504B1A609AE0CE
:101FD8003B68002B2AD03B68BB62BB681B782C2B64
:101FE80002D1BB680133BB6207F10803B86A19461E
:101FF8000A2216F0EFF938613B69242B11D83B69A6
:10200800002B0EDB3B69DBB2184604F07BFC014673
:102018003E4B3A6943F8221097F82F30013387F87E
:102028002F30BB68002B00D100E0D6E76BE000231F
:1020380087F82730002387F8263007F10803386827
:1020480019460A2216F0C6F90346FB73BB6801332A
:10205800184600210A2216F0BDF90346BB73FB7B24
:10206800002B03D0FB7B87F8273002E0002387F89A
:102078002730BB7B002B03D0BB7B87F8263002E0E0
:10208800252387F8263097F8262097F82730D31A83
:10209800DBB2013387F82F300023FB6110E0FB69C6
:1020A800DAB297F827301344DBB2184604F02AFC5A
:1020B8000146164BFA6943F82210FB690133FB61AC
:1020C80097F82F20FB699A42E9DC1CE0252387F862
:1020D8002F300023BB610CE0BB69DBB2184604F06B
:1020E80011FC0146094BBA6943F82210BB69013358
:1020F800BB6197F82F20BB699A42EDDC03E00548E5
:1021080015F0E0F800BF3037BD4680BDF854002018
:1021180020E3010864E3010880B58CB000AF0346F2
:102128003960FB71002387F82F300023BB60FF2341
:10213800FB7500233B610023BB62002387F827302F
:10214800002387F826300023FB730023BB7300238A
:102158003B6207E0684B3A6A002143F822103B6A69
:1021680001333B623B6A172BF4D9FB79032B00F24E
:10217800BC8001A252F823F0912100082322000814
:10218800C5210008C1220008386800210A2216F07B
:1021980021F90346FB7597F91730002B02DBFB7D0D
:1021A800182B03D9554815F08DF8A2E0FB7D184689
:1021B80003F0D2F90246504B1A609AE03B68002BB4
:1021C8002AD03B68BB62BB681B782C2B02D1BB684A
:1021D8000133BB6207F10803B86A19460A2216F0F0
:1021E800F9F838613B69172B11D83B69002B0EDBD6
:1021F8003B69DBB2184603F0AFF901463E4B3A693A
:1022080043F8221097F82F30013387F82F30BB6836
:10221800002B00D100E0D6E76BE0002387F82730D9
:10222800002387F8263007F10803386819460A2280
:1022380016F0D0F80346FB73BB680133184600213B
:102248000A2216F0C7F80346BB73FB7B002B03D0AA
:10225800FB7B87F8273002E0002387F82730BB7B19
:10226800002B03D0BB7B87F8263002E0182387F8C1
:10227800263097F8262097F82730D31ADBB2013397
:1022880087F82F300023FB6110E0FB69DAB297F87A
:1022980027301344DBB2184603F05EF90146164BAB
:1022A800FA6943F82210FB690133FB6197F82F2084
:1022B800FB699A42E9DC1CE0182387F82F300023D9
:1022C800BB610CE0BB69DBB2184603F045F9014677
:1022D800094BBA6943F82210BB690133BB6197F80F
:1022E8002F20BB699A42EDDC03E0054814F0EAFFB1
:1022F80000BF3037BD4680BD9854002020E3010858
:1023080064E3010880B58CB000AF03463960FB7107
:10231800002387F82F300023BB60FF23FB750023C1
:102328003B610023BB62002387F82730002387F82E
:1023380026300023FB730023BB7300233B6207E0B6
:10234800684B3A6A002143F822103B6A01333B622A
:102358003B6A0F2BF4D9FB79032B00F2BC8001A256
:1023680052F823F07D2300080F240008B123000849
:10237800AD240008386800210A2216F02BF803461D
:10238800FB7597F91730002B02DBFB7D102B03D967
:10239800554814F097FFA1E0FB7D184602F0FEFBBC
:1023A8000246504B1A6099E03B68002B2AD03B68E4
:1023B800BB62BB681B782C2B02D1BB680133BB62A4
:1023C80007F10803B86A19460A2216F003F83861BB
:1023D8003B690F2B11D83B69002B0EDB3B69DBB245
:1023E800184602F0DBFB01463E4B3A6943F82210DF
:1023F80097F82F30013387F82F30BB68002B00D1B6
:1024080000E0D6E76AE0002387F82730002387F842
:10241800263007F10803386819460A2215F0DAFF52
:102428000346FB73BB680133184600210A2215F0E6
:10243800D1FF0346BB73FB7B002B03D0FB7B87F8E4
:10244800273002E0002387F82730BB7B002B03D01E
:10245800BB7B87F8263002E0102387F8263097F8F0
:10246800262097F82730D31ADBB2013387F82F30AC
:102478000023FB6110E0FB69DAB297F827301344B8
:10248800DBB2184602F08AFB0146164BFA6943F89C
:102498002210FB690133FB6197F82F20FB699A42F0
:1024A800E9DC1BE0102387F82F300023BB610CE028
:1024B800BB69DBB2184602F071FB0146094BBA69E9
:1024C80043F82210BB690133BB6197F82F20BB6921
:1024D8009A42EDDC02E0054814F0F4FE3037BD46C0
:1024E80080BD00BF8C55002020E3010864E301088B
:1024F80080B483B000AF0346FB71FB795F2B0BD030
:10250800FB79402B02D9FB795A2B05D9FB79602B33
:1025180004D9FB797A2B01D8012300E0002318465F
:102528000C37BD465DF8047B704700BF80B584B0AA
:1025380000AF78600023FB6023E0FB687A681344EF
:102548001B78FB72FB7A1846FFF7D2FF0346002B75
:1025580014D0FB7A402B04D9FB7A5A2B01D80123DB
:1025680000E00023002B09D1FB7A5F2B06D0FB6823
:102578007A681344FA7A203AD2B21A70FB680133A7
:10258800FB60FB687A6813441B78002BD5D11037A1
:10259800BD4680BD80B586B000AFB9607A6002469E
:1025A800FA73BB730023FB75FB7B2A2B00F2BA81FD
:1025B80001A252F823F000BF6D2600087F2600080C
:1025C80091260008A3260008B5260008C72600089B
:1025D800D9260008EB260008FD2600080F2700086A
:1025E8002127000833270008452700085727000837
:1025F800692700087B2700088D2700089F27000807
:10260800B1270008C3270008D5270008E7270008D6
:10261800F9270008FF270008092800081B280008D8
:102628002128000833280008392800085528000800
:102638004B28000867280008792800088B2800081C
:102648009D280008AF280008C1280008D3280008E2
:10265800E5280008F7280008092900081B290008B0
:1026680039290008BB7BB86879681A4600F068F910
:102678000346FB755DE1BB7BB86879681A4600F0D4
:102688009DF90346FB7554E1BB7BB86879681A4627
:1026980000F0D0F90346FB754BE1BB7BB86879685D
:1026A8001A4600F0AFFA0346FB7542E1BB7BB868F7
:1026B80079681A4600F0F0FA0346FB7539E1BB7BEE
:1026C800B86879681A4600F031FB0346FB7530E1BB
:1026D800BB7BB86879681A4600F038FB0346FB757F
:1026E80027E1BB7BB86879681A4600F087FB034688
:1026F800FB751EE1BB7BB86879681A4600F0DAFB07
:102708000346FB7515E1BB7BB86879681A4600F08B
:1027180099FB0346FB750CE1BB7BB86879681A46E0
:1027280000F0E4FB0346FB7503E1BB7BB8687968FE
:102738001A4600F023FC0346FB75FAE0BB7BB86839
:1027480079681A4600F03EFC0346FB75F1E0BB7B56
:10275800B86879681A4600F073FC0346FB75E8E030
:10276800BB7BB86879681A4600F046FD0346FB75DE
:10277800DFE0BB7BB86879681A4600F087FD03463E
:10278800FB75D6E0BB7BB86879681A4600F0C8FDCF
:102798000346FB75CDE0BB7BB86879681A4600F044
:1027A800FDFD0346FB75C4E0BB7BB86879681A4633
:1027B80000F032FE0346FB75BBE0BB7BB868796866
:1027C8001A4600F0E9FE0346FB75B2E0BB7BB86829
:1027D80079681A4600F02AFF0346FB75A9E0BB7B1F
:1027E800B86879681A4600F06BFF0346FB75A0E0ED
:1027F80007F068FE9DE007F065FEFFF7B1F898E086
:102808000720012107F004FB07F05CFEFFF7A8F89A
:102818008FE000F0EDFF8CE0BB7BB86879681A4662
:1028280000F05EFF0346FB7583E003F0DFFA80E00B
:10283800BB7BB86879681A4601F086F80346FB75D1
:1028480077E00720002107F0E3FA72E0BB7BB86865
:1028580079681A4601F088F80346FB7569E0BB7B86
:10286800B86879681A4601F017F90346FB7560E005
:10287800BB7BB86879681A4601F01EF90346FB75F8
:1028880057E0BB7BB86879681A4601F041F90346FE
:10289800FB754EE0BB7BB86879681A4601F05AF9B7
:1028A8000346FB7545E0BB7BB86879681A4601F0BA
:1028B80093F90346FB753CE0BB7BB86879681A4618
:1028C80001F008FA0346FB7533E0BB7BB86879680A
:1028D8001A4601F07DFA0346FB752AE0BB7BB8680F
:1028E80079681A4601F0F2FA0346FB7521E0BB7BD2
:1028F800B86879681A4601F00BFB0346FB7518E0C7
:10290800BB7BB86879681A4601F012FB0346FB7571
:102918000FE0BB7BB86879681A4601F009FC0346EA
:10292800FB7506E0054814F0CDFC0223FB7500E0BA
:1029380000BFFB7D18461837BD4680BDA4E30108DB
:1029480080B588B002AFF860B9601346FB71002308
:10295800FB75FB79154A0092F868B9681A46002396
:10296800FFF778FA0346002B16D003F0B3FC0346B2
:10297800BB75BB7D002B0ED0BB7D1846FEF7DEFF76
:1029880003460B48194614F09DFC0A4BBA7D1A7091
:102998000423FB7505E004E0074814F093FC0123C9
:1029A800FB75FB7D18461837BD4680BD5C090020C5
:1029B800E4E30108600B00202CE4010880B588B02E
:1029C80002AFF860B9601346FB710023FB75FB7911
:1029D800144A0092F868B9681A460023FFF73AFAD1
:1029E8000346002B13D008F06BFD09F0C1FD0E4B18
:1029F8001B78002B05D00C4808F03CFA08F060FD65
:102A08000AE00A4814F05EFC0423FB7504E0084859
:102A180014F058FC0123FB75FB7D18461837BD469A
:102A280080BD00BF5C090020E43B012084E401086C
:102A3800CCE4010880B58CB002AFF860B9601346E9
:102A4800FB71002387F82730FB79684A0092F86801
:102A5800B9681A460223FFF7FDF90346002B00F078
:102A6800B98000233B620323FB77FF23FB74002319
:102A7800BB6150E05D4BBA6953F82220FB79F868D6
:102A880011461A4601F0ECFB0346FB7497F9133024
:102A9800002B38DBBB69002B02D0012B1ED02FE0A6
:102AA800534814F00FFC97F913201346DB00134426
:102AB8009B00BA6813441846FFF712FA0346FB77DF
:102AC80097F913201346DB0013449B00BA6813449C
:102AD800FA7F10461946FFF729FA14E0454814F022
:102AE800F1FB97F913201346DB0013449B00BA68E7
:102AF8001344184600210A2215F06CFC386202E0E3
:102B0800032387F8273097F82730002B00D005E0FB
:102B1800BB690133BB61BB69012BABDD97F827307B
:102B2800002B1FD1FB7F032B1CD000237B6116E0F9
:102B3800314B7A6953F82230002B0DD02E4B7A692D
:102B480053F822301B78012B06D1042387F827304D
:102B58002A4B03221A7005E07B6901337B617B698C
:102B6800242BE5D997F82730002B32D1FB7F032B94
:102B780026D801A252F823F0912B0008AD2B0008AB
:102B88009F2B0008BB2B00083B6A1B4819460122F3
:102B980005F032F91AE03B6A17481946002205F099
:102BA8002BF913E03B6A14481946002205F024F972
:102BB8000CE03B6A10481946002205F01DF905E0B3
:102BC800042387F827300D4B05221A7003F064F9A7
:102BD80006E005E00A4814F075FB012387F8273062
:102BE80097F8273018462837BD4680BD3C0100209D
:102BF80024E501083CE50108F8540020600B00209A
:102C080054E5010880B588B002AFF860B960134692
:102C1800FB710023FB7503F0ADF90346002B2CD1A3
:102C2800FB79194A0092F868B9681A460523FFF734
:102C380011F90346012B1AD1FB79F868B9681A46CD
:102C480003F084FC0346BB75BB7D002B0ED0BB7D17
:102C58001846FEF773FE03460C48194614F032FB7B
:102C68000B4BBA7D1A700423FB7508E007E009488E
:102C780014F028FB0323FB7501E00523FB75FB7D9E
:102C880018461837BD4680BD44010020ACE5010850
:102C9800600B0020F8E5010880B588B002AFF86045
:102CA800B9601346FB710023FB7503F063F9034613
:102CB800002B2CD1FB79194A0092F868B9681A469A
:102CC8000123FFF7C7F80346002B1AD0FB79F868F1
:102CD800B9681A4603F0AEFD0346BB75BB7D002BF1
:102CE8000ED0BB7D1846FEF729FE03460C48194650
:102CF80014F0E8FA0B4BBA7D1A700423FB7508E050
:102D080007E0094814F0DEFA0123FB7501E005230A
:102D1800FB75FB7D18461837BD4680BD580100205D
:102D280058E60108600B0020A8E6010880B487B0C7
:102D380000AFF860B9601346FB710023FB75FB7D9B
:102D480018461C37BD465DF8047B704780B58AB0CD
:102D580002AFF860B9601346FB710023FB77FB797B
:102D6800244A0092F868B9681A460123FFF772F8F6
:102D78000346002B38D0FF23FB750023BB6130E0EE
:102D88001C4BBA6953F82220FB79F86811461A4699
:102D980001F066FA0346FB7597F91730002B19DB2B
:102DA800BB69002B14D1144814F08CFA97F917203A
:102DB8001346DB0013449B00BA681344184608F016
:102DC80005FE0346BB75BB7D184608F0E3FD01E030
:102DD8000323FB77FB7F002B00D005E0BB690133A1
:102DE800BB61BB69002BCBDDFB7F18462037BD4696
:102DF80080BD00BF5C01002004E7010880B586B0F3
:102E080000AFF860B9601346FB710023FB7508F04A
:102E1800D1FD0346184608F0FBFD386107484FF41A
:102E28000071074A3B6914F0B3FA044808F022F825
:102E3800FB7D18461837BD4680BD00BFE43B012026
:102E48001CE7010880B588B002AFF860B960134686
:102E5800FB710023FB75FB79134A0092F868B96887
:102E68001A460123FEF7F6FF0346002B11D0FB7923
:102E7800F868B9681A4601F04FFA0346BB75BB7D7E
:102E8800002B05D0094BBA7D1A700423FB7505E0A9
:102E980004E0074814F016FA0123FB75FB7D184679
:102EA8001837BD4680BD00BF60010020600B0020C0
:102EB80044E7010880B586B000AFF860B9601346F2
:102EC800FB710023FB7501F01BFA0346BB75BB7D44
:102ED800002B04D0044BBA7D1A700423FB75FB7DCC
:102EE80018461837BD4680BD600B002080B588B0F5
:102EF80002AFF860B9601346FB710023FB75FB79DC
:102F0800194A0092F868B9681A460323FEF7A2FF27
:102F18000346002B1DD007F11002FB791046F96813
:102F2800BA6801F06FFA0346BB75BB7D002B05D06C
:102F38000E4BBA7D1A700423FB750FE03B690C48F1
:102F48004FF400710B4A14F023FA094807F092FF76
:102F580004E0094814F0B6F90123FB75FB7D184617
:102F68001837BD4680BD00BF64010020600B0020FB
:102F7800E43B0120A8E70108C8E7010880B586B04E
:102F880000AFF860B9601346FB710023FB750A4B6C
:102F980000221A700AF0B4F8386108484FF400713A
:102FA800074A3B6914F0F4F9044807F063FFFB7D16
:102FB80018461837BD4680BD600B0020E43B012051
:102FC800A8E7010880B588B002AFF860B960134679
:102FD800FB710023FB75FB79154A0092F868B96804
:102FE8001A460023FEF736FF0346002B16D002F0E0
:102FF800C5F80346BB75BB7D002B0ED0BB7D1846BC
:10300800FEF79CFC03460B48194614F05BF90A4B83
:10301800BA7D1A700423FB7505E004E0074814F034
:1030280051F90123FB75FB7D18461837BD4680BD55
:103038005C09002030E80108600B00207CE80108EA
:1030480080B58CB002AFF860B9601346FB710023FD
:1030580087F82730FB79634A0092F868B9681A46FE
:103068000223FEF7F7FE0346002B00F0B48000238E
:103078003B620023FB77FF23FB740023BB6150E016
:10308800584BBA6953F82220FB79F86811461A465A
:1030980001F0E6F80346FB7497F91330002B38DB90
:1030A800BB69002B02D0012B1ED02FE04E4814F034
:1030B80009F997F913201346DB0013449B00BA68FB
:1030C80013441846FEF70CFF0346FB7797F91320C5
:1030D8001346DB0013449B00BA681344FA7F10467A
:1030E8001946FFF719F814E0404814F0EBF897F97F
:1030F80013201346DB0013449B00BA681344184698
:1031080000210A2215F066F9386202E0032387F8E5
:10311800273097F82730002B00D005E0BB69013332
:10312800BB61BB69012BABDD97F82730002B1FD1A2
:10313800FB7F032B1CD000237B6116E02C4B7A69A4
:1031480053F82230002B0DD0294B7A6953F82230DE
:103158001B78012B06D1042387F82730254B0A2238
:103168001A7005E07B6901337B617B69172BE5D910
:1031780097F82730002B2ED1FB7F032B26D801A2EE
:1031880052F823F09D310008B9310008AB3100082E
:10319800C73100083B6A16481946012202F0FCFCB8
:1031A80017E03B6A12481946002202F0F5FC10E0CD
:1031B8003B6A0F481946002202F0EEFC09E03B6A20
:1031C8000B481946002202F0E7FC02E0042387F8C6
:1031D800273002F071FE97F8273018462837BD4689
:1031E80080BD00BF7001002024E501083CE501080E
:1031F80098540020600B002080B588B002AFF860BA
:10320800B9601346FB710023FB7502F0BFFE03464D
:10321800002B2CD1FB79194A0092F868B9681A4634
:103228000223FEF717FE0346012B1AD1FB79F86833
:10323800B9681A4602F028F80346BB75BB7D002B17
:103248000ED0BB7D1846FEF779FB03460C4819469D
:1032580014F038F80B4BBA7D1A700423FB7508E09C
:1032680007E0094814F02EF80123FB7501E0062356
:10327800FB75FB7D18461837BD4680BD78010020D8
:10328800D8E80108600B00202CE9010880B588B057
:1032980002AFF860B9601346FB710023FB7502F0BA
:1032A80075FE0346002B2CD1FB79194A0092F86869
:1032B800B9681A460123FEF7CDFD0346002B1AD044
:1032C800FB79F868B9681A4602F0D2F80346BB756C
:1032D800BB7D002B0ED0BB7D1846FEF72FFB0346A7
:1032E8000C48194613F0EEFF0B4BBA7D1A700423F5
:1032F800FB7508E007E0094813F0E4FF0123FB75BC
:1033080001E00623FB75FB7D18461837BD4680BDD6
:10331800800100208CE90108600B0020DCE901082D
:1033280080B588B002AFF860B9601346FB7100231E
:10333800FB75FB79154A0092F868B9681A460023AC
:10334800FEF788FD0346002B16D001F035FA034638
:10335800BB75BB7D002B0ED0BB7D1846FEF7EEFA81
:1033680003460B48194613F0ADFF0A4BBA7D1A7095
:103378000423FB7505E004E0074813F0A3FF0123CD
:10338800FB75FB7D18461837BD4680BD5C090020DB
:1033980038EA0108600B002084EA010880B588B08B
:1033A80002AFF860B9601346FB710023FB75FB7927
:1033B800154A0092F868B9681A460223FEF74AFDD2
:1033C8000346002B16D0FB79F868B9681A4601F055
:1033D80005FC0346BB75BB7D002B0AD0BB7D0B48A3
:1033E800194613F06FFF0A4BBA7D1A700423FB7558
:1033F80005E004E0074813F065FF0123FB75FB7D3A
:1034080018461837BD4680BD84010020E0EA01084F
:10341800600B00202CEB010880B58CB002AFF8607F
:10342800B9601346FB71002387F82730FB79554AAA
:103438000092F868B9681A460223FEF70BFD0346A6
:10344800002B00F0928000233B620023FB77FF23D0
:10345800FB750023BB6150E04A4BBA6953F8222040
:10346800FB79F86811461A4600F0FAFE0346FB7528
:1034780097F91730002B38DBBB69002B02D0012BE2
:103488001ED02FE0404813F01DFF97F91720134670
:10349800DB0013449B00BA6813441846FEF720FD6E
:1034A8000346FB7797F917201346DB0013449B006C
:1034B800BA681344FA7F10461946FEF723FF14E052
:1034C800324813F0FFFE97F917201346DB00134428
:1034D8009B00BA681344184600210A2214F07AFFA8
:1034E800386202E0032387F8273097F82730002B4B
:1034F80000D005E0BB690133BB61BB69012BABDDC3
:1035080097F82730002B2FD1FB7F032B26D801A259
:1035180052F823F02D350008493500083B350008DE
:10352800573500083B6A1A481946012202F088F903
:1035380017E03B6A16481946002202F081F910E0AC
:103548003B6A13481946002202F07AF909E03B6AFF
:103558000F481946002202F073F902E0042387F8A5
:10356800273002F0B9FC06E005E00A4813F0AAFE8D
:10357800012387F8273097F8273018462837BD46A3
:1035880080BD00BF8C01002024E501083CE501084E
:103598008C55002084EB010880B588B002AFF86034
:1035A800B9601346FB710023FB7502F0FBFC034670
:1035B800002B2CD1FB79194A0092F868B9681A4691
:1035C8000223FEF747FC0346002B1AD0FB79F86864
:1035D800B9681A4601F07AF90346BB75BB7D002B22
:1035E8000ED0BB7D1846FEF7A9F903460C481946CC
:1035F80013F068FE0B4BBA7D1A700423FB7508E0C4
:1036080007E0094813F05EFE0123FB7501E007237C
:10361800FB75FB7D18461837BD4680BD9401002018
:10362800DCEB0108600B002030EC010880B588B0A5
:1036380002AFF860B9601346FB710023FB7502F016
:10364800B1FC0346002B2CD1FB79194A0092F8688B
:10365800B9681A460123FEF7FDFB0346002B1AD072
:10366800FB79F868B9681A4601F024FA0346BB7575
:10367800BB7D002B0ED0BB7D1846FEF75FF90346D5
:103688000C48194613F01EFE0B4BBA7D1A70042322
:10369800FB7508E007E0094813F014FE0123FB75E9
:1036A80001E00723FB75FB7D18461837BD4680BD32
:1036B8009C01002090EC0108600B0020E0EC010860
:1036C80080B487B000AFF860B9601346FB7100237F
:1036D800FB75FB7D18461C37BD465DF8047B7047BB
:1036E80080B58AB002AFF860B9601346FB71002359
:1036F800FB77FB79384A0092F868B9681A460123C3
:10370800FEF7A8FB0346002B5CD00023BB61FF2318
:10371800FB7400237B612DE02F4B7A6953F822203C
:10372800FB79F86811461A4600F09AFD0346FB74C7
:1037380097F91330002B16DB7B69002B11D1274832
:1037480013F0C0FD97F913201346DB0013449B00C8
:10375800BA681344184600210A2214F03BFEB861E7
:1037680001E00323FB77FB7F002B00D005E07B699A
:1037780001337B617B69002BCEDDFB7F002B20D1E1
:1037880003200021FEF7D2FB03200021FEF7C4FC32
:1037980003200021FEF7B6FDBB6911481946002237
:1037A80004F02AFBBB690F481946002202F0F4F91D
:1037B800BB690D481946002202F042F802F09CFB52
:1037C80005E004E0094813F07DFD0123FB77FB7F4A
:1037D80018462037BD4680BDA00100203CE5010801
:1037E800F8540020985400208C55002054E5010816
:1037F800F0B58DB006AF0023FB7407F0B3FD786118
:103808007B69002B01D1494B7B6107F09FFD034683
:10381800BB7407F0B1FDF86007F0D8FDB86007F099
:10382800DFFD786000233B60414A424B144607CBDA
:1038380020606160A2601A889B78A281A3730E231E
:103848003B603A683A4B1344184633213A4A7B693D
:1038580013F09EFD03463A6813443B603B68023B05
:103868003B603A68324B1A44BB7C7968CDB27968C0
:10387800090ACCB27968090CC8B27968090E0095B2
:1038880001940290039110464FF400712B4A13F0F3
:103898007FFD03463A6813443B603A68244B1A4458
:1038A800FB68DBB2F968090ACCB2F968090CC8B23E
:1038B800F968090E00940190029110464FF40071C6
:1038C8001F4A13F065FD03463A6813443B603A68A3
:1038D800174B1A44BB681B78B968013109780E4642
:1038E800B968023109780D46B968033109780C4680
:1038F800B968043109780846B9680531097800962D
:10390800019502940390049110464FF400710D4AFA
:1039180013F03EFD03463A6813443B60044807F041
:1039280049FAFB7C18461C37BD46F0BD3CED010842
:10393800E43B012044ED010854ED01086CED010859
:10394800A8ED0108C8ED010880B487B000AFF860A1
:10395800B9601346FB710023FB75FB7D18461C37C5
:10396800BD465DF8047B70472DE9B0438EB002AFC9
:10397800F860B9601346FB71002387F82F30FB7994
:10398800404A0092F868B9681A460123FEF762FABD
:103998000346002B69D0FF2387F827300023BB623A
:1039A8005FE0384BBA6A53F82220FB79F868114671
:1039B8001A4600F055FC034687F8273097F9273058
:1039C800002B46DBBB6A002B40D12F4813F07AFC52
:1039D800BA6A1346DB0013449B00BA6813441846BE
:1039E8000021102214F004FDC7E906012748D7E991
:1039F800062313F067FCBB69FB82D7E90623140C86
:103A080044EA03441D0C2346BB82D7E906239846A3
:103A18004FF0000943467B82798ABA8AFB8A1C48A0
:103A280013F050FCFB8A0420194606F0F1F9BB8A12
:103A38000520194606F0ECF97B8A0620194606F09F
:103A4800E7F90720012106F0E3F902E0032387F8EC
:103A58002F3097F82F30002B00D005E0BB6A0133D8
:103A6800BB62BB6A002B9CDD05E00A4813F02AFC08
:103A7800012387F82F3097F82F3018463037BD4686
:103A8800BDE8B083A4010020F8ED010810EE01089C
:103A980034EE010864EE010880B487B000AFF86026
:103AA800B9601346FB710023FB75FB7D18461C3774
:103AB800BD465DF8047B704780B586B000AFF860FE
:103AC800B9601346FB710023FB7500F075FC0346D3
:103AD800BB75BB7D012B01D1094B00E0094B0A489E
:103AE8004FF40071094A13F053FC03467B750648EE
:103AF80007F060F9FB7D18461837BD4680BD00BF4A
:103B0800C0EE0108C8EE0108E43B0120D0EE010830
:103B180080B586B000AFF860B9601346FB7100232A
:103B2800FB7508F069F90346092B14BF002301232C
:103B3800DBB2BB75BB7D012B04D00423FB75044BA2
:103B480017221A70FB7D18461837BD4680BD00BF86
:103B5800600B002080B588B002AFF860B9601346EA
:103B6800FB710023FB75FB79174A0092F868B96866
:103B78001A460623FEF76EF90346012B1AD1FB7984
:103B8800F868B9681A4600F0A3FC0346BB75BB7D0C
:103B9800002B0ED0BB7D1846FDF7D0FE03460B4820
:103BA800194613F08FFB0A4BBA7D1A700423FB7574
:103BB80005E004E0074813F085FB0323FB75FB7D54
:103BC80018461837BD4680BDA8010020E8EE010858
:103BD800600B002038EF010880B58CB002AFF860A8
:103BE800B9601346FB71002387F82730FB79364A02
:103BF8000092F868B9681A460123FEF72BF90346C4
:103C0800002B5BD0FF23FB7700233B6253E02E4B56
:103C18003A6A53F82220FB79F86811461A4600F0F0
:103C28001FFB0346FB7797F91F30002B3BDB3B6AF2
:103C3800002B35D1254813F045FB13F0F7FA03465E
:103C480000221A6097F91F201346DB0013449B00DB
:103C5800BA6813441846002114F0B6FA87ED060A2C
:103C680013F0E4FA03461B68002B03D0032387F8FC
:103C7800273018E097ED060A08F0E8F80346092B04
:103C880014BF00230123DBB2FB75FB7D012B06D09B
:103C9800042387F827300E4B18221A7003E002E03D
:103CA800032387F8273097F82730002B00D005E04A
:103CB8003B6A01333B623B6A002BA8DD97F827304B
:103CC80018462837BD4680BDC001002098EF01087E
:103CD800600B002080B58CB002AFF860B960134665
:103CE800FB71002387F82730FB79364A0092F86881
:103CF800B9681A460123FEF7ADF80346002B5BD0DE
:103D0800FF23FB7700233B6253E02E4B3A6A53F8BC
:103D18002220FB79F86811461A4600F0A1FA0346FA
:103D2800FB7797F91F30002B3BDB3B6A002B35D123
:103D3800254813F0C7FA13F079FA034600221A60EF
:103D480097F91F201346DB0013449B00BA681344FD
:103D58001846002114F038FA87ED060A13F066FABF
:103D680003461B68002B03D0032387F8273018E08D
:103D780097ED060A08F09EF80346092B14BF0023A6
:103D88000123DBB2FB75FB7D012B06D0042387F8EA
:103D980027300E4B18221A7003E002E0032387F83D
:103DA800273097F82730002B00D005E03B6A013315
:103DB8003B623B6A002BA8DD97F827301846283766
:103DC800BD4680BDC401002098EF0108600B0020AB
:103DD80080B58CB002AFF860B9601346FB71002360
:103DE80087F82730FB79364A0092F868B9681A468E
:103DF8000123FEF72FF80346002B5BD0FF23FB7748
:103E080000233B6253E02E4B3A6A53F82220FB7999
:103E1800F86811461A4600F023FA0346FB7797F92B
:103E28001F30002B3BDB3B6A002B35D1254813F0B4
:103E380049FA13F0FBF9034600221A6097F91F208C
:103E48001346DB0013449B00BA681344184600214C
:103E580014F0BAF987ED060A13F0E8F903461B686F
:103E6800002B03D0032387F8273018E097ED060AC4
:103E780008F054F80346092B14BF00230123DBB2D2
:103E8800FB75FB7D012B06D0042387F827300E4BEA
:103E980018221A7003E002E0032387F8273097F806
:103EA8002730002B00D005E03B6A01333B623B6AB8
:103EB800002BA8DD97F8273018462837BD4680BD67
:103EC800C801002098EF0108600B002080B586B07B
:103ED80000AFF860B9601346FB710023FB7508F06A
:103EE80051F80346092B14BF00230123DBB2BB752D
:103EF800BB7D012B04D00423FB75044B18221A70D8
:103F0800FB7D18461837BD4680BD00BF600B0020FA
:103F180080B586B000AFF860B9601346FB71002326
:103F2800FB7507F089FFFB7D18461837BD4680BD35
:103F38002DE9B0438CB002AFF860B9601346FB714D
:103F4800002387F82730FB796C4A0092F868B96833
:103F58001A460123FDF77EFF0346002B00F0C080C0
:103F6800FF23BB760023FB614BE0644BFA6953F8EF
:103F78002220FB79F86811461A4600F071F90346C9
:103F8800BB7697F91A30002B33DBFB69002B2DD158
:103F98005B4813F097F9FA691346DB0013449B005A
:103FA800BA68134418460021102214F021FAC7E910
:103FB80004015448D7E9042313F084F93B69BB840E
:103FC800D7E90423140C44EA03441D0C23467B84DC
:103FD800D7E9042398464FF0000943463B84398CBF
:103FE8007A8CBB8C484813F06DF902E0032387F8FC
:103FF800273097F82730002B00D005E0FB69013304
:10400800FB61FB69002BB0DD97F82730002B66D1E8
:1040180011F04CFFF32012F06BF812F0B5F80346DC
:10402800FB76FB7E092B09D0384813F04BF9384B47
:1040380018221A70042387F827304DE0BB8C1B0A1E
:104048009BB2DBB23348194612F01EF80346FB76E2
:10405800FB7E092B07D1BB8CDBB22F48194612F027
:1040680013F80346FB76FB7E092B09D17B8C1B0AD0
:104078009BB2DBB22948194612F006F80346FB76D4
:10408800FB7E092B07D17B8CDBB22548194611F042
:10409800FBFF0346FB76FB7E092B09D13B8C1B0AF1
:1040A8009BB2DBB21F48194611F0EEFF0346FB76C0
:1040B800FB7E092B07D13B8CDBB21B48194611F05C
:1040C800E3FF0346FB76FB7E092B05D0104B182235
:1040D8001A70042387F8273011F0FEFE06E005E089
:1040E800124813F0EFF8012387F8273097F82730A4
:1040F80018462837BD46BDE8B08300BFCC01002074
:10410800F8ED010810EE010834EE0108B8EF0108D7
:10411800600B00200078FF1F0178FF1F0278FF1F47
:104128000378FF1F0478FF1F0578FF1FD8EF0108E9
:1041380080B485B000AFF860B9601346FB711846CB
:104148001437BD465DF8047B704700BF80B500AFEB
:1041580000F002F880BD00BF80B483B000AF002338
:104168007B6007E00A4A7B68134400221A707B6868
:1041780001337B607B68B3F5007FF3D3044B0022E7
:10418800A3F800220C37BD465DF8047B704700BFDA
:104198005C09002080B582B000AF0346FB71FB7953
:1041A800002B58D02D4BB3F80032B3F5007F52D214
:1041B800FB790A2B02D0FB790D2B04D1FDF730FCDB
:1041C800FFF7CAFF47E0FB79082B02D0FB797F2B6A
:1041D80014D1224BB3F80032002B0ED01F4BB3F88A
:1041E8000032013B9AB21D4BA3F800221B4BB3F8D7
:1041F80000321A4A0021D1542DE02CE0FB79202B03
:104208001BD1164BB3F80032002B24D0134BB3F854
:104218000032013B114AD35C202B1CD00F4BB3F862
:1042280000320E4AF979D1540C4BB3F800320133FD
:104238009AB20A4BA3F800220DE0084BB3F80032FB
:10424800064AF979D154054BB3F8003201339AB2D2
:10425800024BA3F800220837BD4680BD5C09002048
:1042680080B586B000AFF860B9601346FB71FF23D4
:10427800FB7500233B6113E03A691346DB001344E6
:104288009B00FA6813441846B968FBF7A3FF034676
:10429800002B02D13B69FB7506E03B6901333B61AA
:1042A800FA793B699A42E7D8FB7D5BB21846183722
:1042B800BD4680BD80B588B000AFF860B9601346D0
:1042C800FB710023FB77FF23BB7700237B777223E7
:1042D8003B770023FB7600237B6100BFFB7E1846FB
:1042E80008F0CCFD3B7F184608F084FE7B7F18461B
:1042F80008F018FEFB7F18462037BD4680BD00BF7A
:1043080080B582B000AF0023FB7103F061FCFB793C
:1043180018460837BD4680BD80B588B000AFF86044
:10432800B9601346FB710023FB77FB79F868B9681D
:104338001A46FFF7BFFF0346FB770023BB77FF232F
:10434800FB750023BB6129E01A4BBA6953F8222098
:10435800FB79F86811461A46FFF782FF0346FB759A
:1043680097F91730002B14DBBB69002B0ED197F996
:1043780017201346DB0013449B00BA681344184601
:1043880008F012FA0346BB7700BF04E01923FB7755
:1043980001E01A23FB77BB690133BB61BB69002BC2
:1043A800D2D0BB7F184603F04BFCFB7F1846203762
:1043B800BD4680BD6001002080B584B000AF0123F8
:1043C800FB7301F045FE87ED020A01F06FFE87EDF1
:1043D800010A97ED027ADFED0A7AB4EEE77AF1EE98
:1043E80010FA06DCD7ED017AF5EEC07AF1EE10FA94
:1043F80001D50023FB73FB7B18461037BD4680BDF3
:104408000000484280B588B000AFF860B9607A60B3
:10441800FB700023FB77FF23FB750023BB613FE0A4
:104428002A4BBA6953F82220FB78B86811461A4615
:10443800FFF716FF0346FB7597F91730002B26DBAD
:1044480097F917201346DB0013449B007A6813443E
:104458003B61BB69012B0AD0012B02D3022B0CD084
:1044680011E0386908F0A0F90346BB770EE0386917
:1044780008F0AEF903467B7708E0386908F01AFAC5
:1044880003463B7702E01923FB7702E001E01A2399
:10449800FB77FB7F002B00D005E0BB690133BB61D4
:1044A800BB69022BBCD9FB7F002B0AD1797F3A7FED
:1044B800BB7F084611461A4607F0D2FA0246FB6847
:1044C8001A60FB7F18462037BD4680BD6401002076
:1044D80080B58EB002AFF860B9601346FB71002357
:1044E80087F82F30FF23FB760023FB6184E0534BD2
:1044F800FA6953F82220FB79F86811461A46FFF743
:10450800AFFE0346FB7697F91B30002B69DB97F962
:104518001B201346DB0013449B00BA6813447B61DD
:10452800FB69052B58D801A252F823F04D45000825
:104538007545000883450008914500089F45000817
:10454800AD45000800233B6107F11003786919465F
:10455800002213F03FFF0346BB623A697B699A4227
:1045680002D1192387F82F3000BF39E0786908F0A5
:10457800A1F9034687F8253032E0786908F028F970
:10458800034687F826302BE0786908F00DF90346D2
:1045980087F8273024E0786907F018FA034687F887
:1045A80024301DE0264B00221A6097F91B20134681
:1045B800DB0013449B00BA6813441846002113F02B
:1045C80003FE87ED080A1E4B1B68002B03D0192336
:1045D80087F82F3004E003E0192387F82F3003E031
:1045E80002E01A2387F82F3097F82F30002B00D0DD
:1045F80006E0FB690133FB61FB69052B7FF677AFAA
:1046080097F82F30002B13D197F8261097F825200C
:1046180097F8273097F824000090B86A97ED080AB1
:1046280007F0E2FC0346092B02D0182387F82F3045
:1046380097F82F3018463037BD4680BDA8010020B6
:10464800A066012080B582B000AF0346FB71FB79FC
:10465800184600F019F80346002B0AD0FA791346D9
:10466800DB009B1ADB00064A1344184600F01EF8CC
:1046780002E0044812F026FE0837BD4680BD00BFA0
:10468800680B002038F0010880B483B000AF0346FF
:10469800FB71FB790F2B01D8012300E0002318469A
:1046A8000C37BD465DF8047B704700BF80B483B00B
:1046B80000AF78607B6801221A707B6801229A76C5
:1046C80079684FF000024FF00003C1E908237B68C6
:1046D80002330C4A1068186012791A717B68FF223D
:1046E8005A707B68032283F8302079684FF0000203
:1046F8004FF00003C1E90A230C37BD465DF8047B7F
:10470800704700BF98F0010880B584B000AF7860AA
:104718000B46FB707B685B7803F00703DBB24FF452
:10472800E060194607F04CFE0346FB737B685B7834
:10473800BB73BB7B072B02D9BB7B083BBB73BB7B23
:10474800012202FA03F37B73FB78012B04D1FA7B75
:104758007B7B1343FB7303E0FA7B7B7B5340FB7348
:104768007B685B7803F00703DBB2FA7B4FF4E06009
:1047780011461A4607F0D4FD1037BD4680BD00BF6C
:1047880080B582B000AF00237B600CE07A681346E6
:10479800DB009B1ADB00074A13441846FFF786FF25
:1047A8007B6801337B607B680F2BEFD90837BD46E8
:1047B80080BD00BF680B00202DE9F04194B002AF26
:1047C800002387F8473006F07BFE394B394A1446F8
:1047D8001D4604F130082E46A446BCE80F003060A0
:1047E8007160B260F360103410354445F3D12B4644
:1047F800224612881A80312387F83F3097F83F30D5
:10480800002B06D12C4812F05DFD162387F847309F
:1048180046E02A4B1B68002B03D0284B1B68244812
:10482800984700233B6438E025493A6C1346DB007F
:104838009B1ADB000B443C461D460FCD0FC40FCD21
:104848000FC40FCD0FC495E8030084E803003B783C
:10485800002B1FD17B783A460232009214484FF45D
:104868000071184A12F094FD034687F83F3097F814
:104878003F30002B06D1144812F024FD162387F888
:1048880047300DE00D4B1B68002B03D00B4B1B680A
:10489800074898473B6C01333B643B6C0F2BC3D9EB
:1048A80097F8473018464837BD46BDE8F08100BF45
:1048B800E43B0120A0F00108D4F00108640B0020BB
:1048C800680B002008F101082CF1010880B590B0B0
:1048D80000AFF860B9607A60002387F83F300023A2
:1048E800BB62FF2387F83730FF2387F83E30FF236A
:1048F80087F8363007F110035A4A92E80300186027
:10490800043319700023BB6366E0574BBA6B53F846
:1049180022207B68DBB2F86811461A46FFF7A0FC34
:10492800034687F8373097F93730002B3DDB97F986
:1049380037201346DB0013449B00BA6813443B63DB
:10494800BB6B002B02D0012B23D029E007F12803F1
:10495800386B19460A2213F03DFD034687F83630B6
:10496800BA6A3B6B9A4203D1122387F83F300FE0B3
:1049780097F83630102B04D897F8363087F83E3041
:1049880006E03A4812F09EFC0F2387F83F300BE010
:104998000AE007F110031846396B12F05CFD03E0DA
:1049A800122387F83F300FE00EE0BB6B012B00D1DC
:1049B8000FE02D4BBA6B53F822302D48194612F0F0
:1049C80081FC102387F83F3097F83F30002B00D048
:1049D80005E0BB6B0133BB63BB6B012B95DD97F81F
:1049E8003F30002B38D197F83E30FF2B31D097F865
:1049F8003E30184600F0D2F8F862FB6A002B24D04B
:104A0800FB6A1B78002B1CD0FB6A97F83E205A7073
:104A1800FB6A9A1C07F110031046194612F01BFD99
:104A2800FB6A01229A76F96A4FF000024FF0000300
:104A3800C1E90823F86A00F01DF8034687F83F30FB
:104A48000AE0142387F83F3006E0112387F83F3047
:104A580002E0132387F83F3097F83F301846403775
:104A6800BD4680BD98F001089401002060F101085E
:104A78009CF1010880B584B000AF78600023FB7317
:104A88007B685B78BB73BB7B0F2B07D87B680022E6
:104A98001A7078680121FFF737FE04E0044812F025
:104AA80011FC0F23FB73FB7B18461037BD4680BDF6
:104AB800D4F1010880B58AB000AFF860B9607A60B7
:104AC800002387F82730FF23FB7700233B6255E05C
:104AD8002F4B3A6A53F822207B68DBB2F8681146FC
:104AE8001A46FFF7BDFB0346FB7797F91F30002BEB
:104AF80036DB97F91F201346DB0013449B00BA6886
:104B08001344BB613B6A002B26D100233B6107F1AC
:104B18001003B86919460A2213F05CFC0346FB75BA
:104B28003A69BB699A4203D1122387F8273011E00A
:104B3800FB7D1846FFF7A8FD0346002B04D0FB7D3C
:104B48001846FFF77FFD05E0124812F0BBFB0F2364
:104B580087F8273000BF0EE0122387F827300AE0D5
:104B68000B4B3A6A53F822300B48194612F0AAFB4D
:104B7800102387F827303B6A01333B623B6A002BDE
:104B8800A6D097F8273018462837BD4680BD00BF05
:104B98009C01002038F201089CF1010880B582B020
:104BA80000AF0346FB71FB791846FFF76DFD03461E
:104BB800002B07D0FA791346DB009B1ADB00054A65
:104BC800134403E0044812F07DFB0023184608371D
:104BD800BD4680BD680B002074F2010880B58CB01A
:104BE80000AFF860B9601346FB71002387F82F30D7
:104BF800FF2387F82730FF2387F82E30002387F814
:104C08002D300023BB6268E04D4BBA6A53F822206E
:104C1800FB79F86811461A46FFF722FB034687F826
:104C2800273097F92730002B44DB97F927201346C4
:104C3800DB0013449B00BA6813443B62BB6A002B39
:104C480002D0012B22D030E000237B6107F114034E
:104C5800386A19460A2213F0BDFB0346FB777A69C6
:104C68003B6A9A4203D1122387F82F300CE0FB7F6E
:104C7800102B03D8FB7F87F82E3005E0314812F05F
:104C880021FB0F2387F82F3000BF12E0386A2E4926
:104C9800FBF7A0FA0346002B03D1012387F82D3038
:104CA80007E0002387F82D3003E0122387F82F3020
:104CB8000BE00AE0224BBA6A53F82230234819461F
:104CC80012F000FB102387F82F3097F82F30002BB5
:104CD80000D005E0BB6A0133BB62BB6A012B93DDE0
:104CE80097F82F30002B25D197F82E30FF2B1ED0A8
:104CF80097F82E301846FFF751FFB861BB69002BB3
:104D080011D0BB691B78002B06D197F82D30B869F4
:104D18001946FFF7F9FC0DE00D4812F0D3FA1523F8
:104D280087F82F3006E0112387F82F3002E013238D
:104D380087F82F3097F82F3018463037BD4680BD9A
:104D48008401002060F10108D8F201089CF10108F3
:104D5800DCF2010880B483B000AF7860034B7A6856
:104D68001A600C37BD465DF8047B7047640B002061
:104D780090B585B000AF13460246FA710A46BA717B
:104D88007B710023FB73BB790133DBB27A7902FBB9
:104D980003F3BB73BB7B0F2B18D8BA7B10491346A0
:104DA800DB009B1ADB000B443033FA791A70BC7BAA
:104DB80006F018F90A4A2346DB001B1BDB001344E4
:104DC8002833C3E900010123FB7304E0054812F00E
:104DD80079FA0023FB73FB7B18461437BD4690BD58
:104DE800680B002008F4010880B584B000AF0346C2
:104DF800FB710023FB73FB79172B00F2E88001A2FB
:104E080052F823F06D4E00087B4E0008894E0008CA
:104E1800994E0008A94E0008B74E0008C54E000874
:104E2800D54E0008E54E0008F54E0008054F00086D
:104E3800134F0008234F0008314F00083F4F000868
:104E48004D4F00085D4F00086D4F00087B4F00086C
:104E5800894F0008994F0008A74F0008B74F00086E
:104E6800C74F00085F48202110F060FF0346FB731E
:104E7800AEE05C48102110F059FF0346FB73A7E031
:104E880059484FF4807110F051FF0346FB739FE0BF
:104E980055484FF4006110F049FF0346FB7397E053
:104EA8005248012110F042FF0346FB7390E04F483F
:104EB800102110F03BFF0346FB7389E04C484FF488
:104EC800006110F033FF0346FB7381E048484FF45C
:104ED800004110F02BFF0346FB7379E041484FF483
:104EE800807110F023FF0346FB7371E03D484FF4D7
:104EF800805110F01BFF0346FB7369E03B484021DB
:104F080010F014FF0346FB7362E038484FF4006169
:104F180010F00CFF0346FB735AE03248082110F0EA
:104F280005FF0346FB7353E02E48042110F0FEFEF4
:104F38000346FB734CE02B48402110F0F7FE034674
:104F4800FB7345E02B484FF4804110F0EFFE034619
:104F5800FB733DE026484FF4007110F0E7FE03466E
:104F6800FB7335E02148042110F0E0FE0346FB7393
:104F78002EE02148022110F0D9FE0346FB7327E0FA
:104F88001B484FF4005110F0D1FE0346FB731FE09D
:104F98001A48022110F0CAFE0346FB7318E01148B4
:104FA8004FF4806110F0C2FE0346FB7310E00F4817
:104FB8004FF4807110F0BAFE0346FB7308E00B480B
:104FC8004FF4806110F0B2FE0346FB7300E000BFAF
:104FD800FB7B002B01D0002300E00123184610378B
:104FE800BD4680BD0010024000200240001C024067
:104FF8000014024000080240000402400018024069
:1050080080B483B000AF0346FB71FB79172B01D83E
:10501800012300E0002318460C37BD465DF8047BE9
:10502800704700BF80B483B000AF78607B6801220E
:105038001A707B6801229A7679684FF000024FF067
:105048000003C1E908237B680233064A1068186028
:1050580012791A717B68FF225A700C37BD465DF8C9
:10506800047B704754F4010880B582B000AF034652
:10507800FB71FB791846FFF7C3FF0346002B0AD0E4
:10508800FA7913469B001344DB00064A134418467A
:10509800FFF7C8FF02E0044812F014F90837BD46CC
:1050A80080BD00BFF00E00205CF4010880B584B01C
:1050B80000AF4FF4FB70012110F0CEFC00233B72CF
:1050C8000023FB7202237B603B1D2448194610F025
:1050D8009FFD4FF480437B603B1D2148194610F02B
:1050E80097FD41F27C537B603B1D1E48194610F02A
:1050F8008FFD4FF42A437B603B1D1B48194610F077
:1051080087FD02237B603B1D1848194610F080FD7F
:1051180040F655537B603B1D1548194610F078FD45
:105128004FF410637B603B1D1248194610F070FD68
:105138000023FB600CE0FA6813469B001344DB0075
:105148000D4A13441846FFF76DFFFB680133FB60F7
:10515800FB68172BEFD91037BD4680BD000402400D
:1051680000080240001002400014024000180240EB
:10517800001C024000200240F00E00202DE9F04102
:1051880090B002AF002387F83730384B384A1446BE
:105198001D4604F130082E46A446BCE80F003060D6
:1051A8007160B260F360103410354445F3D12B467A
:1051B800224612781A70302387F82F3097F82F304C
:1051C800002B06D12B4812F07DF80E2387F83730D4
:1051D80044E0294B1B68002B03D0274B1B6823484E
:1051E800984700233B6336E024493A6B13469B00FB
:1051F8001344DB000B443C461D460FCD0FC40FCDB6
:105208000FC495E8030084E803003B78002B1FD106
:105218007B783A460232009214484FF40071184ADB
:1052280012F0B6F8034687F82F3097F82F30002B86
:1052380006D1144812F046F80E2387F837300DE0EF
:105248000D4B1B68002B03D00B4B1B680748984776
:105258003B6B01333B633B6B172BC5D997F8373052
:1052680018463837BD46BDE8F08100BFE43B012051
:10527800BCF40108F0F40108E80E0020F00E00204C
:1052880020F5010844F5010880B590B000AFF8603A
:10529800B9607A60002387F83F300023BB62FF23A0
:1052A80087F83730FF2387F83E30FF2387F83630FA
:1052B80007F11003594A92E8030018600433197083
:1052C8000023BB6366E0564BBA6B53F822207B6819
:1052D800DBB2F86811461A46FEF7C2FF034687F8A4
:1052E800373097F93730002B3DDB97F937201346D5
:1052F800DB0013449B00BA6813443B63BB6B002B71
:1053080002D0012B23D029E007F12803386B194676
:105318000A2213F05FF8034687F83630BA6A3B6B07
:105328009A4203D10B2387F83F300FE097F83630C5
:10533800182B04D897F8363087F83E3006E03948FD
:1053480011F0C0FF082387F83F300BE00AE007F1AF
:1053580010031846396B12F07EF803E00B2387F828
:105368003F300FE00EE0BB6B012B00D10FE02C4B60
:10537800BA6B53F822302C48194611F0A3FF0923C1
:1053880087F83F3097F83F30002B00D005E0BB6B23
:105398000133BB63BB6B012B95DD97F83F30002BC6
:1053A80036D197F83E30FF2B2FD097F83E3018466D
:1053B80000F0D2F8F862FB6A002B24D0FB6A1B7855
:1053C800012B1CD1FB6A97F83E205A70FB6A9A1C85
:1053D80007F110031046194612F03DF8FB6A012246
:1053E8009A76F96A4FF000024FF00003C1E90823EA
:1053F800F86A00F01BF8034687F83F3008E00D23F1
:1054080087F83F3004E00A2304E00C2387F83F3094
:1054180097F83F3018464037BD4680BD54F4010820
:105428007801002074F50108B0F5010880B584B052
:1054380000AF78600023FB737B685B78BB73BB7B32
:10544800172B06D87B6800221A70074811F03AFF1C
:1054580004E0064811F036FF0823FB73FB7B18466F
:105468001037BD4680BD00BFE4F501081CF60108F1
:1054780080B58AB000AFF860B9607A60002387F819
:105488002730FF23FB7700233B6255E02F4B3A6A16
:1054980053F822207B68DBB2F86811461A46FEF7FB
:1054A800DFFE0346FB7797F91F30002B36DB97F9B1
:1054B8001F201346DB0013449B00BA681344BB61EA
:1054C8003B6A002B26D100233B6107F11003B86922
:1054D80019460A2212F07EFF0346FB753A69BB693A
:1054E8009A4203D10B2387F8273011E0FB7D184639
:1054F800FFF786FD0346002B04D0FB7D1846FFF717
:10550800B3FD05E0124811F0DDFE082387F82730C7
:1055180000BF0EE00B2387F827300AE00B4B3A6AEE
:1055280053F822300B48194611F0CCFE092387F8AE
:1055380027303B6A01333B623B6A002BA6D097F8C1
:10554800273018462837BD4680BD00BF800100209F
:1055580074F50108B0F5010880B582B000AF0346C4
:10556800FB71FB791846FFF74BFD0346002B07D06C
:10557800FA7913469B001344DB00054A134403E001
:10558800044811F09FFE002318460837BD4680BD29
:10559800F00E00205CF4010880B582B000AF78609E
:1055A80005F020FD02460B467968C1E908237B68AF
:1055B8005B781846FFF718FC03461A467B689A760C
:1055C8000837BD4680BD00BF80B483B000AF7860A7
:1055D800034B7A681A600C37BD465DF8047B704748
:1055E800E80E00202DE9F04188B004AF78607B68B0
:1055F80003F102087B685B781E467B68D3E908459F
:105608007B689B7E184605F039FF0346CDE90045C7
:1056180002930C480C494246334611F0EBFE034610
:10562800FB730A4B1B68002B04D0084B1B6805480A
:10563800984702E0064811F045FE1037BD46BDE820
:10564800F08100BFE43B01207CF60108E80E002051
:10565800FCF6010880B483B000AF0346FB71FA7909
:10566800044B53F8223018460C37BD465DF8047BCE
:10567800704700BFD001002080B500AF034811F08B
:1056880021FE034B00221A7080BD00BF50F70108AD
:10569800B012002080B500AF134B1B78002B0AD046
:1056A800114B1B781846FFF7D5FF03460F481946DC
:1056B80011F008FE16E00E4811F004FE06F0F4FDA5
:1056C8000C4806F0D9FE0C4B00221A600B4B002246
:1056D8001A600B4B00221A600A4B00221A70024B08
:1056E80001221A7080BD00BFB012002080F70108A7
:1056F800C8F70108794D0008B4120020B81200203C
:10570800BC120020C012002080B582B000AF2E4B22
:105718001B78042B54D801A252F823F039570008FB
:105728003F570008C957000845570008AB570008FD
:10573800FFF7B0FF45E000F061F842E000233B606E
:10574800224B1A68224B1B689A421FD2214B1B78A6
:10575800012B05D11D4B1B685A1C1C4B1A6030E0ED
:1057680000237B6009E01C4B1A687B689B0013448C
:105778001B683B607B6801337B607B680F2BF2D929
:10578800124B1B685A1C114B1A601AE0134811F08F
:1057980099FD134805F00EFB00F030F800F0DEFB31
:1057A8000FE00A4B00221A60094B00221A600A4BCC
:1057B80000221A60074B00221A7000F01FF800E060
:1057C80000BF0837BD4680BDB0120020B8120020C7
:1057D800B4120020C0120020BC12002000F80108FA
:1057E80034F8010880B500AF034811F06BFD00F0F4
:1057F80005F800F0B3FB80BD54F8010880B500AF90
:105808000C4B1B78012B0ED00A4B1B78032B0AD0AC
:10581800084B1B781846FFF71DFF03460648194634
:1058280011F050FD05E0054811F04CFD014B022236
:105838001A7080BDB012002080F80108C0F8010875
:1058480080B586B000AFF860B9601346FB71384B7D
:105858001B78022B0AD0364B1B781846FFF7FAFE46
:1058680003463448194611F02DFD5EE0FB68002B15
:1058780003D1314811F026FD57E0FB79012B0ED1F9
:10588800FB681B68002B03D12C4811F01BFD4CE072
:105898002B4B00221A702B4B01221A701DE000239B
:1058A800FB750AE0FB7D9B00FA6813441B68002B1C
:1058B80000D005E0FB7D0133FB75FB7D0F2BF1D993
:1058C800FB7D0F2B03D9204811F0FCFC2DE01C4B6D
:1058D800FA7D1A701B4B10221A701C4BFA681A605A
:1058E8000023BB75194B1A68154B1B789B00134492
:1058F8001B683B610DE0154B1A68BB7D0133BB7516
:10590800BB7D9B0013441B683B61BB7D102B00D102
:105918000BE03B69002BEED00D4B00221A600D4BBB
:10592800BA681A60024B03221A701837BD4680BD48
:10593800B0120020F0F801083CF90108ACF90108A0
:10594800C1120020C012002018FA0108BC12002061
:10595800B8120020B412002080B483B000AF034610
:10596800FB71FA79044B53F8223018460C37BD46C0
:105978005DF8047B704700BFE401002080B500AFEC
:10598800034811F09FFC034B00221A7080BD00BF32
:1059980010FB0108C212002080B500AF104B1B7825
:1059A800002B0AD00E4B1B781846FFF7D5FF03468D
:1059B8000C48194611F086FC11E00B4811F082FCE6
:1059C8000A4B00221A600A4B00221A60094B002277
:1059D8001A60094B00221A70014B01221A7080BD0F
:1059E800C212002040FB010888FB0108C4120020F5
:1059F800C8120020CC120020D012002080B582B03E
:105A080000AF464B1B78042B00F2848001A252F8A9
:105A180023F000BF315A0008375A00081D5B000800
:105A28003D5A0008FF5A0008FFF7B6FF73E000F080
:105A380091F870E03A4B1A683A4B1B789B00134474
:105A48001B683B60384B1A68384B1B689A4203D373
:105A5800364B1B68002B42D1354B1B78012B11D1DB
:105A68002F4B1B681B681846FFF796FD2C4B1B68CD
:105A78001B681846FFF7B6FD2B4B1B685A1C2A4BB0
:105A88001A6037E000237B6020E0254B1A687B68AA
:105A98009B0013441B683B603B68002B0CBF002332
:105AA8000123DAB23B681B78002B14BF00230123C3
:105AB800DBB21340DBB2002B05D03868FFF76CFD72
:105AC8003868FFF78FFD7B6801337B607B68172B95
