:020000040800F2
:1000000000000220751700080515000811150008EA
:100010007916000881160008891600080000000003
:10002000000000000000000000000000CD170008E4
:100030009116000800000000CD1700089D1600086A
:10004000CD170008CD170008CD170008CD17000800
:10005000CD170008CD170008CD170008CD170008F0
:10006000CD170008CD170008CD170008CD170008E0
:10007000CD170008CD170008CD170008CD170008D0
:10008000CD170008CD170008CD170008CD170008C0
:1000900031170008CD170008CD170008CD1700084C
:1000A000CD170008CD170008CD170008CD170008A0
:1000B000CD170008CD170008CD170008CD17000890
:1000C000CD170008CD170008CD170008CD17000880
:1000D000CD170008CD170008CD170008CD17000870
:1000E000A9160008CD170008CD170008CD17000885
:1000F000CD170008CD170008CD170008CD17000850
:10010000CD170008CD170008CD160008CD17000840
:10011000CD170008CD170008CD170008CD1700082F
:10012000CD170008CD170008CD170008CD1700081F
:10013000CD170008CD170008CD170008CD1700080F
:10014000CD170008CD170008CD170008CD170008FF
:10015000CD170008CD170008CD170008CD170008EF
:10016000CD170008CD170008CD170008CD170008DF
:10017000CD170008CD170008CD17000800000000BB
:08018000CD170008CD1700089F
:1001880010B5054C237833B9044B13B10448AFF3C9
:1001980000800123237010BD5009002000000000DA
:1001A80084DA010808B5064B1BB106480649AFF3C7
:1001B80000800648036813B1054B03B1984708BD92
:1001C8000000000084DA0108540900204C090020CE
:1001D8000000000010F8012B11F8013B012A28BF8C
:1001E8009A42F7D0D01A704781F0004102E000BF70
:1001F80083F0004330B54FEA41044FEA430594EADF
:10020800050F08BF90EA020F1FBF54EA000C55EA19
:10021800020C7FEA645C7FEA655C00F0E2804FEAEA
:100228005454D4EB5555B8BF6D420CDD2C4480EACC
:10023800020281EA030382EA000083EA010180EAFC
:10024800020281EA0303362D88BF30BD11F0004F4A
:100258004FEA01314FF4801C4CEA113102D0404280
:1002680061EB410113F0004F4FEA03334CEA1333BB
:1002780002D0524263EB430394EA050F00F0A780D3
:10028800A4F10104D5F1200E0DDB02FA0EFC22FACE
:1002980005F2801841F1000103FA0EF2801843FAC2
:1002A80005F359410EE0A5F120050EF1200E012AB3
:1002B80003FA0EFC28BF4CF0020C43FA05F3C018F1
:1002C80051EBE37101F0004507D54FF0000EDCF16A
:1002D800000C7EEB00006EEB0101B1F5801F1BD313
:1002E800B1F5001F0CD349085FEA30004FEA3C0C17
:1002F80004F101044FEA445212F5800F80F09A800D
:10030800BCF1004F08BF5FEA500C50F1000041EB10
:10031800045141EA050130BD5FEA4C0C404141EB14
:10032800010111F4801FA4F10104E9D191F0000F3B
:1003380004BF01460020B1FA81F308BF2033A3F1BE
:100348000B03B3F120020CDA0C3208DD02F1140CB5
:10035800C2F10C0201FA0CF021FA02F10CE002F1F0
:100368001402D8BFC2F1200C01FA02F120FA0CFCE9
:10037800DCBF41EA0C019040E41AA2BF01EB045132
:10038800294330BD6FEA04041F3C1CDA0C340EDC30
:1003980004F11404C4F1200220FA04F001FA02F373
:1003A80040EA030021FA04F345EA030130BDC4F131
:1003B8000C04C4F1200220FA02F001FA04F340EA26
:1003C8000300294630BD21FA04F0294630BD94F0D7
:1003D800000F83F4801306BF81F480110134013DBE
:1003E8004EE77FEA645C18BF7FEA655C29D094EA2F
:1003F800050F08BF90EA020F05D054EA000C04BFAD
:100408001946104630BD91EA030F1EBF0021002097
:1004180030BD5FEA545C05D14000494128BF41F036
:10042800004130BD14F580043CBF01F5801130BD9A
:1004380001F0004545F0FE4141F470014FF0000025
:1004480030BD7FEA645C1ABF194610467FEA655CD6
:100458001CBF0B46024650EA013406BF52EA033578
:1004680091EA030F41F4002130BD00BF90F0000F66
:1004780004BF0021704730B54FF4806404F13204A2
:100488004FF000054FF0000150E700BF90F0000F5B
:1004980004BF0021704730B54FF4806404F1320482
:1004A80010F0004548BF40424FF000013EE700BF52
:1004B80042004FEAE2014FEA31014FEA02701FBFE2
:1004C80012F07F4393F07F4F81F06051704792F0B4
:1004D800000F14BF93F07F4F704730B54FF460742E
:1004E80001F0004521F0004120E700BF50EA010279
:1004F80008BF704730B54FF000050AE050EA010226
:1005080008BF704730B511F0004502D5404261EB95
:1005180041014FF4806404F132045FEA915C3FF4D6
:10052800DCAE4FF003025FEADC0C18BF03325FEA6F
:10053800DC0C18BF033202EBDC02C2F1200300FA24
:1005480003FC20FA02F001FA03FE40EA0E0021FA49
:1005580002F11444C1E600BF70B54FF0FF0C4CF433
:10056800E06C1CEA11541DBF1CEA135594EA0C0FE9
:1005780095EA0C0F00F0DEF82C4481EA030621EA24
:100588004C5123EA4C5350EA013518BF52EA03355F
:1005980041F4801143F4801338D0A0FB02CE4FF011
:1005A8000005E1FB02E506F00042E0FB03E54FF041
:1005B8000006E1FB03569CF0000F18BF4EF0010E39
:1005C800A4F1FF04B6F5007F64F5407404D25FEA35
:1005D8004E0E6D4146EB060642EAC62141EA5551E8
:1005E8004FEAC52040EA5E504FEACE2EB4F1FD0C2A
:1005F80088BFBCF5E06F1ED8BEF1004F08BF5FEAA8
:10060800500E50F1000041EB045170BD06F0004659
:1006180046EA010140EA020081EA0301B4EB5C0406
:10062800C2BFD4EB0C0541EA045170BD41F48011FE
:100638004FF0000E013C00F3AB8014F1360FDEBF23
:10064800002001F0004170BDC4F10004203C35DAFF
:100658000C341BDC04F11404C4F1200500FA05F382
:1006680020FA04F001FA05F240EA020001F0004223
:1006780021F0004110EBD37021FA04F642EB060199
:100688005EEA430E08BF20EAD37070BDC4F10C04C3
:10069800C4F1200500FA04F320FA05F001FA04F287
:1006A80040EA020001F0004110EBD37041F1000173
:1006B8005EEA430E08BF20EAD37070BDC4F120057E
:1006C80000FA05F24EEA020E20FA04F301FA05F2E6
:1006D80043EA020321FA04F001F0004121FA04F28E
:1006E80020EA020000EBD3705EEA430E08BF20EA5E
:1006F800D37070BD94F0000F0FD101F00046400098
:1007080041EB010111F4801F08BF013CF7D041EA19
:10071800060195F0000F18BF704703F0004652001D
:1007280043EB030313F4801F08BF013DF7D043EAEE
:100738000603704794EA0C0F0CEA135518BF95EAA4
:100748000C0F0CD050EA410618BF52EA4306D1D12B
:1007580081EA030101F000414FF0000070BD50EA4A
:10076800410606BF1046194652EA430619D094EAD4
:100778000C0F02D150EA013613D195EA0C0F05D1BE
:1007880052EA03361CBF104619460AD181EA030112
:1007980001F0004141F0FE4141F470014FF00000CA
:1007A80070BD41F0FE4141F4780170BD70B54FF065
:1007B800FF0C4CF4E06C1CEA11541DBF1CEA1355E5
:1007C80094EA0C0F95EA0C0F00F0A7F8A4EB0504C7
:1007D80081EA030E52EA03354FEA013100F08880BE
:1007E8004FEA03334FF0805545EA131343EA126387
:1007F8004FEA022245EA111545EA10654FEA00263C
:100808000EF000419D4208BF964244F1FD0404F5F4
:10081800407402D25B084FEA3202B61A65EB030550
:100828005B084FEA32024FF480104FF4002CB6EB0D
:10083800020E75EB030E22BFB61A754640EA0C008D
:100848005B084FEA3202B6EB020E75EB030E22BFCD
:10085800B61A754640EA5C005B084FEA3202B6EB0E
:10086800020E75EB030E22BFB61A754640EA9C00CD
:100878005B084FEA3202B6EB020E75EB030E22BF9D
:10088800B61A754640EADC0055EA060E18D04FEA5B
:10089800051545EA16754FEA06164FEAC30343EAFB
:1008A80052734FEAC2025FEA1C1CC0D111F4801FC8
:1008B8000BD141EA00014FF000004FF0004CB6E7C1
:1008C80011F4801F04BF01430020B4F1FD0C88BF60
:1008D800BCF5E06F3FF6AFAEB5EB030C04BFB6EB6B
:1008E800020C5FEA500C50F1000041EB045170BD5E
:1008F8000EF0004E4EEA113114EB5C04C2BFD4EB8B
:100908000C0541EA045170BD41F480114FF0000E0E
:10091800013C90E645EA060E8DE60CEA135594EA8A
:100928000C0F08BF95EA0C0F3FF43BAF94EA0C0F8D
:100938000AD150EA01347FF434AF95EA0C0F7FF402
:1009480025AF104619462CE795EA0C0F06D152EA56
:1009580003353FF4FDAE1046194622E750EA41063A
:1009680018BF52EA43067FF4C5AE50EA41047FF44B
:100978000DAF52EA43057FF4EBAE12E74FF0FF3CB0
:1009880006E000BF4FF0010C02E000BF4FF0010C81
:100998004DF804CD4FEA410C7FEA6C5C4FEA430CFA
:1009A80018BF7FEA6C5C1BD001B050EA410C0CBF49
:1009B80052EA430C91EA030F02BF90EA020F0020AB
:1009C800704710F1000F91EA030F58BF994208BF12
:1009D80090422CBFD8176FEAE37040F001007047CF
:1009E8004FEA410C7FEA6C5C02D150EA013C07D126
:1009F8004FEA430C7FEA6C5CD6D152EA033CD3D071
:100A08005DF8040B704700BF8446104662468C466A
:100A18001946634600E000BF01B5FFF7B7FF00289D
:100A280048BF10F1000F01BD4DF808EDFFF7F4FFC6
:100A38000CBF012000205DF808FB00BF4DF808ED51
:100A4800FFF7EAFF34BF012000205DF808FB00BF74
:100A58004DF808EDFFF7E0FF94BF012000205DF896
:100A680008FB00BF4DF808EDFFF7CEFF94BF01204B
:100A780000205DF808FB00BF4DF808EDFFF7C4FF44
:100A880034BF012000205DF808FB00BF4FEA410297
:100A980012F5001215D211D56FF47873B3EB6252C8
:100AA80012D94FEAC12343F0004343EA505311F0EF
:100AB800004F23FA02F018BF404270474FF0000081
:100AC800704750EA013005D111F0004008BF6FF0BF
:100AD800004070474FF00000704700BF4A0011D235
:100AE80012F5001211D20DD56FF47873B3EB625280
:100AF8000ED44FEAC12343F0004343EA505323FA8C
:100B080002F070474FF00000704750EA013002D100
:100B18004FF0FF3070474FF0000070474FEA410236
:100B2800B2F1E04324BFB3F5001CDCF1FE5C0DD943
:100B380001F0004C4FEAC0024CEA5070B2F1004F8D
:100B480040EB830008BF20F00100704711F0804F90
:100B580021D113F13872BCBF01F00040704741F455
:100B680080114FEA5252C2F11802C2F1200C10FA59
:100B78000CF320FA02F018BF40F001004FEAC1233D
:100B88004FEAD32303FA0CFC40EA0C0023FA02F3E1
:100B98004FEA4303CCE77FEA625307D150EA0133B7
:100BA8001EBF4FF0FE4040F44000704701F0004087
:100BB80040F0FE4040F40000704700BF4BB942B916
:100BC800002908BF002802D04FF0FF31084600F086
:100BD8005FB882B0EC462DE9005000F041F8DDF82E
:100BE80004E002B00CBC704770B5FFF761FC00224E
:100BF8000D4B04460D46FFF7AFFCFFF76FFF0646A7
:100C0800FFF734FC0022094BFFF7A6FC02460B460F
:100C180020462946FFF7ECFAFFF760FF002242EA78
:100C280000042046314670BD0000F03D0000F04150
:100C38002DE97043069E14461D468046894600F0FD
:100C480029F804FB01F300FB0533A4FB00451D4410
:100C5800B8EB040469EB0505C6E90045BDE87083F7
:100C68002DE97043069E1446804689461D4600F0CD
:100C78005DF900FB05F504FB0153A0FB04451D4489
:100C8800B8EB040469EB0505C6E90045BDE87083C7
:100C9800704700BF00292DE9F00FC0F29F800024A3
:100CA800002BC0F29680154606460F46002B3ED113
:100CB8008A4257D9B2FA82F34BB1C3F1200201FA42
:100CC80003F720FA02F29D40174300FA03F6290CB5
:100CD800B7FBF1F2330C01FB127CA8B243EA0C47D4
:100CE80000FB02F3BB4209D97F1902F1FF3C80F0F7
:100CF8000181BB4240F2FE80023A2F44FF1AB7FB43
:100D0800F1F3B6B201FB137146EA014100FB03F0AF
:100D1800884208D9491903F1FF3780F0ED808842ED
:100D280040F2EA80023B43EA0242002303E08B429E
:100D38000AD900231A461046194614B1404261EBFD
:100D48004101BDE8F00F7047B3FA83F8B8F1000F1E
:100D580040F084808B4202D3824200F2DE8000237E
:100D68000122E8E712B90123B3FBF2F5B5FA85F2DF
:100D7800002A39D17F1B280C1FFA85FC0123B7FBF9
:100D8800F0F1320C00FB117742EA07470CFB01F245
:100D9800BA4207D97F1901F1FF3802D2BA4200F2EC
:100DA800C1804146BF1AB7FBF0F2B6B200FB127021
:100DB80046EA00400CFB02FC844507D9401902F1C1
:100DC800FF3702D2844500F2AB803A4642EA01423C
:100DD800B1E7E443524263EB430364E7404261EB0B
:100DE80041014FF0FF345BE79540C2F1200327FA39
:100DF80003F1280C26FA03F39740B1FBF0F81F43E0
:100E08003B0C00FB18111FFA85FC43EA01410CFB5F
:100E180008F38B4206FA02F608D9491908F1FF329D
:100E280079D28B4277D9A8F102082944C91AB1FBB3
:100E3800F0F3BFB200FB131147EA01470CFB03F2C2
:100E4800BA4207D97F1903F1FF3160D2BA425ED99D
:100E5800023B2F44BF1A43EA084390E7C8F1200237
:100E680003FA08FC25FA02F343EA0C0C4FEA1C4982
:100E780021FA02F301FA08F720FA02F2B3FBF9F1BA
:100E8800174309FB11333A0C1FFA8CFB42EA034360
:100E98000BFB01FA9A4505FA08F008D913EB0C0385
:100EA80001F1FF3235D29A4533D902396344CAEB8E
:100EB8000303B3FBF9F209FB1233BFB247EA034756
:100EC8000BFB02F9B94508D917EB0C0702F1FF3300
:100ED8001BD2B94519D9023A674442EA0145A5FB34
:100EE8000001C9EB07078F424FF000030AD305D072
:100EF8002A4620E7624601E73B4614E706FA08F669
:100F08008642F5D26A1E002315E71A46E5E70B4626
:100F1800A0E71146CBE7904688E7434642460AE7F2
:100F2800023A53E702392F443CE700BF2DE9F00F9E
:100F3800144605460E46002B43D18A4253D9B2FACD
:100F480082F757B1C7F1200620FA06F601FA07F32F
:100F580002FA07F41E4300FA07F5210CB6FBF1F27A
:100F68002B0C01FB1267A0B243EA074600FB02F311
:100F7800B34209D9361902F1FF3780F0F680B3423F
:100F880040F2F380023A2644F61AB6FBF1F3ADB20A
:100F980001FB136145EA014100FB03F0884208D9CF
:100FA800091903F1FF3680F0E280884240F2DF80C1
:100FB800023B43EA0242002310461946BDE8F00FFF
:100FC80070478B424AD8B3FA83F6002E4DD18B4234
:100FD80002D3824200F2D68000230122104619462D
:100FE800BDE8F00F704712B90124B4FBF2F4B4FA6B
:100FF80084F2002A7CD1091B260CA7B20123B1FB7D
:10100800F6F02A0C06FB101142EA014107FB00F238
:101018008A4207D9091900F1FF3C02D28A4200F23C
:10102800C3806046891AB1FBF6F2ADB206FB121115
:1010380045EA014507FB02F7AF4208D92C1902F12E
:10104800FF3180F09680A74240F29380023A42EA4C
:10105800004210461946BDE8F00F704700231A46B3
:1010680010461946BDE8F00F7047C6F1200522FA70
:1010780005F4B3401C434FEA144821FA05F301FA7A
:1010880006F720FA05F5B3FBF8FC2F4308FB1C33E1
:101098003D0C1FFA84FA45EA03430AFB0CF999450B
:1010A80002FA06FB04D91B190CF1FF326DD39446E2
:1010B800C9EB0303B3FBF8F508FB1533BFB247EAE6
:1010C80003470AFB05F8B84504D93F1905F1FF3372
:1010D80061D31D4645EA0C4CACFB0B23C8EB070754
:1010E8009F424FF0000549D345D062462B4663E73F
:1010F8009440C2F1200321FA03FC260C20FA03F3E2
:1011080001FA02F5BCFBF6F843EA05010B0C06FBF5
:1011180018CCA7B243EA0C4C07FB08F3634500FA66
:1011280002F509D91CEB040C08F1FF323AD26345E9
:1011380038D9A8F10208A444C3EB0C0CBCFBF6F3A5
:1011480089B206FB13CC41EA0C4107FB03F28A4241
:1011580007D9091903F1FF3022D28A4220D9023B6C
:101168002144891A43EA084349E73A460CE73346DB
:101178001FE70A466BE7B0409042B6D20CF1FF3247
:10118800002319E73346324616E799458FD9ACF163
:10119800020C23448CE7B8459BD9023D274499E7C4
:1011A8000346DEE79046C7E7023821443AE700BF26
:1011B80080B500AF164B164AD2F8882042F4700268
:1011C800C3F88820134B134A126842F001021A60D0
:1011D800104B00229A600F4A0E4B1B6823F0847351
:1011E80023F4803313600B4B0B4A5A60094B094AAE
:1011F800126822F480221A60064B0022DA6000F09E
:1012080089F800F00BF8024B4FF000629A6080BD3D
:1012180000ED00E0003802401030002480B487B0B0
:1012280000AF00233B6100237B610223FB600023A6
:10123800BB6002237B60324B9B6803F00C033B616D
:101248003B69042B07D0082B09D0002B3FD12D4B2D
:101258002D4A1A603FE02B4B2C4A1A603BE0284B82
:101268005B6803F480039B0DBB60254B5B6803F050
:101278003F037B60BB68002B0DD0244A7B68B2FB20
:10128800F3F21F4B596847F6C0730B409B0903FBE9
:1012980002F37B610CE01C4A7B68B2FBF3F2184B4B
:1012A800596847F6C0730B409B0903FB02F37B6147
:1012B800134B5B6803F440331B0C01335B00FB608A
:1012C8007A69FB68B2FBF3F20E4B1A6003E00D4B30
:1012D8000D4A1A6000BF0A4B9B6803F0F0031B0914
:1012E8000B4AD35CDBB23B61064B1A683B69DA40B8
:1012F800044B1A601C37BD465DF8047B704700BF7D
:1013080000380240000000200024F40000127A0097
:101318000400002080B483B000AF00237B6000236A
:101328003B60244B234A126C42F080521A64224BD1
:10133800214A126842F440421A601E4B1D4A9268C4
:101348009A601C4B1B4A926842F400429A60194BFF
:10135800184A926842F4A0529A60164B174A5A608B
:10136800144B144A126842F080721A6000BF114B85
:101378001B6803F00073002BF9D0114B40F2057283
:101388001A600C4B0B4A926822F003029A60094BD0
:10139800084A926842F002029A6000BF054B9B68B7
:1013A80003F00C03082BF9D10C37BD465DF8047B1C
:1013B800704700BF00380240007000408A340008BF
:1013C800003C024080B586B000AFF860B9607A6032
:1013D80000237B6100237B6112E07B69BA681344B8
:1013E8001B780C48194614F0CBF900BF0948402176
:1013F80014F0D8F90346002BF8D07B6901337B61E0
:101408007A697B689A42E8DB7B6818461837BD46DC
:1014180080BD00BF0048004080B485B000AF786050
:10142800114B1B68002B02D10F4B104A1A600E4B50
:101438001B68FB600C4B1A687B681A446B469A421F
:1014480005D90B4B0C221A604FF0FF3306E0064B10
:101458001A687B681A44044B1A60FB6818461437EC
:10146800BD465DF8047B70476C0900200C10012014
:101478000810012080B483B000AF78604FF0FF33CC
:1014880018460C37BD465DF8047B704780B483B0BE
:1014980000AF786039603B684FF400525A6000230F
:1014A80018460C37BD465DF8047B704780B483B09E
:1014B80000AF7860012318460C37BD465DF8047B01
:1014C800704700BF80B485B000AFF860B9607A603B
:1014D800002318461437BD465DF8047B704700BFEB
:1014E80080B485B000AFF860B9607A600023184610
:1014F8001437BD465DF8047B704700BF80B400AF69
:10150800BD465DF8047B704780B58AB000AF404B9C
:101518007B621EF0040F0CBFEFF30880EFF3098025
:101528007B6A1B683B627B6A5B68FB617B6A9B68C2
:10153800BB617B6ADB687B617B6A1B693B617B6A99
:101548005B69FB607B6A9B69BB607B6ADB697B606C
:10155800304816F003F83B6A2F48194615F0A0FFEB
:10156800FB692E48194615F09BFFBB692C481946A4
:1015780015F096FF7B692B48194615F091FF3B69DA
:101588002948194615F08CFFFB682848194615F0BC
:1015980087FFBB682648194615F082FF7B682548F7
:1015A800194615F07DFF244B1B682448194615F091
:1015B80077FF234B1B682348194615F071FF224B10
:1015C8001B682248194615F06BFF214BDB6A21483E
:1015D800194615F065FF204B1B682048194615F081
:1015E8005FFF1F4B1B681F48194615F059FF184B22
:1015F800DB6A03F08043002B08D01B4815F050FF2E
:10160800134B9B6A1948194615F04AFF00BEFDE7BF
:1016180000040020A0DA0108B8DA0108C4DA0108D9
:10162800D0DA0108DCDA0108E8DA0108F4DA01089E
:1016380000DB01080CDB010838ED00E018DB0108CD
:1016480028ED00E028DB01082CED00E038DB01087C
:1016580000ED00E048DB010830ED00E060DB010848
:101668003CED00E070DB010880DB010894DB010839
:1016780080B400AFFEE700BF80B400AFFEE700BF54
:1016880080B400AFFEE700BF80B400AFBD465DF890
:10169800047B704780B500AF09F044FD80BD00BFF2
:1016A80080B500AF4FF4804014F0E2FE0346002BF3
:1016B80006D0012006F012FF4FF4804014F0F2FE2D
:1016C80080BD00BF98B500AF1348102114F092F800
:1016D8000346002B1ED0114B1B681C46621C0F4B87
:1016E8001A600D4814F07AF803469AB20C4B23F8A6
:1016F80014200948102114F0A7F8084B1B68012B87
:1017080008D9074B5A88064B1B88D31A9BB21A462E
:10171800044B1A6098BD00BF000C00402C26002026
:10172800700900203026002080B500AF0C48002149
:101738000C4A14F0C5FE0B4B1A6840F221339A424A
:101748000DD1084B1B7A002B09D1064B9B7A012B34
:1017580005D1044BDB7A0448194615F0A1FE80BD7B
:101768000064004098540020ACDB0108DFF83CD04E
:10177800002100F004B80E4B5B58435004310D486B
:101788000D4B42189A42FFF4F6AF0C4A00F003B82A
:10179800002342F8043B0A4B9A42FFF4F9AFFFF7E3
:1017A80007FD15F037FE00F023F87047000002200F
:1017B800A4250208000000204C0900205009002040
:1017C8000C100120FFF7FEBF80B400AFBFF34F8FAE
:1017D800054A054BDB6803F4E061044B0B43D36017
:1017E800BFF34F8FFEE700BF00ED00E00400FA05ED
:1017F80080B500AF4FF4407014F01AFF09F0BAFF3B
:10180800224815F04DFE4FF08050012114F030FAB7
:10181800012014F0CFFA132014F04AF9034603F01C
:101828000203002B03D11A4815F03AFE01E014F028
:1018380003F97D2014F076FA0346002B02D014F049
:10184800ABFA0EE07C2014F06DFA0346002B08D1A9
:101858007B2014F067FA0346002B02D17A2014F09B
:1018680061FA14F099FA00F075F800F04DF808F0F4
:1018780065FE0346002B04D102F0D6FC00F00AF8FE
:1018880001E0FFF7A1FF0023184680BDC8DB01086F
:10189800E8DB010880B500AF04F0ACFA184B1B7800
:1018A800012B26D1164B00221A7007F0AFFB034616
:1018B800002B01D007F00AFE09F046FC02460B4651
:1018C8001046194607F00AFE08F0C8FE0346012B29
:1018D80012D108F085FF03461A460A4B1A70094BC5
:1018E8001B78002B08D0074B1B78184602F0C0FC69
:1018F80002E0034B01221A7014F06CFACCE700BF27
:1019080014000020AC54002080B582B000AF09F06C
:1019180009FD00237B6001231B067A6813437B6063
:1019280001231B047A6813437B6001231B027A6836
:1019380013437B6003237A6813437B60786809F05C
:101948008BFD034809F04AFD0837BD4680BD00BF3E
:101958004CE7002080B584B000AF09F031FE09F0F3
:1019680011FE04F033FA04F0DBFC03F00DFC02F086
:1019780075FF154805F01CF9134803F093FE12484B
:1019880003F056FA0AF074F80023FB710F4BFB6062
:101998000023BB600DE0FB681B78FB710C4ABB6839
:1019A8001344FA791A70FB680133FB60BB68013392
:1019B800BB60BB681F2BEEDD054B002283F820209F
:1019C8001037BD4680BD00BF9DA800082078FF1FC6
:1019D8004CE7002080B483B000AF0346FB71FA796E
:1019E800044B53F8223018460C37BD465DF8047B8B
:1019F800704700BF1800002080B483B000AF0346D2
:101A0800FB71FA79044B53F8223018460C37BD465F
:101A18005DF8047B704700BF3C00002080B400AF35
:101A2800BFF34F8F054A054BDB6803F4E061044BB5
:101A38000B43D360BFF34F8FFEE700BF00ED00E01C
:101A48000400FA0580B5F2B000AF07F10C03186086
:101A580007F108031960FB1D1A70224815F020FDD4
:101A680007F10C03186800F0D9FD07F10C0318689A
:101A780000F00CF9034687F8C631002387F8C73110
:101A880007F1080007F1EC0107F11402FB1D1B78B0
:101A9800006800F0D7F9034687F8C53197F8C531D3
:101AA800012B0DD197F8C60107F1EC0107F11402DB
:101AB800FB1D1B7800F0E6FD034687F8C73102E0FE
:101AC800032387F8C731084815F0EAFC97F8C731AF
:101AD800184600F013F9054815F0E2FC07F5E4771D
:101AE800BD4680BD90E30108BCE30108F0E30108AE
:101AF80080B5C6B000AF5D485D4915F0D1FC002344
:101B080087F813315A485B4915F0DFFDC7F814010F
:101B18000DE097F81331013387F81331D7F81431F2
:101B280001331846534915F0D0FDC7F81401D7F80A
:101B38001431002BEDD197F813314F48194615F0A1
:101B4800AFFC97F81331002B68D04948494915F084
:101B580078FD0346C7F80431D7F80431242B05D1A2
:101B6800464815F09DFC02F065FB7BE04048414982
:101B780016F030FCC7F814013B1D1846D7F81411AD
:101B880015F057FD0023C7F80C311DE00020394936
:101B980016F020FCC7F81401D7F81431002B00D137
:101BA80018E0D7F80C211346DB0013449B0007F11B
:101BB800280213441846D7F8141115F03AFDD7F83F
:101BC8000C310133C7F80C3197F81321D7F80C31D1
:101BD8009A42DBDC3B1D2A48194615F061FC0023BC
:101BE800C7F8083113E007F12801D7F80821134690
:101BF800DB0013449B000B442248D7F808111A460F
:101C080015F04EFCD7F808310133C7F8083197F8BA
:101C18001321D7F808319A42E5DC19E0144815F089
:101C280020FD0346C7F80031D7F80031232B05D92A
:101C3800124815F035FC02F0FDFA13E03B1D18467A
:101C48000B4915F0F6FC3B1D0F48194615F028FC0A
:101C5800391D07F1280297F81331084611461A462C
:101C6800FFF7F0FE07F58C77BD4680BD28E4010834
:101C780078090020C420020840E4010864E401084F
:101C88009CE40108CCE40108DCE4010880B584B0D8
:101C980000AF7860154815F003FC0023FB730EE0D5
:101CA800FA7B134B53F8223078681946FEF792FAFC
:101CB8000346002B00D105E0FB7B0133FB73FB7B64
:101CC8002A2BEDD9FB7B2A2B08D8FA7B084B53F833
:101CD80022300848194615F0E3FB02E0064815F0E3
:101CE800DFFBFB7B18461037BD4680BD00E50108C9
:101CF800A80000202CE5010864E5010880B584B03F
:101D080000AF0346FB71FB791846FFF763FEF860E6
:101D1800FB79082B5ED801A252F823F0491D000870
:101D2800591D0008691D0008791D0008891D000853
:101D3800AD1D0008BD1D0008CD1D00089D1D000833
:101D48002F484FF400712F4AFB6815F00FFC49E04B
:101D58002B484FF400712C4AFB6815F007FC41E052
:101D680027484FF40071294AFB6815F0FFFB39E05A
:101D780023484FF40071254AFB6815F0F7FB31E062
:101D88001F484FF40071224AFB6815F0EFFB00F082
:101D980043F827E01A484FF400711C4AFB6815F015
:101DA800E5FB1FE016484FF40071184AFB6815F070
:101DB800DDFB17E012484FF40071144AFB6815F078
:101DC800D5FB0FE00E484FF40071104AFB6815F080
:101DD800CDFB07E00A484FF400710E4AFB6815F086
:101DE800C5FB00BFFB79002B03D1054809F082F839
:101DF80002E0034809F04CF81037BD4680BD00BF2B
:101E08004CE500209CE50108ACE50108B8E50108AF
:101E1800C4E50108D4E5010880B500AF064B1B787E
:101E28001846FFF7E9FD034604484FF40071044AD9
:101E380015F09CFB80BD00BF7C0B00204CE500200A
:101E4800E0E5010880B590B000AFF860B9607A604D
:101E5800FB70012387F83F300023BB6359E0BA6B5E
:101E68001346DB0013449B00FA6813447B63786BCA
:101E78002D49022215F012FC0346002B3DD17B6B45
:101E8800023307F110021046194615F0D2FB07F18C
:101E980010031846254916F09DFA7863786B00F010
:101EA800BDFBBA6B1346DB0013449B00BA681344AE
:101EB8001846796B15F0BDFB00201C4916F08AFA0C
:101EC80078637B6B002B0ED0786B00F0A7FBBA6BA6
:101ED8001346DB0013449B007A6813441846796B59
:101EE80015F0A7FB12E0BA6B1346DB0013449B0006
:101EF8007A68134400221A7008E00D48B96B7A6BAF
:101F080015F0CEFA002387F83F3006E0BB6B0133AB
:101F1800BB63FA78BB6B9A42A1DC97F83F3018464E
:101F28004037BD4680BD00BFF4E50108F8E501086B
:101F3800FCE5010880B588B000AFF860B960FA71B7
:101F4800BB71FA79BB799A4201D9002334E00023A6
:101F5800FB610023FB7600237B6128E00023FB6103
:101F68000023FB7617E07A691346DB0013449B00D5
:101F7800FA681A44FB69591CF9619B00B96A0B4459
:101F88001B6810461946FEF725F90346002B02D1B7
:101F98000123FB7603E0BA79FB699A42E3DCFB7E16
:101FA800002B01D1002307E07B6901337B61FA79BB
:101FB8007B699A42D2DC012318462037BD4680BD92
:101FC80080B582B000AF786078680F49FEF702F9F3
:101FD8000346002B01D1032312E078682C2115F069
:101FE8001BFB0346002B01D0022309E078682D2152
:101FF80015F012FB0346002B01D0012300E000235B
:1020080018460837BD4680BD48E6010880B58CB043
:1020180000AF03463960FB71002387F82F30002397
:10202800BB60FF23FB7500233B610023BB620023D9
:1020380087F82730002387F826300023FB73002316
:10204800BB7300233B6207E06C4B3A6A002143F8FC
:1020580022103B6A01333B623B6A242BF4D9FB799B
:10206800032B00F2C38001A252F823F08520000858
:1020780025210008B9200008C3210008386800217C
:102088000A2216F019FB0346FB7597F91730002B47
:1020980002DBFB7D252B03D9594815F001FAA9E08D
:1020A800FB7D184604F0B8FC0246544B1A60A1E0C8
:1020B8003B68002B31D03B68BB62BB681B782C2B7C
:1020C80002D1BB680133BB6207F10803B86A19463D
:1020D8000A2216F0F1FA03463B613B69242B11D81A
:1020E8003B69002B0EDB3B69DBB2184604F094FC1D
:1020F8000146424B3A6943F8221097F82F300133D2
:1021080087F82F30BB68002B07D097F82F30002BAB
:1021180002D03B69002B00D0CFE76BE0002387F8A3
:102128002730002387F8263007F108033868194656
:102138000A2216F0C1FA0346FB73BB68013318463E
:1021480000210A2216F0B8FA0346BB73FB7B002B6A
:1021580003D0FB7B87F8273002E0002387F827307D
:10216800BB7B002B03D0BB7B87F8263002E02523FE
:1021780087F8263097F8262097F82730D31ADBB24D
:10218800013387F82F300023FB6110E0FB69DAB2D6
:1021980097F827301344DBB2184604F03DFC01469B
:1021A800164BFA6943F82210FB690133FB6197F873
:1021B8002F20FB699A42E9DC1CE0252387F82F30A1
:1021C8000023BB610CE0BB69DBB2184604F024FCB9
:1021D80001460A4BBA6943F82210BB690133BB6157
:1021E80097F82F20BB699A42EDDC03E0054815F00B
:1021F80057F900BF3037BD4680BD00BF18550020D5
:102208004CE6010890E6010880B58CB000AF0346A3
:102218003960FB71002387F82F300023BB60FF2350
:10222800FB7500233B610023BB62002387F827303E
:10223800002387F826300023FB730023BB73002399
:102248003B6207E0684B3A6A002143F822103B6A78
:1022580001333B623B6A172BF4D9FB79032B00F25D
:10226800BC8001A252F823F0812200081323000841
:10227800B5220008B1230008386800210A2216F0A8
:1022880095F90346FB7597F91730002B02DBFB7DA8
:10229800182B03D9554815F003F9A2E0FB7D184621
:1022A80003F0C8F90246504B1A609AE03B68002BCD
:1022B8002AD03B68BB62BB681B782C2B02D1BB6859
:1022C8000133BB6207F10803B86A19460A2216F0FF
:1022D8006DF938613B69172B11D83B69002B0EDB70
:1022E8003B69DBB2184603F0A5F901463E4B3A6953
:1022F80043F8221097F82F30013387F82F30BB6846
:10230800002B00D100E0D6E76BE0002387F82730E8
:10231800002387F8263007F10803386819460A228F
:1023280016F044F90346FB73BB68013318460021D5
:102338000A2216F03BF90346BB73FB7B002B03D044
:10234800FB7B87F8273002E0002387F82730BB7B28
:10235800002B03D0BB7B87F8263002E0182387F8D0
:10236800263097F8262097F82730D31ADBB20133A6
:1023780087F82F300023FB6110E0FB69DAB297F889
:1023880027301344DBB2184603F054F90146164BC4
:10239800FA6943F82210FB690133FB6197F82F2093
:1023A800FB699A42E9DC1CE0182387F82F300023E8
:1023B800BB610CE0BB69DBB2184603F03BF9014690
:1023C800094BBA6943F82210BB690133BB6197F81E
:1023D8002F20BB699A42EDDC03E0054815F060F850
:1023E80000BF3037BD4680BDB85400204CE6010818
:1023F80090E6010880B58CB000AF03463960FB71E8
:10240800002387F82F300023BB60FF23FB750023D0
:102418003B610023BB62002387F82730002387F83D
:1024280026300023FB730023BB7300233B6207E0C5
:10243800684B3A6A002143F822103B6A01333B6239
:102448003B6A0F2BF4D9FB79032B00F2BC8001A265
:1024580052F823F06D240008FF240008A124000886
:102468009D250008386800210A2216F09FF80346C7
:10247800FB7597F91730002B02DBFB7D102B03D976
:10248800554815F00DF8A1E0FB7D184602F0F4FB65
:102498000246504B1A6099E03B68002B2AD03B68F3
:1024A800BB62BB681B782C2B02D1BB680133BB62B3
:1024B80007F10803B86A19460A2216F077F8386156
:1024C8003B690F2B11D83B69002B0EDB3B69DBB254
:1024D800184602F0D1FB01463E4B3A6943F82210F8
:1024E80097F82F30013387F82F30BB68002B00D1C5
:1024F80000E0D6E76AE0002387F82730002387F852
:10250800263007F10803386819460A2216F04EF8F3
:102518000346FB73BB680133184600210A2216F0F4
:1025280045F80346BB73FB7B002B03D0FB7B87F886
:10253800273002E0002387F82730BB7B002B03D02D
:10254800BB7B87F8263002E0102387F8263097F8FF
:10255800262097F82730D31ADBB2013387F82F30BB
:102568000023FB6110E0FB69DAB297F827301344C7
:10257800DBB2184602F080FB0146164BFA6943F8B5
:102588002210FB690133FB6197F82F20FB699A42FF
:10259800E9DC1BE0102387F82F300023BB610CE037
:1025A800BB69DBB2184602F067FB0146094BBA6902
:1025B80043F82210BB690133BB6197F82F20BB6930
:1025C8009A42EDDC02E0054814F06AFF3037BD4658
:1025D80080BD00BFAC5500204CE6010890E601081C
:1025E80080B483B000AF0346FB71FB795F2B0BD03F
:1025F800FB79402B02D9FB795A2B05D9FB79602B43
:1026080004D9FB797A2B01D8012300E0002318466E
:102618000C37BD465DF8047B704700BF80B584B0B9
:1026280000AF78600023FB6023E0FB687A681344FE
:102638001B78FB72FB7A1846FFF7D2FF0346002B84
:1026480014D0FB7A402B04D9FB7A5A2B01D80123EA
:1026580000E00023002B09D1FB7A5F2B06D0FB6832
:102668007A681344FA7A203AD2B21A70FB680133B6
:10267800FB60FB687A6813441B78002BD5D11037B0
:10268800BD4680BD80B586B000AFB9607A600246AD
:10269800FA73BB730023FB75FA7B084B53F822309F
:1026A8003B61BA7B3B69B868796898470346FB7514
:1026B800FB7D18461837BD4680BD00BFC8200208FC
:1026C80080B588B002AFF860B9601346FB7100238B
:1026D800FB75FB79154A0092F868B9681A46002319
:1026E800FFF728FC0346002B16D003F07FFE0346B5
:1026F800BB75BB7D002B0ED0BB7D1846FFF77CF960
:1027080003460B48194614F0CBFE0A4BBA7D1A70E3
:102718000423FB7505E004E0074814F0C1FE01231B
:10272800FB75FB7D18461837BD4680BD740900202F
:10273800D0E601087C0B002018E7010880B588B0B6
:1027480002AFF860B9601346FB710023FB75FB7993
:10275800144A0092F868B9681A460023FFF7EAFBA2
:102768000346002B13D008F053FF09F0EDFF0E4B82
:102778001B78002B05D00C4808F028FC08F048FF0F
:102788000AE00A4814F08CFE0423FB7504E00848AC
:1027980014F086FE0123FB75FB7D18461837BD46ED
:1027A80080BD00BF740900204CE5002070E70108D7
:1027B800B8E7010880B58CB002AFF860B96013467D
:1027C800FB71002387F82730FB79684A0092F86884
:1027D800B9681A460223FFF7ADFB0346002B00F049
:1027E800B98000233B620323FB77FF23FB7400239C
:1027F800BB6150E05D4BBA6953F82220FB79F86859
:1028080011461A4601F09AFD0346FB7497F91330F6
:10281800002B38DBBB69002B02D0012B1ED02FE028
:10282800534814F03DFE97F913201346DB00134478
:102838009B00BA6813441846FFF7C2FB0346FB77B0
:1028480097F913201346DB0013449B00BA6813441E
:10285800FA7F10461946FFF7D9FB14E0454814F0F3
:102868001FFE97F913201346DB0013449B00BA6838
:102878001344184600210A2215F098FE386202E037
:10288800032387F8273097F82730002B00D005E07E
:10289800BB690133BB61BB69012BABDD97F82730FE
:1028A800002B1FD1FB7F032B1CD000237B6116E07C
:1028B800314B7A6953F82230002B0DD02E4B7A69B0
:1028C80053F822301B78012B06D1042387F82730D0
:1028D8002A4B03221A7005E07B6901337B617B690F
:1028E800242BE5D997F82730002B32D1FB7F032B17
:1028F80026D801A252F823F0112900082D29000832
:102908001F2900083B2900083B6A1B481946012279
:1029180005F00AFB1AE03B6A17481946002205F041
:1029280003FB13E03B6A14481946002205F0FCFA41
:102938000CE03B6A10481946002205F0F5FA05E05C
:10294800042387F827300D4B05221A7003F02CFB5F
:1029580006E005E00A4814F0A3FD012387F82730B4
:1029680097F8273018462837BD4680BD5401002007
:1029780010E8010828E80108185500207C0B002001
:1029880040E8010880B588B002AFF860B960134626
:10299800FB710023FB7503F07BFB0346002B2CD156
:1029A800FB79194A0092F868B9681A460523FFF7B7
:1029B800C1FA0346012B1AD1FB79F868B9681A469F
:1029C80003F050FE0346BB75BB7D002B0ED0BB7DCC
:1029D8001846FFF711F803460C48194614F060FD35
:1029E8000B4BBA7D1A700423FB7508E007E0094811
:1029F80014F056FD0323FB7501E00523FB75FB7DF1
:102A080018461837BD4680BD5C01002098E80108CB
:102A18007C0B0020E4E8010880B588B002AFF860BC
:102A2800B9601346FB710023FB7503F031FB0346C5
:102A3800002B2CD1FB79194A0092F868B9681A461C
:102A48000123FFF777FA0346002B1AD0FB79F868C1
:102A5800B9681A4603F078FF0346BB75BB7D002BA7
:102A68000ED0BB7D1846FEF7C7FF03460C48194633
:102A780014F016FD0B4BBA7D1A700423FB7508E0A1
:102A880007E0094814F00CFD0123FB7501E005235C
:102A9800FB75FB7D18461837BD4680BD70010020C8
:102AA80044E901087C0B002094E9010880B487B050
:102AB80000AFF860B9601346FB710023FB75FB7D1E
:102AC80018461C37BD465DF8047B704780B58AB050
:102AD80002AFF860B9601346FB710023FB77FB79FE
:102AE800244A0092F868B9681A460123FFF722FAC7
:102AF8000346002B38D0FF23FB750023BB6130E071
:102B08001C4BBA6953F82220FB79F86811461A461B
:102B180001F014FC0346FB7597F91730002B19DBFD
:102B2800BB69002B14D1144814F0BAFC97F917208C
:102B38001346DB0013449B00BA681344184608F098
:102B4800EDFF0346BB75BB7D184608F0CBFF01E0DF
:102B58000323FB77FB7F002B00D005E0BB69013323
:102B6800BB61BB69002BCBDDFB7F18462037BD4618
:102B780080BD00BF74010020F0E9010880B586B06F
:102B880000AFF860B9601346FB710023FB7508F0CD
:102B9800B9FF0346184608F0E3FF386107484FF4C9
:102BA8000071074A3B6914F0E1FC044808F00EFA8A
:102BB800FB7D18461837BD4680BD00BF4CE5002098
:102BC80008EA010880B588B002AFF860B96013461A
:102BD800FB710023FB75FB79134A0092F868B9680A
:102BE8001A460123FFF7A6F90346002B11D0FB79FB
:102BF800F868B9681A4601F0FDFB0346BB75BB7D52
:102C0800002B05D0094BBA7D1A700423FB7505E02B
:102C180004E0074814F044FC0123FB75FB7D1846CB
:102C28001837BD4680BD00BF780100207C0B00200E
:102C380030EA010880B586B000AFF860B960134685
:102C4800FB710023FB7501F0C9FB0346BB75BB7D17
:102C5800002B04D0044BBA7D1A700423FB75FB7D4E
:102C680018461837BD4680BD7C0B002080B588B05B
:102C780002AFF860B9601346FB710023FB75FB795E
:102C8800194A0092F868B9681A460323FFF752F9FF
:102C98000346002B1DD007F11002FB791046F96896
:102CA800BA6801F01DFC0346BB75BB7D002B05D03F
:102CB8000E4BBA7D1A700423FB750FE03B690C4874
:102CC8004FF400710B4A14F051FC094808F07EF9E2
:102CD80004E0094814F0E4FB0123FB75FB7D18466A
:102CE8001837BD4680BD00BF7C0100207C0B00204A
:102CF8004CE5002094EA0108B4EA010880B586B0E2
:102D080000AFF860B9601346FB710023FB750A4BEE
:102D180000221A700AF0E2FA386108484FF400718C
:102D2800074A3B6914F022FC044808F04FF9FB7D80
:102D380018461837BD4680BD7C0B00204CE50020A6
:102D480094EA010880B588B002AFF860B96013460C
:102D5800FB710023FB75FB79154A0092F868B96886
:102D68001A460023FFF7E6F80346002B16D002F0B8
:102D780073FA0346BB75BB7D002B0ED0BB7D18468E
:102D8800FEF73AFE03460B48194614F089FB0A4B36
:102D9800BA7D1A700423FB7505E004E0074814F0B7
:102DA8007FFB0123FB75FB7D18461837BD4680BDA8
:102DB800740900201CEB01087C0B002068EB01085B
:102DC80080B58CB002AFF860B9601346FB71002380
:102DD80087F82730FB79634A0092F868B9681A4681
:102DE8000223FFF7A7F80346002B00F0B480002366
:102DF8003B620023FB77FF23FB740023BB6150E099
:102E0800584BBA6953F82220FB79F86811461A46DC
:102E180001F094FA0346FB7497F91330002B38DB62
:102E2800BB69002B02D0012B1ED02FE04E4814F0B6
:102E380037FB97F913201346DB0013449B00BA684D
:102E480013441846FFF7BCF80346FB7797F913209D
:102E58001346DB0013449B00BA681344FA7F1046FC
:102E68001946FFF7D1F914E0404814F019FB97F917
:102E780013201346DB0013449B00BA68134418461A
:102E880000210A2215F092FB386202E0032387F83A
:102E9800273097F82730002B00D005E0BB690133B5
:102EA800BB61BB69012BABDD97F82730002B1FD125
:102EB800FB7F032B1CD000237B6116E02C4B7A6927
:102EC80053F82230002B0DD0294B7A6953F8223061
:102ED8001B78012B06D1042387F82730254B0A22BB
:102EE8001A7005E07B6901337B617B69172BE5D993
:102EF80097F82730002B2ED1FB7F032B26D801A271
:102F080052F823F01D2F0008392F00082B2F000836
:102F1800472F00083B6A16481946012202F0AAFE0C
:102F280017E03B6A12481946002202F0A3FE10E09F
:102F38003B6A0F481946002202F09CFE09E03B6AF2
:102F48000B481946002202F095FE02E0042387F898
:102F5800273003F039F897F8273018462837BD4648
:102F680080BD00BF8801002010E8010828E801089A
:102F7800B85400207C0B002080B588B002AFF86000
:102F8800B9601346FB710023FB7503F08DF8034607
:102F9800002B2CD1FB79194A0092F868B9681A46B7
:102FA8000223FEF7C7FF0346012B1AD1FB79F86805
:102FB800B9681A4602F0D6F90346BB75BB7D002BEB
:102FC8000ED0BB7D1846FEF717FD03460C48194680
:102FD80014F066FA0B4BBA7D1A700423FB7508E0EF
:102FE80007E0094814F05CFA0123FB7501E00623A9
:102FF800FB75FB7D18461837BD4680BD9001002043
:10300800C4EB01087C0B002018EC010880B588B0DF
:1030180002AFF860B9601346FB710023FB7503F03B
:1030280043F80346002B2CD1FB79194A0092F86823
:10303800B9681A460123FEF77DFF0346002B1AD014
:10304800FB79F868B9681A4602F080FA0346BB753E
:10305800BB7D002B0ED0BB7D1846FEF7CDFC03468A
:103068000C48194614F01CFA0B4BBA7D1A7004234D
:10307800FB7508E007E0094814F012FA0123FB7514
:1030880001E00623FB75FB7D18461837BD4680BD59
:103098009801002078EC01087C0B0020C8EC01089E
:1030A80080B588B002AFF860B9601346FB710023A1
:1030B800FB75FB79154A0092F868B9681A4600232F
:1030C800FEF738FF0346002B16D001F0E3FB03465A
:1030D800BB75BB7D002B0ED0BB7D1846FEF78CFC64
:1030E80003460B48194614F0DBF90A4BBA7D1A70EF
:1030F8000423FB7505E004E0074814F0D1F9012327
:10310800FB75FB7D18461837BD4680BD7409002045
:1031180024ED01087C0B002070ED010880B588B013
:1031280002AFF860B9601346FB710023FB75FB79A9
:10313800154A0092F868B9681A460223FEF7FAFEA3
:103148000346002B16D0FB79F868B9681A4601F0D7
:10315800B3FD0346BB75BB7D002B0AD0BB7D0B4876
:10316800194614F09DF90A4BBA7D1A700423FB75B1
:1031780005E004E0074814F093F90123FB75FB7D93
:1031880018461837BD4680BD9C010020CCED0108CB
:103198007C0B002018EE010880B58CB002AFF860F7
:1031A800B9601346FB71002387F82730FB79554A2D
:1031B8000092F868B9681A460223FEF7BBFE034678
:1031C800002B00F0928000233B620023FB77FF2353
:1031D800FB750023BB6150E04A4BBA6953F82220C3
:1031E800FB79F86811461A4601F0A8F80346FB7502
:1031F80097F91730002B38DBBB69002B02D0012B65
:103208001ED02FE0404814F04BF997F917201346C9
:10321800DB0013449B00BA6813441846FEF7D0FE3F
:103228000346FB7797F917201346DB0013449B00EE
:10323800BA681344FA7F10461946FFF7DBF814E022
:10324800324814F02DF997F917201346DB00134480
:103258009B00BA681344184600210A2215F0A6F903
:10326800386202E0032387F8273097F82730002BCD
:1032780000D005E0BB690133BB61BB69012BABDD45
:1032880097F82730002B2FD1FB7F032B26D801A2DC
:1032980052F823F0AD320008C9320008BB320008EA
:1032A800D73200083B6A1A481946012202F036FB59
:1032B80017E03B6A16481946002202F02FFB10E07F
:1032C8003B6A13481946002202F028FB09E03B6AD2
:1032D8000F481946002202F021FB02E0042387F878
:1032E800273002F081FE06E005E00A4814F0D8F81D
:1032F800012387F8273097F8273018462837BD4626
:1033080080BD00BFA401002010E8010828E80108DA
:10331800AC55002070EE010880B588B002AFF860A7
:10332800B9601346FB710023FB7502F0C9FE034622
:10333800002B2CD1FB79194A0092F868B9681A4613
:103348000223FEF7F7FD0346002B1AD0FB79F86835
:10335800B9681A4601F028FB0346BB75BB7D002BF4
:103368000ED0BB7D1846FEF747FB03460C481946AE
:1033780014F096F80B4BBA7D1A700423FB7508E01D
:1033880007E0094814F08CF80123FB7501E00723D6
:10339800FB75FB7D18461837BD4680BDAC01002083
:1033A800C8EE01087C0B00201CEF010880B588B02E
:1033B80002AFF860B9601346FB710023FB7502F099
:1033C8007FFE0346002B2CD1FB79194A0092F8683E
:1033D800B9681A460123FEF7ADFD0346002B1AD043
:1033E800FB79F868B9681A4601F0D2FB0346BB7549
:1033F800BB7D002B0ED0BB7D1846FEF7FDFA0346B9
:103408000C48194614F04CF80B4BBA7D1A7004237B
:10341800FB7508E007E0094814F042F80123FB7542
:1034280001E00723FB75FB7D18461837BD4680BDB4
:10343800B40100207CEF01087C0B0020CCEF0108D0
:1034480080B487B000AFF860B9601346FB71002301
:10345800FB75FB7D18461C37BD465DF8047B70473D
:1034680080B588B002AFF860B9601346FB710023DD
:10347800FB75FB790B4A0092F868B9681A46002375
:10348800FEF758FD0346002B02D007F0AFF804E022
:10349800054814F005F80123FB75FB7D184618371D
:1034A800BD4680BD7409002028F0010880B588B0A9
:1034B80002AFF860B9601346FB710023FB75FB7916
:1034C8000C4A0092F868B9681A460023FEF732FDE4
:1034D8000346002B04D007F089F8FEF79FFA04E0B2
:1034E800054813F0DDFF0123FB75FB7D18461837EF
:1034F800BD4680BD740900208CF0010880B588B0F5
:1035080002AFF860B9601346FB710023FB75FB79C5
:103518000E4A0092F868B9681A460023FEF70AFDB9
:103528000346002B08D00720012106F005FD07F00F
:103538005DF8FEF773FA04E0054813F0B1FF0123C4
:10354800FB75FB7D18461837BD4680BD7409002001
:103558008CF00108F0B593B006AFF860B960134677
:10356800FB71002387F82F30FB79574A0092F868DF
:10357800B9681A460023FEF7DDFC0346002B00F06D
:10358800978007F097FFB862BB6A002B01D14F4BB9
:10359800BB6207F083FF034687F8273007F094FFE4
:1035A800386207F0BBFFF86107F0C2FFB86100237B
:1035B8007B61474A474B144607CB20606160A26095
:1035C8001A889B78A281A3730E237B617A69404B8A
:1035D800134418463321404ABB6A13F0C7FF034619
:1035E8007A6913447B617B69023B7B617A69384B5A
:1035F8001A4497F82730B969CDB2B969090ACCB22B
:10360800B969090CC8B2B969090E0095019402900C
:10361800039110464FF40071304A13F0A7FF034698
:103628007A6913447B617A69294B1A443B6ADBB295
:10363800396A090ACCB2396A090CC8B2396A090E62
:1036480000940190029110464FF40071244A13F03F
:103658008DFF03467A6913447B617A691C4B1A44CF
:10366800FB691B78F969013109780E46F96902315D
:1036780009780D46F969033109780C46F96904316E
:1036880009780846F9690531097800960195029488
:103698000390049110464FF40071124A13F066FF2C
:1036A80003467A6913447B61094807F023FC05E067
:1036B8000D4813F0F5FE012387F82F3097F82F30C7
:1036C80018463437BD46F0BD74090020E0F0010803
:1036D8004CE50020E8F00108F8F0010810F10108B5
:1036E8004CF101086CF101089CF1010880B58AB021
:1036F80002AFF860B9601346FB710023FB77FB79D2
:10370800384A0092F868B9681A460123FEF712FC95
:103718000346002B5CD00023BB61FF23FB7400230E
:103728007B612DE02F4B7A6953F82220FB79F868EA
:1037380011461A4600F002FE0346FB7497F913304F
:10374800002B16DB7B69002B11D1274813F0A8FE4C
:1037580097F913201346DB0013449B00BA681344FF
:10376800184600210A2214F021FFB86101E0032362
:10377800FB77FB7F002B00D005E07B6901337B6181
:103788007B69002BCEDDFB7F002B20D1032000219D
:10379800FEF73CFC03200021FEF736FD0320002144
:1037A800FEF728FEBB6911481946002204F0BCFB4D
:1037B800BB690F481946002202F05CFABB690D4844
:1037C8001946002202F0AAF802F01EFC05E004E007
:1037D800094813F065FE0123FB77FB7F1846203765
:1037E800BD4680BDB801002028E801081855002012
:1037F800B8540020AC550020ECF1010880B588B021
:1038080002AFF860B9601346FB710023FB75FB79C2
:103818000B4A0092F868B9681A460023FEF78AFB3B
:103828000346002B02D002F069FB04E0054813F0C0
:1038380037FE0123FB75FB7D18461837BD4680BD52
:103848007409002034F2010880B487B000AFF86032
:10385800B9601346FB710023FB75FB7D18461C37C6
:10386800BD465DF8047B70472DE9B0438EB002AFCA
:10387800F860B9601346FB71002387F82F30FB7995
:10388800404A0092F868B9681A460123FEF752FBCD
:103898000346002B69D0FF2387F827300023BB623B
:1038A8005FE0384BBA6A53F82220FB79F868114672
:1038B8001A4600F043FD034687F8273097F927306A
:1038C800002B46DBBB6A002B40D12F4813F0E8FDE4
:1038D800BA6A1346DB0013449B00BA6813441846BF
:1038E8000021102214F0F6FEC7E906012748D7E99F
:1038F800062313F0D5FDBB69FB82D7E90623140C18
:1039080044EA03441D0C2346BB82D7E906239846A4
:103918004FF0000943467B82798ABA8AFB8A1C48A1
:1039280013F0BEFDFB8A0420194606F005FBBB8A8E
:103938000520194606F000FB7B8A0620194606F08A
:10394800FBFA0720012106F0F7FA02E0032387F8C3
:103958002F3097F82F30002B00D005E0BB6A0133D9
:10396800BB62BB6A002B9CDD05E00A4813F098FD9A
:10397800012387F82F3097F82F3018463037BD4687
:10398800BDE8B083BC01002090F20108A8F201084C
:10399800CCF20108FCF2010880B588B002AFF860EB
:1039A800B9601346FB710023FB75FB790C4A009242
:1039B800F868B9681A460123FEF7BCFA0346002BDB
:1039C80004D00720002106F0B7FA04E0054813F0F8
:1039D80067FD0123FB75FB7D18461837BD4680BD82
:1039E8007409002058F3010880B487B000AFF8606C
:1039F800B9601346FB710023FB75FB7D18461C3725
:103A0800BD465DF8047B704780B586B000AFF860AE
:103A1800B9601346FB710023FB7500F03BFD0346BC
:103A2800BB75BB7D012B01D1094B00E0094B0A484E
:103A38004FF40071094A13F099FD03467B75064857
:103A480007F058FAFB7D18461837BD4680BD00BF01
:103A5800B4F30108BCF301084CE50020C4F30108E5
:103A680080B586B000AFF860B9601346FB710023DB
:103A7800FB7508F081FA0346092B14BF00230123C4
:103A8800DBB2BB75BB7D012B04D00423FB75044B53
:103A980017221A70FB7D18461837BD4680BD00BF37
:103AA8007C0B002080B588B002AFF860B96013467F
:103AB800FB710023FB75FB79174A0092F868B96817
:103AC8001A460623FEF736FA0346012B1AD1FB796C
:103AD800F868B9681A4600F069FD0346BB75BB7DF6
:103AE800002B0ED0BB7D1846FDF786FF03460B481A
:103AF800194613F0D5FC0A4BBA7D1A700423FB75DE
:103B080005E004E0074813F0CBFC0323FB75FB7DBD
:103B180018461837BD4680BDC0010020DCF30108F7
:103B28007C0B00202CF4010880B58CB002AFF86043
:103B3800B9601346FB71002387F82730FB79364AB2
:103B48000092F868B9681A460123FEF7F3F90346AC
:103B5800002B5BD0FF23FB7700233B6253E02E4B07
:103B68003A6A53F82220FB79F86811461A4600F0A1
:103B7800E5FB0346FB7797F91F30002B3BDB3B6ADD
:103B8800002B35D1254813F08BFC13F03DFC034680
:103B980000221A6097F91F201346DB0013449B008C
:103BA800BA6813441846002114F0FAFB87ED060A98
:103BB80013F02AFC03461B68002B03D0032387F865
:103BC800273018E097ED060A08F006FA0346092B95
:103BD80014BF00230123DBB2FB75FB7D012B06D04C
:103BE800042387F827300E4B18221A7003E002E0EE
:103BF800032387F8273097F82730002B00D005E0FB
:103C08003B6A01333B623B6A002BA8DD97F82730FB
:103C180018462837BD4680BDD80100208CF401081D
:103C28007C0B002080B58CB002AFF860B9601346F9
:103C3800FB71002387F82730FB79364A0092F86831
:103C4800B9681A460123FEF775F90346002B5BD0C5
:103C5800FF23FB7700233B6253E02E4B3A6A53F86D
:103C68002220FB79F86811461A4600F067FB0346E4
:103C7800FB7797F91F30002B3BDB3B6A002B35D1D4
:103C8800254813F00DFC13F0BFFB034600221A6011
:103C980097F91F201346DB0013449B00BA681344AE
:103CA8001846002114F07CFB87ED060A13F0ACFBE4
:103CB80003461B68002B03D0032387F8273018E03E
:103CC80097ED060A08F0BCF90346092B14BF002338
:103CD8000123DBB2FB75FB7D012B06D0042387F89B
:103CE80027300E4B18221A7003E002E0032387F8EE
:103CF800273097F82730002B00D005E03B6A0133C6
:103D08003B623B6A002BA8DD97F827301846283716
:103D1800BD4680BDDC0100208CF401087C0B00202E
:103D280080B58CB002AFF860B9601346FB71002310
:103D380087F82730FB79364A0092F868B9681A463E
:103D48000123FEF7F7F80346002B5BD0FF23FB7730
:103D580000233B6253E02E4B3A6A53F82220FB794A
:103D6800F86811461A4600F0E9FA0346FB7797F916
:103D78001F30002B3BDB3B6A002B35D1254813F065
:103D88008FFB13F041FB034600221A6097F91F20AE
:103D98001346DB0013449B00BA68134418460021FD
:103DA80014F0FEFA87ED060A13F02EFB03461B6893
:103DB800002B03D0032387F8273018E097ED060A75
:103DC80008F072F90346092B14BF00230123DBB264
:103DD800FB75FB7D012B06D0042387F827300E4B9B
:103DE80018221A7003E002E0032387F8273097F8B7
:103DF8002730002B00D005E03B6A01333B623B6A69
:103E0800002BA8DD97F8273018462837BD4680BD17
:103E1800E00100208CF401087C0B002080B586B0FE
:103E280000AFF860B9601346FB710023FB7508F01A
:103E38006FF90346092B14BF00230123DBB2BB75BE
:103E4800BB7D012B04D00423FB75044B18221A7088
:103E5800FB7D18461837BD4680BD00BF7C0B00208F
:103E680080B586B000AFF860B9601346FB710023D7
:103E7800FB7508F0A7F8FB7D18461837BD4680BDCE
:103E88002DE9B0438CB002AFF860B9601346FB71FE
:103E9800002387F82730FB79704A0092F868B968E0
:103EA8001A460123FEF746F80346002B00F0C980A6
:103EB800FF23BB760023FB614BE0684BFA6953F89C
:103EC8002220FB79F86811461A4600F037FA0346B3
:103ED800BB7697F91A30002B33DBFB69002B2DD109
:103EE8005F4813F0DDFAFA691346DB0013449B00C0
:103EF800BA68134418460021102214F0EBFBC7E9F6
:103F080004015848D7E9042313F0CAFA3B69BB8473
:103F1800D7E90423140C44EA03441D0C23467B848C
:103F2800D7E9042398464FF0000943463B84398C6F
:103F38007A8CBB8C4C4813F0B3FA02E0032387F861
:103F4800273097F82730002B00D005E0FB690133B4
:103F5800FB61FB69002BB0DD97F82730002B6FD190
:103F680012F092F8F32012F0B1F912F0FBF90346BF
:103F7800FB76FB7E092B09D03C4813F091FA3C4BA9
:103F880018221A70042387F8273056E03B8C1B0A46
:103F98009BB2DBB23748194612F064F90346FB7648
:103FA800FB7E092B07D13B8CDBB23348194612F054
:103FB80059F90346FB76FB7E092B09D17B8C1B0A3A
:103FC8009BB2DBB22D48194612F04CF90346FB763A
:103FD800FB7E092B07D17B8CDBB22948194612F0EE
:103FE80041F90346FB76FB7E092B09D1BB8C1B0AE2
:103FF8009BB2DBB22348194612F034F90346FB762C
:10400800FB7E092B07D1BB8CDBB21F48194612F087
:1040180029F90346FB76FB7E092B05D11B480021B5
:1040280012F020F90346FB76FB7E092B05D0104BD6
:1040380018221A70042387F8273012F03BF806E09C
:1040480005E0134813F02CFA012387F8273097F876
:10405800273018462837BD46BDE8B083E401002064
:1040680090F20108A8F20108ACF40108E8F401088C
:104078007C0B00200078FF1F0178FF1F0278FF1FCC
:104088000378FF1F0478FF1F0578FF1F007AFF1FC2
:1040980008F5010880B58CB002AFF860B960134626
:1040A800FB71002387F827300123FB77FB79504AFF
:1040B8000092F868B9681A460123FDF73BFF0346EA
:1040C800002B00F08880FF23BB750023BB613AE01A
:1040D800474BBA6953F82220FB79F86811461A460B
:1040E80000F02CF90346BB7597F91630002B22DB3C
:1040F800BB69002B1CD13F4813F0D2F9BA691346AB
:10410800DB0013449B00BA6813443B6202E0FB7F68
:104118000133FB77FB7F3A6A13441B78002BF6D1F7
:10412800FB7F1F2B03D8032387F8273003E002E027
:10413800032387F8273097F82730002B00D005E0B5
:10414800BB690133BB61BB69002BC1DD97F8273020
:10415800002B3FD111F098FFF32012F0B7F812F0BE
:1041680001F90346FB75FB7D092B09D0224813F0A2
:1041780097F9224B18221A70042387F8273026E073
:1041880000237B750DE07A7D1D4B13441A467B7D19
:10419800396A0B441B781046194612F063F8034637
:1041A800FB75FB7D092B03D17A7DFB7F9A42EAD30D
:1041B8001448002112F056F80346FB75FB7D092BC5
:1041C80005D00E4B18221A70042387F8273011F0F7
:1041D80071FF06E005E00C4813F062F9012387F847
:1041E800273097F8273018462837BD4680BD00BFCE
:1041F800E401002090F20108E8F401087C0B00209B
:104208002078FF1F017AFF1F08F5010880B485B0E8
:1042180000AFF860B9601346FB71002318461437E5
:10422800BD465DF8047B704780B500AF00F002F82A
:1042380080BD00BF80B483B000AF00237B6007E07F
:104248000A4A7B68134400221A707B6801337B603A
:104258007B68B3F5007FF3D3044B0022A3F8002258
:104268000C37BD465DF8047B704700BF7809002015
:1042780080B582B000AF0346FB71FB79002B58D0A4
:104288002D4BB3F80032B3F5007F52D2FB790A2BDD
:1042980002D0FB790D2B04D1FDF72AFCFFF7CAFFEA
:1042A80047E0FB79082B02D0FB797F2B14D1224BF6
:1042B800B3F80032002B0ED01F4BB3F80032013B8D
:1042C8009AB21D4BA3F800221B4BB3F800321A4ACE
:1042D8000021D1542DE02CE0FB79202B1BD1164B6B
:1042E800B3F80032002B24D0134BB3F80032013B53
:1042F800114AD35C202B1CD00F4BB3F800320E4A66
:10430800F979D1540C4BB3F8003201339AB20A4B05
:10431800A3F800220DE0084BB3F80032064AF979F9
:10432800D154054BB3F8003201339AB2024BA3F8CB
:1043380000220837BD4680BD7809002080B586B0C8
:1043480000AFF860B9601346FB71FF23FB750023CB
:104358003B6113E03A691346DB0013449B00FA689B
:1043680013441846B968FBF735FF0346002B02D102
:104378003B69FB7506E03B6901333B61FA793B69B0
:104388009A42E7D8FB7D5BB218461837BD4680BD18
:1043980080B588B000AFF860B9601346FB710023A0
:1043A800FB77FF23BB7700237B7772233B770023C0
:1043B800FB7600237B6100BFFB7E184608F04CFEAD
:1043C8003B7F184608F004FF7B7F184608F098FEEC
:1043D800FB7F18462037BD4680BD00BF80B582B040
:1043E80000AF0023FB7103F08BFCFB7918460837FC
:1043F800BD4680BD80B588B000AFF860B96013468F
:10440800FB710023FB77FB79F868B9681A46FFF758
:10441800BFFF0346FB770023BB77FF23FB75002311
:10442800BB6129E01A4BBA6953F82220FB79F86876
:1044380011461A46FFF782FF0346FB7597F91730B6
:10444800002B14DBBB69002B0ED197F917201346FC
:10445800DB0013449B00BA681344184608F090FA2E
:104468000346BB7700BF04E01923FB7701E01A235A
:10447800FB77BB690133BB61BB69002BD2D0BB7F23
:10448800184603F075FCFB7F18462037BD4680BDF3
:104498007801002080B584B000AF0123FB7301F0E0
:1044A80065FE87ED020A01F08FFE87ED010A97EDA0
:1044B800027ADFED0A7AB4EEE77AF1EE10FA06DC5A
:1044C800D7ED017AF5EEC07AF1EE10FA01D50023A6
:1044D800FB73FB7B18461037BD4680BD0000484281
:1044E80080B588B000AFF860B9607A60FB700023CF
:1044F800FB77FF23FB750023BB613FE02A4BBA69BA
:1045080053F82220FB78B86811461A46FFF716FFC1
:104518000346FB7597F91730002B26DB97F9172010
:104528001346DB0013449B007A6813443B61BB6964
:10453800012B0AD0012B02D3022B0CD011E03869D1
:1045480008F01EFA0346BB770EE0386908F02CFA2B
:1045580003467B7708E0386908F098FA03463B770A
:1045680002E01923FB7702E001E01A23FB77FB7FC7
:10457800002B00D005E0BB690133BB61BB69022B8E
:10458800BCD9FB7F002B0AD1797F3A7FBB7F0846D5
:1045980011461A4607F00CFB0246FB681A60FB7FBF
:1045A80018462037BD4680BD7C01002080B58EB0FE
:1045B80002AFF860B9601346FB71002387F82F300B
:1045C800FF23FB760023FB6184E0534BFA6953F821
:1045D8002220FB79F86811461A46FFF7AFFE03461A
:1045E800FB7697F91B30002B69DB97F91B201346E4
:1045F800DB0013449B00BA6813447B61FB69052BFD
:1046080058D801A252F823F029460008514600085C
:104618005F4600086D4600087B460008894600088A
:1046280000233B6107F1100378691946002213F053
:10463800BDFF0346BB623A697B699A4202D11923DE
:1046480087F82F3000BF39E0786908F01FFA034671
:1046580087F8253032E0786908F0A6F9034687F82C
:1046680026302BE0786908F08BF9034687F8273065
:1046780024E0786907F052FA034687F824301DE0F1
:10468800264B00221A6097F91B201346DB001344BF
:104698009B00BA6813441846002113F081FE87ED89
:1046A800080A1E4B1B68002B03D0192387F82F30EC
:1046B80004E003E0192387F82F3003E002E01A230F
:1046C80087F82F3097F82F30002B00D006E0FB69D1
:1046D8000133FB61FB69052B7FF677AF97F82F3025
:1046E800002B13D197F8261097F8252097F8273034
:1046F80097F824000090B86A97ED080A07F03AFD89
:104708000346092B02D0182387F82F3097F82F304B
:1047180018463037BD4680BDC00100200810012072
:1047280080B582B000AF0346FB71FB79184600F0F4
:1047380019F80346002B0AD0FA791346DB009B1AB6
:10474800DB00064A1344184600F01EF802E004484D
:1047580012F0A6FE0837BD4680BD00BF880B0020BA
:1047680068F5010880B483B000AF0346FB71FB799C
:104778000F2B01D8012300E0002318460C37BD4653
:104788005DF8047B704700BF80B483B000AF7860E9
:104798007B6801221A707B6801229A7679684FF04B
:1047A80000024FF00003C1E908237B6802330C4A7A
:1047B8001068186012791A717B68FF225A707B683A
:1047C800032283F8302079684FF000024FF000038D
:1047D800C1E90A230C37BD465DF8047B704700BF6A
:1047E800C8F5010880B584B000AF78600B46FB704F
:1047F8007B685B7803F00703DBB24FF4E06019468F
:1048080007F0CAFE0346FB737B685B78BB73BB7B10
:10481800072B02D9BB7B083BBB73BB7B012202FA87
:1048280003F37B73FB78012B04D1FA7B7B7B134367
:10483800FB7303E0FA7B7B7B5340FB737B685B78FD
:1048480003F00703DBB2FA7B4FF4E06011461A4627
:1048580007F052FE1037BD4680BD00BF80B582B05C
:1048680000AF00237B600CE07A681346DB009B1ADC
:10487800DB00074A13441846FFF786FF7B680133BD
:104888007B607B680F2BEFD90837BD4680BD00BF22
:10489800880B00202DE9F04194B002AF002387F87F
:1048A800473006F0B5FE394B394A14461D4604F127
:1048B80030082E46A446BCE80F0030607160B26034
:1048C800F360103410354445F3D12B462246128844
:1048D8001A80312387F83F3097F83F30002B06D1F4
:1048E8002C4812F0DDFD162387F8473046E02A4BA6
:1048F8001B68002B03D0284B1B68244898470023CB
:104908003B6438E025493A6C1346DB009B1ADB0010
:104918000B443C461D460FCD0FC40FCD0FC40FCD21
:104928000FC495E8030084E803003B78002B1FD1EF
:104938007B783A460232009214484FF40071184AC4
:1049480012F014FE034687F83F3097F83F30002BEB
:1049580006D1144812F0A4FD162387F847300DE05D
:104968000D4B1B68002B03D00B4B1B68074898475F
:104978003B6C01333B643B6C0F2BC3D997F8473032
:1049880018464837BD46BDE8F08100BF4CE5002019
:10499800D0F5010804F60108800B0020880B0020E0
:1049A80038F601085CF6010880B590B000AFF860F1
:1049B800B9607A60002387F83F300023BB62FF2389
:1049C80087F83730FF2387F83E30FF2387F83630E3
:1049D80007F110035A4A92E803001860043319706B
:1049E8000023BB6366E0574BBA6B53F822207B6801
:1049F800DBB2F86811461A46FFF7A0FC034687F8B1
:104A0800373097F93730002B3DDB97F937201346BD
:104A1800DB0013449B00BA6813443B63BB6B002B59
:104A280002D0012B23D029E007F12803386B19465F
:104A38000A2213F0BBFD034687F83630BA6A3B6B8F
:104A48009A4203D1122387F83F300FE097F83630A7
:104A5800102B04D897F8363087F83E3006E03A48ED
:104A680012F01EFD0F2387F83F300BE00AE007F134
:104A780010031846396B12F0DCFD03E0122387F8A7
:104A88003F300FE00EE0BB6B012B00D10FE02D4B48
:104A9800BA6B53F822302D48194612F001FD102345
:104AA80087F83F3097F83F30002B00D005E0BB6B0C
:104AB8000133BB63BB6B012B95DD97F83F30002BAF
:104AC80038D197F83E30FF2B31D097F83E30184652
:104AD80000F0D2F8F862FB6A002B24D0FB6A1B783E
:104AE800002B1CD0FB6A97F83E205A70FB6A9A1C70
:104AF80007F110031046194612F09BFDFB6A0122CC
:104B08009A76F96A4FF000024FF00003C1E90823D2
:104B1800F86A00F01DF8034687F83F300AE01423CE
:104B280087F83F3006E0112387F83F3002E013236F
:104B380087F83F3097F83F3018464037BD4680BD6C
:104B4800C8F50108AC01002090F60108CCF6010870
:104B580080B584B000AF78600023FB737B685B7816
:104B6800BB73BB7B0F2B07D87B6800221A70786851
:104B78000121FFF737FE04E0044812F091FC0F23EF
:104B8800FB73FB7B18461037BD4680BD04F7010850
:104B980080B58AB000AFF860B9607A60002387F802
:104BA8002730FF23FB7700233B6255E02F4B3A6AFF
:104BB80053F822207B68DBB2F86811461A46FFF7E3
:104BC800BDFB0346FB7797F91F30002B36DB97F9BF
:104BD8001F201346DB0013449B00BA681344BB61D3
:104BE8003B6A002B26D100233B6107F11003B8690B
:104BF80019460A2213F0DAFC0346FB753A69BB69C9
:104C08009A4203D1122387F8273011E0FB7D18461A
:104C1800FFF7A8FD0346002B04D0FB7D1846FFF7DD
:104C28007FFD05E0124812F03BFC0F2387F8273080
:104C380000BF0EE0122387F827300AE00B4B3A6AD0
:104C480053F822300B48194612F02AFC102387F833
:104C580027303B6A01333B623B6A002BA6D097F8AA
:104C6800273018462837BD4680BD00BFB401002054
:104C780068F70108CCF6010880B582B000AF03469A
:104C8800FB71FB791846FFF76DFD0346002B07D033
:104C9800FA791346DB009B1ADB00054A134403E04C
:104CA800044812F0FDFB002318460837BD4680BDB6
:104CB800880B0020A4F7010880B58CB000AFF8601D
:104CC800B9601346FB71002387F82F30FF2387F85C
:104CD8002730FF2387F82E30002387F82D30002354
:104CE800BB6268E04D4BBA6A53F82220FB79F8683A
:104CF80011461A46FFF722FB034687F8273097F933
:104D08002730002B44DB97F927201346DB00134498
:104D18009B00BA6813443B62BB6A002B02D0012B8C
:104D280022D030E000237B6107F11403386A19466A
:104D38000A2213F03BFC0346FB777A693B6A9A42E6
:104D480003D1122387F82F300CE0FB7F102B03D8F8
:104D5800FB7F87F82E3005E0314812F0A1FB0F23C6
:104D680087F82F3000BF12E0386A2E49FBF732FA75
:104D78000346002B03D1012387F82D3007E00023D9
:104D880087F82D3003E0122387F82F300BE00AE074
:104D9800224BBA6A53F822302348194612F080FB96
:104DA800102387F82F3097F82F30002B00D005E01C
:104DB800BB6A0133BB62BB6A012B93DD97F82F30C6
:104DC800002B25D197F82E30FF2B1ED097F82E30C8
:104DD8001846FFF751FFB861BB69002B11D0BB69BA
:104DE8001B78002B06D197F82D30B8691946FFF7C4
:104DF800F9FC0DE00D4812F053FB152387F82F300E
:104E080006E0112387F82F3002E0132387F82F30AC
:104E180097F82F3018463037BD4680BD9C010020DA
:104E280090F6010808F80108CCF601080CF801080A
:104E380080B483B000AF7860034B7A681A600C378F
:104E4800BD465DF8047B7047800B002090B585B0A7
:104E580000AF13460246FA710A46BA717B71002305
:104E6800FB73BB790133DBB27A7902FB03F3BB73C3
:104E7800BB7B0F2B18D8BA7B10491346DB009B1A53
:104E8800DB000B443033FA791A70BC7B06F05CF90E
:104E98000A4A2346DB001B1BDB0013442833C3E903
:104EA80000010123FB7304E0054812F0F9FA00231E
:104EB800FB73FB7B18461437BD4690BD880B00205A
:104EC80038F9010880B584B000AF0346FB710023B0
:104ED800FB73FB79172B00F2E88001A252F823F04C
:104EE800494F0008574F0008654F0008754F0008E4
:104EF800854F0008934F0008A14F0008B14F0008E4
:104F0800C14F0008D14F0008E14F0008EF4F0008DB
:104F1800FF4F00080D5000081B50000829500008DA
:104F280039500008495000085750000865500008DB
:104F3800755000088350000893500008A3500008DB
:104F48005F48202110F0E0FF0346FB73AEE05C48A9
:104F5800102110F0D9FF0346FB73A7E059484FF41E
:104F6800807110F0D1FF0346FB739FE055484FF462
:104F7800006110F0C9FF0346FB7397E05248012116
:104F880010F0C2FF0346FB7390E04F48102110F069
:104F9800BBFF0346FB7389E04C484FF4006110F0F7
:104FA800B3FF0346FB7381E048484FF4004110F01B
:104FB800ABFF0346FB7379E041484FF4807110F072
:104FC800A3FF0346FB7371E03D484FF4805110F096
:104FD8009BFF0346FB7369E03B48402110F094FFB8
:104FE8000346FB7362E038484FF4006110F08CFF11
:104FF8000346FB735AE03248082110F085FF034648
:10500800FB7353E02E48042110F07EFF0346FB7328
:105018004CE02B48402110F077FF0346FB7345E036
:105028002B484FF4804110F06FFF0346FB733DE0BF
:1050380026484FF4007110F067FF0346FB7335E014
:105048002148042110F060FF0346FB732EE021483D
:10505800022110F059FF0346FB7327E01B484FF469
:10506800005110F051FF0346FB731FE01A4802215C
:1050780010F04AFF0346FB7318E011484FF48061B3
:1050880010F042FF0346FB7310E00F484FF48071A5
:1050980010F03AFF0346FB7308E00B484FF48061B9
:1050A80010F032FF0346FB7300E000BFFB7B002BD0
:1050B80001D0002300E0012318461037BD4680BD0B
:1050C8000010024000200240001C02400014024070
:1050D80000080240000402400018024080B483B077
:1050E80000AF0346FB71FB79172B01D8012300E0C1
:1050F800002318460C37BD465DF8047B704700BF97
:1051080080B483B000AF78607B6801221A707B6836
:1051180001229A7679684FF000024FF00003C1E946
:1051280008237B680233064A1068186012791A71DE
:105138007B68FF225A700C37BD465DF8047B7047C8
:1051480084F9010880B582B000AF0346FB71FB7992
:105158001846FFF7C3FF0346002B0AD0FA79134617
:105168009B001344DB00064A13441846FFF7C8FFA8
:1051780002E0044812F094F90837BD4680BD00BF2C
:10518800100F00208CF9010880B584B000AF4FF4EF
:10519800FB70012110F04EFD00233B720023FB72CF
:1051A80002237B603B1D2448194610F01FFE4FF474
:1051B80080437B603B1D2148194610F017FE41F2E1
:1051C8007C537B603B1D1E48194610F00FFE4FF4C0
:1051D8002A437B603B1D1B48194610F007FE02233B
:1051E8007B603B1D1848194610F000FE40F65553E9
:1051F8007B603B1D1548194610F0F8FD4FF410630D
:105208007B603B1D1248194610F0F0FD0023FB603F
:105218000CE0FA6813469B001344DB000D4A134464
:105228001846FFF76DFFFB680133FB60FB68172B1F
:10523800EFD91037BD4680BD000402400008024087
:10524800001002400014024000180240001C0240F6
:1052580000200240100F00202DE9F04190B002AF6D
:10526800002387F83730384B384A14461D4604F176
:1052780030082E46A446BCE80F0030607160B2606A
:10528800F360103410354445F3D12B46224612788A
:105298001A70302387F82F3097F82F30002B06D15B
:1052A8002B4812F0FDF80E2387F8373044E0294BDD
:1052B8001B68002B03D0274B1B6823489847002303
:1052C8003B6336E024493A6B13469B001344DB00EA
:1052D8000B443C461D460FCD0FC40FCD0FC495E8B7
:1052E800030084E803003B78002B1FD17B783A4603
:1052F8000232009214484FF40071184A12F036F93D
:10530800034687F82F3097F82F30002B06D1144822
:1053180012F0C6F80E2387F837300DE00D4B1B68E6
:10532800002B03D00B4B1B68074898473B6B013396
:105338003B633B6B172BC5D997F83730184638377E
:10534800BD46BDE8F08100BF4CE50020ECF901083E
:1053580020FA0108080F0020100F002050FA010859
:1053680074FA010880B590B000AFF860B9607A604F
:10537800002387F83F300023BB62FF2387F83730CC
:10538800FF2387F83E30FF2387F8363007F11003F4
:10539800594A92E803001860043319700023BB636C
:1053A80066E0564BBA6B53F822207B68DBB2F8688C
:1053B80011461A46FEF7C2FF034687F8373097F9B9
:1053C8003730002B3DDB97F937201346DB001344B9
:1053D8009B00BA6813443B63BB6B002B02D0012BC4
:1053E80023D029E007F12803386B19460A2213F065
:1053F800DDF8034687F83630BA6A3B6B9A4203D128
:105408000B2387F83F300FE097F83630182B04D875
:1054180097F8363087F83E3006E0394812F040F801
:10542800082387F83F300BE00AE007F1100318461D
:10543800396B12F0FEF803E00B2387F83F300FE0DA
:105448000EE0BB6B012B00D10FE02C4BBA6B53F86D
:1054580022302C48194612F023F8092387F83F30E8
:1054680097F83F30002B00D005E0BB6B0133BB63DE
:10547800BB6B012B95DD97F83F30002B36D197F8A1
:105488003E30FF2B2FD097F83E30184600F0D2F868
:10549800F862FB6A002B24D0FB6A1B78012B1CD115
:1054A800FB6A97F83E205A70FB6A9A1C07F11003B2
:1054B8001046194612F0BDF8FB6A01229A76F96A7D
:1054C8004FF000024FF00003C1E90823F86A00F02A
:1054D8001BF8034687F83F3008E00D2387F83F3074
:1054E80004E00A2304E00C2387F83F3097F83F30A4
:1054F80018464037BD4680BD84F901089001002058
:10550800A4FA0108E0FA010880B584B000AF786019
:105518000023FB737B685B78BB73BB7B172B06D8B8
:105528007B6800221A70074811F0BAFF04E00648A9
:1055380011F0B6FF0823FB73FB7B18461037BD46F6
:1055480080BD00BF14FB01084CFB010880B58AB080
:1055580000AFF860B9607A60002387F82730FF232E
:10556800FB7700233B6255E02F4B3A6A53F8222021
:105578007B68DBB2F86811461A46FEF7DFFE034681
:10558800FB7797F91F30002B36DB97F91F2013465E
:10559800DB0013449B00BA681344BB613B6A002BD1
:1055A80026D100233B6107F11003B86919460A2286
:1055B80012F0FCFF0346FB753A69BB699A4203D1B6
:1055C8000B2387F8273011E0FB7D1846FFF786FD8F
:1055D8000346002B04D0FB7D1846FFF7B3FD05E01A
:1055E800124811F05DFF082387F8273000BF0EE04E
:1055F8000B2387F827300AE00B4B3A6A53F822301E
:105608000B48194611F04CFF092387F827303B6AED
:1056180001333B623B6A002BA6D097F82730184627
:105628002837BD4680BD00BF98010020A4FA0108B4
:10563800E0FA010880B582B000AF0346FB71FB7940
:105648001846FFF74BFD0346002B07D0FA7913469F
:105658009B001344DB00054A134403E0044811F09F
:105668001FFF002318460837BD4680BD100F0020D5
:105678008CF9010880B582B000AF786005F064FD50
:1056880002460B467968C1E908237B685B781846AF
:10569800FFF718FC03461A467B689A760837BD461A
:1056A80080BD00BF80B483B000AF7860034B7A68D8
:1056B8001A600C37BD465DF8047B7047080F002060
:1056C8002DE9F04188B004AF78607B6803F10208E7
:1056D8007B685B781E467B68D3E908457B689B7EC0
:1056E800184605F073FF0346CDE9004502930C48C0
:1056F8000C494246334611F06BFF0346FB730A4BD5
:105708001B68002B04D0084B1B680548984702E02B
:10571800064811F0C5FE1037BD46BDE8F08100BF50
:105728004CE50020ACFB0108080F00202CFC010808
:1057380080B483B000AF0346FB71FA79044B53F889
:10574800223018460C37BD465DF8047B704700BF11
:10575800E801002080B500AF034811F0A1FE034B1B
:1057680000221A7080BD00BF80FC0108D012002002
:1057780080B500AF134B1B78002B0AD0114B1B7858
:105788001846FFF7D5FF03460F48194611F088FE63
:1057980016E00E4811F084FE06F072FE0C4806F082
:1057A80057FF0C4B00221A600B4B00221A600B4B60
:1057B80000221A600A4B00221A70024B01221A704A
:1057C80080BD00BFD0120020B0FC0108F8FC010821
:1057D800554E0008D4120020D8120020DC120020F8
:1057E800E012002080B582B000AF2E4B1B78042B4E
:1057F80054D801A252F823F0155800081B58000885
:10580800A55800082158000887580008FFF7B0FF7E
:1058180045E000F061F842E000233B60224B1A6843
:10582800224B1B689A421FD2214B1B78012B05D1B2
:105838001D4B1B685A1C1C4B1A6030E000237B6010
:1058480009E01C4B1A687B689B0013441B683B608B
:105858007B6801337B607B680F2BF2D9124B1B6886
:105868005A1C114B1A601AE0134811F019FE13481C
:1058780005F040FB00F030F800F0FEFB0FE00A4BAB
:1058880000221A60094B00221A600A4B00221A6093
:10589800074B00221A7000F01FF800E000BF08371D
:1058A800BD4680BDD0120020D8120020D41200209E
:1058B800E0120020DC12002030FD010864FD010820
:1058C80080B500AF034811F0EBFD00F005F800F0DB
:1058D800D3FB80BD84FD010880B500AF0C4B1B785D
:1058E800012B0ED00A4B1B78032B0AD0084B1B78D0
:1058F8001846FFF71DFF03460648194611F0D0FD6C
:1059080005E0054811F0CCFD014B02221A7080BD5C
:10591800D0120020B0FD0108F0FD010880B586B066
:1059280000AFF860B9601346FB71384B1B78022B47
:105938000AD0364B1B781846FFF7FAFE0346344860
:10594800194611F0ADFD5EE0FB68002B03D131482C
:1059580011F0A6FD57E0FB79012B0ED1FB681B68FF
:10596800002B03D12C4811F09BFD4CE02B4B00225F
:105978001A702B4B01221A701DE00023FB750AE0F8
:10598800FB7D9B00FA6813441B68002B00D005E0E0
:10599800FB7D0133FB75FB7D0F2BF1D9FB7D0F2BB5
:1059A80003D9204811F07CFD2DE01C4BFA7D1A70BC
:1059B8001B4B10221A701C4BFA681A600023BB7527
:1059C800194B1A68154B1B789B0013441B683B61E5
:1059D8000DE0154B1A68BB7D0133BB75BB7D9B0081
:1059E80013441B683B61BB7D102B00D10BE03B6966
:1059F800002BEED00D4B00221A600D4BBA681A60CE
:105A0800024B03221A701837BD4680BDD012002001
:105A180020FE01086CFE0108DCFE0108E1120020EE
:105A2800E012002048FF0108DC120020D8120020F4
:105A3800D412002080B483B000AF0346FB71FA791A
:105A4800044B53F8223018460C37BD465DF8047BEA
:105A5800704700BFFC01002080B500AF034811F07B
:105A68001FFD034B00221A7080BD00BF40000208D2
:105A7800E212002080B500AF104B1B78002B0AD033
:105A88000E4B1B781846FFF7D5FF03460C481946FE
:105A980011F006FD11E00B4811F002FD0A4B00223F
:105AA8001A600A4B00221A60094B00221A60094B3F
:105AB80000221A70014B01221A7080BDE2120020E8
:105AC80070000208B8000208E4120020E812002062
