:020000040800F2
:100000000000022039180008C9150008D51500089D
:100010003D170008451700084D17000800000000B4
:10002000000000000000000000000000911800081F
:10003000551700080000000091180008611700081B
:1000400091180008911800089118000891180008EC
:1000500091180008911800089118000891180008DC
:1000600091180008911800089118000891180008CC
:1000700091180008911800089118000891180008BC
:1000800091180008911800089118000891180008AC
:10009000F517000891180008911800089118000839
:1000A000911800089118000891180008911800088C
:1000B000911800089118000891180008911800087C
:1000C000911800089118000891180008911800086C
:1000D000911800089118000891180008911800085C
:1000E0006D17000891180008911800089118000871
:1000F000911800089118000891180008911800083C
:10010000911800089118000891170008911800082C
:10011000911800089118000891180008911800081B
:10012000911800089118000891180008911800080B
:1001300091180008911800089118000891180008FB
:1001400091180008911800089118000891180008EB
:1001500091180008911800089118000891180008DB
:1001600091180008911800089118000891180008CB
:1001700091180008911800089118000891180008BB
:08018000911800089118000815
:1001880010B5054C237833B9044B13B10448AFF3C9
:1001980000800123237010BDB0080020000000007B
:1001A80004B0010808B5064B1BB106480649AFF371
:1001B80000800648036813B1054B03B1984708BD92
:1001C8000000000004B00108B4080020AC080020BA
:1001D8000000000010F8012B11F8013B012A28BF8C
:1001E8009A42F7D0D01A704781F0004102E000BF70
:1001F80083F0004330B54FEA41044FEA430594EADF
:10020800050F08BF90EA020F1FBF54EA000C55EA19
:10021800020C7FEA645C7FEA655C00F0E2804FEAEA
:100228005454D4EB5555B8BF6D420CDD2C4480EACC
:10023800020281EA030382EA000083EA010180EAFC
:10024800020281EA0303362D88BF30BD11F0004F4A
:100258004FEA01314FF4801C4CEA113102D0404280
:1002680061EB410113F0004F4FEA03334CEA1333BB
:1002780002D0524263EB430394EA050F00F0A780D3
:10028800A4F10104D5F1200E0DDB02FA0EFC22FACE
:1002980005F2801841F1000103FA0EF2801843FAC2
:1002A80005F359410EE0A5F120050EF1200E012AB3
:1002B80003FA0EFC28BF4CF0020C43FA05F3C018F1
:1002C80051EBE37101F0004507D54FF0000EDCF16A
:1002D800000C7EEB00006EEB0101B1F5801F1BD313
:1002E800B1F5001F0CD349085FEA30004FEA3C0C17
:1002F80004F101044FEA445212F5800F80F09A800D
:10030800BCF1004F08BF5FEA500C50F1000041EB10
:10031800045141EA050130BD5FEA4C0C404141EB14
:10032800010111F4801FA4F10104E9D191F0000F3B
:1003380004BF01460020B1FA81F308BF2033A3F1BE
:100348000B03B3F120020CDA0C3208DD02F1140CB5
:10035800C2F10C0201FA0CF021FA02F10CE002F1F0
:100368001402D8BFC2F1200C01FA02F120FA0CFCE9
:10037800DCBF41EA0C019040E41AA2BF01EB045132
:10038800294330BD6FEA04041F3C1CDA0C340EDC30
:1003980004F11404C4F1200220FA04F001FA02F373
:1003A80040EA030021FA04F345EA030130BDC4F131
:1003B8000C04C4F1200220FA02F001FA04F340EA26
:1003C8000300294630BD21FA04F0294630BD94F0D7
:1003D800000F83F4801306BF81F480110134013DBE
:1003E8004EE77FEA645C18BF7FEA655C29D094EA2F
:1003F800050F08BF90EA020F05D054EA000C04BFAD
:100408001946104630BD91EA030F1EBF0021002097
:1004180030BD5FEA545C05D14000494128BF41F036
:10042800004130BD14F580043CBF01F5801130BD9A
:1004380001F0004545F0FE4141F470014FF0000025
:1004480030BD7FEA645C1ABF194610467FEA655CD6
:100458001CBF0B46024650EA013406BF52EA033578
:1004680091EA030F41F4002130BD00BF90F0000F66
:1004780004BF0021704730B54FF4806404F13204A2
:100488004FF000054FF0000150E700BF90F0000F5B
:1004980004BF0021704730B54FF4806404F1320482
:1004A80010F0004548BF40424FF000013EE700BF52
:1004B80042004FEAE2014FEA31014FEA02701FBFE2
:1004C80012F07F4393F07F4F81F06051704792F0B4
:1004D800000F14BF93F07F4F704730B54FF460742E
:1004E80001F0004521F0004120E700BF50EA010279
:1004F80008BF704730B54FF000050AE050EA010226
:1005080008BF704730B511F0004502D5404261EB95
:1005180041014FF4806404F132045FEA915C3FF4D6
:10052800DCAE4FF003025FEADC0C18BF03325FEA6F
:10053800DC0C18BF033202EBDC02C2F1200300FA24
:1005480003FC20FA02F001FA03FE40EA0E0021FA49
:1005580002F11444C1E600BF70B54FF0FF0C4CF433
:10056800E06C1CEA11541DBF1CEA135594EA0C0FE9
:1005780095EA0C0F00F0DEF82C4481EA030621EA24
:100588004C5123EA4C5350EA013518BF52EA03355F
:1005980041F4801143F4801338D0A0FB02CE4FF011
:1005A8000005E1FB02E506F00042E0FB03E54FF041
:1005B8000006E1FB03569CF0000F18BF4EF0010E39
:1005C800A4F1FF04B6F5007F64F5407404D25FEA35
:1005D8004E0E6D4146EB060642EAC62141EA5551E8
:1005E8004FEAC52040EA5E504FEACE2EB4F1FD0C2A
:1005F80088BFBCF5E06F1ED8BEF1004F08BF5FEAA8
:10060800500E50F1000041EB045170BD06F0004659
:1006180046EA010140EA020081EA0301B4EB5C0406
:10062800C2BFD4EB0C0541EA045170BD41F48011FE
:100638004FF0000E013C00F3AB8014F1360FDEBF23
:10064800002001F0004170BDC4F10004203C35DAFF
:100658000C341BDC04F11404C4F1200500FA05F382
:1006680020FA04F001FA05F240EA020001F0004223
:1006780021F0004110EBD37021FA04F642EB060199
:100688005EEA430E08BF20EAD37070BDC4F10C04C3
:10069800C4F1200500FA04F320FA05F001FA04F287
:1006A80040EA020001F0004110EBD37041F1000173
:1006B8005EEA430E08BF20EAD37070BDC4F120057E
:1006C80000FA05F24EEA020E20FA04F301FA05F2E6
:1006D80043EA020321FA04F001F0004121FA04F28E
:1006E80020EA020000EBD3705EEA430E08BF20EA5E
:1006F800D37070BD94F0000F0FD101F00046400098
:1007080041EB010111F4801F08BF013CF7D041EA19
:10071800060195F0000F18BF704703F0004652001D
:1007280043EB030313F4801F08BF013DF7D043EAEE
:100738000603704794EA0C0F0CEA135518BF95EAA4
:100748000C0F0CD050EA410618BF52EA4306D1D12B
:1007580081EA030101F000414FF0000070BD50EA4A
:10076800410606BF1046194652EA430619D094EAD4
:100778000C0F02D150EA013613D195EA0C0F05D1BE
:1007880052EA03361CBF104619460AD181EA030112
:1007980001F0004141F0FE4141F470014FF00000CA
:1007A80070BD41F0FE4141F4780170BD70B54FF065
:1007B800FF0C4CF4E06C1CEA11541DBF1CEA1355E5
:1007C80094EA0C0F95EA0C0F00F0A7F8A4EB0504C7
:1007D80081EA030E52EA03354FEA013100F08880BE
:1007E8004FEA03334FF0805545EA131343EA126387
:1007F8004FEA022245EA111545EA10654FEA00263C
:100808000EF000419D4208BF964244F1FD0404F5F4
:10081800407402D25B084FEA3202B61A65EB030550
:100828005B084FEA32024FF480104FF4002CB6EB0D
:10083800020E75EB030E22BFB61A754640EA0C008D
:100848005B084FEA3202B6EB020E75EB030E22BFCD
:10085800B61A754640EA5C005B084FEA3202B6EB0E
:10086800020E75EB030E22BFB61A754640EA9C00CD
:100878005B084FEA3202B6EB020E75EB030E22BF9D
:10088800B61A754640EADC0055EA060E18D04FEA5B
:10089800051545EA16754FEA06164FEAC30343EAFB
:1008A80052734FEAC2025FEA1C1CC0D111F4801FC8
:1008B8000BD141EA00014FF000004FF0004CB6E7C1
:1008C80011F4801F04BF01430020B4F1FD0C88BF60
:1008D800BCF5E06F3FF6AFAEB5EB030C04BFB6EB6B
:1008E800020C5FEA500C50F1000041EB045170BD5E
:1008F8000EF0004E4EEA113114EB5C04C2BFD4EB8B
:100908000C0541EA045170BD41F480114FF0000E0E
:10091800013C90E645EA060E8DE60CEA135594EA8A
:100928000C0F08BF95EA0C0F3FF43BAF94EA0C0F8D
:100938000AD150EA01347FF434AF95EA0C0F7FF402
:1009480025AF104619462CE795EA0C0F06D152EA56
:1009580003353FF4FDAE1046194622E750EA41063A
:1009680018BF52EA43067FF4C5AE50EA41047FF44B
:100978000DAF52EA43057FF4EBAE12E74FF0FF3CB0
:1009880006E000BF4FF0010C02E000BF4FF0010C81
:100998004DF804CD4FEA410C7FEA6C5C4FEA430CFA
:1009A80018BF7FEA6C5C1BD001B050EA410C0CBF49
:1009B80052EA430C91EA030F02BF90EA020F0020AB
:1009C800704710F1000F91EA030F58BF994208BF12
:1009D80090422CBFD8176FEAE37040F001007047CF
:1009E8004FEA410C7FEA6C5C02D150EA013C07D126
:1009F8004FEA430C7FEA6C5CD6D152EA033CD3D071
:100A08005DF8040B704700BF8446104662468C466A
:100A18001946634600E000BF01B5FFF7B7FF00289D
:100A280048BF10F1000F01BD4DF808EDFFF7F4FFC6
:100A38000CBF012000205DF808FB00BF4DF808ED51
:100A4800FFF7EAFF34BF012000205DF808FB00BF74
:100A58004DF808EDFFF7E0FF94BF012000205DF896
:100A680008FB00BF4DF808EDFFF7CEFF94BF01204B
:100A780000205DF808FB00BF4DF808EDFFF7C4FF44
:100A880034BF012000205DF808FB00BF4FEA410297
:100A980012F5001215D211D56FF47873B3EB6252C8
:100AA80012D94FEAC12343F0004343EA505311F0EF
:100AB800004F23FA02F018BF404270474FF0000081
:100AC800704750EA013005D111F0004008BF6FF0BF
:100AD800004070474FF00000704700BF80F00040B2
:100AE80002E000BF81F0004142001FBF5FEA4103FE
:100AF80092EA030F7FEA226C7FEA236C6AD04FEAFE
:100B08001262D2EB1363C1BFD21841404840414042
:100B1800B8BF5B42192B88BF704710F0004F40F4F4
:100B2800000020F07F4018BF404211F0004F41F410
:100B3800000121F07F4118BF494292EA030F3FD0DC
:100B4800A2F1010241FA03FC10EB0C00C3F12003EF
:100B580001FA03F100F0004302D5494260EB40007E
:100B6800B0F5000F13D3B0F1807F06D340084FEAE9
:100B7800310102F10102FE2A51D2B1F1004F40EBDE
:100B8800C25008BF20F0010040EA03007047490046
:100B980040EB000010F4000FA2F10102EDD1B0FA11
:100BA80080FCACF1080CB2EB0C0200FA0CF0AABF06
:100BB80000EBC25052421843BCBFD04018437047A4
:100BC80092F0000F81F4000106BF80F400000132AA
:100BD800013BB5E74FEA41037FEA226C18BF7FEA81
:100BE800236C21D092EA030F04D092F0000F08BFC3
:100BF8000846704790EA010F1CBF0020704712F0AA
:100C08007F4F04D1400028BF40F00040704712F1E8
:100C180000723CBF00F50000704700F0004343F04D
:100C2800FE4040F4000070477FEA226216BF084683
:100C38007FEA23630146420206BF5FEA412390EA46
:100C4800010F40F4800070474FF0000304E000BF3C
:100C580010F0004348BF40425FEA000C08BF7047ED
:100C680043F0964301464FF000001CE050EA0102B1
:100C780008BF70474FF000030AE000BF50EA0102C6
:100C880008BF704711F0004302D5404261EB4101B3
:100C98005FEA010C02BF84460146002043F0B643D8
:100CA80008BFA3F18053A3F50003BCFA8CF2083AFD
:100CB800A3EBC25310DB01FA02FC634400FA02FC06
:100CC800C2F12002BCF1004F20FA02F243EB02000D
:100CD80008BF20F00100704702F1200201FA02FC6F
:100CE800C2F1200250EA4C0021FA02F243EB020062
:100CF80008BF20EADC7070474BB942B9002908BF29
:100D0800002802D04FF0FF31084600F05FB882B0EB
:100D1800EC462DE9005000F041F8DDF804E002B09F
:100D28000CBC704770B5FFF7C3FB00220D4B04469F
:100D38000D46FFF711FC00F04BF80646FFF796FB4F
:100D48000022094BFFF708FC02460B4620462946BD
:100D5800FFF74EFA00F03CF8002242EA0004204671
:100D6800314670BD0000F03D0000F0412DE97043B0
:100D7800069E14461D468046894600F049F804FB45
:100D880001F300FB0533A4FB00451D44B8EB040444
:100D980069EB0505C6E90045BDE870832DE9704398
:100DA800069E1446804689461D4600F07DF900FBE4
:100DB80005F504FB0153A0FB04451D44B8EB0404EE
:100DC80069EB0505C6E90045BDE87083704700BFBB
:100DD8004A0011D212F5001211D20DD56FF47873B2
:100DE800B3EB62520ED44FEAC12343F0004343EA07
:100DF800505323FA02F070474FF00000704750EA52
:100E0800013002D14FF0FF3070474FF000007047BB
:100E180000292DE9F00FC0F29F800024002BC0F2BA
:100E28009680154606460F46002B3ED18A4257D972
:100E3800B2FA82F34BB1C3F1200201FA03F720FAA8
:100E480002F29D40174300FA03F6290CB7FBF1F2B2
:100E5800330C01FB127CA8B243EA0C4700FB02F3F7
:100E6800BB4209D97F1902F1FF3C80F00181BB42E6
:100E780040F2FE80023A2F44FF1AB7FBF1F3B6B2F4
:100E880001FB137146EA014100FB03F0884208D9CF
:100E9800491903F1FF3780F0ED80884240F2EA807B
:100EA800023B43EA0242002303E08B420AD90023B3
:100EB8001A461046194614B1404261EB4101BDE89B
:100EC800F00F7047B3FA83F8B8F1000F40F0848050
:100ED8008B4202D3824200F2DE8000230122E8E73F
:100EE80012B90123B3FBF2F5B5FA85F2002A39D11C
:100EF8007F1B280C1FFA85FC0123B7FBF0F1320C8D
:100F080000FB117742EA07470CFB01F2BA4207D906
:100F18007F1901F1FF3802D2BA4200F2C18041467E
:100F2800BF1AB7FBF0F2B6B200FB127046EA0040F7
:100F38000CFB02FC844507D9401902F1FF3702D2A5
:100F4800844500F2AB803A4642EA0142B1E7E44305
:100F5800524263EB430364E7404261EB41014FF0C7
:100F6800FF345BE79540C2F1200327FA03F1280C10
:100F780026FA03F39740B1FBF0F81F433B0C00FB44
:100F880018111FFA85FC43EA01410CFB08F38B4258
:100F980006FA02F608D9491908F1FF3279D28B42CC
:100FA80077D9A8F102082944C91AB1FBF0F3BFB2F6
:100FB80000FB131147EA01470CFB03F2BA4207D9B9
:100FC8007F1903F1FF3160D2BA425ED9023B2F4448
:100FD800BF1A43EA084390E7C8F1200203FA08FC65
:100FE80025FA02F343EA0C0C4FEA1C4921FA02F3F2
:100FF80001FA08F720FA02F2B3FBF9F1174309FBEB
:1010080011333A0C1FFA8CFB42EA03430BFB01FA3B
:101018009A4505FA08F008D913EB0C0301F1FF32E1
:1010280035D29A4533D902396344CAEB0303B3FB7B
:10103800F9F209FB1233BFB247EA03470BFB02F987
:10104800B94508D917EB0C0702F1FF331BD2B94594
:1010580019D9023A674442EA0145A5FB0001C9EBE8
:1010680007078F424FF000030AD305D02A4620E72E
:10107800624601E73B4614E706FA08F68642F5D2CF
:101088006A1E002315E71A46E5E70B46A0E7114656
:10109800CBE7904688E7434642460AE7023A53E7D9
:1010A80002392F443CE700BF2DE9F00F14460546EE
:1010B8000E46002B43D18A4253D9B2FA82F757B170
:1010C800C7F1200620FA06F601FA07F302FA07F438
:1010D8001E4300FA07F5210CB6FBF1F22B0C01FBBD
:1010E8001267A0B243EA074600FB02F3B34209D9EC
:1010F800361902F1FF3780F0F680B34240F2F380F0
:10110800023A2644F61AB6FBF1F3ADB201FB1361BD
:1011180045EA014100FB03F0884208D9091903F1A7
:10112800FF3680F0E280884240F2DF80023B43EAEB
:101138000242002310461946BDE8F00F70478B4263
:101148004AD8B3FA83F6002E4DD18B4202D382429D
:1011580000F2D6800023012210461946BDE8F00FA0
:10116800704712B90124B4FBF2F4B4FA84F2002AED
:101178007CD1091B260CA7B20123B1FBF6F02A0C7F
:1011880006FB101142EA014107FB00F28A4207D927
:10119800091900F1FF3C02D28A4200F2C38060467E
:1011A800891AB1FBF6F2ADB206FB121145EA014508
:1011B80007FB02F7AF4208D92C1902F1FF3180F082
:1011C8009680A74240F29380023A42EA00421046D3
:1011D8001946BDE8F00F704700231A461046194615
:1011E800BDE8F00F7047C6F1200522FA05F4B340B8
:1011F8001C434FEA144821FA05F301FA06F720FACE
:1012080005F5B3FBF8FC2F4308FB1C333D0C1FFA14
:1012180084FA45EA03430AFB0CF9994502FA06FBEE
:1012280004D91B190CF1FF326DD39446C9EB0303A3
:10123800B3FBF8F508FB1533BFB247EA03470AFBCF
:1012480005F8B84504D93F1905F1FF3361D31D46A8
:1012580045EA0C4CACFB0B23C8EB07079F424FF049
:10126800000549D345D062462B4663E79440C2F156
:10127800200321FA03FC260C20FA03F301FA02F5F5
:10128800BCFBF6F843EA05010B0C06FB18CCA7B229
:1012980043EA0C4C07FB08F3634500FA02F509D949
:1012A8001CEB040C08F1FF323AD2634538D9A8F197
:1012B8000208A444C3EB0C0CBCFBF6F389B206FB92
:1012C80013CC41EA0C4107FB03F28A4207D90919FA
:1012D80003F1FF3022D28A4220D9023B2144891AE5
:1012E80043EA084349E73A460CE733461FE70A460C
:1012F8006BE7B0409042B6D20CF1FF32002319E7F9
:101308003346324616E799458FD9ACF1020C23448F
:101318008CE7B8459BD9023D274499E70346DEE7A9
:101328009046C7E7023821443AE700BF80B500AFCE
:10133800154B154AD2F8882042F47002C3F8882069
:10134800124B124A126842F001021A600F4B002237
:101358009A600E4A0D4B1B6823F0847323F4803384
:1013680013600A4B0A4A5A60084B084A126822F46A
:1013780080221A60054B0022DA6000F00BF8024B5D
:101388004FF000629A6080BD00ED00E00038024036
:101398001030002480B483B000AF00237B600023AA
:1013A8003B60354B344A126842F480321A60324B43
:1013B8001B6803F400333B607B6801337B603B6848
:1013C800002B03D17B68B3F5A04FF0D12A4B1B68E3
:1013D80003F40033002B02D001233B6001E000231B
:1013E8003B603B68012B42D1234B234A126C42F0ED
:1013F80080521A64214B214A126842F440421A6012
:101408001D4B1D4A92689A601B4B1B4A926842F416
:1014180000429A60184B184A926842F4A0529A60A7
:10142800154B174A5A60144B134A126842F08072DF
:101438001A6000BF104B1B6803F00073002BF9D033
:10144800104B40F205721A600B4B0B4A926822F05F
:1014580003029A60084B084A926842F002029A60B6
:1014680000BF054B9B6803F00C03082BF9D10C3720
:10147800BD465DF8047B70470038024000700040AC
:1014880019544007003C024080B586B000AFF860B0
:10149800B9607A6000237B6100237B6112E07B697D
:1014A800BA6813441B780C48194613F07DF800BF3E
:1014B8000948402113F08AF80346002BF8D07B69CD
:1014C80001337B617A697B689A42E8DB7B6818465E
:1014D8001837BD4680BD00BF0048004080B485B0C5
:1014E80000AF7860114B1B68002B02D10F4B104ADC
:1014F8001A600E4B1B68FB600C4B1A687B681A4419
:101508006B469A4205D90B4B0C221A604FF0FF33F9
:1015180006E0064B1A687B681A44044B1A60FB689D
:1015280018461437BD465DF8047B7047CC08002088
:10153800FC650120F865012080B483B000AF7860B5
:101548004FF0FF3318460C37BD465DF8047B7047F3
:1015580080B483B000AF786039603B684FF40052C4
:101568005A60002318460C37BD465DF8047B704767
:1015780080B483B000AF7860012318460C37BD46AD
:101588005DF8047B704700BF80B485B000AFF86099
:10159800B9607A60002318461437BD465DF8047BAD
:1015A800704700BF80B485B000AFF860B9607A605A
:1015B800002318461437BD465DF8047B704700BF0A
:1015C80080B400AFBD465DF8047B704780B58AB033
:1015D80000AF404B7B621EF0040F0CBFEFF3088096
:1015E800EFF309807B6A1B683B627B6A5B68FB617F
:1015F8007B6A9B68BB617B6ADB687B617B6A1B6972
:101608003B617B6A5B69FB607B6A9B69BB607B6A49
:10161800DB697B60304814F043FE3B6A2F4819466B
:1016280014F0E0FDFB692E48194614F0DBFDBB6998
:101638002C48194614F0D6FD7B692B48194614F03E
:10164800D1FD3B692948194614F0CCFDFB682848B0
:10165800194614F0C7FDBB682648194614F0C2FDA8
:101668007B682548194614F0BDFD244B1B682448A7
:10167800194614F0B7FD234B1B682348194614F08C
:10168800B1FD224B1B682248194614F0ABFD214BD3
:10169800DB6A2148194614F0A5FD204B1B68204839
:1016A800194614F09FFD1F4B1B681F48194614F07C
:1016B80099FD184BDB6A03F08043002B08D01B48C8
:1016C80014F0EEFD134B9B6A1948194614F08AFD75
:1016D80000BEFDE70004002020B0010838B0010872
:1016E80044B0010850B001085CB0010868B00108B6
:1016F80074B0010880B001088CB0010838ED00E032
:1017080098B0010828ED00E0A4B001082CED00E035
:10171800B0B0010800ED00E0BCB0010830ED00E019
:10172800D4B001083CED00E0E0B00108ECB00108DD
:1017380000B1010880B400AFFEE700BF80B400AF7D
:10174800FEE700BF80B400AFFEE700BF80B400AF83
:10175800BD465DF8047B704780B500AF08F0D4FD46
:1017680080BD00BF80B500AF4FF4804013F028FD66
:101778000346002B06D0012006F0F2F84FF4804013
:1017880013F038FD80BD00BF98B500AF1348102195
:1017980012F044FF0346002B1ED0114B1B681C4659
:1017A800621C0F4B1A600D4812F02CFF03469AB2C8
:1017B8000C4B23F814200948102112F059FF084B4C
:1017C8001B68012B08D9074B5A88064B1B88D31A6C
:1017D8009BB21A46044B1A6098BD00BF000C00402B
:1017E8007C250020D00800208025002080B500AF8F
:1017F8000C4800210C4A13F00BFD0B4B1A6840F201
:1018080021339A420DD1084B1B7A002B09D1064B84
:101818009B7A012B05D1044BDB7A0448194614F056
:10182800E1FC80BD00640040EC53002018B10108C1
:10183800DFF83CD0002100F004B80E4B5B58435051
:1018480004310D480D4B42189A42FFF4F6AF0C4A8A
:1018580000F003B8002342F8043B0A4B9A42FFF415
:10186800F9AFFFF763FD14F077FC00F023F8704739
:101878000000022054F0010800000020AC080020FD
:10188800B0080020FC650120FFF7FEBF80B400AF60
:10189800BFF34F8F054A054BDB6803F4E061044B47
:1018A8000B43D360BFF34F8FFEE700BF00ED00E0AE
:1018B8000400FA0580B500AF4FF4407013F060FDE6
:1018C80009F054F8224814F08DFC4FF080500121A3
:1018D80013F0FAF8012013F099F9132013F014F813
:1018E800034603F00203002B03D11A4814F07AFCD4
:1018F80001E012F0B5FF7D2013F040F90346002BFC
:1019080002D013F075F90EE07C2013F037F9034686
:10191800002B08D17B2013F031F90346002B02D1AC
:101928007A2013F02BF913F063F900F069F800F04E
:1019380041F807F019FF0346002B04D101F0B8FF66
:1019480000F00AF801E0FFF7A1FF0023184680BD68
:1019580034B1010854B1010880B500AF03F092FC1E
:1019680006F096FD0346002B01D006F0F1FF08F0C3
:10197800DDFC02460B461046194606F0F1FF07F05B
:1019880083FF0346012B0ED108F040F803461A46A0
:10199800074B1A70064B1B78002B04D0044B1B789E
:1019A800184601F0A9FF00F077F813F03FF9D5E7E2
:1019B8000054002080B582B000AF08F0AFFD0023CE
:1019C8007B6001231B067A6813437B6000231B049A
:1019D8007A6813437B6003231B027A6813437B6096
:1019E80004237A6813437B60786808F031FE034863
:1019F80008F0F0FD0837BD4680BD00BF483D012016
:101A080080B584B000AF08F0B9FE03F027FC03F0FE
:101A1800AFFE02F001FE02F031F91A4804F0F4FAC0
:101A2800184803F087F8174802F012FC08F0C4FEC3
:101A380009F0E2F80023FB71134BFB600023BB6045
:101A480015E0FA68114B9A4203D9114814F0CAFB01
:101A580010E0FB681B78FB710E4ABB681344FA79E7
:101A68001A70FB680133FB60BB680133BB60BB685D
:101A78001F2BE6DD074B002283F820201037BD46D8
:101A880080BD00BFBD9A000800000E081F000E08A8
:101A98007CB10108483D0120F0B583B000AF02F0E9
:101AA800E5FB0346012B28D107F0EEFE0346012B88
:101AB80023D1134B134A14461D4604F1200C2E461D
:101AC800A646BEE80F0030607160B260F360103463
:101AD80010356445F3D12B462246106818601279F8
:101AE8001A712423FB71FB79002B03D0044807F0FB
:101AF800E1FF02E0044814F075FB0C37BD46F0BD69
:101B0800543B0120B0B10108D8B1010880B483B0BA
:101B180000AF0346FB71FA79044B53F8223018469C
:101B28000C37BD465DF8047B704700BF00000020FD
:101B380080B483B000AF0346FB71FA79044B53F8C5
:101B4800223018460C37BD465DF8047B704700BF4D
:101B58002400002080B400AFBFF34F8F054A054B27
:101B6800DB6803F4E061044B0B43D360BFF34F8F92
:101B7800FEE700BF00ED00E00400FA0580B5E0B024
:101B880000AF07F10C03186007F108031960FB1D8B
:101B98001A701F4814F026FB07F10C03186800F0B0
:101BA800C3FD07F10C03186800F002F9034687F833
:101BB8007E31002387F87F3107F1080007F1C8015B
:101BC80007F11402FB1D1B78006800F0C5F90346F5
:101BD80087F87D3197F87D31012B0DD197F87E017B
:101BE80007F1C80107F11402FB1D1B7800F0D0FDB6
:101BF800034687F87F3102E0032387F87F3197F89F
:101C08007F31184600F00CF907F5C077BD4680BD56
:101C180048B7010880B5BCB000AF5D485D4914F015
:101C2800E1FA002387F8EB305A485B4914F0EFFBE0
:101C3800C7F8EC000DE097F8EB30013387F8EB308C
:101C4800D7F8EC3001331846534914F0E0FBC7F8D5
:101C5800EC00D7F8EC30002BEDD197F8EB304F487B
:101C6800194614F0BFFA97F8EB30002B68D04948B2
:101C7800494914F088FB0346C7F8DC30D7F8DC3054
:101C8800242B05D1464814F0ADFA01F017FE7BE08D
:101C98004048414914F0D4FBC7F8EC003B461846CD
:101CA800D7F8EC1014F067FB0023C7F8E4301DE008
:101CB8000020394914F0C4FBC7F8EC00D7F8EC3021
:101CC800002B00D118E0D7F8E4201346DB001344BA
:101CD8009B0007F1240213441846D7F8EC1014F0BF
:101CE8004AFBD7F8E4300133C7F8E43097F8EB2023
:101CF800D7F8E4309A42DBDC3B462A48194614F010
:101D080071FA0023C7F8E03013E007F12401D7F88F
:101D1800E0201346DB0013449B000B442248D7F80D
:101D2800E0101A4614F05EFAD7F8E0300133C7F82D
:101D3800E03097F8EB20D7F8E0309A42E5DC19E07C
:101D4800144814F030FB0346C7F8D830D7F8D83019
:101D5800232B05D9124814F045FA01F0AFFD13E022
:101D68003B4618460B4914F006FB3B460F481946FC
:101D780014F038FA394607F1240297F8EB30084690
:101D880011461A46FFF7FAFEF037BD4680BD00BF80
:101D980074B70108D408002078EC01088CB7010852
:101DA800B0B70108E8B7010818B8010828B8010851
:101DB80080B584B000AF7860154814F013FA00239A
:101DC800FB730EE0FA7B134B53F822307868194600
:101DD800FEF700FA0346002B00D105E0FB7B013338
:101DE800FB73FB7B1B2BEDD9FB7B1B2B08D8FA7BEA
:101DF800084B53F822300848194614F0F3F902E06A
:101E0800064814F0EFF9FB7B18461037BD4680BD35
:101E18004CB801088000002078B80108B0B8010863
:101E280080B584B000AF0346FB71FB791846FFF715
:101E38006DFEF860FB79082B5ED801A252F823F0FA
:101E48006D1E00087D1E00088D1E00089D1E0008DE
:101E5800AD1E0008D11E0008E11E0008F11E000892
:101E6800C11E00082B484FF4FA712B4AFB6814F086
:101E78001FFA49E027484FF4FA71284AFB6814F022
:101E880017FA41E023484FF4FA71254AFB6814F029
:101E98000FFA39E01F484FF4FA71214AFB6814F031
:101EA80007FA31E01B484FF4FA711E4AFB6814F038
:101EB800FFF900F03BF827E016484FF4FA71184A8A
:101EC800FB6814F0F5F91FE012484FF4FA71144A50
:101ED800FB6814F0EDF917E00E484FF4FA71104A58
:101EE800FB6814F0E5F90FE00A484FF4FA710C4A60
:101EF800FB6814F0DDF907E006484FF4FA710A4A66
:101F0800FB6814F0D5F900BF024808F0F7F810375D
:101F1800BD4680BD543B0120E8B80108F8B8010867
:101F280004B9010810B9010820B9010880B500AF4B
:101F3800064B1B781846FFF7FBFD034604484FF491
:101F4800FA71044A14F0B4F980BD00BFD80A002021
:101F5800543B01202CB9010880B590B000AFF8605F
:101F6800B9607A60FB70012387F83F300023BB63B8
:101F780059E0BA6B1346DB0013449B00FA6813441C
:101F88007B63786B2D49022214F02AFA0346002B52
:101F98003DD17B6B023307F110021046194614F04D
:101FA800EAF907F110031846254914F049FA78634D
:101FB800786B00F0B9FBBA6B1346DB0013449B0047
:101FC800BA6813441846796B14F0D5F900201C49F7
:101FD80014F036FA78637B6B002B0ED0786B00F028
:101FE800A3FBBA6B1346DB0013449B007A681344C7
:101FF8001846796B14F0BFF912E0BA6B1346DB0090
:1020080013449B007A68134400221A7008E00D48B4
:10201800B96B7A6B14F0E6F8002387F83F3006E0D6
:10202800BB6B0133BB63FA78BB6B9A42A1DC97F8B0
:102038003F3018464037BD4680BD00BF40B9010853
:1020480044B9010848B9010880B588B000AFF86004
:10205800B960FA71BB71FA79BB799A4201D9002348
:1020680034E00023FB610023FB7600237B6128E03A
:102078000023FB610023FB7617E07A691346DB0037
:1020880013449B00FA681A44FB69591CF9619B00C8
:10209800B96A0B441B6810461946FEF79BF80346BD
:1020A800002B02D10123FB7603E0BA79FB699A423F
:1020B800E3DCFB7E002B01D1002307E07B690133C1
:1020C8007B61FA797B699A42D2DC01231846203772
:1020D800BD4680BD80B582B000AF786078680F4992
:1020E800FEF778F80346002B01D1032312E0786845
:1020F8002C2114F033F90346002B01D0022309E008
:1021080078682D2114F02AF90346002B01D0012309
:1021180000E0002318460837BD4680BD94B9010881
:1021280080B58CB000AF03463960FB71002387F897
:102138002F300023BB60FF23FB7500233B61002386
:10214800BB62002387F82730002387F82630002356
:10215800FB730023BB7300233B6207E0694B3A6AB9
:10216800002143F822103B6A01333B623B6A242B6F
:10217800F4D9FB79032B00F2BD8001A252F823F0B9
:10218800992100082D220008CD210008CB22000843
:10219800386800210A2214F03FFA0346FB7597F9C4
:1021A8001730002B02DBFB7D252B03D9564814F092
:1021B80019F8A3E0FB7D184603F05AFE0246514B7E
:1021C8001A609BE03B68002B2BD03B68BB62BB6866
:1021D8001B782C2B02D1BB680133BB6207F10803C3
:1021E800B86A19460A2214F017FA38613B69242B99
:1021F80011D83B69002B0EDB3B69DBB2184603F0B4
:1022080037FE01463F4B3A6943F8221097F82F30C2
:10221800013387F82F30BB681B78002B00D100E012
:10222800D5E76BE0002387F82730002387F82630AE
:1022380007F10803386819460A2214F0EDF9034635
:10224800FB73BB680133184600210A2214F0E4F935
:102258000346BB73FB7B002B03D0FB7B87F827303F
:1022680002E0002387F82730BB7B002B03D0BB7B21
:1022780087F8263002E0252387F8263097F82620AD
:1022880097F82730D31ADBB2013387F82F300023B1
:10229800FB6110E0FB69DAB297F827301344DBB230
:1022A800184603F0E5FD0146164BFA6943F822107B
:1022B800FB690133FB6197F82F20FB699A42E9DC3F
:1022C8001CE0252387F82F300023BB610CE0BB6995
:1022D800DBB2184603F0CCFD01460A4BBA6943F855
:1022E8002210BB690133BB6197F82F20BB699A4262
:1022F800EDDC03E0054813F075FF00BF3037BD463D
:1023080080BD00BF6C54002098B90108DCB90108F1
:1023180080B58CB000AF03463960FB71002387F8A5
:102328002F300023BB60FF23FB7500233B61002394
:10233800BB62002387F82730002387F82630002364
:10234800FB730023BB7300233B6207E0694B3A6AC7
:10235800002143F822103B6A01333B623B6A172B8A
:10236800F4D9FB79032B00F2BD8001A252F823F0C7
:10237800892300081D240008BD230008BB24000889
:10238800386800210A2214F047F90346FB7597F9CB
:102398001730002B02DBFB7D182B03D9564813F0AE
:1023A80021FFA3E0FB7D184602F08CFB0246514B4F
:1023B8001A609BE03B68002B2BD03B68BB62BB6874
:1023C8001B782C2B02D1BB680133BB6207F10803D1
:1023D800B86A19460A2214F01FF938613B69172BAD
:1023E80011D83B69002B0EDB3B69DBB2184602F0C3
:1023F80069FB01463F4B3A6943F8221097F82F30A2
:10240800013387F82F30BB681B78002B00D100E020
:10241800D5E76BE0002387F82730002387F82630BC
:1024280007F10803386819460A2214F0F5F803463C
:10243800FB73BB680133184600210A2214F0ECF83C
:102448000346BB73FB7B002B03D0FB7B87F827304D
:1024580002E0002387F82730BB7B002B03D0BB7B2F
:1024680087F8263002E0182387F8263097F82620C8
:1024780097F82730D31ADBB2013387F82F300023BF
:10248800FB6110E0FB69DAB297F827301344DBB23E
:10249800184602F017FB0146164BFA6943F822105A
:1024A800FB690133FB6197F82F20FB699A42E9DC4D
:1024B8001CE0182387F82F300023BB610CE0BB69B0
:1024C800DBB2184602F0FEFA01460A4BBA6943F835
:1024D8002210BB690133BB6197F82F20BB699A4270
:1024E800EDDC03E0054813F07DFE00BF3037BD4644
:1024F80080BD00BF0C54002098B90108DCB9010860
:1025080080B58CB000AF03463960FB71002387F8B3
:102518002F300023BB60FF23FB7500233B610023A2
:10252800BB62002387F82730002387F82630002372
:10253800FB730023BB7300233B6207E0684B3A6AD6
:10254800002143F822103B6A01333B623B6A0F2BA0
:10255800F4D9FB79032B00F2BD8001A252F823F0D5
:10256800792500080D260008AD250008AB260008CF
:10257800386800210A2214F04FF80346FB7597F9D2
:102588001730002B02DBFB7D102B03D9554813F0C5
:1025980029FEA2E0FB7D184601F07EFD0246504B65
:1025A8001A609AE03B68002B2BD03B68BB62BB6883
:1025B8001B782C2B02D1BB680133BB6207F10803DF
:1025C800B86A19460A2214F027F838613B690F2BBC
:1025D80011D83B69002B0EDB3B69DBB2184601F0D2
:1025E8005BFD01463E4B3A6943F8221097F82F30BD
:1025F800013387F82F30BB681B78002B00D100E02F
:10260800D5E76AE0002387F82730002387F82630CB
:1026180007F10803386819460A2213F0FDFF03463C
:10262800FB73BB680133184600210A2213F0F4FF3C
:102638000346BB73FB7B002B03D0FB7B87F827305B
:1026480002E0002387F82730BB7B002B03D0BB7B3D
:1026580087F8263002E0102387F8263097F82620DE
:1026680097F82730D31ADBB2013387F82F300023CD
:10267800FB6110E0FB69DAB297F827301344DBB24C
:10268800184601F009FD0146154BFA6943F8221076
:10269800FB690133FB6197F82F20FB699A42E9DC5B
:1026A8001BE0102387F82F300023BB610CE0BB69C7
:1026B800DBB2184601F0F0FC0146094BBA6943F851
:1026C8002210BB690133BB6197F82F20BB699A427E
:1026D800EDDC02E0044813F085FD3037BD4680BDCF
:1026E8000055002098B90108DCB9010880B483B00E
:1026F80000AF0346FB71FB795F2B0BD0FB79402BB6
:1027080002D9FB795A2B05D9FB79602B04D9FB79BF
:102718007A2B01D8012300E0002318460C37BD4668
:102728005DF8047B704700BF80B584B000AF786067
:102738000023FB6023E0FB687A6813441B78FB7274
:10274800FB7A1846FFF7D2FF0346002B14D0FB7A1A
:10275800402B04D9FB7A5A2B01D8012300E000232F
:10276800002B09D1FB7A5F2B06D0FB687A681344EB
:10277800FA7A203AD2B21A70FB680133FB60FB6820
:102788007A6813441B78002BD5D11037BD4680BD1D
:1027980080B586B000AFB9607A600246FA73BB7341
:1027A8000023FB75FB7B1B2B00F2238101A252F84F
:1027B80023F000BF2D2800083F28000851280008F2
:1027C8006328000875280008872800089928000849
:1027D800AB280008BD280008CF280008E128000819
:1027E800F3280008052900081729000829290008E6
:1027F8003B2900084D2900085F29000871290008B5
:1028080077290008952900089B290008AD290008A8
:10281800B3290008C5290008D7290008E9290008B4
:10282800072A0008BB7BB86879681A4600F0F0F8F8
:102838000346FB75E4E0BB7BB86879681A4600F08C
:1028480025F90346FB75DBE0BB7BB86879681A4657
:1028580000F058F90346FB75D2E0BB7BB86879688D
:102868001A4600F035FA0346FB75C9E0BB7BB86829
:1028780079681A4600F076FA0346FB75C0E0BB7B20
:10288800B86879681A4600F0B7FA0346FB75B7E0EE
:10289800BB7BB86879681A4600F0BEFA0346FB7538
:1028A800AEE0BB7BB86879681A4600F0EDFA0346DB
:1028B800FB75A5E0BB7BB86879681A4600F000FB99
:1028C8000346FB759CE0BB7BB86879681A4600F044
:1028D80035FB0346FB7593E0BB7BB86879681A46FD
:1028E80000F0E2FB0346FB758AE0BB7BB8687968B9
:1028F8001A4600F023FC0346FB7581E0BB7BB868F1
:1029080079681A4600F064FC0346FB7578E0BB7BE7
:10291800B86879681A4600F099FC0346FB756FE0C1
:10292800BB7BB86879681A4600F0CEFC0346FB7595
:1029380066E0BB7BB86879681A4600F085FD0346F7
:10294800FB755DE0BB7BB86879681A4600F0C6FD88
:102958000346FB7554E0BB7BB86879681A4600F0FB
:1029680007FE0346FB754BE006F056FF48E01320D0
:1029780011F0CAFF034643F001031320194611F072
:10298800ABFF06F049FFFFF7E5F839E000F088FEF5
:1029980036E0BB7BB86879681A4600F0F9FD034653
:1029A800FB752DE002F0D8FC2AE0BB7BB86879689B
:1029B8001A4600F021FF0346FB7521E0BB7BB8688F
:1029C80079681A4600F028FF0346FB7518E0BB7BC0
:1029D800B86879681A4600F02FFF0346FB750FE0C8
:1029E800BB7BB86879681A4600F036FF0346FB756A
:1029F80006E0064813F0F6FB0223FB7500E000BF73
:102A0800FB7D18461837BD4680BD00BF1CBA0108BB
:102A180080B588B002AFF860B9601346FB71002337
:102A2800FB75FB79154A0092F868B9681A460023C5
:102A3800FFF70AFB0346002B16D002F001FF0346FE
:102A4800BB75BB7D002B0ED0BB7D1846FFF770F819
:102A580003460B48194613F0C5FB0A4BBA7D1A709A
:102A68000423FB7505E004E0074813F0BBFB0123D2
:102A7800FB75FB7D18461837BD4680BDD40800207D
:102A88005CBA0108D80A0020A4BA010880B588B049
:102A980002AFF860B9601346FB710023FB75FB7940
:102AA800144A0092F868B9681A460023FFF7CCFA6E
:102AB8000346002B13D007F0A7FE08F03DFD0E4B90
:102AC8001B78002B05D00C4807F078FB07F09CFE1C
:102AD8000AE00A4813F086FB0423FB7504E0084863
:102AE80013F080FB0123FB75FB7D18461837BD46A4
:102AF80080BD00BFD4080020543B0120FCBA010867
:102B080044BB010880B58CB002AFF860B9601346C9
:102B1800FB71002387F82730FB79674A0092F86831
:102B2800B9681A460223FFF78FFA0346002B00F014
:102B3800B78000233B620323FB77FF23FB7400234A
:102B4800BB6150E05C4BBA6953F82220FB79F86806
:102B580011461A4600F018FF0346FB7497F9133024
:102B6800002B38DBBB69002B02D0012B1ED02FE0D5
:102B7800524813F037FB97F913201346DB00134430
:102B88009B00BA6813441846FFF7A4FA0346FB777C
:102B980097F913201346DB0013449B00BA681344CB
:102BA800FA7F10461946FFF7BBFA14E0444813F0C1
:102BB80019FB97F913201346DB0013449B00BA68EE
:102BC8001344184600210A2213F026FD386202E059
:102BD800032387F8273097F82730002B00D005E02B
:102BE800BB690133BB61BB69012BABDD97F82730AB
:102BF800002B1CD100237B6116E0324B7A6953F815
:102C08002230002B0DD02F4B7A6953F822301B78D5
:102C1800012B06D1042387F827302B4B03221A7087
:102C280005E07B6901337B617B69242BE5D997F843
:102C38002730002B33D1FB7F032B27D801A252F872
:102C480023F000BF5D2C0008792C00086B2C0008CD
:102C5800872C00083B6A1B481946012204F0AEFB8A
:102C68001AE03B6A17481946002204F0A7FB13E054
:102C78003B6A14481946002204F0A0FB0CE03B6AAA
:102C880010481946002204F099FB05E0042387F850
:102C980027300D4B05221A7002F0B4FB06E005E060
:102CA8000A4813F09FFA012387F8273097F827304E
:102CB80018462837BD4680BDF00000209CBB01089F
:102CC800B4BB01086C540020D80A0020CCBB010812
:102CD80080B588B002AFF860B9601346FB71002375
:102CE800FB7502F0FDFB0346002B2CD1FB79194A3A
:102CF8000092F868B9681A460523FFF7A5F9034654
:102D0800012B1AD1FB79F868B9681A4602F0D4FE8B
:102D18000346BB75BB7D002B0ED0BB7D1846FEF766
:102D280007FF03460C48194613F05CFA0B4BBA7DB3
:102D38001A700423FB7508E007E0094813F052FAFB
:102D48000323FB7501E00523FB75FB7D1846183747
:102D5800BD4680BDF800002024BC0108D80A002028
:102D680070BC010880B588B002AFF860B96013463E
:102D7800FB710023FB7502F0B3FB0346002B2CD13B
:102D8800FB79194A0092F868B9681A460123FFF7D7
:102D98005BF90346002B1AD0FB79F868B9681A4624
:102DA80002F0FEFF0346BB75BB7D002B0ED0BB7D3A
:102DB8001846FEF7BDFE03460C48194613F012FAF2
:102DC8000B4BBA7D1A700423FB7508E007E009482D
:102DD80013F008FA0123FB7501E00523FB75FB7D61
:102DE80018461837BD4680BD0C010020D0BC01082C
:102DF800D80A002020BD010880B487B000AFF86071
:102E0800B9601346FB710023FB75FB7D18461C3720
:102E1800BD465DF8047B704780B588B002AFF860A6
:102E2800B9601346FB710023FB75FB79134A0092C6
:102E3800F868B9681A460423FFF706F90346002B19
:102E480011D0FB79F868B9681A4600F0F9FD034615
:102E5800BB75BB7D002B05D0094BBA7D1A700423C6
:102E6800FB7505E004E0074813F0BCF90123FB7586
:102E7800FB7D18461837BD4680BD00BF10010020F5
:102E8800D80A00207CBD010880B586B000AFF86084
:102E9800B9601346FB710023FB7500F0C5FD0346BE
:102EA800BB75BB7D002B04D0044BBA7D1A7004237C
:102EB800FB75FB7D18461837BD4680BDD80A002033
:102EC80080B588B002AFF860B9601346FB71002383
:102ED800FB75FB79154A0092F868B9681A46002311
:102EE800FFF7B2F80346002B16D001F0FDFB0346AE
:102EF800BB75BB7D002B0ED0BB7D1846FEF718FEB8
:102F080003460B48194613F06DF90A4BBA7D1A703F
:102F18000423FB7505E004E0074813F063F9012377
:102F2800FB75FB7D18461837BD4680BDD4080020C8
:102F3800E0BD0108D80A00202CBE010880B58CB07D
:102F480002AFF860B9601346FB71002387F8273099
:102F5800FB79514A0092F868B9681A460223FFF7CC
:102F680073F80346002B00F0908000233B62002397
:102F7800FB77FF23FB750023BB6150E0464BBA6922
:102F880053F82220FB79F86811461A4600F0FCFC39
:102F98000346FB7597F91730002B38DBBB69002B0C
:102FA80002D0012B1ED02FE03C4813F01BF997F9F3
:102FB80017201346DB0013449B00BA6813441846D5
:102FC800FFF788F80346FB7797F917201346DB00CD
:102FD80013449B00BA681344FA7F10461946FFF75A
:102FE80097F914E02E4813F0FDF897F917201346C7
:102FF800DB0013449B00BA681344184600210A22D8
:1030080013F00AFB386202E0032387F8273097F8A9
:103018002730002B00D005E0BB690133BB61BB69D9
:10302800012BABDD97F82730002B2ED1FB7F032B2C
:1030380026D801A252F823F0513000086D3000085C
:103048005F3000087B3000083B6A164819460122A9
:1030580002F058F817E03B6A12481946002202F0BD
:1030680051F810E03B6A0F481946002202F04AF86E
:1030780009E03B6A0B481946002202F043F802E0D7
:10308800042387F8273002F0CDF997F8273018463F
:103098002837BD4680BD00BF200100209CBB010829
:1030A800B4BB01080C54002080B588B002AFF860AA
:1030B800B9601346FB710023FB7502F01DFA034645
:1030C800002B2CD1FB79194A0092F868B9681A4686
:1030D8000223FEF7B9FF0346012B1AD1FB79F868E2
:1030E800B9681A4601F086FB0346BB75BB7D002B09
:1030F8000ED0BB7D1846FEF71BFD03460C4819464B
:1031080013F070F80B4BBA7D1A700423FB7508E0B6
:1031180007E0094813F066F80123FB7501E0062370
:10312800FB75FB7D18461837BD4680BD2801002079
:1031380088BE0108D80A0020DCBE010880B588B026
:1031480002AFF860B9601346FB710023FB7502F00B
:10315800D3F90346002B2CD1FB79194A0092F86861
:10316800B9681A460123FEF76FFF0346002B1AD0F1
:10317800FB79F868B9681A4601F030FC0346BB755C
:10318800BB7D002B0ED0BB7D1846FEF7D1FC034655
:103198000C48194613F026F80B4BBA7D1A70042315
:1031A800FB7508E007E0094813F01CF80123FB75DC
:1031B80001E00623FB75FB7D18461837BD4680BD28
:1031C800300100203CBF0108D80A00208CBF01084C
:1031D80080B588B002AFF860B9601346FB71002370
:1031E800FB75FB79154A0092F868B9681A460023FE
:1031F800FEF72AFF0346002B16D000F05BFD0346BE
:10320800BB75BB7D002B0ED0BB7D1846FEF790FC2E
:1032180003460B48194612F0E5FF0A4BBA7D1A70AF
:103228000423FB7505E004E0074812F0DBFF0123E7
:10323800FB75FB7D18461837BD4680BDD4080020B5
:10324800E8BF0108D80A002034C0010880B588B05A
:1032580002AFF860B9601346FB710023FB75FB7978
:10326800154A0092F868B9681A460223FEF7ECFE80
:103278000346002B16D0FB79F868B9681A4600F0A7
:103288002BFF0346BB75BB7D002B0AD0BB7D0B48CB
:10329800194612F0A7FF0A4BBA7D1A700423FB7572
:1032A80005E004E0074812F09DFF0123FB75FB7D54
:1032B80018461837BD4680BD3401002090C001086B
:1032C800D80A0020DCC0010880B58CB002AFF860D5
:1032D800B9601346FB71002387F82730FB79554AFC
:1032E8000092F868B9681A460223FEF7ADFE034655
:1032F800002B00F0928000233B620023FB77FF2322
:10330800FB750023BB6150E04A4BBA6953F8222091
:10331800FB79F86811461A4600F036FB0346FB7540
:1033280097F91730002B38DBBB69002B02D0012B33
:103338001ED02FE0404812F055FF97F9172013468A
:10334800DB0013449B00BA6813441846FEF7C2FE1C
:103358000346FB7797F917201346DB0013449B00BD
:10336800BA681344FA7F10461946FFF7C9F814E003
:10337800324812F037FF97F917201346DB00134441
:103388009B00BA681344184600210A2213F044F936
:10339800386202E0032387F8273097F82730002B9C
:1033A80000D005E0BB690133BB61BB69012BABDD14
:1033B80097F82730002B2FD1FB7F032B26D801A2AB
:1033C80052F823F0DD330008F9330008EB33000826
:1033D800073400083B6A1A481946012201F0E6FC46
:1033E80017E03B6A16481946002201F0DFFC10E09E
:1033F8003B6A13481946002201F0D8FC09E03B6AF1
:103408000F481946002201F0D1FC02E0042387F896
:10341800273002F017F806E005E00A4812F0E2FE4D
:10342800012387F8273097F8273018462837BD46F4
:1034380080BD00BF3C0100209CBB0108B4BB010853
:103448000055002034C1010880B588B002AFF8608B
:10345800B9601346FB710023FB7502F059F8034667
:10346800002B2CD1FB79194A0092F868B9681A46E2
:103478000223FEF7E9FD0346002B1AD0FB79F86812
:10348800B9681A4600F0A0FC0346BB75BB7D002B4B
:103498000ED0BB7D1846FEF74BFB03460C48194679
:1034A80012F0A0FE0B4BBA7D1A700423FB7508E0DE
:1034B80007E0094812F096FE0123FB7501E0072397
:1034C800FB75FB7D18461837BD4680BD44010020BA
:1034D8008CC10108D80A0020E0C1010880B588B075
:1034E80002AFF860B9601346FB710023FB7502F068
:1034F8000FF80346002B2CD1FB79194A0092F86883
:10350800B9681A460123FEF79FFD0346002B1AD01F
:10351800FB79F868B9681A4600F04AFD0346BB759E
:10352800BB7D002B0ED0BB7D1846FEF701FB034682
:103538000C48194612F056FE0B4BBA7D1A7004233C
:10354800FB7508E007E0094812F04CFE0123FB7503
:1035580001E00723FB75FB7D18461837BD4680BD83
:103568004C01002040C20108D80A002090C201087E
:1035780080B487B000AFF860B9601346FB710023D0
:10358800FB75FB7D18461C37BD465DF8047B70470C
:1035980080B58AB002AFF860B9601346FB710023AA
:1035A800FB77FB79384A0092F868B9681A46012314
:1035B800FEF74AFD0346002B5CD00023BB61FF23C6
:1035C800FB7400237B612DE02F4B7A6953F822208E
:1035D800FB79F86811461A4600F0D6F90346FB74E1
:1035E80097F91330002B16DB7B69002B11D1274884
:1035F80012F0F8FD97F913201346DB0013449B00E3
:10360800BA681344184600210A2213F005F8B86175
:1036180001E00323FB77FB7F002B00D005E07B69EB
:1036280001337B617B69002BCEDDFB7F002B20D132
:1036380003200021FEF774FD03200021FEF768FE39
:1036480003200021FEF75CFFBB69114819460022E0
:1036580003F0B4FEBB690F481946002201F052FD81
:10366800BB690D481946002201F0A0FB01F0FAFEE3
:1036780005E004E0094812F0B5FD0123FB77FB7F64
:1036880018462037BD4680BD50010020B4BB010854
:103698006C5400200C54002000550020CCBB0108BD
:1036A800F0B58DB006AF0023FB7406F0FFFF78611C
:1036B8007B69002B01D1494B7B6106F0EBFF034688
:1036C800BB7406F0FDFFF86007F024F8B86007F057
:1036D8002BF8786000233B60414A424B144607CBE5
:1036E80020606160A2601A889B78A281A3730E2370
:1036F8003B603A683A4B1344184633213A4A7B698F
:1037080012F0D6FD03463A6813443B603B68023B1F
:103718003B603A68324B1A44BB7C7968CDB2796811
:10372800090ACCB27968090CC8B27968090E009503
:1037380001940290039110464FF4FA712B4A12F04B
:10374800B7FD03463A6813443B603A68244B1A4471
:10375800FB68DBB2F968090ACCB2F968090CC8B28F
:10376800F968090E00940190029110464FF4FA711D
:103778001F4A12F09DFD03463A6813443B603A68BD
:10378800174B1A44BB681B78B968013109780E4693
:10379800B968023109780D46B968033109780C46D1
:1037A800B968043109780846B9680531097800967E
:1037B800019502940390049110464FF4FA710D4A52
:1037C80012F076FD03463A6813443B60044806F05D
:1037D80095FCFB7C18461C37BD46F0BDECC20108C1
:1037E800543B0120F4C2010804C301081CC30108AA
:1037F80058C3010878C3010880B487B000AFF860E7
:10380800B9601346FB710023FB75FB7D18461C3716
:10381800BD465DF8047B704780B487B000AFF860A0
:10382800B9601346FB710023FB75FB7D18461C37F6
:10383800BD465DF8047B704780B487B000AFF86080
:10384800B9601346FB710023FB75FB7D18461C37D6
:10385800BD465DF8047B704780B586B000AFF86060
:10386800B9601346FB710023FB7500F043F903466A
:10387800BB75BB7D012B01D1094B00E0094B0A4800
:103888004FF4FA71094A12F013FD03467B75064896
:1038980006F034FCFB7D18461837BD4680BD00BFD6
:1038A800A8C30108B0C30108543B0120B8C30108EC
:1038B80080B500AF00F002F880BD00BF80B483B0CF
:1038C80000AF00237B6007E00A4A7B6813440022AC
:1038D8001A707B6801337B607B68B3F5007FF3D394
:1038E800044B0022A3F800220C37BD465DF8047B88
:1038F800704700BFD408002080B582B000AF0346EF
:10390800FB71FB79002B39D01E4BB3F80032B3F5AD
:10391800007F33D2FB790A2B02D0FB790D2B04D11F
:10392800FEF778F9FFF7CAFF28E0FB79082B02D0E9
:10393800FB797F2B14D1134BB3F80032002B0ED038
:10394800104BB3F80032013B9AB20E4BA3F8002299
:103958000C4BB3F800320B4A0021D1540EE00DE0B5
:10396800084BB3F80032074AF979D154054BB3F83C
:10397800003201339AB2034BA3F800220837BD4640
:1039880080BD00BFD408002080B586B000AFF860C5
:10399800B9601346FB71FF23FB7500233B6113E0FD
:1039A8003A691346DB0013449B00FA68134418462F
:1039B800B968FCF70FFC0346002B02D13B69FB7585
:1039C80006E03B6901333B61FA793B699A42E7D8E3
:1039D800FB7D5BB218461837BD4680BD80B588B000
:1039E80000AFF860B9601346FB710023FB77FF2333
:1039F800BB7700237B7772233B770023FB7600237A
:103A08007B6100BFFB7E184608F022FA3B7F184610
:103A180008F0F2FA7B7F184608F086FAFB7F184612
:103A28002037BD4680BD00BF80B582B000AF0023FF
:103A3800FB7103F0B3FBFB7918460837BD4680BD20
:103A480080B588B000AFF860B9601346FB710023F9
:103A5800FB77FB79F868B9681A46FFF7BFFF03469A
:103A6800FB770023BB77FF23FB750023BB6133E0A3
:103A78001F4BBA6953F82220FB79F86811461A4699
:103A8800FFF782FF0346FB7597F91730002B14DB0D
:103A9800BB69032B0ED197F917201346DB0013449B
:103AA8009B00BA681344184607F062FE0346BB77CA
:103AB80000BF0EE00423FB770BE0BB69002B05D0A9
:103AC800BB69012B02D0BB69022B00D101E00223A4
:103AD800FB77BB690133BB61BB69032BC8D9BB7FCB
:103AE800184603F091FBFB7F18462037BD4680BD82
:103AF8001001002080B584B000AF0123FB7301F0F2
:103B08005DFD87ED020A01F087FD87ED010A97ED5B
:103B1800027ADFED0A7AB4EEE77AF1EE10FA06DC03
:103B2800D7ED017AF5EEC07AF1EE10FA01D500234F
:103B3800FB73FB7B18461037BD4680BD000048422A
:103B480080B582B000AF0346FB71FB79184600F0E0
:103B580019F80346002B0AD0FA791346DB009B1AA2
:103B6800DB00064A1344184600F01EF802E0044839
:103B780012F038FB0837BD4680BD00BFE00A0020C0
:103B8800D0C3010880B483B000AF0346FB71FB7952
:103B98000F2B01D8012300E0002318460C37BD463F
:103BA8005DF8047B704700BF80B483B000AF7860D5
:103BB8007B6801221A707B6801229A7679684FF037
:103BC80000024FF00003C1E908237B6802330C4A66
:103BD8001068186012791A717B68FF225A707B6826
:103BE800032283F8302079684FF000024FF0000379
:103BF800C1E90A230C37BD465DF8047B704700BF56
:103C080030C4010880B584B000AF78600B46FB7003
:103C18007B685B7803F00703DBB24FF4E06019467A
:103C280007F08CFB0346FB737B685B78BB73BB7B3D
:103C3800072B02D9BB7B083BBB73BB7B012202FA73
:103C480003F37B73FB78012B04D1FA7B7B7B134353
:103C5800FB7303E0FA7B7B7B5340FB737B685B78E9
:103C680003F00703DBB2FA7B4FF4E06011461A4613
:103C780007F014FB1037BD4680BD00BF80B582B089
:103C880000AF00237B600CE07A681346DB009B1AC8
:103C9800DB00074A13441846FFF786FF7B680133A9
:103CA8007B607B680F2BEFD90837BD4680BD00BF0E
:103CB800E00A00202DE9F04194B002AF002387F814
:103CC800473006F0A1FD394B394A14461D4604F128
:103CD80030082E46A446BCE80F0030607160B26020
:103CE800F360103410354445F3D12B462246128830
:103CF8001A80312387F83F3097F83F30002B06D1E0
:103D08002C4812F06FFA162387F8473046E02A4B02
:103D18001B68002B03D0284B1B68244898470023B6
:103D28003B6438E025493A6C1346DB009B1ADB00FC
:103D38000B443C461D460FCD0FC40FCD0FC40FCD0D
:103D48000FC495E8030084E803003B78002B1FD1DB
:103D58007B783A460232009214484FF4FA71184AB6
:103D680012F0A6FA034687F83F3097F83F30002B49
:103D780006D1144812F036FA162387F847300DE0BA
:103D88000D4B1B68002B03D00B4B1B68074898474B
:103D98003B6C01333B643B6C0F2BC3D997F847301E
:103DA80018464837BD46BDE8F08100BF543B0120A6
:103DB80038C401086CC40108DC0A0020E00A0020AD
:103DC800A0C40108C4C4010880B590B000AFF86071
:103DD800B9607A60002387F83F300023BB62FF2375
:103DE80087F83730FF2387F83E30FF2387F83630CF
:103DF80007F110035A4A92E8030018600433197057
:103E08000023BB6366E0574BBA6B53F822207B68EC
:103E1800DBB2F86811461A46FFF7B6FD034687F885
:103E2800373097F93730002B3DDB97F937201346A9
:103E3800DB0013449B00BA6813443B63BB6B002B45
:103E480002D0012B23D029E007F12803386B19464B
:103E58000A2212F0E1FB034687F83630BA6A3B6B58
:103E68009A4203D1122387F83F300FE097F8363093
:103E7800102B04D897F8363087F83E3006E03A48D9
:103E880012F0B0F90F2387F83F300BE00AE007F192
:103E980010031846396B12F06EFA03E0122387F804
:103EA8003F300FE00EE0BB6B012B00D10FE02D4B34
:103EB800BA6B53F822302D48194612F093F91023A3
:103EC80087F83F3097F83F30002B00D005E0BB6BF8
:103ED8000133BB63BB6B012B95DD97F83F30002B9B
:103EE80038D197F83E30FF2B31D097F83E3018463E
:103EF80000F0D2F8F862FB6A002B24D0FB6A1B782A
:103F0800002B1CD0FB6A97F83E205A70FB6A9A1C5B
:103F180007F110031046194612F02DFAFB6A012228
:103F28009A76F96A4FF000024FF00003C1E90823BE
:103F3800F86A00F01DF8034687F83F300AE01423BA
:103F480087F83F3006E0112387F83F3002E013235B
:103F580087F83F3097F83F3018464037BD4680BD58
:103F680030C4010844010020F8C4010834C5010820
:103F780080B584B000AF78600023FB737B685B7802
:103F8800BB73BB7B0F2B07D87B6800221A7078683D
:103F98000121FFF737FE04E0044812F023F90F234C
:103FA800FB73FB7B18461037BD4680BD6CC5010806
:103FB80080B58AB000AFF860B9607A60002387F8EE
:103FC8002730FF23FB7700233B6255E02F4B3A6AEB
:103FD80053F822207B68DBB2F86811461A46FFF7CF
:103FE800D3FC0346FB7797F91F30002B36DB97F994
:103FF8001F201346DB0013449B00BA681344BB61BF
:104008003B6A002B26D100233B6107F11003B869F6
:1040180019460A2212F000FB0346FB753A69BB6990
:104028009A4203D1122387F8273011E0FB7D184606
:10403800FFF7A8FD0346002B04D0FB7D1846FFF7C9
:104048007FFD05E0124812F0CDF80F2387F82730DE
:1040580000BF0EE0122387F827300AE00B4B3A6ABC
:1040680053F822300B48194612F0BCF8102387F891
:1040780027303B6A01333B623B6A002BA6D097F896
:10408800273018462837BD4680BD00BF4C010020A8
:10409800D0C5010834C5010880B582B000AF034619
:1040A800FB71FB791846FFF76DFD0346002B07D01F
:1040B800FA791346DB009B1ADB00054A134403E038
:1040C800044812F08FF8002318460837BD4680BD13
:1040D800E00A00200CC6010880B58CB000AFF8607B
:1040E800B9601346FB71002387F82F30FF2387F848
:1040F8002730FF2387F82E30002387F82D30002340
:10410800BB6268E04D4BBA6A53F82220FB79F86825
:1041180011461A46FFF738FC034687F8273097F907
:104128002730002B44DB97F927201346DB00134484
:104138009B00BA6813443B62BB6A002B02D0012B78
:1041480022D030E000237B6107F11403386A194656
:104158000A2212F061FA0346FB777A693B6A9A42AF
:1041680003D1122387F82F300CE0FB7F102B03D8E4
:10417800FB7F87F82E3005E0314812F033F80F2323
:1041880087F82F3000BF12E0386A2E49FCF722F872
:104198000346002B03D1012387F82D3007E00023C5
:1041A80087F82D3003E0122387F82F300BE00AE060
:1041B800224BBA6A53F822302348194612F012F8F3
:1041C800102387F82F3097F82F30002B00D005E008
:1041D800BB6A0133BB62BB6A012B93DD97F82F30B2
:1041E800002B25D197F82E30FF2B1ED097F82E30B4
:1041F8001846FFF751FFB861BB69002B11D0BB69A6
:104208001B78002B06D197F82D30B8691946FFF7AF
:10421800F9FC0DE00D4811F0E5FF152387F82F3064
:1042280006E0112387F82F3002E0132387F82F3098
:1042380097F82F3018463037BD4680BD340100202E
:10424800F8C4010870C6010834C5010874C601081D
:1042580080B483B000AF7860034B7A681A600C377B
:10426800BD465DF8047B7047DC0A0020B0B590B00D
:1042780000AF002387F83F3006F0DAFF0023BB6366
:1042880020E01549BA6B1346DB009B1ADB000B4490
:104298003C461D460FCD0FC40FCD0FC40FCD0FC424
:1042A80095E8030084E803003B78002B07D197F8D2
:1042B8003030032B03D0012387F83F3005E0BB6B78
:1042C8000133BB63BB6B0F2BDBD997F83F30184624
:1042D8004037BD46B0BD00BFE00A002090B585B0AC
:1042E80000AF13460246FA710A46BA717B71002381
:1042F800FB73BB790133DBB27A7902FB03F3BB733F
:10430800BB7B0F2B18D8BA7B10491346DB009B1ACE
:10431800DB000B443033FA791A70BC7B06F006F8E0
:104328000A4A2346DB001B1BDB0013442833C3E97E
:1043380000010123FB7304E0054811F053FF00233B
:10434800FB73FB7B18461437BD4690BDE00A00207E
:10435800A0C7010880B584B000AF0346FB710023F5
:10436800FB73FB79172B00F2E88001A252F823F0C7
:10437800D9430008E7430008F5430008054400084E
:10438800154400082344000831440008414400084B
:104398005144000861440008714400087F44000843
:1043A8008F4400089D440008AB440008B944000845
:1043B800C9440008D9440008E7440008F544000847
:1043C8000545000813450008234500083345000843
:1043D8005F48202110F0C4FC0346FB73AEE05C4844
:1043E800102110F0BDFC0346FB73A7E059484FF4B9
:1043F800807110F0B5FC0346FB739FE055484FF4FD
:10440800006110F0ADFC0346FB7397E052480121B0
:1044180010F0A6FC0346FB7390E04F48102110F003
:104428009FFC0346FB7389E04C484FF4006110F091
:1044380097FC0346FB7381E048484FF4004110F0B5
:104448008FFC0346FB7379E041484FF4807110F00C
:1044580087FC0346FB7371E03D484FF4805110F030
:104468007FFC0346FB7369E03B48402110F078FC71
:104478000346FB7362E038484FF4006110F070FCAB
:104488000346FB735AE03248082110F069FC0346E2
:10449800FB7353E02E48042110F062FC0346FB73C3
:1044A8004CE02B48402110F05BFC0346FB7345E0D1
:1044B8002B484FF4804110F053FC0346FB733DE05A
:1044C80026484FF4007110F04BFC0346FB7335E0AF
:1044D8002148042110F044FC0346FB732EE02148D8
:1044E800022110F03DFC0346FB7327E01B484FF404
:1044F800005110F035FC0346FB731FE01A480221F7
:1045080010F02EFC0346FB7318E011484FF480614D
:1045180010F026FC0346FB7310E00F484FF480713F
:1045280010F01EFC0346FB7308E00B484FF4806153
:1045380010F016FC0346FB7300E000BFFB7B002B6A
:1045480001D0002300E0012318461037BD4680BD86
:104558000010024000200240001C024000140240EB
:1045680000080240000402400018024080B483B0F2
:1045780000AF0346FB71FB79172B01D8012300E03C
:10458800002318460C37BD465DF8047B704700BF12
:1045980080B483B000AF78607B6801221A707B68B2
:1045A80001229A7679684FF000024FF00003C1E9C2
:1045B80008237B680233064A1068186012791A715A
:1045C8007B68FF225A700C37BD465DF8047B704744
:1045D800ECC7010880B582B000AF0346FB71FB79D8
:1045E8001846FFF7C3FF0346002B0AD0FA79134693
:1045F8009B001344DB00064A13441846FFF7C8FF24
:1046080002E0044811F0EEFD0837BD4680BD00BF4A
:10461800680E0020F4C7010880B584B000AF4FF4DD
:10462800FB70012110F032FA00233B720023FB7269
:1046380002237B603B1D2448194610F003FB4FF40E
:1046480080437B603B1D2148194610F0FBFA41F27C
:104658007C537B603B1D1E48194610F0F3FA4FF45B
:104668002A437B603B1D1B48194610F0EBFA0223D6
:104678007B603B1D1848194610F0E4FA40F6555384
:104688007B603B1D1548194610F0DCFA4FF41063A7
:104698007B603B1D1248194610F0D4FA0023FB60DA
:1046A8000CE0FA6813469B001344DB000D4A1344E0
:1046B8001846FFF76DFFFB680133FB60FB68172B9B
:1046C800EFD91037BD4680BD000402400008024003
:1046D800001002400014024000180240001C024072
:1046E80000200240680E00202DE9F04190B002AF92
:1046F800002387F83730384B384A14461D4604F1F2
:1047080030082E46A446BCE80F0030607160B260E5
:10471800F360103410354445F3D12B462246127805
:104728001A70302387F82F3097F82F30002B06D1D6
:104738002B4811F057FD0E2387F8373044E0294BFA
:104748001B68002B03D0274B1B682348984700237E
:104758003B6336E024493A6B13469B001344DB0065
:104768000B443C461D460FCD0FC40FCD0FC495E832
:10477800030084E803003B78002B1FD17B783A467E
:104788000232009214484FF4FA71184A11F090FD61
:10479800034687F82F3097F82F30002B06D114489E
:1047A80011F020FD0E2387F837300DE00D4B1B6804
:1047B800002B03D00B4B1B68074898473B6B013312
:1047C8003B633B6B172BC5D997F8373018463837FA
:1047D800BD46BDE8F08100BF543B012054C8010824
:1047E80088C80108600E0020680E0020B8C80108BB
:1047F800DCC8010880B590B000AFF860B9607A6095
:10480800002387F83F300023BB62FF2387F8373047
:10481800FF2387F83E30FF2387F8363007F110036F
:10482800594A92E803001860043319700023BB63E7
:1048380066E0564BBA6B53F822207B68DBB2F86807
:1048480011461A46FFF7A0F8034687F8373097F95C
:104858003730002B3DDB97F937201346DB00134434
:104868009B00BA6813443B63BB6B002B02D0012B3F
:1048780023D029E007F12803386B19460A2211F0E2
:10488800CBFE034687F83630BA6A3B6B9A4203D1AF
:104898000B2387F83F300FE097F83630182B04D8F1
:1048A80097F8363087F83E3006E0394811F09AFC20
:1048B800082387F83F300BE00AE007F11003184699
:1048C800396B11F058FD03E00B2387F83F300FE0F8
:1048D8000EE0BB6B012B00D10FE02C4BBA6B53F8E9
:1048E80022302C48194611F07DFC092387F83F3007
:1048F80097F83F30002B00D005E0BB6B0133BB635A
:10490800BB6B012B95DD97F83F30002B36D197F81C
:104918003E30FF2B2FD097F83E30184600F0D2F8E3
:10492800F862FB6A002B24D0FB6A1B78012B1CD190
:10493800FB6A97F83E205A70FB6A9A1C07F110032D
:104948001046194611F017FDFB6A01229A76F96A9A
:104958004FF000024FF00003C1E90823F86A00F0A5
:104968001BF8034687F83F3008E00D2387F83F30EF
:1049780004E00A2304E00C2387F83F3097F83F301F
:1049880018464037BD4680BDECC701082801002005
:104998000CC9010848C9010880B584B000AF786027
:1049A8000023FB737B685B78BB73BB7B172B06D834
:1049B8007B6800221A70074811F014FC04E00648CE
:1049C80011F010FC0823FB73FB7B18461037BD461B
:1049D80080BD00BF7CC90108B4C9010880B58AB090
:1049E80000AFF860B9607A60002387F82730FF23AA
:1049F800FB7700233B6255E02F4B3A6A53F822209D
:104A08007B68DBB2F86811461A46FEF7BDFF03461D
:104A1800FB7797F91F30002B36DB97F91F201346D9
:104A2800DB0013449B00BA681344BB613B6A002B4C
:104A380026D100233B6107F11003B86919460A2201
:104A480011F0EAFD0346FB753A69BB699A4203D146
:104A58000B2387F8273011E0FB7D1846FFF786FD0A
:104A68000346002B04D0FB7D1846FFF7B3FD05E095
:104A7800124811F0B7FB082387F8273000BF0EE073
:104A88000B2387F827300AE00B4B3A6A53F8223099
:104A98000B48194611F0A6FB092387F827303B6A13
:104AA80001333B623B6A002BA6D097F827301846A3
:104AB8002837BD4680BD00BF300100200CC9010861
:104AC80048C9010880B582B000AF0346FB71FB7985
:104AD8001846FFF74BFD0346002B07D0FA7913461B
:104AE8009B001344DB00054A134403E0044811F01B
:104AF80079FB002318460837BD4680BD680E0020A4
:104B0800F4C7010880B582B000AF786005F00EFCEC
:104B180002460B467968C1E908237B685B7818462A
:104B2800FFF718FC03461A467B689A760837BD4695
:104B380080BD00BF80B483B000AF7860034B7A6853
:104B48001A600C37BD465DF8047B7047600E002084
:104B58002DE9F04188B004AF78607B6803F1020862
:104B68007B685B781E467B68D3E908457B689B7E3B
:104B7800184605F027FE0346CDE9004502930C4888
:104B88000C494246334611F0C5FB0346FB730A4BFA
:104B98001B68002B04D0084B1B680548984702E0A7
:104BA800064811F01FFB1037BD46BDE8F08100BF75
:104BB800543B012014CA0108600E002094CA010861
:104BC80080B483B000AF0346FB71FA79044B53F805
:104BD800223018460C37BD465DF8047B704700BF8D
:104BE8005401002080B500AF034811F0FBFA034BD5
:104BF80000221A7080BD00BFE8CA010828120020F0
:104C080080B500AF134B1B78002B0AD0114B1B78D3
:104C18001846FFF7D5FF03460F48194611F0E2FA88
:104C280016E00E4811F0DEFA06F0C6FA0C4806F057
:104C3800E1FB0C4B00221A600B4B00221A600B4B55
:104C480000221A600A4B00221A70024B01221A70C5
:104C580080BD00BF2812002018CB010860CB0108D6
:104C6800E54200082C1200203012002034120020E7
:104C78003812002080B582B000AF2E4B1B78042B71
:104C880054D801A252F823F0A54C0008AB4C0008F8
:104C9800354D0008B14C0008174D0008FFF7B0FF6C
:104CA80045E000F061F842E000233B60224B1A68BF
:104CB800224B1B689A421FD2214B1B78012B05D12E
:104CC8001D4B1B685A1C1C4B1A6030E000237B608C
:104CD80009E01C4B1A687B689B0013441B683B6007
:104CE8007B6801337B607B680F2BF2D9124B1B6802
:104CF8005A1C114B1A601AE0134811F073FA134842
:104D080005F0FCF900F030F800F0DEFB0FE00A4B8C
:104D180000221A60094B00221A600A4B00221A600E
:104D2800074B00221A7000F01FF800E000BF083798
:104D3800BD4680BD28120020301200202C12002011
:104D4800381200203412002098CB0108CCCB01087F
:104D580080B500AF034811F045FA00F005F800F0FF
:104D6800B3FB80BDECCB010880B500AF0C4B1B78C2
:104D7800012B0ED00A4B1B78032B0AD0084B1B784B
:104D88001846FFF71DFF03460648194611F02AFA90
:104D980005E0054811F026FA014B02221A7080BD81
:104DA8002812002018CC010858CC010880B586B01C
:104DB80000AFF860B9601346FB71384B1B78022BC3
:104DC8000AD0364B1B781846FFF7FAFE03463448DC
:104DD800194611F007FA5EE0FB68002B03D1314851
:104DE80011F000FA57E0FB79012B0ED1FB681B6824
:104DF800002B03D12C4811F0F5F94CE02B4B002285
:104E08001A702B4B01221A701DE00023FB750AE073
:104E1800FB7D9B00FA6813441B68002B00D005E05B
:104E2800FB7D0133FB75FB7D0F2BF1D9FB7D0F2B30
:104E380003D9204811F0D6F92DE01C4BFA7D1A70E1
:104E48001B4B10221A701C4BFA681A600023BB75A2
:104E5800194B1A68154B1B789B0013441B683B6160
:104E68000DE0154B1A68BB7D0133BB75BB7D9B00FC
:104E780013441B683B61BB7D102B00D10BE03B69E1
:104E8800002BEED00D4B00221A600D4BBA681A6049
:104E9800024B03221A701837BD4680BD2812002025
:104EA80088CC0108D4CC010844CD0108391200206F
:104EB80038120020B0CD0108341200203012002032
:104EC8002C12002080B483B000AF0346FB71FA793E
:104ED800044B53F8223018460C37BD465DF8047B66
:104EE800704700BF6801002080B500AF034811F08B
:104EF80079F9034B00221A7080BD00BFA8CE0108C3
:104F08003A12002080B500AF104B1B78002B0AD056
:104F18000E4B1B781846FFF7D5FF03460C48194679
:104F280011F060F911E00B4811F05CF90A4B00220E
:104F38001A600A4B00221A60094B00221A60094BBA
:104F480000221A70014B01221A7080BD3A1200200B
:104F5800D8CE010820CF01083C12002040120020C2
:104F6800441200204812002080B582B000AF464BA2
:104F78001B78042B00F2848001A252F823F000BFB2
:104F88009D4F0008A34F000889500008A94F00084A
:104F98006B500008FFF7B6FF73E000F091F870E07F
:104FA8003A4B1A683A4B1B789B0013441B683B60CA
:104FB800384B1A68384B1B689A4203D3364B1B6828
:104FC800002B42D1354B1B78012B11D12F4B1B687D
:104FD8001B681846FFF796FD2C4B1B681B68184684
:104FE800FFF7B6FD2B4B1B685A1C2A4B1A6037E09B
:104FF80000237B6020E0254B1A687B689B001344E4
:105008001B683B603B68002B0CBF00230123DAB20E
:105018003B681B78002B14BF00230123DBB213402D
:10502800DBB2002B05D03868FFF76CFD3868FFF756
:105038008FFD7B6801337B607B68172BDBD9154BB1
:105048001B685A1C134B1A600AE0154811F0CAF87D
:10505800144805F053F800F033F800F029FA10E08E
:105068000FE00C4B00221A600B4B00221A60074B12
:1050780000221A60094B00221A7000F021F800E0A3
:1050880000BF0837BD4680BD3A12002044120020F8
:1050980049120020401200203C1200204812002033
:1050A80058CF01088CCF010880B500AF034811F034
:1050B80099F800F005F800F0FBF980BDACCF0108C5
:1050C80080B500AF0C4B1B78012B0ED00A4B1B7818
:1050D800032B0AD0084B1B781846FFF7F3FE03464C
:1050E8000648194611F07EF805E0054811F07AF8EF
:1050F800014B02221A7080BD3A120020D8CF010855
:1051080018D0010880B588B000AFF860B9601346C0
:10511800FB71474B1B78022B0AD0454B1B7818466E
:10512800FFF7D0FE03464348194611F05BF87BE0D1
:10513800FB68002B03D1404811F054F874E03F4B52
:1051480000221A603E4BBA681A60FB79012B17D10E
:10515800FB681B68002B03D13A4811F043F863E061
:10516800FB681B681B78012B03D1374811F03AF80C
:105178005AE0364B00221A70354B01221A7025E08E
:105188000023FB7712E0FB7F9B00FA6813441B683F
:10519800002B08D0FB7F9B00FA6813441B681B7820
:1051A800002B00D105E0FB7F0133FB77FB7F172B3A
:1051B800E9D9FB7F172B03D9264811F013F833E000
:1051C800224BFA7F1A70224B18221A70224BFA6867
:1051D8001A60214B1A681D4B1B789B0013441B68EF
:1051E800BB61BB69002B16D10023FB750DE01A4B80
:1051F8001A68FB7D0133FB75FB7D9B0013441B681C
:10520800BB61FB7D182B00D10EE0BB69002BEED0F3
:105218000E4BFA7D1A70094B00221A60084BBA68C7
:105228001A60034B03221A702037BD4680BD00BFA9
:105238003A12002048D0010894D0010840120020FA
:105248003C12002004D1010870D101084912002045
:1052580048120020E0D101084412002080B500AFB8
:10526800074B00221A7001F049FF01F055FFFFF7C4
:105278003BFEFFF747FEFFF7B5FCFFF7C1FC80BD1B
:105288004A12002080B500AF2F4B1B78052B58D849
:1052980001A252F823F000BFB9520008CD5200080D
:1052A800DB520008F1520008075300081D5300089C
:1052B80001F0DAFFFFF758FEFFF7DCFC224B012272
:1052C8001A703FE001F0D0FFFFF74EFEFFF7D2FC67
:1052D80038E01E4B1B78012B02D101F0C5FF31E0ED
:1052E800194B01221A702DE0194B1B78012B02D1A2
:1052F800FFF73AFE26E0144B01221A7022E0154B04
:105308001B78012B02D1FFF7B5FC1BE00E4B0122E5
:105318001A7017E00D4B1B78012B07D00C4B1B782C
:10532800012B03D00B4B1B78012B06D101F09CFFFE
:10533800FFF71AFEFFF79EFC04E0034B01221A70E8
:1053480000E000BF80BD00BF4A1200204B120020C1
:105358004C1200204D12002080B500AF224810F0FA
:1053680041FF224B1B78052B36D801A252F823F0B7
:10537800EB530008EB53000891530008A3530008AF
:10538800B5530008C7530008194810F02BFF01F067
:10539800C9FF164B01221A7024E0164810F022FFAC
:1053A800FFF782FE114B01221A701BE0124810F021
:1053B80019FFFFF7CDFC0D4B01221A7012E00F48C0
:1053C80010F010FF01F0AEFFFFF76EFEFFF7C0FC14
:1053D800064B01221A7005E0094810F003FF00BFD0
:1053E80000E000BF80BD00BFD4D201084A120020EF
:1053F800FCD2010830D3010864D3010898D301080E
:10540800C0D3010880B400AF044B02221A70044BC9
:1054180001221A70BD465DF8047B70474A120020CD
:105428004B12002080B400AF044B03221A70044BC7
:1054380001221A70BD465DF8047B70474A120020AD
:105448004C12002080B400AF044B04221A70044BA5
:1054580001221A70BD465DF8047B70474A1200208D
:105468004D12002080B400AF074B05221A70074B7D
:1054780001221A70064B01221A70064B01221A707B
:10548800BD465DF8047B70474A1200204B1200208D
:105498004C1200204D12002080B400AF034B0022B4
:1054A8001A70BD465DF8047B704700BF4B120020A0
:1054B80080B400AF034B00221A70BD465DF8047B30
:1054C800704700BF4C12002080B400AF034B00228D
:1054D8001A70BD465DF8047B704700BF4D1200206E
:1054E80080B400AF034B1B781846BD465DF8047BBB
:1054F800704700BF4B12002080B400AF034B1B78ED
:105508001846BD465DF8047B704700BF4C1200206A
:1055180080B400AF034B1B781846BD465DF8047B8A
:10552800704700BF4D12002080B584B000AF78608E
:105538003960184BFB603B68002B02DAFB680133CB
:10554800FB607B6893F8DC34184606F001FD0346DF
:1055580006EE103AF8EEC67AB1EE047A87EE277AAC
:10556800DFED0D7A27EE277A3B6807EE903AF8EEE2
:10557800E76AFB6806EE103AF8EEC67AC6EEA77A36
:1055880067EE277A054BC3ED007A00BF1037BD469A
:1055980080BD00BFFFFF7F000000C84250120020FE
:1055A80080B400AF044B1B6807EE903AB0EE670A70
:1055B800BD465DF8047B70475012002080B500AFEF
:1055C800114BD3ED007AF5EE407AF1EE10FA13D1D3
:1055D80000200E4903F03CFE01200D4903F038FE7F
:1055E8000A4B1B881A040A4B1B881A43094B1A607A
:1055F800084B1A68044B1A60034B1B6807EE903A75
:10560800B0EE670A80BD00BF541200205E12002071
:105618005C1200206412002080B500AF114BD3ED5E
:10562800007AF5EE407AF1EE10FA13D102200E4915
:1056380003F00EFE03200D4903F00AFE0A4B1B88F7
:105648001A040A4B1B881A43094B1A60084B1A683C
:10565800044B1A60034B1B6807EE903AB0EE670ADA
:1056680080BD00BF58120020621200206012002086
:105678006412002080B485B000AF78607B68012296
:1056880083F8DB247B68002283F8DC247B682322F0
:1056980083F8DD247B68002283F8D8247B68002205
:1056A80083F8D9247B6800221A627B6800225A6238
:1056B8000023FB6013E07B68FA680A32002143F894
:1056C80022107A68FB683733DB00D1184FF00002EC
:1056D8004FF00003C1E90023FB680133FB60FB685E
:1056E800632BE8D97B6801221A701437BD465DF830
:1056F800047B704780B582B000AF0346FB71FB792D
:10570800184600F081FE0346002B0AD0FB794FF4BF
:105718009C6202FB03F2134B13441846FFF7AAFFDF
:105728001CE0FB79184600F0DFFE0346002B0FD083
:10573800FB79242B00D111E0FB79213B4FF49C62CB
:1057480002FB03F2084B13441846FFF793FF05E0EA
:10575800FB79202B02D0054810F044FD0837BD46E0
:1057680080BD00BF4055002040F1002008D401084A
:1057780090B583B000AF00F0E5FE00237B600CE03D
:105788007B684FF49C6202FB03F2294B13441846D2
:10579800FFF770FF7B6801337B607B681F2BEFD9B5
:1057A80000237B600CE07B684FF49C6202FB03F2F1
:1057B800204B13441846FFF75DFF7B6801337B607D
:1057C8007B68032BEFD91C48FFF754FF242000F017
:1057D8004FFB38603B6824225A703B68012283F8EB
:1057E800DB243B68F02283F8DD243B68032283F83E
:1057F800DC243B685A1D114B144607CB20606160BE
:10580800A2601B88A3813B68002283F8D8243B68E8
:10581800002283F8D9243B6800221A623B680022E0
:105828005A62386800F062FA0C37BD4690BD00BF76
:105838004055002040F10020C004012064D4010834
:105848002DE9F041ADF5A16D06AF002387F8EF34DF
:1058580004F0DAFF8D4A8E4B11461A46412308465A
:1058680011461A4610F0ADFC402387F8E33497F848
:10587800E334002B06D1874810F0B4FC072387F8DF
:10588800EF34FBE0844B1B68002B03D0824B1B6872
:105898007E4898470023C7F8E8345DE03A467F49D8
:1058A800D7F8E8344FF49C6000FB03F30B4411462F
:1058B8001A464FF49C63084611461A4610F081FCBC
:1058C8003B461B78002B42D13B465B781C463B4647
:1058D8005B88184600F0A6FB80463B4693F8DC340C
:1058E800184605F0EFFE06463B4693F8DD341846A9
:1058F80005F07CFE05463B4693F8DB34184605F078
:105908001BFF0346CDF800803A4605320192029605
:10591800039504935D484FF4FA71614A234610F0E9
:10592800C7FC034687F8E33497F8E334002B06D125
:105938005C4810F057FC072387F8EF3410E0564B0B
:105948001B68002B03D0544B1B6850489847D7F866
:10595800E8340133C7F8E834D7F8E8341F2B9DD969
:1059680097F8EF34002B40F08980484A4E4B154693
:105978001C460FCC28606960AA60EB60206828612B
:10598800A388AB82152387F8E33497F8E334002B18
:1059980006D1464810F026FC072387F8EF346DE05F
:1059A8003D4B1B68002B03D03B4B1B68374898477F
:1059B8000023C7F8E4345DE03A463D49D7F8E434BB
:1059C8004FF49C6000FB03F30B4411461A464FF456
:1059D8009C63084611461A4610F0F3FB3B461B78B9
:1059E800002B42D13B465B781C463B461B79184648
:1059F80000F03CFC80463B4693F8DC34184605F042
:105A080061FE06463B4693F8DD34184605F0EEFD88
:105A180005463B4693F8DB34184605F08DFE0346F1
:105A2800CDF800803A460532019202960395049318
:105A380016484FF4FA711F4A234610F039FC034602
:105A480087F8E33497F8E334002B06D1154810F0B3
:105A5800C9FB072387F8EF3410E00F4B1B68002BB6
:105A680003D00D4B1B6809489847D7F8E434013335
:105A7800C7F8E434D7F8E434032B9DD997F8EF340A
:105A8800184607F59E67BD46BDE8F081543B0120E6
:105A980074D40108B8D401086812002040550020C9
:105AA800E8D401084CD501087CD5010894D5010833
:105AB80040F10020CCD5010880B592B000AFF86065
:105AC800B9601346FB71002387F84730FF2387F836
