:020000040800F2
:1000000000000220651500086D1300087113000838
:10001000A1140008A5140008A9140008000000009D
:10002000000000000000000000000000BD150008F6
:10003000AD14000800000000BD150008B114000850
:10004000BD150008BD150008BD150008BD15000848
:10005000BD150008BD150008BD150008BD15000838
:10006000BD150008BD150008BD150008BD15000828
:10007000BD150008BD150008BD150008BD15000818
:10008000BD150008BD150008BD150008BD15000808
:1000900025150008BD150008BD150008BD15000890
:1000A000BD150008BD150008BD150008BD150008E8
:1000B000BD150008BD150008BD150008BD150008D8
:1000C000BD150008BD150008BD150008BD150008C8
:1000D000BD150008BD150008BD150008BD150008B8
:1000E000B5140008BD150008BD150008BD150008B1
:1000F000BD150008BD150008BD150008BD15000898
:10010000BD150008BD150008D5140008BD15000870
:10011000BD150008BD150008BD150008BD15000877
:10012000BD150008BD150008BD150008BD15000867
:10013000BD150008BD150008BD150008BD15000857
:10014000BD150008BD150008BD150008BD15000847
:10015000BD150008BD150008BD150008BD15000837
:10016000BD150008BD150008BD150008BD15000827
:10017000BD150008BD150008BD15000800000000F1
:08018000BD150008BD150008C3
:1001880010B5054C237833B9044B13B10448AFF3C9
:1001980000800123237010BD5006002000000000DD
:1001A800DC86010808B5064B1BB106480649AFF3C3
:1001B80000800648036813B1054B03B1984708BD92
:1001C80000000000DC8601085406002050060020CC
:1001D8000000000010F8012B11F8013B012A28BF8C
:1001E8009A42F7D0D01A704781F0004102E000BF70
:1001F80083F0004330B54FEA41044FEA430594EADF
:10020800050F08BF90EA020F1FBF54EA000C55EA19
:10021800020C7FEA645C7FEA655C00F0E2804FEAEA
:100228005454D4EB5555B8BF6D420CDD2C4480EACC
:10023800020281EA030382EA000083EA010180EAFC
:10024800020281EA0303362D88BF30BD11F0004F4A
:100258004FEA01314FF4801C4CEA113102D0404280
:1002680061EB410113F0004F4FEA03334CEA1333BB
:1002780002D0524263EB430394EA050F00F0A780D3
:10028800A4F10104D5F1200E0DDB02FA0EFC22FACE
:1002980005F2801841F1000103FA0EF2801843FAC2
:1002A80005F359410EE0A5F120050EF1200E012AB3
:1002B80003FA0EFC28BF4CF0020C43FA05F3C018F1
:1002C80051EBE37101F0004507D54FF0000EDCF16A
:1002D800000C7EEB00006EEB0101B1F5801F1BD313
:1002E800B1F5001F0CD349085FEA30004FEA3C0C17
:1002F80004F101044FEA445212F5800F80F09A800D
:10030800BCF1004F08BF5FEA500C50F1000041EB10
:10031800045141EA050130BD5FEA4C0C404141EB14
:10032800010111F4801FA4F10104E9D191F0000F3B
:1003380004BF01460020B1FA81F308BF2033A3F1BE
:100348000B03B3F120020CDA0C3208DD02F1140CB5
:10035800C2F10C0201FA0CF021FA02F10CE002F1F0
:100368001402D8BFC2F1200C01FA02F120FA0CFCE9
:10037800DCBF41EA0C019040E41AA2BF01EB045132
:10038800294330BD6FEA04041F3C1CDA0C340EDC30
:1003980004F11404C4F1200220FA04F001FA02F373
:1003A80040EA030021FA04F345EA030130BDC4F131
:1003B8000C04C4F1200220FA02F001FA04F340EA26
:1003C8000300294630BD21FA04F0294630BD94F0D7
:1003D800000F83F4801306BF81F480110134013DBE
:1003E8004EE77FEA645C18BF7FEA655C29D094EA2F
:1003F800050F08BF90EA020F05D054EA000C04BFAD
:100408001946104630BD91EA030F1EBF0021002097
:1004180030BD5FEA545C05D14000494128BF41F036
:10042800004130BD14F580043CBF01F5801130BD9A
:1004380001F0004545F0FE4141F470014FF0000025
:1004480030BD7FEA645C1ABF194610467FEA655CD6
:100458001CBF0B46024650EA013406BF52EA033578
:1004680091EA030F41F4002130BD00BF90F0000F66
:1004780004BF0021704730B54FF4806404F13204A2
:100488004FF000054FF0000150E700BF90F0000F5B
:1004980004BF0021704730B54FF4806404F1320482
:1004A80010F0004548BF40424FF000013EE700BF52
:1004B80042004FEAE2014FEA31014FEA02701FBFE2
:1004C80012F07F4393F07F4F81F06051704792F0B4
:1004D800000F14BF93F07F4F704730B54FF460742E
:1004E80001F0004521F0004120E700BF50EA010279
:1004F80008BF704730B54FF000050AE050EA010226
:1005080008BF704730B511F0004502D5404261EB95
:1005180041014FF4806404F132045FEA915C3FF4D6
:10052800DCAE4FF003025FEADC0C18BF03325FEA6F
:10053800DC0C18BF033202EBDC02C2F1200300FA24
:1005480003FC20FA02F001FA03FE40EA0E0021FA49
:1005580002F11444C1E600BF70B54FF0FF0C4CF433
:10056800E06C1CEA11541DBF1CEA135594EA0C0FE9
:1005780095EA0C0F00F0DEF82C4481EA030621EA24
:100588004C5123EA4C5350EA013518BF52EA03355F
:1005980041F4801143F4801338D0A0FB02CE4FF011
:1005A8000005E1FB02E506F00042E0FB03E54FF041
:1005B8000006E1FB03569CF0000F18BF4EF0010E39
:1005C800A4F1FF04B6F5007F64F5407404D25FEA35
:1005D8004E0E6D4146EB060642EAC62141EA5551E8
:1005E8004FEAC52040EA5E504FEACE2EB4F1FD0C2A
:1005F80088BFBCF5E06F1ED8BEF1004F08BF5FEAA8
:10060800500E50F1000041EB045170BD06F0004659
:1006180046EA010140EA020081EA0301B4EB5C0406
:10062800C2BFD4EB0C0541EA045170BD41F48011FE
:100638004FF0000E013C00F3AB8014F1360FDEBF23
:10064800002001F0004170BDC4F10004203C35DAFF
:100658000C341BDC04F11404C4F1200500FA05F382
:1006680020FA04F001FA05F240EA020001F0004223
:1006780021F0004110EBD37021FA04F642EB060199
:100688005EEA430E08BF20EAD37070BDC4F10C04C3
:10069800C4F1200500FA04F320FA05F001FA04F287
:1006A80040EA020001F0004110EBD37041F1000173
:1006B8005EEA430E08BF20EAD37070BDC4F120057E
:1006C80000FA05F24EEA020E20FA04F301FA05F2E6
:1006D80043EA020321FA04F001F0004121FA04F28E
:1006E80020EA020000EBD3705EEA430E08BF20EA5E
:1006F800D37070BD94F0000F0FD101F00046400098
:1007080041EB010111F4801F08BF013CF7D041EA19
:10071800060195F0000F18BF704703F0004652001D
:1007280043EB030313F4801F08BF013DF7D043EAEE
:100738000603704794EA0C0F0CEA135518BF95EAA4
:100748000C0F0CD050EA410618BF52EA4306D1D12B
:1007580081EA030101F000414FF0000070BD50EA4A
:10076800410606BF1046194652EA430619D094EAD4
:100778000C0F02D150EA013613D195EA0C0F05D1BE
:1007880052EA03361CBF104619460AD181EA030112
:1007980001F0004141F0FE4141F470014FF00000CA
:1007A80070BD41F0FE4141F4780170BD70B54FF065
:1007B800FF0C4CF4E06C1CEA11541DBF1CEA1355E5
:1007C80094EA0C0F95EA0C0F00F0A7F8A4EB0504C7
:1007D80081EA030E52EA03354FEA013100F08880BE
:1007E8004FEA03334FF0805545EA131343EA126387
:1007F8004FEA022245EA111545EA10654FEA00263C
:100808000EF000419D4208BF964244F1FD0404F5F4
:10081800407402D25B084FEA3202B61A65EB030550
:100828005B084FEA32024FF480104FF4002CB6EB0D
:10083800020E75EB030E22BFB61A754640EA0C008D
:100848005B084FEA3202B6EB020E75EB030E22BFCD
:10085800B61A754640EA5C005B084FEA3202B6EB0E
:10086800020E75EB030E22BFB61A754640EA9C00CD
:100878005B084FEA3202B6EB020E75EB030E22BF9D
:10088800B61A754640EADC0055EA060E18D04FEA5B
:10089800051545EA16754FEA06164FEAC30343EAFB
:1008A80052734FEAC2025FEA1C1CC0D111F4801FC8
:1008B8000BD141EA00014FF000004FF0004CB6E7C1
:1008C80011F4801F04BF01430020B4F1FD0C88BF60
:1008D800BCF5E06F3FF6AFAEB5EB030C04BFB6EB6B
:1008E800020C5FEA500C50F1000041EB045170BD5E
:1008F8000EF0004E4EEA113114EB5C04C2BFD4EB8B
:100908000C0541EA045170BD41F480114FF0000E0E
:10091800013C90E645EA060E8DE60CEA135594EA8A
:100928000C0F08BF95EA0C0F3FF43BAF94EA0C0F8D
:100938000AD150EA01347FF434AF95EA0C0F7FF402
:1009480025AF104619462CE795EA0C0F06D152EA56
:1009580003353FF4FDAE1046194622E750EA41063A
:1009680018BF52EA43067FF4C5AE50EA41047FF44B
:100978000DAF52EA43057FF4EBAE12E74FF0FF3CB0
:1009880006E000BF4FF0010C02E000BF4FF0010C81
:100998004DF804CD4FEA410C7FEA6C5C4FEA430CFA
:1009A80018BF7FEA6C5C1BD001B050EA410C0CBF49
:1009B80052EA430C91EA030F02BF90EA020F0020AB
:1009C800704710F1000F91EA030F58BF994208BF12
:1009D80090422CBFD8176FEAE37040F001007047CF
:1009E8004FEA410C7FEA6C5C02D150EA013C07D126
:1009F8004FEA430C7FEA6C5CD6D152EA033CD3D071
:100A08005DF8040B704700BF8446104662468C466A
:100A18001946634600E000BF01B5FFF7B7FF00289D
:100A280048BF10F1000F01BD4DF808EDFFF7F4FFC6
:100A38000CBF012000205DF808FB00BF4DF808ED51
:100A4800FFF7EAFF34BF012000205DF808FB00BF74
:100A58004DF808EDFFF7E0FF94BF012000205DF896
:100A680008FB00BF4DF808EDFFF7CEFF94BF01204B
:100A780000205DF808FB00BF4DF808EDFFF7C4FF44
:100A880034BF012000205DF808FB00BF4FEA410297
:100A980012F5001215D211D56FF47873B3EB6252C8
:100AA80012D94FEAC12343F0004343EA505311F0EF
:100AB800004F23FA02F018BF404270474FF0000081
:100AC800704750EA013005D111F0004008BF6FF0BF
:100AD800004070474FF00000704700BF4A0011D235
:100AE80012F5001211D20DD56FF47873B3EB625280
:100AF8000ED44FEAC12343F0004343EA505323FA8C
:100B080002F070474FF00000704750EA013002D100
:100B18004FF0FF3070474FF0000070474FEA410236
:100B2800B2F1E04324BFB3F5001CDCF1FE5C0DD943
:100B380001F0004C4FEAC0024CEA5070B2F1004F8D
:100B480040EB830008BF20F00100704711F0804F90
:100B580021D113F13872BCBF01F00040704741F455
:100B680080114FEA5252C2F11802C2F1200C10FA59
:100B78000CF320FA02F018BF40F001004FEAC1233D
:100B88004FEAD32303FA0CFC40EA0C0023FA02F3E1
:100B98004FEA4303CCE77FEA625307D150EA0133B7
:100BA8001EBF4FF0FE4040F44000704701F0004087
:100BB80040F0FE4040F40000704700BF4BB942B916
:100BC800002908BF002802D04FF0FF31084600F086
:100BD8005FB882B0EC462DE9005000F041F8DDF82E
:100BE80004E002B00CBC704770B5FFF761FC00224E
:100BF8000D4B04460D46FFF7AFFCFFF76FFF0646A7
:100C0800FFF734FC0022094BFFF7A6FC02460B460F
:100C180020462946FFF7ECFAFFF760FF002242EA78
:100C280000042046314670BD0000F03D0000F04150
:100C38002DE97043069E14461D468046894600F0FD
:100C480029F804FB01F300FB0533A4FB00451D4410
:100C5800B8EB040469EB0505C6E90045BDE87083F7
:100C68002DE97043069E1446804689461D4600F0CD
:100C78005DF900FB05F504FB0153A0FB04451D4489
:100C8800B8EB040469EB0505C6E90045BDE87083C7
:100C9800704700BF00292DE9F00FC0F29F800024A3
:100CA800002BC0F29680154606460F46002B3ED113
:100CB8008A4257D9B2FA82F34BB1C3F1200201FA42
:100CC80003F720FA02F29D40174300FA03F6290CB5
:100CD800B7FBF1F2330C01FB127CA8B243EA0C47D4
:100CE80000FB02F3BB4209D97F1902F1FF3C80F0F7
:100CF8000181BB4240F2FE80023A2F44FF1AB7FB43
:100D0800F1F3B6B201FB137146EA014100FB03F0AF
:100D1800884208D9491903F1FF3780F0ED808842ED
:100D280040F2EA80023B43EA0242002303E08B429E
:100D38000AD900231A461046194614B1404261EBFD
:100D48004101BDE8F00F7047B3FA83F8B8F1000F1E
:100D580040F084808B4202D3824200F2DE8000237E
:100D68000122E8E712B90123B3FBF2F5B5FA85F2DF
:100D7800002A39D17F1B280C1FFA85FC0123B7FBF9
:100D8800F0F1320C00FB117742EA07470CFB01F245
:100D9800BA4207D97F1901F1FF3802D2BA4200F2EC
:100DA800C1804146BF1AB7FBF0F2B6B200FB127021
:100DB80046EA00400CFB02FC844507D9401902F1C1
:100DC800FF3702D2844500F2AB803A4642EA01423C
:100DD800B1E7E443524263EB430364E7404261EB0B
:100DE80041014FF0FF345BE79540C2F1200327FA39
:100DF80003F1280C26FA03F39740B1FBF0F81F43E0
:100E08003B0C00FB18111FFA85FC43EA01410CFB5F
:100E180008F38B4206FA02F608D9491908F1FF329D
:100E280079D28B4277D9A8F102082944C91AB1FBB3
:100E3800F0F3BFB200FB131147EA01470CFB03F2C2
:100E4800BA4207D97F1903F1FF3160D2BA425ED99D
:100E5800023B2F44BF1A43EA084390E7C8F1200237
:100E680003FA08FC25FA02F343EA0C0C4FEA1C4982
:100E780021FA02F301FA08F720FA02F2B3FBF9F1BA
:100E8800174309FB11333A0C1FFA8CFB42EA034360
:100E98000BFB01FA9A4505FA08F008D913EB0C0385
:100EA80001F1FF3235D29A4533D902396344CAEB8E
:100EB8000303B3FBF9F209FB1233BFB247EA034756
:100EC8000BFB02F9B94508D917EB0C0702F1FF3300
:100ED8001BD2B94519D9023A674442EA0145A5FB34
:100EE8000001C9EB07078F424FF000030AD305D072
:100EF8002A4620E7624601E73B4614E706FA08F669
:100F08008642F5D26A1E002315E71A46E5E70B4626
:100F1800A0E71146CBE7904688E7434642460AE7F2
:100F2800023A53E702392F443CE700BF2DE9F00F9E
:100F3800144605460E46002B43D18A4253D9B2FACD
:100F480082F757B1C7F1200620FA06F601FA07F32F
:100F580002FA07F41E4300FA07F5210CB6FBF1F27A
:100F68002B0C01FB1267A0B243EA074600FB02F311
:100F7800B34209D9361902F1FF3780F0F680B3423F
:100F880040F2F380023A2644F61AB6FBF1F3ADB20A
:100F980001FB136145EA014100FB03F0884208D9CF
:100FA800091903F1FF3680F0E280884240F2DF80C1
:100FB800023B43EA0242002310461946BDE8F00FFF
:100FC80070478B424AD8B3FA83F6002E4DD18B4234
:100FD80002D3824200F2D68000230122104619462D
:100FE800BDE8F00F704712B90124B4FBF2F4B4FA6B
:100FF80084F2002A7CD1091B260CA7B20123B1FB7D
:10100800F6F02A0C06FB101142EA014107FB00F238
:101018008A4207D9091900F1FF3C02D28A4200F23C
:10102800C3806046891AB1FBF6F2ADB206FB121115
:1010380045EA014507FB02F7AF4208D92C1902F12E
:10104800FF3180F09680A74240F29380023A42EA4C
:10105800004210461946BDE8F00F704700231A46B3
:1010680010461946BDE8F00F7047C6F1200522FA70
:1010780005F4B3401C434FEA144821FA05F301FA7A
:1010880006F720FA05F5B3FBF8FC2F4308FB1C33E1
:101098003D0C1FFA84FA45EA03430AFB0CF999450B
:1010A80002FA06FB04D91B190CF1FF326DD39446E2
:1010B800C9EB0303B3FBF8F508FB1533BFB247EAE6
:1010C80003470AFB05F8B84504D93F1905F1FF3372
:1010D80061D31D4645EA0C4CACFB0B23C8EB070754
:1010E8009F424FF0000549D345D062462B4663E73F
:1010F8009440C2F1200321FA03FC260C20FA03F3E2
:1011080001FA02F5BCFBF6F843EA05010B0C06FBF5
:1011180018CCA7B243EA0C4C07FB08F3634500FA66
:1011280002F509D91CEB040C08F1FF323AD26345E9
:1011380038D9A8F10208A444C3EB0C0CBCFBF6F3A5
:1011480089B206FB13CC41EA0C4107FB03F28A4241
:1011580007D9091903F1FF3022D28A4220D9023B6C
:101168002144891A43EA084349E73A460CE73346DB
:101178001FE70A466BE7B0409042B6D20CF1FF3247
:10118800002319E73346324616E799458FD9ACF163
:10119800020C23448CE7B8459BD9023D274499E7C4
:1011A8000346DEE79046C7E7023821443AE700BF26
:1011B800164B9A6802F00C02042A24D0082A0AD096
:1011C800134A124B13489968134BC1F30311415C3E
:1011D800CA401A607047586859685B6842024CBF39
:1011E8000E4A0B4A01F03F01C3F38813B2FBF1F238
:1011F80002FB03F2054B5B68C3F3014301335B0059
:10120800B2FBF3F2DDE7054ADBE700BF0038024036
:101218000024F400000000201000002000127A00D2
:101228002A4A2B4BD2F888102A4841F4700130B56D
:10123800C2F888101968284D284C002241F0010195
:1012480019609A60196821F0847121F4803119605D
:101258005D60196883B021F480211960DA6000921A
:1012680001921A6C42F080521A64026842F44042B9
:1012780002609A689A609A6842F400429A609A6892
:1012880042F4A0529A605C601A6842F080721A6058
:1012980019460B680E4A9B01FBD5114B40F20571AC
:1012A8001960936823F003039360936843F0020383
:1012B8009360936803F00C03082BFAD1FFF778FFCB
:1012C800024B4FF000629A6003B030BD00ED00E0C1
:1012D8000038024000700040103000248A340008B2
:1012E800003C024070B5161E0EDD0C468D190748ED
:1012F80014F8011B0FF080FE044840210FF080FE17
:101308000028F9D0AC42F2D1304670BD0048004008
:10131800094A136863B118446946884202D81060C4
:1013280018467047054B0C221A604FF0FF30704783
:10133800034B1360EFE700BF6C060020C063012079
:10134800C46301204FF0FF30704700BF4FF40053D3
:101358004B600020704700BF012070470020704795
:1013680000207047704700BF10B588B01EF0040F0A
:101378000CBFEFF30880EFF309802F4B2F481A6852
:1013880000925A6801929A680292DA6803921A697E
:1013980004925A6905929A690692DB69079310F0DC
:1013A8008DFF00992648274C10F02AFF01992648FE
:1013B80010F026FF0299254810F022FF03992448CF
:1013C80010F01EFF0499234810F01AFF05992248CF
:1013D80010F016FF0699214810F012FF07992048CF
:1013E80010F00EFF1F4B2048196810F009FF1F4B23
:1013F8001F48196810F004FF1E4B1F48196810F0A9
:10140800FFFEE16A1D4810F0FBFE1D4B1D481968E0
:1014180010F0F6FE1C4B1D48196810F0F1FEE36A47
:101428005B0001D400BEFDE7194810F047FFA16A30
:10143800184810F0E5FEF5E700040020F8860108DA
:101448001087010800ED00E01C87010828870108C3
:1014580034870108408701084C870108588701082C
:101468006487010838ED00E07087010828ED00E086
:101478007C8701082CED00E0888701089487010823
:1014880030ED00E0AC8701083CED00E0B8870108CA
:10149800C4870108D8870108FEE700BFFEE700BF40
:1014A800FEE700BF704700BF06F04ABC08B54FF41E
:1014B800804010F0D3F800B908BD012004F038FCD2
:1014C8004FF48040BDE8084010F0D2B870B50F481E
:1014D80010210FF09DFD00B970BD0D4C0B4826681A
:1014E8000C4D731C23600FF091FD102125F8160098
:1014F80006480FF099FD2368012BEDD969882A88E1
:10150800054B8A1A92B21A6070BD00BF000C0040E9
:101518002C230020700600203023002010B50C4C2E
:101528000C482246002110F0A9F8236840F2213225
:10153800934200D010BDA36803F0FF13B3F5803FBA
:10154800F8D1E17A0448BDE8104010F059BE00BF58
:101558009851002000640040F0870108DFF83CD073
:10156800002100F004B80E4B5B58435004310D487D
:101578000D4B42189A42FFF4F6AF0C4A00F003B83C
:10158800002342F8043B0A4B9A42FFF4F9AFFFF7F5
:1015980047FE10F0EFFD00F00FF870470000022042
:1015A80084CE0108000000205006002050060020CC
:1015B800C4630120FFF7FEBF80B54FF4407010F000
:1015C800AFF806F0ABFD464810F01AFE01214FF0C7
:1015D80080500FF015FE01200FF058FE13200FF079
:1015E800ABFD830778D43F4810F00AFE7D200FF04A
:1015F8002BFE002862D00FF041FE0FF03FFE06F0F0
:1016080077FD06F063FD02F0BFFD02F03FFF02F038
:1016180051F801F0FFFD3448344C03F047FA3248E2
:1016280002F0AEFA304802F021F806F0A3FE304886
:1016380010F0E6FD002384F8203006F089FC4FF016
:10164800013006F0F7FC204606F0B8FC05F050FF24
:10165800074638BB274CDFF8A88000F06FF825460E
:10166800012602E02E700FF017FE02F0A1FD23788C
:10167800012BF7D12F7004F0D5FF80B906F06CFB71
:1016880005F06EF906F0FCF90128ECD106F0FEF938
:1016980088F800000028E6D000F05EF8E3E705F0DF
:1016A800E5F8EBE7BFF34F8F134A144BD16801F409
:1016B800E0610B43D360BFF34F8FFEE77C200FF050
:1016C800C3FD002899D17B200FF0BEFD002894D1DE
:1016D8007A200FF0B9FD90E70FF00CFD86E700BF08
:1016E8000C8801082C880108D57A0008043B0120E1
:1016F800548801081400002000ED00E00400FA05F9
:10170800AC510020014B53F820007047888801082D
:10171800014B53F820007047AC880108BFF34F8F86
:10172800044A054BD16801F4E0610B43D360BFF371
:101738004F8FFEE700ED00E00400FA0510B5054CF8
:10174800002120464FF4007210F052FD0023A4F847
:10175800003210BD740600202DE9F04F2DED028BEC
:10176800ADF53F7DA8B19A49B1F80032B3F5007FD5
:101778000FD20A281DD00D281BD008280FD07F288B
:101788000DD0202800F0B584914E5A1CF054A6F8CC
:1017980000220DF53F7DBDEC028BBDE8F08F002BDC
:1017A800F7D0013B9BB28A4E0022A6F80032F254D1
:1017B800EFE78749874810F023FD8548864910F0F0
:1017C80034FE0746002800F01B8100240134013054
:1017D8008149E4B210F029FE0028F7D107462146D6
:1017E8007E48254610F00CFD002C00F00E8178484C
:1017F800794910F0D6FD242800F091847649744880
:1018080011F098FC0DF128080146404610F0C1FD82
:1018180052AE08E001460137304610F0BAFDBC422E
:1018280006F1240605DD00206B4911F083FC002831
:10183800F0D16B48414610F0E3FC52AF0026314628
:101848003A466848013610F0DBFCB44207F1240739
:10185800F5DC654810F0D4FC98F800308BB10DF138
:1018680029024046A3F16101192905D8A3F14101D4
:10187800192984BF203B0370104612F8013B002B46
:10188800F0D15A4F5A4810F0BBFC0026B94604E084
:101898000136F6B22B2E00F03D8459F8047F4046FD
:1018A8003946FEF797FC0028F2D13946514810F026
:1018B800A7FC002D59D00DF1700A0DF508790DF52A
:1018C800A5774FF00008A7F1020B58464A490222B3
:1018D80010F094FD002840F01E81394613A810F03E
:1018E80058FD464913A811F025FC037801468BB131
:1018F800421C8446A3F16100192806D8A3F14100CF
:10190800192884BF203B8CF80030944612F8013B1C
:10191800002BEFD1484610F03CFD0020374911F06C
:1019280009FC002851D003788BB1421C8446A3F1EE
:101938006101192906D8A3F14101192984BF203B67
:101948008CF80030944612F8013B002BEFD1014689
:10195800504610F01EFD08F10108A8450AF1240AB6
:1019680009F1240907F12407ADD12A2E01F2DA8101
:10197800DFE816F09601CE018E0182017B01960008
:101988007600F5022E02EA01E201FD01F5010D02E1
:10199800D60133032B030C030403B2031C03960084
:1019A800F2012703230395023602AF039600400392
:1019B800DD0196005E016F0156012001EA00C000BA
:1019C800A400780114037A0396008AF80000C2E79D
:1019D80074060020808D0108B88C0108988D0108D4
:1019E800909C0108F48D0108288E0108B88C010824
:1019F800548E0108209C0108808E0108848E0108FD
:101A0800AB48394610F0FCFB3D46AA4810F0D9FC1B
:101A1800232818D9A84810F0F3FBA64800214FF452
:101A2800007210F0E5FB00214FF40072A14810F09D
:101A3800DFFBA04A0023A2F800320DF53F7DBDEC84
:101A4800028BBDE8F08F0DF12808421C99494046E9
:101A580010F0C5FB4146994810F0D2FB0024F8E687
:101A6800012C1DD8964B1E6865B10DF50878002726
:101A780040463146FEF7AEFB90B90137AF4208F158
:101A88002408F5D164B1314688A8FEF7A3FB38B91C
:101A98008C4810F0B5FB1CA806F0A6FC06F098FCD4
:101AA8000020FFF72FFE03468748884A4FF400714D
:101AB80010F00CFC844806F07FF8B4E707F0B2F8A1
:101AC8000928EDD0824C182323700420FFF71AFE52
:101AD8000346804A7C484FF4007110F0F7FB2078E9
:101AE800FFF716FE7C4A03464FF40071764810F063
:101AF800EDFBDFE7012C40F2918500252846FFF732
:101B080001FE013D0346062DCED8DFE805F0140D91
:101B18000D1B0D0D0D0041465A46704810F070FB24
:101B28000320FFF7EFFD03466D4A67484FF4007145
:101B380010F0CCFBBEE76B4A63484FF4007110F01D
:101B4800C5FBB7E7624CC4E7012CD6D8664B1E68C4
:101B58006DB10DF50878002740463146FEF73AFB8F
:101B68000028CAD10137AF4208F12408F4D1002C6B
:101B7800C3D0314688A8FEF72DFB04460028BCD107
:101B88005A4810F03DFB10F0EFFA214604601CA8FB
:101B980011F0B6FAB0EE408A10F0E6FA0368002BAE
:101BA80040F06B85B0EE480A06F0F0FF092841F0D6
:101BB800B380A2E7012CA0D84D4B1E686DB10DF57E
:101BC8000878002740463146FEF704FB002894D1E8
:101BD8000137AF4208F12408F4D1002C8DD03146EA
:101BE80088A8FEF7F7FA0446002886D13F4810F087
:101BF80007FB10F0B9FA214604601CA811F080FA1E
:101C0800B0EE408A10F0B0FA0368002B40F035853A
:101C1800B0EE480A06F094FF092841F07D806CE791
:101C2800062C40F29B83334810F0EAFA032565E757
:101C380001F016FA3049314B314A012818BF0B46DA
:101C48004FF40071204810F041FB1F4805F0B4FF25
:101C580026E706F059FF09283FF422AF1C4C17234A
:101C6800237032E706F062FF1AE702F07DFB0028D6
:101C780001F06180052541E702F076FB0028F9D1E3
:101C8800052C40F2FD841F4810F0BAFA032535E709
:101C9800022C40F2B1831C4810F0B2FA01252DE75E
:101CA800002C00F0C683194810F0AAFA012525E790
:101CB800988D010874060020BC8D0108048E010867
:101CC800A80000203C92010804390120D49B010897
:101CD80078080020FC9B01080C9C0108888E0108EC
:101CE800F09B0108E49B01084C000020B89A010809
:101CF80098000020589A0108788D0108708D010815
:101D0800F0990108309101088C9001081C8F010896
:101D1800002C00F0B683BB4810F072FA0125EDE6FE
:101D280002F028FB002801F0B0800625E6E6002135
:101D3800072005F0E9F9B3E6032C40F29082B24897
:101D480010F05EFA0125D9E6012C40F22584AF484F
:101D580010F056FA0125D1E605F0FEFBA0E6002CAE
:101D680000F07B83AA4810F04BFA0125C6E6A94B80
:101D780000221A7008F024FBA74A03464FF40071AA
:101D8800A64810F0A3FAA54805F05EFF88E6022CE5
:101D98003FF6B3AE002D00F01385A14E0796D6F896
:101DA8000090D6F80480002788AE30464946FEF7F2
:101DB80011FA30B130464146FEF70CFA00287FF49C
:101DC8009CAE0137AF4206F12406EED100F0FABC12
:101DD80001F018F900283FF463AE8E4C207074E6C9
:101DE800012C3FF658AF8F4B1E6875B10DF508787A
:101DF800002740463146FEF7EDF900287FF44BAF47
:101E08000137AF4208F12408F3D144B1314688A81C
:101E1800FEF7E0F90446002800F0318500248248E6
:101E280000219422061F10F0E3F90025E8B202F021
:101E3800A5FD0135252D46F8040FF7D17B48002173
:101E48006022061F10F0D4F90025E8B201F0D4FD95
:101E58000135182D46F8040FF7D1754800214022A6
:101E6800061F10F0C5F90025E8B201F04DFB013559
:101E7800102D46F8040FF7D121466B48002203F0D5
:101E88004DFD21466948002202F010F921466848B4
:101E9800002201F07DFF002502F03EFA2EE606F052
:101EA800E1F8644B644D5D4C002814BF82469A46A5
:101EB80006F0D2F8814606F0D9F8074606F0ECF8A5
:101EC800064606F0EDF8804607CD20602046B5F8B6
:101ED80000E0AD786160A260A4F80CE053463321BD
:101EE80000F80E5F554A10F0F1F95FFA88FCC8F364
:101EF800072EC8F307414FEA186200F10C058DE878
:101F080000504B466019029103924FF400714C4AFD
:101F180010F0DCF9C7F307210544C7F307423B0E6D
:101F28008DE80E006019FBB24FF40071454A10F0BD
:101F3800CDF9727833780092B2780192F2780292F1
:101F48003279039272790492284420444FF4007144
:101F58003D4A10F0BBF9204605F02EFEA0E506F03C
:101F68003DFA06F055FA394A03464FF400712B48FA
:101F780010F0ACF9294805F067FE91E5022C40F213
:101F8800D880334810F03CF90125B7E5022C40F21F
:101F98009681304810F034F90125AFE5012C40F264
:101FA800AF822D4810F02CF90125A7E502F0E8F9D9
:101FB800002800F06F840725A0E50720012105F01F
:101FC800A3F805F0C9FAFFF7A9FB002C00F034814B
:101FD800224810F015F9012590E502F0CBF9002808
:101FE8007FF4A3AE012C40F29D871D4810F008F93C
:101FF800012583E5012C40F289831A4810F000F985
:1020080001257BE5BC8F0108009301087C9201083B
:10201800B493010878080020E092010804390120EF
:10202800900000205800002018520020B8510020CD
:10203800AC520020688D0108749801088498010842
:102048009C980108D8980108F8980108549201084A
:10205800BC96010864960108349B0108BC950108E8
:102068001495010894990108012C9AD8AA4B1E6866
:102078006DB10DF50878002740463146FEF7AAF8FD
:1020880000288ED10137AF4208F12408F4D134B1C9
:10209800314688A8FEF79EF8002800F078870FF0F0
:1020A80091F9F3200FF0A6F90FF0AAF9092840F0EA
:1020B80068821CAC994821780FF072FA0928F9D087
:1020C800974800210FF06CFA092840F0748300F05B
:1020D80068BD02F0B7F8E3E402F052F900287FF493
:1020E8006AAF022C40F2DF818E4810F089F8012592
:1020F80004E5002B3FF44DAB8B4A1A4412F8012C2F
:10210800202A3FF446AB88495A1CC854A1F800223B
:10211800FFF73FBB854810F073F8FFF7CABB844848
:1021280010F06EF839464FF400727F4810F060F8EE
:1021380079E4002D00F087847E4E0796D6F800A03B
:10214800D6F80480002788AE30465146FEF742F89C
:1021580030B130464146FEF73DF800287FF411AF14
:102168000137AF4206F12406EED10026724DB04683
:10217800B246079B53F82AB0002C4FD00DF50879CA
:10218800002704E00137A74209F1240946D248464E
:102198005946FEF71FF80028F4D17FB2002F3DDB27
:1021A800BAF1010F00F03E8407EBC7071CAE634885
:1021B80006EB870910F024F848466149FEF70AF84B
:1021C800002840F01E8403260DF14C0B0027022E38
:1021D800CBF800702F606F60AF60EF602F616F61A8
:1021E800AF61EF612F626F62AF62EF622F636F635F
:1021F800AF63EF6300F0EA83032E00F0DC83012E67
:10220800484600F0B08339460A2211F07FF8C0B280
:10221800102840F290834B480FF0F2FF0AF1010AB0
:10222800BAF1020FA5D1032E00F29B83DFE816F066
:102238009203880388038803002D7FF4C9AE01F058
:1022480015F8064600283FF459ACFFF761FA3E4CF2
:1022580001463E480FF0D4FF042526704EE488AEB0
:10226800FDB13B4B88AED3F800A0D3F80490D3F867
:1022780008B0B046002740465146FDF7ABFF58B1BD
:1022880040464946FDF7A6FF30B140465946FDF79E
:10229800A1FF00287FF453AD0137AF4208F12408AD
:1022A800E9D13146234613A81CAA00F0F9FE0646D8
:1022B800002800F05F86244C042526701EE488AEB2
:1022C800C5B1244B93E8000688AE37464FF00008A6
:1022D80038464946FDF77EFF30B138465146FDF78E
:1022E80079FF00287FF455AE08F10108A84507F1E9
:1022F8002407EDD1304622461CA901F017F90646FD
:1023080000283FF4FAAB104C134831460FF078FF21
:1023180004252670FFF7F2BB300000202078FF1F4D
:10232800017AFF1F6897010874060020589C01086D
:10233800BC8D010868000020AC52002014900108F0
:102348002C90010830900108780800207095010849
:102358009C000020200000201896010888AE002D5F
:1023680036D09E4BDA68D3F800A0D3F80490D3F89F
:1023780008B0079288AE1A695B69089209933746D4
:102388004FF0000838465146FDF724FFD0B13846D3
:102398004946FDF71FFFA8B138465946FDF71AFF11
:1023A80080B138460799FDF715FF58B138460899A6
:1023B800FDF710FF30B138460999FDF70BFF0028EB
:1023C8007FF431AC08F10108A84507F12407D9D1F9
:1023D800304622461CA900F0A7FE064600283FF416
:1023E8008CABFFF795F97E4C01467E480FF008FF4D
:1023F80004252670FFF782BB002D00F02E837A4E4D
:102408000796D6F80090D6F80480002788AE3046A4
:102418004946FDF7DFFE30B130464146FDF7DAFEAA
:1024280000287FF438AC0137AF4206F12406EED11C
:1024380015E3002D7FF437AC02F02CFC064600288B
:102448003FF45CABFFF764F9654C014667480FF051
:10245800D7FE04252670FFF751BB002D7FF482AC10
:1024680001F094F9064600283FF448ABFFF750F90D
:102478005B4C01465E480FF0C3FE04252670FFF74B
:102488003DBB002D7FF447AC05F040FE07F0FEFA97
:1024980058480378002B40F0DA8257480FF0B0FE16
:1024A8000425FFF72BBB88AEB5B1544B93E8000366
:1024B80088AE0746344620464146FDF78BFE30B1CC
:1024C80020464946FDF786FE00287FF40DAE013709
:1024D800AF4204F12404EED130462A461CA900F08C
:1024E80027FF064600283FF408ABFFF711F93C4CDC
:1024F800014643480FF084FE04252670FFF7FEBA14
:10250800404B1E6875B10DF50878002740463146E6
:10251800FDF760FE00287FF444AD0137AF4208F1B3
:102528002408F3D11CB3314688A8FDF753FE0646AC
:10253800E8B935480FF064FE314610221CA810F0A7
:10254800F3FE044602460B4630480D460FF058FE8F
:10255800220C42EA054296B20896AEB20996A6B295
:10256800089A09992A48079633460FF049FE0EF053
:1025780029FFF3200EF03EFF0EF042FF092800F07D
:1025880011812448164C0FF03BFE182323700425B4
:102598000EF028FFFFF7B2BA88AE8DB11E4B88AE99
:1025A800D3F80090B046002740464946FDF712FE92
:1025B80000287FF4CCAB0137AF4208F12408F3D1EF
:1025C800304622461CA900F023FD00283FF495AAB6
:1025D800034C04252070FFF791BA00BF700000205B
:1025E80078080020089A010888000020D48E010885
:1025F8006893010804390120748F01085C000020E9
:102608001497010830000020289901084099010812
:10261800D89A0108149B010848000020A14B1E68A5
:1026280075B10DF50878002740463146FDF7D2FD13
:1026380000287FF462AA0137AF4208F12408F3D1D9
:10264800002C3FF45AAA314688A8FDF7C3FD04467A
:1026580000287FF452AA94480FF0D2FD0FF084FDB1
:10266800214604601CA810F04BFDB0EE408A0FF024
:102678007BFD0368002B00F048830325FFF73EBA73
:1026880088AE002D2ED0894B88AEDA68D3F800A02A
:10269800D3F80490D3F808B01B69079208938046D2
:1026A800374638465146FDF795FDA8B138464946A4
:1026B800FDF790FD80B138465946FDF78BFD58B1BE
:1026C80038460799FDF786FD30B138460899FDF779
:1026D80081FD00287FF4D7AA08F10108A84507F171
:1026E8002407DED1304622461CA901F0BBFF06466E
:1026F80000283FF402AAFFF70BF86D4C01466D481D
:102708000FF07EFD04252670FFF7F8B96A4B1E68A6
:1027180075B10DF50878002740463146FDF75AFD9A
:1027280000287FF46AAC0137AF4208F12408F3D1DE
:10273800002C3FF4E2A9314688A8FDF74BFD8046FE
:1027480000287FF4DAA95D480FF05AFD1CA841461D
:10275800102210F0E9FD044602460B4658480D4683
:102768000FF04EFD220C42EA05422E46B6B295B253
:10277800A4B22A462346314652480FF041FD21466D
:10278800042004F0C1FC2946052004F0BDFC3146B4
:10279800062004F0B9FC01210720454604F0B4FCEA
:1027A800FFF7ACB9099E4848C6F307210EF0F8FEBA
:1027B800092800F0C8813E4C182323700425E7E659
:1027C800424B07930025A946AA46A046079B53F803
:1027D8002A70B8F1000F36D088AC002604E0013624
:1027E800464504F124042ED220463946FDF7F2FC72
:1027F80083460028F3D176B2002E24DBBAF1010F0C
:1028080000F0E68232480FF0FBFC06EBC6061CA976
:1028180001EB860630462F49FDF7DCFC034600280D
:1028280040F09182014660222B4813930FF0E0FCA0
:102838002A4E03250024E0B201F0DEF80134182CFA
:1028480046F8040FF7D10AF1010ABAF1020FBDD117
:10285800032D00F06081214B03F1600102E08B42FF
:1028680000F0638153F8042F002AF8D01278012A67
:10287800F5D10F4C0A2323700425FFF73FB91848F8
:102888000FF0BEFC21461CA80A2210F03FFD0446AA
:10289800FFF7C5BA012C27D912480FF0B1FC012562
:1028A800FFF72CB92C000020B89A0108340000204A
:1028B80078080020E49001082800002028990108E1
:1028C80040990108649901080078FF1F90000020D2
:1028D800149001082C900108B8510020B451002030
:1028E800749001081898010888AE85B1B74B88AE76
:1028F800D3F800800746344620464146FDF76AFC77
:102908000028C9D10137AF4204F12404F4D130467C
:102918002A461CA900F0A2FD064600283FF4EDA8AF
:10292800FEF7F6FEAA4C0146AA480FF069FC0425FA
:102938002670FFF7E3B800F0E7FDA74908606DE4EB
:102948004146A548002201F023FA002501F0D8FCF1
:10295800FFF7D4B84146A048012201F019FA002532
:10296800F4E70425F2E759460A2210F0CFFC814625
:10297800DBF80000394601300A2210F0C7FCC0B26B
:1029880000285FFA89F308BF1020C3F10103184437
:1029980010F0FF033FF442ACDFF878B207EB090010
:1029A800C0B2069300F0B0FD069B4BF8040F013748
:1029B800BB42F3DC32E4DFF85C92F8B200F0A4FD2D
:1029C8000137102F49F8040FF7D127E4B9F1000FA8
:1029D8003FF424AC3B782C2B08BF07F1010948468B
:1029E80059460A2210F092FC0F28074604D8C0B2B4
:1029F80000F08AFD45F82700DBF80070002FE9D1C8
:102A08000CE448462C210FF0B7FC022600287FF47E
:102A1800DBAB48462D210FF0AFFC061C18BF012682
:102A2800FFF7D2BB01466D4806910FF0E9FB1CAADF
:102A380007EBC70002EB800006990A2210F066FC3B
:102A48008046FFF7F0BB664B0793FFF78EBB05F098
:102A5800FBF805F05BFBFFF751B8624B07934FF0AB
:102A68000008C2460326A146079B53F82A70B9F10D
:102A7800000F36D088AC002504E001354D4504F13F
:102A880024042ED220463946FDF7A4FB83460028AD
:102A9800F3D16DB2002D24DBBAF1010F00F00081F3
:102AA80005EBC5051CAE504806EB85050FF0A8FBE5
:102AB80028464E49FDF78EFB0346002840F0AC80BF
:102AC800014694224A4813930FF092FB494D03267E
:102AD8000024E0B201F052FF0134252C45F8040F20
:102AE800F7D10AF1010ABAF1020FBDD1032E5AD06B
:102AF800404B03F1940101E08B425DD053F8042F61
:102B0800002AF9D01278012AF6D1314C0323237018
:102B18000425FEF7F3BF49463748002201F0C6FAFC
:102B2800002501F0E1FBFEF7E9BF012DF3D003D347
:102B3800022DF0D00425F4E749462F48012201F080
:102B4800B5FA0025EDE7F1B22C480EF029FD092869
:102B58007FF431AE089E2A48C6F307210EF020FD07
:102B680009287FF428AEF1B226480EF019FD09288D
:102B78007FF421AE079E2448C6F307210EF010FD0E
:102B880009287FF418AEF1B220480EF009FD092893
:102B98007FF411AE1E4800210EF002FD09287FF4D3
:102BA8000AAE0025F4E441461148002202F0B6FEC0
:102BB80001F08EFBFEF7A1BF012EF4D0022EF2D059
:102BC80041460B48012202F0A9FEF1E7540000201B
:102BD80078080020C8970108AC52002074900108BA
:102BE8006800002088000020149001082C9001083B
:102BF8001852002014520020B85100200178FF1FFD
:102C08000278FF1F0378FF1F0478FF1F0578FF1F56
:102C1800007AFF1FA852002028462C210FF0ACFB99
:102C2800044610B313AF59469C48C7F800B0942225
:102C38000FF0DEFA02260023002D3FF452AF1A7877
:102C48002C2A08BF5D1C284639460A2210F05EFB74
:102C58002428044605D8C0B201F090FE8F4A42F8F5
:102C680024003B68002BEAD13BE72D2128460FF0D2
:102C780083FB13AF061C18BF0126214687483C601A
:102C880094220FF0B5FA2846EEB921460A2210F030
:102C98003DFBC0B2252811D981480FF0B1FA20E7D1
:102CA80080480FF0ADFA1CAB05EBC500594603EBA5
:102CB80080000A2210F02AFB804617E701F05EFE2A
:102CC800764908600DE739460A2210F01FFB0546D1
:102CD8003868214601300A2210F018FBC0B20028DB
:102CE800EBB208BF2520C3F10103184410F0FF0B15
:102CF8003FF4F7AE6C4F6019C0B201F03FFE0134EB
:102D08005C4547F8040FF6D1EBE6B0EE480A05F04B
:102D180063FF09283EF4F1AE644C182323700425A0
:102D2800FEF7ECBE62480FF06BFA0220FEF7EAFCF1
:102D38000346FEF7F9BE012C58D95E480FF060FA39
:102D48000125FEF7DBBE30462C210FF015FB0446AB
:102D580010B313AF59465848C7F800B060220FF0B7
:102D680047FA02250023002E3FF46DAD1A782C2A6D
:102D780008BF5E1C304639460A2210F0C7FA1728E9
:102D8800044605D8C0B200F037FE4B4B43F8240088
:102D98003B68002BEAD156E52D2130460FF0ECFABE
:102DA80013AF051C18BF0125214643483C6060222B
:102DB8000FF01EFA3046002D45D121460A2210F0A8
:102DC800A5FAC0B2182839D935480FF019FA3AE5EA
:102DD80034480FF015FA06EBC6001CAE594606EB50
:102DE80080000A2210F092FA814631E588AE8DB152
:102DF800324B88AED3F8009080463746384649466D
:102E0800FDF7E8F9002898D108F10108A84507F16D
:102E18002407F3D1304622461CA901F017FD0646C7
:102E280000283EF46AAEFEF773FC204C01462448A5
:102E38000FF0E6F904252670FEF760BE00F0DCFD11
:102E48001D4A1060FFE439460A2210F05FFA064670
:102E58003868214601300A2210F058FAC0B200281A
:102E6800F3B208BF1820C3F10103184410F0FF0B98
:102E78003FF4E9AC134FA019C0B200F0BDFD013416
:102E8800A34547F8040FF6D1DDE4022C1ED90E48FD
:102E98000FF0B6F90125FEF731BE00BF1852002029
:102EA800309001087490010814520020780800201E
:102EB800949B0108E0910108B851002050000020BF
:102EC80090910108B45100206494010888AEADB116
:102ED800384B93E8000388AE0746344620464146FF
:102EE800FDF778F928B120464946FDF773F900281F
:102EF800CDD10137AF4204F12404EFD130462A4640
:102F08001CA900F0A1FC064600283EF4F6ADFEF729
:102F1800FFFB294C014629480FF072F90425267059
:102F2800FEF7ECBD88AE8DB1254B88AED3F8008096
:102F38000746344620464146FDF74CF900287FF401
:102F480054A80137AF4204F12404F3D130462A468D
:102F58001CA900F001FD064600283EF4CEADFEF7A0
:102F6800D7FB154C014617480FF04AF9042526707F
:102F7800FEF7C4BD139B144A14484FF400710FF0B8
:102F8800A5F91248354604F05FFEFEF7B7BD1CAC44
:102F98000F480FF035F96378002B3FF46EAB01232F
:102FA8000133DBB2E25C002AFAD11F2B7FF665AB56
:102FB800FFF775B818000020780800201094010861
:102FC80064000020C4940108E0920108043901203B
:102FD80028990108F8B516460F467AB10446002527
:102FE80002E00135B54209D220463946FDF7F2F82C
:102FF80024340028F5D1E8B240B2F8BDFF2040B231
:10300800F8BD00BF08B502F03DF9002008BD00BFBB
:1030180070B5044600200E46154607F091F8722058
:1030280007F03AF9002007F0F1F80C4B20462A4641
:103038001968FFF7CFFF00280ADB00EBC00006EB9A
:10304800800006F0ADF9002402F048F9204670BD72
:1030580000201A2402F042F9204670BD48000020E2
:1030680008B52DED028B01F0C5F9B0EE408A01F0EC
:10307800E7F9DFED0A7AB4EEE78AF1EE10FA09DC37
:10308800BDEC028BB5EEC00AF1EE10FAB4BF002019
:10309800012008BDBDEC028B002008BD000048429D
:1030A8002DE9F04F1F4F83B080460E4615461C464B
:1030B8004FF0000A2246304657F82A10FFF78AFFD9
:1030C800002800EBC00005EB800218DBBAF1010F05
:1030D800104621D0BAF1020F0AF1010A14D11046A4
:1030E80006F0C6F90190014658464A4605F09EF991
:1030F8000023C8F80000184603B0BDE8F08F1A2373
:10310800184603B0BDE8F08F06F04AF9BAF1030F8C
:103118008146CFD10199E7E706F04CF94FF0020A52
:103128008346C7E79C0000202DE9F04F2DED028B68
:103138004FF0000A354EDFF8D8908BB005460F46A1
:103148001446D046284656F82A102246FFF742FF72
:1031580000280DDB00EBC00007EB800C0AF1FF3301
:103168006046042B31D8DFE803F02C2824094400FA
:103178001A200BB0BDEC028BBDE8F08F05F034F9D6
:1031880004900AF1010ABAF1060FDBD1049B0093FF
:1031980058460699059A079BB0EE480A05F068FD5F
:1031A800092814BF182000200BB0BDEC028BBDE825
:1031B800F08F06F0F5F80790E3E706F0FBF80690C5
:1031C800DFE706F055F90590DBE709A90022CDF8FD
:1031D8000CC0CDF8248010F099F8099BDDF80CC0DC
:1031E80063458346CDD119200BB0BDEC028BBDE8F9
:1031F800F08F0021C9F800800FF082FFD9F8003065
:10320800B0EE408A002BBCD01920EDE770000020FA
:10321800C0630120134B144993F804C02DE9F00151
:1032280001F12E00D3F8008001F560770124002217
:103238000023FF26032501F8024C0C7640E90423FD
:10324800383141F8388C01F834CC01F8396C01F880
:103258000A5CB94240E9022300F13800EBD1BDE82D
:10326800F001704740A00108820800202DE9F041D4
:1032780090B0294E294D04F049FF06F13007344635
:103288000FCCBC4228606960AA60EB60264605F155
:103298001005F4D1DFF894802288D8F800302A800D
:1032A8000BB11E4898471E4F002602E0B6F5607F16
:1032B80027D0BD190FCD02AC0FC40FCD0FC40FCD51
:1032C8000FC495E803009DF80830383684E80300F9
:1032D800002BEBD10DF10A0100919DF809300F4840
:1032E800104A4FF400710EF0F1FF10F0FF0F0B4879
:1032F8000BD0D8F80030002BD8D09847B6F5607FAF
:10330800D7D1002010B0BDE8F08107480EF078FF53
:10331800162010B0BDE8F08148A00108043901204A
:10332800800800207CA00108A0A001087C080020DB
:103338002DE9F041424B434D80460C4693E803008B
:1033480088B0D7B202908DF80C10002340463A4658
:1033580029680193FFF73EFE002835DB00EBC00328
:1033680004EB8306304601A90A220FF0CFFF019B28
:10337800B34231D0C6B2102E1AD8404669683A46D0
:10338800FFF728FE002806DB00EBC00104EB8101F3
:1033980002A80EF0FEFF102E0FD0C6EBC604E40004
:1033A800294D2B5D2F19DBB9142008B0BDE8F08139
:1033B80026480EF025FF0F20F7E725480EF020FFDE
:1033C800112008B0BDE8F081296822480EF018FFE6
:1033D800102008B0BDE8F081122008B0BDE8F081E7
:1033E80002A9B81C7E700EF0D4FF79780120002263
:1033F80000230F29B876C7E9082304D916480EF028
:10340800FFFE0F20D1E7002301F007012B554FF4F1
:10341800E06005F051FE7A78072A8ABFA2F1080118
:103428001146C9B201238B4040EA030102F00702AA
:103438004FF4E060C9B205F0E3FD0020B5E700BF36
:1034480040A001085C000020800800200CA10108B1
:10345800ACA10108D4A0010848A10108F0B5254D88
:1034680083B00C46D2B22968FFF7B4FD002834DBDC
:1034780002A900EBC00004EB8004002541F8085DB8
:10348800204669460A220FF041FF009BA3422CD038
:10349800C0B20F2806D918480EF0B2FE0F231846FE
:1034A80003B0F0BD154F164EC0EBC000C000391870
:1034B8000124002200233C54C1E90823C1E90A235E
:1034C80030688C763679C1F80200FF2403222B4637
:1034D8008E714C7081F83020E1E7296809480EF0B8
:1034E8008FFE1023184603B0F0BD1223184603B010
:1034F800F0BD00BF5400002010A201088008002081
:1035080040A00108D4A001080F2808B505D8054B2C
:10351800C0EBC00003EBC00008BD03480EF070FE0E
:10352800002008BD80080020ACA101082DE9F04F5B
:1035380085B04FF0000BDFF83081CDF804B00746B6
:103548000E461546DA46FF2458F82B10DFF8189176
:103558002A463846FFF73EFD002800EBC00006EB80
:10356800800C03A94FF00A02604637DBBBF1010F5C
:103578001BD160463649FCF72DFED0F1010038BF5B
:1035880000200190FF2C25D0102C30D0C4EBC404AF
:10359800E400304B1A5D1C44002A36D02E480EF049
:1035A8002FFE152005B0BDE8F08FCDF800C0CDF88E
:1035B8000CA00FF0ABFE039ADDF800C0C0B2624564
:1035C8000BF1010B04463DD0102817D8BBF1020FB0
:1035D800BAD1D7E7132005B0BDE8F08F59F82B1002
:1035E8001E480EF00DFE102005B0BDE8F08F1C48F7
:1035F8000EF006FE112005B0BDE8F08F19480EF058
:10360800FFFD0F2005B0BDE8F08F61784FF4E06052
:1036180001F0070105F050FD6278072A86BFA2F184
:103628000803DBB2134601219940019BC9B25BB97B
:103638004140C9B24FF4E06002F0070205F0E0FC37
:103648000020C8E71220C6E70143C9B2F2E700BF6D
:10365800448C0108800800204CA20108D4A001086D
:10366800ACA101080CA1010820000020014B186042
:10367800704700BF7C08002001FB0222D2B20F2A4B
:1036880010B505D909480EF0BBFD0023184610BD3A
:10369800074BC2EBC20203EBC20484F8300004F00B
:1036A8005BFB0123C4E90A01184610BD78A3010891
:1036B80080080020F0B583B04FF4FB70012102AC04
:1036C8000DF092FD022500236946274844F8085D5D
:1036D8008DF804308DF807300DF0E6FD4FF4804387
:1036E8006946224800930DF0DFFD41F27C5369469C
:1036F8001F4800930DF0D8FD4FF42A4369461D4832
:1037080000930DF0D1FD69461B4800950DF0CCFDE6
:1037180040F655536946194800930DF0C5FD4FF41E
:1037280010636946164800930DF0BEFD154B164907
:10373800D3F800C01F7901F570760120002200231C
:10374800FF2501F11E0401F8020C0876C4E90023E4
:10375800283141F828CC01F8247C01F8295CB142D1
:10376800EFD103B0F0BD00BF0004024000080240E2
:10377800001002400014024000180240001C0240E1
:103788000020024040A001080A0C00202DE9F04169
:10379800274E284D8CB006F1300734460FCCBC427A
:1037A80028606960AA60EB60264605F11005F4D12F
:1037B800DFF890802278D8F800302A700BB11D48C5
:1037C80098471D4F002602E0B6F5707F25D0BD1939
:1037D8000FCD02AC0FC40FCD0FC495E803009DF8C0
:1037E8000830283684E80300002BEDD10DF10A01DA
:1037F80000919DF809300F48104A4FF400710EF0FF
:1038080065FD10F0FF0F0B480BD0D8F80030002BE7
:10381800DAD09847B6F5707FD9D100200CB0BDE852
:10382800F08107480EF0ECFC0E200CB0BDE8F081EA
:10383800C4A3010804390120080C0020F8A30108DA
:103848001CA40108000C00202DE9F0413A4B3B4D27
:1038580080460C4693E8030088B0D7B202908DF8F2
:103868000C10002340463A4629680193FFF7B2FB43
:10387800002837DB00EBC00304EB8306304601A9C0
:103888000A220FF043FD019BB34233D0C6B2182E73
:103898001CD8404669683A46FFF79CFB002806DBBF
:1038A80000EBC00104EB810102A80EF072FD182E96
:1038B80011D006EB8604E400214D2F5D012F05EBA6
:1038C80004081BD00D2008B0BDE8F0811D480EF09B
:1038D80097FC0820F7E71C480EF092FC0A2008B075
:1038E800BDE8F081296819480EF08AFC092008B063
:1038F800BDE8F0810B2008B0BDE8F08102A908F10D
:10390800020088F801600EF044FD98F8011088F86C
:103918001A70002200231729C8E9082304D90C4883
:103928000EF06EFC0820CEE700260A482E550EF051
:1039380067FC3046C7E700BF40A001081800002018
:10394800080C002080A4010854A501084CA4010813
:10395800F4A40108BCA40108F0B5224D83B00C46BC
:10396800D2B22968FFF736FB00282FDB02A900EB4B
:10397800C00004EB8004002541F8085D2046694634
:103988000A220FF0C3FC009BA34227D0C0B217281D
:1039980006D915480EF034FC0823184603B0F0BDCC
:1039A800124F134E00EB8000C0003918012400228A
:1039B80000233C54C1E90823306836798C76FF220D
:1039C8002B46C1F802008E714A70E6E7296809485B
:1039D8000EF016FC0923184603B0F0BD0B23184659
:1039E80003B0F0BD6400002080A40108080C00208A
:1039F80040A001084CA40108172808B505D8054BB4
:103A080000EB800003EBC00008BD03480EF0F8FB94
:103A1800002008BD080C002054A5010810B5044674
:103A280004F09AF96378C4E90801172B0DD8DFE888
:103A380003F0938E88827D78726C66605B55504B7C
:103A480046403A35302A251F190F0123A37610BDA9
:103A580044484FF480610DF085FC0028F5D0002320
:103A6800A37610BD4FF480713E480DF07BFCF4E75F
:103A78004FF480613C480DF075FCEEE702213B48AD
:103A88000DF070FCE9E74FF4005139480DF06AFC7D
:103A9800E3E7022137480DF065FCDEE704213148F1
:103AA8000DF060FCD9E74FF4007131480DF05AFC75
:103AB800D3E74FF4804130480DF054FCCDE7402166
:103AC80029480DF04FFCC8E7042127480DF04AFCAF
:103AD800C3E7082124480DF045FCBEE74FF4006118
:103AE80020480DF03FFCB8E740211E480DF03AFC95
:103AF800B3E74FF480511C480DF034FCADE74FF4A8
:103B0800807119480DF02EFCA7E74FF400411848C2
:103B18000DF028FCA1E74FF4006115480DF022FCD8
:103B28009BE710210F480DF01DFC96E701210D4879
:103B38000DF018FC91E74FF4006110480DF012FCED
:103B48008BE74FF480710D480DF00CFC85E71021D0
:103B580005480DF007FC80E7202103480DF002FC22
:103B68007BE700BF001C0240001002400018024022
:103B780000140240000402400008024000200240F5
:103B8800014B1860704700BF000C0020F0B50646D6
:103B980085B0D0E90845807E777804F0ABFA3B46DB
:103BA8000290CDE90045B21C084809490EF0C0FB57
:103BB800084B1B681BB10548984705B0F0BD06487F
:103BC80005B0BDE8F0400EF01BBB00BF0439012072
:103BD800B4A50108000C002034A6010808B5034864
:103BE8000EF00EFB024B00221A7008BD88A60108D1
:103BF800D50F002038B50F4D2C7894B90E480EF02B
:103C0800FFFA05F04FF90D4805F0C4FA0C4B0D4AC0
:103C18000D480E491C601470012304600C602B7061
:103C280038BD0B4B0B4853F82410BDE838400EF054
:103C3800E7BA00BFD50F002000A7010881360008A9
:103C4800C80F0020D40F0020CC0F0020D00F002078
:103C580048AA0108B8A6010870B52C4C2378042B93
:103C680004D8DFE803F0130D0304270070BD284BC8
:103C780028491A6809688A422BD201321A6070BD35
:103C880025480EF0BDFA0223237070BD2348214E4B
:103C98001F4D0EF0B5FA05F005F9214805F07AFA3E
:103CA80020492148002301220B7033602B600360F8
:103CB800227070BD1B4A164E164D1B4C1B481C49E2
:103CC8000023137033602B602360BDE870400EF052
:103CD80097BA18480D4D0EF093FA174803F06CFF89
:103CE800237803F0FD02012A09D0144A0F4852F83C
:103CF80023100EF085FABDE8704000F02FBB06488F
:103D08000EF07EFA02232B70F5E700BFD50F0020D6
:103D1800CC0F0020C80F002038A7010800A7010811
:103D280081360008D40F0020D00F0020BCA701085E
:103D3800FCA7010868A701089CA7010848AA010870
:103D480010B50E4C0E480EF05BFA237803F0FD0216
:103D5800012A09D00B4A0C4852F823100EF050FAE9
:103D6800BDE8104000F0FABA08480EF049FA0223FC
:103D78002370BDE8104000F0F1BA00BFD50F002055
:103D880008A8010848AA0108BCA7010838A7010823
:103D980070B4414C2378022B36D1002857D0012A21
:103DA80039D00268002A56D14268002A55D1826863
:103DB800002A44D1C368002B51D10369002B50D18C
:103DC8004369002B4FD18369002B4ED1C369002B67
:103DD8004DD1036A002B4CD1436A002B4BD1836A27
:103DE800002B4AD1C36A002B49D1036B002B48D161
:103DF800436B002B47D1836B002B46D1C36BEBB9C8
:103E0800264870BC0EF0FCB9254A264852F8231003
:103E180070BC0EF0F5B90368002B38D0224E234D44
:103E2800234B327000222A7018602248224A00254B
:103E3800032305602370116070BC70470F231B4E6D
:103E4800194D1B4A337010232B701060EDE71B4887
:103E580070BC0EF0D5B90023F1E70123EFE7032387
:103E6800EDE70423EBE70523E9E70623E7E7072364
:103E7800E5E70823E3E70923E1E70A23DFE70B2364
:103E8800DDE70C23DBE70D23D9E70E23D7E70C4842
:103E980070BC0EF0B5B900BFD50F00205CA90108B1
:103EA80048AA010834A80108D40F0020D60F002022
:103EB800D00F0020CC0F0020C80F002080A80108D8
:103EC800F0A8010808B503480EF09AF9024B002241
:103ED8001A7008BD5CAA0108E00F002038B50C4D27
:103EE8002C786CB90B480EF08BF90B4B0B4A0C482D
:103EF8000C491C601470012304600C602B7038BDE1
:103F0800094B0A4853F82410BDE838400EF078B938
:103F1800E00F0020D4AA0108D80F0020E10F0020EC
:103F2800DC0F0020E40F002088AE01088CAA0108ED
:103F3800F8B53E4C2378042B04D8DFE803F02D278E
:103F480003043C00F8BD3A4B3A4F1B683A689A4262
:103F580040D2394B1B78012B54D0384E002401E055
:103F6800602C0FD033681D590434002DF8D02B78FD
:103F7800002BF5D12846FFF751FD2846FFF706FE2E
:103F8800602CEFD13B6801333B60F8BD2C480EF044
:103F980037F902232370F8BD2A48254E254D0EF027
:103FA8002FF925492548002301220B7033602B6027
:103FB80003602270F8BD204A1E4E1D4D1F4C22483A
:103FC80022490023137033602B602360BDE8F8405A
:103FD8000EF016B9002BBCD01D48144D0EF010F988
:103FE8001C4803F0E9FD237803F0FD02012A16D0EE
:103FF800194A154852F823100EF002F9BDE8F840A6
:1040080000F0A6B90D4C23681868FFF707FD236870
:104018001868FFF7BBFD3B6801333B60F8BD0848F3
:104028000EF0EEF802232B70E8E700BFE00F002047
:10403800D80F0020DC0F0020E10F0020E40F002043
:104048000CAB0108D4AA010890AB0108D0AB010859
:104058003CAB010870AB010888AE010810B50E4CE6
:104068000E480EF0CDF8237803F0FD02012A09D09E
:104078000B4A0C4852F823100EF0C2F8BDE8104065
:1040880000F066B908480EF0BBF802232370BDE8BB
:10409800104000F05DB900BFE00F0020DCAB010864
:1040A80088AE010890AB01080CAB01082DE9F001BE
:1040B800294E3378022B19D100283DD0DFF8C4C02F
:1040C800264F0023012ACCF80030396016D0041F8F
:1040D80054F8042FDDB201330AB1127822B3182B39
:1040E800F6D11F48BDE8F0010EF08AB81D4A1E48F7
:1040F80052F82310BDE8F0010EF082B804682CB322
:104108002478012C1DD0DFF86C80184D184C88F8E5
:1041180000302A7020600022032339603370CCF805
:104128000020BDE8F0017047124C104A104B257072
:10413800182414701860EEE70F48BDE8F0010EF07F
:104148005FB80E48BDE8F0010EF05AB80C48BDE85B
:10415800F0010EF055B800BFE00F0020D80F002086
:10416800A0AD010888AE010808AC0108E10F0020E5
:10417800E40F0020E20F002054AC010830AD010824
:10418800C4AC0108DC0F002008B5084B00221A70E7
:1041980001F038F801F042F8FFF794FEFFF79EFEB1
:1041A800FFF71CFDBDE80840FFF724BDE80F00201D
:1041B80010B5204C2378052B04D8DFE803F018103D
:1041C8002128300410BD1C4B1B78012B07D01B4B3A
:1041D8001B78012B03D01A4B1B78012B14D101F04B
:1041E800EFF8FFF7A5FEBDE81040FFF735BD01F079
:1041F800E7F8FFF79DFEFFF72FFD0123237010BDA1
:104208000D4B1B78012B11D00123237010BD0B4BD4
:104218001B78012BF8D1BDE81040FFF789BE084B89
:104228001B78012BDFD00123237010BDBDE810409F
:1042380001F0C6B8E80F0020EA0F0020EB0F0020BD
:10424800E90F002010B51B4C1B480DF0D9FF23784F
:10425800052B29D8DFE803F003031820040C10BD50
:1042680016480DF0CDFFFFF76BFD0123237010BD3D
:1042780013480DF0C5FF01F045FBFFF7EFFEFFF710
:104288005FFD0123237010BD0E480DF0B9FF01F04A
:1042980039FB0123237010BD0B480DF0B1FFFFF768
:1042A800DDFE0123237010BD0848BDE810400DF065
:1042B800A7BF00BFE80F00209CAE01082CAF010883
:1042C80060AF0108C4AE0108F8AE010888AF010864
:1042D8000349044B0220012208701A70704700BF7E
:1042E800E80F0020EA0F00200349044B03200122B5
:1042F80008701A70704700BFE80F0020EB0F00200D
:104308000349044B0420012208701A70704700BF4B
:10431800E80F0020E90F002030B406480649074A94
:10432800074C0123052503700B701370257030BCF2
:10433800704700BFEA0F0020EB0F0020E90F0020B4
:10434800E80F0020014B00221A707047EA0F002086
:10435800014B00221A707047EB0F0020014B00221E
:104368001A707047E90F0020014B1878704700BF9A
:10437800EA0F0020014B1878704700BFEB0F0020B0
:10438800014B1878704700BFE90F002010B5DFED2A
:10439800127A90F8DC042DED028B9FED108A0C1E2A
:1043A800A8BFB0EE678A05F06BFF07EE104AF8EE7B
:1043B800C76A07EE100AF8EEC77A9FED097A094B2B
:1043C80086EE888AC7EE277A27EE888A83ED008AE8
:1043D800BDEC028B10BD00BFFEFFFF4A0000004B82
:1043E8000000FA43F00F0020014B93ED000A7047DC
:1043F800F00F002070B50E4C94ED000AB5EE400A9F
:10440800F1EE10FA12D10B4E0B4D3146002002F09E
:1044180041FE2946012002F03DFE31882B88074ADB
:1044280043EA014300EE103A1360236070BD00BFF9
:10443800FC0F0020EC0F002002100020F80F0020D5
:1044480070B50E4C94ED000AB5EE400AF1EE10FA84
:1044580012D10B4E0B4D3146022002F01BFE2946AD
:10446800032002F017FE31882B88074A43EA0143EC
:1044780000EE103A1360236070BD00BFF40F0020F7
:104488000410002000100020F80F00202DE9F0474C
:1044980000F0EAFC684C012604F51C480025232797
:1044A80084F8B36484F8B45484F8B57484F8B054C8
:1044B80084F8B154204600214FF4C87244F8085CCF
:1044C80044F8045C0DF094FE04F5C87000214FF424
:1044D80048720DF08DFE04F8286C04F59C64444580
:1044E800DED1564C4FF0010804F59C5A00264FF0D7
:1044F8002309002584F8B38484F8B46484F8B59457
:1045080084F8B06484F8B164294620464FF4C87230
:1045180044F8086C44F8046C0DF06AFE04F5C870A1
:1045280029464FF448720DF063FE04F8288C04F510
:104538009C6454454FF001074FF02303D9D1404CF8
:1045480029464FF4C87204F1280084F8DD3484F851
:10455800DB7484F8DC5484F8D85484F8D954256280
:1045680065620DF045FE294604F5DC704FF448728B
:104578000DF03EFE2420277000F05AFC90B3314C19
:10458800314B07CB04F1050CC4F80500242700269D
:10459800B3F800E06770C02003234FF0010884F8E7
:1045A800DD0484F8DB8484F8DC343846ACF80CE0AD
:1045B800CCF80410CCF8082084F8D86484F8D964BE
:1045C8002662666200F034FC3D460746284697B9E5
:1045D80000F034FCD0B9202D24D01C48BDE8F047A9
:1045E8000DF00EBE242000F029FC0446C0B918487E
:1045F8000DF006FEC4E700F0B1FDFF2360802670D1
:1046080023711448BDE8F0470DF0FABD213DFF23A2
:104618002571277063801048BDE8F0470DF0F0BDA4
:104628000E4CADE7FF232070638023710C48BDE872
:10463800F0470DF0E5BD00BF1853002018EF00202B
:1046480070020120700201202CB00108DCB00108C2
:10465800D0AF01083CB0010874B0010890FD0020FB
:10466800ACB001082DE9F04F6C4B6D4E8BB0054690
:104678008846144693E80300012223238DE80C00A2
:104688004FF0000A04908DF81410D3464FF0FF093C
:10469800284656F82A10624F2246FEF79BFC00284F
:1046A8003CDB00EBC0000AF1FF3308EB8007032B6B
:1046B8001DD8DFE803F01712023F384604F0D8FE91
:1046C80083460AF1010ABAF1050FE1D1B9F1FF0FEA
:1046D80035D150460BB0BDE8F08F384604F06AFE7D
:1046E8000190EEE7384604F05BFE0090E9E70AA97E
:1046F800002341F81C3D38460A220EF007FE039BB2
:10470800BB425FFA80F95BD0B9F1250FD9D945488A
:104718000DF076FD01200BB0BDE8F08F0AF1FF33F4
:10472800042BCED9396840480DF06AFD02200BB041
:10473800BDE8F08F394604A80DF02BFEC1E74846C6
:1047480000F076FB002832D0384B4FF49C6404FB11
:1047580009342578012D18BF0620BBD1009B84F8A9
:10476800DB34019B84F8DD3404A984F8019084F8D3
:10477800DCB4601D0DF00DFE67780026384684F81D
:10478800D86484F8D9642662666200F051FB8046DA
:104798003846B8F1000F22D100F050FB064648BB5E
:1047A800202F32D022480DF02BFD284692E74846AC
:1047B80000F044FB58B9B9F1200F03D11D4CC8E7EC
:1047C800042087E71C480DF01BFD032082E71B4BE4
:1047D800A9F121024FF49C6101FB0234B9E700F012
:1047E800BDFCFF2360802670237115480DF008FD7D
:1047F80030466FE7FF23213F277184F800806380EC
:1048080010480DF0FDFC404664E7FF2320706380EC
:1048180023710D480DF0F4FC30465BE740A0010819
:104828003400002038B1010870B10108F0520020AE
:10483800DCB0010870020120D0AF0108F0EE0020C2
:104848003CB0010874B00108ACB001082DE9F04192
:10485800434D0E462968FEF7BDFB041E42DB414866
:104868000DF0CEFC04EBC40006EB800000210A2208
:104878000EF04CFDC4B2252C2ED8204600F0D8FAF4
:104888000546B0B34FF49C63374E03FB04F4A319F9
:1048980000254FF0230E04F1280001273044294653
:1048A8004FF4C87283F8DDE483F8DB7483F8DC54D2
:1048B80083F8D85483F8D9541D625D620DF098FCD2
:1048C80004F5DC70304429464FF448720DF090FC32
:1048D800A7552846BDE8F08124480DF091FC012039
:1048E800BDE8F081296822480DF08AFC0220BDE865
:1048F800F081204600F0A2FA064630B3242CE8D016
:104908004FF49C6303FB04F81A4E213C03FB04F4A8
:10491800A319A8F520404FF0230EB83801273044DA
:1049280029464FF4C87283F8DC5483F8D85483F8C6
:10493800D9541D625D6283F8DDE483F8DB740DF001
:1049480057FCA8F51F402838BCE7202C05D00A489A
:104958000DF056FC3046BDE8F081BDE8F08100BF9F
:104968005000002014900108F052002038B10108CE
:1049780070B10108F0EE0020D0AF010838B5044648
:1049880000F056FA28B10D4B4FF49C6000FB043040
:1049980038BD204600F052FA054618B9202C08D137
:1049A800074838BD074B213C4FF49C6000FB04309E
:1049B80038BD05480DF024FC284638BDF0520020CB
:1049C80070020120F0EE0020D0AF01082DE9F04779
:1049D800044684B000252E4FDFF8CC8004E0013572
:1049E800EDB290470A2D2BD094F8D83494F8D924F6
:1049F8009A4225D05DB303F10A0603F1370254F851
:104A080026602449244804EBC202D2E90023009618
:104A18000DF08EFC94F8D8343A681F480133A8FB8F
:104A280003614909642606FB113384F8D834002A47
:104A3800D5D101351948EDB20DF0E2FB0A2DD3D1DD
:104A48003B680BB11648984704B0BDE8F08794F866
:104A5800DC0494F801A004F06BFC814694F8DD04B2
:104A680004F004FC064694F8DB0404F089FC534681
:104A780002900C49CDF80090621D019606480DF091
:104A880057FC3B680448984794F8D834B3E700BF0C
:104A9800081000202CB20108043901203CB201089A
:104AA80040C20108A4B101081F85EB51014B1860F1
:104AB800704700BF08100020B0F5F04F00F0A58047
:104AC80016D9B0F5384F00F0818023D9B0F5584F8A
:104AD80000F09D803CD9B0F5684F00F08E807BD9FE
:104AE800B0F5704F60D0B0F5784F3AD1494870476B
:104AF800B0F5605F00F087801BD8B0F5C05F63D069
:104B080047D8B0F5006F70D0B0F5805F56D040BB85
:104B180041487047B0F5184F5CD024D8B0F5084F1D
:104B28006FD0B0F5104F47D0B0F5004F19D13B48C2
:104B38007047B0F5B04F4BD020D8B0F5904F52D059
:104B4800B0F5A04F34D0B0F5804F0AD13448704743
:104B5800B0F5484F4FD0B0F5504F2BD0B0F5404F7F
:104B68004DD000207047B0F5284F42D0B0F5304FF7
:104B780028D0B0F5204FF4D12A487047B0F5D04F6F
:104B880035D0B0F5E04F1BD0B0F5C04FE9D126487D
:104B98007047B0F5205F24D0B0F5405F06D0B0F57F
:104BA800005FDED12148704721487047214870478F
:104BB800214870472148704721487047214870476D
:104BC800214870472148704721487047214870475D
:104BD8002148704721487047B0F5604FC1D120483F
:104BE8007047204870472048704720487047204841
:104BF8007047204870472048704720487047204831
:104C08007047204870472048704720487047204820
:104C1800704700BF20B3010850B30108B0B30108C2
:104C280080B30108D4B30108D8B2010874B30108ED
:104C380004B40108A8B20108CCB201082CB30108D9
:104C4800FCB201089CB20108A4B3010808B301082A
:104C580090B2010814B30108E4B20108F0B20108E7
:104C680038B3010868B301088CB301085CB30108C4
:104C780098B30108C8B30108ECB30108F8B30108F8
:104C8800E0B30108BCB30108B4B20108C0B201081E
:104C980044B301082DE9F04FDFF87091DFF88C81FB
:104CA800ADF2FC4D03F032FA4846564941220DF068
:104CB80096FAD8F800300BB148469847524D002470
:104CC80002E0B4F51C4F3BD0291906A84FF49C62AA
:104CD8000DF085FA9DF8183004F59C64002BF0D18E
:104CE800BDF81A009DF819B0FFF7E6FE82469DF858
:104CF800F40404F01DFB07469DF8F50404F0B6FA29
:104D080006469DF8F30404F03BFB0DF11D020490E8
:104D18000192CDF800A0029703965B463B483C4AB7
:104D28004FF400710DF0D2FA10F0FF0F374860D041
:104D3800D8F80030002BC4D09847B4F51C4FC3D125
:104D4800344CD8F800500FCCC9F80000A688206869
:104D5800C9F80410C9F80820C9F80C30C9F81000BF
:104D6800A9F814600DB12948A8472B4D002406A8BE
:104D780029194FF49C620DF032FA9DF8183073BB74
:104D88009DF81C20254B9DF8F4049DF819A0244E8D
:104D9800042A98BF53F8226004F0CAFA81469DF8A5
:104DA800F50404F063FA07469DF8F30404F0E8FA02
:104DB8000DF11D0204900192CDF80890039700961A
:104DC80053461248174A4FF400710DF07FFA10F05D
:104DD800FF0F0E480DD0D8F8003003B1984704F5FE
:104DE8009C64B4F59C5FC2D100200DF2FC4DBDE877
:104DF800F08F0D480DF004FA07200DF2FC4DBDE8C8
:104E0800F08F00BF18B40108F052002004390120C7
:104E18005CB4010854B50108F0EE0020A8B50108FB
:104E280010B40108F0B40108C0B40108081000204B
:104E38001F288CBF00200120704700BF213803289D
:104E48008CBF00200120704708B502F085FF054B94
:104E5800D3E90023994208BF904234BF00200120C3
:104E680008BD00BF101000202DE9F0411E4F1F4E55
:104E780082B0802001210CF0B7F9012500244FF4FD
:104E8800805838466946CDF800808DF804508DF872
:104E980007508DF806408DF805400CF005FA2246BB
:104EA800384641460CF06CFA294608200CF09CF96B
:104EB8004FF478436946304600938DF804508DF8D6
:104EC80006408DF807508DF805400CF0EDF9304696
:104ED8000CF04EFAC0F30A0141F4C05130460CF010
:104EE80055FA02B0BDE8F081001C0240000C0240F7
:104EF80070B504460D4600285CD043781F2B34D982
:104F0800A3F12102032A4BD9202B0CD03B493C4862
:104F18004E220DF064F93A4802F006FE3948BDE821
:104F280070400DF06DB90020012105F03FF94FF4F4
:104F38008051354801220CF023FA34480CF018FA55
:104F4800C0F30A0141F4C05130480CF01FFA02F0D6
:104F580003FF2F4D10F57A7041F10001C5E90001FA
:104F680000F064FD2B4B1C6070BD4688FF2E39D0C5
:104F78000020012105F01AF94FF48051012222483E
:104F88000CF0FEF921480CF0F3F9C0F30A013143A3
:104F98001E480CF0FBF9012DD9D01E4B1C6070BDCA
:104FA8000379FF2B26D0042B20D8DFE803F00F0865
:104FB800181512001848BDE870400DF021B90821F5
:104FC800042005F0F3F8134B1C6070BD0821032082
:104FD800F7E701210020F4E708210620F1E708217E
:104FE8000720EEE70D480DF00BF9BBE70C480DF074
:104FF80007F9B7E70B480DF003F9B3E7D4B6010892
:105008000439012024B70108001C0240000C0240AA
:10501800101000200C10002074B70108BCB501085E
:105028008CB6010824B601081F2838B504460D4679
:1050380012D9A0F12103032B4AD9202825D02649CB
:10504800264856220DF0CBF8244802F06DFD24487E
:10505800BDE838400DF0D4B80020012105F0A6F8CD
:105068004FF4805101221F480CF08AF91E480CF0B9
:105078007FF9C0F30A0121431B480CF087F9012D81
:1050880017D01A4B00221A6038BD0020012105F004
:105098008DF84FF48051134801220CF071F9124831
:1050A8000CF066F9C0F30A0141F4C0510E480CF047
:1050B8006DF902F051FE0E4B10F57A7041F10001C6
:1050C800C3E9000100F0B2FC084B00221A6038BDA9
:1050D80008480DF095F8D4E7B4B701080439012061
:1050E80024B70108001C0240000C02400C100020EC
:1050F800101000208CB6010810B50020104C0121BA
:1051080005F054F801224FF480510E480CF038F99C
:1051180020460CF02DF9C0F30A0141F4C051204695
:105128000CF034F902F018FE074B10F57A7041F1D3
:105138000001BDE81040C3E9000100F077BC00BFE2
:10514800000C0240001C024010100020062008211C
:1051580005F02CB80020012105F028B81F289ABFB7
:10516800024B33F81000FF20704700BF0CB801084D
:10517800F8B50446411D20480DF042F86378242B09
:1051880032D094F8DC1494F8DB2494F8DD0403F0AE
:1051980015FB94F8DC5494F8DD7494F8DB44064667
:1051A800FFF722F929463846224603F0B5F90546A5
:1051B800124C134831462A460DF022F8C6F307224E
:1051C800C6F3074320466270A370267005F0C8F83E
:1051D800C5F30722C5F3074325706270A370204604
:1051E800BDE8F84005F01EB903F05EFB064603F083
:1051F80067FB0546DCE700BF7CB8010824100020E7
:10520800ACB8010808B503480CF0FAFF024B0022BD
:105218001A7008BDDCB801082010002070B5104DC8
:105228002C78A4B90F48104E0CF0EAFF04F0AEFC3D
:105238000E4B0F4A0F49104814600C7001229C70E5
:105248001C705C70DC70346004602A7070BD0B4B9D
:105258000B4853F82410BDE870400CF0D1BF00BFD4
:105268002010002058B901081C1000202C10002024
:105278001810002029100020341000205CB8010804
:1052880010B9010810B5104C2378042B07D00F4A29
:105298000F4852F82310BDE810400CF0B1BF0D487C
:1052A8000CF0AEFF0C4B002202212170DA701A714B
:1052B8009A705A701A70FFF71FFF4FF47A70002126
:1052C800BDE8104002F096BD201000205CB801082F
:1052D80090B90108D8B901082C10002038B50E4C37
:1052E8002378042B054607D00C4A0D4852F82310A2
:1052F800BDE838400CF084BF0A480CF081FF0A4B27
:1053080000222846DA7003251A7125700121BDE8AC
:105318003840FFF789BE00BF201000205CB80108A4
:1053280090B90108D8B901082C10002038B5204CD4
:1053380023785A1E022A0BD903F0FD02052A07D04A
:105348001C4A1D4852F82310BDE838400CF058BFDD
:105358001A480CF055FF0423237004F03BFE01208B
:1053680004F01CFE2420FFF709FB04460021FFF788
:10537800BFFD94F8DD0404F08FFF94F8DC0404F01A
:1053880045FF94F8DB0404F0DBFE2046FFF7F0FE4F
:10539800012004F003FE04F01DFE94F8D95402F035
:1053A800DBFC05F1370304EBC304C4E9000138BD95
:1053B800201000205CB8010810BA010850BA010892
:1053C8002DE9F04FB04C237883B0072B51D8DFE894
:1053D80013F053000E006B00800013008500E500F9
:1053E800F800AA480CF00CFFA84802F0E5FB03B04F
:1053F800BDE8F04FFFF79ABFA54B1A78012A00F0D5
:10540800BE81002004F07EFD98B32420FFF7B6FA91
:105418000446012004F0C2FD9E4B94F8D9540022A2
:105428001A7004F027FD0A3594F8D93444F8250099
:105438000A33204654F82310FEF7A8FF94F8D954ED
:105448000135EDB284F8D95402F086FC373504EB07
:10545800C505C5E9000104F0BDFD94F8D93494F8F8
:10546800D8249A4200F0C881642B02D1002384F822
:10547800D93403B0BDE8F08F8748884F884D894EEE
:105488000CF0BEFE04F082FB874A88480023012105
:105498003B6033602B600370937013705370D3704C
:1054A800217003B0BDE8F08F7F4CE378002B98D1D2
:1054B8002278062A00F2AE8061780F2900F2728104
:1054C800A278012A40F2AE810131A370617023797C
:1054D800A3E003B0BDE8F04F04F0CABD002004F01B
:1054E80011FD002800F08B80714C6E4D22782B68DE
:1054F800DFF8E48153F8226096F8D97404F0BAFC16
:105508002378296807F1010E1AB2A8FB0E9C07F14F
:105518000A0A4FEA5C1C51F8227046F82A004FF03C
:10552800640909FB1CEE87F8D9E451F8220090F8C9
:10553800D96490F8D804864201EB820200F08B808F
:10554800DFF8688198F80000012840F2C7801768E2
:10555800524EDFF84CA1DFF858B14FF0000906E0D1
:1055680051F8230018B10278012A40F0FF80013376
:10557800DBB2252B2370F3D1DAF800104D483268DE
:105588008BF8009001310CF03BFEDAF80020296816
:105598009BF800300132CAF80020E1E704F096F9E0
:1055A8003F4E3E4C3F4D4148414A0023FF21336066
:1055B8002B6023600370117003B0BDE8F04FFFF754
:1055C800B5BE2420FFF7DAF9324B1B780546002BCD
:1055D8003FF44FAF002004F095FC002840F0E7802E
:1055E800354D2B78052B00F01681023B022B40F23B
:1055F800CD80324803B0BDE8F04F0CF001BE2C4A14
:10560800284B12781B6853F8220003B0BDE8F04F0E
:10561800FFF7DCB901222379E27007EE903AB8EE81
:10562800677ADFED277A67EE277A17EE900AFAF79E
:105638003FFF244ACDE900014FF4007122480CF0E5
:1056480045FE214921480CF0DBFD1F4803B0BDE8A9
:10565800F04F02F0B1BA1E480CF0D2FD1D4802F01E
:1056680063FA237829681AB251F8220090F8D864AE
:105678000136A8FB06E77F0909FB176601EB8202E2
:1056880080F8D8645CE700BF20100020B4BA010895
:10569800AC0000202810002058B90108181000207C
:1056A8001C100020341000202C100020291000208D
:1056B8002A1000206CBB01083810002060BC0108CB
:1056C8004A92E43E80BA0108043901207892010820
:1056D800E4BA010834BB01081F85EB51DFF8FCA1CF
:1056E8007B4EDAF80030326800920133794A7A4802
:1056F8004FF400710CF0EAFD774802F05DFADAF831
:1057080000300133CAF8003004F064FC2B682278BA
:1057180053F8227097F8D99402F01EFB09F1370369
:1057280007EBC307C7E90001DAF8002033686B49C3
:105738009A427FF49EAE98F80030012B03D90B688B
:10574800002B3FF496AE22782B6853F82200FFF71F
:105758003DF9FFF7EBFD62480CF052FD614802F09D
:105768002BFA03B0BDE8F04FFEF7ECBD87424ED0F0
:105778000121FFF7BDFB3846FFF728F9D4E70022DF
:105788001A7003B0BDE8F04FFDF73CBCFFF75CFBB7
:1057980001287FF42EAF2B78237003B0BDE8F04FBB
:1057A800FFF7D8BC013263702270237935E795F88A
:1057B800D96404F05FFB06F10A03014645F82300AB
:1057C8002846FEF7E3FD484895F8D8740136A0FB53
:1057D80006235B09642101FB1363DAB2974285F85B
:1057E800D9247FF4FDAE0133A0FB0362520901FB0B
:1057F800123385F8D834F3E63B495A1CA1FB020161
:105808004909642000FB112284F8D8242CE6374883
:105818000CF0F6FC78E7FFF717FB012806462ED0B8
:105828002B78E2E6324D334FA85C334E04F088FC07
:105838006378F85C04F030FD2378F05C04F0E6FC53
:1058480004F0E2FB04F0BCFD61782278A378B25C36
:10585800795CEB5C03F0AAFA04F03EFC04F04EFD20
:1058680062782378B95CF25CA678AB5D0136A670E5
:1058780003F020FA23790133DBB22371CDE6FFF779
:1058880069FC1E4A1E4B11781A682B7852F8215071
:10589800237095F8DD0404F0FFFC95F8DC0404F0AF
:1058A800B5FC95F8DB0404F04BFC2846FFF760FCD8
:1058B800304604F073FB04F08DFB95F8D94402F0F0
:1058C8004BFA04F1370305EBC305C5E90001D0E540
:1058D800181000206CBB0108043901201C1000209E
:1058E8000CBC010840BC01081F85EB51A4BB010892
:1058F80098BF01084CB8010890BF01082A10002081
:105908003410002008B504480CF07AFCFFF70EFDAF
:10591800BDE80840FEF716BD84BC0108F8B5384E4E
:105928003378042B07462AD100285ED0354C3648F8
:105938000023012A2360016029D03A1F01E0252BAA
:105948002FD052F8044FDDB20133002CF7D0217864
:105958000029F4D12D4A2E4B157025221A702D4A94
:1059680005232046012133701760FFF7C1FA337809
:10597800052B1BD00020BDE8F84004F00FBB264AD9
:10598800264852F82310BDE8F8400CF039BC3C68B2
:105998003CB1217801292DD01C481D4903700A709B
:1059A800DDE71F48BDE8F8400CF02ABC94F8DD0498
:1059B80004F072FC94F8DC0404F028FC94F8DB048E
:1059C80004F0BEFB2046FFF7D3FB002004F0E6FA04
:1059D80004F000FB94F8D95402F0BEF905F137033E
:1059E80004EBC304C4E90001F8BD0E48BDE8F84063
:1059F8000CF006BC0C48BDE8F8400CF001BC00BF38
:105A0800201000201C100020181000202A10002050
:105A180029100020341000205CB80108B0BC01082F
:105A28006CBD0108FCBC0108D8BD010838B51F4C85
:105A380023789A1E042A07D91D4A1E4852F82310B3
:105A4800BDE838400CF0DCBB1B491C480CF0D8FB07
:105A58001B4B22781A7007232370FFF777FB24204B
:105A6800FEF78CFF044690F8DD0404F015FC94F86A
:105A7800DC0404F0CBFB94F8DB0404F061FB204663
:105A8800FFF776FB012004F089FA04F0A3FA94F8F2
:105A9800D95402F061F905F1370304EBC304094B4B
:105AA80001221A70C4E9000138BD00BF201000208F
:105AB8005CB801088CBE010800BF0108D8BE010807
:105AC80038100020281000202DE9F04F87B040F250
