:020000040800F2
:1000000000000220F9160008D9130008E5130008C3
:100010004D150008551500085D150008000000008A
:100020000000000000000000000000005117000860
:100030006515000800000000511700087115000840
:1000400051170008511700085117000851170008F0
:1000500051170008511700085117000851170008E0
:1000600051170008511700085117000851170008D0
:1000700051170008511700085117000851170008C0
:1000800051170008511700085117000851170008B0
:10009000B51600085117000851170008511700083D
:1000A0005117000851170008511700085117000890
:1000B0005117000851170008911600085117000841
:1000C0005117000851170008511700085117000870
:1000D0005117000851170008511700085117000860
:1000E0007D15000851170008511700085117000826
:1000F0005117000851170008511700085117000840
:1001000051170008511700082D1600085117000854
:10011000511700085117000851170008511700081F
:10012000511700085117000851170008511700080F
:1001300051170008511700085117000851170008FF
:1001400051170008511700085117000851170008EF
:1001500051170008511700085117000851170008DF
:1001600051170008511700085117000851170008CF
:10017000511700085117000851170008000000002F
:08018000511700085117000897
:1001880010B5054C237833B9044B13B10448AFF3C9
:1001980000800123237010BD00090020000000002A
:1001A800B0E4010808B5034B1BB103480349AFF39A
:1001B800008008BD00000000B0E401080409002028
:1001C80010F8012B11F8013B012A28BF9A42F7D0F9
:1001D800D01A704781F0004102E000BF83F000436D
:1001E80030B54FEA41044FEA430594EA050F08BFCA
:1001F80090EA020F1FBF54EA000C55EA020C7FEA8E
:10020800645C7FEA655C00F0E2804FEA5454D4EB0A
:100218005555B8BF6D420CDD2C4480EA020281EAD4
:10022800030382EA000083EA010180EA020281EA0C
:100238000303362D88BF30BD11F0004F4FEA01315E
:100248004FF4801C4CEA113102D0404261EB41016D
:1002580013F0004F4FEA03334CEA133302D05242F3
:1002680063EB430394EA050F00F0A780A4F10104AF
:10027800D5F1200E0DDB02FA0EFC22FA05F28018E9
:1002880041F1000103FA0EF2801843FA05F35941CF
:100298000EE0A5F120050EF1200E012A03FA0EFC4E
:1002A80028BF4CF0020C43FA05F3C01851EBE37178
:1002B80001F0004507D54FF0000EDCF1000C7EEB95
:1002C80000006EEB0101B1F5801F1BD3B1F5001FD3
:1002D8000CD349085FEA30004FEA3C0C04F10104F2
:1002E8004FEA445212F5800F80F09A80BCF1004F1B
:1002F80008BF5FEA500C50F1000041EB045141EA9D
:10030800050130BD5FEA4C0C404141EB010111F49D
:10031800801FA4F10104E9D191F0000F04BF014648
:100328000020B1FA81F308BF2033A3F10B03B3F126
:1003380020020CDA0C3208DD02F1140CC2F10C02B6
:1003480001FA0CF021FA02F10CE002F11402D8BF14
:10035800C2F1200C01FA02F120FA0CFCDCBF41EAE0
:100368000C019040E41AA2BF01EB0451294330BDAF
:100378006FEA04041F3C1CDA0C340EDC04F114048C
:10038800C4F1200220FA04F001FA02F340EA030063
:1003980021FA04F345EA030130BDC4F10C04C4F1A9
:1003A800200220FA02F001FA04F340EA0300294689
:1003B80030BD21FA04F0294630BD94F0000F83F4D3
:1003C800801306BF81F480110134013D4EE77FEAB6
:1003D800645C18BF7FEA655C29D094EA050F08BF02
:1003E80090EA020F05D054EA000C04BF19461046E3
:1003F80030BD91EA030F1EBF0021002030BD5FEA27
:10040800545C05D14000494128BF41F0004130BD4E
:1004180014F580043CBF01F5801130BD01F00045A2
:1004280045F0FE4141F470014FF0000030BD7FEA15
:10043800645C1ABF194610467FEA655C1CBF0B4610
:10044800024650EA013406BF52EA033591EA030F27
:1004580041F4002130BD00BF90F0000F04BF00211F
:10046800704730B54FF4806404F132044FF0000552
:100478004FF0000150E700BF90F0000F04BF0021CB
:10048800704730B54FF4806404F1320410F0004531
:1004980048BF40424FF000013EE700BF42004FEA2C
:1004A800E2014FEA31014FEA02701FBF12F07F43A9
:1004B80093F07F4F81F06051704792F0000F14BFA6
:1004C80093F07F4F704730B54FF4607401F00045EA
:1004D80021F0004120E700BF50EA010208BF704741
:1004E80030B54FF000050AE050EA010208BF704736
:1004F80030B511F0004502D5404261EB41014FF49F
:10050800806404F132045FEA915C3FF4DCAE4FF0A2
:1005180003025FEADC0C18BF03325FEADC0C18BF89
:10052800033202EBDC02C2F1200300FA03FC20FADA
:1005380002F001FA03FE40EA0E0021FA02F1144427
:10054800C1E600BF70B54FF0FF0C4CF4E06C1CEA3C
:1005580011541DBF1CEA135594EA0C0F95EA0C0FB1
:1005680000F0DEF82C4481EA030621EA4C5123EA24
:100578004C5350EA013518BF52EA033541F4801153
:1005880043F4801338D0A0FB02CE4FF00005E1FB06
:1005980002E506F00042E0FB03E54FF00006E1FB50
:1005A80003569CF0000F18BF4EF0010EA4F1FF0493
:1005B800B6F5007F64F5407404D25FEA4E0E6D41D3
:1005C80046EB060642EAC62141EA55514FEAC520E4
:1005D80040EA5E504FEACE2EB4F1FD0C88BFBCF560
:1005E800E06F1ED8BEF1004F08BF5FEA500E50F111
:1005F800000041EB045170BD06F0004646EA0101D7
:1006080040EA020081EA0301B4EB5C04C2BFD4EB08
:100618000C0541EA045170BD41F480114FF0000E01
:10062800013C00F3AB8014F1360FDEBF002001F06F
:10063800004170BDC4F10004203C35DA0C341BDCE9
:1006480004F11404C4F1200500FA05F320FA04F0BB
:1006580001FA05F240EA020001F0004221F00041EF
:1006680010EBD37021FA04F642EB06015EEA430E62
:1006780008BF20EAD37070BDC4F10C04C4F1200592
:1006880000FA04F320FA05F001FA04F240EA020045
:1006980001F0004110EBD37041F100015EEA430E16
:1006A80008BF20EAD37070BDC4F1200500FA05F236
:1006B8004EEA020E20FA04F301FA05F243EA0203B5
:1006C80021FA04F001F0004121FA04F220EA0200C4
:1006D80000EBD3705EEA430E08BF20EAD37070BD0A
:1006E80094F0000F0FD101F00046400041EB0101EA
:1006F80011F4801F08BF013CF7D041EA060195F0CC
:10070800000F18BF704703F00046520043EB030385
:1007180013F4801F08BF013DF7D043EA0603704772
:1007280094EA0C0F0CEA135518BF95EA0C0F0CD07D
:1007380050EA410618BF52EA4306D1D181EA0301C3
:1007480001F000414FF0000070BD50EA410606BFBD
:100758001046194652EA430619D094EA0C0F02D102
:1007680050EA013613D195EA0C0F05D152EA033647
:100778001CBF104619460AD181EA030101F0004165
:1007880041F0FE4141F470014FF0000070BD41F0AE
:10079800FE4141F4780170BD70B54FF0FF0C4CF488
:1007A800E06C1CEA11541DBF1CEA135594EA0C0FA7
:1007B80095EA0C0F00F0A7F8A4EB050481EA030EF4
:1007C80052EA03354FEA013100F088804FEA0333DB
:1007D8004FF0805545EA131343EA12634FEA0222A9
:1007E80045EA111545EA10654FEA00260EF000416A
:1007F8009D4208BF964244F1FD0404F5407402D2BC
:100808005B084FEA3202B61A65EB03055B084FEA4C
:1008180032024FF480104FF4002CB6EB020E75EB49
:10082800030E22BFB61A754640EA0C005B084FEA71
:100838003202B6EB020E75EB030E22BFB61A7546EE
:1008480040EA5C005B084FEA3202B6EB020E75EB39
:10085800030E22BFB61A754640EA9C005B084FEAB1
:100868003202B6EB020E75EB030E22BFB61A7546BE
:1008780040EADC0055EA060E18D04FEA051545EAAD
:1008880016754FEA06164FEAC30343EA52734FEA56
:10089800C2025FEA1C1CC0D111F4801F0BD141EACF
:1008A80000014FF000004FF0004CB6E711F4801F34
:1008B80004BF01430020B4F1FD0C88BFBCF5E06F14
:1008C8003FF6AFAEB5EB030C04BFB6EB020C5FEA24
:1008D800500C50F1000041EB045170BD0EF0004E79
:1008E8004EEA113114EB5C04C2BFD4EB0C0541EAAB
:1008F800045170BD41F480114FF0000E013C90E6A8
:1009080045EA060E8DE60CEA135594EA0C0F08BF6B
:1009180095EA0C0F3FF43BAF94EA0C0F0AD150EA6A
:1009280001347FF434AF95EA0C0F7FF425AF1046FD
:1009380019462CE795EA0C0F06D152EA03353FF425
:10094800FDAE1046194622E750EA410618BF52EAA2
:1009580043067FF4C5AE50EA41047FF40DAF52EA76
:1009680043057FF4EBAE12E74FF0FF3C06E000BF13
:100978004FF0010C02E000BF4FF0010C4DF804CD20
:100988004FEA410C7FEA6C5C4FEA430C18BF7FEAE0
:100998006C5C1BD001B050EA410C0CBF52EA430C0E
:1009A80091EA030F02BF90EA020F0020704710F18E
:1009B800000F91EA030F58BF994208BF90422CBF1D
:1009C800D8176FEAE37040F0010070474FEA410C16
:1009D8007FEA6C5C02D150EA013C07D14FEA430C34
:1009E8007FEA6C5CD6D152EA033CD3D05DF8040BA5
:1009F800704700BF8446104662468C4619466346D7
:100A080000E000BF01B5FFF7B7FF002848BF10F1AD
:100A1800000F01BD4DF808EDFFF7F4FF0CBF0120F2
:100A280000205DF808FB00BF4DF808EDFFF7EAFF6E
:100A380034BF012000205DF808FB00BF4DF808ED29
:100A4800FFF7E0FF94BF012000205DF808FB00BF1E
:100A58004DF808EDFFF7CEFF94BF012000205DF8A8
:100A680008FB00BF4DF808EDFFF7C4FF34BF0120B5
:100A780000205DF808FB00BF4FEA410212F50012A2
:100A880015D211D56FF47873B3EB625212D94FEACD
:100A9800C12343F0004343EA505311F0004F23FAB7
:100AA80002F018BF404270474FF00000704750EA0C
:100AB800013005D111F0004008BF6FF000407047C9
:100AC8004FF00000704700BF4A0011D212F5001223
:100AD80011D20DD56FF47873B3EB62520ED44FEA8E
:100AE800C12343F0004343EA505323FA02F070470E
:100AF8004FF00000704750EA013002D14FF0FF304C
:100B080070474FF0000070474FEA4102B2F1E043EE
:100B180024BFB3F5001CDCF1FE5C0DD901F0004CDC
:100B28004FEAC0024CEA5070B2F1004F40EB83002C
:100B380008BF20F00100704711F0804F21D113F158
:100B48003872BCBF01F00040704741F480114FEA91
:100B58005252C2F11802C2F1200C10FA0CF320FA1A
:100B680002F018BF40F001004FEAC1234FEAD32337
:100B780003FA0CFC40EA0C0023FA02F34FEA4303A1
:100B8800CCE77FEA625307D150EA01331EBF4FF02A
:100B9800FE4040F44000704701F0004040F0FE4045
:100BA80040F40000704700BF4BB942B9002908BFA4
:100BB800002802D04FF0FF31084600F05FB882B03D
:100BC800EC462DE9005000F041F8DDF804E002B0F1
:100BD8000CBC704770B5FFF761FC00220D4B044652
:100BE8000D46FFF7AFFCFFF76FFF0646FFF734FC33
:100BF8000022094BFFF7A6FC02460B462046294671
:100C0800FFF7ECFAFFF760FF002242EA00042046F3
:100C1800314670BD0000F03D0000F0412DE9704301
:100C2800069E14461D468046894600F029F804FBB6
:100C380001F300FB0533A4FB00451D44B8EB040495
:100C480069EB0505C6E90045BDE870832DE97043E9
:100C5800069E1446804689461D4600F05DF900FB55
:100C680005F504FB0153A0FB04451D44B8EB04043F
:100C780069EB0505C6E90045BDE87083704700BF0C
:100C880000292DE9F00FC0F29F800024002BC0F24C
:100C98009680154606460F46002B3ED18A4257D904
:100CA800B2FA82F34BB1C3F1200201FA03F720FA3A
:100CB80002F29D40174300FA03F6290CB7FBF1F244
:100CC800330C01FB127CA8B243EA0C4700FB02F389
:100CD800BB4209D97F1902F1FF3C80F00181BB4278
:100CE80040F2FE80023A2F44FF1AB7FBF1F3B6B286
:100CF80001FB137146EA014100FB03F0884208D961
:100D0800491903F1FF3780F0ED80884240F2EA800C
:100D1800023B43EA0242002303E08B420AD9002344
:100D28001A461046194614B1404261EB4101BDE82C
:100D3800F00F7047B3FA83F8B8F1000F40F08480E1
:100D48008B4202D3824200F2DE8000230122E8E7D0
:100D580012B90123B3FBF2F5B5FA85F2002A39D1AD
:100D68007F1B280C1FFA85FC0123B7FBF0F1320C1E
:100D780000FB117742EA07470CFB01F2BA4207D998
:100D88007F1901F1FF3802D2BA4200F2C180414610
:100D9800BF1AB7FBF0F2B6B200FB127046EA004089
:100DA8000CFB02FC844507D9401902F1FF3702D237
:100DB800844500F2AB803A4642EA0142B1E7E44397
:100DC800524263EB430364E7404261EB41014FF059
:100DD800FF345BE79540C2F1200327FA03F1280CA2
:100DE80026FA03F39740B1FBF0F81F433B0C00FBD6
:100DF80018111FFA85FC43EA01410CFB08F38B42EA
:100E080006FA02F608D9491908F1FF3279D28B425D
:100E180077D9A8F102082944C91AB1FBF0F3BFB287
:100E280000FB131147EA01470CFB03F2BA4207D94A
:100E38007F1903F1FF3160D2BA425ED9023B2F44D9
:100E4800BF1A43EA084390E7C8F1200203FA08FCF6
:100E580025FA02F343EA0C0C4FEA1C4921FA02F383
:100E680001FA08F720FA02F2B3FBF9F1174309FB7C
:100E780011333A0C1FFA8CFB42EA03430BFB01FACD
:100E88009A4505FA08F008D913EB0C0301F1FF3273
:100E980035D29A4533D902396344CAEB0303B3FB0D
:100EA800F9F209FB1233BFB247EA03470BFB02F919
:100EB800B94508D917EB0C0702F1FF331BD2B94526
:100EC80019D9023A674442EA0145A5FB0001C9EB7A
:100ED80007078F424FF000030AD305D02A4620E7C0
:100EE800624601E73B4614E706FA08F68642F5D261
:100EF8006A1E002315E71A46E5E70B46A0E71146E8
:100F0800CBE7904688E7434642460AE7023A53E76A
:100F180002392F443CE700BF2DE9F00F144605467F
:100F28000E46002B43D18A4253D9B2FA82F757B101
:100F3800C7F1200620FA06F601FA07F302FA07F4C9
:100F48001E4300FA07F5210CB6FBF1F22B0C01FB4E
:100F58001267A0B243EA074600FB02F3B34209D97D
:100F6800361902F1FF3780F0F680B34240F2F38081
:100F7800023A2644F61AB6FBF1F3ADB201FB13614F
:100F880045EA014100FB03F0884208D9091903F139
:100F9800FF3680F0E280884240F2DF80023B43EA7D
:100FA8000242002310461946BDE8F00F70478B42F5
:100FB8004AD8B3FA83F6002E4DD18B4202D382422F
:100FC80000F2D6800023012210461946BDE8F00F32
:100FD800704712B90124B4FBF2F4B4FA84F2002A7F
:100FE8007CD1091B260CA7B20123B1FBF6F02A0C11
:100FF80006FB101142EA014107FB00F28A4207D9B9
:10100800091900F1FF3C02D28A4200F2C38060460F
:10101800891AB1FBF6F2ADB206FB121145EA014599
:1010280007FB02F7AF4208D92C1902F1FF3180F013
:101038009680A74240F29380023A42EA0042104664
:101048001946BDE8F00F704700231A4610461946A6
:10105800BDE8F00F7047C6F1200522FA05F4B34049
:101068001C434FEA144821FA05F301FA06F720FA5F
:1010780005F5B3FBF8FC2F4308FB1C333D0C1FFAA6
:1010880084FA45EA03430AFB0CF9994502FA06FB80
:1010980004D91B190CF1FF326DD39446C9EB030335
:1010A800B3FBF8F508FB1533BFB247EA03470AFB61
:1010B80005F8B84504D93F1905F1FF3361D31D463A
:1010C80045EA0C4CACFB0B23C8EB07079F424FF0DB
:1010D800000549D345D062462B4663E79440C2F1E8
:1010E800200321FA03FC260C20FA03F301FA02F587
:1010F800BCFBF6F843EA05010B0C06FB18CCA7B2BB
:1011080043EA0C4C07FB08F3634500FA02F509D9DA
:101118001CEB040C08F1FF323AD2634538D9A8F128
:101128000208A444C3EB0C0CBCFBF6F389B206FB23
:1011380013CC41EA0C4107FB03F28A4207D909198B
:1011480003F1FF3022D28A4220D9023B2144891A76
:1011580043EA084349E73A460CE733461FE70A469D
:101168006BE7B0409042B6D20CF1FF32002319E78A
:101178003346324616E799458FD9ACF1020C234421
:101188008CE7B8459BD9023D274499E70346DEE73B
:101198009046C7E7023821443AE700BF80B500AF60
:1011A800164B164AD2F8882042F47002C3F88820F9
:1011B800134B134A126842F001021A60104B0022C6
:1011C8009A600F4A0E4B1B6823F0847323F4803314
:1011D80013600B4B0B4A5A60094B094A126822F4F8
:1011E80080221A60064B0022DA6000F089F800F0CD
:1011F8000BF8024B4FF000629A6080BD00ED00E0F2
:10120800003802401030002480B487B000AF0023BB
:101218003B6100237B610223FB600023BB60022348
:101228007B60324B9B6803F00C033B613B69042BEA
:1012380007D0082B09D0002B3FD12D4B2D4A1A601F
:101248003FE02B4B2C4A1A603BE0284B5B6803F4C9
:1012580080039B0DBB60254B5B6803F03F037B60FD
:10126800BB68002B0DD0244A7B68B2FBF3F21F4BFE
:10127800596847F6C0730B409B0903FB02F37B6177
:101288000CE01C4A7B68B2FBF3F2184B596847F62E
:10129800C0730B409B0903FB02F37B61134B5B6834
:1012A80003F440331B0C01335B00FB607A69FB6875
:1012B800B2FBF3F20E4B1A6003E00D4B0D4A1A60B5
:1012C80000BF0A4B9B6803F0F0031B090B4AD35C71
:1012D800DBB23B61064B1A683B69DA40044B1A6083
:1012E8001C37BD465DF8047B704700BF00380240DC
:1012F800000000200024F40000127A0004000020FE
:1013080080B483B000AF00237B6000233B60244B94
:10131800234A126C42F080521A64224B214A126806
:1013280042F440421A601E4B1D4A92689A601C4B58
:101338001B4A926842F400429A60194B184A926814
:1013480042F4A0529A60164B174A5A60144B144A3A
:10135800126842F080721A6000BF114B1B6803F0DC
:101368000073002BF9D0114B40F205721A600C4B38
:101378000B4A926822F003029A60094B084A926865
:1013880042F002029A6000BF054B9B6803F00C0311
:10139800082BF9D10C37BD465DF8047B704700BFB8
:1013A80000380240007000408A340008003C0240C7
:1013B80080B483B000AF0346FB71044BFA791A700E
:1013C8000C37BD465DF8047B704700BF200900203C
:1013D80080B400AFBD465DF8047B704780B58AB025
:1013E80000AF404B7B621EF0040F0CBFEFF3088088
:1013F800EFF309807B6A1B683B627B6A5B68FB6171
:101408007B6A9B68BB617B6ADB687B617B6A1B6963
:101418003B617B6A5B69FB607B6A9B69BB607B6A3B
:10142800DB697B60304815F0BBFD3B6A2F481946E5
:1014380015F0B6FDFB692E48194615F0B1FDBB69DC
:101448002C48194615F0ACFD7B692B48194615F058
:10145800A7FD3B692948194615F0A2FDFB682848F5
:10146800194615F09DFDBB682648194615F098FDEC
:101478007B682548194615F093FD244B1B682448C2
:10148800194615F08DFD234B1B682348194615F0A6
:1014980087FD224B1B682248194615F081FD214B18
:1014A800DB6A2148194615F07BFD204B1B68204854
:1014B800194615F075FD1F4B1B681F48194615F096
:1014C8006FFD184BDB6A03F08043002B08D01B48E4
:1014D80015F066FD134B9B6A1948194615F060FD17
:1014E80000BEFDE700040020C8E40108E0E40108AC
:1014F800ECE40108F8E4010804E5010810E5010836
:101508001CE5010828E5010834E5010838ED00E08C
:1015180040E5010828ED00E050E501082CED00E069
:1015280060E5010800ED00E070E5010830ED00E03D
:1015380088E501083CED00E098E50108A8E5010808
:10154800BCE5010880B400AFFEE700BF80B400AF7F
:10155800FEE700BF80B400AFFEE700BF80B400AF75
:10156800BD465DF8047B704780B500AF08F040FECB
:1015780080BD00BF80B586B000AF4FF4806014F026
:10158800F1FB0346002B44D04FF4806014F004FCB8
:1015980021484FF4805114F0FDF801200AF070F949
:1015A8000B200AF079FA07F11403184603210AF010
:1015B800B5F903200AF070FA17484FF4805114F077
:1015C800DBF802200AF068FA144B1B683B603B7D8D
:1015D8001A047B7D1B021A43BB7D13437B6008F012
:1015E80019FE02460B46C7E902233B46184603F09C
:1015F800F1FE0B4B1B68B3F1FF3F0AD0084B1B6889
:101608005A1E074B1A60064B1B68002B01D10AF0C3
:10161800EBF91837BD4680BD0004024084A90020BC
:10162800A8B3002098B500AF1348102113F0C0FAF2
:101638000346002B1ED0114B1B681C46621C0F4B27
:101648001A600D4813F084FA03469AB20C4B23F83B
:1016580014200948102113F0D5FA084B1B68012BF8
:1016680008D9074B5A88064B1B88D31A9BB21A46CF
:10167800044B1A6098BD00BF000C00407422002083
:101688001C0900207822002080B500AF06480121FF
:1016980013F08EFA0346002B05D00348012113F0FE
:1016A800B1FA03F0C3FF80BD0008004080B500AF69
:1016B8000C4800210C4A14F07DFB0B4B1A6840F2D1
:1016C80021339A420DD1084B1B7A002B09D1064BC6
:1016D8009B7A012B05D1044BDB7A0448194615F097
:1016E8005FFC80BD0064004008510020D4E501087B
:1016F800DFF83CD0002100F004B80E4B5B58435093
:1017080004310D480D4B42189A42FFF4F6AF0C4ACB
:1017180000F003B8002342F8043B0A4B9A42FFF456
:10172800F9AFFFF73BFD15F0F5FB00F023F8704724
:1017380000000220EC00020800000020FC08002045
:1017480000090020F8180120FFF7FEBF80B400AFA1
:10175800BFF34F8F054A054BDB6803F4E061044B88
:101768000B43D360BFF34F8FFEE700BF00ED00E0EF
:101778000400FA0580B500AF4FF4407014F0D2FBB6
:10178800132013F029FD034603F00203002B05D1B3
:1017980047F6FF70012108F08BFD01E013F0AEFB66
:1017A8007D2013F0DBFE0346002B02D013F010FF60
:1017B8000EE07C2013F0D2FE0346002B08D17B20DC
:1017C80013F0CCFE0346002B02D17A2013F0C6FE9C
:1017D80013F0FEFE00F072F800F04AF807F03AFF46
:1017E8000346002B07D102F045F80120FFF7E0FD82
:1017F80000F006F801E0FFF7A9FF0023184680BDB6
:1018080080B500AF184B1B78DBB2002B01D103F079
:1018180033FC06F0A3FC0346002B01D006F0FAFEC9
:1018280008F0F8FC02460B461046194606F0FAFE88
:1018380007F0A0FF0346012B0ED108F05DF8034620
:101848001A460A4B1A70094B1B78002B04D0074B19
:101858001B78184602F032F803F078FE02F06AFEB0
:1018680002F030FECEE700BF7C2200201C51002091
:1018780080B582B000AF08F007FE00237B6001232B
:101888001B067A6813437B6001231B047A681343A1
:101898007B600B231B027A6813437B6000237A6802
:1018A80013437B60786808F0F5FE034808F0B4FE3F
:1018B8000837BD4680BD00BF7CEF002080B584B0EE
:1018C80000AF0AF097F80AF0B5F808F0C9FF08F079
:1018D800A9FF03F0BBFB04F001F903F01BF802F0C9
:1018E80069FA154804F0F0FC134803F061FA12484D
:1018F80002F01EFD09F03AF90023FB710F4BFB6063
:101908000023BB600DE0FB681B78FB710C4ABB68C9
:101918001344FA791A70FB680133FB60BB68013322
:10192800BB60BB681F2BEEDD054B002283F820202F
:101938001037BD4680BD00BFB59900082078FF1F4D
:101948007CEF002080B483B000AF0346FB71FA79C6
:10195800044B53F8223018460C37BD465DF8047B1B
:10196800704700BF1400002080B483B000AF034666
:10197800FB71FA79044B53F8223018460C37BD46F0
:101988005DF8047B704700BF3800002080B400AFCA
:10199800BFF34F8F054A054BDB6803F4E061044B46
:1019A8000B43D360BFF34F8FFEE700BF00ED00E0AD
:1019B8000400FA0580B5ADF51C7D00AF07F10C03F6
:1019C800186007F108031960FB1D1A7007F10C0372
:1019D800186800F063FC07F10C03186800F0BCF805
:1019E800034687F86E32002387F86F3207F1080044
:1019F80007F5A07107F11402FB1D1B78006800F0C1
:101A080075F9034687F86D3297F86D32012B0DD1C1
:101A180097F86E0207F5A07107F11402FB1D1B78F9
:101A280000F070FC034687F86F3202E0032387F862
:101A38006F3297F86F32184600F0B4F807F51C7744
:101A4800BD4680BD80B5DEB000AF002387F8733196
:101A58003F48404915F0DAFBC7F874010DE097F8E4
:101A68007331013387F87331D7F87431013318466D
:101A7800384915F0CBFBC7F87401D7F87431002B3F
:101A8800EDD197F87331002B41D03148314915F029
:101A980079FB0346C7F86831D7F86831322B02D191
:101AA80001F0EEFE4FE02A482A4916F033FAC7F84B
:101AB80074013B1D1846D7F8741115F05BFB002321
:101AC800C7F86C311CE00020224916F023FAC7F849
:101AD8007401D7F87431002B00D117E0D7F86C31B6
:101AE800322202FB03F307F1380213441846D7F8F1
:101AF800741115F03FFBD7F86C310133C7F86C311E
:101B080097F87321D7F86C319A42DCDC11E0104861
:101B180015F048FB0346C7F86431D7F86431312B18
:101B280002D901F0ADFE0EE03B1D1846084915F03C
:101B380021FB391D07F1380297F873310846114621
:101B48001A46FFF737FF07F5BC77BD4680BD00BFD3
:101B58002809002020FC010880B584B000AF786017
:101B68000023FB730EE0FA7B0D4B53F822307868A4
:101B78001946FEF725FB0346002B00D105E0FB7B49
:101B88000133FB73FB7B282BEDD9FB7B282B01D979
:101B98002823FB73FB7B18461037BD4680BD00BF6A
:101BA800A400002080B584B000AF0346FB71FB7928
:101BB8001846FFF7C7FEF860FB79082B5ED801A22C
:101BC80052F823F0F11B0008011C0008111C000842
:101BD800211C0008311C0008551C0008651C000861
:101BE800751C0008451C00082F484FF400712F4A47
:101BF800FB6815F0EDF949E02B484FF400712C4AC9
:101C0800FB6815F0E5F941E027484FF40071294ACF
:101C1800FB6815F0DDF939E023484FF40071254AD7
:101C2800FB6815F0D5F931E01F484FF40071224ADE
:101C3800FB6815F0CDF900F043F827E01A484FF497
:101C480000711C4AFB6815F0C3F91FE016484FF4F1
:101C58000071184AFB6815F0BBF917E012484FF4F9
:101C68000071144AFB6815F0B3F90FE00E484FF401
:101C78000071104AFB6815F0ABF907E00A484FF409
:101C880000710E4AFB6815F0A3F900BFFB79002B21
:101C980003D1054808F0AAF902E0034808F07AF9E8
:101CA8001037BD4680BD00BF7CED0020E4EC010884
:101CB800F4EC010800ED01080CED01081CED010829
:101CC80080B500AF064B1B781846FFF74DFE03465C
:101CD80004484FF40071044A15F07AF980BD00BF3A
:101CE800340B00207CED002028ED010880B594B06D
:101CF80000AFF860B9607A60FB70012387F84F3055
:101D08000023BB6450E0BB6C322202FB03F3FA6889
:101D180013447B64786C2949022215F060FA034663
:101D2800002B3AD17B6C023307F11002104619469A
:101D380015F020FA07F110031846214916F0EAF8C1
:101D48007864786C00F0AAFABB6C322202FB03F3C9
:101D5800BA6813441846796C15F00CFA0020184933
:101D680016F0D8F878647B6C002B0DD0786C00F0F6
:101D780095FABB6C322202FB03F37A6813441846C7
:101D8800796C15F0F7F90CE0BB6C322202FB03F317
:101D98007A68134400221A7003E0002387F84F3052
:101DA80006E0BB6C0133BB64FA78BB6C9A42AADCD0
:101DB80097F84F3018465037BD4680BD3CED0108B6
:101DC80040ED010880B588B000AFF860B960FA71DD
:101DD800BB71FA79BB799A4201D9002333E0002319
:101DE800FB610023FB7600237B6127E00023FB6176
:101DF8000023FB7616E07B69322202FB03F3FA68C4
:101E08001A44FB69591CF9619B00B96A0B441B68A9
:101E180010461946FEF7D4F90346002B02D10123D8
:101E2800FB7603E0BA79FB699A42E4DCFB7E002B7F
:101E380001D1002307E07B6901337B61FA797B6973
:101E48009A42D3DC012318462037BD4680BD00BF27
:101E580080B582B000AF786078680F49FEF7B0F9B6
:101E68000346002B01D1032312E078682C2115F0DA
:101E780074F90346002B01D0022309E078682D216C
:101E880015F06BF90346002B01D0012300E0002375
:101E980018460837BD4680BD44ED010880B58CB0B2
:101EA80000AF03463960FB71002387F82F30002309
:101EB800BB60FF23FB7500233B610023BB6200234B
:101EC80087F82730002387F826300023FB73002388
:101ED800BB7300233B6207E0694B3A6A002143F871
:101EE80022103B6A01333B623B6A242BF4D9FB790D
:101EF800032B00F2C18001A252F823F0151F00083D
:101F0800B11F0008451F00084F200008386800214D
:101F18000A2216F071F90346FB7597F91730002B62
:101F2800C0F2AB80FB7D252B00F2A780FB7D184615
:101F380004F00AF90246524B1A609EE03B68002BF7
:101F480031D03B68BB62BB681B782C2B02D1BB68C5
:101F58000133BB6207F10803B86A19460A2216F072
:101F68004BF903463B613B69242B11D83B69002B95
:101F78000EDB3B69DBB2184604F0E6F80146404B3D
:101F88003A6943F8221097F82F30013387F82F3039
:101F9800BB68002B07D097F82F30002B02D03B6985
:101FA800002B00D0CFE768E0002387F82730002314
:101FB80087F8263007F10803386819460A2216F010
:101FC8001BF90346FB73BB680133184600210A223C
:101FD80016F012F90346BB73FB7B002B03D0FB7B87
:101FE80087F8273002E0002387F82730BB7B002BD7
:101FF80003D0BB7B87F8263002E0252387F82630FC
:1020080097F8262097F82730D31ADBB2013387F8E0
:102018002F300023FB6110E0FB69DAB297F8273014
:102028001344DBB2184604F08FF80146144BFA69E2
:1020380043F82210FB690133FB6197F82F20FB69F5
:102048009A42E9DC19E0242387F82F300023BB618A
:102058000CE0BB69DBB2184604F076F80146084B81
:10206800BA6943F82210BB690133BB6197F82F2086
:10207800BB699A42EDDC00E000BF3037BD4680BD49
:102088009051002080B58CB000AF03463960FB71D9
:10209800002387F82F300023BB60FF23FB75002344
:1020A8003B610023BB62002387F82730002387F8B1
:1020B80026300023FB730023BB7300233B6207E039
:1020C800664B3A6A002143F822103B6A01333B62AF
:1020D8003B6A172BF4D9FB79032B00F2BA8001A2D3
:1020E80052F823F0FD2000088B2100082D2100085C
:1020F80029220008386800210A2215F0F7FF034654
:10210800FB7597F91730002BC0F2A480FB7D182BC4
:1021180000F2A080FB7D184602F016FE02464F4BE7
:102128001A6097E03B68002B2AD03B68BB62BB680B
:102138001B782C2B02D1BB680133BB6207F1080363
:10214800B86A19460A2215F0D1FF38613B69172B86
:1021580011D83B69002B0EDB3B69DBB2184602F055
:10216800F3FD01463D4B3A6943F8221097F82F30AA
:10217800013387F82F30BB68002B00D100E0D6E789
:1021880068E0002387F82730002387F8263007F116
:102198000803386819460A2215F0A8FF0346FB739E
:1021A800BB680133184600210A2215F09FFF034639
:1021B800BB73FB7B002B03D0FB7B87F8273002E047
:1021C800002387F82730BB7B002B03D0BB7B87F825
:1021D800263002E0182387F8263097F8262097F84B
:1021E8002730D31ADBB2013387F82F300023FB6185
:1021F80010E0FB69DAB297F827301344DBB21846CF
:1022080002F0A2FD0146154BFA6943F82210FB695A
:102218000133FB6197F82F20FB699A42E9DC19E04A
:10222800182387F82F300023BB610CE0BB69DBB2B1
:10223800184602F089FD0146084BBA6943F8221096
:10224800BB690133BB6197F82F20BB699A42EDDC6B
:1022580000E000BF3037BD4680BD00BF28510020D8
:1022680080B483B000AF0346FB71FB795F2B0BD0C2
:10227800FB79402B02D9FB795A2B05D9FB79602BC6
:1022880004D9FB797A2B01D8012300E000231846F2
:102298000C37BD465DF8047B704700BF80B584B03D
:1022A80000AF78600023FB6023E0FB687A68134482
:1022B8001B78FB72FB7A1846FFF7D2FF0346002B08
:1022C80014D0FB7A402B04D9FB7A5A2B01D801236E
:1022D80000E00023002B09D1FB7A5F2B06D0FB68B6
:1022E8007A681344FA7A203AD2B21A70FB6801333A
:1022F800FB60FB687A6813441B78002BD5D1103734
:10230800BD4680BD80B586B000AFB9607A60024630
:10231800FA73BB730023FB75FA7B084B53F8223022
:102328003B61BA7B3B69B868796898470346FB7597
:10233800FB7D18461837BD4680BD00BF24FC010848
:1023480080B588B002AFF860B9601346FB7100230E
:10235800FB75FB790F4A0092F868B9681A460023A2
:10236800FFF730FD0346002B0DD003F01DFC03469C
:10237800BB75BB7D002B05D0074BBA7D1A700423B3
:10238800FB7502E001E00123FB75FB7D1846183759
:10239800BD4680BD24090020340B002080B588B0DC
:1023A80002AFF860B9601346FB710023FB75FB7937
:1023B800114A0092F868B9681A460023FFF702FD2F
:1023C8000346002B10D008F073FA09F00BFC0B4BF6
:1023D8001B78002B05D0094807F068FE08F068FA5A
:1023E80004E00423FB7501E00123FB75FB7D18461F
:1023F8001837BD4680BD00BF240900207CED0020B1
:1024080080B58CB002AFF860B9601346FB71002349
:1024180087F8273003F0CCFAFB795F4A0092F86816
:10242800B9681A460223FFF7CDFC0346002B00F0DB
:10243800A6805A494FF000024FF00003C1E900237B
:10244800574B00221A60032387F82630FF23FB75B9
:1024580000233B626AE0504B3A6A53F82220FB792A
:10246800F86811461A4601F08FFA0346FB7597F98A
:102478001730002B52DB3B6A002B02D0012B36D0E1
:1024880049E097F91730322202FB03F3BA68134484
:102498001846FFF7DDFC034687F8263097F9173012
:1024A800322202FB03F3BA68134497F82620104639
:1024B8001946FFF7F3FC0023FB6114E0394BFA6976
:1024C80053F82230002B0BD0364BFA6953F82230E0
:1024D8001B78002B04D1324B1B685A1C304B1A60F6
:1024E800FB690133FB61FB69242BE7D916E097F9F7
:1024F8001730322202FB03F3BA681344184600214E
:102508000A2215F0F3FD03461A464FEAE2732349FF
:10251800C1E9002302E0032387F8273097F8273022
:10252800002B00D005E03B6A01333B623B6A012B7C
:1025380091DD97F82730002B20D197F82630032B10
:102548001CD00023BB6116E0164BBA6953F8223041
:10255800002B0DD0134BBA6953F822301B78012B8E
:1025680006D1042387F827300F4B03221A7005E0A1
:10257800BB690133BB61BB69242BE5D902E00123A8
:1025880087F82730094B01221A6097F82730184638
:102598002837BD4680BD00BF480100208851002073
:1025A8002C0B002090510020340B0020600F0020DD
:1025B80080B588B002AFF860B9601346FB7100239C
:1025C800FB7502F031FE0346002B20D1FB79134A3C
:1025D8000092F868B9681A460523FFF7F3FB03462B
:1025E800012B11D1FB79F868B9681A4603F006FC8B
:1025F8000346BB75BB7D002B05D0094BBA7D1A700D
:102608000423FB7505E004E00323FB7501E00523C3
:10261800FB75FB7D18461837BD4680BD500100206C
:10262800340B002080B588B002AFF860B96013465B
:10263800FB710023FB7502F0F7FD0346002B20D148
:10264800FB79134A0092F868B9681A460123FFF724
:10265800B9FB0346002B11D0FB79F868B9681A4614
:1026680003F01AFD0346BB75BB7D002B05D0094B53
:10267800BA7D1A700423FB7505E004E00123FB759D
:1026880001E00523FB75FB7D18461837BD4680BD64
:1026980064010020340B002080B487B000AFF860DC
:1026A800B9601346FB710023FB75FB7D18461C3788
:1026B800BD465DF8047B704780B58AB002AFF8600C
:1026C800B9601346FB710023FB77FB79224A00921D
:1026D800F868B9681A460123FFF774FB0346002B14
:1026E80034D0FF23FB750023BB612CE01A4BBA6979
:1026F80053F82220FB79F86811461A4601F044F98C
:102708000346FB7597F91730002B15DBBB69002BC7
:1027180010D197F91730322202FB03F3BA68134439
:10272800184608F097FA0346BB75BB7D184608F0B3
:1027380075FA01E00323FB77FB7F002B00D005E04F
:10274800BB690133BB61BB69002BCFDDFB7F18463A
:102758002037BD4680BD00BF6801002080B586B027
:1027680000AFF860B9601346FB710023FB7508F0F1
:1027780065FA0346184608F08FFA386107484FF49F
:102788000071074A3B6914F023FC044807F08EFCEB
:10279800FB7D18461837BD4680BD00BF7CED002084
:1027A80048ED010880B588B002AFF860B9601346FB
:1027B800FB710023FB75FB79114A0092F868B96830
:1027C8001A460123FFF7FEFA0346002B11D0FB79C6
:1027D800F868B9681A4601F033F90346BB75BB7D42
:1027E800002B05D0074BBA7D1A700423FB7502E055
:1027F80001E00123FB75FB7D18461837BD4680BDF7
:102808006C010020340B002080B586B000AFF86062
:10281800B9601346FB710023FB7503F0C9F8134B2D
:102828000022DA70114B00221A71104B00229A70A4
:102838000E4B00225A700D4B00221A7004F0ACF8AF
:102848004FF47A704FF0000107F022FD04F0A4FA6B
:10285800064BDB78012B02D104F09EFA00E0F5E785
:10286800FB7D18461837BD4680BD00BF7CBC0020E4
:1028780080B588B002AFF860B9601346FB710023D9
:10288800FB75FB79174A0092F868B9681A46032362
:10289800FFF798FA0346002B1DD007F11002FB79C9
:1028A8001046F968BA6801F041F90346BB75BB7D6B
:1028B800002B05D00C4BBA7D1A700423FB750CE075
:1028C8003B690A484FF40071094A14F081FB074834
:1028D80007F0ECFB01E00123FB75FB7D1846183778
:1028E800BD4680BD70010020340B00207CED002027
:1028F80070ED010880B586B000AFF860B960134686
:10290800FB710023FB750A4B00221A7009F040FF87
:10291800386108484FF40071074A3B6914F058FBC6
:10292800044807F0C3FBFB7D18461837BD4680BD39
:10293800340B00207CED002070ED010880B588B0D4
:1029480002AFF860B9601346FB710023FB75FB7991
:102958000F4A0092F868B9681A460023FFF732FA5E
:102968000346002B0DD002F033F80346BB75BB7D40
:10297800002B05D0074BBA7D1A700423FB7502E0C3
:1029880001E00123FB75FB7D18461837BD4680BD65
:1029980024090020340B002080B58CB002AFF86009
:1029A800B9601346FB71002387F8273001F028FE31
:1029B800FB79564A0092F868B9681A460223FFF76D
:1029C80001FA0346002B00F09B80002387F826308D
:1029D800FF23FB7500233B626AE04C4B3A6A53F8CD
:1029E8002220FB79F86811461A4600F0CDFF03460D
:1029F800FB7597F91730002B52DB3B6A002B02D08E
:102A0800012B36D049E097F91730322202FB03F345
:102A1800BA6813441846FFF71BFA034687F82630AE
:102A280097F91730322202FB03F3BA68134497F878
:102A3800262010461946FFF725FB0023FB6114E00A
:102A4800334BFA6953F82230002B0BD0304BFA691C
:102A580053F822301B78002B04D12E4B1B685A1CCC
:102A68002C4B1A60FB690133FB61FB69172BE7D913
:102A780016E097F91730322202FB03F3BA681344C1
:102A8800184600210A2215F031FB03461A464FEA80
:102A9800E2732149C1E9002302E0032387F82730C4
:102AA80097F82730002B00D005E03B6A01333B62E2
:102AB8003B6A012B91DD97F82730002B20D197F83E
:102AC8002630032B1CD00023BB6116E0104BBA69DB
:102AD80053F82230002B0DD00D4BBA6953F8223031
:102AE8001B78012B06D1042387F827300B4B0A22C9
:102AF8001A7005E0BB690133BB61BB69172BE5D9C7
:102B080097F8273018462837BD4680BD7C0100203D
:102B180028510020300B002028520020340B0020C0
:102B280080B588B002AFF860B9601346FB71002326
:102B3800FB7502F085FB0346002B20D1FB79134A75
:102B48000092F868B9681A460223FFF73BF9034672
:102B5800012B11D1FB79F868B9681A4601F0B4FF66
:102B68000346BB75BB7D002B05D0094BBA7D1A7097
:102B78000423FB7505E004E00123FB7501E006234F
:102B8800FB75FB7D18461837BD4680BD84010020C3
:102B9800340B002080B588B002AFF860B9601346E6
:102BA800FB710023FB7502F04BFB0346002B20D181
:102BB800FB79134A0092F868B9681A460123FFF7AF
:102BC80001F90346002B11D0FB79F868B9681A4659
:102BD80002F056F80346BB75BB7D002B05D0094BA8
:102BE800BA7D1A700423FB7505E004E00123FB7528
:102BF80001E00623FB75FB7D18461837BD4680BDEE
:102C08008C010020340B002080B485B000AFF86040
:102C1800B9601346FB71002318461437BD465DF8AA
:102C2800047B704780B588B002AFF860B96013467E
:102C3800FB710023FB75FB790D4A0092F868B968AF
:102C48001A460123FFF7BEF80346002B08D0FB798C
:102C5800F868B9681A4601F0C3F80346FB7501E045
:102C68000123FB75FB7D18461837BD4680BD00BFA4
:102C78009001002080B584B000AFF860B9601346B9
:102C8800FB7101F09FF9034618461037BD4680BD19
:102C980080B584B000AFF860B9601346FB7101F0ED
:102CA80071FA034618461037BD4680BD80B485B01A
:102CB80000AFF860B9601346FB710023184614375B
:102CC800BD465DF8047B704780B487B000AFF860FC
:102CD800B9601346FB710023FB75FB7D18461C3752
:102CE800BD465DF8047B704780B588B002AFF860D8
:102CF800B9601346FB710023FB75FB790A4A009201
:102D0800F868B9681A460023FFF75CF80346002BF9
:102D180002D006F0F7FC01E00123FB75FB7D1846A5
:102D28001837BD4680BD00BF2409002080B588B093
:102D380002AFF860B9601346FB710023FB75FB799D
:102D48000B4A0092F868B9681A460023FFF73AF868
:102D58000346002B04D006F0D5FCFEF717FE01E071
:102D68000123FB75FB7D18461837BD4680BD00BFA3
:102D78002409002080B588B002AFF860B960134616
:102D8800FB710023FB75FB790D4A0092F868B9685E
:102D98001A460023FFF716F80346002B08D0072031
:102DA800012106F04DF906F0ADFCFEF7EFFD01E05C
:102DB8000123FB75FB7D18461837BD4680BD00BF53
:102DC80024090020F0B593B006AFF860B960134647
:102DD800FB71002387F82F30FB79564A0092F86878
:102DE800B9681A460023FEF7EDFF0346002B00F0F2
:102DF800988007F07DFCB862BB6A002B01D14E4B6E
:102E0800BB6207F069FC034687F8273007F07AFCB5
:102E1800386207F0A1FCF86107F0A8FCB86100234C
:102E28007B61464A464B144607CB20606160A2602E
:102E38001A889B78A281A3730E237B617A693F4B22
:102E48001344184633213F4ABB6A14F0C1F80346BD
:102E58007A6913447B61394814F0A4F978617A6976
:102E6800364B1A4497F82730B969CDB2B969090ABF
:102E7800CCB2B969090CC8B2B969090E00950194B8
:102E88000290039110464FF400712F4A14F0A0F8F5
:102E980003467A6913447B617A69284B1A443B6A72
:102EA800DBB2396A090ACCB2396A090CC8B2396A84
:102EB800090E00940190029110464FF40071234AC4
:102EC80014F086F803467A6913447B617A691B4BD0
:102ED8001A44FB691B78F969013109780E46F969CA
:102EE800023109780D46F969033109780C46F96908
:102EF800043109780846F969053109780096019581
:102F080002940390049110464FF40071104A14F093
:102F18005FF803467A6913447B61084807F066F84E
:102F280002E0012387F82F3097F82F3018463437FE
:102F3800BD46F0BD2409002090ED01087CED00207D
:102F480098ED0108A8ED0108C0ED0108FCED0108A5
:102F58001CEE010880B58CB002AFF860B96013466A
:102F6800FB71002387F8273002F022FD01F048FBAF
:102F7800FB794D4A0092F868B9681A460123FEF7B2
:102F880021FF0346002B00F08380FF23FB750023FD
:102F98003B6237E0444B3A6A53F82220FB79F868E1
:102FA80011461A4600F0F0FC0346FB7597F91730F6
:102FB800002B1FDB3B6A002B19D197F917303222FF
:102FC80002FB03F3BA681344184600210A2215F0DD
:102FD8008DF803461A464FEAE2733449C1E90023E3
:102FE800324BD3E900233249C1E9002302E003232D
:102FF80087F8273097F82730002B00D005E03B6A88
:1030080001333B623B6A002BC4DD97F82730002B65
:103018003DD103200021FEF741FF0023FB6114E0AE
:10302800244BFA6953F82230002B0BD0214BFA6954
:1030380053F822301B78002B04D11F4B1B685A1CF5
:103048001D4B1A60FB690133FB61FB69242BE7D92F
:1030580003200021FFF716F80023BB6114E0174B8B
:10306800BA6953F82230002B0BD0144BBA6953F8C5
:1030780022301B78002B04D1114B1B685A1C104BB3
:103088001A60BB690133BB61BB69172BE7D902E042
:10309800012387F827300B4B01221A6097F8273055
:1030A80018462837BD4680BD94010020885100206D
:1030B80028520020905100202C0B0020285100207D
:1030C800300B0020600F002080B588B002AFF86098
:1030D800B9601346FB710023FB75FB790B4A00921C
:1030E800F868B9681A460023FEF76CFE0346002B01
:1030F80004D002F05DFC01F083FA01E00123FB75C6
:10310800FB7D18461837BD4680BD00BF2409002046
:1031180080B487B000AFF860B9601346FB71002334
:10312800FB75FB7D18461C37BD465DF8047B704770
:103138002DE9B0438EB002AFF860B9601346FB7159
:10314800002387F82F30FB79374A0092F868B9686E
:103158001A460123FEF736FE0346002B5AD0FF23FA
:1031680087F827300023BB6250E02F4BBA6A53F828
:103178002220FB79F86811461A4600F005FC034640
:1031880087F8273097F92730002B37DBBB6A002BED
:1031980031D1BB6A322202FB03F3BA6813441846E2
:1031A8000021102215F036F8C7E90601BB69FB8239
:1031B800D7E90623140C44EA03441D0C2346BB82BA
:1031C800D7E9062398464FF0000943467B82FB8ADD
:1031D8000420194605F034FFBB8A0520194605F07E
:1031E8002FFF7B8A0620194605F02AFF07200121B8
:1031F80005F026FF02E0032387F82F3097F82F30D9
:10320800002B00D005E0BB6A0133BB62BB6A002B10
:10321800ABDD02E0012387F82F3097F82F301846EE
:103228003037BD46BDE8B0839801002080B588B02E
:1032380002AFF860B9601346FB710023FB75FB7998
:103248000B4A0092F868B9681A460123FEF7BAFDDE
:103258000346002B04D00720002105F0F1FE01E011
:103268000123FB75FB7D18461837BD4680BD00BF9E
:103278002409002080B487B000AFF860B960134615
:10328800FB710023FB75FB7D18461C37BD465DF8B6
:10329800047B704780B586B000AFF860B96013460C
:1032A800FB710023FB7500F01BFC0346BB75BB7D5F
:1032B800012B01D1094B00E0094B0A484FF400717A
:1032C800094A13F085FE03467B75064806F08EFE14
:1032D800FB7D18461837BD4680BD00BF4CEE01087F
:1032E80054EE01087CED00205CEE010880B586B044
:1032F80000AFF860B9601346FB710023FB7507F057
:1033080015FF0346092B14BF00230123DBB2BB754D
:10331800BB7D012B04D00423FB75044B17221A70C4
:10332800FB7D18461837BD4680BD00BF340B002012
:1033380080B588B002AFF860B9601346FB7100230E
:10334800FB75FB79114A0092F868B9681A4606239A
:10335800FEF738FD0346012B11D1FB79F868B968EF
:103368001A4600F049FC0346BB75BB7D002B05D00F
:10337800074BBA7D1A700423FB7502E001E00323B2
:10338800FB75FB7D18461837BD4680BD9C010020A3
:10339800340B002080B58CB002AFF860B9601346DA
:1033A800FB71002387F82730FB79404A0092F868C0
:1033B800B9681A460223FEF705FD0346002B6ED0B6
:1033C800FF23FB750023BB614CE0384BBA6953F807
:1033D8002220FB79F86811461A4600F0D5FA034610
:1033E800FB7597F91730002B34DBBB69002B02D033
:1033F800012B1DD02BE013F087FD034600221A6035
:1034080097F91730322202FB03F3BA6813441846BF
:10341800002114F065FD87ED080A13F075FD0346D9
:103428001B68002B03D0032387F8273012E011E034
:1034380097F91730322202FB03F3BA68134418468F
:1034480000210A2214F052FE0346FB7702E0032310
:1034580087F8273097F82730002B00D005E0BB69A4
:103468000133BB61BB69012BAFDD97F82730002B17
:1034780015D1FB7F97ED080A184607F0A7FE03460B
:10348800092B14BF00230123DBB2BB75BB7D012BC5
:1034980005D0042387F82730054B18221A7097F8AF
:1034A800273018462837BD4680BD00BFB40100202C
:1034B800340B002080B586B000AFF860B9601346C1
:1034C800FB710023FB7507F0BDFE0346092B14BFF3
:1034D80000230123DBB2BB75BB7D012B04D0042381
:1034E800FB75044B18221A70FB7D18461837BD4629
:1034F80080BD00BF340B002080B586B000AFF860F7
:10350800B9601346FB710023FB7507F03FFEFB7D96
:1035180018461837BD4680BD2DE9B0438CB002AFC0
:10352800F860B9601346FB71002387F82730FB79F0
:10353800664A0092F868B9681A460123FEF742FC09
:103548000346002B00F0B780FF23BB760023FB6106
:103558003CE05E4BFA6953F82220FB79F868114683
:103568001A4600F011FA0346BB7697F91A30002B79
:1035780024DBFB69002B1ED1FB69322202FB03F31B
:10358800BA68134418460021102214F043FEC7E914
:1035980004013B69BB84D7E90423140C44EA0344BF
:1035A8001D0C23467B84D7E9042398464FF0000975
:1035B80043463B8402E0032387F8273097F82730F7
:1035C800002B00D005E0FB690133FB61FB69002B90
:1035D800BFDD97F82730002B6CD112F065F9F32086
:1035E80012F0EEFA12F038FB0346FB76FB7E092B4D
:1035F80006D0374B18221A70042387F8273056E074
:103608003B8C1B0A9BB2DBB23248194612F03AFADD
:103618000346FB76FB7E092B07D13B8CDBB22E4899
:10362800194612F02FFA0346FB76FB7E092B09D1C7
:103638007B8C1B0A9BB2DBB22848194612F022FA8F
:103648000346FB76FB7E092B07D17B8CDBB2244833
:10365800194612F017FA0346FB76FB7E092B09D1AF
:10366800BB8C1B0A9BB2DBB21E48194612F00AFA41
:103678000346FB76FB7E092B07D1BB8CDBB21A48CD
:10368800194612F0FFF90346FB76FB7E092B05D19C
:103698001648002112F0F6F90346FB76FB7E092B4B
:1036A80005D00B4B18221A70042387F8273012F024
:1036B80011F903E002E0012387F8273097F8273053
:1036C80018462837BD46BDE8B08300BFBC010020BE
:1036D800340B00200078FF1F0178FF1F0278FF1FBE
:1036E8000378FF1F0478FF1F0578FF1F007AFF1F6C
:1036F80080B58CB002AFF860B9601346FB71002347
:1037080087F827300123FB77FB794E4A0092F86847
:10371800B9681A460123FEF755FB0346002B00F053
:103728008880FF237B750023BB613AE0454BBA696B
:1037380053F82220FB79F86811461A4600F024F95C
:1037480003467B7597F91530002B22DBBB69002BEC
:103758001CD1BB69322202FB03F3BA6813443B62F3
:103768003948396A13F01CFC02E0FB7F0133FB7710
:10377800FB7F3A6A13441B78002BF6D1FB7F1F2B83
:1037880003D8032387F8273003E002E0032387F8F0
:10379800273097F82730002B00D005E0BB690133AC
:1037A800BB61BB69002BC1DD97F82730002B3FD1E7
:1037B80012F07AF8F32012F003FA12F04DFA0346E9
:1037C800FB75FB7D092B06D0204B18221A700423A9
:1037D80087F8273029E00023BB7510E0BA7D1C4B21
:1037E80013441A46BB7D396A0B441B7810461946A8
:1037F80012F048F90346FB75BB7D0133BB75FB7DB1
:10380800092B03D1BA7DFB7F9A42E7D311480021E7
:1038180012F038F90346FB75FB7D092B05D00B4BDD
:1038280018221A70042387F8273012F053F803E09F
:1038380002E0012387F8273097F827301846283701
:10384800BD4680BDC001002074EE0108340B002085
:103858002078FF1F017AFF1F80B485B000AFF860A1
:10386800B9601346FB71002318461437BD465DF84E
:10387800047B704780B500AF00F002F880BD00BF40
:1038880080B483B000AF00237B6007E00A4A7B68FE
:10389800134400221A707B6801337B607B68B3F5A0
:1038A800007FF3D3044B0022A3F800220C37BD4657
:1038B8005DF8047B704700BF2809002080B582B0FE
:1038C80000AF0346FB71FB79002B58D02D4BB3F8A2
:1038D8000032B3F5007F52D2FB790A2B02D0FB7974
:1038E8000D2B04D1FEF7AEF8FFF7CAFF47E0FB79CE
:1038F800082B02D0FB797F2B14D1224BB3F800326E
:10390800002B0ED01F4BB3F80032013B9AB21D4B6F
:10391800A3F800221B4BB3F800321A4A0021D154F5
:103928002DE02CE0FB79202B1BD1164BB3F800328D
:10393800002B24D0134BB3F80032013B114AD35C5F
:10394800202B1CD00F4BB3F800320E4AF979D15412
:103958000C4BB3F8003201339AB20A4BA3F8002299
:103968000DE0084BB3F80032064AF979D154054BFB
:10397800B3F8003201339AB2024BA3F80022083799
:10398800BD4680BD2809002080B586B000AFF8602C
:10399800B9601346FB71FF23FB7500233B6112E0FE
:1039A8003B69322202FB03F3FA6813441846B968EC
:1039B800FCF706FC0346002B02D13B69FB7506E0C9
:1039C8003B6901333B61FA793B699A42E8D8FB7D50
:1039D8005BB218461837BD4680BD00BF80B588B0B9
:1039E80000AFF860B9601346FB710023FB77FF2333
:1039F800BB7700237B7772233B770023FB7600237A
:103A08007B6100BFFB7E184608F080FD3B7F1846AF
:103A180008F038FE7B7F184608F0CCFDFB7F18467F
:103A28002037BD4680BD00BF80B582B000AF0023FF
:103A3800FB7103F0A7FDFB7918460837BD4680BD2A
:103A480080B588B000AFF860B9601346FB710023F9
:103A5800FB77FB79F868B9681A46FFF7BFFF03469A
:103A6800FB770023BB77FF23FB750023BB6128E0AE
:103A78001A4BBA6953F82220FB79F86811461A469E
:103A8800FFF782FF0346FB7597F91730002B13DB0E
:103A9800BB69002B0DD197F91730322202FB03F3D3
:103AA800BA681344184608F0B9F90346BB7700BF53
:103AB80004E01923FB7701E01A23FB77BB69013384
:103AC800BB61BB69002BD3D0BB7F184603F080FDD8
:103AD800FB7F18462037BD4680BD00BF6C01002023
:103AE80080B584B000AF0123FB7301F007FC87EDBC
:103AF800020A01F031FC87ED010A97ED027ADFED49
:103B08000A7AB4EEE77AF1EE10FA06DCD7ED017A1C
:103B1800F5EEC07AF1EE10FA01D50023FB73FB7BBA
:103B280018461037BD4680BD0000484280B588B0B1
:103B380000AFF860B9607A60FB700023FB77FF2361
:103B4800FB750023BB613EE02A4BBA6953F822207B
:103B5800FB78B86811461A46FFF716FF0346FB754F
:103B680097F91730002B25DB97F91730322202FB23
:103B780003F37A6813443B61BB69012B0AD0012B1C
:103B880002D3022B0CD011E0386908F047F903463C
:103B9800BB770EE0386908F05FF903467B7708E0E9
:103BA800386908F0CBF903463B7702E01923FB7725
:103BB80002E001E01A23FB77FB7F002B00D005E031
:103BC800BB690133BB61BB69022BBDD9FB7F002BED
:103BD8000AD1797F3A7FBB7F084611461A4607F01B
:103BE80083F80246FB681A60FB7F18462037BD46FB
:103BF80080BD00BF700100202DE9F04190B004AFF6
:103C0800F860B9601346FB71002387F82F30FF2353
:103C1800FB760023FB6183E0634BFA6953F82220AB
:103C2800FB79F86811461A46FFF7AEFE0346FB76A5
:103C380097F91B30002B68DB97F91B30322202FB07
:103C480003F3BA6813447B61FB69052B58D801A2BA
:103C580052F823F0753C00089B3C0008A93C00087A
:103C6800B73C0008C53C0008D33C000800233B6172
:103C780007F110037869194614F032F987ED0A0A3A
:103C88003A697B699A4202D1192387F82F3000BF1D
:103C98003AE0786908F052F9034687F8253033E0AE
:103CA800786908F0D9F8034687F826302CE0786957
:103CB80008F0B4F8034687F8273025E0786906F05D
:103CC800C9FF034687F824301EE0384B00221A60EB
:103CD80097F91B30322202FB03F3BA6813441846E3
:103CE8000021002214F002FA034687F823302F4BF4
:103CF8001B68002B03D0192387F82F3004E003E05A
:103D0800192387F82F3003E002E01A2387F82F30B1
:103D180097F82F30002B00D006E0FB690133FB61D8
:103D2800FB69052B7FF678AF97F82F30002B34D13D
:103D3800B86AFCF7B3FB04460D4697F826301846D8
:103D480007F0AAFF804697F82530184608F010F8C3
:103D5800064697F82730184608F044F80346CDF889
:103D6800008001960293124822462B4613F018F958
:103D780097F8260097F8251097F8272097F8243009
:103D880097F82340009497ED0A0A07F08BFA034648
:103D9800092B02D0182387F82F3097F82F301846B0
:103DA8003037BD46BDE8F0819C010020F4180120A1
:103DB80094EE010880B582B000AF00233B71002368
:103DC8007B713B464FF48070194607F07DFC3B1D24
:103DD8004FF48070194607F02DFC0837BD4680BDAA
:103DE80090B58BB000AFF860B9601346FB71002343
:103DF80087F82330FF2387F822300023BB846C4BDD
:103E08001A68FB79F86811461A46FFF7BDFD0346A4
:103E180087F8223097F92230322202FB03F3BA687E
:103E28001344FB61F86913F0BDF90346042B01D074
:103E38000123B8E0002387F8273034E097F92730CA
:103E4800FA6913441B782F2B06D997F92730FA699A
:103E580013441B78662B01D90123A4E097F9273076
:103E6800FA6913441B78392B08D997F92730FA696E
:103E780013441B78402B01D8012394E097F927308D
:103E8800FA6913441B78462B08D997F92730FA6941
:103E980013441B78602B01D8012384E097F827305E
:103EA800013387F8273097F92740F86913F07AF932
:103EB80003469C42C2D307F11603F8693D491A46E6
:103EC80013F0DCF8002387F827301AE0FB8A1A463B
:103ED80097F9273042FA03F303F00103002B0BD0C4
:103EE80097F92730344AD35C012202FA03F39AB2D5
:103EF800BB8C13439BB2BB8497F82730013387F8F8
:103F0800273097F927300F2BE0DDBB8C1B0A9BB2BB
:103F1800FB762A484FF4004111F03CFC4FF00200B8
:103F28004FF0000106F0B4F9BB8CDBB2BB844FF450
:103F380047433B833A8BBB8C13433B833B8B2048E3
:103F4800194610F02DFF00BF1D48802110F036FFE4
:103F58000346012BF8D04FF447433B83FB7E9AB2CC
:103F68003B8B13433B833B8B1548194610F018FFD6
:103F780000BF1348802110F021FF0346012BF8D021
:103F88004FF002004FF0000106F082F90B484FF4A1
:103F9800004111F0F1FB4FF002004FF0000106F074
:103FA80077F997F8233018462C37BD4690BD00BFE7
:103FB80090010020E0EE0108C4010020000002404A
:103FC8000030014080B584B000AF00233B8100235E
:103FD800FB8166484FF4004111F0DCFB4FF0020012
:103FE8004FF0000106F054F94FF48E43FB80FB8834
:103FF8005F48194610F0D4FE00BF5D48802110F0DC
:10400800DDFE0346012BF8D0FB885948194610F00D
:10401800C7FE00BF5648802110F0D0FE0346012B92
:10402800F8D04FF002004FF0000106F031F94F4888
:104038004FF4004111F0A0FB4FF00A004FF00001CF
:1040480006F026F94A4810F09DFE03463B81474892
:104058004FF4004111F09EFB4FF002004FF00001B9
:1040680006F016F9FB884248194610F099FE00BF81
:104078003F48802110F0A2FE0346012BF8D04FF0F4
:1040880002004FF0000106F003F9394810F07AFEFB
:1040980003463B813B89DBB23B814FF002004FF086
:1040A800000106F0F5F8FB883148194610F078FE53
:1040B80000BF2F48802110F081FE0346012BF8D065
:1040C8004FF002004FF0000106F0E2F8284810F027
:1040D80059FE03461B029AB23B8913439BB23B81AC
:1040E80022484FF4004111F047FB4FF002004FF017
:1040F800000106F0CDF80023BB8123E03A89BB8993
:1041080042FA03F303F00103002B18D000237B814C
:1041180012E07B89174AD35CBA899A4209D17B8914
:10412800012202FA03F39AB2FB8913439BB2FB8183
:1041380005E07B8901337B817B890F2BE9D9BB891A
:104148000133BB81BB890F2BD8D9FB890A480B499E
:104158001A461E2312F06EFF094B1B680648984743
:10416800002318461037BD4680BD00BF000002403E
:1041780000300140C40100207CED0020E4EE01087D
:10418800380B002080B586B000AF0023BB60002349
:104198007B6161484FF4004111F0FCFA4FF00200D6
:1041A8004FF0000106F074F80023FB80FB885B48A1
:1041B800194610F0F5FD00BF5848802110F0FEFDAB
:1041C8000346012BF8D0FB885448194610F0E8FD47
:1041D80000BF5248802110F0F1FD0346012BF8D0B2
:1041E8004FF002004FF0000106F052F84A484FF431
:1041F800004111F0C1FA4FF00A004FF0000106F03B
:1042080047F8464810F0BEFD0346BB6042484FF4ED
:10421800004111F0BFFA4FF002004FF0000106F024
:1042280037F8FB883D48194610F0BAFD00BF3B48F7
:10423800802110F0C3FD0346012BF8D04FF0020097
:104248004FF0000106F024F8344810F09BFD0346B7
:10425800BB604FF002004FF0000106F019F8FB8830
:104268002E48194610F09CFD00BF2C48802110F004
:10427800A5FD0346012BF8D04FF002004FF00001D6
:1042880006F006F8254810F07DFD03461B04BA68C1
:104298001343BB6020484FF4004111F06DFA4FF012
:1042A80002004FF0000105F0F3FF00233B6122E01C
:1042B8000023FB6019E01A4AFB6813441B781A466E
:1042C8003B699A420ED13B695B00BA6822FA03F354
:1042D80003F00302FB685B0002FA03F37A691343F5
:1042E8007B6105E0FB680133FB60FB680F2BE2D9BB
:1042F8003B6901333B613B690F2BD9D909480A490E
:104308007A6912F097FE094B1B6806489847002304
:1043180018461837BD4680BD0000024000300140F5
:10432800C40100207CED002038EF0108380B002084
:1043380080B483B000AF7860034B7A681A600C379A
:10434800BD465DF8047B7047380B002080B483B00D
:1043580000AF7860284B1B680233284A82FB0302AF
:104368005111DA178A1A642101FB02F29A1A244BB6
:104378001968224B83FB01035811CB17C31A642019
:1043880000FB03F3CB1A9A4201D101232EE01A4B0A
:104398001A681A4B83FB02135911D317CB1A6421DD
:1043A80001FB03F3D31A144A1360134B1B687A6892
:1043B800126814491B010B441A600F4B1B687A687A
:1043C800127910491B010B441A710B4B19687B6851
:1043D800D3E902230B48090101440831C1E900234C
:1043E800054B1B685A1C044B1A60002318460C37EF
:1043F800BD465DF8047B7047785800201F85EB5157
:10440800305200203852002080B483B000AF78606A
:10441800284B1B68284A82FB03025111DA178A1AB3
:10442800642101FB02F29A1A244B1968224B83FB80
:1044380001035811CB17C31A642000FB03F3CB1AEE
:104448009A4201D101232EE01A4B1A681A4B83FBBA
:1044580002135911D317CB1A642101FB03F3D31AA2
:10446800144A1360134B1B68154A1B0113441A683E
:104478007B681A600F4B1B68114A1B0113441A7999
:104488007B681A710B4B1B680D4A1B0113440833D8
:10449800D3E900237968C1E90223064B1B685A1C3B
:1044A800044B1A60002318460C37BD465DF8047BA0
:1044B800704700BF305200201F85EB51785800200C
:1044C8003852002090B589B004AF3B461846FFF734
:1044D8009BFF0346002B23D13B79002B0ED13C6870
:1044E800D7E90223CDE900231E2302930E484FF497
:1044F80000710E4A234612F06BFD0DE03C68D7E9C7
:104508000223CDE900231E23029307484FF40071CC
:10451800074A234612F05CFD034805F047FAD4E742
:1045280000BF1437BD4690BD7CED002084EF010824
:1045380098EF0108B0B586B000AF00237B6151E069
:104548002B4B7A6953F82230002B48D0284B7A69D4
:1045580053F822301B78002B41D1264BD3E9002396
:1045680052EA030121D0244BD3E90023013243F15D
:1045780000032149C1E90023204B1B6818464FEA74
:10458800E0711C4BD3E9002302FB01F500FB03F4A7
:104598002C44A0FB0223E1180B461749D1E900017E
:1045A8008B4208BF824200D21FE0114B7A6953F850
:1045B80022305B783B600E4B7A6953F822305B7887
:1045C800184600F04DF803463B7105F023FE0246FD
:1045D8000B46C7E902233B461846FFF7B7FE7B693F
:1045E80001337B617B69172BAAD91837BD46B0BD4B
:1045F8002851002028520020000F0020300B0020F6
:1046080080B483B000AF124B00221A6011494FF0FA
:1046180000024FF00003C1E900230F494FF00002E8
:104628004FF00003C1E9002300237B6007E00B4B38
:104638007A68002143F822107B6801337B607B682D
:10464800172BF4D90C37BD465DF8047B704700BFC3
:10465800300B002028520020000F00202851002095
:1046680080B584B000AF0346FB710023FB73FB7970
:10467800172B00F2E78001A252F823F0E546000864
:10468800F3460008014700081147000821470008C1
:104698002F4700083D4700084D4700085D470008C0
:1046A8006D4700087D4700088B4700089B470008B6
:1046B800A9470008B7470008C5470008D3470008BE
:1046C800E3470008F1470008FF4700080F480008C3
:1046D8001D4800082D4800083D4800085F48202173
:1046E80011F022F80346FB73ADE05C48102111F08D
:1046F8001BF80346FB73A6E059484FF4807111F08C
:1047080013F80346FB739EE055484FF4006111F01F
:104718000BF80346FB7396E05248082111F004F8A1
:104728000346FB738FE04F48102110F0FDFF03464E
:10473800FB7388E04C484FF4006110F0F5FF034626
:10474800FB7380E048484FF4004110F0EDFF03464A
:10475800FB7378E041484FF4807110F0E5FF0346A1
:10476800FB7370E03D484FF4805110F0DDFF0346C5
:10477800FB7368E03B48402110F0D6FF0346FB730B
:1047880061E038484FF4006110F0CEFF0346FB7338
:1047980059E03248082110F0C7FF0346FB7352E086
:1047A8002E48042110F0C0FF0346FB734BE02B4852
:1047B800402110F0B9FF0346FB7344E0294820214B
:1047C80010F0B2FF0346FB733DE027484FF4007139
:1047D80010F0AAFF0346FB7335E02248042110F0CD
:1047E800A3FF0346FB732EE02048022110F09CFF34
:1047F8000346FB7327E01C484FF4005110F094FF68
:104808000346FB731FE01A48022110F08DFF034690
:10481800FB7318E011484FF4806110F085FF0346E0
:10482800FB7310E00F484FF4807110F07DFF0346D2
:10483800FB7308E00B484FF4806110F075FF0346E6
:10484800FB7300E000BFFB7B002B01D0002300E0DE
:10485800012318461037BD4680BD00BF0010024036
:1048680000200240001C02400014024000040240E4
:104878000018024080B483B000AF0346FB71FB7997
:10488800172B01D8012300E0002318460C37BD463A
:104898005DF8047B704700BF80B483B000AF7860D8
:1048A8007B6801221A707B6801229A7679684FF03A
:1048B80000024FF00003C1E908237B680233064A6F
:1048C8001068186012791A717B68FF225A700C37C9
:1048D800BD465DF8047B7047ACEF010880B582B037
:1048E80000AF0346FB71FB791846FFF7C3FF034689
:1048F800002B09D0FA7913469B001344DB00044AC5
:1049080013441846FFF7C8FF0837BD4680BD00BFEF
:10491800400B002080B584B000AF4FF4F97001213E
:1049280010F0A4FD00233B720023FB7202237B607E
:104938003B1D2048194610F069FE41F27C537B600C
:104948003B1D1D48194610F061FE4FF42A437B6059
:104958003B1D1A48194610F059FE02237B603B1D87
:104968001748194610F052FE40F67C537B603B1DF9
:104978001448194610F04AFE4FF410637B603B1D43
:104988001148194610F042FE0023FB600CE0FA685B
:1049980013469B001344DB000C4A13441846FFF7E8
:1049A8007BFFFB680133FB60FB68172BEFD91037DF
:1049B800BD4680BD000402400010024000140240C1
:1049C80000180240001C024000200240400B00205A
:1049D8002DE9F04190B002AF002387F83730354B0E
:1049E800354A14461D4604F130082E46A446BCE854
:1049F8000F0030607160B260F360103410354445C8
:104A0800F3D12B46224612781A70302387F82F30BC
:104A180097F82F30002B03D10E2387F8373041E069
:104A2800264B1B68002B03D0244B1B682148984752
:104A380000233B6333E022493A6B13469B0013443F
:104A4800DB000B443C461D460FCD0FC40FCD0FC4F1
:104A580095E8030084E803003B78002B1CD17B78A1
:104A68003A460232009213484FF40071154A12F088
:104A7800AFFA034687F82F3097F82F30002B03D171
:104A88000E2387F837300DE00C4B1B68002B03D042
:104A98000A4B1B68074898473B6B01333B633B6BEA
:104AA800172BC8D997F8373018463837BD46BDE8B0
:104AB800F08100BF7CED0020B4EF01083C0B002022
:104AC800400B0020E8EF010880B590B000AFF86017
:104AD800B9607A60002387F83F300023BB62FF2368
:104AE80087F83730FF2387F83E30FF2387F83630C2
:104AF80007F11003534A92E8030018600433197051
:104B08000023BB635AE0504BBA6B53F822207B68F2
:104B1800DBB2F86811461A46FEF736FF034687F8F7
:104B2800373097F93730002B39DB97F93730322295
:104B380002FB03F3BA6813443B63BB6B002B02D040
:104B4800012B20D026E007F12803386B19460A22EA
:104B580013F0CCFA034687F83630BA6A3B6B9A42B0
:104B680003D10B2387F83F300CE097F83630182B29
:104B780004D897F8363087F83E3003E0082387F8E2
:104B88003F300BE00AE007F110031846396B12F0CA
:104B9800F1FA03E00B2387F83F3007E006E0BB6B30
:104BA800012B00D107E0092387F83F3097F83F3001
:104BB800002B00D005E0BB6B0133BB63BB6B012B43
:104BC800A1DD97F83F30002B36D197F83E30FF2B08
:104BD8002FD097F83E30184600F0B6F8F862FB6A16
:104BE800002B24D0FB6A1B78012B1CD1FB6A97F899
:104BF8003E205A70FB6A9A1C07F1100310461946AA
:104C080012F0B8FAFB6A01229A76F96A4FF00002AC
:104C18004FF00003C1E90823F86A00F017F80346CB
:104C280087F83F3008E00D2387F83F3004E00A2377
:104C380004E00C2387F83F3097F83F301846403798
:104C4800BD4680BDACEF01088401002080B485B06A
:104C580000AF78600023FB737B685B78BB73BB7B1A
:104C6800172B03D87B6800221A7001E00823FB7316
:104C7800FB7B18461437BD465DF8047B704700BFC0
:104C880080B58AB000AFF860B9607A60002387F811
:104C98002730FF23FB7700233B6249E0294B3A6A20
:104CA80053F822207B68DBB2F86811461A46FEF7F3
:104CB8006BFE0346FB7797F91F30002B32DB97F921
:104CC8001F30322202FB03F3BA681344BB613B6A0C
:104CD800002B23D100233B6107F11003B869194663
:104CE8000A2213F003FA0346FB753A69BB699A4234
:104CF80003D10B2387F827300EE0FB7D1846FFF71A
:104D0800B9FD0346002B04D0FB7D1846FFF7E6FDEE
:104D180002E0082387F8273000BF06E00B2387F856
:104D2800273002E0092387F827303B6A01333B62CA
:104D38003B6A002BB2D097F8273018462837BD4673
:104D480080BD00BF8C01002080B582B000AF034653
:104D5800FB71FB791846FFF78DFD0346002B07D042
:104D6800FA7913469B001344DB00044A134400E01D
:104D7800002318460837BD4680BD00BF400B002001
:104D880080B582B000AF786005F044FA02460B4661
:104D98007968C1E908237B685B781846FFF760FCEF
:104DA80003461A467B689A760837BD4680BD00BF21
:104DB80080B483B000AF7860034B7A681A600C3710
:104DC800BD465DF8047B70473C0B00202DE9F0419F
:104DD80088B004AF78607B6803F102087B685B7871
:104DE8001E467B68D3E908457B689B7E184605F01C
:104DF8003DFD0346CDE9004502930A480A4942466B
:104E0800334612F017F90346FB73084B1B68002B57
:104E180003D0064B1B68034898471037BD46BDE8CA
:104E2800F08100BF7CED00200CF001083C0B002055
:104E380080B400AF034B00221A70BD465DF8047BB6
:104E4800704700BF080F002080B500AF0B4B1B78E0
:104E5800002B00D010E006F0B1FB094B00221A60CD
:104E6800084B00221A60084B00221A60074B0022E8
:104E78001A70024B01221A7080BD00BF080F002073
:104E88000C0F0020100F0020140F0020180F002016
:104E980080B400AF034B00221A70BD465DF8047B56
:104EA800704700BF190F002080B400AF0B4B1B7870
:104EB800002B00D00EE00A4B00221A60094B00229A
:104EC8001A60094B00221A60084B00221A70034B23
:104ED80001221A70BD465DF8047B7047190F002047
:104EE8001C0F0020200F0020240F0020280F002076
:104EF80080B582B000AF444B1B78042B7FD801A249
:104F080052F823F0214F0008274F000807500008E7
:104F18002D4F0008E94F0008FFF7C6FF70E000F0CA
:104F280081F86DE0394B1A68394B1B789B001344A4
:104F38001B683B60374B1A68374B1B689A4203D390
:104F4800354B1B68002B42D1344B1B78012B11D1F8
:104F58002E4B1B681B681846FFF712FF2B4B1B686C
:104F68001B681846FFF732FF2A4B1B685A1C294B4F
:104F78001A6034E000237B6020E0244B1A687B68C9
:104F88009B0013441B683B603B68002B0CBF00234D
:104F98000123DAB23B681B78002B14BF00230123DE
:104FA800DBB21340DBB2002B05D03868FFF7E8FE10
:104FB8003868FFF70BFF7B6801337B607B68172B32
:104FC800DBD9144B1B685A1C124B1A6007E01448B3
:104FD80005F00CF800F026F800F01AF910E00FE0E0
:104FE8000C4B00221A600C4B00221A60074B00225F
:104FF8001A600A4B00221A7000F014F800E000BF93
:105008000837BD4680BD00BF190F0020240F0020BF
:10501800290F0020200F00201C0F0020280F00203F
:105028008CF0010880B400AF074B1B78012B04D02B
:10503800054B1B78032B00D002E0034B02221A70A9
:10504800BD465DF8047B7047190F002080B500AF9E
:10505800074B00221A7002F059FA02F063FAFFF7C0
:1050680017FFFFF721FFFFF7E3FEFFF7EDFE80BD17
:105078002A0F00200000000080B500AF564B1B78B7
:10508800052B00F2A18001A252F823F0AD500008D0
:10509800BD500008C7500008DD50000847510008FF
:1050A8005951000802F0BCFAFFF722FF4A4B0122CF
:1050B8001A708AE002F0B4FAFFF71AFF85E0474B4E
:1050C8001B78012B02D102F0ABFA7EE0424B0122A1
:1050D8001A707AE0424B1B78012B2CD105F09AF814
:1050E80002460B463F49C1E900233E4BD3E9000184
:1050F8003D4BD3E90023821A61EB0303104619469E
:10510800FBF7EAF902460B461046194630A3D3E9E5
:105118000023FBF79DFC0346002B00D155E03348E4
:1051280011F03EFFFFF7E4FE2E4BD3E900232E4992
:10513800C1E9002349E0284B01221A7045E02C4BB5
:105148001B78012B03D0244B01221A703DE03CE070
:10515800224B1B78012B07D0214B1B78012B03D046
:10516800234B1B78012B2AD102F05AFA05F052F88A
:1051780002460B461B49C1E900231A4BD3E900013B
:10518800194BD3E90023821A61EB03031046194631
:10519800FBF7A2F902460B46104619460CA3D3E9C1
:1051A8000023FBF755FC0346002B0CD0FFF7A0FEAD
:1051B8000C4BD3E900230C49C1E9002303E0064B5B
:1051C80001221A7001E000E000BF80BDAFF300804B
:1051D8000000000080842E412A0F00202B0F0020A1
:1051E8002C0F0020380F0020300F0020ACF00108F1
:1051F8002D0F0020AFF3008080B400AF034B0022D6
:105208001A70BD465DF8047B704700BF2B0F002065
:1052180080B400AF034B00221A70BD465DF8047BD2
:10522800704700BF2C0F002080B400AF034B1B78E1
:105238001846BD465DF8047B704700BF2B0F002061
:1052480080B400AF034B1B781846BD465DF8047B5D
:10525800704700BF2C0F002080B584B000AF786085
:1052680039601B4B1B78DBB2002B00D12CE0194BAB
:10527800FB603B68002B02DAFB680133FB607B684C
:1052880093F82130184607F0A9F9034606EE103ABC
:10529800F8EEC67AB1EE047A87EE277ADFED0E7A59
:1052A80027EE277A3B6807EE903AF8EEE76AFB6844
:1052B80006EE103AF8EEC67AC6EEA77A67EE277AB7
:1052C800064BC3ED007A00BF1037BD4680BD00BF56
:1052D8007C220020FFFF7F000000C842400F002012
:1052E80080B400AF044B1B6807EE903AB0EE670A33
:1052F800BD465DF8047B7047400F002080B500AFC5
:10530800114BD3ED007AF5EE407AF1EE10FA13D195
:1053180000200E4903F04CFE01200D4903F048FE21
:105328000A4B1B881A040A4B1B881A43094B1A603C
:10533800084B1A68044B1A60034B1B6807EE903A37
:10534800B0EE670A80BD00BF440F00204E0F00205A
:105358004C0F0020540F002080B500AF114BD3ED47
:10536800007AF5EE407AF1EE10FA13D102200E49D8
:1053780003F01EFE03200D4903F01AFE0A4B1B889A
:105388001A040A4B1B881A43094B1A60084B1A68FF
:10539800044B1A60034B1B6807EE903AB0EE670A9D
:1053A80080BD00BF480F0020520F0020500F002082
:1053B800540F002080B400AF044B00221A60044B45
:1053C80000221A60BD465DF8047B704780A9002062
:1053D80078BC002080B483B000AF7860284B1B688D
:1053E8000233284A82FB03025111DA178A1A642110
:1053F80001FB02F29A1A244B1968224B83FB010322
:105408005811CB17C31A642000FB03F3CB1A9A4236
:1054180001D101232EE01A4B1A681A4B83FB0213A1
:105428005911D317CB1A642101FB03F3D31A144A79
:105438001360134B1B687A68126814491B010B44EC
:105448001A600F4B1B687A68526810491B010B449D
:105458005A600B4B19687B68D3E902230B48090192
:1054680001440831C1E90023054B1B685A1C044B51
:105478001A60002318460C37BD465DF8047B704758
:1054880080A900201F85EB5178BC002038B6002089
:1054980080B483B000AF7860284B1B68284A82FB31
:1054A80003025111DA178A1A642101FB02F29A1ACF
:1054B800244B1968224B83FB01035811CB17C31ADD
:1054C800642000FB03F3CB1A9A4201D101232EE09A
:1054D8001A4B1A681A4B83FB02135911D317CB1AAC
:1054E800642101FB03F3D31A144A1360134B1B689E
:1054F800154A1B0113441A687B681A600F4B1B6816
:10550800114A1B0113445A687B685A600B4B1B688D
:105518000D4A1B0113440833D3E900237968C1E914
:105528000223064B1B685A1C044B1A6000231846BA
:105538000C37BD465DF8047B704700BF78BC00207F
:105548001F85EB5180A9002038B60020F0B58DB03A
:1055580004AF3B461846FFF79BFF0346002B5CD180
:105568003B68DBB2184600F0EFFDF8617B6818462F
:1055780006F022FFB8613B68242B07D1242000F0F5
:10558800E3FDF861F869B969FFF766FEFB695B78C6
:10559800242B16D0FB6993F82260FB6993F82150FD
:1055A800FB6993F82040FFF79BFEF0EE407A304607
:1055B80029462246B0EE670A05F010FCF0EE407A64
:1055C80001E0F7EE007AC7ED057ABB6907EE903A7D
:1055D800B8EEE77AD7ED057A67EE277AB0EE670A74
:1055E80018F03CFFF0EE407AFDEEE77A17EE903ABD
:1055F8003B613C68D7E90223CDE900233B6902936C
:105608001E23039307484FF40071074A234611F0FD
:10561800DFFC044804F0CAF99BE700BF2437BD4605
:10562800F0BD00BF7CED002014F20108B0B584B0D5
:1056380000AFA44B1B685A1CA24B1A60A24B1B68F4
:10564800012B40F0F1800023FB609E4B1B68B3F5F3
:10565800A77F04DB9D4B1B68012B00DD2EE09C4BD4
:105668001B6819469B4BA1FB0323C81A4008034437
:105678005A091346DB0013449B001344CA1A944B7F
:105688001A60FB68252B00D918E0914B1A68924BD9
:1056980053F82230002B08D08D4B1A688E4B53F8E4
:1056A80022301B78002B00D108E0894B1B685A1C5C
:1056B800874B1A60FB680133FB60C6E7814B1B68A8
:1056C800B3F5A77F36DB814B1B68012B32DD834B9B
:1056D80000221A6001F06EF9814B24221A60814978
:1056E8004FF001024FF00003C1E90023242000F02D
:1056F8002BFD78607B6893F82230184606F0C2FFCD
:105708007B6893F82130184606F054FF7B6893F8BD
:105718002030184606F0FAFE786801F0B7FE01203E
:1057280006F0F6FD06F00EFE06F054F9664B03226D
:105738001A602BE1664B1A68674B53F82230002B2E
:1057480000F02481624B1A68634B53F822301B78AF
:10575800002B40F01B815E4B1A685F4B53F82230D8
:105768005B78242B02D101F025F924E000200121E7
:1057780006F0DAFE5C484FF48051012210F018F868
:10578800534B1A68544B53F822305B78184601F093
:105798001DF903467B8055480FF0E0FF03469BB296
:1057A800C3F30A039AB27B8813439BB29BB24F4858
:1057B800194610F015F8464B1A68474B53F8223033
:1057C8005B781A46464B1A60494BD3E9002352EAE4
:1057D800030112D03D4B1B68012B06D1444BD3E982
:1057E80000234049C1E900231AE03E494FF0010275
:1057F8004FF00003C1E9002312E0344B1B68012B72
:1058080007D138494FF0FF324FF0FF33C1E9002389
:1058180006E034494FF001024FF00003C1E90023CC
:10582800294B02221A60B1E0274B1B68022B30D1AA
:10583800274B1A68284B53F8223093F82230184621
:1058480006F020FF224B1A68234B53F8223093F8B6
:105858002130184606F0AEFE1D4B1A681E4B53F851
:10586800223093F82030184606F050FE184B1A687C
:10587800194B53F82230184601F008FE012006F0B3
:1058880047FD06F05FFD06F0A5F80F4B03221A60EE
:105898007CE00D4B1B68032B78D1124BD3E9002316
:1058A80052EA030172D1084B01221A600C4B1B68A3
:1058B800242B1FD1054B1B68012B1BDD014B00223C
:1058C8001A6063E0680F0020600F00202C0B002096
:1058D8005C0F00204D91CFBA90510020682A00201B
:1058E80084A90020A8B30020001C0240000C02403C
:1058F80088510020274B1B68012B09D1264B1A68B9
:10590800264B002143F82210254B00221A603DE067
:10591800244BD3E9002352EA030132D0224B1B68FF
:105928005A1C214B1A601B4B1B6818464FEAE07142
:105938001C4BD3E9002302FB01F500FB03F42C44C4
:10594800A0FB0223E1180B461749096808464FEAED
:10595800E0718B4208BF824213D10023BB6007E08D
:105968000E4BBA68002143F82210BB680133BB60B4
:10597800BB68242BF4D90D4B00221A60084B002277
:105988001A60054B1B685A1C034B1A601037BD463A
:10599800B0BD00BF2C0B00205C0F002090510020F0
:1059A800600F002088510020640F0020680F00203D
:1059B80080B500AF06F018F8094B00221A60094BB1
:1059C80000221A6008494FF000024FF00003C1E9B5
:1059D8000023064B00221A60054B00221A6080BD86
:1059E800600F0020640F0020885100202C0B00203D
:1059F800680F002080B485B000AF78607B68012212
:105A080083F820207B68002283F821207B682322EA
:105A180083F822207B6800225A777B6800229A77D5
:105A28007B6800225A627B6800229A620023FB602E
:105A380014E07A68FB680A339B00134400225A601A
:105A48007A68FB681F33DB00D1184FF000024FF073
:105A58000003C1E90023FB680133FB60FB68312BBD
:105A6800E7D97B6801221A701437BD465DF8047BBC
:105A7800704700BF80B582B000AF0346FB71FB7969
:105A8800184600F00FFE0346002B0AD0FB794FF4AE
:105A9800227202FB03F20F4B13441846FFF7AAFFCA
:105AA80015E0FB79184600F06DFE0346002B0ED07A
:105AB800FB79242B00D10AE0FB79213B4FF42272B9
:105AC80002FB03F2044B13441846FFF793FF083711
