:020000040800F2
:1000000000000220BD1600084D1400085914000815
:10001000C1150008C9150008D1150008000000002E
:10002000000000000000000000000000151700089C
:10003000D91500080000000015170008E515000894
:1000400015170008151700081517000815170008E0
:1000500015170008151700081517000815170008D0
:1000600015170008151700081517000815170008C0
:1000700015170008151700081517000815170008B0
:1000800015170008151700081517000815170008A0
:10009000791600081517000815170008151700082D
:1000A0001517000815170008151700081517000880
:1000B0001517000815170008151700081517000870
:1000C0001517000815170008151700081517000860
:1000D0001517000815170008151700081517000850
:1000E000F115000815170008151700081517000866
:1000F0001517000815170008151700081517000830
:100100001517000815170008151600081517000820
:10011000151700081517000815170008151700080F
:1001200015170008151700081517000815170008FF
:1001300015170008151700081517000815170008EF
:1001400015170008151700081517000815170008DF
:1001500015170008151700081517000815170008CF
:1001600015170008151700081517000815170008BF
:1001700015170008151700081517000815170008AF
:0801800015170008151700080F
:1001880010B5054C237833B9044B13B10448AFF3C9
:1001980000800123237010BDE80800200000000043
:1001A8002CCC010808B5064B1BB106480649AFF32D
:1001B80000800648036813B1054B03B1984708BD92
:1001C800000000002CCC0108EC080020E808002002
:1001D8000000000010F8012B11F8013B012A28BF8C
:1001E8009A42F7D0D01A704781F0004102E000BF70
:1001F80083F0004330B54FEA41044FEA430594EADF
:10020800050F08BF90EA020F1FBF54EA000C55EA19
:10021800020C7FEA645C7FEA655C00F0E2804FEAEA
:100228005454D4EB5555B8BF6D420CDD2C4480EACC
:10023800020281EA030382EA000083EA010180EAFC
:10024800020281EA0303362D88BF30BD11F0004F4A
:100258004FEA01314FF4801C4CEA113102D0404280
:1002680061EB410113F0004F4FEA03334CEA1333BB
:1002780002D0524263EB430394EA050F00F0A780D3
:10028800A4F10104D5F1200E0DDB02FA0EFC22FACE
:1002980005F2801841F1000103FA0EF2801843FAC2
:1002A80005F359410EE0A5F120050EF1200E012AB3
:1002B80003FA0EFC28BF4CF0020C43FA05F3C018F1
:1002C80051EBE37101F0004507D54FF0000EDCF16A
:1002D800000C7EEB00006EEB0101B1F5801F1BD313
:1002E800B1F5001F0CD349085FEA30004FEA3C0C17
:1002F80004F101044FEA445212F5800F80F09A800D
:10030800BCF1004F08BF5FEA500C50F1000041EB10
:10031800045141EA050130BD5FEA4C0C404141EB14
:10032800010111F4801FA4F10104E9D191F0000F3B
:1003380004BF01460020B1FA81F308BF2033A3F1BE
:100348000B03B3F120020CDA0C3208DD02F1140CB5
:10035800C2F10C0201FA0CF021FA02F10CE002F1F0
:100368001402D8BFC2F1200C01FA02F120FA0CFCE9
:10037800DCBF41EA0C019040E41AA2BF01EB045132
:10038800294330BD6FEA04041F3C1CDA0C340EDC30
:1003980004F11404C4F1200220FA04F001FA02F373
:1003A80040EA030021FA04F345EA030130BDC4F131
:1003B8000C04C4F1200220FA02F001FA04F340EA26
:1003C8000300294630BD21FA04F0294630BD94F0D7
:1003D800000F83F4801306BF81F480110134013DBE
:1003E8004EE77FEA645C18BF7FEA655C29D094EA2F
:1003F800050F08BF90EA020F05D054EA000C04BFAD
:100408001946104630BD91EA030F1EBF0021002097
:1004180030BD5FEA545C05D14000494128BF41F036
:10042800004130BD14F580043CBF01F5801130BD9A
:1004380001F0004545F0FE4141F470014FF0000025
:1004480030BD7FEA645C1ABF194610467FEA655CD6
:100458001CBF0B46024650EA013406BF52EA033578
:1004680091EA030F41F4002130BD00BF90F0000F66
:1004780004BF0021704730B54FF4806404F13204A2
:100488004FF000054FF0000150E700BF90F0000F5B
:1004980004BF0021704730B54FF4806404F1320482
:1004A80010F0004548BF40424FF000013EE700BF52
:1004B80042004FEAE2014FEA31014FEA02701FBFE2
:1004C80012F07F4393F07F4F81F06051704792F0B4
:1004D800000F14BF93F07F4F704730B54FF460742E
:1004E80001F0004521F0004120E700BF50EA010279
:1004F80008BF704730B54FF000050AE050EA010226
:1005080008BF704730B511F0004502D5404261EB95
:1005180041014FF4806404F132045FEA915C3FF4D6
:10052800DCAE4FF003025FEADC0C18BF03325FEA6F
:10053800DC0C18BF033202EBDC02C2F1200300FA24
:1005480003FC20FA02F001FA03FE40EA0E0021FA49
:1005580002F11444C1E600BF70B54FF0FF0C4CF433
:10056800E06C1CEA11541DBF1CEA135594EA0C0FE9
:1005780095EA0C0F00F0DEF82C4481EA030621EA24
:100588004C5123EA4C5350EA013518BF52EA03355F
:1005980041F4801143F4801338D0A0FB02CE4FF011
:1005A8000005E1FB02E506F00042E0FB03E54FF041
:1005B8000006E1FB03569CF0000F18BF4EF0010E39
:1005C800A4F1FF04B6F5007F64F5407404D25FEA35
:1005D8004E0E6D4146EB060642EAC62141EA5551E8
:1005E8004FEAC52040EA5E504FEACE2EB4F1FD0C2A
:1005F80088BFBCF5E06F1ED8BEF1004F08BF5FEAA8
:10060800500E50F1000041EB045170BD06F0004659
:1006180046EA010140EA020081EA0301B4EB5C0406
:10062800C2BFD4EB0C0541EA045170BD41F48011FE
:100638004FF0000E013C00F3AB8014F1360FDEBF23
:10064800002001F0004170BDC4F10004203C35DAFF
:100658000C341BDC04F11404C4F1200500FA05F382
:1006680020FA04F001FA05F240EA020001F0004223
:1006780021F0004110EBD37021FA04F642EB060199
:100688005EEA430E08BF20EAD37070BDC4F10C04C3
:10069800C4F1200500FA04F320FA05F001FA04F287
:1006A80040EA020001F0004110EBD37041F1000173
:1006B8005EEA430E08BF20EAD37070BDC4F120057E
:1006C80000FA05F24EEA020E20FA04F301FA05F2E6
:1006D80043EA020321FA04F001F0004121FA04F28E
:1006E80020EA020000EBD3705EEA430E08BF20EA5E
:1006F800D37070BD94F0000F0FD101F00046400098
:1007080041EB010111F4801F08BF013CF7D041EA19
:10071800060195F0000F18BF704703F0004652001D
:1007280043EB030313F4801F08BF013DF7D043EAEE
:100738000603704794EA0C0F0CEA135518BF95EAA4
:100748000C0F0CD050EA410618BF52EA4306D1D12B
:1007580081EA030101F000414FF0000070BD50EA4A
:10076800410606BF1046194652EA430619D094EAD4
:100778000C0F02D150EA013613D195EA0C0F05D1BE
:1007880052EA03361CBF104619460AD181EA030112
:1007980001F0004141F0FE4141F470014FF00000CA
:1007A80070BD41F0FE4141F4780170BD70B54FF065
:1007B800FF0C4CF4E06C1CEA11541DBF1CEA1355E5
:1007C80094EA0C0F95EA0C0F00F0A7F8A4EB0504C7
:1007D80081EA030E52EA03354FEA013100F08880BE
:1007E8004FEA03334FF0805545EA131343EA126387
:1007F8004FEA022245EA111545EA10654FEA00263C
:100808000EF000419D4208BF964244F1FD0404F5F4
:10081800407402D25B084FEA3202B61A65EB030550
:100828005B084FEA32024FF480104FF4002CB6EB0D
:10083800020E75EB030E22BFB61A754640EA0C008D
:100848005B084FEA3202B6EB020E75EB030E22BFCD
:10085800B61A754640EA5C005B084FEA3202B6EB0E
:10086800020E75EB030E22BFB61A754640EA9C00CD
:100878005B084FEA3202B6EB020E75EB030E22BF9D
:10088800B61A754640EADC0055EA060E18D04FEA5B
:10089800051545EA16754FEA06164FEAC30343EAFB
:1008A80052734FEAC2025FEA1C1CC0D111F4801FC8
:1008B8000BD141EA00014FF000004FF0004CB6E7C1
:1008C80011F4801F04BF01430020B4F1FD0C88BF60
:1008D800BCF5E06F3FF6AFAEB5EB030C04BFB6EB6B
:1008E800020C5FEA500C50F1000041EB045170BD5E
:1008F8000EF0004E4EEA113114EB5C04C2BFD4EB8B
:100908000C0541EA045170BD41F480114FF0000E0E
:10091800013C90E645EA060E8DE60CEA135594EA8A
:100928000C0F08BF95EA0C0F3FF43BAF94EA0C0F8D
:100938000AD150EA01347FF434AF95EA0C0F7FF402
:1009480025AF104619462CE795EA0C0F06D152EA56
:1009580003353FF4FDAE1046194622E750EA41063A
:1009680018BF52EA43067FF4C5AE50EA41047FF44B
:100978000DAF52EA43057FF4EBAE12E74FF0FF3CB0
:1009880006E000BF4FF0010C02E000BF4FF0010C81
:100998004DF804CD4FEA410C7FEA6C5C4FEA430CFA
:1009A80018BF7FEA6C5C1BD001B050EA410C0CBF49
:1009B80052EA430C91EA030F02BF90EA020F0020AB
:1009C800704710F1000F91EA030F58BF994208BF12
:1009D80090422CBFD8176FEAE37040F001007047CF
:1009E8004FEA410C7FEA6C5C02D150EA013C07D126
:1009F8004FEA430C7FEA6C5CD6D152EA033CD3D071
:100A08005DF8040B704700BF8446104662468C466A
:100A18001946634600E000BF01B5FFF7B7FF00289D
:100A280048BF10F1000F01BD4DF808EDFFF7F4FFC6
:100A38000CBF012000205DF808FB00BF4DF808ED51
:100A4800FFF7EAFF34BF012000205DF808FB00BF74
:100A58004DF808EDFFF7E0FF94BF012000205DF896
:100A680008FB00BF4DF808EDFFF7CEFF94BF01204B
:100A780000205DF808FB00BF4DF808EDFFF7C4FF44
:100A880034BF012000205DF808FB00BF4FEA410297
:100A980012F5001215D211D56FF47873B3EB6252C8
:100AA80012D94FEAC12343F0004343EA505311F0EF
:100AB800004F23FA02F018BF404270474FF0000081
:100AC800704750EA013005D111F0004008BF6FF0BF
:100AD800004070474FF00000704700BF4A0011D235
:100AE80012F5001211D20DD56FF47873B3EB625280
:100AF8000ED44FEAC12343F0004343EA505323FA8C
:100B080002F070474FF00000704750EA013002D100
:100B18004FF0FF3070474FF0000070474FEA410236
:100B2800B2F1E04324BFB3F5001CDCF1FE5C0DD943
:100B380001F0004C4FEAC0024CEA5070B2F1004F8D
:100B480040EB830008BF20F00100704711F0804F90
:100B580021D113F13872BCBF01F00040704741F455
:100B680080114FEA5252C2F11802C2F1200C10FA59
:100B78000CF320FA02F018BF40F001004FEAC1233D
:100B88004FEAD32303FA0CFC40EA0C0023FA02F3E1
:100B98004FEA4303CCE77FEA625307D150EA0133B7
:100BA8001EBF4FF0FE4040F44000704701F0004087
:100BB80040F0FE4040F40000704700BF4BB942B916
:100BC800002908BF002802D04FF0FF31084600F086
:100BD8005FB882B0EC462DE9005000F041F8DDF82E
:100BE80004E002B00CBC704770B5FFF761FC00224E
:100BF8000D4B04460D46FFF7AFFCFFF76FFF0646A7
:100C0800FFF734FC0022094BFFF7A6FC02460B460F
:100C180020462946FFF7ECFAFFF760FF002242EA78
:100C280000042046314670BD0000F03D0000F04150
:100C38002DE97043069E14461D468046894600F0FD
:100C480029F804FB01F300FB0533A4FB00451D4410
:100C5800B8EB040469EB0505C6E90045BDE87083F7
:100C68002DE97043069E1446804689461D4600F0CD
:100C78005DF900FB05F504FB0153A0FB04451D4489
:100C8800B8EB040469EB0505C6E90045BDE87083C7
:100C9800704700BF00292DE9F00FC0F29F800024A3
:100CA800002BC0F29680154606460F46002B3ED113
:100CB8008A4257D9B2FA82F34BB1C3F1200201FA42
:100CC80003F720FA02F29D40174300FA03F6290CB5
:100CD800B7FBF1F2330C01FB127CA8B243EA0C47D4
:100CE80000FB02F3BB4209D97F1902F1FF3C80F0F7
:100CF8000181BB4240F2FE80023A2F44FF1AB7FB43
:100D0800F1F3B6B201FB137146EA014100FB03F0AF
:100D1800884208D9491903F1FF3780F0ED808842ED
:100D280040F2EA80023B43EA0242002303E08B429E
:100D38000AD900231A461046194614B1404261EBFD
:100D48004101BDE8F00F7047B3FA83F8B8F1000F1E
:100D580040F084808B4202D3824200F2DE8000237E
:100D68000122E8E712B90123B3FBF2F5B5FA85F2DF
:100D7800002A39D17F1B280C1FFA85FC0123B7FBF9
:100D8800F0F1320C00FB117742EA07470CFB01F245
:100D9800BA4207D97F1901F1FF3802D2BA4200F2EC
:100DA800C1804146BF1AB7FBF0F2B6B200FB127021
:100DB80046EA00400CFB02FC844507D9401902F1C1
:100DC800FF3702D2844500F2AB803A4642EA01423C
:100DD800B1E7E443524263EB430364E7404261EB0B
:100DE80041014FF0FF345BE79540C2F1200327FA39
:100DF80003F1280C26FA03F39740B1FBF0F81F43E0
:100E08003B0C00FB18111FFA85FC43EA01410CFB5F
:100E180008F38B4206FA02F608D9491908F1FF329D
:100E280079D28B4277D9A8F102082944C91AB1FBB3
:100E3800F0F3BFB200FB131147EA01470CFB03F2C2
:100E4800BA4207D97F1903F1FF3160D2BA425ED99D
:100E5800023B2F44BF1A43EA084390E7C8F1200237
:100E680003FA08FC25FA02F343EA0C0C4FEA1C4982
:100E780021FA02F301FA08F720FA02F2B3FBF9F1BA
:100E8800174309FB11333A0C1FFA8CFB42EA034360
:100E98000BFB01FA9A4505FA08F008D913EB0C0385
:100EA80001F1FF3235D29A4533D902396344CAEB8E
:100EB8000303B3FBF9F209FB1233BFB247EA034756
:100EC8000BFB02F9B94508D917EB0C0702F1FF3300
:100ED8001BD2B94519D9023A674442EA0145A5FB34
:100EE8000001C9EB07078F424FF000030AD305D072
:100EF8002A4620E7624601E73B4614E706FA08F669
:100F08008642F5D26A1E002315E71A46E5E70B4626
:100F1800A0E71146CBE7904688E7434642460AE7F2
:100F2800023A53E702392F443CE700BF2DE9F00F9E
:100F3800144605460E46002B43D18A4253D9B2FACD
:100F480082F757B1C7F1200620FA06F601FA07F32F
:100F580002FA07F41E4300FA07F5210CB6FBF1F27A
:100F68002B0C01FB1267A0B243EA074600FB02F311
:100F7800B34209D9361902F1FF3780F0F680B3423F
:100F880040F2F380023A2644F61AB6FBF1F3ADB20A
:100F980001FB136145EA014100FB03F0884208D9CF
:100FA800091903F1FF3680F0E280884240F2DF80C1
:100FB800023B43EA0242002310461946BDE8F00FFF
:100FC80070478B424AD8B3FA83F6002E4DD18B4234
:100FD80002D3824200F2D68000230122104619462D
:100FE800BDE8F00F704712B90124B4FBF2F4B4FA6B
:100FF80084F2002A7CD1091B260CA7B20123B1FB7D
:10100800F6F02A0C06FB101142EA014107FB00F238
:101018008A4207D9091900F1FF3C02D28A4200F23C
:10102800C3806046891AB1FBF6F2ADB206FB121115
:1010380045EA014507FB02F7AF4208D92C1902F12E
:10104800FF3180F09680A74240F29380023A42EA4C
:10105800004210461946BDE8F00F704700231A46B3
:1010680010461946BDE8F00F7047C6F1200522FA70
:1010780005F4B3401C434FEA144821FA05F301FA7A
:1010880006F720FA05F5B3FBF8FC2F4308FB1C33E1
:101098003D0C1FFA84FA45EA03430AFB0CF999450B
:1010A80002FA06FB04D91B190CF1FF326DD39446E2
:1010B800C9EB0303B3FBF8F508FB1533BFB247EAE6
:1010C80003470AFB05F8B84504D93F1905F1FF3372
:1010D80061D31D4645EA0C4CACFB0B23C8EB070754
:1010E8009F424FF0000549D345D062462B4663E73F
:1010F8009440C2F1200321FA03FC260C20FA03F3E2
:1011080001FA02F5BCFBF6F843EA05010B0C06FBF5
:1011180018CCA7B243EA0C4C07FB08F3634500FA66
:1011280002F509D91CEB040C08F1FF323AD26345E9
:1011380038D9A8F10208A444C3EB0C0CBCFBF6F3A5
:1011480089B206FB13CC41EA0C4107FB03F28A4241
:1011580007D9091903F1FF3022D28A4220D9023B6C
:101168002144891A43EA084349E73A460CE73346DB
:101178001FE70A466BE7B0409042B6D20CF1FF3247
:10118800002319E73346324616E799458FD9ACF163
:10119800020C23448CE7B8459BD9023D274499E7C4
:1011A8000346DEE79046C7E7023821443AE700BF26
:1011B80080B500AF154B154AD2F8882042F470026A
:1011C800C3F88820124B124A126842F001021A60D2
:1011D8000F4B00229A600E4A0D4B1B6823F0847354
:1011E80023F4803313600A4B0A4A5A60084B084AB2
:1011F800126822F480221A60054B0022DA6000F09F
:101208000BF8024B4FF000629A6080BD00ED00E0E1
:10121800003802401030002480B483B000AF0023AF
:101228007B6000233B60354B344A126842F48032BD
:101238001A60324B1B6803F400333B607B68013350
:101248007B603B68002B03D17B68B3F5A04FF0D1DE
:101258002A4B1B6803F40033002B02D001233B60A8
:1012680001E000233B603B68012B42D1234B234A1A
:10127800126C42F080521A64214B214A126842F4DF
:1012880040421A601D4B1D4A92689A601B4B1B4ACC
:10129800926842F400429A60184B184A926842F4E5
:1012A800A0529A60154B174A5A60144B134A126899
:1012B80042F080721A6000BF104B1B6803F0007385
:1012C800002BF9D0104B40F205721A600B4B0B4AF9
:1012D800926822F003029A60084B084A926842F02A
:1012E80002029A6000BF054B9B6803F00C03082BB1
:1012F800F9D10C37BD465DF8047B704700380240D1
:101308000070004019544007003C024080B586B088
:1013180000AFF860B9607A6000237B6100237B61CD
:1013280012E07B69BA6813441B780C48194613F01D
:101338005DFC00BF0948402113F06AFC0346002BFE
:10134800F8D07B6901337B617A697B689A42E8DB74
:101358007B6818461837BD4680BD00BF004800406E
:1013680080B485B000AF7860114B1B68002B02D1A8
:101378000F4B104A1A600E4B1B68FB600C4B1A6827
:101388007B681A446B469A4205D90B4B0C221A60AB
:101398004FF0FF3306E0064B1A687B681A44044B8B
:1013A8001A60FB6818461437BD465DF8047B704721
:1013B80004090020346601203066012080B483B01F
:1013C80000AF78604FF0FF3318460C37BD465DF824
:1013D800047B704780B483B000AF786039603B68A5
:1013E8004FF400525A60002318460C37BD465DF88A
:1013F800047B704780B483B000AF7860012318463F
:101408000C37BD465DF8047B704700BF80B485B0DB
:1014180000AFF860B9607A60002318461437BD46FB
:101428005DF8047B704700BF80B485B000AFF860FA
:10143800B9607A60002318461437BD465DF8047B0E
:10144800704700BF80B400AFBD465DF8047B7047AD
:1014580080B58AB000AF404B7B621EF0040F0CBF12
:10146800EFF30880EFF309807B6A1B683B627B6AB5
:101478005B68FB617B6A9B68BB617B6ADB687B613D
:101488007B6A1B693B617B6A5B69FB607B6A9B6962
:10149800BB607B6ADB697B60304815F06BFA3B6A9E
:1014A8002F48194615F008FAFB692E48194615F019
:1014B80003FABB692C48194615F0FEF97B692B48DD
:1014C800194615F0F9F93B692948194615F0F4F958
:1014D800FB682848194615F0EFF9BB6826481946F5
:1014E80015F0EAF97B682548194615F0E5F9244B0B
:1014F8001B682448194615F0DFF9234B1B6823485D
:10150800194615F0D9F9224B1B682248194615F0DF
:10151800D3F9214BDB6A2148194615F0CDF9204B48
:101528001B682048194615F0C7F91F4B1B681F4850
:10153800194615F0C1F9184BDB6A03F08043002BFC
:1015480008D01B4815F016FA134B9B6A1948194620
:1015580015F0B2F900BEFDE70004002048CC0108F0
:1015680060CC01086CCC010878CC010884CC010857
:1015780090CC01089CCC0108A8CC0108B4CC010887
:1015880038ED00E0C0CC010828ED00E0CCCC010823
:101598002CED00E0D8CC010800ED00E0E4CC010817
:1015A80030ED00E0FCCC01083CED00E008CD01087E
:1015B80014CD010828CD010880B400AFFEE700BFB4
:1015C80080B400AFFEE700BF80B400AFFEE700BF05
:1015D80080B400AFBD465DF8047B704780B500AFAE
:1015E80009F09CF880BD00BF80B500AF4FF4804083
:1015F80014F04AF90346002B06D0012006F0B2FB8E
:101608004FF4804014F05AF980BD00BF98B500AF80
:101618001348102113F024FB0346002B1ED0114B56
:101628001B681C46621C0F4B1A600D4813F00CFB1C
:1016380003469AB20C4B23F814200948102113F0E2
:1016480039FB084B1B68012B08D9074B5A88064BF6
:101658001B88D31A9BB21A46044B1A6098BD00BF68
:10166800000C0040B425002008090020B8250020FF
:1016780080B500AF0C4800210C4A14F02DF90B4B33
:101688001A6840F221339A420DD1084B1B7A002B7D
:1016980009D1064B9B7A012B05D1044BDB7A044810
:1016A800194615F009F980BD006400402454002053
:1016B80040CD0108DFF83CD0002100F004B80E4B03
:1016C8005B58435004310D480D4B42189A42FFF4C1
:1016D800F6AF0C4A00F003B8002342F8043B0A4B6B
:1016E8009A42FFF4F9AFFFF763FD15F09FF800F099
:1016F80023F8704700000220AC0F02080000002009
:10170800E8080020E808002034660120FFF7FEBF43
:1017180080B400AFBFF34F8F054A054BDB6803F475
:10172800E061044B0B43D360BFF34F8FFEE700BF6C
:1017380000ED00E00400FA0580B500AF4FF44070FA
:1017480014F082F909F01CFB224815F0B5F84FF0A7
:101758008050012113F0DAFC012013F079FD1320E9
:1017680013F0F4FB034603F00203002B03D11A48DD
:1017780015F0A2F801E013F095FB7D2013F020FD91
:101788000346002B02D013F055FD0EE07C2013F029
:1017980017FD0346002B08D17B2013F011FD0346EB
:1017A800002B02D17A2013F00BFD13F043FD00F05B
:1017B80069F800F041F808F0D9F90346002B04D184
:1017C80002F07AFA00F00AF801E0FFF7A1FF00231F
:1017D800184680BD5CCD01087CCD010880B500AFFE
:1017E80003F072FF07F056F80346002B01D007F00C
:1017F800B1FA08F0A5FF02460B461046194607F055
:10180800B1FA08F043FA0346012B0ED108F000FBA9
:1018180003461A46074B1A70064B1B78002B04D058
:10182800044B1B78184602F06BFA00F077F813F0B7
:101838001FFDD5E73854002080B582B000AF09F00D
:1018480077F800237B6001231B067A6813437B60CB
:1018580001231B047A6813437B6000231B027A6808
:1018680013437B6002237A6813437B60786809F02E
:10187800F9F8034809F0B8F80837BD4680BD00BF3D
:10188800803D012080B584B000AF09F081F903F0F4
:1018980007FF04F08FF903F0E1F802F011FC1A4891
:1018A80004F0D4FD184803F067FB174802F0F2FE75
:1018B80009F08CF909F0DCFB0023FB71134BFB608A
:1018C8000023BB6015E0FA68114B9A4203D911480E
:1018D80014F0F2FF10E0FB681B78FB710E4ABB683E
:1018E8001344FA791A70FB680133FB60BB68013353
:1018F800BB60BB681F2BE6DD074B002283F8202066
:101908001037BD4680BD00BFD19E000800000E08FC
:101918001F000E08A4CD0108803D0120F0B583B05A
:1019280000AF02F0C5FE0346012B28D108F0AEF93E
:101938000346012B23D1134B134A14461D4604F1C9
:10194800200C2E46A646BEE80F0030607160B260DB
:10195800F360103410356445F3D12B4622461068E5
:10196800186012791A712423FB71FB79002B03D0BC
:10197800044808F0A9FA02E0044814F09DFF0C3767
:10198800BD46F0BD8C3B0120D8CD010800CE010832
:1019980080B483B000AF0346FB71FA79044B53F867
:1019A800223018460C37BD465DF8047B704700BFEF
:1019B8000000002080B483B000AF0346FB71FA79C1
:1019C800044B53F8223018460C37BD465DF8047BAB
:1019D800704700BF2400002080B400AFBFF34F8FD2
:1019E800054A054BDB6803F4E061044B0B43D36005
:1019F800BFF34F8FFEE700BF00ED00E00400FA05DB
:101A080080B5E0B000AF07F10C03186007F10803D8
:101A18001960FB1D1A701F4814F04EFF07F10C03E4
:101A2800186800F0BFFD07F10C03186800F002F910
:101A3800034687F87E31002387F87F3107F10800D5
:101A480007F1C80107F11402FB1D1B78006800F0BC
:101A5800C5F9034687F87D3197F87D31012B0DD103
:101A680097F87E0107F1C80107F11402FB1D1B78E6
:101A780000F0CCFD034687F87F3102E0032387F8A6
:101A88007F3197F87F31184600F00CF907F5C077D9
:101A9800BD4680BD58D4010880B5BCB000AF5D48D4
:101AA8005D4914F009FF002387F8EB305A485B4979
:101AB80015F017F8C7F8EC000DE097F8EB30013394
:101AC80087F8EB30D7F8EC3001331846534915F056
:101AD80008F8C7F8EC00D7F8EC30002BEDD197F8F0
:101AE800EB304F48194614F0E7FE97F8EB30002B1F
:101AF80068D04948494914F0B0FF0346C7F8DC30BC
:101B0800D7F8DC30242B05D1464814F0D5FE02F076
:101B1800D9F87BE04048414915F068FEC7F8EC0069
:101B28003B461846D7F8EC1014F08FFF0023C7F88F
:101B3800E4301DE00020394915F058FEC7F8EC00E4
:101B4800D7F8EC30002B00D118E0D7F8E420134682
:101B5800DB0013449B0007F1240213441846D7F80E
:101B6800EC1014F072FFD7F8E4300133C7F8E43012
:101B780097F8EB20D7F8E4309A42DBDC3B462A485A
:101B8800194614F099FE0023C7F8E03013E007F176
:101B98002401D7F8E0201346DB0013449B000B44D4
:101BA8002248D7F8E0101A4614F086FED7F8E0303D
:101BB8000133C7F8E03097F8EB20D7F8E0309A42C5
:101BC800E5DC19E0144814F058FF0346C7F8D8308C
:101BD800D7F8D830232B05D9124814F06DFE02F03F
:101BE80071F813E03B4618460B4914F02EFF3B46AC
:101BF8000F48194614F060FE394607F1240297F899
:101C0800EB30084611461A46FFF7FAFEF037BD4694
:101C180080BD00BF84D401080C090020780B02089D
:101C28009CD40108C0D40108F8D4010828D50108BB
:101C380038D5010880B584B000AF7860154814F035
:101C48003BFE0023FB730EE0FA7B134B53F8223064
:101C580078681946FEF7BEFA0346002B00D105E066
:101C6800FB7B0133FB73FB7B232BEDD9FB7B232B06
:101C780008D8FA7B084B53F822300848194614F064
:101C88001BFE02E0064814F017FEFB7B18461037CF
:101C9800BD4680BD5CD501088000002088D50108BC
:101CA800C0D5010880B584B000AF0346FB71FB794D
:101CB8001846FFF76DFEF860FB79082B5ED801A285
:101CC80052F823F0F11C0008011D0008111D00083E
:101CD800211D0008311D0008551D0008651D00085C
:101CE800751D0008451D00082B484FF4FA712B4A52
:101CF800FB6814F047FE49E027484FF4FA71284A78
:101D0800FB6814F03FFE41E023484FF4FA71254A7E
:101D1800FB6814F037FE39E01F484FF4FA71214A86
:101D2800FB6814F02FFE31E01B484FF4FA711E4A8D
:101D3800FB6814F027FE00F03BF827E016484FF444
:101D4800FA71184AFB6814F01DFE1FE012484FF4A0
:101D5800FA71144AFB6814F015FE17E00E484FF4A8
:101D6800FA71104AFB6814F00DFE0FE00A484FF4B0
:101D7800FA710C4AFB6814F005FE07E006484FF4B8
:101D8800FA710A4AFB6814F0FDFD00BF024808F02A
:101D9800BFFB1037BD4680BD8C3B0120F8D501083C
:101DA80008D6010814D6010820D6010830D6010843
:101DB80080B500AF064B1B781846FFF7FBFD0346BE
:101DC80004484FF4FA71044A14F0DCFD80BD00BFEA
:101DD800100B00208C3B01203CD6010880B590B048
:101DE80000AFF860B9607A60FB70012387F83F3074
:101DF8000023BB6359E0BA6B1346DB0013449B0016
:101E0800FA6813447B63786B2D49022214F052FE62
:101E18000346002B3DD17B6B023307F110021046BD
:101E2800194614F012FE07F110031846254915F05B
:101E3800DDFC7863786B00F0B5FBBA6B1346DB000A
:101E480013449B00BA6813441846796B14F0FDFDDF
:101E580000201C4915F0CAFC78637B6B002B0ED060
:101E6800786B00F09FFBBA6B1346DB0013449B00B2
:101E78007A6813441846796B14F0E7FD12E0BA6BE0
:101E88001346DB0013449B007A68134400221A703F
:101E980008E00D48B96B7A6B14F00EFD002387F843
:101EA8003F3006E0BB6B0133BB63FA78BB6B9A42E9
:101EB800A1DC97F83F3018464037BD4680BD00BFCB
:101EC80050D6010854D6010858D6010880B588B004
:101ED80000AFF860B960FA71BB71FA79BB799A42C0
:101EE80001D9002334E00023FB610023FB760023A3
:101EF8007B6128E00023FB610023FB7617E07A6909
:101F08001346DB0013449B00FA681A44FB69591C0A
:101F1800F9619B00B96A0B441B6810461946FEF725
:101F280059F90346002B02D10123FB7603E0BA7965
:101F3800FB699A42E3DCFB7E002B01D1002307E01A
:101F48007B6901337B61FA797B699A42D2DC012390
:101F580018462037BD4680BD80B582B000AF786096
:101F680078680F49FEF736F90346002B01D10323A1
:101F780012E078682C2114F05BFD0346002B01D099
:101F8800022309E078682D2114F052FD0346002B46
:101F980001D0012300E0002318460837BD4680BD64
:101FA800A4D6010880B58CB000AF03463960FB7138
:101FB800002387F82F300023BB60FF23FB75002325
:101FC8003B610023BB62002387F82730002387F892
:101FD80026300023FB730023BB7300233B6207E01A
:101FE800684B3A6A002143F822103B6A01333B628E
:101FF8003B6A242BF4D9FB79032B00F2BC8001A2A5
:1020080052F823F01D200008AF20000851200008D6
:102018004D210008386800210A2215F0D3FC034638
:10202800FB7597F91730002B02DBFB7D252B03D9B5
:10203800554814F041FCA2E0FB7D184604F03AF93B
:102048000246504B1A609AE03B68002B2AD03B6846
:10205800BB62BB681B782C2B02D1BB680133BB6207
:1020680007F10803B86A19460A2215F0ABFC386173
:102078003B69242B11D83B69002B0EDB3B69DBB293
:10208800184604F017F901463E4B3A6943F8221006
:1020980097F82F30013387F82F30BB68002B00D119
:1020A80000E0D6E76BE0002387F82730002387F8A5
:1020B800263007F10803386819460A2215F082FC11
:1020C8000346FB73BB680133184600210A2215F04A
:1020D80079FC0346BB73FB7B002B03D0FB7B87F8A3
:1020E800273002E0002387F82730BB7B002B03D082
:1020F800BB7B87F8263002E0252387F8263097F83F
:10210800262097F82730D31ADBB2013387F82F300F
:102118000023FB6110E0FB69DAB297F8273013441B
:10212800DBB2184604F0C6F80146164BFA6943F8C4
:102138002210FB690133FB6197F82F20FB699A4253
:10214800E9DC1CE0252387F82F300023BB610CE075
:10215800BB69DBB2184604F0ADF80146094BBA6911
:1021680043F82210BB690133BB6197F82F20BB6984
:102178009A42EDDC03E0054814F09EFB00BF3037BF
:10218800BD4680BDA4540020A8D60108ECD601089D
:1021980080B58CB000AF03463960FB71002387F827
:1021A8002F300023BB60FF23FB7500233B61002316
:1021B800BB62002387F82730002387F826300023E6
:1021C800FB730023BB7300233B6207E0684B3A6A4A
:1021D800002143F822103B6A01333B623B6A172B0C
:1021E800F4D9FB79032B00F2BC8001A252F823F04A
:1021F800092200089B2200083D2200083923000814
:10220800386800210A2215F0DDFB0346FB7597F9B3
:102218001730002B02DBFB7D182B03D9554814F02F
:102228004BFBA2E0FB7D184602F06EFE0246504BC7
:102238001A609AE03B68002B2AD03B68BB62BB68F7
:102248001B782C2B02D1BB680133BB6207F1080352
:10225800B86A19460A2215F0B5FB38613B69172B95
:1022680011D83B69002B0EDB3B69DBB2184602F044
:102278004BFE01463E4B3A6943F8221097F82F303F
:10228800013387F82F30BB68002B00D100E0D6E778
:102298006BE0002387F82730002387F8263007F102
:1022A8000803386819460A2215F08CFB0346FB73AD
:1022B800BB680133184600210A2215F083FB034648
:1022C800BB73FB7B002B03D0FB7B87F8273002E036
:1022D800002387F82730BB7B002B03D0BB7B87F814
:1022E800263002E0182387F8263097F8262097F83A
:1022F8002730D31ADBB2013387F82F300023FB6174
:1023080010E0FB69DAB297F827301344DBB21846BD
:1023180002F0FAFD0146164BFA6943F82210FB69F0
:102328000133FB6197F82F20FB699A42E9DC1CE036
:10233800182387F82F300023BB610CE0BB69DBB2A0
:10234800184602F0E1FD0146094BBA6943F822102C
:10235800BB690133BB6197F82F20BB699A42EDDC5A
:1023680003E0054814F0A8FA00BF3037BD4680BD29
:1023780044540020A8D60108ECD6010880B58CB0DA
:1023880000AF03463960FB71002387F82F30002324
:10239800BB60FF23FB7500233B610023BB62002366
:1023A80087F82730002387F826300023FB730023A3
:1023B800BB7300233B6207E0684B3A6A002143F88D
:1023C80022103B6A01333B623B6A0F2BF4D9FB793D
:1023D800032B00F2BC8001A252F823F0F523000879
:1023E80087240008292400082525000838680021CA
:1023F8000A2215F0E7FA0346FB7597F91730002B08
:1024080002DBFB7D102B03D9554814F055FAA1E0E7
:10241800FB7D184602F062F80246504B1A6099E0BC
:102428003B68002B2AD03B68BB62BB681B782C2B0F
:1024380002D1BB680133BB6207F10803B86A1946C9
:102448000A2215F0BFFA38613B690F2B11D83B6996
:10245800002B0EDB3B69DBB2184602F03FF8014661
:102468003E4B3A6943F8221097F82F30013387F82A
:102478002F30BB68002B00D100E0D6E76AE00023CC
:1024880087F82730002387F8263007F108033868D3
:1024980019460A2215F096FA0346FB73BB68013306
:1024A800184600210A2215F08DFA0346BB73FB7B00
:1024B800002B03D0FB7B87F8273002E0002387F846
:1024C8002730BB7B002B03D0BB7B87F8263002E08C
:1024D800102387F8263097F8262097F82730D31A44
:1024E800DBB2013387F82F300023FB6110E0FB6972
:1024F800DAB297F827301344DBB2184601F0EEFF42
:102508000146164BFA6943F82210FB690133FB6157
:1025180097F82F20FB699A42E9DC1BE0102387F823
:102528002F300023BB610CE0BB69DBB2184601F019
:10253800D5FF0146094BBA6943F82210BB6901333C
:10254800BB6197F82F20BB699A42EDDC02E0054891
:1025580014F0B2F93037BD4680BD00BF38550020B1
:10256800A8D60108ECD6010880B483B000AF0346B2
:10257800FB71FB795F2B0BD0FB79402B02D9FB79E0
:102588005A2B05D9FB79602B04D9FB797A2B01D812
:10259800012300E0002318460C37BD465DF8047B94
:1025A800704700BF80B584B000AF78600023FB603F
:1025B80023E0FB687A6813441B78FB72FB7A1846A1
:1025C800FFF7D2FF0346002B14D0FB7A402B04D927
:1025D800FB7A5A2B01D8012300E00023002B09D1F4
:1025E800FB7A5F2B06D0FB687A681344FA7A203AA4
:1025F800D2B21A70FB680133FB60FB687A68134437
:102608001B78002BD5D11037BD4680BD80B586B06C
:1026180000AFB9607A600246FA73BB730023FB759A
:10262800FB7B232B00F27B8101A252F823F000BF31
:10263800C9260008DB260008ED260008FF2600084A
:102648001127000823270008352700084727000816
:10265800592700086B2700087D2700088F270008E6
:10266800A1270008B3270008C5270008D7270008B6
:10267800E9270008FB2700080D2800081F28000884
:10268800312800084328000849280008672800085E
:102698006D2800087F28000885280008972800086A
:1026A800A9280008BB280008CD280008DF28000852
:1026B800F128000803290008152900083329000813
:1026C800BB7BB86879681A4600F038F90346FB7591
:1026D8002CE1BB7BB86879681A4600F06DF90346AF
:1026E800FB7523E1BB7BB86879681A4600F0A0F94E
:1026F8000346FB751AE1BB7BB86879681A4600F097
:102708007FFA0346FB7511E1BB7BB86879681A4606
:1027180000F0C0FA0346FB7508E1BB7BB86879682E
:102728001A4600F001FB0346FB75FFE0BB7BB86867
:1027380079681A4600F008FB0346FB75F6E0BB7B98
:10274800B86879681A4600F057FB0346FB75EDE058
:10275800BB7BB86879681A4600F0AAFB0346FB758C
:10276800E4E0BB7BB86879681A4600F069FB034669
:10277800FB75DBE0BB7BB86879681A4600F0B4FBF0
:102788000346FB75D2E0BB7BB86879681A4600F04F
:10279800CBFB0346FB75C9E0BB7BB86879681A4672
:1027A80000F000FC0346FB75C0E0BB7BB8687968A5
:1027B8001A4600F0D3FC0346FB75B7E0BB7BB8684C
:1027C80079681A4600F014FD0346FB75AEE0BB7B42
:1027D800B86879681A4600F055FD0346FB75A5E010
:1027E800BB7BB86879681A4600F08AFD0346FB751A
:1027F8009CE0BB7BB86879681A4600F0BFFD0346C9
:10280800FB7593E0BB7BB86879681A4600F076FEE2
:102818000346FB758AE0BB7BB86879681A4600F006
:10282800B7FE0346FB7581E0BB7BB86879681A463A
:1028380000F0F8FE0346FB7578E007F0EFF975E065
:10284800132012F083FB034643F0010313201946BB
:1028580012F064FB07F0E2F9FFF7BEF866E000F05B
:1028680079FF63E0BB7BB86879681A4600F0EAFE36
:102878000346FB755AE002F091FF57E0BB7BB8684E
:1028880079681A4601F012F80346FB754EE0BB7BE7
:10289800B86879681A4601F019F80346FB7545E0EF
:1028A800BB7BB86879681A4601F020F80346FB75C7
:1028B8003CE0BB7BB86879681A4601F027F8034604
:1028C800FB7533E0BB7BB86879681A4601F04AF8B3
:1028D8000346FB752AE0BB7BB86879681A4601F0A5
:1028E80063F80346FB7521E0BB7BB86879681A4634
:1028F80001F068F80346FB7518E0BB7BB868796897
:102908001A4601F0DDF80346FB750FE0BB7BB8689B
:1029180079681A4601F052F90346FB7506E0064845
:1029280013F0CAFF0223FB7500E000BFFB7D1846C9
:102938001837BD4680BD00BF2CD7010880B588B0C8
:1029480002AFF860B9601346FB710023FB75FB7991
:10295800154A0092F868B9681A460023FFF7B6FAD4
:102968000346002B16D003F08DF90346BB75BB7DDB
:10297800002B0ED0BB7D1846FFF71CF803460B480A
:10298800194613F099FF0A4BBA7D1A700423FB7598
:1029980005E004E0074813F08FFF0123FB75FB7D7A
:1029A80018461837BD4680BD0C0900206CD70108B1
:1029B800100B0020B4D7010880B588B002AFF860CA
:1029C800B9601346FB710023FB75FB79144A00922A
:1029D800F868B9681A460023FFF778FA0346002B0F
:1029E80013D008F01BF909F0E7F80E4B1B78002B01
:1029F80005D00C4807F0ECFD08F010F90AE00A4889
:102A080013F05AFF0423FB7504E0084813F054FF41
:102A18000123FB75FB7D18461837BD4680BD00BFF6
:102A28000C0900208C3B01200CD8010854D801085F
:102A380080B58CB002AFF860B9601346FB71002313
:102A480087F82730FB79684A0092F868B9681A460F
:102A58000223FFF73BFA0346002B00F0B98000235E
:102A68003B620323FB77FF23FB740023BB6150E029
:102A78005D4BBA6953F82220FB79F86811461A466B
:102A880001F0A4F90346FB7497F91330002B38DBE7
:102A9800BB69002B02D0012B1ED02FE0534813F046
:102AA8000BFF97F913201346DB0013449B00BA6809
:102AB80013441846FFF750FA0346FB7797F913209B
:102AC8001346DB0013449B00BA681344FA7F104690
:102AD8001946FFF767FA14E0454813F0EDFE97F939
:102AE80013201346DB0013449B00BA6813441846AE
:102AF80000210A2214F066FF386202E0032387F8F7
:102B0800273097F82730002B00D005E0BB69013348
:102B1800BB61BB69012BABDD97F82730002B1FD1B8
:102B2800FB7F032B1CD000237B6116E0314B7A69B5
:102B380053F82230002B0DD02E4B7A6953F82230EF
:102B48001B78012B06D1042387F827302A4B032250
:102B58001A7005E07B6901337B617B69242BE5D919
:102B680097F82730002B32D1FB7F032B26D801A200
:102B780052F823F08D2B0008A92B00089B2B000886
:102B8800B72B00083B6A1B481946012204F018FEBF
:102B98001AE03B6A17481946002204F011FE13E0B8
:102BA8003B6A14481946002204F00AFE0CE03B6A0E
:102BB80010481946002204F003FE05E0042387F8B4
:102BC80027300D4B05221A7002F03EFE06E005E0A4
:102BD8000A4813F071FE012387F8273097F8273049
:102BE80018462837BD4680BD10010020ACD8010822
:102BF800C4D80108A4540020100B0020DCD8010818
:102C080080B588B002AFF860B9601346FB71002345
:102C1800FB7502F087FE0346002B2CD1FB79194A7D
:102C28000092F868B9681A460523FFF74FF903467A
:102C3800012B1AD1FB79F868B9681A4603F05EF9D6
:102C48000346BB75BB7D002B0ED0BB7D1846FEF737
:102C5800B1FE03460C48194613F02EFE0B4BBA7D05
:102C68001A700423FB7508E007E0094813F024FEF6
:102C78000323FB7501E00523FB75FB7D1846183718
:102C8800BD4680BD1801002034D90108100B002072
:102C980080D9010880B588B002AFF860B9601346E2
:102CA800FB710023FB7502F03DFE0346002B2CD17F
:102CB800FB79194A0092F868B9681A460123FFF7A8
:102CC80005F90346002B1AD0FB79F868B9681A464B
:102CD80003F088FA0346BB75BB7D002B0ED0BB7D85
:102CE8001846FEF767FE03460C48194613F0E4FD44
:102CF8000B4BBA7D1A700423FB7508E007E00948FE
:102D080013F0DAFD0123FB7501E00523FB75FB7D5C
:102D180018461837BD4680BD2C010020E0D90108AF
:102D2800100B002030DA010880B487B000AFF860DB
:102D3800B9601346FB710023FB75FB7D18461C37F1
:102D4800BD465DF8047B704780B58AB002AFF86075
:102D5800B9601346FB710023FB77FB79244A009284
:102D6800F868B9681A460123FFF7B0F80346002B44
:102D780038D0FF23FB750023BB6130E01C4BBA69D8
:102D880053F82220FB79F86811461A4601F01EF81C
:102D98000346FB7597F91730002B19DBBB69002B2D
:102DA80014D1144813F088FD97F917201346DB0057
:102DB80013449B00BA681344184608F0BBF903464D
:102DC800BB75BB7D184608F099F901E00323FB7732
:102DD800FB7F002B00D005E0BB690133BB61BB69F9
:102DE800002BCBDDFB7F18462037BD4680BD00BFDA
:102DF800300100208CDA010880B586B000AFF86099
:102E0800B9601346FB710023FB7508F087F9034688
:102E1800184608F0B1F9386107484FF4FA71074AC3
:102E28003B6913F0AFFD044807F0D2FBFB7D184661
:102E38001837BD4680BD00BF8C3B0120A4DA0108CD
:102E480080B588B002AFF860B9601346FB71002303
:102E5800FB75FB79134A0092F868B9681A4604238F
:102E6800FFF734F80346002B11D0FB79F868B968EE
:102E78001A4601F007F80346BB75BB7D002B05D049
:102E8800094BBA7D1A700423FB7505E004E0074876
:102E980013F012FD0123FB75FB7D18461837BD465C
:102EA80080BD00BF34010020100B0020CCDA0108DF
:102EB80080B586B000AFF860B9601346FB71002397
:102EC800FB7500F0D3FF0346BB75BB7D002B04D018
:102ED800044BBA7D1A700423FB75FB7D184618371E
:102EE800BD4680BD100B002080B586B000AFF860ED
:102EF800B9601346FB710023FB7509F025FC3861A6
:102F080007484FF4FA71074A3B6913F03BFD044840
:102F180007F05EFBFB7D18461837BD4680BD00BF35
:102F28008C3B012030DB010880B588B002AFF86027
:102F3800B9601346FB710023FB75FB79154A0092B3
:102F4800F868B9681A460023FEF7C0FF0346002B4D
:102F580016D001F0EBFD0346BB75BB7D002B0ED0F0
:102F6800BB7D1846FEF726FD03460B48194613F0AD
:102F7800A3FC0A4BBA7D1A700423FB7505E004E034
:102F8800074813F099FC0123FB75FB7D1846183799
:102F9800BD4680BD0C09002050DB0108100B002045
:102FA8009CDB010880B58CB002AFF860B9601346AD
:102FB800FB71002387F82730FB79634A0092F86891
:102FC800B9681A460223FEF781FF0346002B00F07A
:102FD800B48000233B620023FB77FF23FB740023AC
:102FE800BB6150E0584BBA6953F82220FB79F86866
:102FF80011461A4600F0EAFE0346FB7497F91330AF
:10300800002B38DBBB69002B02D0012B1ED02FE030
:103018004E4813F051FC97F913201346DB00134474
:103028009B00BA6813441846FEF796FF0346FB77E1
:1030380097F913201346DB0013449B00BA68134426
:10304800FA7F10461946FFF7A3F814E0404813F03A
:1030580033FC97F913201346DB0013449B00BA682E
:103068001344184600210A2214F0ACFC386202E02E
:10307800032387F8273097F82730002B00D005E086
:10308800BB690133BB61BB69012BABDD97F8273006
:10309800002B1FD1FB7F032B1CD000237B6116E084
:1030A8002C4B7A6953F82230002B0DD0294B7A69C2
:1030B80053F822301B78012B06D1042387F82730D8
:1030C800254B0A221A7005E07B6901337B617B6915
:1030D800172BE5D997F82730002B2ED1FB7F032B30
:1030E80026D801A252F823F0013100081D3100084A
:1030F8000F3100082B3100083B6A16481946012297
:1031080002F022FA17E03B6A12481946002202F040
:103118001BFA10E03B6A0F481946002202F014FA25
:1031280009E03B6A0B481946002202F00DFA02E05A
:10313800042387F8273002F097FB97F827301846C2
:103148002837BD4680BD00BF44010020ACD8010827
:10315800C4D8010844540020100B002080B588B062
:1031680002AFF860B9601346FB710023FB7502F0EB
:10317800E5FB0346002B2CD1FB79194A0092F8682D
:10318800B9681A460223FEF7A1FE0346012B1AD19D
:10319800FB79F868B9681A4601F04EFD0346BB751D
:1031A800BB7D002B0ED0BB7D1846FEF703FC034603
:1031B8000C48194613F080FB0B4BBA7D1A70042398
:1031C800FB7508E007E0094813F076FB0123FB755F
:1031D80001E00623FB75FB7D18461837BD4680BD08
:1031E8004C010020F8DB0108100B00204CDC010822
:1031F80080B588B002AFF860B9601346FB71002350
:10320800FB7502F09BFB0346002B2CD1FB79194A76
:103218000092F868B9681A460123FEF757FE03467C
:10322800002B1AD0FB79F868B9681A4601F0F8FD46
:103238000346BB75BB7D002B0ED0BB7D1846FEF741
:10324800B9FB03460C48194613F036FB0B4BBA7D05
:103258001A700423FB7508E007E0094813F02CFBFB
:103268000123FB7501E00623FB75FB7D1846183723
:10327800BD4680BD54010020ACDC0108100B0020C5
:10328800FCDC010880B588B002AFF860B96013466D
:10329800FB710023FB75FB79154A0092F868B96841
:1032A8001A460023FEF712FE0346002B16D000F044
:1032B80023FF0346BB75BB7D002B0ED0BB7D184694
:1032C800FEF778FB03460B48194613F0F5FA0A4B4C
:1032D800BA7D1A700423FB7505E004E0074813F073
:1032E800EBFA0123FB75FB7D18461837BD4680BDF8
:1032F8000C09002058DD0108100B0020A4DD01088E
:1033080080B588B002AFF860B9601346FB7100233E
:10331800FB75FB79154A0092F868B9681A460223CA
:10332800FEF7D4FD0346002B16D0FB79F868B96880
:103338001A4601F0F3F80346BB75BB7D002B0AD093
:10334800BB7D0B48194613F0B7FA0A4BBA7D1A70C1
:103358000423FB7505E004E0074813F0ADFA0123E8
:10336800FB75FB7D18461837BD4680BD5801002007
:1033780000DE0108100B00204CDE010880B58CB07F
:1033880002AFF860B9601346FB71002387F8273055
:10339800FB79554A0092F868B9681A460223FEF785
:1033A80095FD0346002B00F0928000233B6200232A
:1033B800FB77FF23FB750023BB6150E04A4BBA69DA
:1033C80053F82220FB79F86811461A4600F0FEFCF3
:1033D8000346FB7597F91730002B38DBBB69002BC8
:1033E80002D0012B1ED02FE0404813F065FA97F960
:1033F80017201346DB0013449B00BA681344184691
:10340800FEF7AAFD0346FB7797F917201346DB0062
:1034180013449B00BA681344FA7F10461946FEF716
:10342800ADFF14E0324813F047FA97F91720134616
:10343800DB0013449B00BA681344184600210A2293
:1034480014F0C0FA386202E0032387F8273097F8AF
:103458002730002B00D005E0BB690133BB61BB6995
:10346800012BABDD97F82730002B2FD1FB7F032BE7
:1034780026D801A252F823F091340008AD34000890
:103488009F340008BB3400083B6A1A4819460122D9
:1034980001F0AEFE17E03B6A16481946002201F01B
:1034A800A7FE10E03B6A13481946002201F0A0FE6F
:1034B80009E03B6A0F481946002201F099FE02E034
:1034C800042387F8273002F0DFF906E005E00A4810
:1034D80013F0F2F9012387F8273097F827301846B8
:1034E8002837BD4680BD00BF60010020ACD8010868
:1034F800C4D8010838550020A4DE010880B588B07A
:1035080002AFF860B9601346FB710023FB7502F047
:1035180021FA0346002B2CD1FB79194A0092F8684E
:10352800B9681A460223FEF7D1FC0346002B1AD0CD
:10353800FB79F868B9681A4600F068FE0346BB755F
:10354800BB7D002B0ED0BB7D1846FEF733FA034631
:103558000C48194613F0B0F90B4BBA7D1A700423C6
:10356800FB7508E007E0094813F0A6F90123FB758D
:1035780001E00723FB75FB7D18461837BD4680BD63
:1035880068010020FCDE0108100B002050DF010854
:1035980080B588B002AFF860B9601346FB710023AC
:1035A800FB7502F0D7F90346002B2CD1FB79194A99
:1035B8000092F868B9681A460123FEF787FC0346AB
:1035C800002B1AD0FB79F868B9681A4600F012FF88
:1035D8000346BB75BB7D002B0ED0BB7D1846FEF79E
:1035E800E9F903460C48194613F066F90B4BBA7D06
:1035F8001A700423FB7508E007E0094813F05CF92A
:103608000123FB7501E00723FB75FB7D184618377E
:10361800BD4680BD70010020B0DF0108100B0020FE
:1036280000E0010880B487B000AFF860B9601346C5
:10363800FB710023FB75FB7D18461C37BD465DF802
:10364800047B704780B58AB002AFF860B960134652
:10365800FB710023FB77FB79384A0092F868B96858
:103668001A460123FEF732FC0346002B5CD00023E8
:10367800BB61FF23FB7400237B612DE02F4B7A692C
:1036880053F82220FB79F86811461A4600F09EFB91
:103698000346FB7497F91330002B16DB7B69002B6C
:1036A80011D1274813F008F997F913201346DB00C6
:1036B80013449B00BA681344184600210A2214F0E8
:1036C80081F9B86101E00323FB77FB7F002B00D071
:1036D80005E07B6901337B617B69002BCEDDFB7FD5
:1036E800002B20D103200021FEF75CFC03200021E1
:1036F800FEF74EFD03200021FEF740FEBB6911488E
:103708001946002204F05CF8BB690F4819460022EC
:1037180001F01AFFBB690D481946002201F068FD47
:1037280002F0C2F805E004E0094813F0C5F80123E7
:10373800FB77FB7F18462037BD4680BD740100200B
:10374800C4D80108A454002044540020385500204F
:10375800DCD80108F0B58DB006AF0023FB7407F084
:10376800AFF978617B69002B01D1494B7B6107F088
:103778009BF90346BB7407F0ADF9F86007F0D4F97C
:10378800B86007F0DBF9786000233B60414A424BA0
:10379800144607CB20606160A2601A889B78A281DA
:1037A800A3730E233B603A683A4B134418463321FF
:1037B8003A4A7B6913F0E6F803463A6813443B60DB
:1037C8003B68023B3B603A68324B1A44BB7C7968E1
:1037D800CDB27968090ACCB27968090CC8B279689F
:1037E800090E009501940290039110464FF4FA7166
:1037F8002B4A13F0C7F803463A6813443B603A680B
:10380800244B1A44FB68DBB2F968090ACCB2F968A0
:10381800090CC8B2F968090E00940190029110468B
:103828004FF4FA711F4A13F0ADF803463A6813448F
:103838003B603A68174B1A44BB681B78B96801317A
:1038480009780E46B968023109780D46B96803311E
:1038580009780C46B968043109780846B968053111
:1038680009780096019502940390049110464FF44C
:10387800FA710D4A13F086F803463A6813443B6020
:10388800044806F045FEFB7C18461C37BD46F0BDD3
:103898005CE001088C3B012064E0010874E0010849
:1038A8008CE00108C8E00108E8E0010880B487B0AE
:1038B80000AFF860B9601346FB710023FB75FB7D10
:1038C80018461C37BD465DF8047B704780B487B046
:1038D80000AFF860B9601346FB710023FB75FB7DF0
:1038E80018461C37BD465DF8047B704780B487B026
:1038F80000AFF860B9601346FB710023FB75FB7DD0
:1039080018461C37BD465DF8047B704780B586B005
:1039180000AFF860B9601346FB710023FB7500F037
:103928000BFB0346BB75BB7D012B01D1094B00E0A6
:10393800094B0A484FF4FA71094A13F023F8034671
:103948007B75064806F0E4FDFB7D18461837BD4632
:1039580080BD00BF18E1010820E101088C3B01206F
:1039680028E1010880B586B000AFF860B960134659
:10397800FB710023FB7507F09DFD0346092B14BF5F
:1039880000230123DBB2BB75BB7D012B04D00423CC
:10399800FB75044B17221A70FB7D18461837BD4675
:1039A80080BD00BF100B002080B485B000AFF86068
:1039B800B9601346FB7118461437BD465DF8047BA1
:1039C800704700BF80B58CB002AFF860B96013468D
:1039D800FB71002387F82730FB79364A0092F86894
:1039E800B9681A460123FEF771FA0346002B5BD02B
:1039F800FF23FB7700233B6253E02E4B3A6A53F8D0
:103A08002220FB79F86811461A4600F0DFF90346D0
:103A1800FB7797F91F30002B3BDB3B6A002B35D136
:103A2800254812F049FF12F0FBFE034600221A60F7
:103A380097F91F201346DB0013449B00BA68134410
:103A48001846002113F0B8FE87ED060A12F0E8FECA
:103A580003461B68002B03D0032387F8273018E0A0
:103A680097ED060A07F046FD0346092B14BF00230D
:103A78000123DBB2FB75FB7D012B06D0042387F8FD
:103A880027300E4B18221A7003E002E0032387F850
:103A9800273097F82730002B00D005E03B6A013328
:103AA8003B623B6A002BA8DD97F827301846283779
:103AB800BD4680BD7801002040E10108100B0020C0
:103AC80080B58CB002AFF860B9601346FB71002373
:103AD80087F82730FB79364A0092F868B9681A46A1
:103AE8000123FEF7F3F90346002B5BD0FF23FB7796
:103AF80000233B6253E02E4B3A6A53F82220FB79AD
:103B0800F86811461A4600F061F90346FB7797F901
:103B18001F30002B3BDB3B6A002B35D1254812F0C8
:103B2800CBFE12F07DFE034600221A6097F91F2093
:103B38001346DB0013449B00BA681344184600215F
:103B480013F03AFE87ED060A12F06AFE03461B6878
:103B5800002B03D0032387F8273018E097ED060AD7
:103B680007F0F4FC0346092B14BF00230123DBB242
:103B7800FB75FB7D012B06D0042387F827300E4BFD
:103B880018221A7003E002E0032387F8273097F819
:103B98002730002B00D005E03B6A01333B623B6ACB
:103BA800002BA8DD97F8273018462837BD4680BD7A
:103BB8007C01002040E10108100B002080B58CB08A
:103BC80002AFF860B9601346FB71002387F827300D
:103BD800FB79364A0092F868B9681A460123FEF75D
:103BE80075F90346002B5BD0FF23FB7700233B626C
:103BF80053E02E4B3A6A53F82220FB79F8681146B5
:103C08001A4600F0E3F80346FB7797F91F30002BBC
:103C18003BDB3B6A002B35D1254812F04DFE12F0F4
:103C2800FFFD034600221A6097F91F201346DB00A8
:103C380013449B00BA6813441846002113F0BCFDD6
:103C480087ED060A12F0ECFD03461B68002B03D033
:103C5800032387F8273018E097ED060A07F0A2FC3F
:103C68000346092B14BF00230123DBB2FB75FB7D40
:103C7800012B06D0042387F827300E4B18221A7020
:103C880003E002E0032387F8273097F82730002B5A
:103C980000D005E03B6A01333B623B6A002BA8DD9C
:103CA80097F8273018462837BD4680BD8001002088
:103CB80040E10108100B002080B500AF00F002F8C9
:103CC80080BD00BF80B483B000AF00237B6007E0F5
:103CD8000A4A7B68134400221A707B6801337B60B0
:103CE8007B68B3F5007FF3D3044B0022A3F80022CE
:103CF8000C37BD465DF8047B704700BF0C090020F7
:103D080080B582B000AF0346FB71FB79002B58D019
:103D18002D4BB3F80032B3F5007F52D2FB790A2B52
:103D280002D0FB790D2B04D1FDF7B6FEFFF7CAFFD1
:103D380047E0FB79082B02D0FB797F2B14D1224B6B
:103D4800B3F80032002B0ED01F4BB3F80032013B02
:103D58009AB21D4BA3F800221B4BB3F800321A4A43
:103D68000021D1542DE02CE0FB79202B1BD1164BE0
:103D7800B3F80032002B24D0134BB3F80032013BC8
:103D8800114AD35C202B1CD00F4BB3F800320E4ADB
:103D9800F979D1540C4BB3F8003201339AB20A4B7B
:103DA800A3F800220DE0084BB3F80032064AF9796F
:103DB800D154054BB3F8003201339AB2024BA3F841
:103DC80000220837BD4680BD0C09002080B586B0AA
:103DD80000AFF860B9601346FB71FF23FB75002341
:103DE8003B6113E03A691346DB0013449B00FA6811
:103DF80013441846B968FCF7EDF90346002B02D1C5
:103E08003B69FB7506E03B6901333B61FA793B6925
:103E18009A42E7D8FB7D5BB218461837BD4680BD8D
:103E280080B588B000AFF860B9601346FB71002315
:103E3800FB77FF23BB7700237B7772233B77002335
:103E4800FB7600237B6100BFFB7E184608F03AFB37
:103E58003B7F184608F0F2FB7B7F184608F086FB8C
:103E6800FB7F18462037BD4680BD00BF80B582B0B5
:103E780000AF0023FB7103F091FBFB79184608376C
:103E8800BD4680BD80B588B000AFF860B960134604
:103E9800FB710023FB77FB79F868B9681A46FFF7CE
:103EA800BFFF0346FB770023BB77FF23FB75002387
:103EB800BB6133E01F4BBA6953F82220FB79F868DD
:103EC80011461A46FFF782FF0346FB7597F917302C
:103ED800002B14DBBB69032B0ED197F9172013466F
:103EE800DB0013449B00BA681344184607F080FFB0
:103EF8000346BB7700BF0EE00423FB770BE0BB69EA
:103F0800002B05D0BB69012B02D0BB69022B00D165
:103F180001E00223FB77BB690133BB61BB69032B5B
:103F2800C8D9BB7F184603F071FBFB7F18462037C2
:103F3800BD4680BD3401002080B584B000AF0123A8
:103F4800FB7301F05DFD87ED020A01F087FD87ED47
:103F5800010A97ED027ADFED0A7AB4EEE77AF1EE1C
:103F680010FA06DCD7ED017AF5EEC07AF1EE10FA18
:103F780001D50023FB73FB7B18461037BD4680BD77
:103F88000000484280B582B000AF0346FB71FB7960
:103F9800184600F019F80346002B0AD0FA791346A0
:103FA800DB009B1ADB00064A1344184600F01EF893
:103FB80002E0044812F080FC0837BD4680BD00BF0F
:103FC800180B002060E1010880B483B000AF0346FD
:103FD800FB71FB790F2B01D8012300E00023184661
:103FE8000C37BD465DF8047B704700BF80B483B0D2
:103FF80000AF78607B6801221A707B6801229A768C
:1040080079684FF000024FF00003C1E908237B688C
:1040180002330C4A1068186012791A717B68FF2203
:104028005A707B68032283F8302079684FF00002C9
:104038004FF00003C1E90A230C37BD465DF8047B45
:10404800704700BFC0E1010880B584B000AF786058
:104058000B46FB707B685B7803F00703DBB24FF419
:10406800E060194607F0AAFC0346FB737B685B789F
:10407800BB73BB7B072B02D9BB7B083BBB73BB7BEA
:10408800012202FA03F37B73FB78012B04D1FA7B3C
:104098007B7B1343FB7303E0FA7B7B7B5340FB730F
:1040A8007B685B7803F00703DBB2FA7B4FF4E060D0
:1040B80011461A4607F032FC1037BD4680BD00BFD6
:1040C80080B582B000AF00237B600CE07A681346AD
:1040D800DB009B1ADB00074A13441846FFF786FFEC
:1040E8007B6801337B607B680F2BEFD90837BD46AF
:1040F80080BD00BF180B00202DE9F04194B002AF3D
:10410800002387F8473006F089FD394B394A1446B1
:104118001D4604F130082E46A446BCE80F00306066
:104128007160B260F360103410354445F3D12B460A
:10413800224612881A80312387F83F3097F83F309B
:10414800002B06D12C4812F0B7FB162387F847300E
:1041580046E02A4B1B68002B03D0284B1B682448D9
:10416800984700233B6438E025493A6C1346DB0046
:104178009B1ADB000B443C461D460FCD0FC40FCDE8
:104188000FC40FCD0FC495E8030084E803003B7803
:10419800002B1FD17B783A460232009214484FF424
:1041A800FA71184A12F0EEFB034687F83F3097F889
:1041B8003F30002B06D1144812F07EFB162387F8F7
:1041C80047300DE00D4B1B68002B03D00B4B1B68D1
:1041D800074898473B6C01333B643B6C0F2BC3D9B2
:1041E80097F8473018464837BD46BDE8F08100BF0C
:1041F8008C3B0120C8E10108FCE10108140B0020F8
:10420800180B002030E2010854E2010880B590B094
:1042180000AFF860B9607A60002387F83F30002368
:10422800BB62FF2387F83730FF2387F83E30FF2330
:1042380087F8363007F110035A4A92E803001860ED
:10424800043319700023BB6366E0574BBA6B53F80D
:1042580022207B68DBB2F86811461A46FFF7B6FDE4
:10426800034687F8373097F93730002B3DDB97F94D
:1042780037201346DB0013449B00BA6813443B63A2
:10428800BB6B002B02D0012B23D029E007F12803B8
:10429800386B19460A2213F095FB034687F8363027
:1042A800BA6A3B6B9A4203D1122387F83F300FE07A
:1042B80097F83630102B04D897F8363087F83E3008
:1042C80006E03A4812F0F8FA0F2387F83F300BE07F
:1042D8000AE007F110031846396B12F0B6FB03E049
:1042E800122387F83F300FE00EE0BB6B012B00D1A3
:1042F8000FE02D4BBA6B53F822302D48194612F0B7
:10430800DBFA102387F83F3097F83F30002B00D0B6
:1043180005E0BB6B0133BB63BB6B012B95DD97F8E5
:104328003F30002B38D197F83E30FF2B31D097F82B
:104338003E30184600F0D2F8F862FB6A002B24D011
:10434800FB6A1B78002B1CD0FB6A97F83E205A703A
:10435800FB6A9A1C07F110031046194612F075FB08
:10436800FB6A01229A76F96A4FF000024FF00003C7
:10437800C1E90823F86A00F01DF8034687F83F30C2
:104388000AE0142387F83F3006E0112387F83F300E
:1043980002E0132387F83F3097F83F30184640373C
:1043A800BD4680BDC0E101086801002088E201081F
:1043B800C4E2010880B584B000AF78600023FB73C5
:1043C8007B685B78BB73BB7B0F2B07D87B680022AD
:1043D8001A7078680121FFF737FE04E0044812F0EC
:1043E8006BFA0F23FB73FB7B18461037BD4680BD65
:1043F800FCE2010880B58AB000AFF860B9607A6065
:10440800002387F82730FF23FB7700233B6255E022
:104418002F4B3A6A53F822207B68DBB2F8681146C2
:104428001A46FFF7D3FC0346FB7797F91F30002B9A
:1044380036DB97F91F201346DB0013449B00BA684C
:104448001344BB613B6A002B26D100233B6107F173
:104458001003B86919460A2213F0B4FA0346FB752B
:104468003A69BB699A4203D1122387F8273011E0D1
:10447800FB7D1846FFF7A8FD0346002B04D0FB7D03
:104488001846FFF77FFD05E0124812F015FA0F23D2
:1044980087F8273000BF0EE0122387F827300AE09C
:1044A8000B4B3A6A53F822300B48194612F004FABB
:1044B800102387F827303B6A01333B623B6A002BA5
:1044C800A6D097F8273018462837BD4680BD00BFCC
:1044D8007001002060E30108C4E2010880B582B0E1
:1044E80000AF0346FB71FB791846FFF76DFD0346E5
:1044F800002B07D0FA791346DB009B1ADB00054A2C
:10450800134403E0044812F0D7F90023184608378B
:10451800BD4680BD180B00209CE3010880B58CB017
:1045280000AFF860B9601346FB71002387F82F309D
:10453800FF2387F82730FF2387F82E30002387F8DA
:104548002D300023BB6268E04D4BBA6A53F8222035
:10455800FB79F86811461A46FFF738FC034687F8D6
:10456800273097F92730002B44DB97F9272013468B
:10457800DB0013449B00BA6813443B62BB6A002B00
:1045880002D0012B22D030E000237B6107F1140315
:10459800386A19460A2213F015FA0346FB777A6936
:1045A8003B6A9A4203D1122387F82F300CE0FB7F35
:1045B800102B03D8FB7F87F82E3005E0314812F026
:1045C8007BF90F2387F82F3000BF12E0386A2E4995
:1045D800FBF700FE0346002B03D1012387F82D309B
:1045E80007E0002387F82D3003E0122387F82F30E7
:1045F8000BE00AE0224BBA6A53F8223023481946E6
:1046080012F05AF9102387F82F3097F82F30002B23
:1046180000D005E0BB6A0133BB62BB6A012B93DDA6
:1046280097F82F30002B25D197F82E30FF2B1ED06E
:1046380097F82E301846FFF751FFB861BB69002B79
:1046480011D0BB691B78002B06D197F82D30B869BB
:104658001946FFF7F9FC0DE00D4812F02DF9152366
:1046680087F82F3006E0112387F82F3002E0132354
:1046780087F82F3097F82F3018463037BD4680BD61
:104688005801002088E2010800E40108C4E201089A
:1046980004E4010880B483B000AF7860034B7A6803
:1046A8001A600C37BD465DF8047B7047140B002078
:1046B800B0B590B000AF002387F83F3007F0F8F8A6
:1046C8000023BB6320E01549BA6B1346DB009B1A35
:1046D800DB000B443C461D460FCD0FC40FCD0FC465
:1046E8000FCD0FC495E8030084E803003B78002B46
:1046F80007D197F83030032B03D0012387F83F30D8
:1047080005E0BB6B0133BB63BB6B0F2BDBD997F8A1
:104718003F3018464037BD46B0BD00BF180B0020DB
:1047280090B585B000AF13460246FA710A46BA71D1
:104738007B710023FB73BB790133DBB27A7902FB0F
:1047480003F3BB73BB7B0F2B18D8BA7B10491346F6
:10475800DB009B1ADB000B443033FA791A70BC7B00
:1047680005F0EEFF0A4A2346DB001B1BDB0013445F
:104778002833C3E900010123FB7304E0054812F064
:104788009BF80023FB73FB7B18461437BD4690BD8E
:10479800180B002030E5010880B584B000AF03464F
:1047A800FB710023FB73FB79172B00F2E88001A251
:1047B80052F823F01D4800082B4800083948000823
:1047C8004948000859480008674800087548000823
:1047D8008548000895480008A5480008B54800081D
:1047E800C3480008D3480008E1480008EF4800081B
:1047F800FD4800080D4900081D4900082B4900081C
:10480800394900084949000857490008674900081C
:10481800774900085F48202110F0C4FD0346FB7368
:10482800AEE05C48102110F0BDFD0346FB73A7E025
:1048380059484FF4807110F0B5FD0346FB739FE0B3
:1048480055484FF4006110F0ADFD0346FB7397E047
:104858005248012110F0A6FD0346FB7390E04F4833
:10486800102110F09FFD0346FB7389E04C484FF47C
:10487800006110F097FD0346FB7381E048484FF450
:10488800004110F08FFD0346FB7379E041484FF477
:10489800807110F087FD0346FB7371E03D484FF4CB
:1048A800805110F07FFD0346FB7369E03B484021CF
:1048B80010F078FD0346FB7362E038484FF400615E
:1048C80010F070FD0346FB735AE03248082110F0DF
:1048D80069FD0346FB7353E02E48042110F062FD86
:1048E8000346FB734CE02B48402110F05BFD034668
:1048F800FB7345E02B484FF4804110F053FD03460D
:10490800FB733DE026484FF4007110F04BFD034661
:10491800FB7335E02148042110F044FD0346FB7386
:104928002EE02148022110F03DFD0346FB7327E0ED
:104938001B484FF4005110F035FD0346FB731FE090
:104948001A48022110F02EFD0346FB7318E01148A7
:104958004FF4806110F026FD0346FB7310E00F480A
:104968004FF4807110F01EFD0346FB7308E00B48FE
:104978004FF4806110F016FD0346FB7300E000BFA2
:10498800FB7B002B01D0002300E0012318461037E1
:10499800BD4680BD0010024000200240001C0240BD
:1049A80000140240000802400004024000180240BF
:1049B80080B483B000AF0346FB71FB79172B01D895
:1049C800012300E0002318460C37BD465DF8047B40
:1049D800704700BF80B483B000AF78607B68012265
:1049E8001A707B6801229A7679684FF000024FF0BE
:1049F8000003C1E908237B680233064A106818607F
:104A080012791A717B68FF225A700C37BD465DF81F
:104A1800047B70477CE5010880B582B000AF03468F
:104A2800FB71FB791846FFF7C3FF0346002B0AD03A
:104A3800FA7913469B001344DB00064A13441846D0
:104A4800FFF7C8FF02E0044811F036FF0837BD46FB
:104A580080BD00BFA00E002084E5010880B584B0A9
:104A680000AF4FF4FB70012110F032FB00233B72C2
:104A78000023FB7202237B603B1D2448194610F07B
:104A880003FC4FF480437B603B1D2148194610F01E
:104A9800FBFB41F27C537B603B1D1E48194610F01E
:104AA800F3FB4FF42A437B603B1D1B48194610F06B
:104AB800EBFB02237B603B1D1848194610F0E4FB12
:104AC80040F655537B603B1D1548194610F0DCFB3A
:104AD8004FF410637B603B1D1248194610F0D4FB5D
:104AE8000023FB600CE0FA6813469B001344DB00CC
:104AF8000D4A13441846FFF76DFFFB680133FB604E
:104B0800FB68172BEFD91037BD4680BD0004024063
:104B18000008024000100240001402400018024041
:104B2800001C024000200240A00E00202DE9F041A8
:104B380090B002AF002387F83730384B384A144614
:104B48001D4604F130082E46A446BCE80F0030602C
:104B58007160B260F360103410354445F3D12B46D0
:104B6800224612781A70302387F82F3097F82F30A2
:104B7800002B06D12B4811F09FFE0E2387F8373003
:104B880044E0294B1B68002B03D0274B1B682348A4
:104B9800984700233B6336E024493A6B13469B0051
:104BA8001344DB000B443C461D460FCD0FC40FCD0C
:104BB8000FC495E8030084E803003B78002B1FD15D
:104BC8007B783A460232009214484FF4FA71184A38
:104BD80011F0D8FE034687F82F3097F82F30002BB6
:104BE80006D1144811F068FE0E2387F837300DE01F
:104BF8000D4B1B68002B03D00B4B1B6807489847CD
:104C08003B6B01333B633B6B172BC5D997F83730A8
:104C180018463837BD46BDE8F08100BF8C3B0120FF
:104C2800E4E5010818E60108980E0020A00E00200F
:104C380048E601086CE6010880B590B000AFF8605E
:104C4800B9607A60002387F83F300023BB62FF23F6
:104C580087F83730FF2387F83E30FF2387F8363050
:104C680007F11003594A92E80300186004331970D9
:104C78000023BB6366E0564BBA6B53F822207B686F
:104C8800DBB2F86811461A46FFF7A0F8034687F822
:104C9800373097F93730002B3DDB97F9372013462B
:104CA800DB0013449B00BA6813443B63BB6B002BC7
:104CB80002D0012B23D029E007F12803386B1946CD
:104CC8000A2212F07FFE034687F83630BA6A3B6B39
:104CD8009A4203D10B2387F83F300FE097F836301C
:104CE800182B04D897F8363087F83E3006E0394854
:104CF80011F0E2FD082387F83F300BE00AE007F1E6
:104D080010031846396B11F0A0FE03E00B2387F857
:104D18003F300FE00EE0BB6B012B00D10FE02C4BB6
:104D2800BA6B53F822302C48194611F0C5FD0923F7
:104D380087F83F3097F83F30002B00D005E0BB6B79
:104D48000133BB63BB6B012B95DD97F83F30002B1C
:104D580036D197F83E30FF2B2FD097F83E301846C3
:104D680000F0D2F8F862FB6A002B24D0FB6A1B78AB
:104D7800012B1CD1FB6A97F83E205A70FB6A9A1CDB
:104D880007F110031046194611F05FFEFB6A012275
:104D98009A76F96A4FF000024FF00003C1E9082340
:104DA800F86A00F01BF8034687F83F3008E00D2347
:104DB80087F83F3004E00A2304E00C2387F83F30EB
:104DC80097F83F3018464037BD4680BD7CE501085E
:104DD8004C0100209CE60108D8E6010880B584B0A3
:104DE80000AF78600023FB737B685B78BB73BB7B89
:104DF800172B06D87B6800221A70074811F05CFD53
:104E080004E0064811F058FD0823FB73FB7B1846A5
:104E18001037BD4680BD00BF0CE7010844E7010814
:104E280080B58AB000AFF860B9607A60002387F86F
:104E38002730FF23FB7700233B6255E02F4B3A6A6C
:104E480053F822207B68DBB2F86811461A46FEF751
:104E5800BDFF0346FB7797F91F30002B36DB97F928
:104E68001F201346DB0013449B00BA681344BB6140
:104E78003B6A002B26D100233B6107F11003B86978
:104E880019460A2212F09EFD0346FB753A69BB6972
:104E98009A4203D10B2387F8273011E0FB7D18468F
:104EA800FFF786FD0346002B04D0FB7D1846FFF76D
:104EB800B3FD05E0124811F0FFFC082387F82730FE
:104EC80000BF0EE00B2387F827300AE00B4B3A6A45
:104ED80053F822300B48194611F0EEFC092387F8E5
:104EE80027303B6A01333B623B6A002BA6D097F818
:104EF800273018462837BD4680BD00BF5401002022
:104F08009CE60108D8E6010880B582B000AF0346E8
:104F1800FB71FB791846FFF74BFD0346002B07D0C2
:104F2800FA7913469B001344DB00054A134403E057
:104F3800044811F0C1FC002318460837BD4680BD5F
:104F4800A00E002084E5010880B582B000AF78602B
:104F580005F0F6FB02460B467968C1E908237B6831
:104F68005B781846FFF718FC03461A467B689A7662
:104F78000837BD4680BD00BF80B483B000AF7860FD
:104F8800034B7A681A600C37BD465DF8047B70479E
:104F9800980E00202DE9F04188B004AF78607B6856
:104FA80003F102087B685B781E467B68D3E90845F5
:104FB8007B689B7E184605F00FFE0346CDE9004549
:104FC80002930C480C494246334611F00DFD034646
:104FD800FB730A4B1B68002B04D0084B1B68054861
:104FE800984702E0064811F067FC1037BD46BDE857
:104FF800F08100BF8C3B0120A4E70108980E002037
:1050080024E8010880B483B000AF0346FB71FA7945
:10501800044B53F8223018460C37BD465DF8047B24
:10502800704700BF8401002080B500AF034811F02D
:1050380043FC034B00221A7080BD00BF78E80108CA
:105048006012002080B500AF134B1B78002B0AD0EC
:10505800114B1B781846FFF7D5FF03460F48194632
:1050680011F02AFC16E00E4811F026FC06F0E4FBCD
:105078000C4806F0FFFC0C4B00221A600B4B002278
:105088001A600B4B00221A600A4B00221A70024B5E
:1050980001221A7080BD00BF60120020A8E8010834
:1050A800F0E801082947000864120020681200206F
:1050B8006C1200207012002080B582B000AF2E4B19
:1050C8001B78042B54D801A252F823F0E9500008A9
:1050D800EF50000879510008F55000085B510008AE
:1050E800FFF7B0FF45E000F061F842E000233B60C5
:1050F800224B1A68224B1B689A421FD2214B1B78FD
:10510800012B05D11D4B1B685A1C1C4B1A6030E043
:1051180000237B6009E01C4B1A687B689B001344E2
:105128001B683B607B6801337B607B680F2BF2D97F
:10513800124B1B685A1C114B1A601AE0134811F0E5
:10514800BBFB134805F0E4F900F030F800F0DEFB93
:105158000FE00A4B00221A60094B00221A600A4B22
:1051680000221A60074B00221A7000F01FF800E0B6
:1051780000BF0837BD4680BD6012002068120020BD
:1051880064120020701200206C12002028E9010827
:105198005CE9010880B500AF034811F08DFB00F011
:1051A80005F800F0B3FB80BD7CE9010880B500AFCD
:1051B8000C4B1B78012B0ED00A4B1B78032B0AD003
:1051C800084B1B781846FFF71DFF0346064819468B
:1051D80011F072FB05E0054811F06EFB014B02224D
:1051E8001A7080BD60120020A8E90108E8E90108EA
:1051F80080B586B000AFF860B9601346FB71384BD4
:105208001B78022B0AD0364B1B781846FFF7FAFE9C
:1052180003463448194611F04FFB5EE0FB68002B4B
:1052280003D1314811F048FB57E0FB79012B0ED12F
:10523800FB681B68002B03D12C4811F03DFB4CE0A8
:105248002B4B00221A702B4B01221A701DE00023F1
:10525800FB750AE0FB7D9B00FA6813441B68002B72
:1052680000D005E0FB7D0133FB75FB7D0F2BF1D9E9
:10527800FB7D0F2B03D9204811F01EFB2DE01C4BA2
:10528800FA7D1A701B4B10221A701C4BFA681A60B0
:105298000023BB75194B1A68154B1B789B001344E8
:1052A8001B683B610DE0154B1A68BB7D0133BB756C
:1052B800BB7D9B0013441B683B61BB7D102B00D159
:1052C8000BE03B69002BEED00D4B00221A600D4B12
:1052D800BA681A60024B03221A701837BD4680BD9F
:1052E8006012002018EA010864EA0108D4EA0108FB
:1052F800711200207012002040EB01086C1200208F
:10530800681200206412002080B483B000AF034606
:10531800FB71FA79044B53F8223018460C37BD4616
:105328005DF8047B704700BF9801002080B500AF8E
:10533800034811F0C1FA034B00221A7080BD00BF68
:1053480038EC01087212002080B500AF104B1B78B2
:10535800002B0AD00E4B1B781846FFF7D5FF0346E3
:105368000C48194611F0A8FA11E00B4811F0A4FAFC
:105378000A4B00221A600A4B00221A60094B0022CD
:105388001A60094B00221A70014B01221A7080BD65
:105398007212002068EC0108B0EC010874120020B9
:1053A800781200207C1200208012002080B582B084
:1053B80000AF464B1B78042B00F2848001A252F800
:1053C80023F000BFE1530008E7530008CD5400085C
:1053D800ED530008AF540008FFF7B6FF73E000F084
:1053E80091F870E03A4B1A683A4B1B789B001344CB
:1053F8001B683B60384B1A68384B1B689A4203D3CA
:10540800364B1B68002B42D1354B1B78012B11D131
:105418002F4B1B681B681846FFF796FD2C4B1B6823
:105428001B681846FFF7B6FD2B4B1B685A1C2A4B06
:105438001A6037E000237B6020E0254B1A687B6800
:105448009B0013441B683B603B68002B0CBF002388
:105458000123DAB23B681B78002B14BF0023012319
:10546800DBB21340DBB2002B05D03868FFF76CFDC8
:105478003868FFF78FFD7B6801337B607B68172BEB
:10548800DBD9154B1B685A1C134B1A600AE01548E8
:1054980011F012FA144805F03BF800F033F800F068
:1054A80029FA10E00FE00C4B00221A600B4B002287
:1054B8001A60074B00221A60094B00221A7000F08C
:1054C80021F800E000BF0837BD4680BD72120020F9
:1054D8007C12002081120020781200207412002013
:1054E80080120020E8EC01081CED010880B500AF2F
:1054F800034811F0E1F900F005F800F0FBF980BD70
:105508003CED010880B500AF0C4B1B78012B0ED089
:105518000A4B1B78032B0AD0084B1B781846FFF759
:10552800F3FE03460648194611F0C6F905E005489A
:1055380011F0C2F9014B02221A7080BD72120020CC
:1055480068ED0108A8ED010880B588B000AFF860E3
:10555800B9601346FB71474B1B78022B0AD0454BA9
:105568001B781846FFF7D0FE03464348194611F04A
:10557800A3F97BE0FB68002B03D1404811F09CF9AC
:1055880074E03F4B00221A603E4BBA681A60FB7900
:10559800012B17D1FB681B68002B03D13A4811F087
:1055A8008BF963E0FB681B681B78012B03D1374834
:1055B80011F082F95AE0364B00221A70354B01225D
:1055C8001A7025E00023FB7712E0FB7F9B00FA6846
:1055D80013441B68002B08D0FB7F9B00FA68134418
:1055E8001B681B78002B00D105E0FB7F0133FB779C
:1055F800FB7F172BE9D9FB7F172B03D9264811F01E
:105608005BF933E0224BFA7F1A70224B18221A708A
:10561800224BFA681A60214B1A681D4B1B789B00B5
:1056280013441B68BB61BB69002B16D10023FB75B3
:105638000DE01A4B1A68FB7D0133FB75FB7D9B005F
:1056480013441B68BB61FB7D182B00D10EE0BB69BE
:10565800002BEED00E4BFA7D1A70094B00221A600F
:10566800084BBA681A60034B03221A702037BD46EC
:1056780080BD00BF72120020D8ED010824EE010899
:10568800781200207412002094EE010800EF01083F
:10569800811200208012002070EF01087C12002087
:1056A80080B500AF074B00221A7001F027FF01F008
:1056B80033FFFFF73BFEFFF747FEFFF7B5FCFFF7A9
:1056C800C1FC80BD8212002080B500AF2F4B1B7833
:1056D800052B58D801A252F823F000BFFD56000848
:1056E800115700081F570008355700084B57000886
:1056F8006157000801F0BAFFFFF758FEFFF7DCFC1E
:10570800224B01221A703FE001F0B0FFFFF74EFE76
:10571800FFF7D2FC38E01E4B1B78012B02D101F0B9
:10572800A5FF31E0194B01221A702DE0194B1B78A7
:10573800012B02D1FFF73AFE26E0144B01221A7022
:1057480022E0154B1B78012B02D1FFF7B5FC1BE0BB
:105758000E4B01221A7017E00D4B1B78012B07D056
:105768000C4B1B78012B03D00B4B1B78012B06D15C
:1057780001F07CFFFFF71AFEFFF79EFC04E0034BE5
:1057880001221A7000E000BF80BD00BF8212002015
:1057980083120020841200208512002080B500AFFB
:1057A800224811F089F8224B1B78052B36D801A224
:1057B80052F823F02F5800082F580008D557000832
:1057C800E7570008F95700080B580008194811F066
:1057D80073F801F0A9FF164B01221A7024E016484D
:1057E80011F06AF8FFF782FE114B01221A701BE0D4
:1057F800124811F061F8FFF7CDFC0D4B01221A7029
:1058080012E00F4811F058F801F08EFFFFF76EFE16
:10581800FFF7C0FC064B01221A7005E0094811F099
:105828004BF800BF00E000BF80BD00BF64F0010876
:10583800821200208CF00108C0F00108F4F0010881
:1058480028F1010850F1010880B400AF044B02228E
:105858001A70044B01221A70BD465DF8047B70472C
:10586800821200208312002080B400AF044B032270
:105878001A70044B01221A70BD465DF8047B70470C
:10588800821200208412002080B400AF044B04224E
:105898001A70044B01221A70BD465DF8047B7047EC
:1058A800821200208512002080B400AF074B052229
:1058B8001A70074B01221A70064B01221A70064B08
:1058C80001221A70BD465DF8047B704782120020E1
:1058D80083120020841200208512002080B400AFBB
:1058E800034B00221A70BD465DF8047B704700BF69
:1058F8008312002080B400AF034B00221A70BD460B
:105908005DF8047B704700BF8412002080B400AFAC
:10591800034B00221A70BD465DF8047B704700BF38
:105928008512002080B400AF034B1B781846BD4693
:105938005DF8047B704700BF8312002080B400AF7D
:10594800034B1B781846BD465DF8047B704700BFC3
:105958008412002080B400AF034B1B781846BD4664
:105968005DF8047B704700BF8512002080B584B0C5
:1059780000AF78603960184BFB603B68002B02DA97
:10598800FB680133FB607B6893F8DC34184606F04B
:1059980001FE034606EE103AF8EEC67AB1EE047A36
:1059A80087EE277ADFED0D7A27EE277A3B6807EE38
:1059B800903AF8EEE76AFB6806EE103AF8EEC67A17
:1059C800C6EEA77A67EE277A054BC3ED007A00BFCB
:1059D8001037BD4680BD00BFFFFF7F000000C842F2
:1059E8008812002080B400AF044B1B6807EE903A81
:1059F800B0EE670ABD465DF8047B70478812002048
:105A080080B500AF114BD3ED007AF5EE407AF1EE98
:105A180010FA13D100200E4903F01CFE01200D4995
:105A280003F018FE0A4B1B881A040A4B1B881A43FA
:105A3800094B1A60084B1A68044B1A60034B1B6821
:105A480007EE903AB0EE670A80BD00BF8C120020C6
:105A580096120020941200209C12002080B500AFFE
:105A6800114BD3ED007AF5EE407AF1EE10FA13D12E
:105A780002200E4903F0EEFD03200D4903F0EAFD74
:105A88000A4B1B881A040A4B1B881A43094B1A60D5
:105A9800084B1A68044B1A60034B1B6807EE903AD0
:105AA800B0EE670A80BD00BF901200209A12002055
:105AB800981200209C12002080B485B000AF786056
:105AC8007B68012283F8DB247B68002283F8DC24CE
