:020000040800F2
:1000000000000220B917000849150008551500081E
:10001000BD160008C5160008CD1600080000000037
:10002000000000000000000000000000111800089F
:10003000D51600080000000011180008E11600089D
:1000400011180008111800081118000811180008EC
:1000500011180008111800081118000811180008DC
:1000600011180008111800081118000811180008CC
:1000700011180008111800081118000811180008BC
:1000800011180008111800081118000811180008AC
:100090007517000811180008111800081118000839
:1000A000111800081118000811180008111800088C
:1000B000111800081118000811180008111800087C
:1000C000111800081118000811180008111800086C
:1000D000111800081118000811180008111800085C
:1000E000ED16000811180008111800081118000872
:1000F000111800081118000811180008111800083C
:10010000111800081118000811170008111800082C
:10011000111800081118000811180008111800081B
:10012000111800081118000811180008111800080B
:1001300011180008111800081118000811180008FB
:1001400011180008111800081118000811180008EB
:1001500011180008111800081118000811180008DB
:1001600011180008111800081118000811180008CB
:1001700011180008111800081118000800000000EC
:08018000111800081118000815
:1001880010B5054C237833B9044B13B10448AFF3C9
:1001980000800123237010BDB80900200000000072
:1001A80024ED010808B5064B1BB106480649AFF314
:1001B80000800648036813B1054B03B1984708BD92
:1001C8000000000024ED0108BC090020B40900204B
:1001D8000000000010F8012B11F8013B012A28BF8C
:1001E8009A42F7D0D01A704781F0004102E000BF70
:1001F80083F0004330B54FEA41044FEA430594EADF
:10020800050F08BF90EA020F1FBF54EA000C55EA19
:10021800020C7FEA645C7FEA655C00F0E2804FEAEA
:100228005454D4EB5555B8BF6D420CDD2C4480EACC
:10023800020281EA030382EA000083EA010180EAFC
:10024800020281EA0303362D88BF30BD11F0004F4A
:100258004FEA01314FF4801C4CEA113102D0404280
:1002680061EB410113F0004F4FEA03334CEA1333BB
:1002780002D0524263EB430394EA050F00F0A780D3
:10028800A4F10104D5F1200E0DDB02FA0EFC22FACE
:1002980005F2801841F1000103FA0EF2801843FAC2
:1002A80005F359410EE0A5F120050EF1200E012AB3
:1002B80003FA0EFC28BF4CF0020C43FA05F3C018F1
:1002C80051EBE37101F0004507D54FF0000EDCF16A
:1002D800000C7EEB00006EEB0101B1F5801F1BD313
:1002E800B1F5001F0CD349085FEA30004FEA3C0C17
:1002F80004F101044FEA445212F5800F80F09A800D
:10030800BCF1004F08BF5FEA500C50F1000041EB10
:10031800045141EA050130BD5FEA4C0C404141EB14
:10032800010111F4801FA4F10104E9D191F0000F3B
:1003380004BF01460020B1FA81F308BF2033A3F1BE
:100348000B03B3F120020CDA0C3208DD02F1140CB5
:10035800C2F10C0201FA0CF021FA02F10CE002F1F0
:100368001402D8BFC2F1200C01FA02F120FA0CFCE9
:10037800DCBF41EA0C019040E41AA2BF01EB045132
:10038800294330BD6FEA04041F3C1CDA0C340EDC30
:1003980004F11404C4F1200220FA04F001FA02F373
:1003A80040EA030021FA04F345EA030130BDC4F131
:1003B8000C04C4F1200220FA02F001FA04F340EA26
:1003C8000300294630BD21FA04F0294630BD94F0D7
:1003D800000F83F4801306BF81F480110134013DBE
:1003E8004EE77FEA645C18BF7FEA655C29D094EA2F
:1003F800050F08BF90EA020F05D054EA000C04BFAD
:100408001946104630BD91EA030F1EBF0021002097
:1004180030BD5FEA545C05D14000494128BF41F036
:10042800004130BD14F580043CBF01F5801130BD9A
:1004380001F0004545F0FE4141F470014FF0000025
:1004480030BD7FEA645C1ABF194610467FEA655CD6
:100458001CBF0B46024650EA013406BF52EA033578
:1004680091EA030F41F4002130BD00BF90F0000F66
:1004780004BF0021704730B54FF4806404F13204A2
:100488004FF000054FF0000150E700BF90F0000F5B
:1004980004BF0021704730B54FF4806404F1320482
:1004A80010F0004548BF40424FF000013EE700BF52
:1004B80042004FEAE2014FEA31014FEA02701FBFE2
:1004C80012F07F4393F07F4F81F06051704792F0B4
:1004D800000F14BF93F07F4F704730B54FF460742E
:1004E80001F0004521F0004120E700BF50EA010279
:1004F80008BF704730B54FF000050AE050EA010226
:1005080008BF704730B511F0004502D5404261EB95
:1005180041014FF4806404F132045FEA915C3FF4D6
:10052800DCAE4FF003025FEADC0C18BF03325FEA6F
:10053800DC0C18BF033202EBDC02C2F1200300FA24
:1005480003FC20FA02F001FA03FE40EA0E0021FA49
:1005580002F11444C1E600BF70B54FF0FF0C4CF433
:10056800E06C1CEA11541DBF1CEA135594EA0C0FE9
:1005780095EA0C0F00F0DEF82C4481EA030621EA24
:100588004C5123EA4C5350EA013518BF52EA03355F
:1005980041F4801143F4801338D0A0FB02CE4FF011
:1005A8000005E1FB02E506F00042E0FB03E54FF041
:1005B8000006E1FB03569CF0000F18BF4EF0010E39
:1005C800A4F1FF04B6F5007F64F5407404D25FEA35
:1005D8004E0E6D4146EB060642EAC62141EA5551E8
:1005E8004FEAC52040EA5E504FEACE2EB4F1FD0C2A
:1005F80088BFBCF5E06F1ED8BEF1004F08BF5FEAA8
:10060800500E50F1000041EB045170BD06F0004659
:1006180046EA010140EA020081EA0301B4EB5C0406
:10062800C2BFD4EB0C0541EA045170BD41F48011FE
:100638004FF0000E013C00F3AB8014F1360FDEBF23
:10064800002001F0004170BDC4F10004203C35DAFF
:100658000C341BDC04F11404C4F1200500FA05F382
:1006680020FA04F001FA05F240EA020001F0004223
:1006780021F0004110EBD37021FA04F642EB060199
:100688005EEA430E08BF20EAD37070BDC4F10C04C3
:10069800C4F1200500FA04F320FA05F001FA04F287
:1006A80040EA020001F0004110EBD37041F1000173
:1006B8005EEA430E08BF20EAD37070BDC4F120057E
:1006C80000FA05F24EEA020E20FA04F301FA05F2E6
:1006D80043EA020321FA04F001F0004121FA04F28E
:1006E80020EA020000EBD3705EEA430E08BF20EA5E
:1006F800D37070BD94F0000F0FD101F00046400098
:1007080041EB010111F4801F08BF013CF7D041EA19
:10071800060195F0000F18BF704703F0004652001D
:1007280043EB030313F4801F08BF013DF7D043EAEE
:100738000603704794EA0C0F0CEA135518BF95EAA4
:100748000C0F0CD050EA410618BF52EA4306D1D12B
:1007580081EA030101F000414FF0000070BD50EA4A
:10076800410606BF1046194652EA430619D094EAD4
:100778000C0F02D150EA013613D195EA0C0F05D1BE
:1007880052EA03361CBF104619460AD181EA030112
:1007980001F0004141F0FE4141F470014FF00000CA
:1007A80070BD41F0FE4141F4780170BD70B54FF065
:1007B800FF0C4CF4E06C1CEA11541DBF1CEA1355E5
:1007C80094EA0C0F95EA0C0F00F0A7F8A4EB0504C7
:1007D80081EA030E52EA03354FEA013100F08880BE
:1007E8004FEA03334FF0805545EA131343EA126387
:1007F8004FEA022245EA111545EA10654FEA00263C
:100808000EF000419D4208BF964244F1FD0404F5F4
:10081800407402D25B084FEA3202B61A65EB030550
:100828005B084FEA32024FF480104FF4002CB6EB0D
:10083800020E75EB030E22BFB61A754640EA0C008D
:100848005B084FEA3202B6EB020E75EB030E22BFCD
:10085800B61A754640EA5C005B084FEA3202B6EB0E
:10086800020E75EB030E22BFB61A754640EA9C00CD
:100878005B084FEA3202B6EB020E75EB030E22BF9D
:10088800B61A754640EADC0055EA060E18D04FEA5B
:10089800051545EA16754FEA06164FEAC30343EAFB
:1008A80052734FEAC2025FEA1C1CC0D111F4801FC8
:1008B8000BD141EA00014FF000004FF0004CB6E7C1
:1008C80011F4801F04BF01430020B4F1FD0C88BF60
:1008D800BCF5E06F3FF6AFAEB5EB030C04BFB6EB6B
:1008E800020C5FEA500C50F1000041EB045170BD5E
:1008F8000EF0004E4EEA113114EB5C04C2BFD4EB8B
:100908000C0541EA045170BD41F480114FF0000E0E
:10091800013C90E645EA060E8DE60CEA135594EA8A
:100928000C0F08BF95EA0C0F3FF43BAF94EA0C0F8D
:100938000AD150EA01347FF434AF95EA0C0F7FF402
:1009480025AF104619462CE795EA0C0F06D152EA56
:1009580003353FF4FDAE1046194622E750EA41063A
:1009680018BF52EA43067FF4C5AE50EA41047FF44B
:100978000DAF52EA43057FF4EBAE12E74FF0FF3CB0
:1009880006E000BF4FF0010C02E000BF4FF0010C81
:100998004DF804CD4FEA410C7FEA6C5C4FEA430CFA
:1009A80018BF7FEA6C5C1BD001B050EA410C0CBF49
:1009B80052EA430C91EA030F02BF90EA020F0020AB
:1009C800704710F1000F91EA030F58BF994208BF12
:1009D80090422CBFD8176FEAE37040F001007047CF
:1009E8004FEA410C7FEA6C5C02D150EA013C07D126
:1009F8004FEA430C7FEA6C5CD6D152EA033CD3D071
:100A08005DF8040B704700BF8446104662468C466A
:100A18001946634600E000BF01B5FFF7B7FF00289D
:100A280048BF10F1000F01BD4DF808EDFFF7F4FFC6
:100A38000CBF012000205DF808FB00BF4DF808ED51
:100A4800FFF7EAFF34BF012000205DF808FB00BF74
:100A58004DF808EDFFF7E0FF94BF012000205DF896
:100A680008FB00BF4DF808EDFFF7CEFF94BF01204B
:100A780000205DF808FB00BF4DF808EDFFF7C4FF44
:100A880034BF012000205DF808FB00BF4FEA410297
:100A980012F5001215D211D56FF47873B3EB6252C8
:100AA80012D94FEAC12343F0004343EA505311F0EF
:100AB800004F23FA02F018BF404270474FF0000081
:100AC800704750EA013005D111F0004008BF6FF0BF
:100AD800004070474FF00000704700BF4A0011D235
:100AE80012F5001211D20DD56FF47873B3EB625280
:100AF8000ED44FEAC12343F0004343EA505323FA8C
:100B080002F070474FF00000704750EA013002D100
:100B18004FF0FF3070474FF0000070474FEA410236
:100B2800B2F1E04324BFB3F5001CDCF1FE5C0DD943
:100B380001F0004C4FEAC0024CEA5070B2F1004F8D
:100B480040EB830008BF20F00100704711F0804F90
:100B580021D113F13872BCBF01F00040704741F455
:100B680080114FEA5252C2F11802C2F1200C10FA59
:100B78000CF320FA02F018BF40F001004FEAC1233D
:100B88004FEAD32303FA0CFC40EA0C0023FA02F3E1
:100B98004FEA4303CCE77FEA625307D150EA0133B7
:100BA8001EBF4FF0FE4040F44000704701F0004087
:100BB80040F0FE4040F40000704700BF4BB942B916
:100BC800002908BF002802D04FF0FF31084600F086
:100BD80081B882B0EC462DE9005000F063F8DDF8EA
:100BE80004E002B00CBC704770B5FFF761FC00224E
:100BF8000D4B04460D46FFF7AFFCFFF76FFF0646A7
:100C0800FFF734FC0022094BFFF7A6FC02460B460F
:100C180020462946FFF7ECFAFFF760FF002242EA78
:100C280000042046314670BD0000F03D0000F04150
:100C380070B500220D4B04460D46FFF78DFCFFF7FB
:100C48004DFF0646FFF712FC0022094BFFF784FC14
:100C580002460B4620462946FFF7CAFAFFF73EFF31
:100C6800002242EA00042046314670BD0000F03DF3
:100C78000000F0412DE97043069E14461D4680464B
:100C8800894600F029F804FB01F300FB0533A4FBB7
:100C980000451D44B8EB040469EB0505C6E90045A9
:100CA800BDE870832DE97043069E14468046894648
:100CB8001D4600F05DF900FB05F504FB0153A0FBA0
:100CC80004451D44B8EB040469EB0505C6E9004575
:100CD800BDE87083704700BF00292DE9F00FC0F20E
:100CE8009F800024002BC0F29680154606460F46CA
:100CF800002B3ED18A4257D9B2FA82F34BB1C3F1E5
:100D0800200201FA03F720FA02F29D40174300FA85
:100D180003F6290CB7FBF1F2330C01FB127CA8B2E5
:100D280043EA0C4700FB02F3BB4209D97F1902F1E1
:100D3800FF3C80F00181BB4240F2FE80023A2F4422
:100D4800FF1AB7FBF1F3B6B201FB137146EA014192
:100D580000FB03F0884208D9491903F1FF3780F0F6
:100D6800ED80884240F2EA80023B43EA02420023D7
:100D780003E08B420AD900231A461046194614B1DB
:100D8800404261EB4101BDE8F00F7047B3FA83F8C8
:100D9800B8F1000F40F084808B4202D3824200F207
:100DA800DE8000230122E8E712B90123B3FBF2F544
:100DB800B5FA85F2002A39D17F1B280C1FFA85FC69
:100DC8000123B7FBF0F1320C00FB117742EA074729
:100DD8000CFB01F2BA4207D97F1901F1FF3802D2A0
:100DE800BA4200F2C1804146BF1AB7FBF0F2B6B270
:100DF80000FB127046EA00400CFB02FC844507D950
:100E0800401902F1FF3702D2844500F2AB803A461E
:100E180042EA0142B1E7E443524263EB430364E729
:100E2800404261EB41014FF0FF345BE79540C2F16E
:100E3800200327FA03F1280C26FA03F39740B1FBA5
:100E4800F0F81F433B0C00FB18111FFA85FC43EA1E
:100E580001410CFB08F38B4206FA02F608D949193E
:100E680008F1FF3279D28B4277D9A8F102082944D8
:100E7800C91AB1FBF0F3BFB200FB131147EA0147EF
:100E88000CFB03F2BA4207D97F1903F1FF3160D294
:100E9800BA425ED9023B2F44BF1A43EA084390E79F
:100EA800C8F1200203FA08FC25FA02F343EA0C0C05
:100EB8004FEA1C4921FA02F301FA08F720FA02F274
:100EC800B3FBF9F1174309FB11333A0C1FFA8CFBFA
:100ED80042EA03430BFB01FA9A4505FA08F008D9E0
:100EE80013EB0C0301F1FF3235D29A4533D902399D
:100EF8006344CAEB0303B3FBF9F209FB1233BFB235
:100F080047EA03470BFB02F9B94508D917EB0C0769
:100F180002F1FF331BD2B94519D9023A674442EAB4
:100F28000145A5FB0001C9EB07078F424FF00003FD
:100F38000AD305D02A4620E7624601E73B4614E774
:100F480006FA08F68642F5D26A1E002315E71A4605
:100F5800E5E70B46A0E71146CBE7904688E743460E
:100F680042460AE7023A53E702392F443CE700BFFA
:100F78002DE9F00F144605460E46002B43D18A4250
:100F880053D9B2FA82F757B1C7F1200620FA06F60C
:100F980001FA07F302FA07F41E4300FA07F5210CD9
:100FA800B6FBF1F22B0C01FB1267A0B243EA07462D
:100FB80000FB02F3B34209D9361902F1FF3780F07A
:100FC800F680B34240F2F380023A2644F61AB6FBA2
:100FD800F1F3ADB201FB136145EA014100FB03F0F7
:100FE800884208D9091903F1FF3680F0E280884267
:100FF80040F2DF80023B43EA0242002310461946D2
:10100800BDE8F00F70478B424AD8B3FA83F6002E3A
:101018004DD18B4202D3824200F2D68000230122B6
:1010280010461946BDE8F00F704712B90124B4FB09
:10103800F2F4B4FA84F2002A7CD1091B260CA7B278
:101048000123B1FBF6F02A0C06FB101142EA01411C
:1010580007FB00F28A4207D9091900F1FF3C02D2C6
:101068008A4200F2C3806046891AB1FBF6F2ADB23B
:1010780006FB121145EA014507FB02F7AF4208D902
:101088002C1902F1FF3180F09680A74240F293803C
:10109800023A42EA004210461946BDE8F00F70478E
:1010A80000231A4610461946BDE8F00F7047C6F1EE
:1010B800200522FA05F4B3401C434FEA144821FAEC
:1010C80005F301FA06F720FA05F5B3FBF8FC2F4300
:1010D80008FB1C333D0C1FFA84FA45EA03430AFB5C
:1010E8000CF9994502FA06FB04D91B190CF1FF32D9
:1010F8006DD39446C9EB0303B3FBF8F508FB15332E
:10110800BFB247EA03470AFB05F8B84504D93F19B7
:1011180005F1FF3361D31D4645EA0C4CACFB0B23AC
:10112800C8EB07079F424FF0000549D345D06246F8
:101138002B4663E79440C2F1200321FA03FC260CF6
:1011480020FA03F301FA02F5BCFBF6F843EA0501BD
:101158000B0C06FB18CCA7B243EA0C4C07FB08F3B0
:10116800634500FA02F509D91CEB040C08F1FF32BB
:101178003AD2634538D9A8F10208A444C3EB0C0C51
:10118800BCFBF6F389B206FB13CC41EA0C4107FB22
:1011980003F28A4207D9091903F1FF3022D28A42A1
:1011A80020D9023B2144891A43EA084349E73A46D1
:1011B8000CE733461FE70A466BE7B0409042B6D2C9
:1011C8000CF1FF32002319E73346324616E79945FA
:1011D8008FD9ACF1020C23448CE7B8459BD9023D6A
:1011E800274499E70346DEE79046C7E702382144DB
:1011F8003AE700BF80B500AF164B164AD2F88820F0
:1012080042F47002C3F88820134B134A126842F064
:1012180001021A60104B00229A600F4A0E4B1B689D
:1012280023F0847323F4803313600B4B0B4A5A600A
:10123800094B094A126822F480221A60064B0022E0
:10124800DA6000F089F800F00BF8024B4FF000620A
:101258009A6080BD00ED00E00038024010300024A4
:1012680080B487B000AF00233B6100237B61022379
:10127800FB600023BB6002237B60324B9B6803F05A
:101288000C033B613B69042B07D0082B09D0002BCA
:101298003FD12D4B2D4A1A603FE02B4B2C4A1A6048
:1012A8003BE0284B5B6803F480039B0DBB60254B38
:1012B8005B6803F03F037B60BB68002B0DD0244ABA
:1012C8007B68B2FBF3F21F4B596847F6C0730B40BB
:1012D8009B0903FB02F37B610CE01C4A7B68B2FBB1
:1012E800F3F2184B596847F6C0730B409B0903FB90
:1012F80002F37B61134B5B6803F440331B0C01332F
:101308005B00FB607A69FB68B2FBF3F20E4B1A6074
:1013180003E00D4B0D4A1A6000BF0A4B9B6803F0AF
:10132800F0031B090B4AD35CDBB23B61064B1A681E
:101338003B69DA40044B1A601C37BD465DF8047BF4
:10134800704700BF00380240000000200024F4006D
:1013580000127A000400002080B483B000AF00239C
:101368007B6000233B60244B234A126C42F080527E
:101378001A64224B214A126842F440421A601E4BFA
:101388001D4A92689A601C4B1B4A926842F40042BC
:101398009A60194B184A926842F4A0529A60164B08
:1013A800174A5A60144B144A126842F080721A6045
:1013B80000BF114B1B6803F00073002BF9D0114BD1
:1013C80040F205721A600C4B0B4A926822F0030235
:1013D8009A60094B084A926842F002029A6000BF7C
:1013E800054B9B6803F00C03082BF9D10C37BD465D
:1013F8005DF8047B704700BF003802400070004071
:101408008A340008003C024080B586B000AFF8601E
:10141800B9607A6000237B6100237B6112E07B69FD
:10142800BA6813441B780C48194614F0B1FF00BF82
:101438000948402114F0BEFF0346002BF8D07B6911
:1014480001337B617A697B689A42E8DB7B681846DE
:101458001837BD4680BD00BF0048004080B485B045
:1014680000AF7860114B1B68002B02D10F4B104A5C
:101478001A600E4B1B68FB600C4B1A687B681A4499
:101488006B469A4205D90B4B0C221A604FF0FF337A
:1014980006E0064B1A687B681A44044B1A60FB681E
:1014A80018461437BD465DF8047B7047D409002000
:1014B800DC100120D810012080B483B000AF786020
:1014C8004FF0FF3318460C37BD465DF8047B704774
:1014D80080B483B000AF786039603B684FF4005245
:1014E8005A60002318460C37BD465DF8047B7047E8
:1014F80080B483B000AF7860012318460C37BD462E
:101508005DF8047B704700BF80B485B000AFF86019
:10151800B9607A60002318461437BD465DF8047B2D
:10152800704700BF80B485B000AFF860B9607A60DA
:10153800002318461437BD465DF8047B704700BF8A
:1015480080B400AFBD465DF8047B704780B58AB0B3
:1015580000AF404B7B621EF0040F0CBFEFF3088016
:10156800EFF309807B6A1B683B627B6A5B68FB61FF
:101578007B6A9B68BB617B6ADB687B617B6A1B69F2
:101588003B617B6A5B69FB607B6A9B69BB607B6ACA
:10159800DB697B60304817F0E5F83B6A2F4819464D
:1015A80017F0E0F8FB692E48194617F0DBF8BB691D
:1015B8002C48194617F0D6F87B692B48194617F0BE
:1015C800D1F83B692948194617F0CCF8FB68284838
:1015D800194617F0C7F8BB682648194617F0C2F82D
:1015E8007B682548194617F0BDF8244B1B6824482A
:1015F800194617F0B7F8234B1B682348194617F00C
:10160800B1F8224B1B682248194617F0ABF8214B5A
:10161800DB6A2148194617F0A5F8204B1B682048BB
:10162800194617F09FF81F4B1B681F48194617F0FB
:1016380099F8184BDB6A03F08043002B08D01B484D
:1016480017F090F8134B9B6A1948194617F08AF857
:1016580000BEFDE70004002040ED010858ED010838
:1016680064ED010870ED01087CED010888ED0108C2
:1016780094ED0108A0ED0108ACED010838ED00E09B
:10168800B8ED010828ED00E0C8ED01082CED00E0F8
:10169800D8ED010800ED00E0E8ED010830ED00E0CC
:1016A80000EE01083CED00E010EE010820EE010814
:1016B80034EE010880B400AFFEE700BF80B400AF8D
:1016C800FEE700BF80B400AFFEE700BF80B400AF04
:1016D800BD465DF8047B704780B500AF09F056FD44
:1016E80080BD00BF80B500AF4FF4804016F024F8ED
:1016F8000346002B06D0012006F03AFF4FF4804045
:1017080016F034F880BD00BF98B500AF134810211B
:1017180014F078FE0346002B1ED0114B1B681C46A4
:10172800621C0F4B1A600D4814F060FE03469AB213
:101738000C4B23F814200948102114F08DFE084B97
:101748001B68012B08D9074B5A88064B1B88D31AEC
:101758009BB21A46044B1A6098BD00BF000C0040AB
:10176800AC260020D8090020B026002080B500AFA4
:101778000C4800210C4A16F007F80B4B1A6840F287
:1017880021339A420DD1084B1B7A002B09D1064B05
:101798009B7A012B05D1044BDB7A0448194616F0D5
:1017A800E1FF80BD00640040685500204CEE010850
:1017B800DFF83CD0002100F004B80E4B5B584350D2
:1017C80004310D480D4B42189A42FFF4F6AF0C4A0B
:1017D80000F003B8002342F8043B0A4B9A42FFF496
:1017E800F9AFFFF707FD16F077FF00F023F8704711
:1017F80000000220643F020800000020B409002015
:10180800B8090020DC100120FFF7FEBF80B400AF4C
:10181800BFF34F8F054A054BDB6803F4E061044BC7
:101828000B43D360BFF34F8FFEE700BF00ED00E02E
:101838000400FA0580B500AF4FF4407016F05CF86C
:101848000AF0B8F9224816F08DFF132015F09EF91A
:10185800034603F00203002B08D11E4816F082FF4E
:1018680047F6FF70012109F0D5FD04E01A4816F08B
:1018780079FF14F06DFF7D2015F05AFB0346002B0D
:1018880002D015F08FFB0EE07C2015F051FB0346CB
:10189800002B08D17B2015F04BFB0346002B02D10F
:1018A8007A2015F045FB15F07DFB00F069F800F093
:1018B80041F808F095FE0346002B04D102F008FC1D
:1018C80000F00CF801E0FFF7A1FF0023184680BDE7
:1018D80068EE010888EE0108B0EE010880B500AF97
:1018E80004F026FA07F0DCFB0346002B01D007F0D2
:1018F80037FE09F059FC02460B461046194607F018
:1019080037FE08F0FDFE0346012B0FD108F0BAFFA1
:1019180003461A46064B1A70054B1B78002B05D058
:10192800034B1B78184602F0F7FBD9E7D8E700BF4E
:101938007C55002080B582B000AF09F061FE00231D
:101948007B6001231B067A6813437B6001231B0419
:101958007A6813437B6001231B027A6813437B6018
:1019680008237A6813437B60786809F04FFF0348BF
:1019780009F00EFF0837BD4680BD00BF1CE80020F7
:1019880080B584B000AF0AF027F80AF007F804F031
:10199800B9F904F0A9FC03F09FFB02F0DFFE174839
:1019A80005F0EAF8154803F019FE144803F0D6F9D3
:1019B8000AF06AFA0023FB71114BFB600023BB603D
:1019C8000DE0FB681B78FB710E4ABB681344FA797B
:1019D8001A70FB680133FB60BB680133BB60BB68EE
:1019E8001F2BEEDD074B002283F82020064805490F
:1019F80016F0B8FE1037BD4680BD00BF41A90008EB
:101A08002078FF1F1CE80020F0EE010880B483B0A6
:101A180000AF0346FB71FA79044B53F8223018469D
:101A28000C37BD465DF8047B704700BF14000020EA
:101A380080B483B000AF0346FB71FA79044B53F8C6
:101A4800223018460C37BD465DF8047B704700BF4E
:101A58003800002080B400AFBFF34F8F054A054B14
:101A6800DB6803F4E061044B0B43D360BFF34F8F93
:101A7800FEE700BF00ED00E00400FA0580B5ADF513
:101A88001C7D00AF07F10C03186007F1080319600B
:101A9800FB1D1A70224816F065FE07F10C03186842
:101AA80000F0DCFD07F10C03186800F00BF90346A1
:101AB80087F86E32002387F86F3207F1080007F5C0
:101AC800A07107F11402FB1D1B78006800F0DEF915
:101AD800034687F86D3297F86D32012B0DD197F8D0
:101AE8006E0207F5A07107F11402FB1D1B7800F0C8
:101AF800E9FD034687F86F3202E0032387F86F3267
:101B0800084816F02FFE97F86F32184600F01AF9B9
:101B1800054816F027FE07F51C77BD4680BD00BFB7
:101B280060F601088CF60108C0F6010880B5DEB041
:101B380000AF5C485C4916F015FE002387F8733146
:101B480059485A4916F0E9FEC7F874010DE097F8AC
:101B58007331013387F87331D7F87431013318467C
:101B6800524916F0DAFEC7F87401D7F87431002B21
:101B7800EDD197F873314E48194616F0F3FD97F8F2
:101B88007331002B66D04848484916F082FE034658
:101B9800C7F86431D7F86431322B05D1454816F0BF
:101BA800E1FD02F09BFA79E03F48404917F03AFD21
:101BB800C7F874013B461846D7F8741116F061FE51
:101BC8000023C7F86C311CE00020384917F02AFDC3
:101BD800C7F87401D7F87431002B00D117E0D7F893
:101BE8006C31322202FB03F307F134021344184626
:101BF800D7F8741116F045FED7F86C310133C7F8E1
:101C08006C3197F87321D7F86C319A42DCDC3B468B
:101C18002948194616F0A6FD0023C7F8683112E0D6
:101C280007F13402D7F86831322101FB03F313447A
:101C38002248D7F868111A4616F094FDD7F868318B
:101C48000133C7F8683197F87321D7F868319A4299
:101C5800E6DC19E0144816F02CFE0346C7F860319C
:101C6800D7F86031312B05D9124816F07BFD02F008
:101C780035FA13E03B4618460B4916F002FE3B4680
:101C88000F48194616F06EFD394607F1340297F8E9
:101C98007331084611461A46FFF7F0FE07F5BC7780
:101CA800BD4680BDF8F60108E0090020603A020848
:101CB80010F7010834F701086CF701089CF70108D0
:101CC800ACF7010880B584B000AF7860194816F009
:101CD80049FD0023FB730EE0FA7B174B53F82230C3
:101CE80078681946FEF776FA0346002B00D105E01E
:101CF800FB7B0133FB73FB7B282BEDD9FB7B282B6C
:101D080001D92823FB73FB7B282B08D8FA7B0A4BC5
:101D180053F822300948194616F024FD04E0084813
:101D280016F020FD2823FB73FB7B18461037BD46B1
:101D380080BD00BFD0F70108A4000020FCF701080F
:101D480034F8010880B584B000AF0346FB71FB7915
:101D58001846FFF75BFEF860FB79082B5ED801A2F6
:101D680052F823F0911D0008A11D0008B11D0008BC
:101D7800C11D0008D11D0008F51D0008051E00083A
:101D8800151E0008E51D00082F484FF400712F4A62
:101D9800FB6816F013FD49E02B484FF400712C4AFC
:101DA800FB6816F00BFD41E027484FF40071294A03
:101DB800FB6816F003FD39E023484FF40071254A0B
:101DC800FB6816F0FBFC31E01F484FF40071224A13
:101DD800FB6816F0F3FC00F043F827E01A484FF4CC
:101DE80000711C4AFB6816F0E9FC1FE016484FF426
:101DF8000071184AFB6816F0E1FC17E012484FF42E
:101E08000071144AFB6816F0D9FC0FE00E484FF435
:101E18000071104AFB6816F0D1FC07E00A484FF43D
:101E280000710E4AFB6816F0C9FC00BFFB79002B55
:101E380003D1054809F0A4F802E0034809F074F852
:101E48001037BD4680BD00BF1CE600206CF80108B5
:101E58007CF8010888F8010894F80108A4F801083A
:101E680080B500AF064B1B781846FFF7E1FD034627
:101E780004484FF40071044A16F0A0FC80BD00BF6E
:101E8800E40B00201CE60020B0F8010880B594B0EF
:101E980000AFF860B9607A60FB70012387F84F30B3
:101EA8000023BB6455E0BB6C322202FB03F3FA68E3
:101EB80013447B64786C2C49022216F017FD034604
:101EC800002B3AD17B6C023307F1100210461946F9
:101ED80016F0D7FC07F110031846244917F0A2FBA7
:101EE8007864786C00F0BAFBBB6C322202FB03F317
:101EF800BA6813441846796C16F0C3FC00201B49D5
:101F080017F090FB78647B6C002B0DD0786C00F098
:101F1800A5FBBB6C322202FB03F37A681344184614
:101F2800796C16F0AEFC11E0BB6C322202FB03F3B5
:101F38007A68134400221A7008E00D48B96C7A6C6C
:101F480016F010FC002387F84F3006E0BB6C013315
:101F5800BB64FA78BB6C9A42A5DC97F84F301846F8
:101F68005037BD4680BD00BFC4F80108C8F8010855
:101F7800CCF8010880B588B000AFF860B960FA7194
:101F8800BB71FA79BB799A4201D9002333E0002367
:101F9800FB610023FB7600237B6127E00023FB61C4
:101FA8000023FB7616E07B69322202FB03F3FA6812
:101FB8001A44FB69591CF9619B00B96A0B441B68F8
:101FC80010461946FEF706F90346002B02D10123F5
:101FD800FB7603E0BA79FB699A42E4DCFB7E002BCE
:101FE80001D1002307E07B6901337B61FA797B69C2
:101FF8009A42D3DC012318462037BD4680BD00BF76
:1020080080B582B000AF786078680F49FEF7E2F8D3
:102018000346002B01D1032312E078682C2116F027
:1020280023FC0346002B01D0022309E078682D2108
:1020380016F01AFC0346002B01D0012300E0002310
:1020480018460837BD4680BD18F9010880B58CB020
:1020580000AF03463960FB71002387F82F30002357
:10206800BB60FF23FB7500233B610023BB62002399
:1020780087F82730002387F826300023FB730023D6
:10208800BB7300233B6207E06C4B3A6A002143F8BC
:1020980022103B6A01333B623B6A242BF4D9FB795B
:1020A800032B00F2C38001A252F823F0C5200008D8
:1020B80065210008F920000803220008386800217B
:1020C8000A2217F021FC0346FB7597F91730002BFD
:1020D80002DBFB7D252B03D9594816F043FBA9E009
:1020E800FB7D184604F07CFC0246544B1A60A1E0C4
:1020F8003B68002B31D03B68BB62BB681B782C2B3C
:1021080002D1BB680133BB6207F10803B86A1946FC
:102118000A2217F0F9FB03463B613B69242B11D8CF
:102128003B69002B0EDB3B69DBB2184604F058FC18
:102138000146424B3A6943F8221097F82F30013391
:1021480087F82F30BB68002B07D097F82F30002B6B
:1021580002D03B69002B00D0CFE76BE0002387F863
:102168002730002387F8263007F108033868194616
:102178000A2217F0C9FB0346FB73BB6801331846F4
:1021880000210A2217F0C0FB0346BB73FB7B002B20
:1021980003D0FB7B87F8273002E0002387F827303D
:1021A800BB7B002B03D0BB7B87F8263002E02523BE
:1021B80087F8263097F8262097F82730D31ADBB20D
:1021C800013387F82F300023FB6110E0FB69DAB296
:1021D80097F827301344DBB2184604F001FC014697
:1021E800164BFA6943F82210FB690133FB6197F833
:1021F8002F20FB699A42E9DC1CE0252387F82F3061
:102208000023BB610CE0BB69DBB2184604F0E8FBB5
:1022180001460A4BBA6943F82210BB690133BB6116
:1022280097F82F20BB699A42EDDC03E0054816F0C9
:1022380099FA00BF3037BD4680BD00BFE855002081
:102248001CF9010860F9010880B58CB000AF03469D
:102258003960FB71002387F82F300023BB60FF2310
:10226800FB7500233B610023BB62002387F82730FE
:10227800002387F826300023FB730023BB73002359
:102288003B6207E0684B3A6A002143F822103B6A38
:1022980001333B623B6A172BF4D9FB79032B00F21D
:1022A800BC8001A252F823F0C12200085323000881
:1022B800F5220008F1230008386800210A2217F0E7
:1022C8009DFA0346FB7597F91730002B02DBFB7D5F
:1022D800182B03D9554816F045FAA2E0FB7D18469D
:1022E80003F044F90246504B1A609AE03B68002B11
:1022F8002AD03B68BB62BB681B782C2B02D1BB6819
:102308000133BB6207F10803B86A19460A2217F0BD
:1023180075FA38613B69172B11D83B69002B0EDB26
:102328003B69DBB2184603F021F901463E4B3A6996
:1023380043F8221097F82F30013387F82F30BB6805
:10234800002B00D100E0D6E76BE0002387F82730A8
:10235800002387F8263007F10803386819460A224F
:1023680017F04CFA0346FB73BB680133184600218B
:102378000A2217F043FA0346BB73FB7B002B03D0FA
:10238800FB7B87F8273002E0002387F82730BB7BE8
:10239800002B03D0BB7B87F8263002E0182387F890
:1023A800263097F8262097F82730D31ADBB2013366
:1023B80087F82F300023FB6110E0FB69DAB297F849
:1023C80027301344DBB2184603F0D0F80146164B09
:1023D800FA6943F82210FB690133FB6197F82F2053
:1023E800FB699A42E9DC1CE0182387F82F300023A8
:1023F800BB610CE0BB69DBB2184603F0B7F80146D5
:10240800094BBA6943F82210BB690133BB6197F8DD
:102418002F20BB699A42EDDC03E0054816F0A2F9CB
:1024280000BF3037BD4680BD885500201CF9010823
:1024380060F9010880B58CB000AF03463960FB71C4
:10244800002387F82F300023BB60FF23FB75002390
:102458003B610023BB62002387F82730002387F8FD
:1024680026300023FB730023BB7300233B6207E085
:10247800684B3A6A002143F822103B6A01333B62F9
:102488003B6A0F2BF4D9FB79032B00F2BC8001A225
:1024980052F823F0AD2400083F250008E124000885
:1024A800DD250008386800210A2217F0A7F903463D
:1024B800FB7597F91730002B02DBFB7D102B03D936
:1024C800554816F04FF9A1E0FB7D184602F06AFB6B
:1024D8000246504B1A6099E03B68002B2AD03B68B3
:1024E800BB62BB681B782C2B02D1BB680133BB6273
:1024F80007F10803B86A19460A2217F07FF938610C
:102508003B690F2B11D83B69002B0EDB3B69DBB213
:10251800184602F047FB01463E4B3A6943F8221041
:1025280097F82F30013387F82F30BB68002B00D184
:1025380000E0D6E76AE0002387F82730002387F811
:10254800263007F10803386819460A2217F056F9A9
:102558000346FB73BB680133184600210A2217F0B3
:102568004DF90346BB73FB7B002B03D0FB7B87F83D
:10257800273002E0002387F82730BB7B002B03D0ED
:10258800BB7B87F8263002E0102387F8263097F8BF
:10259800262097F82730D31ADBB2013387F82F307B
:1025A8000023FB6110E0FB69DAB297F82730134487
:1025B800DBB2184602F0F6FA0146164BFA6943F800
:1025C8002210FB690133FB6197F82F20FB699A42BF
:1025D800E9DC1BE0102387F82F300023BB610CE0F7
:1025E800BB69DBB2184602F0DDFA0146094BBA694D
:1025F80043F82210BB690133BB6197F82F20BB69F0
:102608009A42EDDC02E0054816F0ACF83037BD46DA
:1026180080BD00BF7C5600201CF9010860F9010844
:1026280080B483B000AF0346FB71FB795F2B0BD0FE
:10263800FB79402B02D9FB795A2B05D9FB79602B02
:1026480004D9FB797A2B01D8012300E0002318462E
:102658000C37BD465DF8047B704700BF80B584B079
:1026680000AF78600023FB6023E0FB687A681344BE
:102678001B78FB72FB7A1846FFF7D2FF0346002B44
:1026880014D0FB7A402B04D9FB7A5A2B01D80123AA
:1026980000E00023002B09D1FB7A5F2B06D0FB68F2
:1026A8007A681344FA7A203AD2B21A70FB68013376
:1026B800FB60FB687A6813441B78002BD5D1103770
:1026C800BD4680BD80B586B000AFB9607A6002466D
:1026D800FA73BB730023FB75FA7B084B53F822305F
:1026E8003B61BA7B3B69B868796898470346FB75D4
:1026F800FB7D18461837BD4680BD00BF643A020806
:1027080080B588B002AFF860B9601346FB7100234A
:10271800FB75FB79154A0092F868B9681A460023D8
:10272800FFF728FC0346002B16D003F043FE0346B0
:10273800BB75BB7D002B0ED0BB7D1846FFF778F923
:1027480003460B48194616F00DF80A4BBA7D1A7065
:102758000423FB7505E004E0074816F003F801239D
:10276800FB75FB7D18461837BD4680BDDC09002087
:10277800A0F90108E40B0020E8F9010880B588B049
:1027880002AFF860B9601346FB710023FB75FB7953
:10279800144A0092F868B9681A460023FFF7EAFB62
:1027A8000346002B13D009F03FF90AF0A9FB0E4BA2
:1027B8001B78002B05D00C4808F042FC09F034F9CE
:1027C8000AE00A4815F0CEFF0423FB7504E0084828
:1027D80015F0C8FF0123FB75FB7D18461837BD4669
:1027E80080BD00BFDC0900201CE6002040FA01087B
:1027F80088FA010880B58CB002AFF860B96013465A
:10280800FB71002387F82730FB796D4A0092F8683E
:10281800B9681A460223FFF7ADFB0346002B00F008
:10282800C38000233B620323FB77FF23FB74002351
:10283800BB614DE0624BBA6953F82220FB79F86816
:1028480011461A4601F0CEFC0346FB7497F9133083
:10285800002B35DBBB69002B02D0012B1CD02CE0F0
:10286800584815F07FFF97F91330322202FB03F323
:10287800BA6813441846FFF7C3FB0346FB7797F97A
:102888001330322202FB03F3BA681344FA7F10466E
:102898001946FFF7DBFB13E04B4815F063FF97F988
:1028A8001330322202FB03F3BA681344184600219E
:1028B8000A2216F0A3FF386202E0032387F82730C4
:1028C80097F82730002B00D005E0BB690133BB61C6
:1028D800BB69012BAEDD97F82730002B1FD1FB7F9A
:1028E800032B1CD000237B6116E0384B7A6953F820
:1028F8002230002B0DD0354B7A6953F822301B78E3
:10290800012B06D1042387F82730314B03221A7094
:1029180005E07B6901337B617B69242BE5D997F856
:102928002730002B3FD1FB7F032B33D801A252F86D
:1029380023F000BF4D290008752900086129000807
:1029480089290008234815F00DFF3B6A1F481946DE
:10295800012205F033FB23E01F4815F003FF3B6A13
:102968001A481946002205F029FB19E01B4815F002
:10297800F9FE3B6A15481946002205F01FFB0FE0D7
:10298800174815F0EFFE3B6A10481946002205F07B
:1029980015FB05E0042387F827300D4B05221A7034
:1029A80003F0E4FA06E005E00E4815F0DBFE01232B
:1029B80087F8273097F8273018462837BD4680BD56
:1029C80048010020E0FA0108F8FA0108E85500205B
:1029D800E40B002010FB010848FB01087CFB010800
:1029E800B0FB0108E4FB010880B588B002AFF860CD
:1029F800B9601346FB710023FB7503F025FB034602
:102A0800002B2CD1FB79194A0092F868B9681A464C
:102A18000523FFF7AFFA0346012B1AD1FB79F868B3
:102A2800B9681A4603F002FE0346BB75BB7D002B4E
:102A38000ED0BB7D1846FEF7FBFF03460C4819462F
:102A480015F090FE0B4BBA7D1A700423FB7508E055
:102A580007E0094815F086FE0323FB7501E005230E
:102A6800FB75FB7D18461837BD4680BD5001002018
:102A78003CFC0108E40B002088FC010880B588B004
:102A880002AFF860B9601346FB710023FB7503F0D1
:102A9800DBFA0346002B2CD1FB79194A0092F8681F
:102AA800B9681A460123FFF765FA0346002B1AD0C6
:102AB800FB79F868B9681A4603F02AFF0346BB7524
:102AC800BB7D002B0ED0BB7D1846FEF7B1FF034639
:102AD8000C48194615F046FE0B4BBA7D1A700423B4
:102AE800FB7508E007E0094815F03CFE0123FB757B
:102AF80001E00523FB75FB7D18461837BD4680BDF0
:102B080064010020E8FC0108E40B002038FD0108FE
:102B180080B487B000AFF860B9601346FB7100233A
:102B2800FB75FB7D18461C37BD465DF8047B704776
:102B380080B58AB002AFF860B9601346FB71002314
:102B4800FB77FB79234A0092F868B9681A46012393
:102B5800FFF710FA0346002B37D0FF23FB7500233D
:102B6800BB612FE01B4BBA6953F82220FB79F86848
:102B780011461A4601F036FB0346FB7597F91730E4
:102B8800002B18DBBB69002B13D1134815F0EAFDA5
:102B980097F91730322202FB03F3BA681344184638
:102BA80009F0E6F90346BB75BB7D184609F0C4F980
:102BB80001E00323FB77FB7F002B00D005E0BB6916
:102BC8000133BB61BB69002BCCDDFB7F1846203786
:102BD800BD4680BD6801002094FD010880B586B01F
:102BE80000AFF860B9601346FB710023FB7509F06C
:102BF800B3F90346184609F0DDF9386107484FF480
:102C08000071074A3B6915F0D9FD044808F018FA25
:102C1800FB7D18461837BD4680BD00BF1CE6002066
:102C2800ACFD010880B588B002AFF860B960134602
:102C3800FB710023FB75FB79134A0092F868B968A9
:102C48001A460123FFF796F90346002B11D0FB79AA
:102C5800F868B9681A4601F021FB0346BB75BB7DCD
:102C6800002B05D0094BBA7D1A700423FB7505E0CB
:102C780004E0074815F076FD0123FB75FB7D184637
:102C88001837BD4680BD00BF6C010020E40B002052
:102C9800D4FD010880B586B000AFF860B96013466E
:102CA800FB710023FB7501F0EDFA0346BB75BB7D94
:102CB800002B04D0044BBA7D1A700423FB75FB7DEE
:102CC80018461837BD4680BDE40B002080B588B093
:102CD80002AFF860B9601346FB710023FB75FB79FE
:102CE800194A0092F868B9681A460323FFF742F9AF
:102CF8000346002B1DD007F11002FB791046F96836
:102D0800BA6801F041FB0346BB75BB7D002B05D0BB
:102D18000E4BBA7D1A700423FB750FE03B690C4813
:102D28004FF400710B4A15F049FD094808F088F97D
:102D380004E0094815F016FD0123FB75FB7D1846D4
:102D48001837BD4680BD00BF70010020E40B00208D
:102D58001CE6002038FE010858FE010880B586B040
:102D680000AFF860B9601346FB710023FB750A4B8E
:102D780000221A700AF09AFE386108484FF4007170
:102D8800074A3B6915F01AFD044808F059F9FB7D1C
:102D980018461837BD4680BDE40B00201CE600200D
:102DA80038FE010880B588B002AFF860B9601346F4
:102DB800FB710023FB75FB79154A0092F868B96826
:102DC8001A460023FFF7D6F80346002B16D002F068
:102DD800E1F90346BB75BB7D002B0ED0BB7D1846C1
:102DE800FEF726FE03460B48194615F0BBFC0A4BB6
:102DF800BA7D1A700423FB7505E004E0074815F056
:102E0800B1FC0123FB75FB7D18461837BD4680BD14
:102E1800DC090020C0FE0108E40B00200CFF0108BB
:102E280080B58CB002AFF860B9601346FB7100231F
:102E380087F82730FB79624A0092F868B9681A4621
:102E48000223FFF797F80346002B00F0B280002317
:102E58003B620023FB77FF23FB740023BB614DE03B
:102E6800574BBA6953F82220FB79F86811461A467D
:102E780001F0B8F90346FB7497F91330002B35DBE2
:102E8800BB69002B02D0012B1CD02CE04D4815F05B
:102E980069FC97F91330322202FB03F3BA68134432
:102EA8001846FFF7ADF80346FB7797F9133032223F
:102EB80002FB03F3BA681344FA7F10461946FFF77A
:102EC800C3F913E0404815F04DFC97F9133032224E
:102ED80002FB03F3BA681344184600210A2216F0CD
:102EE8008DFC386202E0032387F8273097F82730F3
:102EF800002B00D005E0BB690133BB61BB69012B26
:102F0800AEDD97F82730002B1FD1FB7F032B1CD099
:102F180000237B6116E02D4B7A6953F82230002B91
:102F28000DD02A4B7A6953F822301B78012B06D131
:102F3800042387F82730264B0A221A7005E07B699C
:102F480001337B617B69172BE5D997F82730002B74
:102F58002FD1FB7F032B27D801A252F823F000BF03
:102F6800792F0008952F0008872F0008A32F000845
:102F78003B6A16481946012202F018FE17E03B6A20
:102F880012481946002202F011FE10E03B6A0F4871
:102F98001946002202F00AFE09E03B6A0B4819466E
:102FA800002202F003FE02E0042387F8273002F033
:102FB800EDFF97F8273018462837BD4680BD00BF7B
:102FC8007C010020E0FA0108F8FA01088855002081
:102FD800E40B002080B588B002AFF860B9601346F2
:102FE800FB710023FB7503F03BF80346002B2CD143
:102FF800FB79194A0092F868B9681A460223FEF765
:10300800B9FF0346012B1AD1FB79F868B9681A464B
:1030180002F046F90346BB75BB7D002B0ED0BB7D85
:103028001846FEF705FD03460C48194615F09AFBAD
:103038000B4BBA7D1A700423FB7508E007E00948BA
:1030480015F090FB0123FB7501E00623FB75FB7D62
:1030580018461837BD4680BD8401002068FF010866
:10306800E40B0020BCFF010880B588B002AFF8600F
:10307800B9601346FB710023FB7502F0F1FF0346AC
:10308800002B2CD1FB79194A0092F868B9681A46C6
:103098000123FEF76FFF0346002B1AD0FB79F8686F
:1030A800B9681A4602F0F0F90346BB75BB7D002BE0
:1030B8000ED0BB7D1846FEF7BBFC03460C481946EC
:1030C80015F050FB0B4BBA7D1A700423FB7508E012
:1030D80007E0094815F046FB0123FB7501E00623CC
:1030E800FB75FB7D18461837BD4680BD8C01002056
:1030F8001C000208E40B00206C00020880B588B0B0
:1031080002AFF860B9601346FB710023FB75FB79C9
:10311800154A0092F868B9681A460023FEF72AFF94
:103128000346002B16D001F045FB0346BB75BB7D5B
:10313800002B0ED0BB7D1846FEF77AFC03460B48E1
:10314800194615F00FFB0A4BBA7D1A700423FB755C
:1031580005E004E0074815F005FB0123FB75FB7D3E
:1031680018461837BD4680BDDC090020C800020893
:10317800E40B00201401020880B588B002AFF860A3
:10318800B9601346FB710023FB75FB79154A009261
:10319800F868B9681A460223FEF7ECFE0346002BCE
:1031A80016D0FB79F868B9681A4601F01BFD03468A
:1031B800BB75BB7D002B0AD0BB7D0B48194615F0AB
:1031C800D1FA0A4BBA7D1A700423FB7505E004E0B6
:1031D800074815F0C7FA0123FB75FB7D1846183719
:1031E800BD4680BD9001002070010208E40B00205C
:1031F800BC01020880B58CB002AFF860B960134614
:10320800FB71002387F82730FB79544A0092F8684D
:10321800B9681A460223FEF7ADFE0346002B00F0FC
:10322800908000233B620023FB77FF23FB7500237C
:10323800BB614DE0494BBA6953F82220FB79F86825
:1032480011461A4600F0CEFF0346FB7597F9173072
:10325800002B35DBBB69002B02D0012B1CD02CE0E6
:103268003F4815F07FFA97F91730322202FB03F333
:10327800BA6813441846FEF7C3FE0346FB7797F96E
:103288001730322202FB03F3BA681344FA7F104660
:103298001946FFF7CFF813E0324815F063FA97F9AB
:1032A8001730322202FB03F3BA6813441846002190
:1032B8000A2216F0A3FA386202E0032387F82730BF
:1032C80097F82730002B00D005E0BB690133BB61BC
:1032D800BB69012BAEDD97F82730002B30D1FB7F7F
:1032E800032B27D801A252F823F000BF05330008AA
:1032F80021330008133300082F3300083B6A1A48AB
:103308001946012202F0A6FA17E03B6A1648194648
:10331800002202F09FFA10E03B6A13481946002287
:1033280002F098FA09E03B6A0F481946002202F0B9
:1033380091FA02E0042387F8273002F037FE06E00E
:1033480005E00A4815F00EFA012387F8273097F8A8
:10335800273018462837BD4680BD00BF9801002099
:10336800E0FA0108F8FA01087C5600201402020865
:1033780080B588B002AFF860B9601346FB710023CE
:10338800FB7502F079FE0346002B2CD1FB79194A14
:103398000092F868B9681A460223FEF7EBFD034667
:1033A800002B1AD0FB79F868B9681A4601F08CFA34
:1033B8000346BB75BB7D002B0ED0BB7D1846FEF7C0
:1033C80037FB03460C48194615F0CCF90B4BBA7D70
:1033D8001A700423FB7508E007E0094815F0C2F9E4
:1033E8000123FB7501E00723FB75FB7D18461837A1
:1033F800BD4680BDA00100206C020208E40B00203D
:10340800C002020880B588B002AFF860B960134600
:10341800FB710023FB7502F02FFE0346002B2CD115
:10342800FB79194A0092F868B9681A460123FEF731
:10343800A1FD0346002B1AD0FB79F868B9681A4633
:1034480001F03EFB0346BB75BB7D002B0ED0BB7D58
:103458001846FEF7EDFA03460C48194615F082F9AE
:103468000B4BBA7D1A700423FB7508E007E0094886
:1034780015F078F90123FB7501E00723FB75FB7D47
:1034880018461837BD4680BDA80100202003020851
:10349800E40B00207003020880B487B000AFF86026
:1034A800B9601346FB710023FB75FB7D18461C377A
:1034B800BD465DF8047B704780B588B002AFF86000
:1034C800B9601346FB710023FB75FB790B4A009228
:1034D800F868B9681A460023FEF74CFD0346002B2E
:1034E80002D007F0D5F804E0054815F03BF90123B0
:1034F800FB75FB7D18461837BD4680BDDC090020EA
:10350800CC03020880B588B002AFF860B9601346F2
:10351800FB710023FB75FB790C4A0092F868B968C7
:103528001A460023FEF726FD0346002B04D007F0B9
:10353800AFF8FEF78FFA04E0054815F013F90123F8
:10354800FB75FB7D18461837BD4680BDDC09002099
:103558003004020880B588B002AFF860B96013463D
:10356800FB710023FB75FB790E4A0092F868B96875
:103578001A460023FEF7FEFC0346002B08D007205E
:10358800012106F023FD07F083F8FEF763FA04E053
:10359800054815F0E7F80123FB75FB7D1846183739
:1035A800BD4680BDDC09002030040208F0B593B0A8
:1035B80006AFF860B9601346FB71002387F82F3017
:1035C800FB79574A0092F868B9681A460023FEF753
:1035D800D1FC0346002B00F0978008F045F9B8624B
:1035E800BB6A002B01D14F4BBB6208F031F903468F
:1035F80087F8273008F042F9386208F069F9F8616D
:1036080008F070F9B86100237B61474A474B1446BC
:1036180007CB20606160A2601A889B78A281A3739F
:103628000E237B617A69404B134418463321404A84
:10363800BB6A15F0C3F803467A6913447B617B695A
:10364800023B7B617A69384B1A4497F82730B9698D
:10365800CDB2B969090ACCB2B969090CC8B2B9695D
:10366800090E009501940290039110464FF40071E1
:10367800304A15F0A3F803467A6913447B617A69E6
:10368800294B1A443B6ADBB2396A090ACCB2396A57
:10369800090CC8B2396A090E0094019002911046CB
:1036A8004FF40071244A15F089F803467A691344E7
:1036B8007B617A691C4B1A44FB691B78F9690131F3
:1036C80009780E46F969023109780D46F96903311E
:1036D80009780C46F969043109780846F969053111
:1036E80009780096019502940390049110464FF4CE
:1036F8000071124A15F062F803467A6913447B6137
:10370800094807F03DFC05E00D4815F02BF80123AA
:1037180087F82F3097F82F3018463437BD46F0BD5C
:10372800DC090020840402081CE600208C0402083E
:103738009C040208B4040208F004020810050208F8
:103748004005020880B58AB002AFF860B960134638
:10375800FB710023FB77FB79384A0092F868B96857
:103768001A460123FEF706FC0346002B5BD0002314
:10377800BB61FF23FB7400237B612CE02F4B7A692C
:1037880053F82220FB79F86811461A4600F02AFD02
:103798000346FB7497F91330002B15DB7B69002B6C
:1037A80010D1274814F0DEFF97F91330322202FBBC
:1037B80003F3BA681344184600210A2216F01EF8CB
:1037C800B86101E00323FB77FB7F002B00D005E005
:1037D8007B6901337B617B69002BCFDDFB7F002B8D
:1037E80020D103200021FEF731FC03200021FEF741
:1037F8002BFD03200021FEF71DFEBB691148194669
:10380800002204F0DBFBBB690F481946002202F0D6
:10381800CDF9BB690D481946002202F01BF802F0E9
:10382800D5FB05E004E00A4814F09CFF0123FB7770
:10383800FB7F18462037BD4680BD00BFAC01002085
:10384800F8FA0108E8550020885500207C56002029
:103858009005020880B588B002AFF860B9601346D9
:10386800FB710023FB75FB790B4A0092F868B96875
:103878001A460023FEF77EFB0346002B02D002F017
:103888001FFB04E0054814F06DFF0123FB75FB7D69
:1038980018461837BD4680BDDC090020D805020847
:1038A80080B487B000AFF860B9601346FB7100239D
:1038B800FB75FB7D18461C37BD465DF8047B7047D9
:1038C8002DE9B0438EB002AFF860B9601346FB71C2
:1038D800002387F82F30FB79404A0092F868B968CE
:1038E8001A460123FEF746FB0346002B68D0FF2348
:1038F80087F827300023BB625EE0384BBA6A53F87A
:103908002220FB79F86811461A4600F06BFC034642
:1039180087F8273097F92730002B45DBBB6A002B47
:103928003FD12F4814F01EFFBB6A322202FB03F37B
:10393800BA68134418460021102215F0F3FFC7E9AE
:1039480006012848D7E9062314F00CFFBB69FB825F
:10395800D7E90623140C44EA03441D0C2346BB8212
:10396800D7E9062398464FF0000943467B82798AB7
:10397800BA8AFB8A1C4814F0F5FEFB8A0420194613
:1039880006F024FBBB8A0520194606F01FFB7B8A3C
:103998000620194606F01AFB0720012106F016FB3F
:1039A80002E0032387F82F3097F82F30002B00D040
:1039B80005E0BB6A0133BB62BB6A002B9DDD05E0F5
:1039C8000A4814F0CFFE012387F82F3097F82F30DC
:1039D80018463037BD46BDE8B08300BFB0010020AF
:1039E800340602084C06020870060208A0060208FF
:1039F80080B588B002AFF860B9601346FB71002348
:103A0800FB75FB790C4A0092F868B9681A460123DD
:103A1800FEF7B0FA0346002B04D00720002106F079
:103A2800D5FA04E0054814F09DFE0123FB75FB7DE3
:103A380018461837BD4680BDDC090020FC06020880
:103A480080B487B000AFF860B9601346FB710023FB
:103A5800FB75FB7D18461C37BD465DF8047B704737
:103A680080B586B000AFF860B9601346FB710023DB
:103A7800FB7500F063FC0346BB75BB7D012B01D1D0
:103A8800094B00E0094B0A484FF40071094A14F049
:103A980095FE03467B75064807F072FAFB7D1846CB
:103AA8001837BD4680BD00BF5807020860070208E6
:103AB8001CE600206807020880B586B000AFF860F1
:103AC800B9601346FB710023FB7508F015FD03462A
:103AD800092B14BF00230123DBB2BB75BB7D012B6F
:103AE80004D00423FB75044B17221A70FB7D18467B
:103AF8001837BD4680BD00BFE40B002080B588B0F4
:103B080002AFF860B9601346FB710023FB75FB79BF
:103B1800174A0092F868B9681A460623FEF72AFA87
:103B28000346012B1AD1FB79F868B9681A4600F0E8
:103B380091FC0346BB75BB7D002B0ED0BB7D1846A0
:103B4800FDF776FF03460B48194614F00BFE0A4BA7
:103B5800BA7D1A700423FB7505E004E0074814F0E9
:103B680001FE0323FB75FB7D18461837BD4680BD53
:103B7800B401002080070208E40B0020D0070208E7
:103B880080B58CB002AFF860B9601346FB710023B2
:103B980087F82730FB79434A0092F868B9681A46D3
:103BA8000223FEF7E7F90346002B74D0FF23FB75C9
:103BB8000023BB6152E03B4BBA6953F82220FB79E2
:103BC800F86811461A4600F00DFB0346FB7597F995
:103BD8001730002B3ADBBB69002B02D0012B20D019
:103BE80031E0314814F0BEFD14F070FD03460022A8
:103BF8001A6097F91730322202FB03F3BA681344AC
:103C08001846002115F0F4FC87ED080A14F05EFD53
:103C180003461B68002B03D0032387F8273015E0E1
:103C280014E0224814F09EFD97F91730322202FB67
:103C380003F3BA681344184600210A2215F0DEFD82
:103C48000346FB7702E0032387F8273097F82730ED
:103C5800002B00D005E0BB690133BB61BB69012BB8
:103C6800A9DD97F82730002B15D1FB7F97ED080ABF
:103C7800184608F091FC0346092B14BF00230123C2
:103C8800DBB2BB75BB7D012B05D0042387F8273039
:103C9800074B18221A7097F8273018462837BD4660
:103CA80080BD00BFCC01002030080208500802087F
:103CB800E40B002080B586B000AFF860B960134609
:103CC800FB710023FB7508F0C5FC0346092B14BFE4
:103CD80000230123DBB2BB75BB7D012B04D0042379
:103CE800FB75044B18221A70FB7D18461837BD4621
:103CF80080BD00BFE40B002080B586B000AFF8603F
:103D0800B9601346FB710023FB7508F025FCFB7DA9
:103D180018461837BD4680BD2DE9B0438CB002AFB8
:103D2800F860B9601346FB71002387F82730FB79E8
:103D3800704A0092F868B9681A460123FEF71AF922
:103D48000346002B00F0C880FF23BB760023FB61ED
:103D58004AE0684BFA6953F82220FB79F868114663
:103D68001A4600F03FFA0346BB7697F91A30002B43
:103D780032DBFB69002B2CD15F4814F0F3FCFB69A4
:103D8800322202FB03F3BA681344184600211022BA
:103D980015F0C8FDC7E904015848D7E9042314F011
:103DA800E1FC3B69BB84D7E90423140C44EA0344CF
:103DB8001D0C23467B84D7E9042398464FF000095D
:103DC80043463B84398C7A8CBB8C4D4814F0CAFC32
:103DD80002E0032387F8273097F82730002B00D01C
:103DE80005E0FB690133FB61FB69002BB1DD97F846
:103DF8002730002B6FD113F041FAF32013F0CAFBE0
:103E080013F014FC0346FB76FB7E092B09D03D48D2
:103E180014F0A8FC3C4B18221A70042387F82730AA
:103E280056E03B8C1B0A9BB2DBB23848194613F0AC
:103E380013FB0346FB76FB7E092B07D13B8CDBB2D9
:103E48003348194613F008FB0346FB76FB7E092B23
:103E580009D17B8C1B0A9BB2DBB22E48194613F0A2
:103E6800FBFA0346FB76FB7E092B07D17B8CDBB282
:103E78002948194613F0F0FA0346FB76FB7E092B16
:103E880009D1BB8C1B0A9BB2DBB22448194613F03C
:103E9800E3FA0346FB76FB7E092B07D1BB8CDBB22A
:103EA8001F48194613F0D8FA0346FB76FB7E092B08
:103EB80005D11C48002113F0CFFA0346FB76FB7EA0
:103EC800092B05D0104B18221A70042387F82730C5
:103ED80013F0EAF906E005E0134814F043FC012367
:103EE80087F8273097F8273018462837BD46BDE8A9
:103EF800B08300BFD4010020340602084C06020833
:103F080068080208A4080208E40B00200078FF1FD4
:103F18000178FF1F0278FF1F0378FF1F0478FF1F37
:103F28000578FF1F007AFF1FC408020880B58CB00F
:103F380002AFF860B9601346FB71002387F8273099
:103F48000123FB77FB79534A0092F868B9681A464F
:103F58000123FEF70FF80346002B00F08E80FF23A5
:103F68007B750023BB613DE04A4BBA6953F82220B8
:103F7800FB79F86811461A4600F034F903467B7558
:103F880097F91530002B25DBBB69002B1FD1424860
:103F980014F0E8FBBB69322202FB03F3BA6813444E
:103FA8003B623E48396A14F0DDFB02E0FB7F0133D7
:103FB800FB77FB7F3A6A13441B78002BF6D1FB7F13
:103FC8001F2B03D8032387F8273003E002E00323DD
:103FD80087F8273097F82730002B00D005E0BB6919
:103FE8000133BB61BB69002BBEDD97F82730002B7E
:103FF80042D113F043F9F32013F0CCFA13F016FB77
:104008000346FB75FB7D092B09D0254814F0AAFB54
:10401800244B18221A70042387F8273029E000233C
:10402800BB7510E0BA7D204B13441A46BB7D396A34
:104038000B441B781046194613F00EFA0346FB751D
:10404800BB7D0133BB75FB7D092B03D1BA7DFB7F9B
:104058009A42E7D31548002113F0FEF90346FB7591
:10406800FB7D092B05D00F4B18221A70042387F803
:10407800273013F019F906E005E00D4814F072FB3B
:10408800012387F8273097F8273018462837BD4688
:1040980080BD00BFD80100203406020824090208A8
:1040A800A4080208E40B00202078FF1F017AFF1FF4
:1040B800C408020880B485B000AFF860B960134640
:1040C800FB71002318461437BD465DF8047B704722
:1040D80080B500AF00F002F880BD00BF80B483B0A7
:1040E80000AF00237B6007E00A4A7B681344002284
:1040F8001A707B6801337B607B68B3F5007FF3D36C
:10410800044B0022A3F800220C37BD465DF8047B5F
:10411800704700BFE009002080B582B000AF0346B9
:10412800FB71FB79002B58D02D4BB3F80032B3F557
:10413800007F52D2FB790A2B02D0FB790D2B04D1D8
:10414800FDF7F4FCFFF7CAFF47E0FB79082B02D024
:10415800FB797F2B14D1224BB3F80032002B0ED001
:104168001F4BB3F80032013B9AB21D4BA3F8002253
:104178001B4BB3F800321A4A0021D1542DE02CE031
:10418800FB79202B1BD1164BB3F80032002B24D01F
:10419800134BB3F80032013B114AD35C202B1CD0DF
:1041A8000F4BB3F800320E4AF979D1540C4BB3F8DF
:1041B800003201339AB20A4BA3F800220DE0084BF3
:1041C800B3F80032064AF979D154054BB3F80032F6
:1041D80001339AB2024BA3F800220837BD4680BDCE
:1041E800E009002080B586B000AFF860B9601346DA
:1041F800FB71FF23FB7500233B6112E03B69322210
:1042080002FB03F3FA6813441846B968FBF7E2FFA8
:104218000346002B02D13B69FB7506E03B6901337D
:104228003B61FA793B699A42E8D8FB7D5BB2184654
:104238001837BD4680BD00BF80B588B000AFF860B4
:10424800B9601346FB710023FB77FF23BB7700237C
:104258007B7772233B770023FB7600237B6100BFCB
:10426800FB7E184609F0E0FA3B7F184609F098FBF8
:104278007B7F184609F02CFBFB7F18462037BD468C
:1042880080BD00BF80B582B000AF0023FB7103F092
:1042980073FDFB7918460837BD4680BD80B588B0E8
:1042A80000AFF860B9601346FB710023FB77FB7918
:1042B800F868B9681A46FFF7BFFF0346FB77002383
:1042C800BB77FF23FB750023BB6128E01A4BBA6953
:1042D80053F82220FB79F86811461A46FFF782FF47
:1042E8000346FB7597F91730002B13DBBB69002BCE
:1042F8000DD197F91730322202FB03F3BA68134441
:10430800184608F019FF0346BB7700BF04E01923DD
:10431800FB7701E01A23FB77BB690133BB61BB69FB
:10432800002BD3D0BB7F184603F05EFDFB7F1846F9
:104338002037BD4680BD00BF6C01002080B584B029
:1043480000AF0123FB7301F0F5FE87ED020A01F0CF
:104358001FFF87ED010A97ED027ADFED0A7AB4EEC6
:10436800E77AF1EE10FA06DCD7ED017AF5EEC07ABD
:10437800F1EE10FA01D50023FB73FB7B18461037CA
:10438800BD4680BD0000484280B588B000AFF860E7
:10439800B9607A60FB700023FB77FF23FB7500236D
:1043A800BB613EE02A4BBA6953F82220FB78B86813
:1043B80011461A46FFF716FF0346FB7597F91730A3
:1043C800002B25DB97F91730322202FB03F37A68BA
:1043D80013443B61BB69012B0AD0012B02D3022B8A
:1043E8000CD011E0386908F0A7FE0346BB770EE051
:1043F800386908F0BFFE03467B7708E0386908F0A3
:104408002BFF03463B7702E01923FB7702E001E02C
:104418001A23FB77FB7F002B00D005E0BB69013333
:10442800BB61BB69022BBDD9FB7F002B0AD1797F09
:104438003A7FBB7F084611461A4607F0E3FD02465D
:10444800FB681A60FB7F18462037BD4680BD00BF59
:10445800700100202DE9F04190B004AFF860B96018
:104468001346FB71002387F82F30FF23FB760023C8
:10447800FB6183E0634BFA6953F82220FB79F86803
:1044880011461A46FFF7AEFE0346FB7697F91B3036
:10449800002B68DB97F91B30322202FB03F3BA6862
:1044A80013447B61FB69052B58D801A252F823F00D
:1044B800D1440008F74400080545000813450008E2
:1044C800214500082F45000800233B6107F1100330
:1044D8007869194615F08CF887ED0A0A3A697B69FC
:1044E8009A4202D1192387F82F3000BF3AE0786941
:1044F80008F0B2FE034687F8253033E0786908F003
:1045080039FE034687F826302CE0786908F014FE57
:10451800034687F8273025E0786907F029FD034628
:1045280087F824301EE0384B00221A6097F91B30B8
:10453800322202FB03F3BA68134418460021002212
:1045480015F05CF9034687F823302F4B1B68002BC6
:1045580003D0192387F82F3004E003E0192387F8E4
:104568002F3003E002E01A2387F82F3097F82F3016
:10457800002B00D006E0FB690133FB61FB69052BCA
:104588007FF678AF97F82F30002B34D1B86AFBF755
:104598008FFF04460D4697F82630184608F00AFDA6
:1045A800804697F82530184608F070FD064697F8BB
:1045B8002730184608F0A4FD0346CDF80080019680
:1045C8000293124822462B4614F0CCF897F826009E
:1045D80097F8251097F8272097F8243097F8234064
:1045E800009497ED0A0A08F069F80346092B02D0EF
:1045F800182387F82F3097F82F3018463037BD46E4
:10460800BDE8F081B4010020D81001204409020857
:1046180080B582B000AF0346FB71FB79184600F005
:1046280019F80346002B0AD0FA791346DB009B1AC7
:10463800DB00064A1344184600F01EF802E004485E
:1046480014F090F80837BD4680BD00BFF00B00207D
:104658009009020880B483B000AF0346FB71FB7970
:104668000F2B01D8012300E0002318460C37BD4664
:104678005DF8047B704700BF80B483B000AF7860FA
:104688007B6801221A707B680122DA7679684FF01C
:1046980000024FF00003C1E908237B6803330D4A89
:1046A8001068186012791A717B68FF225A707B684B
:1046B800FF229A707B68032283F8302079684FF0D4
:1046C80000024FF00003C1E90A230C37BD465DF82C
:1046D800047B7047F009020880B584B000AF7860A9
:1046E8000B46FB7008F0CEF97B689B78DB08DBB2E1
:1046F8004FF4E060194608F095FA0346FB737B68AF
:104708009A787B689B78DB08DBB2DB00DBB2D31AD4
:10471800BB73BB7B012202FA03F37B73FB78002B8C
:1047280004D1FA7B7B7B1343FB7306E07B7BDB4383
:10473800DAB2FB7B1340DBB2FB737B689B78DB0848
:10474800DBB2FA7B4FF4E06011461A4608F0D0F964
:1047580008F098F91037BD4680BD00BF80B584B019
:1047680000AF0023FB600CE0FA681346DB009B1ADD
:10477800DB000F4A13441846FFF77EFFFB6801333E
:10478800FB60FB680F2BEFD900233B7200237B7281
:104798003B1D4FF48070194608F0B4FA07F108037E
:1047A8004FF48070194608F0F3F91037BD4680BD04
:1047B800F00B00202DE9F04194B002AF002387F8F8
:1047C800473007F031F9394B394A14461D4604F190
:1047D80030082E46A446BCE80F0030607160B26015
:1047E800F360103410354445F3D12B462246128825
:1047F8001A80312387F83F3097F83F30002B06D1D5
:104808002C4813F0AFFF162387F8473046E02A4BB1
:104818001B68002B03D0284B1B68244898470023AB
:104828003B6438E025493A6C1346DB009B1ADB00F1
:104838000B443C461D460FCD0FC40FCD0FC40FCD02
:104848000FC495E8030084E803003B78002B1FD1D0
:104858007B783A460332009214484FF40071184AA4
:1048680013F0ACFF034687F83F3097F83F30002B32
:1048780006D1144813F076FF162387F847300DE069
:104888000D4B1B68002B03D00B4B1B680748984740
:104898003B6C01333B643B6C0F2BC3D997F8473013
:1048A80018464837BD46BDE8F08100BF1CE6002029
:1048B800F80902082C0A0208E80B0020F00B002077
:1048C800600A0208840A020880B590B000AFF86058
:1048D800B9607A60002387F83F300023BB62FF236A
:1048E80087F83730FF2387F83E30FF2387F83630C4
:1048F80007F110035D4A92E8030018600433197049
:104908000023BB6365E05A4BBA6B53F822207B68DF
:10491800DBB2F86811461A46FFF764FC034687F8CD
:10492800373097F93730002B3CDB97F93730322294
:1049380002FB03F3BA6813443B63BB6B002B02D042
:10494800012B23D029E007F12803386B19460A22E6
:1049580014F054FF034687F83630BA6A3B6B9A4224
:1049680003D1122387F83F300FE097F83630102B29
:1049780004D897F8363087F83E3006E03D4813F003
:10498800F1FE0F2387F83F300BE00AE007F1100330
:104998001846396B13F075FF03E0122387F83F3090
:1049A8000FE00EE0BB6B012B00D10FE0304BBA6B70
:1049B80053F822303048194613F0D4FE102387F8F4
:1049C8003F3097F83F30002B00D005E0BB6B013338
:1049D800BB63BB6B012B96DD97F83F30002B3ED1B4
:1049E80097F83E30FF2B37D097F83E30184600F046
:1049F800D9F8F862FB6A002B2AD0FB6A1B78002BD7
:104A080022D0FB6A97F83E205A7097F83E301B4A2E
:104A1800D25CFB6A9A70FB6ADA1C07F11003104635
:104A2800194613F02EFFFB6A0122DA76F96A4FF075
:104A380000024FF00003C1E90823F86A00F020F8EB
:104A4800034687F83F300AE0142387F83F3006E032
:104A5800112387F83F3002E0132387F83F3097F897
:104A68003F3018464037BD4680BD00BFF0090208F8
:104A7800A0010020B80A0208F40A0208DC0100209C
:104A880080B584B000AF78600023FB737B685B78E7
:104A9800BB73BB7B0F2B07D87B6800221A70786822
:104AA8000121FFF719FE04E0044813F05BFE0F2311
:104AB800FB73FB7B18461037BD4680BD2C0B0208E4
:104AC80080B58AB000AFF860B9607A60002387F8D3
:104AD8002730FF23FB7700233B6254E02E4B3A6AD2
:104AE80053F822207B68DBB2F86811461A46FFF7B4
:104AF80079FB0346FB7797F91F30002B35DB97F9D5
:104B08001F30322202FB03F3BA681344BB613B6ACD
:104B1800002B26D100233B6107F11003B869194621
:104B28000A2214F06BFE0346FB753A69BB699A4288
:104B380003D1122387F8273011E0FB7D1846FFF7D1
:104B480089FD0346002B04D0FB7D1846FFF760FD66
:104B580005E0124813F006FE0F2387F8273000BF40
:104B68000EE0122387F827300AE00B4B3A6A53F815
:104B780022300B48194613F0F5FD102387F827302B
:104B88003B6A01333B623B6A002BA7D097F827307A
:104B980018462837BD4680BDA8010020900B0208A2
:104BA800F40A020880B582B000AF0346FB71FB79B6
:104BB8001846FFF74FFD0346002B07D0FA79134636
:104BC800DB009B1ADB00054A134403E0044813F09A
:104BD800C9FD002318460837BD4680BDF00B0020EC
:104BE800CC0B020880B58CB000AFF860B9601346F2
:104BF800FB71002387F82F30FF2387F82730FF2326
:104C080087F82E30012387F82D300023BB6267E038
:104C18004D4BBA6A53F82220FB79F86811461A46B8
:104C2800FFF7E0FA034687F8273097F92730002B7B
:104C380043DB97F92730322202FB03F3BA681344A7
:104C48003B62BB6A002B02D0012B22D030E000234C
:104C58007B6107F11403386A19460A2214F0CEFD65
:104C68000346FB777A693B6A9A4203D1122387F895
:104C78002F300CE0FB7F102B03D8FB7F87F82E30FA
:104C880005E0324813F06EFD0F2387F82F3000BF80
:104C980012E0386A2E49FBF79DFA0346002B03D130
:104CA800002387F82D3007E0012387F82D3003E033
:104CB800122387F82F300BE00AE0234BBA6A53F827
:104CC80022302448194613F04DFD102387F82F3061
:104CD80097F82F30002B00D005E0BB6A0133BB6288
:104CE800BB6A012B94DD97F82F30002B25D197F85C
:104CF8002E30FF2B1ED097F82E301846FFF752FFA4
:104D0800B861BB69002B11D0BB691B78002B06D199
:104D180097F82D30B8691946FFF7DEFC0DE00E480C
:104D280013F020FD152387F82F3006E0112387F8AC
:104D38002F3002E0132387F82F3097F82F301846CA
:104D48003037BD4680BD00BF90010020B80A020878
:104D5800300C0208F40A0208340C020880B483B04C
:104D680000AF7860034B7A681A600C37BD465DF86F
:104D7800047B7047E80B002090B585B000AF134660
:104D88000246FA710A46BA717B710023FB73BB793C
:104D98000133DBB27A7902FB03F3BB7300237B7325
:104DA8000BE07B7B194AD35CBA7B9A4202D17B7BAE
:104DB800BB7305E07B7B01337B737B7B0F2BF0D9C7
:104DC800BB7B0F2B18D8BA7B11491346DB009B1A03
:104DD800DB000B443033FA791A70BC7B06F0E4F937
:104DE8000B4A2346DB001B1BDB0013442833C3E9B3
:104DF80000010123FB7304E0064813F0B3FC002311
:104E0800FB73FB7B18461437BD4690BDDC010020C0
:104E1800F00B0020600D020880B584B000AF034697
:104E2800FB710023FB73FB79172B00F2E78001A2CB
:104E380052F823F09D4E0008AB4E0008B94E00080A
:104E4800C94E0008D94E0008E74E0008F54E000884
:104E5800054F0008154F0008254F0008354F00087A
:104E6800434F0008534F0008614F00086F4F000878
:104E78007D4F00088B4F00089B4F0008A94F000882
:104E8800B74F0008C74F0008D54F0008E54F000886
:104E9800F54F00085F48202112F030F90346FB73F4
:104EA800ADE05C48102112F029F90346FB73A6E037
:104EB80059484FF4807112F021F90346FB739EE0C4
:104EC80055484FF4006112F019F90346FB7396E058
:104ED8005248082112F012F90346FB738FE04F483D
:104EE800102112F00BF90346FB7388E04C484FF48D
:104EF800006112F003F90346FB7380E048484FF461
:104F0800004112F0FBF80346FB7378E041484FF488
:104F1800807112F0F3F80346FB7370E03D484FF4DC
:104F2800805112F0EBF80346FB7368E03B484021E0
:104F380012F0E4F80346FB7361E038484FF400616F
:104F480012F0DCF80346FB7359E03248082112F0EE
:104F5800D5F80346FB7352E02E48042112F0CEF830
:104F68000346FB734BE02B48402112F0C7F8034679
:104F7800FB7344E02948202112F0C0F80346FB7374
:104F88003DE027484FF4007112F0B8F80346FB7370
:104F980035E02248042112F0B1F80346FB732EE0F5
:104FA8002048022112F0AAF80346FB7327E01C48A8
:104FB8004FF4005112F0A2F80346FB731FE01A48A1
:104FC800022112F09BF80346FB7318E011484FF4D6
:104FD800806112F093F80346FB7310E00F484FF41A
:104FE800807112F08BF80346FB7308E00B484FF40E
:104FF800806112F083F80346FB7300E000BFFB7B7F
:10500800002B01D0002300E0012318461037BD46CD
:1050180080BD00BF0010024000200240001C02407A
:1050280000140240000402400018024080B483B01B
:1050380000AF0346FB71FB79172B01D8012300E071
:10504800002318460C37BD465DF8047B704700BF47
:1050580080B483B000AF78607B6801221A707B68E7
:1050680001229A7679684FF000024FF00003C1E9F7
:1050780008237B680233064A1068186012791A718F
:105088007B68FF225A700C37BD465DF8047B704779
:10509800AC0D020880B582B000AF0346FB71FB7906
:1050A8001846FFF7C3FF0346002B0AD0FA791346C8
:1050B8009B001344DB00064A13441846FFF7C8FF59
:1050C80002E0044813F04EFB0837BD4680BD00BF20
:1050D800780F0020B40D020880B584B000AF4FF4FB
:1050E800F970012111F0ACFE00233B720023FB7222
:1050F80002237B603B1D2048194611F071FF41F2E5
:105108007C537B603B1D1D48194611F069FF4FF425
:105118002A437B603B1D1A48194611F061FF0223A0
:105128007B603B1D1748194611F05AFF40F67C5327
:105138007B603B1D1448194611F052FF4FF4106371
:105148007B603B1D1148194611F04AFF0023FB60A4
:105158000CE0FA6813469B001344DB000C4A134426
:105168001846FFF775FFFB680133FB60FB68172BD8
:10517800EFD91037BD4680BD000402400010024040
:105188000014024000180240001C024000200240A7
:10519800780F00202DE9F04190B002AF002387F886
:1051A8003730384B384A14461D4604F130082E462D
:1051B800A446BCE80F0030607160B260F360103440
:1051C80010354445F3D12B46224612781A70302305
:1051D80087F82F3097F82F30002B06D12B4813F083
:1051E800C1FA0E2387F8373044E0294B1B68002B9F
:1051F80003D0274B1B682348984700233B6336E0BE
:1052080024493A6B13469B001344DB000B443C468D
:105218001D460FCD0FC40FCD0FC495E8030084E8D9
:1052280003003B78002B1FD17B783A46023200926C
:1052380014484FF40071184A13F0C0FA034687F86F
:105248002F3097F82F30002B06D1144813F08AFA24
:105258000E2387F837300DE00D4B1B68002B03D069
:105268000B4B1B68074898473B6B01333B633B6B11
:10527800172BC5D997F8373018463837BD46BDE8DB
:10528800F08100BF1CE60020140E0208480E020838
:10529800700F0020780F0020780E02089C0E02087C
:1052A80080B590B000AFF860B9607A60002387F8E5
:1052B8003F300023BB62FF2387F83730FF2387F88E
:1052C8003E30FF2387F8363007F11003594A92E839
:1052D80003001860043319700023BB6365E0564B64
:1052E800BA6B53F822207B68DBB2F86811461A467D
:1052F800FEF778FF034687F8373097F93730002BE9
:105308003CDB97F93730322202FB03F3BA681344C7
:105318003B63BB6B002B02D0012B23D029E007F1A4
:105328002803386B19460A2214F068FA034687F8EE
:105338003630BA6A3B6B9A4203D10B2387F83F3069
:105348000FE097F83630182B04D897F8363087F8DE
:105358003E3006E0394813F005FA082387F83F3055
:105368000BE00AE007F110031846396B13F089FACD
:1053780003E00B2387F83F300FE00EE0BB6B012BF7
:1053880000D10FE02C4BBA6B53F822302C48194649
:1053980013F0E8F9092387F83F3097F83F30002BDE
:1053A80000D005E0BB6B0133BB63BB6B012B96DD03
:1053B80097F83F30002B36D197F83E30FF2B2FD08F
:1053C80097F83E30184600F0D1F8F862FB6A002BD7
:1053D80024D0FB6A1B78012B1CD1FB6A97F83E206E
:1053E8005A70FB6A9A1C07F110031046194613F00D
:1053F80048FAFB6A01229A76F96A4FF000024FF0E8
:105408000003C1E90823F86A00F01CF8034687F88E
:105418003F3008E00D2387F83F3004E00A2304E01A
:105428000C2387F83F3097F83F3018464037BD4681
:1054380080BD00BFAC0D020884010020CC0E02081C
:10544800080F020880B584B000AF78600023FB73B2
:105458007B685B78BB73BB7B172B06D87B68002205
:105468001A70074813F07EF904E0064813F07AF939
:105478000823FB73FB7B18461037BD4680BD00BF71
:105488003C0F0208740F020880B58AB000AFF860BC
:10549800B9607A60002387F82730FF23FB77002361
:1054A8003B6254E02E4B3A6A53F822207B68DBB209
:1054B800F86811461A46FEF795FE0346FB7797F9FA
:1054C8001F30002B35DB97F91F30322202FB03F324
:1054D800BA681344BB613B6A002B26D100233B61A9
:1054E80007F11003B86919460A2214F087F9034630
:1054F800FB753A69BB699A4203D10B2387F82730B9
:1055080011E0FB7D1846FFF791FD0346002B04D000
:10551800FB7D1846FFF7BEFD05E0124813F022F99F
:10552800082387F8273000BF0EE00B2387F82730C1
:105538000AE00B4B3A6A53F822300B48194613F02D
:1055480011F9092387F827303B6A01333B623B6A2C
:10555800002BA7D097F8273018462837BD4680BDBE
:105568008C010020CC0E0208080F020880B582B01A
:1055780000AF0346FB71FB791846FFF757FD03465A
:10558800002B07D0FA7913469B001344DB00054A29
:10559800134403E0044813F0E5F8002318460837DD
:1055A800BD4680BD780F0020B40D020880B582B0DA
:1055B80000AF786005F0F8FD02460B467968C1E94E
:1055C80008237B685B781846FFF726FC03461A46D3
:1055D8007B689A760837BD4680BD00BF80B483B02B
:1055E80000AF7860034B7A681A600C37BD465DF8E7
:1055F800047B7047700F00202DE9F04188B004AF9C
:1056080078607B6803F102087B685B781E467B68DC
:10561800D3E908457B689B7E184606F0E3F9034604
:10562800CDE9004502930C480C494246334613F035
:10563800F7F80346FB730A4B1B68002B04D0084B92
:105648001B680548984702E0064813F08BF81037A6
:10565800BD46BDE8F08100BF1CE60020D40F02085B
:10566800700F00205410020880B483B000AF0346C6
:10567800FB71FA79044B53F8223018460C37BD46B3
:105688005DF8047B704700BFEC01002080B500AFD7
:10569800034813F067F8034B00221A7080BD00BF5F
:1056A800A81002083813002080B500AF134B1B78F0
:1056B800002B0AD0114B1B781846FFF7D5FF03467D
:1056C8000F48194613F04EF816E00E4813F04AF842
:1056D80007F09CF90C4807F071FB0C4B00221A608C
:1056E8000B4B00221A600B4B00221A600A4B002257
:1056F8001A70024B01221A7080BD00BF38130020B7
:10570800D810020820110208814D00083C1300201F
:1057180040130020441300204813002080B582B0B5
:1057280000AF2E4B1B78042B54D801A252F823F05B
:105738004D57000853570008DD570008595700080F
:10574800BF570008FFF7B0FF45E000F061F842E0FE
:1057580000233B60224B1A68224B1B689A421FD2D7
:10576800214B1B78012B05D11D4B1B685A1C1C4B68
:105778001A6030E000237B6009E01C4B1A687B68E4
:105788009B0013441B683B607B6801337B607B682C
:105798000F2BF2D9124B1B685A1C114B1A601AE0D6
:1057A800134812F0DFFF134805F0EAFB00F030F869
:1057B80000F03EFC0FE00A4B00221A60094B002261
:1057C8001A600A4B00221A60074B00221A7000F078
:1057D8001FF800E000BF0837BD4680BD3813002021
:1057E800401300203C1300204813002044130020DD
:1057F800581102088C11020880B500AF034812F056
:10580800B1FF00F005F800F013FC80BDAC110208F0
:1058180080B500AF0C4B1B78012B0ED00A4B1B78C0
:10582800032B0AD0084B1B781846FFF71DFF0346C9
:105838000648194612F096FF05E0054812F092FF57
:10584800014B02221A7080BD38130020D8110208BB
:105858001812020880B586B000AFF860B960134628
:10586800FB71384B1B78022B0AD0364B1B78184635
:10587800FFF7FAFE03463448194612F073FF5EE05C
:10588800FB68002B03D1314812F06CFF57E0FB791D
:10589800012B0ED1FB681B68002B03D12C4812F09A
:1058A80061FF4CE02B4B00221A702B4B01221A701F
:1058B8001DE00023FB750AE0FB7D9B00FA6813449A
:1058C8001B68002B00D005E0FB7D0133FB75FB7DD9
:1058D8000F2BF1D9FB7D0F2B03D9204812F042FF83
:1058E8002DE01C4BFA7D1A701B4B10221A701C4BB2
:1058F800FA681A600023BB75194B1A68154B1B7898
:105908009B0013441B683B610DE0154B1A68BB7D77
:105918000133BB75BB7D9B0013441B683B61BB7D9A
:10592800102B00D10BE03B69002BEED00D4B002271
:105938001A600D4BBA681A60024B03221A701837A6
:10594800BD4680BD38130020481202089412020890
:10595800041302084913002048130020701302089A
:1059680044130020401300203C13002080B483B06F
:1059780000AF0346FB71FA79044B53F822301846FE
:105988000C37BD465DF8047B704700BF000200205D
:1059980080B500AF034812F0E5FE034B00221A70F1
:1059A80080BD00BF681402084A13002080B500AF0C
:1059B800104B1B78002B0AD00E4B1B781846FFF7AC
:1059C800D5FF03460C48194612F0CCFE11E00B48EF
:1059D80012F0C8FE0A4B00221A600A4B00221A6015
:1059E800094B00221A60094B00221A70014B012250
:1059F8001A7080BD4A13002098140208E0140208A7
:105A08004C1300205013002054130020581300207A
:105A180080B582B000AF464B1B78042B00F284801F
:105A280001A252F823F000BF455A00084B5A00085B
:105A3800315B0008515A0008135B0008FFF7B6FFF6
:105A480073E000F091F870E03A4B1A683A4B1B7813
:105A58009B0013441B683B60384B1A68384B1B6823
:105A68009A4203D3364B1B68002B42D1354B1B7827
:105A7800012B11D12F4B1B681B681846FFF796FDA9
:105A88002C4B1B681B681846FFF7B6FD2B4B1B6891
:105A98005A1C2A4B1A6037E000237B6020E0254B14
:105AA8001A687B689B0013441B683B603B68002BAB
:105AB8000CBF00230123DAB23B681B78002B14BF0C
:105AC80000230123DBB21340DBB2002B05D038687A
