:020000040800F2
:1000000000000220F5190008ED160008F916000896
:100010009D180008A5180008AD1800080000000091
:100020000000000000000000000000004D1A000861
:10003000B5180008000000004D1A0008C11800089B
:100040004D1A00084D1A00084D1A00084D1A0008F4
:100050004D1A00084D1A00084D1A00084D1A0008E4
:100060004D1A00084D1A00084D1A00084D1A0008D4
:100070004D1A00084D1A00084D1A00084D1A0008C4
:100080004D1A00084D1A00084D1A00084D1A0008B4
:10009000911900084D1A00084D1A00084D1A000861
:1000A0004D1A00084D1A00084D1A00084D1A000894
:1000B0004D1A00084D1A00084D1A00084D1A000884
:1000C0004D1A00084D1A00084D1A00084D1A000874
:1000D0004D1A00084D1A00084D1A00084D1A000864
:1000E000CD1800084D1A00084D1A00084D1A0008D6
:1000F0004D1A00084D1A00084D1A00084D1A000844
:100100004D1A00084D1A0008F11800084D1A000891
:100110004D1A00084D1A00084D1A00084D1A000823
:100120004D1A00084D1A00084D1A00084D1A000813
:100130004D1A00084D1A00084D1A00084D1A000803
:100140004D1A00084D1A00084D1A00084D1A0008F3
:100150004D1A00084D1A00084D1A00084D1A0008E3
:100160004D1A00084D1A00084D1A00084D1A0008D3
:100170004D1A00084D1A00084D1A00084D1A0008C3
:080180004D1A00084D1A000899
:1001880010B5054C237833B9044810B10448AFF3CF
:1001980000800121217010BDB0080020000000007F
:1001A8001CF5010808B5064B1BB106480649AFF314
:1001B80000800648016811B1054A02B1904708BDA0
:1001C800000000001CF50108B4080020AC0800205D
:1001D8000000000081F0004102E000BF83F000430E
:1001E80030B54FEA41044FEA430594EA050F08BFCA
:1001F80090EA020F1FBF54EA000C55EA020C7FEA8E
:10020800645C7FEA655C00F0E2804FEA5454D4EB0A
:100218005555B8BF6D420CDD2C4480EA020281EAD4
:10022800030382EA000083EA010180EA020281EA0C
:100238000303362D88BF30BD11F0004F4FEA01315E
:100248004FF4801C4CEA113102D0404261EB41016D
:1002580013F0004F4FEA03334CEA133302D05242F3
:1002680063EB430394EA050F00F0A780A4F10104AF
:10027800D5F1200E0DDB02FA0EFC22FA05F28018E9
:1002880041F1000103FA0EF2801843FA05F35941CF
:100298000EE0A5F120050EF1200E012A03FA0EFC4E
:1002A80028BF4CF0020C43FA05F3C01851EBE37178
:1002B80001F0004507D54FF0000EDCF1000C7EEB95
:1002C80000006EEB0101B1F5801F1BD3B1F5001FD3
:1002D8000CD349085FEA30004FEA3C0C04F10104F2
:1002E8004FEA445212F5800F80F09A80BCF1004F1B
:1002F80008BF5FEA500C50F1000041EB045141EA9D
:10030800050130BD5FEA4C0C404141EB010111F49D
:10031800801FA4F10104E9D191F0000F04BF014648
:100328000020B1FA81F308BF2033A3F10B03B3F126
:1003380020020CDA0C3208DD02F1140CC2F10C02B6
:1003480001FA0CF021FA02F10CE002F11402D8BF14
:10035800C2F1200C01FA02F120FA0CFCDCBF41EAE0
:100368000C019040E41AA2BF01EB0451294330BDAF
:100378006FEA04041F3C1CDA0C340EDC04F114048C
:10038800C4F1200220FA04F001FA02F340EA030063
:1003980021FA04F345EA030130BDC4F10C04C4F1A9
:1003A800200220FA02F001FA04F340EA0300294689
:1003B80030BD21FA04F0294630BD94F0000F83F4D3
:1003C800801306BF81F480110134013D4EE77FEAB6
:1003D800645C18BF7FEA655C29D094EA050F08BF02
:1003E80090EA020F05D054EA000C04BF19461046E3
:1003F80030BD91EA030F1EBF0021002030BD5FEA27
:10040800545C05D14000494128BF41F0004130BD4E
:1004180014F580043CBF01F5801130BD01F00045A2
:1004280045F0FE4141F470014FF0000030BD7FEA15
:10043800645C1ABF194610467FEA655C1CBF0B4610
:10044800024650EA013406BF52EA033591EA030F27
:1004580041F4002130BD00BF90F0000F04BF00211F
:10046800704730B54FF4806404F132044FF0000552
:100478004FF0000150E700BF90F0000F04BF0021CB
:10048800704730B54FF4806404F1320410F0004531
:1004980048BF40424FF000013EE700BF42004FEA2C
:1004A800E2014FEA31014FEA02701FBF12F07F43A9
:1004B80093F07F4F81F06051704792F0000F14BFA6
:1004C80093F07F4F704730B54FF4607401F00045EA
:1004D80021F0004120E700BF50EA010208BF704741
:1004E80030B54FF000050AE050EA010208BF704736
:1004F80030B511F0004502D5404261EB41014FF49F
:10050800806404F132045FEA915C3FF4DCAE4FF0A2
:1005180003025FEADC0C18BF03325FEADC0C18BF89
:10052800033202EBDC02C2F1200300FA03FC20FADA
:1005380002F001FA03FE40EA0E0021FA02F1144427
:10054800C1E600BF70B54FF0FF0C4CF4E06C1CEA3C
:1005580011541DBF1CEA135594EA0C0F95EA0C0FB1
:1005680000F0DEF82C4481EA030621EA4C5123EA24
:100578004C5350EA013518BF52EA033541F4801153
:1005880043F4801338D0A0FB02CE4FF00005E1FB06
:1005980002E506F00042E0FB03E54FF00006E1FB50
:1005A80003569CF0000F18BF4EF0010EA4F1FF0493
:1005B800B6F5007F64F5407404D25FEA4E0E6D41D3
:1005C80046EB060642EAC62141EA55514FEAC520E4
:1005D80040EA5E504FEACE2EB4F1FD0C88BFBCF560
:1005E800E06F1ED8BEF1004F08BF5FEA500E50F111
:1005F800000041EB045170BD06F0004646EA0101D7
:1006080040EA020081EA0301B4EB5C04C2BFD4EB08
:100618000C0541EA045170BD41F480114FF0000E01
:10062800013C00F3AB8014F1360FDEBF002001F06F
:10063800004170BDC4F10004203C35DA0C341BDCE9
:1006480004F11404C4F1200500FA05F320FA04F0BB
:1006580001FA05F240EA020001F0004221F00041EF
:1006680010EBD37021FA04F642EB06015EEA430E62
:1006780008BF20EAD37070BDC4F10C04C4F1200592
:1006880000FA04F320FA05F001FA04F240EA020045
:1006980001F0004110EBD37041F100015EEA430E16
:1006A80008BF20EAD37070BDC4F1200500FA05F236
:1006B8004EEA020E20FA04F301FA05F243EA0203B5
:1006C80021FA04F001F0004121FA04F220EA0200C4
:1006D80000EBD3705EEA430E08BF20EAD37070BD0A
:1006E80094F0000F0FD101F00046400041EB0101EA
:1006F80011F4801F08BF013CF7D041EA060195F0CC
:10070800000F18BF704703F00046520043EB030385
:1007180013F4801F08BF013DF7D043EA0603704772
:1007280094EA0C0F0CEA135518BF95EA0C0F0CD07D
:1007380050EA410618BF52EA4306D1D181EA0301C3
:1007480001F000414FF0000070BD50EA410606BFBD
:100758001046194652EA430619D094EA0C0F02D102
:1007680050EA013613D195EA0C0F05D152EA033647
:100778001CBF104619460AD181EA030101F0004165
:1007880041F0FE4141F470014FF0000070BD41F0AE
:10079800FE4141F4780170BD70B54FF0FF0C4CF488
:1007A800E06C1CEA11541DBF1CEA135594EA0C0FA7
:1007B80095EA0C0F00F0A7F8A4EB050481EA030EF4
:1007C80052EA03354FEA013100F088804FEA0333DB
:1007D8004FF0805545EA131343EA12634FEA0222A9
:1007E80045EA111545EA10654FEA00260EF000416A
:1007F8009D4208BF964244F1FD0404F5407402D2BC
:100808005B084FEA3202B61A65EB03055B084FEA4C
:1008180032024FF480104FF4002CB6EB020E75EB49
:10082800030E22BFB61A754640EA0C005B084FEA71
:100838003202B6EB020E75EB030E22BFB61A7546EE
:1008480040EA5C005B084FEA3202B6EB020E75EB39
:10085800030E22BFB61A754640EA9C005B084FEAB1
:100868003202B6EB020E75EB030E22BFB61A7546BE
:1008780040EADC0055EA060E18D04FEA051545EAAD
:1008880016754FEA06164FEAC30343EA52734FEA56
:10089800C2025FEA1C1CC0D111F4801F0BD141EACF
:1008A80000014FF000004FF0004CB6E711F4801F34
:1008B80004BF01430020B4F1FD0C88BFBCF5E06F14
:1008C8003FF6AFAEB5EB030C04BFB6EB020C5FEA24
:1008D800500C50F1000041EB045170BD0EF0004E79
:1008E8004EEA113114EB5C04C2BFD4EB0C0541EAAB
:1008F800045170BD41F480114FF0000E013C90E6A8
:1009080045EA060E8DE60CEA135594EA0C0F08BF6B
:1009180095EA0C0F3FF43BAF94EA0C0F0AD150EA6A
:1009280001347FF434AF95EA0C0F7FF425AF1046FD
:1009380019462CE795EA0C0F06D152EA03353FF425
:10094800FDAE1046194622E750EA410618BF52EAA2
:1009580043067FF4C5AE50EA41047FF40DAF52EA76
:1009680043057FF4EBAE12E74FF0FF3C06E000BF13
:100978004FF0010C02E000BF4FF0010C4DF804CD20
:100988004FEA410C7FEA6C5C4FEA430C18BF7FEAE0
:100998006C5C1BD001B050EA410C0CBF52EA430C0E
:1009A80091EA030F02BF90EA020F0020704710F18E
:1009B800000F91EA030F58BF994208BF90422CBF1D
:1009C800D8176FEAE37040F0010070474FEA410C16
:1009D8007FEA6C5C02D150EA013C07D14FEA430C34
:1009E8007FEA6C5CD6D152EA033CD3D05DF8040BA5
:1009F800704700BF8446104662468C4619466346D7
:100A080000E000BF01B5FFF7B7FF002848BF10F1AD
:100A1800000F01BD4DF808EDFFF7F4FF0CBF0120F2
:100A280000205DF808FB00BF4DF808EDFFF7EAFF6E
:100A380034BF012000205DF808FB00BF4DF808ED29
:100A4800FFF7E0FF94BF012000205DF808FB00BF1E
:100A58004DF808EDFFF7CEFF94BF012000205DF8A8
:100A680008FB00BF4DF808EDFFF7C4FF34BF0120B5
:100A780000205DF808FB00BF4FEA410212F50012A2
:100A880015D211D56FF47873B3EB625212D94FEACD
:100A9800C12343F0004343EA505311F0004F23FAB7
:100AA80002F018BF404270474FF00000704750EA0C
:100AB800013005D111F0004008BF6FF000407047C9
:100AC8004FF00000704700BF80F0004002E000BF18
:100AD80081F0004142001FBF5FEA410392EA030F21
:100AE8007FEA226C7FEA236C6AD04FEA1262D2EB6B
:100AF8001363C1BFD218414048404140B8BF5B4270
:100B0800192B88BF704710F0004F40F4000020F008
:100B18007F4018BF404211F0004F41F4000121F01E
:100B28007F4118BF494292EA030F3FD0A2F1010268
:100B380041FA03FC10EB0C00C3F1200301FA03F1A6
:100B480000F0004302D5494260EB4000B0F5000FC9
:100B580013D3B0F1807F06D340084FEA310102F188
:100B68000102FE2A51D2B1F1004F40EBC25008BF3A
:100B780020F0010040EA03007047490040EB000004
:100B880010F4000FA2F10102EDD1B0FA80FCACF133
:100B9800080CB2EB0C0200FA0CF0AABF00EBC25032
:100BA80052421843BCBFD0401843704792F0000F20
:100BB80081F4000106BF80F400000132013BB5E773
:100BC8004FEA41037FEA226C18BF7FEA236C21D0E9
:100BD80092EA030F04D092F0000F08BF084670474E
:100BE80090EA010F1CBF0020704712F07F4F04D11C
:100BF800400028BF40F00040704712F100723CBF2F
:100C080000F50000704700F0004343F0FE4040F458
:100C1800000070477FEA226216BF08467FEA236316
:100C28000146420206BF5FEA412390EA010F40F401
:100C3800800070474FF0000304E000BF10F000434D
:100C480048BF40425FEA000C08BF704743F0964334
:100C580001464FF000001CE050EA010208BF70474F
:100C68004FF000030AE000BF50EA010208BF7047D6
:100C780011F0004302D5404261EB41015FEA010CEB
:100C880002BF84460146002043F0B64308BFA3F1E3
:100C98008053A3F50003BCFA8CF2083AA3EBC253C5
:100CA80010DB01FA02FC634400FA02FCC2F12002E4
:100CB800BCF1004F20FA02F243EB020008BF20F01B
:100CC8000100704702F1200201FA02FCC2F1200281
:100CD80050EA4C0021FA02F243EB020008BF20EA76
:100CE800DC7070474BB942B9002908BF002802D010
:100CF8004FF0FF31084600F05BB882B0EC462DE9B2
:100D0800005000F03FF8DDF804E002B00CBC70477A
:100D180070B5FFF7C3FB00230022C3F6F053044667
:100D28000D46FFF70FFC00F045F80646FFF794FB69
:100D380000230022C4F2F013FFF704FC02460B461E
:100D480020462946FFF74AFA00F034F80022024309
:100D58001046314670BD00BFF8B5164604460D462C
:100D68001F4600F047F806FB01F300FB0737A6FB18
:100D78000023FB18A21A65EB0303069CC4E90023B1
:100D8800F8BD00BFF8B5164604460D461F4600F0EC
:100D98008FF900FB07F7A0FB062306FB0177FB187A
:100DA800A21A65EB0303069CC4E90023F8BD00BF43
:100DB800704700BF4A0011D212F5001211D20DD5AA
:100DC8006FF47873B3EB62520ED44FEAC12343F049
:100DD800004343EA505323FA02F070474FF00000F3
:100DE800704750EA013002D14FF0FF3070474FF0A2
:100DF8000000704700292DE9F00F1D46C0F29D80C4
:100E08000024002DC0F2948080460F4694461E466A
:100E1800E3BB8A4255D9B2FA82F747B1C7F1200538
:100E280020FA05F601FA07F1BA403143B840170C29
:100E3800B1FBF7F6030C1FFA82FC07FB16110CFB3B
:100E480006F543EA01439D4208D9711E9B1880F0BC
:100E580013819D4240F21081023E9B18591BB1FB41
:100E6800F7F507FB151380B20CFB05FC40EA0341BC
:100E78008C4507D96B1E8A1880F00081944540F292
:100E8800FD80023D45EA0641002503E08B420CD96E
:100E9800002529460A462B4614B1524263EB430308
:100EA80010461946BDE8F00F7047B3FA83F5002DD8
:100EB80040F087808B4201D38242EAD80025012185
:100EC800E8E712B90126B6FBF2F2B2FA82F6002E72
:100ED80039D18E1A130C1FFA82FC0125B6FBF3F7E1
:100EE80003FB17614FEA10490CFB07F849EA014672
:100EF800B04506D9791EB61802D2B04500F2D380A3
:100F08000F46C8EB0606B6FBF3F103FB116380B28C
:100F18000CFB01FC40EA03439C4506D94E1E9A1877
:100F280002D2944500F2C280314641EA0741B1E756
:100F3800E443524263EB430366E7404261EB4101FD
:100F48004FF0FF345DE7B240C6F1200921FA09F7F6
:100F580020FA09F5130C01FA06F1B7FBF3F845EA94
:100F680001091FFA82FC03FB18774FEA19410CFBB1
:100F780008F541EA0747B040BD420AD9BF1808F151
:100F8800FF3680F08E80BD4240F28B80A8F10208C7
:100F9800BF18791BB1FBF3F503FB15171FFA89F985
:100FA8000CFB05F649EA07418E4206D96F1E8918DF
:100FB80071D28E426FD9023D89188E1B45EA0845C9
:100FC8008CE7C5F1200122FA01F306FA05F61E4363
:100FD80027FA01F24FEA164907FA05F720FA01F154
:100FE800B2FBF9F80F433B0C1FFA86FA09FB1822EB
:100FF8000AFB08FB43EA024293450CFA05FC08D9B0
:10100800921908F1FF314AD2934548D9A8F102084C
:101018009219CBEB0203B3FBF9F109FB1132BFB212
:101028000AFB01FA47EA02439A4506D94A1E9B1968
:1010380033D29A4531D902399B1941EA08410F0C3C
:101048001FFA8CF808FB07F68AB24FEA1C4C08FB1B
:1010580002F80CFB026202EB18420CFB07FC9642FA
:1010680088BF0CF5803CCAEB03030CEB124C6345BC
:101078000ED305D000250DE70E46EFE61D4601E725
:101088001FFA88F800FA05F008EB0245A842F1D2E9
:1010980001390025FEE63D468FE71146CDE7884633
:1010A800B7E7B04675E7023FB6182AE702393CE7CA
:1010B8002DE9F007144605460E46002B3DD18A421D
:1010C80049D9B2FA82F747B1C7F1200120FA01F2F3
:1010D80006FA07F6BC401643BD40220CB6FBF2F0F8
:1010E8002F0CA1B202FB106601FB00F347EA06468B
:1010F800B34208D9471E361980F0F880B34240F24F
:10110800F58002383619F61AB6FBF2F302FB1362C1
:10111800ADB201FB03F145EA0242914207D95E1ED6
:10112800121980F0E580914240F2E280023B43EAE6
:1011380000400021BDE8F00770478B4243D8B3FA5E
:1011480083F4002C42D18B4202D3824200F2DF802A
:1011580000210120EEE712B90127B7FBF2F4B4FA37
:1011680084F2002A40F088800A1B230CA7B20121D0
:10117800B2FBF3F603FB16224FEA154C07FB06F009
:101188004CEA0242904207D9121906F1FF3C02D2FA
:10119800904200F2CE806646121AB2FBF3F003FBCF
:1011A8001023ADB207FB00F745EA03439F4207D976
:1011B800421E1B1980F09E809F4240F29B8002389D
:1011C80040EA0640B6E700210846B3E7C4F1200626
:1011D80022FA06F503FA04F32B434FEA134C21FADB
:1011E80006F501FA04F120FA06F6B5FBFCF746EA23
:1011F800010A1FFA83F80CFB17554FEA1A4108FB3E
:1012080007F941EA0545A94502FA04F203D97E1E09
:10121800ED187FD33746C9EB0501B1FBFCF60CFB93
:1012280016151FFA8AFA08FB06F84AEA05418845A6
:1012380003D9751EC91873D32E4646EA0746370CDC
:101248001FFA82FC0CFB07F5120CB3B20CFB03FC73
:1012580002FB035303EB1C4302FB07F29D4288BFCA
:1012680002F58032C8EB010102EB134291424BD3E5
:1012780042D0304600215DE79440C2F1200521FAB2
:1012880005F6230C20FA05F701FA02F1B6FBF3FC88
:1012980039430D0CA7B203FB1C6645EA064607FB5B
:1012A8000CF8B04500FA02F508D936190CF1FF30F0
:1012B8003DD2B0453BD9ACF1020C3619C8EB060259
:1012C800B2FBF3F003FB10268AB242EA064207FBA0
:1012D80000F1914206D9461E121926D2914224D90C
:1012E80002381219521A40EA0C4141E738460AE717
:1012F80033461CE7104663E71FFA8CFC00FA04F03B
:101308000CEB03439842B4D2701E002112E7214629
:1013180020460FE7A9457FF67DAF023FED187AE733
:10132800884589D9023EC91887E73046DAE78446F6
:10133800C4E7023E12192FE780B500AF4FF46D43A2
:10134800CEF200034FF46D42CEF20002D2F88820AC
:1013580042F47002C3F888204FF46053C4F20203C9
:101368004FF46052C4F20202126842F001021A609D
:101378004FF46053C4F202034FF000029A604FF436
:101388006053C4F202034FF46052C4F202021268BE
:1013980022F0847222F480321A604FF46053C4F24F
:1013A800020343F21002C2F200425A604FF4605343
:1013B800C4F202034FF46052C4F20202126822F42B
:1013C80080221A604FF46053C4F202034FF0000207
:1013D800DA6000F009F84FF46D43CEF200034FF0E5
:1013E80000629A6080BD00BF80B483B000AF4FF048
:1013F80000037B604FF000033B604FF46053C4F27E
:1014080002034FF46052C4F20202126842F48032BE
:101418001A604FF46053C4F202031B6803F40033EC
:101428003B607B6803F101037B603B68002B03D1C1
:101438007B68B3F5A04FECD14FF46053C4F20203BC
:101448001B6803F40033002B03D04FF001033B600B
:1014580002E04FF000033B603B68012B40F08280C4
:101468004FF46053C4F202034FF46052C4F2020214
:10147800126C42F080521A644FF4E043C4F2000345
:101488004FF4E042C4F20002126842F440421A608B
:101498004FF46053C4F202034FF46052C4F20202E4
:1014A80092689A604FF46053C4F202034FF460529A
:1014B800C4F20202926842F400429A604FF4605308
:1014C800C4F202034FF46052C4F20202926842F47A
:1014D800A0529A604FF46053C4F2020345F21942D5
:1014E800C0F240725A604FF46053C4F202034FF4E2
:1014F8006052C4F20202126842F080721A6000BFA1
:101508004FF46053C4F202031B6803F00073002B0E
:10151800F6D04FF47053C4F2020340F205721A6019
:101528004FF46053C4F202034FF46052C4F2020253
:10153800926822F003029A604FF46053C4F20203E7
:101548004FF46052C4F20202926842F002029A60BA
:1015580000BF4FF46053C4F202039B6803F00C030E
:10156800082BF6D107F10C07BD4680BC704700BFB9
:1015780080B586B000AFF860B9607A604FF00003BC
:101588007B614FF000037B611AE07B69BA68D3186E
:101598001B784FF49040C4F20000194617F01AF86F
:1015A80000BF4FF49040C4F200004FF0400117F024
:1015B80025F80346002BF4D07B6903F101037B6116
:1015C8007A697B689A42E0DB7B68184607F118075E
:1015D800BD4680BD80B485B000AF786040F6CC03CE
:1015E800C2F200031B68002B08D140F6CC03C2F2FC
:1015F800000346F2FC52C2F201021A6040F6CC0324
:10160800C2F200031B68FB6040F6CC03C2F2000381
:101618001A687B68D2186B469A4209D946F2F85381
:10162800C2F201034FF00C021A604FF0FF330CE0D6
:1016380040F6CC03C2F200031A687B68D21840F661
:10164800CC03C2F200031A60FB68184607F11407BE
:10165800BD4680BC704700BF80B483B000AF7860DF
:101668004FF0FF33184607F10C07BD4680BC7047A2
:1016780080B483B000AF786039603B684FF40052A3
:101688005A604FF00003184607F10C07BD4680BCAE
:10169800704700BF80B483B000AF78604FF001039B
:1016A800184607F10C07BD4680BC704780B485B06A
:1016B80000AFF860B9607A604FF00003184607F190
:1016C8001407BD4680BC704780B485B000AFF86091
:1016D800B9607A604FF00003184607F11407BD4659
:1016E80080BC704780B400AFBD4680BC704700BF67
:1016F80080B58AB000AF4FF48063C2F200037B620A
:101708001EF0040F0CBFEFF30880EFF309807B6A2B
:101718001B683B627B6A5B68FB617B6A9B68BB6199
:101728007B6ADB687B617B6A1B693B617B6A5B69FF
:10173800FB607B6A9B69BB607B6ADB697B604FF2FD
:101748003850C0F6010019F095F83B6A4FF2505036
:10175800C0F60100194619F029F8FB694FF25C50F0
:10176800C0F60100194619F021F8BB694FF268501C
:10177800C0F60100194619F019F87B694FF2745048
:10178800C0F60100194619F011F83B694FF2805074
:10179800C0F60100194619F009F8FB684FF28C50A1
:1017A800C0F60100194619F001F8BB684FF29850CD
:1017B800C0F60100194618F0F9FF7B684FF2A450F3
:1017C800C0F60100194618F0F1FF4EF63853CEF274
:1017D80000031B684FF2B050C0F60100194618F01C
:1017E800E5FF4EF62853CEF200031B684FF2BC50BB
:1017F800C0F60100194618F0D9FF4EF62C53CEF268
:1018080000031B684FF2C850C0F60100194618F0D3
:10181800CDFF4FF46D43CEF20003DB6A4FF2D45094
:10182800C0F60100194618F0C1FF4EF63053CEF24B
:1018380000031B684FF2EC50C0F60100194618F07F
:10184800B5FF4EF63C53CEF200031B684FF2F8503A
:10185800C0F60100194618F0A9FF4FF46D43CEF207
:101868000003DB6A03F08043002B11D04FF20460C1
:10187800C0F6010018F0FEFF4FF46D43CEF20003EE
:101888009B6A4FF21860C0F60100194618F08EFFE7
:1018980000BEFDE780B400AFFEE700BF80B400AF34
:1018A800FEE700BF80B400AFFEE700BF80B400AF22
:1018B800BD4680BC704700BF80B500AF0AF090FEFF
:1018C80080BD00BF80B500AF4FF4804017F012FE16
:1018D8000346002B07D04FF0010007F09BFB4FF4A5
:1018E800804017F025FE80BD98B500AF4FF44060EA
:1018F800C4F200004FF0100116F0ACFE0346002BB6
:1019080040D042F27C53C2F200031C684FF440609E
:10191800C4F2000016F092FE03469AB240F6D003D5
:10192800C2F2000323F8142004F1010242F27C53AE
:10193800C2F200031A604FF44060C4F200004FF096
:10194800100116F0B7FE42F27C53C2F200031B6886
:10195800012B17D940F6D003C2F200031B886FEAA7
:1019680003039AB240F6D003C2F200035B88D3188F
:101978009BB203F101039BB21A4642F28053C2F2B2
:1019880000031A6098BD00BF80B500AF4FF4C8408F
:10199800C4F200004FF0000145F2EC32C2F200023E
:1019A80017F0D6FD45F2EC33C2F200031A6840F294
:1019B80021339A4219D145F2EC33C2F200031B7A63
:1019C800002B12D145F2EC33C2F200039B7A012BB3
:1019D8000BD145F2EC33C2F20003DB7A4FF23060F0
:1019E800C0F60100194618F0E1FE80BDDFF83CD0D2
:1019F800002100F004B80E4B5B58435004310D48E9
:101A08000D4B42189A42FFF4F6AF0C4A00F003B8A7
:101A1800002342F8043B0A4B9A42FFF4F9AFFFF760
:101A28008BFC18F07DFE00F027F8704700000220BC
:101A38002C35020800000020AC080020B008002067
:101A4800FC650120FFF7FEBF80B400AFBFF34F8FE6
:101A58004FF46D42CEF200024FF46D43CEF2000314
:101A6800DB6803F4E0614FF00403C0F2FA530B4360
:101A7800D360BFF34F8FFEE780B500AF4FF44070DF
:101A880017F03AFE0BF0A8F94FF24C60C0F60100CF
:101A980018F08CFE4FF080504FF0010117F0C2F89B
:101AA8004FF0010017F096F94FF0130016F090FF71
:101AB800034603F00203002B06D14FF26C60C0F618
:101AC800010018F073FE01E016F00EFF4FF07D00E4
:101AD80017F026F90346002B02D017F069F911E038
:101AE8004FF07C0017F01CF90346002B0AD14FF089
:101AF8007B0017F015F90346002B03D14FF07A004D
:101B080017F00EF917F054F900F084F800F046F8D1
:101B180009F086FD0346002B04D102F061FA00F0BB
:101B280007F801E0FFF790FF4FF00003184680BD6B
:101B380080B500AF04F022FA08F082F90346002BC2
:101B480001D008F0B3FC0AF063FD02460B461046CC
:101B5800194608F0B5FC09F005FE0346012B17D11C
:101B680009F0F2FE03461A4645F20043C2F20003AA
:101B78001A7045F20043C2F200031B78002B07D00D
:101B880045F20043C2F200031B78184602F054FAEB
:101B980000F0A0F817F02EF9CCE700BF80B582B0AE
:101BA80000AF0AF059FE4FF000037B6043F24C137C
:101BB800C0F602031B784FEA03637A6813437B601D
:101BC80043F24D13C0F602031B784FEA03437A68C9
:101BD80013437B6043F24E13C0F602031B784FEAAF
:101BE80003237A6813437B6043F24F13C0F6020362
:101BF8001B787A6813437B6078680AF005FF43F620
:101C08004850C2F201000AF0AFFE07F10807BD46CE
:101C180080BD00BF80B584B000AF0AF0B5FF04F006
:101C280097F904F0ADFC03F0D9F902F015FC4BF676
:101C38003520C0F6000005F0BBF94BF63520C0F69C
:101C4800000003F0D3FC4BF63520C0F6000002F08C
:101C580071FF0AF0BDFF0BF031FA4FF00003FB7182
:101C68004FF00003C0F60E03FB604FF00003BB60AB
:101C780020E0FA684FF01F03C0F60E039A4206D917
:101C88004FF29460C0F6010018F090FD15E0FB6873
:101C98001B78FB7143F64853C2F20103BA689B18DC
:101CA800FA791A70FB6803F10103FB60BB6803F162
:101CB8000103BB60BB681F2BDBDD43F64853C2F250
:101CC80001034FF0000283F8202007F11007BD46FA
:101CD80080BD00BFF0B583B000AF02F03BFF034604
:101CE800012B37D109F03EFD0346012B32D143F6D3
:101CF8005433C2F201034FF2C862C0F6010214461F
:101D08001D4604F1200C2E46A646BEE80F003060A2
:101D18007160B260F36004F1100405F110056445C8
:101D2800F1D12B4622461068186012791A714FF0CB
:101D38002403FB71FB79002B06D043F65430C2F222
:101D4800010009F073FE05E04FF2F060C0F60100F3
:101D580018F02CFD07F10C07BD46F0BD80B483B028
:101D680000AF0346FB71FA7940F25C03C2F200034C
:101D780053F82230184607F10C07BD4680BC70475F
:101D880080B483B000AF0346FB71FA7940F20003D8
:101D9800C2F2000353F82230184607F10C07BD467B
:101DA80080BC704780B400AFBFF34F8F4FF46D42D3
:101DB800CEF200024FF46D43CEF20003DB6803F469
:101DC800E0614FF00403C0F2FA530B43D360BFF352
:101DD8004F8FFEE780B5E0B000AF07F10C03186045
:101DE80007F10803196007F107031A704FF66040FE
:101DF800C0F6010018F0DAFC07F10C03186800F0CF
:101E080019FF07F10C03186800F038F9034687F842
:101E18007E314FF0000387F87F3107F1080007F1A2
:101E2800C80107F1140207F107031B78006800F0E6
:101E38004DFA034687F87D3197F87D31012B0ED195
:101E480097F87E0107F1C80107F1140207F10703AB
:101E58001B7800F029FF034687F87F3103E04FF035
:101E6800030387F87F3197F87F31184600F04AF965
:101E780007F5C077BD4680BD80B5BCB000AF4FF652
:101E88008C40C0F6010040F6D401C2F2000118F0FF
:101E98008DFC4FF0000387F8EB3040F6D400C2F217
:101EA800000043F25011C0F6020118F0A5FDC7F872
:101EB800EC0012E097F8EB3003F1010387F8EB3000
:101EC800D7F8EC3003F10103184643F25011C0F67D
:101ED800020118F091FDC7F8EC00D7F8EC30002BA0
:101EE800E8D197F8EB304FF6A440C0F60100194648
:101EF80018F05CFC97F8EB30002B00F08B8040F674
:101F0800D400C2F2000043F25011C0F6020118F0EA
:101F18002FFD0346C7F8DC30D7F8DC30242B08D176
:101F28004FF6C840C0F6010018F040FC02F05EF819
:101F3800A0E040F6D400C2F2000043F25011C0F60F
:101F4800020118F071FDC7F8EC003B461846D7F8B7
:101F5800EC1018F005FD4FF00003C7F8E43023E05B
:101F68004FF0000043F25011C0F6020118F05CFD7A
:101F7800C7F8EC00D7F8EC30002B1CD0D7F8E420D9
:101F880013464FEAC3039B184FEA830307F1240261
:101F9800D3181846D7F8EC1018F0E2FCD7F8E4305C
:101FA80003F10103C7F8E43097F8EB20D7F8E430E1
:101FB8009A42D5DC00E000BF3B464FF60050C0F621
:101FC8000100194618F0F2FB4FF00003C7F8E030A3
:101FD80019E007F12401D7F8E02013464FEAC303BC
:101FE8009B184FEA8303CB184FF63050C0F6010018
:101FF800D7F8E0101A4618F0D9FBD7F8E03003F10B
:102008000103C7F8E03097F8EB20D7F8E0309A42A0
:10201800DFDC25E040F6D400C2F2000018F0B8FC7E
:102028000346C7F8D830D7F8D830232B08D94FF64D
:10203800C840C0F6010018F0B9FB01F0D7FF19E05D
:102048003B46184640F6D401C2F2000118F088FC5D
:102058003B464FF64050C0F60100194618F0A6FB63
:10206800394607F1240297F8EB30084611461A461C
:10207800FFF7B0FE07F1F007BD4680BD80B584B01C
:1020880000AF78604FF66450C0F6010018F08EFB80
:102098004FF00003FB7311E0FA7B40F28003C2F2B9
:1020A800000353F822307868194618F04EFC0346AE
:1020B800002B07D0FB7B03F10103FB73FB7B1B2B7E
:1020C800EAD900E000BFFB7B1B2B0ED8FA7B40F25D
:1020D8008003C2F2000353F822304FF69050C0F646
:1020E8000100194618F062FB05E04FF6C850C0F62B
:1020F800010018F05BFBFB7B184607F11007BD4693
:1021080080BD00BF80B584B000AF0346FB71FB798A
:102118001846FFF723FEB8604FF00103FB73FB7905
:10212800082B00F2988001A252F823F059210008E8
:102138007B21000897210008B3210008CF2100085F
:102148000B2200082722000843220008EF2100087C
:1021580043F65430C2F201004FF4FA714FF60062B0
:10216800C0F60102BB6818F08DFB4FF00003FB734B
:102178007FE043F65430C2F201004FF4FA714FF693
:102188001062C0F60102BB6818F07CFB71E043F6F0
:102198005430C2F201004FF4FA714FF61C62C0F6D7
:1021A8000102BB6818F06EFB63E043F65430C2F2DC
:1021B80001004FF4FA714FF61C62C0F60102BB68C9
:1021C80018F060FB55E043F65430C2F201004FF4BA
:1021D800FA714FF62862C0F60102BB6818F052FB8C
:1021E80000F05CF845E043F65430C2F201004FF4C9
:1021F800FA714FF61C62C0F60102BB6818F042FB88
:1022080037E043F65430C2F201004FF4FA714FF64A
:102218001C62C0F60102BB6818F034FB29E043F6E3
:102228005430C2F201004FF4FA714FF61C62C0F646
:102238000102BB6818F026FB1BE043F65430C2F2DB
:1022480001004FF4FA714FF61C62C0F60102BB6838
:1022580018F018FB0DE043F65430C2F201004FF4B9
:10226800FA714FF63862C0F60102BB6818F00AFB33
:1022780000BFFB7B012B06D143F65430C2F20100AC
:102288000AF0A8F805E043F65430C2F201000AF05B
:10229800D9F807F11007BD4680BD00BF80B500AF73
:1022A80040F6D823C2F200031B781846FFF768FDF2
:1022B800034643F65430C2F201004FF4FA714FF668
:1022C8004462C0F6010218F0DDFA80BD80B590B016
:1022D80000AFF860B9607A60FB704FF0010387F8CF
:1022E8003F304FF00003BB6373E0BA6B13464FEA0D
:1022F800C3039B184FEA8303FA68D3187B63786B90
:102308004FF65861C0F601014FF0020218F05DFB6C
:102318000346002B4CD17B6B03F1020307F110023B
:102328001046194618F01CFB07F1100318464FF623
:102338005C61C0F6010118F077FB7863786B00F0F8
:1023480079FCBA6B13464FEAC3039B184FEA830321
:10235800BA68D3181846796B18F002FB4FF00000E2
:102368004FF65C61C0F6010118F05EFB78637B6B89
:10237800002B10D0786B00F05DFCBA6B13464FEA67
:10238800C3039B184FEA83037A68D3181846796BFE
:1023980018F0E6FA19E0BA6B13464FEAC3039B1824
:1023A8004FEA83037A68D3184FF000021A700CE0E2
:1023B8004FF66060C0F60100B96B7A6B18F0F6F959
:1023C8004FF0000387F83F3007E0BB6B03F10103D0
:1023D800BB63FA78BB6B9A4287DC97F83F301846A4
:1023E80007F14007BD4680BD80B588B000AFF860F2
:1023F800B960FA71BB71FA79BB799A4202D94FF088
:10240800000342E04FF00003FB614FF00003FB764E
:102418004FF000037B6132E04FF00003FB614FF0A7
:102428000003FB761DE07A6913464FEAC3039B1845
:102438004FEA8303FA68D218FB694FEA8303B96A43
:10244800CB181B68F96901F10101F96110461946B9
:1024580018F07BFA0346002B03D14FF00103FB76FB
:1024680003E0BA79FB699A42DDDCFB7E002B02D1DE
:102478004FF0000309E07B6903F101037B61FA79FE
:102488007B699A42C8DC4FF00103184607F1200720
:10249800BD4680BD80B582B000AF786078684FF6E1
:1024A800AC61C0F6010118F050FA0346002B02D1C6
:1024B8004FF0030317E078684FF02C0118F038FA52
:1024C8000346002B02D04FF002030CE078684FF06F
:1024D8002D0118F02DFA0346002B02D04FF001030E
:1024E80001E04FF00003184607F10807BD4680BD1C
:1024F80080B58CB000AF03463960FB714FF0000324
:1025080087F82F304FF00003BB604FF0FF03FB75D7
:102518004FF000033B614FF00003BB624FF0000334
:1025280087F827304FF0000387F826304FF0000374
:10253800FB734FF00003BB734FF000033B620CE0EA
:1025480045F26C43C2F200033A6A4FF0000143F8C7
:1025580022103B6A03F101033B623B6A242BEFD94B
:10256800FB79032B00F2E28001A252F823F000BFAE
:10257800892500083D260008CD250008F726000813
:1025880038684FF000014FF00A0218F047FB034685
:10259800FB7597F91730002B02DBFB7D252B06D93D
:1025A8004FF6B060C0F6010018F000F9C7E0FB7DF7
:1025B800184604F003FC024645F26C43C2F20003DD
:1025C8001A60BCE03B68002B00F0B8803B68BB6237
:1025D80000E000BFBB681B782C2B03D1BB6803F15C
:1025E8000103BB6207F10803B86A19464FF00A02F3
:1025F80018F014FB38613B69242B15D83B69002B74
:1026080012DB3B69DBB2184604F0D8FB014645F201
:102618006C43C2F200033A6943F8221097F82F304E
:1026280003F1010387F82F30BB681B78002BD0D14A
:1026380000BF83E04FF0000387F827304FF0000316
:1026480087F8263007F10803386819464FF00A0260
:1026580018F0E4FA0346FB73BB6803F1010318465C
:102668004FF000014FF00A0218F0D8FA0346BB7386
:10267800FB7B002B03D0FB7B87F8273003E04FF070
:10268800000387F82730BB7B002B03D0BB7B87F880
:10269800263003E04FF0250387F8263097F82620E8
:1026A80097F82730D31ADBB203F1010387F82F30EC
:1026B8004FF00003FB6114E0FB69DAB297F82730AA
:1026C800D318DBB2184604F079FB014645F26C4397
:1026D800C2F20003FA6943F82210FB6903F101030F
:1026E800FB6197F82F20FB699A42E5DC27E04FF061
:1026F800250387F82F304FF00003BB6110E0BB695A
:10270800DBB2184604F05AFB014645F26C43C2F2AC
:102718000003BA6943F82210BB6903F10103BB61E6
:1027280097F82F20BB699A42E9DC08E04FF6F4607D
:10273800C0F6010018F03AF800BF00E000BF07F14A
:102748003007BD4680BD00BF80B58CB000AF0346E2
:102758003960FB714FF0000387F82F304FF000030A
:10276800BB604FF0FF03FB754FF000033B614FF078
:102778000003BB624FF0000387F827304FF00003D7
:1027880087F826304FF00003FB734FF00003BB734C
:102798004FF000033B620CE045F20C43C2F2000329
:1027A8003A6A4FF0000143F822103B6A03F1010333
:1027B8003B623B6A172BEFD9FB79032B00F2E280CF
:1027C80001A252F823F000BFE1270008952800086D
:1027D800252800084F29000838684FF000014FF0FD
:1027E8000A0218F01BFA0346FB7597F91730002BFD
:1027F80002DBFB7D182B06D94FF6B060C0F601004E
:1028080017F0D4FFC7E0FB7D184602F0B1FE024680
:1028180045F20C43C2F200031A60BCE03B68002B8F
:1028280000F0B8803B68BB6200E000BFBB681B7863
:102838002C2B03D1BB6803F10103BB6207F108032A
:10284800B86A19464FF00A0218F0E8F938613B698E
:10285800172B15D83B69002B12DB3B69DBB21846F6
:1028680002F086FE014645F20C43C2F200033A69C3
:1028780043F8221097F82F3003F1010387F82F301F
:10288800BB681B78002BD0D100BF83E04FF000035A
:1028980087F827304FF0000387F8263007F1080340
:1028A800386819464FF00A0218F0B8F90346FB7366
:1028B800BB6803F1010318464FF000014FF00A020C
:1028C80018F0ACF90346BB73FB7B002B03D0FB7BF2
:1028D80087F8273003E04FF0000387F82730BB7BE9
:1028E800002B03D0BB7B87F8263003E04FF018039A
:1028F80087F8263097F8262097F82730D31ADBB2C6
:1029080003F1010387F82F304FF00003FB6114E057
:10291800FB69DAB297F82730D318DBB2184602F011
:1029280027FE014645F20C43C2F20003FA6943F858
:102938002210FB6903F10103FB6197F82F20FB6963
:102948009A42E5DC27E04FF0180387F82F304FF064
:102958000003BB6110E0BB69DBB2184602F008FE59
:10296800014645F20C43C2F20003BA6943F822104B
:10297800BB6903F10103BB6197F82F20BB699A4239
:10298800E9DC08E04FF6F460C0F6010017F00EFF2E
:1029980000BF00E000BF07F13007BD4680BD00BFA3
:1029A80080B58CB000AF03463960FB714FF000036F
:1029B80087F82F304FF00003BB604FF0FF03FB7523
:1029C8004FF000033B614FF00003BB624FF0000380
:1029D80087F827304FF0000387F826304FF00003C0
:1029E800FB734FF00003BB734FF000033B620CE036
:1029F80045F20053C2F200033A6A4FF0000143F86F
:102A080022103B6A03F101033B623B6A0F2BEFD9AB
:102A1800FB79032B00F2E28001A252F823F000BFF9
:102A2800392A0008ED2A00087D2A0008A72B00088B
:102A380038684FF000014FF00A0218F0EFF803462B
:102A4800FB7597F91730002B02DBFB7D102B06D99D
:102A58004FF6B060C0F6010017F0A8FEC6E0FB7D97
:102A6800184601F067FF024645F20053C2F2000320
:102A78001A60BBE03B68002B00F0B7803B68BB6284
:102A880000E000BFBB681B782C2B03D1BB6803F1A7
:102A98000103BB6207F10803B86A19464FF00A023E
:102AA80018F0BCF838613B690F2B15D83B69002B2F
:102AB80012DB3B69DBB2184601F03CFF014645F2E8
:102AC8000053C2F200033A6943F8221097F82F30F6
:102AD80003F1010387F82F30BB681B78002BD0D196
:102AE80000BF82E04FF0000387F827304FF0000363
:102AF80087F8263007F10803386819464FF00A02AC
:102B080018F08CF80346FB73BB6803F10103184601
:102B18004FF000014FF00A0218F080F80346BB732B
:102B2800FB7B002B03D0FB7B87F8273003E04FF0BB
:102B3800000387F82730BB7B002B03D0BB7B87F8CB
:102B4800263003E04FF0100387F8263097F8262048
:102B580097F82730D31ADBB203F1010387F82F3037
:102B68004FF00003FB6114E0FB69DAB297F82730F5
:102B7800D318DBB2184601F0DDFE014645F20053DA
:102B8800C2F20003FA6943F82210FB6903F101035A
:102B9800FB6197F82F20FB699A42E5DC26E04FF0AD
:102BA800100387F82F304FF00003BB6110E0BB69BA
:102BB800DBB2184601F0BEFE014645F20053C2F2F0
:102BC8000003BA6943F82210BB6903F10103BB6132
:102BD80097F82F20BB699A42E9DC07E04FF6F460CA
:102BE800C0F6010017F0E2FD00E000BF07F1300772
:102BF800BD4680BD80B483B000AF0346FB71FB794E
:102C08005F2B0BD0FB79402B02D9FB795A2B05D9C6
:102C1800FB79602B05D9FB797A2B02D84FF0010399
:102C280001E04FF00003184607F10C07BD4680BCD1
:102C3800704700BF80B584B000AF78604FF00003E4
:102C4800FB6027E0FB687A68D3181B78FB72FB7A75
:102C58001846FFF7CFFF0346002B17D0FB7A402B0F
:102C680005D9FB7A5A2B02D84FF0010301E04FF047
:102C78000003002B0AD1FB7A5F2B07D0FB687A6828
:102C8800D318FA7AA2F12002D2B21A70FB6803F1C3
:102C98000103FB60FB687A68D3181B78002BD1D13D
:102CA80007F11007BD4680BD80B586B000AFB9609A
:102CB8007A600246FA73BB734FF00003FB75FB7B27
:102CC8001B2B00F2248101A252F823F0452D0008A5
:102CD800572D0008692D00087B2D00088D2D000850
:102CE8009F2D0008B12D0008C32D0008D52D000820
:102CF800E72D0008F92D00080B2E00081D2E0008EE
:102D08002F2E0008412E0008532E0008652E0008BB
:102D1800772E0008892E00088F2E0008B12E000893
:102D2800B72E0008C92E0008CF2E0008E12E000893
:102D3800F32E0008052F00082B2F0008BB7BB8686E
:102D480079681A4600F0F4F80346FB75EAE0BB7BA5
:102D5800B86879681A4600F031F90346FB75E1E076
:102D6800BB7BB86879681A4600F06EF90346FB75B4
:102D7800D8E0BB7BB86879681A4600F04BFA03467E
:102D8800FB75CFE0BB7BB86879681A4600F094FA07
:102D98000346FB75C6E0BB7BB86879681A4600F045
:102DA800DDFA0346FB75BDE0BB7BB86879681A4657
:102DB80000F0E6FA0346FB75B4E0BB7BB8687968B7
:102DC8001A4600F01BFB0346FB75ABE0BB7BB868FB
:102DD80079681A4600F032FB0346FB75A2E0BB7B1C
:102DE800B86879681A4600F06FFB0346FB7599E0EE
:102DF800BB7BB86879681A4600F042FC0346FB754D
:102E080090E0BB7BB86879681A4600F08BFC0346F3
:102E1800FB7587E0BB7BB86879681A4600F0D4FC7C
:102E28000346FB757EE0BB7BB86879681A4600F0FC
:102E380011FD0346FB7575E0BB7BB86879681A46D7
:102E480000F04EFD0346FB756CE0BB7BB868796803
:102E58001A4600F02BFE0346FB7563E0BB7BB8689F
:102E680079681A4600F074FE0346FB755AE0BB7B8E
:102E7800B86879681A4600F0BDFE0346FB7551E054
:102E880008F028FC4EE04FF0130015F0A1FD0346B2
:102E980043F001034FF01300194615F07DFD08F0CB
:102EA80019FCFEF77FFF3DE000F05CFF3AE0BB7BDA
:102EB800B86879681A4600F0AFFE0346FB7531E042
:102EC80003F0E6F82EE0BB7BB86879681A4601F093
:102ED8001DF80346FB7525E0BB7BB86879681A4680
:102EE80001F026F80346FB751CE0BB7BB8687968DF
:102EF8001A4601F02FF80346FB7513E0BB7BB86850
:102F080079681A4601F038F80346FB750AE04FF66F
:102F18003470C0F6010017F049FC4FF00203FB754E
:102F280000E000BFFB7D184607F11807BD4680BDCD
:102F380080B588B002AFF860B9601346FB714FF0F6
:102F48000003FB75FA7940F6D403C2F2000300933C
:102F5800F868B9684FF00003FFF746FA0346002BFC
:102F68001CD003F087FB0346BB75BB7D002B1ED02E
:102F7800BB7D1846FEF704FF03464FF67470C0F693
:102F88000100194617F012FC40F6D823C2F20003DC
:102F9800BA7D1A704FF00403FB7508E04FF6BC7059
:102FA800C0F6010017F002FC4FF00103FB75FB7D32
:102FB800184607F11807BD4680BD00BF80B588B028
:102FC80002AFF860B9601346FB714FF00003FB7560
:102FD800FA7940F6D403C2F200030093F868B9689E
:102FE8004FF00003FFF700FA0346002B1DD009F04D
:102FF8001DFE0AF02BFE43F65433C2F201031B7880
:10300800002B08D043F65430C2F2010008F00EFD40
:1030180009F00CFE12E040F21400C0F6020017F0AE
:10302800C5FB4FF00403FB7508E040F25C00C0F6F6
:10303800020017F0BBFB4FF00103FB75FB7D184640
:1030480007F11807BD4680BD80B58CB002AFF860A7
:10305800B9601346FB714FF0000387F82730FA79FF
:1030680040F2F003C2F200030093F868B9684FF029
:103078000203FFF7B9F90346002B00F0BA804FF0BE
:1030880000033B624FF00303FB774FF0FF03FB7530
:103098004FF00003BB6162E040F2F003C2F20003AC
:1030A800BA6953F82220FB79F86811461A4601F0EC
:1030B8002DF80346FB7597F91730002B47DBBB69E2
:1030C800002B02D0012B25D03DE040F2B400C0F621
:1030D800020017F06BFB97F9172013464FEAC3035A
:1030E8009B184FEA8303BA68D3181846FFF7D2F93A
:1030F8000346FB7797F9172013464FEAC3039B183B
:103108004FEA8303BA68D318FA7F10461946FFF7C7
:10311800EFF91CE040F2CC00C0F6020017F046FBC5
:1031280097F9172013464FEAC3039B184FEA830306
:10313800BA68D31818464FF000014FF00A0217F08A
:103148006DFD386203E04FF0030387F8273097F8E6
:103158002730002B07D1BB6903F10103BB61BB69B1
:10316800012B99DD00E000BF97F82730002B4AD1EA
:10317800FB7F032B36D801A252F823F095310008C3
:10318800C1310008AB310008D73100083B6A45F26D
:103198006C40C2F2000019464FF0010205F096FBA0
:1031A80024E03B6A45F26C40C2F2000019464FF039
:1031B800000205F08BFB19E03B6A45F26C40C2F255
:1031C800000019464FF0000205F080FB0EE03B6A54
:1031D80045F26C40C2F2000019464FF0000205F0BB
:1031E80075FB03E04FF0040387F8273002F0BCFFBB
:1031F80009E040F2E400C0F6020017F0D7FA4FF0F9
:10320800010387F8273097F82730184607F1280771
:10321800BD4680BD80B588B002AFF860B96013467E
:10322800FB714FF00003FB7503F020F80346002BF9
:1032380039D1FA7940F2F803C2F200030093F86832
:10324800B9684FF00503FFF7CFF80346012B20D1EB
:10325800FB79F868B9681A4603F08EFB0346BB751C
:10326800BB7D002B22D0BB7D1846FEF789FD0346A7
:1032780040F23C10C0F60200194617F097FA40F6E3
:10328800D823C2F20003BA7D1A704FF00403FB750D
:103298000CE040F28810C0F6020017F087FA4FF0F1
:1032A8000303FB7502E04FF00503FB75FB7D184631
:1032B80007F11807BD4680BD80B588B002AFF86039
:1032C800B9601346FB714FF00003FB7502F0CEFFA7
:1032D8000346002B39D1FA7940F20C13C2F20003ED
:1032E8000093F868B9684FF00103FFF77DF80346CB
:1032F800002B20D0FB79F868B9681A4603F0E2FC85
:103308000346BB75BB7D002B22D0BB7D1846FEF75C
:1033180037FD034640F2E810C0F60200194617F0E0
:1033280045FA40F6D823C2F20003BA7D1A704FF06E
:103338000403FB750CE040F23820C0F6020017F0D9
:1033480035FA4FF00103FB7502E04FF00503FB75FA
:10335800FB7D184607F11807BD4680BD80B487B0CD
:1033680000AFF860B9601346FB714FF00003FB75BE
:10337800FB7D184607F11C07BD4680BC704700BF9F
:1033880080B588B002AFF860B9601346FB714FF0A2
:103398000003FB75FA7940F21013C2F200030093A0
:1033A800F868B9684FF00403FFF71EF80346002BCE
:1033B80014D0FB79F868B9681A4600F011FF034683
:1033C800BB75BB7D002B12D040F6D823C2F2000398
:1033D800BA7D1A704FF00403FB7508E040F29420A0
:1033E800C0F6020017F0E2F94FF00103FB75FB7D10
:1033F800184607F11807BD4680BD00BF80B586B0E6
:1034080000AFF860B9601346FB714FF00003FB751D
:1034180000F0D8FE0346BB75BB7D002B08D040F6F4
:10342800D823C2F20003BA7D1A704FF00403FB756B
:10343800FB7D184607F11807BD4680BD80B588B0EA
:1034480002AFF860B9601346FB714FF00003FB75DB
:10345800FA7940F6D403C2F200030093F868B96819
:103468004FF00003FEF7C0FF0346002B1CD001F00D
:1034780037FE0346BB75BB7D002B1ED0BB7D1846AF
:10348800FEF77EFC034640F2F820C0F6020019461B
:1034980017F08CF940F6D823C2F20003BA7D1A70EF
:1034A8004FF00403FB7508E040F24430C0F6020018
:1034B80017F07CF94FF00103FB75FB7D184607F107
:1034C8001807BD4680BD00BF80B58CB002AFF8605C
:1034D800B9601346FB714FF0000387F82730FA797B
:1034E80040F22013C2F200030093F868B9684FF065
:1034F8000203FEF779FF0346002B00F0B9804FF076
:1035080000033B624FF00003FB774FF0FF03FB75AE
:103518004FF00003BB6162E040F22013C2F20003E7
:10352800BA6953F82220FB79F86811461A4600F068
:10353800EDFD0346FB7597F91730002B47DBBB6998
:10354800002B02D0012B25D03DE040F2B400C0F69C
:10355800020017F02BF997F9172013464FEAC30317
:103568009B184FEA8303BA68D3181846FEF792FFF0
:103578000346FB7797F9172013464FEAC3039B18B6
:103588004FEA8303BA68D318FA7F10461946FFF743
:10359800DBF81CE040F2CC00C0F6020017F006F998
:1035A80097F9172013464FEAC3039B184FEA830382
:1035B800BA68D31818464FF000014FF00A0217F006
:1035C8002DFB386203E04FF0030387F8273097F8A4
:1035D8002730002B07D1BB6903F10103BB61BB692D
:1035E800012B99DD00E000BF97F82730002B3FD171
:1035F800FB7F032B36D801A252F823F015360008BA
:10360800413600082B360008573600083B6A45F259
:103618000C40C2F2000019464FF0010202F0B2FB62
:1036280024E03B6A45F20C40C2F2000019464FF014
:10363800000202F0A7FB19E03B6A45F20C40C2F217
:10364800000019464FF0000202F09CFB0EE03B6AB6
:1036580045F20C40C2F2000019464FF0000202F099
:1036680091FB03E04FF0040387F8273002F090FD48
:1036780097F82730184607F12807BD4680BD00BFD8
:1036880080B588B002AFF860B9601346FB714FF09F
:103698000003FB7502F0F6FD0346002B39D1FA79D9
:1036A80040F22813C2F200030093F868B9684FF09B
:1036B8000203FEF799FE0346012B20D1FB79F86837
:1036C800B9681A4601F0B6FD0346BB75BB7D002BF1
:1036D80022D0BB7D1846FEF753FB034640F2A030CC
:1036E800C0F60200194617F061F840F6D823C2F276
:1036F8000003BA7D1A704FF00403FB750CE040F22A
:10370800F430C0F6020017F051F84FF00103FB75D2
:1037180002E04FF00603FB75FB7D184607F118071A
:10372800BD4680BD80B588B002AFF860B960134669
:10373800FB714FF00003FB7502F0A4FD0346002B5C
:1037480039D1FA7940F23013C2F200030093F868D5
:10375800B9684FF00103FEF747FE0346002B20D05F
:10376800FB79F868B9681A4601F07CFE0346BB7518
:10377800BB7D002B22D0BB7D1846FEF701FB03461C
:1037880040F25440C0F60200194617F00FF840F610
:10379800D823C2F20003BA7D1A704FF00403FB75F8
:1037A8000CE040F2A440C0F6020016F0FFFF4FF014
:1037B8000103FB7502E04FF00603FB75FB7D18461D
:1037C80007F11807BD4680BD80B588B002AFF86024
:1037D800B9601346FB714FF00003FB75FA7940F6A8
:1037E800D403C2F200030093F868B9684FF00003ED
:1037F800FEF7FAFD0346002B1CD000F04FFE0346EF
:10380800BB75BB7D002B1ED0BB7D1846FEF7B8FAF2
:10381800034640F20050C0F60200194616F0C6FFF3
:1038280040F6D823C2F20003BA7D1A704FF00403A1
:10383800FB7508E040F24C50C0F6020016F0B6FFE7
:103848004FF00103FB75FB7D184607F11807BD46CD
:1038580080BD00BF80B588B002AFF860B96013467C
:10386800FB714FF00003FB75FA7940F23413C2F292
:1038780000030093F868B9684FF00203FEF7B4FD3F
:103888000346002B1CD0FB79F868B9681A4601F08A
:1038980077F80346BB75BB7D002B1AD0BB7D40F281
:1038A800A850C0F60200194616F080FF40F6D8234B
:1038B800C2F20003BA7D1A704FF00403FB7508E0EA
:1038C80040F2F450C0F6020016F070FF4FF001030A
:1038D800FB75FB7D184607F11807BD4680BD00BF84
:1038E80080B58CB002AFF860B9601346FB714FF039
:1038F800000387F82730FA7940F23C13C2F200033C
:103908000093F868B9684FF00203FEF76DFD0346AF
:10391800002B00F0BA804FF000033B624FF0000329
:10392800FB774FF0FF03FB754FF00003BB6162E0CC
:1039380040F23C13C2F20003BA6953F82220FB7923
:10394800F86811461A4600F0E1FB0346FB7597F943
:103958001730002B47DBBB69002B02D0012B25D089
:103968003DE040F2B400C0F6020016F01FFF97F9E0
:10397800172013464FEAC3039B184FEA8303BA681C
:10398800D3181846FEF786FD0346FB7797F91720EC
:1039980013464FEAC3039B184FEA8303BA68D31848
:1039A800FA7F10461946FEF7FBFF1CE040F2CC00F8
:1039B800C0F6020016F0FAFE97F9172013464FEAF0
:1039C800C3039B184FEA8303BA68D31818464FF00D
:1039D80000014FF00A0217F021F9386203E04FF0B6
:1039E800030387F8273097F82730002B07D1BB69E6
:1039F80003F10103BB61BB69012B99DD00E000BF46
:103A080097F82730002B4AD1FB7F032B36D801A229
:103A180052F823F02D3A0008593A0008433A0008B2
:103A28006F3A00083B6A45F20050C2F2000019469E
:103A38004FF0010201F072FF24E03B6A45F20050AA
:103A4800C2F2000019464FF0000201F067FF19E0CA
:103A58003B6A45F20050C2F2000019464FF00002DE
:103A680001F05CFF0EE03B6A45F20050C2F2000034
:103A780019464FF0000201F051FF03E04FF0040334
:103A880087F8273002F098FB09E040F24C60C0F656
:103A9800020016F08BFE4FF0010387F8273097F8E5
:103AA8002730184607F12807BD4680BD80B588B085
:103AB80002AFF860B9601346FB714FF00003FB7565
:103AC80002F0ECFB0346002B39D1FA7940F244139B
:103AD800C2F200030093F868B9684FF00203FEF7DA
:103AE80083FC0346002B20D0FB79F868B9681A4696
:103AF80000F082FD0346BB75BB7D002B22D0BB7D49
:103B08001846FEF73DF9034640F2A460C0F60200ED
:103B1800194616F04BFE40F6D823C2F20003BA7DD0
:103B28001A704FF00403FB750CE040F2F860C0F621
:103B3800020016F03BFE4FF00103FB7502E04FF068
:103B48000703FB75FB7D184607F11807BD4680BDC6
:103B580080B588B002AFF860B9601346FB714FF0CA
:103B68000003FB7502F09AFB0346002B39D1FA7962
:103B780040F24C13C2F200030093F868B9684FF0A2
:103B88000103FEF731FC0346002B20D0FB79F868CF
:103B9800B9681A4600F048FE0346BB75BB7D002B8A
:103BA80022D0BB7D1846FEF7EBF8034640F258706A
:103BB800C0F60200194616F0F9FD40F6D823C2F205
:103BC8000003BA7D1A704FF00403FB750CE040F255
:103BD800A870C0F6020016F0E9FD4FF00103FB756E
:103BE80002E04FF00703FB75FB7D184607F1180745
:103BF800BD4680BD80B487B000AFF860B960134699
:103C0800FB714FF00003FB75FB7D184607F11C079D
:103C1800BD4680BC704700BF80B58AB002AFF8606F
:103C2800B9601346FB714FF00003FB77FA7940F255
:103C38005013C2F200030093F868B9684FF001030B
:103C4800FEF7D2FB0346002B7DD04FF00003BB618B
:103C58004FF0FF03FB744FF000037B6138E040F244
:103C68005013C2F200037A6953F82220FB79F868EE
:103C780011461A4600F04AFA0346FB7497F91330C6
:103C8800002B1EDB7B69002B18D140F2CC00C0F65C
:103C9800020016F08BFD97F9132013464FEAC30371
:103CA8009B184FEA8303BA68D31818464FF00001EF
:103CB8004FF00A0216F0B2FFB86102E04FF00303BA
:103CC800FB77FB7F002B07D17B6903F101037B6145
:103CD8007B69002BC3DD00E000BFFB7F002B3BD1DD
:103CE8004FF003004FF00001FEF702FC4FF0030015
:103CF8004FF00001FEF728FD4FF003004FF00001E0
:103D0800FEF74EFEBB6945F26C40C2F20000194650
:103D18004FF0000204F0DAFDBB6945F20C40C2F234
:103D2800000019464FF0000202F02CF8BB6945F27A
:103D38000050C2F2000019464FF0000201F0EEFDFB
:103D480002F04EFA08E040F2E400C0F6020016F075
:103D58002DFD4FF00103FB77FB7F184607F1200785
:103D6800BD4680BDF0B58DB006AF4FF00003FB74C3
:103D780008F086FE78617B69002B04D140F60403C5
:103D8800C0F602037B6108F06FFE0346BB7408F0BF
:103D980081FEF86008F0B6FEB86008F0BDFE7860F5
:103DA8004FF000033B6043F65432C2F2010240F682
:103DB8000C03C0F60203144607CB20606160A260C2
:103DC8001A889B78A281A3734FF00E033B603A6870
:103DD80043F65433C2F20103D31818464FF03301A7
:103DE80040F61C02C0F602027B6916F04BFD034642
:103DF8003A68D3183B603B68A3F102033B603A681A
:103E080043F65433C2F20103D218BB7C7968CDB2B1
:103E180079684FEA1121CCB279684FEA1141C8B2EA
:103E280079684FEA11610095019402900391104658
:103E38004FF4FA7140F63402C0F6020216F022FD81
:103E480003463A68D3183B603A6843F65433C2F2E3
:103E58000103D218FB68DBB2F9684FEA1121CCB232
:103E6800F9684FEA1141C8B2F9684FEA1161009444
:103E78000190029110464FF4FA7140F67002C0F6B4
:103E8800020216F0FFFC03463A68D3183B603A6812
:103E980043F65433C2F20103D218BB681B78B968E1
:103EA80001F1010109780E46B96801F102010978AA
:103EB8000D46B96801F1030109780C46B96801F1AA
:103EC800040109780846B96801F1050109780096E6
:103ED800019502940390049110464FF4FA7140F64C
:103EE8009002C0F6020216F0CDFC03463A68D318D9
:103EF8003B6043F65430C2F2010008F0A3FAFB7CA1
:103F0800184607F11C07BD46F0BD00BF80B487B056
:103F180000AFF860B9601346FB714FF00003FB7502
:103F2800FB7D184607F11C07BD4680BC704700BFE3
:103F380080B487B000AFF860B9601346FB714FF0EA
:103F48000003FB75FB7D184607F11C07BD4680BCC6
:103F5800704700BF80B487B000AFF860B9601346FF
:103F6800FB714FF00003FB75FB7D184607F11C073A
:103F7800BD4680BC704700BF80B586B000AFF86012
:103F8800B9601346FB714FF00003FB7500F08EF922
:103F98000346BB75BB7D012B04D140F6C003C0F6B8
:103FA800020303E040F6C803C0F6020343F65430A8
:103FB800C2F201004FF4FA7140F6D002C0F60202D4
:103FC80016F060FC03467B7543F65430C2F20100DC
:103FD80008F038FAFB7D184607F11807BD4680BD82
:103FE80080B500AF00F002F880BD00BF80B483B098
:103FF80000AF4FF000037B600CE040F6D403C2F240
:1040080000037A689B184FF000021A707B6803F16E
:1040180001037B607A6840F2FF139A42EDD940F6BB
:10402800D403C2F200034FF00002A3F8002207F104
:104038000C07BD4680BC704780B582B000AF034610
:10404800FB71FB79002B5CD040F6D403C2F200036D
:10405800B3F8002240F2FF139A4252D8FB790A2B98
:1040680002D0FB790D2B04D1FDF706FFFFF7BEFF49
:1040780047E0FB79082B02D0FB797F2B25D140F64E
:10408800D403C2F20003B3F80032002B39D040F653
:10409800D403C2F20003B3F8003203F1FF339AB23B
:1040A80040F6D403C2F20003A3F8002240F6D4037A
:1040B800C2F20003B3F800321A4640F6D403C2F243
:1040C80000034FF0000199541BE040F6D403C2F2FC
:1040D8000003B3F800321A4640F6D403C2F20003D4
:1040E800F979995440F6D403C2F20003B3F80032C8
:1040F80003F101039AB240F6D403C2F20003A3F815
:10410800002207F10807BD4680BD00BF80B586B014
:1041180000AFF860B9601346FB714FF0FF03FB7501
:104128004FF000033B6116E03A6913464FEAC303B8
:104138009B184FEA8303FA68D3181846B96816F033
:1041480004FC0346002B02D13B69FB7507E03B6981
:1041580003F101033B61FA793B699A42E4D8FB7D9C
:104168005BB2184607F11807BD4680BD80B588B018
:1041780000AFF860B9601346FB714FF00003FB779E
:104188004FF0FF03BB774FF000037B774FF07203CC
:104198003B774FF00003FB764FF000037B6100BFD5
:1041A800FB7E18460AF0D8FA3B7F18460AF0D0FB87
:1041B8007B7F18460AF052FBFB7F184607F1200761
:1041C800BD4680BD80B582B000AF4FF00003FB71E3
:1041D80004F018FAFB79184607F10807BD4680BDB8
:1041E80080B588B000AFF860B9601346FB714FF036
:1041F8000003FB77FB79F868B9681A46FFF7B6FF42
:104208000346FB774FF00003BB774FF0FF03FB75C6
:104218004FF00003BB613CE040F21013C2F2000310
:10422800BA6953F82220FB79F86811461A46FFF755
:104238006DFF0346FB7597F91730002B17DBBB6939
:10424800032B10D197F9172013464FEAC3039B1885
:104258004FEA8303BA68D318184609F073FE034679
:10426800BB7700BF11E04FF00403FB770DE0BB699B
:10427800002B09D0BB69012B06D0BB69022B03D0E8
:104288004FF00203FB7700E000BFBB6903F10103B5
:10429800BB61BB69032BBFD9BB7F184604F000FA8A
:1042A800FB7F184607F12007BD4680BD80B584B066
:1042B80000AF4FF00103FB7302F048F887ED020AE4
:1042C80002F088F887ED010A97ED027ADFED0B7AA4
:1042D800B4EEE77AF1EE10FA06DCD7ED017AF5EEE6
:1042E800C07AF1EE10FA02D54FF00003FB73FB7BA6
:1042F800184607F11007BD4680BD00BF00004842C0
:1043080080B582B000AF0346FB71FB79184600F018
:104318001DF80346002B0FD0FA7913464FEAC30362
:104328009B1A4FEAC30340F6E022C2F200029B1830
:10433800184600F01FF805E040F6E800C0F6020055
:1043480016F034FA07F10807BD4680BD80B483B083
:1043580000AF0346FB71FB790F2B02D84FF0010326
:1043680001E04FF00003184607F10C07BD4680BC7A
:10437800704700BF80B483B000AF78607B684FF0AF
:1043880001021A707B684FF001029A7679684FF043
:1043980000024FF00003C1E908237B6803F1020221
:1043A80040F64813C0F60203186810601B791371B1
:1043B8007B684FF0FF025A707B684FF0030283F866
:1043C800302079684FF000024FF00003C1E90A235A
:1043D80007F10C07BD4680BC704700BF80B584B0AC
:1043E80000AF78600B46FB707B685B7803F00703CF
:1043F800DBB24FF4E060194609F0E2FA0346FB73BA
:104408007B685B78BB73BB7B072B03D9BB7BA3F1B2
:104418000803BB73BB7B4FF0010202FA03F37B7303
:10442800FB78012B04D1FA7B7B7B1343FB7303E0FE
:10443800FA7B7B7B5340FB737B685B7803F0070355
:10444800DBB2FA7B4FF4E06011461A4609F054FAE1
:1044580007F11007BD4680BD80B582B000AF4FF0B0
:1044680000037B6012E07A6813464FEAC3039B1A85
:104478004FEAC30340F6E022C2F200029B18184636
:10448800FFF778FF7B6803F101037B607B680F2BE4
:10449800E9D907F10807BD4680BD00BF2DE9F04105
:1044A80094B002AF4FF0000387F8473008F0BEFB26
:1044B80043F65433C2F2010340F65012C0F602022A
:1044C80014461D4604F130082E46A446BCE80F00E9
:1044D80030607160B260F36004F1100405F11005FA
:1044E8004445F1D12B46224612881A804FF03103F9
:1044F80087F83F3097F83F30002B0AD140F68410F8
:10450800C0F6020016F052F94FF0160387F847304C
:104518006AE040F6DC23C2F200031B68002B09D0D6
:1045280040F6DC23C2F200031B6843F65430C2F2A3
:10453800010098474FF000033B6452E040F6E02248
:10454800C2F20002396C0B464FEAC3035B1A4FEA0A
:10455800C303D3183C461D460FCD0FC40FCD0FC45F
:104568000FCD0FC495E8030084E803003B78002BC7
:1045780033D17B783A4602F10202009243F6543076
:10458800C2F201004FF4FA7140F6B812C0F6020206
:1045980016F078F9034687F83F3097F83F30002B3C
:1045A8000AD140F6DC10C0F6020016F0FFF84FF012
:1045B800160387F8473017E040F6DC23C2F2000301
:1045C8001B68002B09D040F6DC23C2F200031B68ED
:1045D80043F65430C2F2010098473B6C03F10103E3
:1045E8003B643B6C0F2BA9D997F84730184607F165
:1045F8004807BD46BDE8F08180B590B000AFF860CF
:10460800B9607A604FF0000387F83F304FF000033D
:10461800BB624FF0FF0387F837304FF0FF0387F88E
:104628003E304FF0FF0387F8363007F1100340F6AD
:104638004812C0F6020292E80300186003F104036E
:1046480019704FF00003BB6379E040F24413C2F2E3
:104658000003BA6B53F822207B68DBB2F868114676
:104668001A46FFF753FD034687F8373097F9373076
:10467800002B45DB97F9372013464FEAC3039B18F5
:104688004FEA8303BA68D3183B63BB6B002B02D095
:10469800012B28D02FE007F12803386B19464FF07B
:1046A8000A0216F0BBFA034687F83630BA6A3B6B43
:1046B8009A4204D14FF0120387F83F3035E097F85B
:1046C8003630102B04D897F8363087F83E302CE077
:1046D80040F61020C0F6020016F068F84FF00F03FD
:1046E80087F83F3021E007F110031846396B16F0C0
:1046F80037F900BF19E04FF0120387F83F3014E094
:10470800BB6B012B16D040F24413C2F20003BA6B04
:1047180053F8223040F64C20C0F60200194616F035
:1047280045F84FF0100387F83F3097F83F30002BDB
:1047380009D100E000BFBB6B03F10103BB63BB6B96
:10474800012B82DD00E000BF97F83F30002B3DD100
:1047580097F83E30FF2B35D097F83E30184600F0DA
:10476800E9F8F862FB6A002B27D0FB6A1B78002B5C
:104778001ED0FB6A97F83E205A70FB6A03F10202CA
:1047880007F110031046194616F0EAF8FB6A4FF0D5
:1047980001029A76F96A4FF000024FF00003C1E96E
:1047A8000823F86A00F01AF8034687F83F300DE04E
:1047B8004FF0140387F83F3008E04FF0110387F8F3
:1047C8003F3003E04FF0130387F83F3097F83F304E
:1047D800184607F14007BD4680BD00BF80B584B0CC
:1047E80000AF78604FF00003FB737B685B78BB73A6
:1047F800BB7B0F2B09D87B684FF000021A707868D2
:104808004FF00101FFF7EAFD08E040F68420C0F60A
:10481800020015F0CBFF4FF00F03FB73FB7B18462C
:1048280007F11007BD4680BD80B58AB000AFF860BB
:10483800B9607A604FF0000387F827304FF0FF0324
:10484800FB774FF000033B6269E040F24C13C2F281
:1048580000033A6A53F822207B68DBB2F8681146F5
:104868001A46FFF753FC0346FB7797F91F30002BD6
:104878003FDB97F91F2013464FEAC3039B184FEA03
:104888008303BA68D318BB613B6A002B2CD14FF065
:1048980000033B6107F11003B86919464FF00A029B
:1048A80016F0BCF90346FB753A69BB699A4204D114
:1048B8004FF0120387F827302DE0FB7D1846FFF7ED
:1048C80045FD0346002B04D0FB7D1846FFF718FD75
:1048D80021E040F6E820C0F6020015F067FF4FF02F
:1048E8000F0387F8273016E04FF0120387F82730B8
:1048F80011E040F24C13C2F200033A6A53F8223036
:1049080040F64C20C0F60200194615F04FFF4FF054
:10491800100387F827303B6A03F101033B623B6AC7
:10492800002B92D097F82730184607F12807BD4684
:1049380080BD00BF80B582B000AF0346FB71FB7934
:104948001846FFF703FD0346002B0CD0FA791346EF
:104958004FEAC3039B1A4FEAC30340F6E022C2F2B0
:1049680000029B1807E040F62430C0F6020015F05C
:104978001DFF4FF00003184607F10807BD4680BD2C
:1049880080B58CB000AFF860B9601346FB714FF08A
:10499800000387F82F304FF0FF0387F827304FF0D8
:1049A800FF0387F82E304FF0000387F82D304FF0C3
:1049B8000003BB6280E040F23413C2F20003BA6A1B
:1049C80053F82220FB79F86811461A46FFF79EFB38
:1049D800034687F8273097F92730002B52DB97F9E1
:1049E800272013464FEAC3039B184FEA8303BA688C
:1049F800D3183B62BB6A002B02D0012B28D03CE0C5
:104A08004FF000037B6107F11403386A19464FF031
:104A18000A0216F003F90346FB777A693B6A9A4261
:104A280004D14FF0120387F82F303DE0FB7F102BA5
:104A380003D8FB7F87F82E3036E040F61020C0F60A
:104A4800020015F0B3FE4FF00F0387F82F302BE06C
:104A5800386A40F68831C0F6020115F076FF034641
:104A6800002B04D14FF0010387F82D301CE04FF0E4
:104A7800000387F82D3000BF16E04FF0120387F8C7
:104A88002F3011E040F23413C2F20003BA6A53F82F
:104A9800223040F64C20C0F60200194615F086FE7A
:104AA8004FF0100387F82F3097F82F30002B08D1DC
:104AB800BB6A03F10103BB62BB6A012B7FF77BAFC3
:104AC80000E000BF97F82F30002B2BD197F82E303D
:104AD800FF2B23D097F82E301846FFF72BFFB8612D
:104AE800BB69002B15D0BB691B78002B06D197F842
:104AF8002D30B8691946FFF771FC13E040F68C3089
:104B0800C0F6020015F052FE4FF0150387F82F305B
:104B180008E04FF0110387F82F3003E04FF013033C
:104B280087F82F3097F82F30184607F13007BD4621
:104B380080BD00BF80B483B000AF786040F6DC234E
:104B4800C2F200037A681A6007F10C07BD4680BC00
:104B5800704700BFB0B590B000AF4FF0000387F8C2
:104B68003F3008F081FE4FF00003BB6327E040F6BA
:104B7800E022C2F20002B96B0B464FEAC3035B1A8C
:104B88004FEAC303D3183C461D460FCD0FC40FCDC3
:104B98000FC40FCD0FC495E8030084E803003B78E9
:104BA800002B08D197F83030032B04D04FF00103C5
:104BB80087F83F3006E0BB6B03F10103BB63BB6BB7
:104BC8000F2BD4D997F83F30184607F14007BD4658
:104BD800B0BD00BF90B585B000AF13460246FA716C
:104BE8000A46BA717B714FF00003FB73BB7903F17E
:104BF8000103DBB27A7902FB03F3BB73BB7B0F2B98
:104C080025D8B97B40F6E022C2F200020B464FEAF3
:104C1800C3035B1A4FEAC303D31803F13003FA79CD
:104C28001A70BC7B07F0F4FC40F6E022C2F20002E6
:104C380023464FEAC3031B1B4FEAC303D31803F1F0
:104C48002803C3E900014FF00103FB7308E040F6B5
:104C5800B840C0F6020015F0A9FD4FF00003FB7341
:104C6800FB7B184607F11407BD4690BD80B584B09C
:104C780000AF0346FB714FF00003FB73FB79172B62
:104C880000F23C8101A252F823F000BFF54C000865
:104C98000B4D0008214D0008374D00084D4D000808
:104CA800634D0008794D00088F4D0008A54D000898
:104CB800BB4D0008D14D0008E74D0008FD4D000828
:104CC800134E0008294E00083F4E0008554E0008B4
:104CD8006B4E0008814E0008974E0008AD4E000844
:104CE800C34E0008D94E0008EF4E00084FF480501C
:104CF800C4F202004FF0200114F02AF90346FB73B6
:104D0800FDE04FF48050C4F202004FF0100114F09F
:104D18001FF90346FB73F2E04FF40050C4F202009F
:104D28004FF4807114F014F90346FB73E7E04FF475
:104D38000050C4F202004FF4006114F009F9034670
:104D4800FB73DCE04FF4E050C4F202004FF00101C5
:104D580014F0FEF80346FB73D1E04FF4E050C4F2C0
:104D680002004FF0100114F0F3F80346FB73C6E09D
:104D78004FF4A050C4F202004FF4006114F0E8F8B8
:104D88000346FB73BBE04FF4A050C4F202004FF49B
:104D9800004114F0DDF80346FB73B0E04FF4805097
:104DA800C4F202004FF4807114F0D2F80346FB738A
:104DB800A5E04FF48050C4F202004FF4805114F083
:104DC800C7F80346FB739AE04FF4E050C4F20200C0
:104DD8004FF0400114F0BCF80346FB738FE04FF42A
:104DE800E050C4F202004FF4006114F0B1F8034639
:104DF800FB7384E04FF48050C4F202004FF00801C6
:104E080014F0A6F80346FB7379E04FF48050C4F21F
:104E180002004FF0040114F09BF80346FB736EE0A8
:104E28004FF48050C4F202004FF0400114F090F8A3
:104E38000346FB7363E04FF40060C4F202004FF4D2
:104E4800804114F085F80346FB7358E04FF4A050F6
:104E5800C4F202004FF4007114F07AF80346FB73B1
:104E68004DE04FF4E050C4F202004FF0040114F09A
:104E78006FF80346FB7342E04FF48060C4F202000F
:104E88004FF0020114F064F80346FB7337E04FF467
:104E9800A050C4F202004FF4005114F059F8034630
:104EA800FB732CE04FF4C050C4F202004FF0020133
:104EB80014F04EF80346FB7321E04FF48050C4F21F
:104EC80002004FF4806114F043F80346FB7316E0C8
:104ED8004FF4E050C4F202004FF4807114F038F837
:104EE8000346FB730BE04FF4E050C4F202004FF4AA
:104EF800806114F02DF80346FB7300E000BFFB7BD4
:104F0800002B02D04FF0000301E04FF001031846D8
:104F180007F11007BD4680BD80B483B000AF0346DB
:104F2800FB71FB79172B02D84FF0010301E04FF01A
:104F38000003184607F10C07BD4680BC704700BF48
:104F480080B483B000AF78607B684FF001021A70BC
:104F58007B684FF001029A7679684FF000024FF0B3
:104F68000003C1E908237B6803F1020240F60453F9
:104F7800C0F60203186810601B7913717B684FF044
:104F8800FF025A7007F10C07BD4680BC704700BF8E
:104F980080B582B000AF0346FB71FB791846FFF776
:104FA800BBFF0346002B0FD0FA7913464FEA830361
:104FB8009B184FEAC30340F66862C2F200029B18CE
:104FC8001846FFF7BDFF05E040F60C50C0F602009A
:104FD80015F0ECFB07F10807BD4680BD80B584B02D
:104FE80000AF4FF4FB704FF0010113F0F1FD4FF0EB
:104FF80000033B724FF00003FB724FF002037B602B
:1050080007F104034FF48060C4F20200194613F05C
:10501800FDFE4FF480437B6007F104034FF400600A
:10502800C4F20200194613F0F1FE41F27C537B6092
:1050380007F104034FF48050C4F20200194613F03C
:10504800E5FE4FF42A437B6007F104034FF4A050B8
:10505800C4F20200194613F0D9FE4FF002037B6038
:1050680007F104034FF4C050C4F20200194613F0CC
:10507800CDFE40F655537B6007F104034FF4E05032
:10508800C4F20200194613F0C1FE4FF410637B60AE
:1050980007F104034FF40050C4F20200194613F05C
:1050A800B5FE4FF00003FB6012E0FA6813464FEAC2
:1050B80083039B184FEAC30340F66862C2F20002FA
:1050C8009B181846FFF73CFFFB6803F10103FB60E0
:1050D800FB68172BE9D907F11007BD4680BD00BF53
:1050E8002DE9F04190B002AF4FF0000387F8373058
:1050F80043F65433C2F2010340F66C52C0F6020282
:1051080014461D4604F130082E46A446BCE80F009C
:1051180030607160B260F36004F1100405F11005AD
:105128004445F1D12B46224612781A704FF03003CD
:1051380087F82F3097F82F30002B0AD140F6A0506F
:10514800C0F6020015F032FB4FF00E0387F8373037
:1051580068E040F66063C2F200031B68002B09D0C8
:1051680040F66063C2F200031B6843F65430C2F293
:10517800010098474FF000033B6350E040F6686237
:10518800C2F20002396B0B464FEA83035B184FEA01
:10519800C303D3183C461D460FCD0FC40FCD0FC413
:1051A80095E8030084E803003B78002B33D17B7833
:1051B8003A4602F10202009243F65430C2F201006C
:1051C8004FF4FA7140F6D052C0F6020215F05AFBBD
:1051D800034687F82F3097F82F30002B0AD140F676
:1051E800F450C0F6020015F0E1FA4FF00E0387F80C
:1051F800373017E040F66063C2F200031B68002BEB
:1052080009D040F66063C2F200031B6843F65430CD
:10521800C2F2010098473B6B03F101033B633B6B10
:10522800172BABD997F83730184607F13807BD4622
:10523800BDE8F08180B590B000AFF860B9607A60E1
:105248004FF0000387F83F304FF00003BB624FF088
:10525800FF0387F837304FF0FF0387F83E304FF0F1
:10526800FF0387F8363007F1100340F60452C0F602
:10527800020292E80300186003F1040319704FF06A
:105288000003BB6379E040F22813C2F20003BA6B53
:1052980053F822207B68DBB2F86811461A46FEF7FD
:1052A80035FF034687F8373097F93730002B45DB51
:1052B80097F9372013464FEAC3039B184FEA830335
:1052C800BA68D3183B63BB6B002B02D0012B28D0E4
:1052D8002FE007F12803386B19464FF00A0215F042
:1052E8009DFC034687F83630BA6A3B6B9A4204D174
:1052F8004FF00B0387F83F3035E097F83630182B1E
:1053080004D897F8363087F83E302CE040F6246011
:10531800C0F6020015F04AFA4FF0080387F83F304C
:1053280021E007F110031846396B15F019FB00BF8F
:1053380019E04FF00B0387F83F3014E0BB6B012BEB
:1053480016D040F22813C2F20003BA6B53F8223089
:1053580040F66060C0F60200194615F027FA4FF0D3
:10536800090387F83F3097F83F30002B09D100E058
:1053780000BFBB6B03F10103BB63BB6B012B82DD79
:1053880000E000BF97F83F30002B3BD197F83E3044
:10539800FF2B33D097F83E30184600F0E9F8F86252
:1053A800FB6A002B27D0FB6A1B78012B1ED1FB6AF6
:1053B80097F83E205A70FB6A03F1020207F11003C6
:1053C8001046194615F0CCFAFB6A4FF001029A769E
:1053D800F96A4FF000024FF00003C1E90823F86AA8
:1053E80000F018F8034687F83F300BE04FF00D0344
:1053F80087F83F3006E04FF00A0305E04FF00C0352
:1054080087F83F3097F83F30184607F14007BD4608
:1054180080BD00BF80B584B000AF78604FF0000356
:10542800FB737B685B78BB73BB7B172B0AD87B68E5
:105438004FF000021A7040F69460C0F6020015F0B2
:10544800B5F908E040F6CC60C0F6020015F0AEF9F8
:105458004FF00803FB73FB7B184607F11007BD46A6
:1054680080BD00BF80B58AB000AFF860B9607A60CF
:105478004FF0000387F827304FF0FF03FB774FF01A
:1054880000033B6269E040F23013C2F200033A6A5B
:1054980053F822207B68DBB2F86811461A46FEF7FB
:1054A80035FE0346FB7797F91F30002B3FDB97F952
:1054B8001F2013464FEAC3039B184FEA8303BA68B9
:1054C800D318BB613B6A002B2CD14FF000033B6122
:1054D80007F11003B86919464FF00A0215F09EFB50
:1054E8000346FB753A69BB699A4204D14FF00B0336
:1054F80087F827302DE0FB7D1846FFF70DFD0346A2
:10550800002B04D0FB7D1846FFF742FD21E040F652
:105518002460C0F6020015F049F94FF0080387F837
:10552800273016E04FF00B0387F8273011E040F2E0
:105538003013C2F200033A6A53F8223040F6606032
:10554800C0F60200194615F031F94FF0090387F843
:1055580027303B6A03F101033B623B6A002B92D080
:1055680097F82730184607F12807BD4680BD00BFC9
:1055780080B582B000AF0346FB71FB791846FFF790
:10558800CBFC0346002B0CD0FA7913464FEA830371
:105598009B184FEAC30340F66862C2F200029B18E8
:1055A80007E040F60C50C0F6020015F0FFF84FF087
:1055B8000003184607F10807BD4680BD80B582B0D4
:1055C80000AF786007F024F802460B467968C1E915
:1055D80008237B685B781846FFF748FB03461A46A2
:1055E8007B689A7607F10807BD4680BD80B483B012
:1055F80000AF786040F66063C2F200037A681A6010
:1056080007F10C07BD4680BC704700BF2DE9F0418B
:1056180088B004AF78607B6803F102087B685B7828
:105628001E467B68D3E908457B689B7E184607F0D1
:10563800D5FA0346CDE90045029343F65430C2F249
:10564800010040F62C71C0F602014246334615F0BF
:105658004BF90346FB7340F66063C2F200031B6814
:10566800002B0AD040F66063C2F200031B6843F6C1
:105678005430C2F20100984705E040F6AC70C0F61D
:10568800020015F093F807F11007BD46BDE8F08158
:1056980080B483B000AF0346FB71FA7940F254132B
:1056A800C2F2000353F82230184607F10C07BD4632
:1056B80080BC704780B500AF41F20000C0F6020020
:1056C80015F074F841F22823C2F200034FF00002EB
:1056D8001A7080BD80B500AF41F22823C2F20003E2
:1056E8001B78002B10D041F22823C2F200031B784C
:1056F8001846FFF7CDFF034641F23000C0F602001E
:10570800194615F053F830E041F27800C0F602006F
:1057180015F04CF808F05EF844F6DD30C0F60000ED
:1057280008F0CAF941F22C23C2F200034FF000023C
:105738001A6041F23023C2F200034FF000021A60EF
:1057480041F23423C2F200034FF000021A6041F222
:105758003823C2F200034FF000021A7041F22823E6
:10576800C2F200034FF001021A7080BD80B582B00A
:1057780000AF41F22823C2F200031B78042B00F289
:10578800898001A252F823F0A5570008AB570008FA
:105798009D580008B15700085F580008FFF79AFFA6
:1057A80079E000F08BF876E04FF000033B6041F2BF
:1057B8003023C2F200031A6841F22C23C2F200031C
:1057C8001B689A4236D241F23823C2F200031B7892
:1057D800012B0CD141F23023C2F200031B6803F104
:1057E800010241F23023C2F200031A6053E04FF085
:1057F80000037B600EE041F23423C2F200031A6812
:105808007B684FEA8303D3181B683B607B6803F10E
:1058180001037B607B680F2BEDD941F23023C2F284
:1058280000031B6803F1010241F23023C2F20003B6
:105838001A6030E041F2B000C0F6020014F0B6FF82
:1058480041F2E400C0F6020006F0FCFD00F036F874
:1058580000F000FD1FE041F23023C2F200034FF0D8
:1058680000021A6041F22C23C2F200034FF000023A
:105878001A6041F23423C2F200034FF000021A60AA
:1058880041F23823C2F200034FF000021A7000F010
:1058980015F800E000BF07F10807BD4680BD00BF4E
:1058A80080B500AF41F20410C0F6020014F07EFF8C
:1058B80000F004F800F0CEFC80BD00BF80B500AF5A
:1058C80041F22823C2F200031B78012B17D041F2C2
:1058D8002823C2F200031B78032B10D041F228239F
:1058E800C2F200031B781846FFF7D2FE034641F2C6
:1058F8003010C0F60200194614F058FF0CE041F2CF
:105908007010C0F6020014F051FF41F22823C2F2D1
:1059180000034FF002021A7080BD00BF80B586B048
:1059280000AFF860B9601346FB7141F22823C2F258
:1059380000031B78022B10D041F22823C2F2000387
:105948001B781846FFF7A4FE034641F2A010C0F6E4
:105958000200194614F02AFF96E0FB68002B06D1D6
:1059680041F2EC10C0F6020014F020FF8CE0FB7945
:10597800012B19D1FB681B68002B06D141F25C2072
:10598800C0F6020014F012FF7EE041F23923C2F2A1
:1059980000034FF000021A7041F23823C2F20003EC
:1059A8004FF001021A702BE04FF00003FB750BE07B
:1059B800FB7D4FEA8303FA68D3181B68002B07D1D5
:1059C800FB7D03F10103FB75FB7D0F2BF0D900E094
:1059D80000BFFB7D0F2B06D941F2C820C0F602009C
:1059E80014F0E4FE50E041F23923C2F20003FA7DDC
:1059F8001A7041F23823C2F200034FF010021A70F5
:105A080041F23423C2F20003FA681A604FF000032F
:105A1800BB7541F23423C2F200031A6841F23923FC
:105A2800C2F200031B784FEA8303D3181B683B615B
:105A380011E041F23423C2F200031A68BB7D03F17E
:105A48000103BB75BB7D4FEA8303D3181B683B6119
:105A5800BB7D102B17D03B69002BEAD041F23023D5
:105A6800C2F200034FF000021A6041F22C23C2F286
:105A78000003BA681A6041F22823C2F200034FF00B
:105A880003021A7000E000BF07F11807BD4680BD89
:105A980080B483B000AF0346FB71FA7940F2681313
:105AA800C2F2000353F82230184607F10C07BD462E
:105AB80080BC704780B500AF41F2C030C0F602002C
:105AC80014F074FE41F23A23C2F200034FF00002D0
