:020000040800F2
:1000000000000220651500086D1300087113000838
:10001000A1140008A5140008A9140008000000009D
:10002000000000000000000000000000BD150008F6
:10003000AD14000800000000BD150008B114000850
:10004000BD150008BD150008BD150008BD15000848
:10005000BD150008BD150008BD150008BD15000838
:10006000BD150008BD150008BD150008BD15000828
:10007000BD150008BD150008BD150008BD15000818
:10008000BD150008BD150008BD150008BD15000808
:1000900025150008BD150008BD150008BD15000890
:1000A000BD150008BD150008BD150008BD150008E8
:1000B000BD150008BD150008BD150008BD150008D8
:1000C000BD150008BD150008BD150008BD150008C8
:1000D000BD150008BD150008BD150008BD150008B8
:1000E000B5140008BD150008BD150008BD150008B1
:1000F000BD150008BD150008BD150008BD15000898
:10010000BD150008BD150008D5140008BD15000870
:10011000BD150008BD150008BD150008BD15000877
:10012000BD150008BD150008BD150008BD15000867
:10013000BD150008BD150008BD150008BD15000857
:10014000BD150008BD150008BD150008BD15000847
:10015000BD150008BD150008BD150008BD15000837
:10016000BD150008BD150008BD150008BD15000827
:10017000BD150008BD150008BD15000800000000F1
:08018000BD150008BD150008C3
:1001880010B5054C237833B9044B13B10448AFF3C9
:1001980000800123237010BD5006002000000000DD
:1001A8005C87010808B5064B1BB106480649AFF342
:1001B80000800648036813B1054B03B1984708BD92
:1001C800000000005C87010854060020500600204B
:1001D8000000000010F8012B11F8013B012A28BF8C
:1001E8009A42F7D0D01A704781F0004102E000BF70
:1001F80083F0004330B54FEA41044FEA430594EADF
:10020800050F08BF90EA020F1FBF54EA000C55EA19
:10021800020C7FEA645C7FEA655C00F0E2804FEAEA
:100228005454D4EB5555B8BF6D420CDD2C4480EACC
:10023800020281EA030382EA000083EA010180EAFC
:10024800020281EA0303362D88BF30BD11F0004F4A
:100258004FEA01314FF4801C4CEA113102D0404280
:1002680061EB410113F0004F4FEA03334CEA1333BB
:1002780002D0524263EB430394EA050F00F0A780D3
:10028800A4F10104D5F1200E0DDB02FA0EFC22FACE
:1002980005F2801841F1000103FA0EF2801843FAC2
:1002A80005F359410EE0A5F120050EF1200E012AB3
:1002B80003FA0EFC28BF4CF0020C43FA05F3C018F1
:1002C80051EBE37101F0004507D54FF0000EDCF16A
:1002D800000C7EEB00006EEB0101B1F5801F1BD313
:1002E800B1F5001F0CD349085FEA30004FEA3C0C17
:1002F80004F101044FEA445212F5800F80F09A800D
:10030800BCF1004F08BF5FEA500C50F1000041EB10
:10031800045141EA050130BD5FEA4C0C404141EB14
:10032800010111F4801FA4F10104E9D191F0000F3B
:1003380004BF01460020B1FA81F308BF2033A3F1BE
:100348000B03B3F120020CDA0C3208DD02F1140CB5
:10035800C2F10C0201FA0CF021FA02F10CE002F1F0
:100368001402D8BFC2F1200C01FA02F120FA0CFCE9
:10037800DCBF41EA0C019040E41AA2BF01EB045132
:10038800294330BD6FEA04041F3C1CDA0C340EDC30
:1003980004F11404C4F1200220FA04F001FA02F373
:1003A80040EA030021FA04F345EA030130BDC4F131
:1003B8000C04C4F1200220FA02F001FA04F340EA26
:1003C8000300294630BD21FA04F0294630BD94F0D7
:1003D800000F83F4801306BF81F480110134013DBE
:1003E8004EE77FEA645C18BF7FEA655C29D094EA2F
:1003F800050F08BF90EA020F05D054EA000C04BFAD
:100408001946104630BD91EA030F1EBF0021002097
:1004180030BD5FEA545C05D14000494128BF41F036
:10042800004130BD14F580043CBF01F5801130BD9A
:1004380001F0004545F0FE4141F470014FF0000025
:1004480030BD7FEA645C1ABF194610467FEA655CD6
:100458001CBF0B46024650EA013406BF52EA033578
:1004680091EA030F41F4002130BD00BF90F0000F66
:1004780004BF0021704730B54FF4806404F13204A2
:100488004FF000054FF0000150E700BF90F0000F5B
:1004980004BF0021704730B54FF4806404F1320482
:1004A80010F0004548BF40424FF000013EE700BF52
:1004B80042004FEAE2014FEA31014FEA02701FBFE2
:1004C80012F07F4393F07F4F81F06051704792F0B4
:1004D800000F14BF93F07F4F704730B54FF460742E
:1004E80001F0004521F0004120E700BF50EA010279
:1004F80008BF704730B54FF000050AE050EA010226
:1005080008BF704730B511F0004502D5404261EB95
:1005180041014FF4806404F132045FEA915C3FF4D6
:10052800DCAE4FF003025FEADC0C18BF03325FEA6F
:10053800DC0C18BF033202EBDC02C2F1200300FA24
:1005480003FC20FA02F001FA03FE40EA0E0021FA49
:1005580002F11444C1E600BF70B54FF0FF0C4CF433
:10056800E06C1CEA11541DBF1CEA135594EA0C0FE9
:1005780095EA0C0F00F0DEF82C4481EA030621EA24
:100588004C5123EA4C5350EA013518BF52EA03355F
:1005980041F4801143F4801338D0A0FB02CE4FF011
:1005A8000005E1FB02E506F00042E0FB03E54FF041
:1005B8000006E1FB03569CF0000F18BF4EF0010E39
:1005C800A4F1FF04B6F5007F64F5407404D25FEA35
:1005D8004E0E6D4146EB060642EAC62141EA5551E8
:1005E8004FEAC52040EA5E504FEACE2EB4F1FD0C2A
:1005F80088BFBCF5E06F1ED8BEF1004F08BF5FEAA8
:10060800500E50F1000041EB045170BD06F0004659
:1006180046EA010140EA020081EA0301B4EB5C0406
:10062800C2BFD4EB0C0541EA045170BD41F48011FE
:100638004FF0000E013C00F3AB8014F1360FDEBF23
:10064800002001F0004170BDC4F10004203C35DAFF
:100658000C341BDC04F11404C4F1200500FA05F382
:1006680020FA04F001FA05F240EA020001F0004223
:1006780021F0004110EBD37021FA04F642EB060199
:100688005EEA430E08BF20EAD37070BDC4F10C04C3
:10069800C4F1200500FA04F320FA05F001FA04F287
:1006A80040EA020001F0004110EBD37041F1000173
:1006B8005EEA430E08BF20EAD37070BDC4F120057E
:1006C80000FA05F24EEA020E20FA04F301FA05F2E6
:1006D80043EA020321FA04F001F0004121FA04F28E
:1006E80020EA020000EBD3705EEA430E08BF20EA5E
:1006F800D37070BD94F0000F0FD101F00046400098
:1007080041EB010111F4801F08BF013CF7D041EA19
:10071800060195F0000F18BF704703F0004652001D
:1007280043EB030313F4801F08BF013DF7D043EAEE
:100738000603704794EA0C0F0CEA135518BF95EAA4
:100748000C0F0CD050EA410618BF52EA4306D1D12B
:1007580081EA030101F000414FF0000070BD50EA4A
:10076800410606BF1046194652EA430619D094EAD4
:100778000C0F02D150EA013613D195EA0C0F05D1BE
:1007880052EA03361CBF104619460AD181EA030112
:1007980001F0004141F0FE4141F470014FF00000CA
:1007A80070BD41F0FE4141F4780170BD70B54FF065
:1007B800FF0C4CF4E06C1CEA11541DBF1CEA1355E5
:1007C80094EA0C0F95EA0C0F00F0A7F8A4EB0504C7
:1007D80081EA030E52EA03354FEA013100F08880BE
:1007E8004FEA03334FF0805545EA131343EA126387
:1007F8004FEA022245EA111545EA10654FEA00263C
:100808000EF000419D4208BF964244F1FD0404F5F4
:10081800407402D25B084FEA3202B61A65EB030550
:100828005B084FEA32024FF480104FF4002CB6EB0D
:10083800020E75EB030E22BFB61A754640EA0C008D
:100848005B084FEA3202B6EB020E75EB030E22BFCD
:10085800B61A754640EA5C005B084FEA3202B6EB0E
:10086800020E75EB030E22BFB61A754640EA9C00CD
:100878005B084FEA3202B6EB020E75EB030E22BF9D
:10088800B61A754640EADC0055EA060E18D04FEA5B
:10089800051545EA16754FEA06164FEAC30343EAFB
:1008A80052734FEAC2025FEA1C1CC0D111F4801FC8
:1008B8000BD141EA00014FF000004FF0004CB6E7C1
:1008C80011F4801F04BF01430020B4F1FD0C88BF60
:1008D800BCF5E06F3FF6AFAEB5EB030C04BFB6EB6B
:1008E800020C5FEA500C50F1000041EB045170BD5E
:1008F8000EF0004E4EEA113114EB5C04C2BFD4EB8B
:100908000C0541EA045170BD41F480114FF0000E0E
:10091800013C90E645EA060E8DE60CEA135594EA8A
:100928000C0F08BF95EA0C0F3FF43BAF94EA0C0F8D
:100938000AD150EA01347FF434AF95EA0C0F7FF402
:1009480025AF104619462CE795EA0C0F06D152EA56
:1009580003353FF4FDAE1046194622E750EA41063A
:1009680018BF52EA43067FF4C5AE50EA41047FF44B
:100978000DAF52EA43057FF4EBAE12E74FF0FF3CB0
:1009880006E000BF4FF0010C02E000BF4FF0010C81
:100998004DF804CD4FEA410C7FEA6C5C4FEA430CFA
:1009A80018BF7FEA6C5C1BD001B050EA410C0CBF49
:1009B80052EA430C91EA030F02BF90EA020F0020AB
:1009C800704710F1000F91EA030F58BF994208BF12
:1009D80090422CBFD8176FEAE37040F001007047CF
:1009E8004FEA410C7FEA6C5C02D150EA013C07D126
:1009F8004FEA430C7FEA6C5CD6D152EA033CD3D071
:100A08005DF8040B704700BF8446104662468C466A
:100A18001946634600E000BF01B5FFF7B7FF00289D
:100A280048BF10F1000F01BD4DF808EDFFF7F4FFC6
:100A38000CBF012000205DF808FB00BF4DF808ED51
:100A4800FFF7EAFF34BF012000205DF808FB00BF74
:100A58004DF808EDFFF7E0FF94BF012000205DF896
:100A680008FB00BF4DF808EDFFF7CEFF94BF01204B
:100A780000205DF808FB00BF4DF808EDFFF7C4FF44
:100A880034BF012000205DF808FB00BF4FEA410297
:100A980012F5001215D211D56FF47873B3EB6252C8
:100AA80012D94FEAC12343F0004343EA505311F0EF
:100AB800004F23FA02F018BF404270474FF0000081
:100AC800704750EA013005D111F0004008BF6FF0BF
:100AD800004070474FF00000704700BF4A0011D235
:100AE80012F5001211D20DD56FF47873B3EB625280
:100AF8000ED44FEAC12343F0004343EA505323FA8C
:100B080002F070474FF00000704750EA013002D100
:100B18004FF0FF3070474FF0000070474FEA410236
:100B2800B2F1E04324BFB3F5001CDCF1FE5C0DD943
:100B380001F0004C4FEAC0024CEA5070B2F1004F8D
:100B480040EB830008BF20F00100704711F0804F90
:100B580021D113F13872BCBF01F00040704741F455
:100B680080114FEA5252C2F11802C2F1200C10FA59
:100B78000CF320FA02F018BF40F001004FEAC1233D
:100B88004FEAD32303FA0CFC40EA0C0023FA02F3E1
:100B98004FEA4303CCE77FEA625307D150EA0133B7
:100BA8001EBF4FF0FE4040F44000704701F0004087
:100BB80040F0FE4040F40000704700BF4BB942B916
:100BC800002908BF002802D04FF0FF31084600F086
:100BD8005FB882B0EC462DE9005000F041F8DDF82E
:100BE80004E002B00CBC704770B5FFF761FC00224E
:100BF8000D4B04460D46FFF7AFFCFFF76FFF0646A7
:100C0800FFF734FC0022094BFFF7A6FC02460B460F
:100C180020462946FFF7ECFAFFF760FF002242EA78
:100C280000042046314670BD0000F03D0000F04150
:100C38002DE97043069E14461D468046894600F0FD
:100C480029F804FB01F300FB0533A4FB00451D4410
:100C5800B8EB040469EB0505C6E90045BDE87083F7
:100C68002DE97043069E1446804689461D4600F0CD
:100C78005DF900FB05F504FB0153A0FB04451D4489
:100C8800B8EB040469EB0505C6E90045BDE87083C7
:100C9800704700BF00292DE9F00FC0F29F800024A3
:100CA800002BC0F29680154606460F46002B3ED113
:100CB8008A4257D9B2FA82F34BB1C3F1200201FA42
:100CC80003F720FA02F29D40174300FA03F6290CB5
:100CD800B7FBF1F2330C01FB127CA8B243EA0C47D4
:100CE80000FB02F3BB4209D97F1902F1FF3C80F0F7
:100CF8000181BB4240F2FE80023A2F44FF1AB7FB43
:100D0800F1F3B6B201FB137146EA014100FB03F0AF
:100D1800884208D9491903F1FF3780F0ED808842ED
:100D280040F2EA80023B43EA0242002303E08B429E
:100D38000AD900231A461046194614B1404261EBFD
:100D48004101BDE8F00F7047B3FA83F8B8F1000F1E
:100D580040F084808B4202D3824200F2DE8000237E
:100D68000122E8E712B90123B3FBF2F5B5FA85F2DF
:100D7800002A39D17F1B280C1FFA85FC0123B7FBF9
:100D8800F0F1320C00FB117742EA07470CFB01F245
:100D9800BA4207D97F1901F1FF3802D2BA4200F2EC
:100DA800C1804146BF1AB7FBF0F2B6B200FB127021
:100DB80046EA00400CFB02FC844507D9401902F1C1
:100DC800FF3702D2844500F2AB803A4642EA01423C
:100DD800B1E7E443524263EB430364E7404261EB0B
:100DE80041014FF0FF345BE79540C2F1200327FA39
:100DF80003F1280C26FA03F39740B1FBF0F81F43E0
:100E08003B0C00FB18111FFA85FC43EA01410CFB5F
:100E180008F38B4206FA02F608D9491908F1FF329D
:100E280079D28B4277D9A8F102082944C91AB1FBB3
:100E3800F0F3BFB200FB131147EA01470CFB03F2C2
:100E4800BA4207D97F1903F1FF3160D2BA425ED99D
:100E5800023B2F44BF1A43EA084390E7C8F1200237
:100E680003FA08FC25FA02F343EA0C0C4FEA1C4982
:100E780021FA02F301FA08F720FA02F2B3FBF9F1BA
:100E8800174309FB11333A0C1FFA8CFB42EA034360
:100E98000BFB01FA9A4505FA08F008D913EB0C0385
:100EA80001F1FF3235D29A4533D902396344CAEB8E
:100EB8000303B3FBF9F209FB1233BFB247EA034756
:100EC8000BFB02F9B94508D917EB0C0702F1FF3300
:100ED8001BD2B94519D9023A674442EA0145A5FB34
:100EE8000001C9EB07078F424FF000030AD305D072
:100EF8002A4620E7624601E73B4614E706FA08F669
:100F08008642F5D26A1E002315E71A46E5E70B4626
:100F1800A0E71146CBE7904688E7434642460AE7F2
:100F2800023A53E702392F443CE700BF2DE9F00F9E
:100F3800144605460E46002B43D18A4253D9B2FACD
:100F480082F757B1C7F1200620FA06F601FA07F32F
:100F580002FA07F41E4300FA07F5210CB6FBF1F27A
:100F68002B0C01FB1267A0B243EA074600FB02F311
:100F7800B34209D9361902F1FF3780F0F680B3423F
:100F880040F2F380023A2644F61AB6FBF1F3ADB20A
:100F980001FB136145EA014100FB03F0884208D9CF
:100FA800091903F1FF3680F0E280884240F2DF80C1
:100FB800023B43EA0242002310461946BDE8F00FFF
:100FC80070478B424AD8B3FA83F6002E4DD18B4234
:100FD80002D3824200F2D68000230122104619462D
:100FE800BDE8F00F704712B90124B4FBF2F4B4FA6B
:100FF80084F2002A7CD1091B260CA7B20123B1FB7D
:10100800F6F02A0C06FB101142EA014107FB00F238
:101018008A4207D9091900F1FF3C02D28A4200F23C
:10102800C3806046891AB1FBF6F2ADB206FB121115
:1010380045EA014507FB02F7AF4208D92C1902F12E
:10104800FF3180F09680A74240F29380023A42EA4C
:10105800004210461946BDE8F00F704700231A46B3
:1010680010461946BDE8F00F7047C6F1200522FA70
:1010780005F4B3401C434FEA144821FA05F301FA7A
:1010880006F720FA05F5B3FBF8FC2F4308FB1C33E1
:101098003D0C1FFA84FA45EA03430AFB0CF999450B
:1010A80002FA06FB04D91B190CF1FF326DD39446E2
:1010B800C9EB0303B3FBF8F508FB1533BFB247EAE6
:1010C80003470AFB05F8B84504D93F1905F1FF3372
:1010D80061D31D4645EA0C4CACFB0B23C8EB070754
:1010E8009F424FF0000549D345D062462B4663E73F
:1010F8009440C2F1200321FA03FC260C20FA03F3E2
:1011080001FA02F5BCFBF6F843EA05010B0C06FBF5
:1011180018CCA7B243EA0C4C07FB08F3634500FA66
:1011280002F509D91CEB040C08F1FF323AD26345E9
:1011380038D9A8F10208A444C3EB0C0CBCFBF6F3A5
:1011480089B206FB13CC41EA0C4107FB03F28A4241
:1011580007D9091903F1FF3022D28A4220D9023B6C
:101168002144891A43EA084349E73A460CE73346DB
:101178001FE70A466BE7B0409042B6D20CF1FF3247
:10118800002319E73346324616E799458FD9ACF163
:10119800020C23448CE7B8459BD9023D274499E7C4
:1011A8000346DEE79046C7E7023821443AE700BF26
:1011B800164B9A6802F00C02042A24D0082A0AD096
:1011C800134A124B13489968134BC1F30311415C3E
:1011D800CA401A607047586859685B6842024CBF39
:1011E8000E4A0B4A01F03F01C3F38813B2FBF1F238
:1011F80002FB03F2054B5B68C3F3014301335B0059
:10120800B2FBF3F2DDE7054ADBE700BF0038024036
:101218000024F400000000201000002000127A00D2
:101228002A4A2B4BD2F888102A4841F4700130B56D
:10123800C2F888101968284D284C002241F0010195
:1012480019609A60196821F0847121F4803119605D
:101258005D60196883B021F480211960DA6000921A
:1012680001921A6C42F080521A64026842F44042B9
:1012780002609A689A609A6842F400429A609A6892
:1012880042F4A0529A605C601A6842F080721A6058
:1012980019460B680E4A9B01FBD5114B40F20571AC
:1012A8001960936823F003039360936843F0020383
:1012B8009360936803F00C03082BFAD1FFF778FFCB
:1012C800024B4FF000629A6003B030BD00ED00E0C1
:1012D8000038024000700040103000248A340008B2
:1012E800003C024070B5161E0EDD0C468D190748ED
:1012F80014F8011B0FF0BEFE044840210FF0BEFE9B
:101308000028F9D0AC42F2D1304670BD0048004008
:10131800094A136863B118446946884202D81060C4
:1013280018467047054B0C221A604FF0FF30704783
:10133800034B1360EFE700BF6C060020C063012079
:10134800C46301204FF0FF30704700BF4FF40053D3
:101358004B600020704700BF012070470020704795
:1013680000207047704700BF10B588B01EF0040F0A
:101378000CBFEFF30880EFF309802F4B2F481A6852
:1013880000925A6801929A680292DA6803921A697E
:1013980004925A6905929A690692DB69079310F0DC
:1013A800CBFF00992648274C10F068FF0199264882
:1013B80010F064FF0299254810F060FF0399244853
:1013C80010F05CFF0499234810F058FF0599224853
:1013D80010F054FF0699214810F050FF0799204853
:1013E80010F04CFF1F4B2048196810F047FF1F4BA7
:1013F8001F48196810F042FF1E4B1F48196810F06B
:101408003DFFE16A1D4810F039FF1D4B1D48196862
:1014180010F034FF1C4B1D48196810F02FFFE36AC9
:101428005B0001D400BEFDE7194810F085FFA16AF2
:10143800184810F023FFF5E700040020788701081A
:101448009087010800ED00E09C870108A887010843
:10145800B4870108C0870108CC870108D88701082C
:10146800E487010838ED00E0F087010828ED00E086
:10147800FC8701082CED00E00888010814880108A1
:1014880030ED00E02C8801083CED00E038880108C8
:101498004488010858880108FEE700BFFEE700BF3E
:1014A800FEE700BF704700BF06F082BC08B54FF4E6
:1014B800804010F011F900B908BD012004F070FC5B
:1014C8004FF48040BDE8084010F010B970B50F48DF
:1014D80010210FF0DBFD00B970BD0D4C0B482668DC
:1014E8000C4D731C23600FF0CFFD102125F816005A
:1014F80006480FF0D7FD2368012BEDD969882A88A3
:10150800054B8A1A92B21A6070BD00BF000C0040E9
:101518002C230020700600203023002010B50C4C2E
:101528000C482246002110F0E7F8236840F22132E7
:10153800934200D010BDA36803F0FF13B3F5803FBA
:10154800F8D1E17A0448BDE8104010F097BE00BF1A
:10155800985100200064004070880108DFF83CD0F2
:10156800002100F004B80E4B5B58435004310D487D
:101578000D4B42189A42FFF4F6AF0C4A00F003B83C
:10158800002342F8043B0A4B9A42FFF4F9AFFFF7F5
:1015980047FE10F02DFE00F00FF870470000022003
:1015A800ACD00108000000205006002050060020A2
:1015B800C4630120FFF7FEBF80B54FF4407010F000
:1015C800EDF806F0E3FD464810F058FE01214FF013
:1015D80080500FF053FE01200FF096FE13200FF0FD
:1015E800E9FD830778D43F4810F048FE7D200FF0CE
:1015F80069FE002862D00FF07FFE0FF07DFE06F036
:10160800AFFD06F09BFD02F0F5FD02F075FF02F05C
:1016180087F801F035FE3448344C03F07DFA32483F
:1016280002F0E4FA304802F057F806F0DBFE3048E2
:1016380010F024FE002384F8203006F0C1FC4FF09F
:10164800013006F02FFD204606F0F0FC05F088FF7B
:10165800074638BB274CDFF8A88000F06FF825460E
:10166800012602E02E700FF055FE02F0D7FD237818
:10167800012BF7D12F7005F00DF880B906F0A4FB07
:1016880005F0A6F906F034FA0128ECD106F036FA8E
:1016980088F800000028E6D000F05EF8E3E705F0DF
:1016A8001DF9EBE7BFF34F8F134A144BD16801F4D0
:1016B800E0610B43D360BFF34F8FFEE77C200FF050
:1016C80001FE002899D17B200FF0FCFD002894D161
:1016D8007A200FF0F7FD90E70FF04AFD86E700BF8C
:1016E8008C880108AC880108457B0008043B012070
:1016F800D48801081400002000ED00E00400FA0579
:10170800AC510020014B53F82000704708890108AC
:10171800014B53F8200070472C890108BFF34F8F05
:10172800044A054BD16801F4E0610B43D360BFF371
:101738004F8FFEE700ED00E00400FA0510B5054CF8
:10174800002120464FF4007210F090FD0023A4F809
:10175800003210BD740600202DE9F04F2DED028BEC
:10176800ADF53F7DA8B19A49B1F80032B3F5007FD5
:101778000FD20A281DD00D281BD008280FD07F288B
:101788000DD0202800F0DC83914E5A1CF054A6F8A6
:1017980000220DF53F7DBDEC028BBDE8F08F002BDC
:1017A800F7D0013B9BB28A4E0022A6F80032F254D1
:1017B800EFE78749874810F061FD8548864910F0B2
:1017C80072FE0746002800F01B8100240134013016
:1017D8008149E4B210F067FE0028F7D10746214698
:1017E8007E48254610F04AFD002C00F00E8178480E
:1017F800794910F014FE242800F0B683764974481D
:1018080011F0D8FC0DF128080146404610F0FFFD04
:1018180052AE08E001460137304610F0F8FDBC42F0
:1018280006F1240605DD00206B4911F0C3FC0028F1
:10183800F0D16B48414610F021FD52AF00263146E9
:101848003A466848013610F019FDB44207F12407FA
:10185800F5DC654810F012FD98F800308BB10DF1F9
:1018680029024046A3F16101192905D8A3F14101D4
:10187800192984BF203B0370104612F8013B002B46
:10188800F0D15A4F5A4810F0F9FC0026B94604E046
:101898000136F6B22B2E00F0638359F8047F4046D8
:1018A8003946FEF797FC0028F2D13946514810F026
:1018B800E5FC002D59D00DF1700A0DF508790DF5EC
:1018C800A5774FF00008A7F1020B58464A490222B3
:1018D80010F0D2FD002840F01D81394613A810F001
:1018E80096FD464913A811F065FC037801468BB1B3
:1018F800421C8446A3F16100192806D8A3F14100CF
:10190800192884BF203B8CF80030944612F8013B1C
:10191800002BEFD1484610F07AFD0020374911F02E
:1019280049FC002851D003788BB1421C8446A3F1AE
:101938006101192906D8A3F14101192984BF203B67
:101948008CF80030944612F8013B002BEFD1014689
:10195800504610F05CFD08F10108A8450AF1240A78
:1019680009F1240907F12407ADD12A2E01F2728169
:10197800DFE816F09801D201900184017D019600FC
:10198800760057020E02EE01E601A802FE012E02C1
:10199800DA01C20226021E0216026D0266029600D3
:1019A800F601B802E000D7020602DE029600CF0276
:1019B800E10196006001710158012301F300C000A4
:1019C800A4007A014F02790296008AF80000C2E763
:1019D80074060020008E0108388D0108188E010851
:1019E800BC9E0108748E0108A88E0108388D010874
:1019F800D48E01084C9E0108008F0108048F01084D
:101A0800AC48394610F03AFC3D46AB4810F017FD9B
:101A1800232818D9A94810F031FCA74800214FF411
:101A2800007210F023FC00214FF40072A24810F05D
:101A38001DFCA14A0023A2F800320DF53F7DBDEC44
:101A4800028BBDE8F08F0DF12808421C9A494046E8
:101A580010F003FC41469A4810F010FC0024F8E608
:101A6800012C1DD8974B1E6865B10DF50878002725
:101A780040463146FEF7AEFB90B90137AF4208F158
:101A88002408F5D164B1314688A8FEF7A3FB38B91C
:101A98008D4810F0F3FB1CA806F0DEFC06F0D0FC25
:101AA8000020FFF72FFE0346884A89484FF400714B
:101AB80010F04AFC864806F0B7F8B4E707F0F0F8EB
:101AC8000928EDD0834C182323700420FFF71AFE51
:101AD8000346814A7E484FF4007110F035FC2078A7
:101AE800FFF716FE7D4A03464FF40071784810F060
:101AF8002BFCDFE7012C40F21B8600252846013D20
:101B0800FFF700FE062DCED8DFE805F01D0C0C25EA
:101B18000C0C0C0041465A46714810F0AFFB0320EC
:101B2800FFF7F0FD03466F4A69484FF4007110F063
:101B38000BFCBFE7002C00F07E836B4810F09EFB87
:101B48000120FFF7DFFD0346684A61484FF4007142
:101B580010F0FAFBAEE75F4CBAE7012CCDD8644B26
:101B68001E686DB10DF50878002740463146FEF72E
:101B780031FB0028C1D10137AF4208F12408F4D164
:101B8800002CBAD0314688A8FEF724FB044600286A
:101B9800B3D1584810F072FB10F024FB21460460C2
:101BA8001CA811F0EDFAB0EE408A10F01BFB036898
:101BB800002B00F0F9850325A0E7012C9DD84E4B9A
:101BC8001E686DB10DF50878002740463146FEF7CE
:101BD80001FB002891D10137AF4208F12408F4D164
:101BE800002C8AD0314688A8FEF7F4FA044600286B
:101BF80083D1404810F042FB10F0F4FA214604600B
:101C08001CA811F0BDFAB0EE408A10F0EBFA036898
:101C1800002BD0D1B0EE480A06F0D0FF092840F0DA
:101C2800BD856AE7062C40F20B82344810F026FB8B
:101C3800032563E701F04AFA3149324B324A012859
:101C480018BF0B464FF40071214810F07DFB204867
:101C580005F0EAFF24E706F08FFF09283FF420AFDC
:101C68001C4C1723237030E706F09EFF18E702F09C
:101C7800B1FB002800F0168605253FE702F0AAFB15
:101C88000028F9D1052C40F2BF84204810F0F6FA5C
:101C9800032533E7022C40F280821D4810F0EEFA4B
:101CA80001252BE7002C00F096821A4810F0E6FA7E
:101CB800012523E7188E0108740600203C8E0108D0
:101CC800848E0108A8000020BC920108009E01082B
:101CD8000439012078080020289E0108389E010850
:101CE800088F01081C9E010858990108109E0108D8
:101CF8004C000020E49C010898000020849C010806
:101D0800F88D0108F08D01081C9C0108B0910108AC
:101D18000C9101089C8F0108002C00F0DE81AD4871
:101D280010F0ACFA0125E9E602F05AFB002800F0B1
:101D380043850625E2E60021072005F01DFAAFE6F7
:101D4800032C40F2EE81A44810F098FA0125D5E65C
:101D5800012C40F29F84A14810F090FA0125CDE6AD
:101D6800002C00F014829E4810F088FA0125C5E680
:101D7800002C00F0E1829B4810F080FA0125BDE6B6
:101D8800012C40F2ED82984810F078FA0125B5E66A
:101D980001F06EF900283FF483AE944C207094E66D
:101DA800022C40F22B82924810F068FA0125A5E631
:101DB800022C40F2E3808F4810F060FA01259DE67E
:101DC800002C00F09B818C4810F058FA012595E60C
:101DD800022C3FF692AE002D00F04A86874E0796F9
:101DE800D6F80090D6F80480002788AE30464946D9
:101DF800FEF7F0F930B130464146FEF7EBF900281E
:101E08007FF47BAE0137AF4206F12406EED100F035
:101E180031BE012C40F20183794810F02FFA0125D8
:101E28006CE606F013FB06F02BFB764A03464FF4EC
:101E38000071754810F088FA734805F03DFF2FE6E9
:101E480002F0D4FA002800F00A86072556E602F0C8
:101E5800CDFA0028F9D1022C40F23D846B4810F0ED
:101E68000DFA01254AE6012CD6D8694B1E686DB1DA
:101E78000DF50878002740463146FEF7ABF90028F3
:101E8800CAD10137AF4208F12408F4D134B1314640
:101E980088A8FEF79FF9002800F03A850FF0D0FADD
:101EA800F3200FF0E5FA0FF0E9FA092800F0508561
:101EB80058484E4C10F0E2F91823237004250FF00F
:101EC800CFFA1BE6494B00221A7008F0B7FA524ABB
:101ED80003464FF400714C4810F036FA4A4805F0B2
:101EE800EBFEDDE5002C7FF428AE002D7FF425AE57
:101EF80005F06AFBFFF712FC02F072FA00287FF483
:101F080018AF012C40F2A684444810F0B7F9012517
:101F1800F4E5012C40F22C83414810F0AFF901257B
:101F2800ECE5002C00F0A4813E4810F0A7F9B7E5D5
:101F3800002C00F026813C4810F0A0F90125DDE5D1
:101F4800002B3FF426AC394A1A4412F8012C202AF7
:101F58003FF41FAC35495A1CC854A1F8002218E4B4
:101F6800334810F08BF9A4E4324810F087F9394669
:101F78004FF400722D4810F079F954E588AEC5B1D8
:101F88002D4B93E8000688AE37464FF000083846D8
:101F98004946FEF71FF930B138465146FEF71AF99F
:101FA80000287FF408AF08F10108A84507F12407C5
:101FB800EDD1304622461CA901F0EEFA064600286B
:101FC8003FF49BAD094C1D48314610F057F90425E4
:101FD800267093E53C90010880930108FC92010863
:101FE800F498010834940108B09A01087808002090
:101FF8003C970108E49601083C96010890000020EF
:10200800609D0108D492010804390120E89701086D
:1020180030000020409D0108609301089495010854
:10202800C09B0108609A0108F89A0108740600200C
:10203800849E01083C8E0108200000209896010823
:1020480088AE002D36D0804BDA68D3F800A0D3F8DC
:102058000490D3F808B0079288AE1A695B690892B1
:10206800099337464FF0000838465146FEF7B2F854
:10207800D0B138464946FEF7ADF8A8B138465946BA
:10208800FEF7A8F880B138460799FEF7A3F858B1CB
:1020980038460899FEF79EF830B138460999FEF798
:1020A80099F800287FF4C1AD08F10108A84507F1A7
:1020B8002407D9D1304622461CA901F06BF8064600
:1020C80000283FF41AADFFF723FB604C0146604837
:1020D80010F0D4F80425267010E5002D7FF41FAE0B
:1020E80006F04CF807F010FD5A480378002B40F032
:1020F8000984594810F0C2F80425FFE4002D7FF444
:1021080062AE01F0E9F8064600283FF4F7ACFFF7A5
:10211800FFFA4E4C0146514810F0B0F804252670DD
:10212800ECE488AEFDB14E4B88AED3F800A0D3F8EE
:102138000490D3F808B0B046002740465146FEF751
:1021480049F858B140464946FEF744F830B1404690
:102158005946FEF73FF800287FF4F5AD0137AF4246
:1021680008F12408E9D13146234613A81CAA00F037
:10217800CDFF0646002800F0DE83344C0425267087
:10218800BCE4002D7FF4D7AE02F092F8B6E4002D3F
:102198007FF4E9AD05F018FAB0E4002D00F0FB84F7
:1021A800304E0796D6F80090D6F80480002788AEFF
:1021B80030464946FEF70EF830B130464146FEF744
:1021C80009F800287FF469AD0137AF4206F124060B
:1021D800EED100F0E2BC002D7FF467AD02F090FD77
:1021E800064600283FF48AACFFF792FA174C0146DE
:1021F8001D4810F043F8042526707FE4002D00F0F8
:10220800C5831A4E0796D6F800A0D6F80480002792
:1022180088AE30465146FDF7DDFF30B130464146C5
:10222800FDF7D8FF00287FF4BEAD0137AF4206F1B5
:102238002406EED1ACE3002D7FF47FAC012107200A
:1022480004F09AFF54E600BF7000002078080020D0
:10225800349C010804390120F48F0108F095010825
:102268009C00002088000020548F0108680000208E
:10227800002D7FF459AE05F02DFFA54BA54DA64CBA
:10228800002814BF82469A4605F01EFF814605F0D5
:1022980025FF074605F038FF064605F039FF80465A
:1022A80007CD20602046B5F800E0AD786160A260F7
:1022B800A4F80CE05346332100F80E5F974A10F05B
:1022C80043F85FFA88FCC8F3072EC8F307414FEAC2
:1022D800186200F10C058DE800504B466019029118
:1022E80003924FF400718E4A10F02EF8C7F30721BD
:1022F8000544C7F307423B0E8DE80E006019FBB298
:102308004FF40071874A10F01FF872783378009202
:10231800B2780192F2780292327903927279049239
:10232800284420444FF400717F4A10F00DF82046ED
:1023380005F07AFCFFF7B4BB002D7FF41CAD01F06B
:102348005BFA064600283FF4D9ABFFF7E1F9774C72
:10235800014677480FF092FF04252670FFF7CEBBA1
:10236800744B1E6875B10DF5087800274046314654
:10237800FDF730FF00287FF406AD0137AF4208F1C2
:102388002408F3D144B1314688A8FDF723FF044659
:10239800002800F0F1820024674800219422061FDB
:1023A8000FF064FF0025E8B202F01EFB0135252D71
:1023B80046F8040FF7D1614800216022061F0FF08C
:1023C80055FF0025E8B201F04DFB0135182D46F800
:1023D800040FF7D15A4800214022061F0FF046FF8C
:1023E8000025E8B201F0C6F80135102D46F8040FB3
:1023F800F7D121465048002203F0C8FA21464F4839
:10240800002201F089FE21464D48002201F0F6FC29
:10241800002501F0B7FFFFF771BB4A4B1E6875B185
:102428000DF50878002740463146FDF7D3FE002811
:102438007FF4F2AC0137AF4208F12408F3D11CB3A2
:10244800314688A8FDF7C6FE0646E8B93E480FF0B3
:1024580015FF314610221CA810F0A6FF04460246BC
:102468000B463A480D460FF009FF220C42EA054296
:1024780096B20896AEB20996A6B2089A0999344857
:10248800079633460FF0FAFE0EF0DAFFF3200EF04F
:10249800EFFF0EF0F3FF09287FF40AAD099E2D48DF
:1024A800C6F307210FF0BAF8092840F05F82F1B2AD
:1024B80029480FF0B3F8092840F05882089E2748A9
:1024C800C6F307210FF0AAF8092840F04F82F1B2AD
:1024D80023480FF0A3F8092840F04882079E2148B6
:1024E800C6F307210FF09AF8092840F03F82F1B2AD
:1024F8001D480FF093F8092840F038821B48002146
:102508000FF08CF8092840F031820025D7E400BF8D
:10251800E88D0108AC99010804390120BC9901082B
:10252800D4990108109A0108309A01087808002007
:10253800E89301085800002018520020B8510020E4
:10254800AC52002030000020549B01086C9B01080D
:10255800049D01080078FF1F0178FF1F0278FF1F04
:102568000378FF1F0478FF1F0578FF1F007AFF1FFD
:10257800954B1E6875B10DF5087800274046314621
:10258800FDF728FE00287FF4C7AC0137AF4208F1F9
:102598002408F3D1002C3FF4B0AA314688A8FDF7EF
:1025A80019FE804600287FF4A8AA88480FF066FE26
:1025B8001CA84146102210F0F7FE044602460B46BE
:1025C80083480D460FF05AFE220C42EA05422E4679
:1025D800B6B295B2A4B22A46234631467D480FF0DA
:1025E8004DFE2146042004F0C7FD2946052004F0CD
:1025F800C3FD3146062004F0BFFD012107204546F2
:1026080004F0BAFDFFF77ABA88AE002D2ED0724BCF
:1026180088AEDA68D3F800A0D3F80490D3F808B0ED
:102628001B69079208938046374638465146FDF79E
:10263800D1FDA8B138464946FDF7CCFD80B13846F2
:102648005946FDF7C7FD58B138460799FDF7C2FD51
:1026580030B138460899FDF7BDFD00287FF415AB69
:1026680008F10108A84507F12407DED130462246C3
:102678001CA902F02DF8064600283FF43EAAFFF7F1
:1026880047F8564C014656480FF0F8FD04252670C9
:10269800FFF734BA88AE8DB1524B88AED3F80090AC
:1026A800B046002740464946FDF794FD00287FF4D0
:1026B80052AB0137AF4208F12408F3D13046224625
:1026C8001CA900F0DBFC00283FF417AA434C0425A2
:1026D8002070FFF713BA88AEB5B1434B93E80003F7
:1026E80088AE0746344620464146FDF773FD30B1B3
:1026F80020464946FDF76EFD00287FF4AFAB013751
:10270800AF4204F12404EED130462A461CA900F059
:1027180045FE064600283FF4F0A9FEF7F9FF2F4CC6
:10272800014632480FF0AAFD04252670FFF7E6B9E6
:102738002F4B1E6875B10DF50878002740463146C5
:10274800FDF748FD00287FF4D8A90137AF4208F10A
:102758002408F3D1002C3FF4D0A9314688A8FDF70E
:1027680039FD044600287FF4C8A922480FF086FDE9
:102778000FF038FD214604601CA810F001FDB0EEF2
:10278800408A0FF02FFD0368002B7FF414AAB0EEE7
:10279800480A06F05FFA09283FF4AFA90F4C18233E
:1027A80023700425FFF7AAB9B0EE480A06F02CFA00
:1027B8000928F3D1FFF7A1B9022C1FD90E480FF051
:1027C8005DFD0125FFF79AB928000020549B0108F8
:1027D8006C9B0108909B01083400002078080020B9
:1027E80064910108480000205C00002094970108CB
:1027F8002C000020E49C0108E494010888AEADB1E7
:10280800A34B93E8000388AE07463446204641466A
:10281800FDF7E0FC28B120464946FDF7DBFC00281F
:10282800CCD10137AF4204F12404EFD130462A4617
:102838001CA901F03FF8064600283FF45EA9FEF700
:1028480067FF944C014694480FF018FD0425267044
:10285800FFF754B988AE8DB1904B88AED3F800809D
:102868000746344620464146FDF7B4FC00287FF46D
:102878004BAB0137AF4204F12404F3D130462A466A
:102888001CA901F09FF8064600283FF436A9FEF778
:102898003FFF804C014682480FF0F0FC042526706B
:1028A800FFF72CB9012C05D97E480FF0E7FC01256C
:1028B800FFF724B988AE8DB17B4B88AED3F8009072
:1028C8008046374638464946FDF784FC0028EBD158
:1028D80008F10108A84507F12407F3D1304622463C
:1028E8001CA901F0E9FF064600283FF406A9FEF7F7
:1028F8000FFF684C01466D480FF0C0FC0425267098
:10290800FFF7FCB805F0D8F905F038FCFFF7F6B882
:102918001CAC67480FF0B2FC6378002B3FF44BA95E
:1029280001230133DBB2E25C002AFAD11F2B7FF6C8
:1029380042A9FFF7B3BA139B5E4A5F484FF4007190
:102948000FF002FD5C48354605F0B6F9FFF7D6B83A
:102958001CAC5A4821780EF061FE0928F9D0584875
:1029680000210EF05BFE09283FF4CFAD494C182337
:1029780023700425FFF7A3BA52480FF07FFC2146C5
:102988001CA80A2210F002FD044605E54E4B0793E9
:1029980000264E4DB046B246079B53F82AB0002C8D
:1029A8004FD00DF50879002704E00137A74209F157
:1029B800240946D248465946FDF70CFC0028F4D1B4
:1029C8007FB2002F3DDBBAF1010F00F0F28107EB77
:1029D800C7071CAE3E4806EB87090FF04FFC484678
:1029E8003C49FDF7F7FB002840F0D38103260DF1A1
:1029F8004C0B0027022ECBF800702F606F60AF6081
:102A0800EF602F616F61AF61EF612F626F62AF623C
:102A1800EF622F636F63AF63EF6300F09F81032E54
:102A280000F09181012E484600F0528139460A2271
:102A380010F0ACFCC0B2102840F2458126480FF0D7
:102A48001DFC0AF1010ABAF1020FA5D1032E00F20A
:102A58007881DFE816F06F01650165016501012CD9
:102A680040F209811D480FF009FC0125FFF746B81F
:102A78001B4B07930025A946AA46A046079B53F877
:102A88002A70B8F1000F61D088AC00262FE000BF93
:102A980018000020780800209094010864000020A5
:102AA8004495010860920108500000201092010826
:102AB800549B010860930108043901202078FF1F06
:102AC800017AFF1FF490010868000020AC52002032
:102AD80094900108AC900108B090010898980108FA
:102AE800900000200136464504F124042ED22046E9
:102AF8003946FDF76FFB83460028F3D176B2002EE6
:102B080024DBBAF1010F00F0C581B2480FF0B6FB23
:102B180006EBC6061CA901EB86063046AE49FDF752
:102B280059FB0346002840F0718101466022AB48FA
:102B380013930FF09BFBAA4E03250024E0B200F08C
:102B480091FF0134182C46F8040FF7D10AF1010A55
:102B5800BAF1020F92D1032D13D0A14B03F16001FA
:102B680002E08B4200F0CB8153F8042F002AF8D002
:102B78001278012AF5D19B4C0A2323700425FEF70D
:102B8800BDBF49469548002201F0C6FA002501F06C
:102B9800E1FBFEF7B3BF944B07934FF00008C24622
:102BA8000326A146079B53F82A70B9F1000F36D0C7
:102BB80088AC002504E001354D4504F124042ED2EB
:102BC80020463946FDF706FB83460028F3D16DB24F
:102BD800002D24DBBAF1010F00F0E58105EBC505F6
:102BE8001CAE7C4806EB85050FF048FB28467A4961
:102BF800FDF7F0FA0346002840F09181014694223F
:102C08007A4813930FF032FB794D03260024E0B283
:102C180001F0EAFE0134252C45F8040FF7D10AF13A
:102C2800010ABAF1020FBDD1032E1BD0704B03F17C
:102C3800940102E08B4200F0EB8153F8042F002A44
:102C4800F8D01278012AF5D1664C032323700425A5
:102C5800FEF754BF67480FF011FB0220FEF752FD44
:102C6800FEF760BF41466148002202F08FFE01F086
:102C780065FBFEF742BF88AE8DB15F4B88AED3F8D7
:102C880000800746344620464146FDF7A3FA00284F
:102C98007FF4E8AE0137AF4204F12404F3D13046A3
:102CA8002A461CA900F010FC064600283EF425AF71
:102CB800FEF72EFD4B4C014650480FF0DFFA042575
:102CC8002670FEF71BBF00F055FC4D490860B8E6BA
:102CD80059460A2210F05AFB8146DBF800003946B3
:102CE80001300A2210F052FBC0B200285FFA89F3C3
:102CF80008BF1020C3F10103184410F0FF033FF48C
:102D0800A0AEDFF804B107EB0900C0B2069300F0EB
:102D180031FC069B4BF8040F0137BB42F3DC90E60D
:102D280041463748002201F069F8002501F01EFBF2
:102D3800FEF7E4BE41463248012201F05FF8002563
:102D4800F4E70425F2E7DFF8C090F8B200F012FCCF
:102D58000137102F49F8040FF7D172E6B9F1000FC7
:102D68003FF46FAE3B782C2B08BF07F101094846AA
:102D780059460A2210F00AFB0F28074604D8C0B2A9
:102D880000F0F8FB45F82700DBF80070002FE9D1C8
:102D980057E648462C210FF02DFB022600287FF429
:102DA80026AE48462D210FF025FB061C18BF01262C
:102DB8001DE60146134806910FF060FA1CAA07EBBE
:102DC800C70002EB800006990A2210F0DFFA80465D
:102DD8003CE600BF94900108AC900108B85100206F
:102DE800B4510020780800208800002018520020E4
:102DF80014520020C09D0108540000204898010882
:102E0800AC520020F4900108A852002030462C2132
:102E18000FF0F0FA044610B313AF59468248C7F8CA
:102E280000B060220FF022FA02250023002E3FF4A2
:102E38008DAE1A782C2A08BF5E1C304639460A2205
:102E480010F0A4FA1728044605D8C0B200F00AFE0C
:102E5800754B43F824003B68002BEAD176E62D2118
:102E680030460FF0C7FA13AF051C18BF01252146DD
:102E78006D483C6060220FF0F9F93046EDB9214603
:102E88000A2210F083FAC0B2182811D967480FF047
:102E9800F5F95BE666480FF0F1F906EBC6001CAEE3
:102EA800594606EB80000A2210F070FA814652E675
:102EB80000F0D8FD5C4A106048E639460A2210F056
:102EC80065FA06463868214601300A2210F05EFA93
:102ED800C0B20028F3B208BF1820C3F10103184498
:102EE80010F0FF0B3FF432AE524FA019C0B200F001
:102EF800B9FD0134A34547F8040FF6D126E6012DA4
:102F08003FF43FAE04D3022D3FF43BAE04253EE62A
:102F180049464548012201F0FFF8002537E62846D2
:102F28002C210FF067FA044610B313AF59464248F4
:102F3800C7F800B094220FF099F902260023002D5B
:102F48003FF46DAE1A782C2A08BF5D1C2846394616
:102F58000A2210F01BFA2428044605D8C0B201F052
:102F680043FD354A42F824003B68002BEAD156E677
:102F78002D2128460FF03EFA13AF061C18BF012674
:102F880021462D483C6094220FF070F92846EEB98E
:102F980021460A2210F0FAF9C0B2252811D923488F
:102FA8000FF06CF93BE622480FF068F91CAB05EB13
:102FB800C500594603EB80000A2210F0E7F9804665
:102FC80032E601F011FD1C49086028E639460A225C
:102FD80010F0DCF905463868214601300A2210F065
:102FE800D5F9C0B20028EBB208BF2520C3F1010310
:102FF800184410F0FF0B3FF412AE104F6019C0B226
:1030080001F0F2FC01345C4547F8040FF6D106E6FE
:10301800012E3FF427AE022E3FF424AE4146064867
:10302800012202F0B3FC22E6B8510020B09001085A
:10303800F4900108B45100201852002014520020C6
:10304800F8B516460F467AB10446002502E0013568
:10305800B54209D220463946FDF7BCF82434002889
:10306800F5D1E8B240B2F8BDFF2040B2F8BD00BFCC
:1030780008B502F03DF9002008BD00BF70B5044650
:1030880000200E46154607F099F8722007F042F91D
:10309800002007F0F9F80C4B20462A461968FFF77C
:1030A800CFFF00280ADB00EBC00006EB800006F02B
:1030B800B5F9002402F048F9204670BD00201A2412
:1030C80002F042F9204670BD4800002008B52DEDF9
:1030D800028B01F0C5F9B0EE408A01F0E7F9DFEDA7
:1030E8000A7AB4EEE78AF1EE10FA09DCBDEC028B3D
:1030F800B5EEC00AF1EE10FAB4BF0020012008BDF9
:10310800BDEC028B002008BD000048422DE9F04FBD
:103118001F4F83B080460E4615461C464FF0000AE6
:103128002246304657F82A10FFF78AFF002800EB9E
:10313800C00005EB800218DBBAF1010F104621D060
:10314800BAF1020F0AF1010A14D1104606F0CEF9BD
:103158000190014658464A4605F0A0F90023C8F8F0
:103168000000184603B0BDE8F08F1A23184603B0D4
:10317800BDE8F08F06F052F9BAF1030F8146CFD1BE
:103188000199E7E706F054F94FF0020A8346C7E7CA
:103198009C0000202DE9F04F2DED028B4FF0000A26
:1031A800354EDFF8D8908BB005460F461446D0460A
:1031B800284656F82A102246FFF742FF00280DDB62
:1031C80000EBC00007EB800C0AF1FF336046042BCC
:1031D80031D8DFE803F02C28240944001A200BB06A
:1031E800BDEC028BBDE8F08F05F036F904900AF1CA
:1031F800010ABAF1060FDBD1049B009358460699E1
:10320800059A079BB0EE480A05F070FD092814BF1F
:10321800182000200BB0BDEC028BBDE8F08F06F043
:10322800FDF80790E3E706F003F90690DFE706F0FC
:103238005DF90590DBE709A90022CDF80CC0CDF8AF
:10324800248010F0A3F8099BDDF80CC06345834681
:10325800CDD119200BB0BDEC028BBDE8F08F002159
:10326800C9F800800FF08CFFD9F80030B0EE408A22
:10327800002BBCD01920EDE770000020C0630120AE
:10328800134B144993F804C02DE9F00101F12E0005
:10329800D3F8008001F56077012400220023FF267F
:1032A800032501F8024C0C7640E90423383141F833
:1032B800388C01F834CC01F8396C01F80A5CB94251
:1032C80040E9022300F13800EBD1BDE8F001704776
:1032D8006CA20108820800202DE9F04190B0294E27
:1032E800294D04F04BFF06F1300734460FCCBC42A1
:1032F80028606960AA60EB60264605F11005F4D1E4
:10330800DFF894802288D8F800302A800BB11E4854
:1033180098471E4F002602E0B6F5607F27D0BD19FA
:103328000FCD02AC0FC40FCD0FC40FCD0FC495E85D
:1033380003009DF80830383684E80300002BEBD1F1
:103348000DF10A0100919DF809300F48104A4FF419
:1033580000710EF0F9FF10F0FF0F0B480BD0D8F8F2
:103368000030002BD8D09847B6F5607FD7D1002021
:1033780010B0BDE8F08107480EF080FF162010B0AD
:10338800BDE8F08174A201080439012080080020FA
:10339800A8A20108CCA201087C0800202DE9F04170
:1033A800424B434D80460C4693E8030088B0D7B2A1
:1033B80002908DF80C10002340463A462968019384
:1033C800FFF73EFE002835DB00EBC00304EB830665
:1033D800304601A90A220FF0D9FF019BB34231D030
:1033E800C6B2102E1AD8404669683A46FFF728FE3A
:1033F800002806DB00EBC00104EB810102A80FF0F6
:1034080006F8102E0FD0C6EBC604E400294D2B5D3C
:103418002F19DBB9142008B0BDE8F08126480EF05A
:103428002DFF0F20F7E725480EF028FF112008B0E0
:10343800BDE8F081296822480EF020FF102008B06E
:10344800BDE8F081122008B0BDE8F08102A9B81CDF
:103458007E700EF0DCFF79780120002200230F290E
:10346800B876C7E9082304D916480EF007FF0F20DD
:10347800D1E7002301F007012B554FF4E06005F078
:1034880059FE7A78072A8ABFA2F108011146C9B203
:1034980001238B4040EA030102F007024FF4E06089
:1034A800C9B205F0EBFD0020B5E700BF6CA201082A
:1034B8005C0000208008002038A30108D8A3010878
:1034C80000A3010874A30108F0B5254D83B00C468C
:1034D800D2B22968FFF7B4FD002834DB02A900EB5B
:1034E800C00004EB8004002541F8085D20466946C9
:1034F8000A220FF04BFF009BA3422CD0C0B20F282A
:1035080006D918480EF0BAFE0F23184603B0F0BDCE
:10351800154F164EC0EBC000C00039180124002218
:1035280000233C54C1E90823C1E90A2330688C769A
:103538003679C1F80200FF2403222B468E714C70A5
:1035480081F83020E1E7296809480EF097FE10233A
:10355800184603B0F0BD1223184603B0F0BD00BFF3
:10356800540000203CA40108800800206CA2010837
:1035780000A301080F2808B505D8054BC0EBC0000B
:1035880003EBC00008BD03480EF078FE002008BD1C
:1035980080080020D8A301082DE9F04F85B04FF02E
:1035A800000BDFF83081CDF804B007460E4615460B
:1035B800DA46FF2458F82B10DFF818912A463846C7
:1035C800FFF73EFD002800EBC00006EB800C03A9C6
:1035D8004FF00A02604637DBBBF1010F1BD1604692
:1035E8003649FCF7F7FDD0F1010038BF0020019003
:1035F800FF2C25D0102C30D0C4EBC404E400304B91
:103608001A5D1C44002A36D02E480EF037FE1520CD
:1036180005B0BDE8F08FCDF800C0CDF80CA00FF0D4
:10362800B5FE039ADDF800C0C0B262450BF1010B8C
:1036380004463DD0102817D8BBF1020FBAD1D7E7FE
:10364800132005B0BDE8F08F59F82B101E480EF076
:1036580015FE102005B0BDE8F08F1C480EF00EFED8
:10366800112005B0BDE8F08F19480EF007FE0F20B5
:1036780005B0BDE8F08F61784FF4E06001F0070114
:1036880005F058FD6278072A86BFA2F10803DBB26D
:10369800134601219940019BC9B25BB94140C9B2A7
:1036A8004FF4E06002F0070205F0E8FC0020C8E7EC
:1036B8001220C6E70143C9B2F2E700BFC48C010873
:1036C8008008002078A4010800A30108D8A30108F5
:1036D80038A3010820000020014B1860704700BF84
:1036E8007C08002001FB0222D2B20F2A10B505D9AE
:1036F80009480EF0C3FD0023184610BD074BC2EB66
:10370800C20203EBC20484F8300004F05DFB01231D
:10371800C4E90A01184610BDA4A5010880080020C4
:10372800F0B583B04FF4FB70012102AC0DF09AFDA7
:10373800022500236946274844F8085D8DF80430BF
:103748008DF807300DF0EEFD4FF4804369462248AE
:1037580000930DF0E7FD41F27C5369461F48009342
:103768000DF0E0FD4FF42A4369461D4800930DF023
:10377800D9FD69461B4800950DF0D4FD40F6555318
:103788006946194800930DF0CDFD4FF41063694662
:10379800164800930DF0C6FD154B1649D3F800C026
:1037A8001F7901F57076012000220023FF2501F121
:1037B8001E0401F8020C0876C4E90023283141F8F8
:1037C80028CC01F8247C01F8295CB142EFD103B080
:1037D800F0BD00BF00040240000802400010024093
:1037E8000014024000180240001C02400020024061
:1037F8006CA201080A0C00202DE9F041274E284D43
:103808008CB006F1300734460FCCBC4228606960A2
:10381800AA60EB60264605F11005F4D1DFF8908028
:103828002278D8F800302A700BB11D4898471D4FF0
:10383800002602E0B6F5707F25D0BD190FCD02AC89
:103848000FC40FCD0FC495E803009DF80830283643
:1038580084E80300002BEDD10DF10A0100919DF8D9
:1038680009300F48104A4FF400710EF06DFD10F04A
:10387800FF0F0B480BD0D8F80030002BDAD0984750
:10388800B6F5707FD9D100200CB0BDE8F0810748AB
:103898000EF0F4FC0E200CB0BDE8F081F0A5010894
:1038A80004390120080C002024A6010848A60108B4
:1038B800000C00202DE9F0413A4B3B4D80460C4668
:1038C80093E8030088B0D7B202908DF80C1000235B
:1038D80040463A4629680193FFF7B2FB002837DBD8
:1038E80000EBC00304EB8306304601A90A220FF05F
:1038F8004DFD019BB34233D0C6B2182E1CD84046AA
:1039080069683A46FFF79CFB002806DB00EBC0011C
:1039180004EB810102A80EF07AFD182E11D006EBF7
:103928008604E400214D2F5D012F05EB04081BD010
:103938000D2008B0BDE8F0811D480EF09FFC08205E
:10394800F7E71C480EF09AFC0A2008B0BDE8F081A1
:10395800296819480EF092FC092008B0BDE8F081EA
:103968000B2008B0BDE8F08102A908F1020088F830
:1039780001600EF04CFD98F8011088F81A700022CA
:1039880000231729C8E9082304D90C480EF076FC4F
:103998000820CEE700260A482E550EF06FFC304668
:1039A800C7E700BF6CA2010818000020080C00201F
:1039B800ACA6010880A7010878A6010820A701087D
:1039C800E8A60108F0B5224D83B00C46D2B22968AA
:1039D800FFF736FB00282FDB02A900EBC00004EB41
:1039E8008004002541F8085D204669460A220FF048
:1039F800CDFC009BA34227D0C0B2172806D9154892
:103A08000EF03CFC0823184603B0F0BD124F134ECD
:103A180000EB8000C00039180124002200233C5428
:103A2800C1E90823306836798C76FF222B46C1F825
:103A380002008E714A70E6E7296809480EF01EFCFC
:103A48000923184603B0F0BD0B23184603B0F0BD98
:103A580064000020ACA60108080C00206CA2010834
:103A680078A60108172808B505D8054B00EB800093
:103A780003EBC00008BD03480EF000FC002008BDA1
:103A8800080C002080A7010810B5044604F09CF932
:103A98006378C4E90801172B0DD8DFE803F0938E8B
:103AA80088827D78726C66605B55504B46403A352B
:103AB800302A251F190F0123A37610BD44484FF45F
:103AC80080610DF08DFC0028F5D00023A37610BD91
:103AD8004FF480713E480DF083FCF4E74FF48061A9
:103AE8003C480DF07DFCEEE702213B480DF078FCE8
:103AF800E9E74FF4005139480DF072FCE3E7022181
:103B080037480DF06DFCDEE7042131480DF068FC04
:103B1800D9E74FF4007131480DF062FCD3E74FF458
:103B2800804130480DF05CFCCDE7402129480DF07C
:103B380057FCC8E7042127480DF052FCC3E70821C9
:103B480024480DF04DFCBEE74FF4006120480DF00D
:103B580047FCB8E740211E480DF042FCB3E74FF49C
:103B680080511C480DF03CFCADE74FF480711948BA
:103B78000DF036FCA7E74FF4004118480DF030FC73
:103B8800A1E74FF4006115480DF02AFC9BE71021CE
:103B98000F480DF025FC96E701210D480DF020FC9B
:103BA80091E74FF4006110480DF01AFC8BE74FF4D1
:103BB80080710D480DF014FC85E7102105480DF0C3
:103BC8000FFC80E7202103480DF00AFC7BE700BFCB
:103BD800001C02400010024000180240001402407D
:103BE800000402400008024000200240014B186017
:103BF800704700BF000C0020F0B5064685B0D0E93C
:103C08000845807E777804F0ADFA3B460290CDE90E
:103C18000045B21C084809490EF0C8FB084B1B6850
:103C28001BB10548984705B0F0BD064805B0BDE88A
:103C3800F0400EF023BB00BF04390120E0A70108C3
:103C4800000C002060A8010808B503480EF016FB18
:103C5800024B00221A7008BDB4A80108D50F002035
:103C680038B50F4D2C7894B90E480EF007FB05F0C7
:103C780057F90D4805F0CCFA0C4B0D4A0D480E4982
:103C88001C601470012304600C602B7038BD0B4B52
:103C98000B4853F82410BDE838400EF0EFBA00BFC7
:103CA800D50F00202CA90108ED360008C80F002008
:103CB800D40F0020CC0F0020D00F002074AC0108D6
:103CC800E4A8010870B52C4C2378042B04D8DFE84D
:103CD80003F0130D0304270070BD284B28491A6808
:103CE80009688A422BD201321A6070BD25480EF04D
:103CF800C5FA0223237070BD2348214E1F4D0EF0D4
:103D0800BDFA05F00DF9214805F082FA204921484D
:103D1800002301220B7033602B600360227070BD9A
:103D28001B4A164E164D1B4C1B481C49002313708A
:103D380033602B602360BDE870400EF09FBA1848CE
:103D48000D4D0EF09BFA174803F06EFF237803F031
:103D5800FD02012A09D0144A0F4852F823100EF028
:103D68008DFABDE8704000F02FBB06480EF086FAC9
:103D780002232B70F5E700BFD50F0020CC0F0020E1
:103D8800C80F002064A901082CA90108ED36000815
:103D9800D40F0020D00F0020E8A9010828AA0108A4
:103DA80094A90108C8A9010874AC010810B50E4C03
:103DB8000E480EF063FA237803F0FD02012A09D0B9
:103DC8000B4A0C4852F823100EF058FABDE8104080
:103DD80000F0FABA08480EF051FA02232370BDE841
:103DE800104000F0F1BA00BFD50F002034AA010836
:103DF80074AC0108E8A9010864A9010870B4414C31
:103E08002378022B36D1002857D0012A39D00268EE
:103E1800002A56D14268002A55D18268002A44D126
:103E2800C368002B51D10369002B50D14369002B83
:103E38004FD18369002B4ED1C369002B4DD1036A42
:103E4800002B4CD1436A002B4BD1836A002B4AD1FB
:103E5800C36A002B49D1036B002B48D1436B002B5D
:103E680047D1836B002B46D1C36BEBB9264870BC96
:103E78000EF004BA254A264852F8231070BC0EF0FA
:103E8800FDB90368002B38D0224E234D234B3270E6
:103E980000222A7018602248224A00250323056060
:103EA8002370116070BC70470F231B4E194D1B4ABD
:103EB800337010232B701060EDE71B4870BC0EF0B8
:103EC800DDB90023F1E70123EFE70323EDE704233E
:103ED800EBE70523E9E70623E7E70723E5E70823F8
:103EE800E3E70923E1E70A23DFE70B23DDE70C23F8
:103EF800DBE70D23D9E70E23D7E70C4870BC0EF09B
:103F0800BDB900BFD50F002088AB010874AC01080B
:103F180060AA0108D40F0020D60F0020D00F00207F
:103F2800CC0F0020C80F0020ACAA01081CAB010868
:103F380008B503480EF0A2F9024B00221A7008BD1A
:103F480088AC0108E00F002038B50C4D2C786CB90E
:103F58000B480EF093F90B4B0B4A0C480C491C60AC
:103F68001470012304600C602B7038BD094B0A489B
:103F780053F82410BDE838400EF080B9E00F002057
:103F880000AD0108D80F0020E10F0020DC0F002051
:103F9800E40F0020B4B00108B8AC0108F8B53E4CF5
:103FA8002378042B04D8DFE803F02D2703043C0012
:103FB800F8BD3A4B3A4F1B683A689A4240D2394B9F
:103FC8001B78012B54D0384E002401E0602C0FD010
:103FD80033681D590434002DF8D02B78002BF5D107
:103FE8002846FFF751FD2846FFF706FE602CEFD163
:103FF8003B6801333B60F8BD2C480EF03FF90223C3
:104008002370F8BD2A48254E254D0EF037F925496D
:104018002548002301220B7033602B600360227057
:10402800F8BD204A1E4E1D4D1F4C22482249002330
:10403800137033602B602360BDE8F8400EF01EB9A2
:10404800002BBCD01D48144D0EF018F91C4803F085
:10405800EBFD237803F0FD02012A16D0194A154812
:1040680052F823100EF00AF9BDE8F84000F0A6B99E
:104078000D4C23681868FFF707FD23681868FFF7D9
:10408800BBFD3B6801333B60F8BD08480EF0F6F80D
:1040980002232B70E8E700BFE00F0020D80F0020B4
:1040A800DC0F0020E10F0020E40F002038AD0108EC
:1040B80000AD0108BCAD0108FCAD010868AD010800
:1040C8009CAD0108B4B0010810B50E4C0E480EF0B6
:1040D800D5F8237803F0FD02012A09D00B4A0C48D1
:1040E80052F823100EF0CAF8BDE8104000F066B987
:1040F80008480EF0C3F802232370BDE8104000F012
:104108005DB900BFE00F002008AE0108B4B0010897
:10411800BCAD010838AD01082DE9F001294E33780E
:10412800022B19D100283DD0DFF8C4C0264F002348
:10413800012ACCF80030396016D0041F54F8042F37
:10414800DDB201330AB1127822B3182BF6D11F4819
:10415800BDE8F0010EF092B81D4A1E4852F823102F
:10416800BDE8F0010EF08AB804682CB32478012C5D
:104178001DD0DFF86C80184D184C88F800302A7074
:1041880020600022032339603370CCF80020BDE89A
:10419800F0017047124C104A104B25701824147007
:1041A8001860EEE70F48BDE8F0010EF067B80E485A
:1041B800BDE8F0010EF062B80C48BDE8F0010EF061
:1041C8005DB800BFE00F0020D80F0020CCAF010879
:1041D800B4B0010834AE0108E10F0020E40F00205C
:1041E800E20F002080AE01085CAF0108F0AE0108C4
:1041F800DC0F002008B5084B00221A7001F038F8CF
:1042080001F042F8FFF794FEFFF79EFEFFF71CFD52
:10421800BDE80840FFF724BDE80F002010B5204C8A
:104228002378052B04D8DFE803F018102128300480
:1042380010BD1C4B1B78012B07D01B4B1B78012B87
:1042480003D01A4B1B78012B14D101F0EFF8FFF7BC
:10425800A5FEBDE81040FFF735BD01F0E7F8FFF710
:104268009DFEFFF72FFD0123237010BD0D4B1B781A
:10427800012B11D00123237010BD0B4B1B78012B90
:10428800F8D1BDE81040FFF789BE084B1B78012B19
:10429800DFD00123237010BDBDE8104001F0C6B87F
:1042A800E80F0020EA0F0020EB0F0020E90F0020A4
:1042B80010B51B4C1B480DF0E1FF2378052B29D8BE
:1042C800DFE803F003031820040C10BD16480DF0B6
:1042D800D5FFFFF76BFD0123237010BD13480DF0C8
:1042E800CDFF01F047FBFFF7EFFEFFF75FFD01236E
:1042F800237010BD0E480DF0C1FF01F03BFB0123F8
:10430800237010BD0B480DF0B9FFFFF7DDFE012348
:10431800237010BD0848BDE810400DF0AFBF00BFC6
:10432800E80F0020C8B0010858B101088CB1010895
:10433800F0B0010824B10108B4B101080349044BE5
:104348000220012208701A70704700BFE80F002091
:10435800EA0F00200349044B0320012208701A7059
:10436800704700BFE80F0020EB0F00200349044B03
:104378000420012208701A70704700BFE80F00205F
:10438800E90F002030B406480649074A074C0123C4
:10439800052503700B701370257030BC704700BF83
:1043A800EA0F0020EB0F0020E90F0020E80F0020A3
:1043B800014B00221A707047EA0F0020014B0022BF
:1043C8001A707047EB0F0020014B00221A707047DB
:1043D800E90F0020014B1878704700BFEA0F002052
:1043E800014B1878704700BFEB0F0020014B18787D
:1043F800704700BFE90F002010B5DFED127A90F882
:10440800DC042DED028B9FED108A0C1EA8BFB0EEC8
:10441800678A05F073FF07EE104AF8EEC76A07EEE1
:10442800100AF8EEC77A9FED097A094B86EE888A5A
:10443800C7EE277A27EE888A83ED008ABDEC028BC7
:1044480010BD00BFFEFFFF4A0000004B0000FA430A
:10445800F00F0020014B93ED000A7047F00F002089
:1044680070B50E4C94ED000AB5EE400AF1EE10FA64
:1044780012D10B4E0B4D3146002002F043FE294667
:10448800012002F03FFE31882B88074A43EA0143A6
:1044980000EE103A1360236070BD00BFFC0F0020CF
:1044A800EC0F002002100020F80F002070B50E4C11
:1044B80094ED000AB5EE400AF1EE10FA12D10B4E57
:1044C8000B4D3146022002F01DFE2946032002F062
:1044D80019FE31882B88074A43EA014300EE103A57
:1044E8001360236070BD00BFF40F0020041000208B
:1044F80000100020F80F00202DE9F04700F0EAFC3A
:10450800684C012604F51C480025232784F8B36469
:1045180084F8B45484F8B57484F8B05484F8B15469
:10452800204600214FF4C87244F8085C44F8045C43
:104538000DF09CFE04F5C87000214FF448720DF090
:1045480095FE04F8286C04F59C644445DED1564C6D
:104558004FF0010804F59C5A00264FF02309002566
:1045680084F8B38484F8B46484F8B59484F8B064A7
:1045780084F8B164294620464FF4C87244F8086CA0
:1045880044F8046C0DF072FE04F5C87029464FF427
:1045980048720DF06BFE04F8288C04F59C645445B1
:1045A8004FF001074FF02303D9D1404C29464FF46F
:1045B800C87204F1280084F8DD3484F8DB7484F8C8
:1045C800DC5484F8D85484F8D954256265620DF017
:1045D8004DFE294604F5DC704FF448720DF046FE96
:1045E8002420277000F05AFC90B3314C314B07CB94
:1045F80004F1050CC4F8050024270026B3F800E0F0
:104608006770C02003234FF0010884F8DD0484F8A4
:10461800DB8484F8DC343846ACF80CE0CCF80410C1
:10462800CCF8082084F8D86484F8D96426626662D5
:1046380000F034FC3D460746284697B900F034FCA4
:10464800D0B9202D24D01C48BDE8F0470DF016BE87
:10465800242000F029FC0446C0B918480DF00EFECD
:10466800C4E700F0B1FDFF23608026702371144871
:10467800BDE8F0470DF002BE213DFF2325712770EC
:1046880063801048BDE8F0470DF0F8BD0E4CADE76B
:10469800FF232070638023710C48BDE8F0470DF0BC
:1046A800EDBD00BF1853002018EF00207002012054
:1046B8007002012058B2010808B30108FCB10108D2
:1046C80068B20108A0B2010890FD0020D8B2010824
:1046D8002DE9F04F6C4B6D4E8BB00546884614465D
:1046E80093E80300012223238DE80C004FF0000A11
:1046F80004908DF81410D3464FF0FF09284656F859
:104708002A10624F2246FEF79BFC00283CDB00EB98
:10471800C0000AF1FF3308EB8007032B1DD8DFE840
:1047280003F01712023F384604F0E0FE83460AF110
:10473800010ABAF1050FE1D1B9F1FF0F35D15046A1
:104748000BB0BDE8F08F384604F072FE0190EEE73A
:10475800384604F063FE0090E9E70AA9002341F80F
:104768001C3D38460A220EF011FE039BBB425FFA3D
:1047780080F95BD0B9F1250FD9D945480DF07EFDF8
:1047880001200BB0BDE8F08F0AF1FF33042BCED91E
:10479800396840480DF072FD02200BB0BDE8F08F7B
:1047A800394604A80DF033FEC1E7484600F076FB11
:1047B800002832D0384B4FF49C6404FB0934257828
:1047C800012D18BF0620BBD1009B84F8DB34019B68
:1047D80084F8DD3404A984F8019084F8DCB4601D01
:1047E8000DF015FE67780026384684F8D86484F8FA
:1047F800D9642662666200F051FB80463846B8F1FB
:10480800000F22D100F050FB064648BB202F32D0C3
:1048180022480DF033FD284692E7484600F044FB55
:1048280058B9B9F1200F03D11D4CC8E7042087E718
:104838001C480DF023FD032082E71B4BA9F1210240
:104848004FF49C6101FB0234B9E700F0BDFCFF2383
:1048580060802670237115480DF010FD30466FE713
:10486800FF23213F277184F80080638010480DF0F2
:1048780005FD404664E7FF232070638023710D48DF
:104888000DF0FCFC30465BE76CA201083400002008
:1048980064B301089CB30108F052002008B3010872
:1048A80070020120FCB10108F0EE002068B2010896
:1048B800A0B20108D8B201082DE9F041434D0E46D7
:1048C8002968FEF7BDFB041E42DB41480DF0D6FC0B
:1048D80004EBC40006EB800000210A220EF056FD0E
:1048E800C4B2252C2ED8204600F0D8FA0546B0B31D
:1048F8004FF49C63374E03FB04F4A31900254FF0D3
:10490800230E04F128000127304429464FF4C872C9
:1049180083F8DDE483F8DB7483F8DC5483F8D85437
:1049280083F8D9541D625D620DF0A0FC04F5DC70BB
:10493800304429464FF448720DF098FCA755284694
:10494800BDE8F08124480DF099FC0120BDE8F08114
:10495800296822480DF092FC0220BDE8F08120462B
:1049680000F0A2FA064630B3242CE8D04FF49C633A
:1049780003FB04F81A4E213C03FB04F4A319A8F521
:1049880020404FF0230EB8380127304429464FF411
:10499800C87283F8DC5483F8D85483F8D9541D625C
:1049A8005D6283F8DDE483F8DB740DF05FFCA8F545
:1049B8001F402838BCE7202C05D00A480DF05EFCC3
:1049C8003046BDE8F081BDE8F08100BF500000200E
:1049D80094900108F052002064B301089CB30108C8
:1049E800F0EE0020FCB1010838B5044600F056FA94
:1049F80028B10D4B4FF49C6000FB043038BD2046B5
:104A080000F052FA054618B9202C08D1074838BDDD
:104A1800074B213C4FF49C6000FB043038BD05482F
:104A28000DF02CFC284638BDF05200207002012001
:104A3800F0EE0020FCB101082DE9F047044684B0EF
:104A480000252E4FDFF8CC8004E00135EDB2904709
:104A58000A2D2BD094F8D83494F8D9249A4225D02A
:104A68005DB303F10A0603F1370254F826602449BE
:104A7800244804EBC202D2E9002300960DF096FC0C
:104A880094F8D8343A681F480133A8FB03614909F0
:104A9800642606FB113384F8D834002AD5D10135B1
:104AA8001948EDB20DF0EAFB0A2DD3D13B680BB1E2
:104AB8001648984704B0BDE8F08794F8DC0494F8E9
:104AC80001A004F073FC814694F8DD0404F00CFCAA
:104AD800064694F8DB0404F091FC534602900C4916
:104AE800CDF80090621D019606480DF05FFC3B680A
:104AF8000448984794F8D834B3E700BF081000205A
:104B080058B401080439012068B401086CC40108CC
:104B1800D0B301081F85EB51014B1860704700BFE7
:104B280008100020B0F5F04F00F0A58016D9B0F5B8
:104B3800384F00F0818023D9B0F5584F00F09D80A0
:104B48003CD9B0F5684F00F08E807BD9B0F5704F36
:104B580060D0B0F5784F3AD149487047B0F5605FFA
:104B680000F087801BD8B0F5C05F63D047D8B0F598
:104B7800006F70D0B0F5805F56D040BB4148704799
:104B8800B0F5184F5CD024D8B0F5084F6FD0B0F509
:104B9800104F47D0B0F5004F19D13B487047B0F5DA
:104BA800B04F4BD020D8B0F5904F52D0B0F5A04FB1
:104BB80034D0B0F5804F0AD134487047B0F5484F2B
:104BC8004FD0B0F5504F2BD0B0F5404F4DD000200E
:104BD8007047B0F5284F42D0B0F5304F28D0B0F527
:104BE800204FF4D12A487047B0F5D04F35D0B0F5F2
:104BF800E04F1BD0B0F5C04FE9D126487047B0F55B
:104C0800205F24D0B0F5405F06D0B0F5005FDED15C
:104C1800214870472148704721487047214870470C
:104C280021487047214870472148704721487047FC
:104C380021487047214870472148704721487047EC
:104C480021487047B0F5604FC1D1204870472048CF
:104C580070472048704720487047204870472048D0
:104C680070472048704720487047204870472048C0
:104C7800704720487047204870472048704700BF59
:104C88004CB501087CB50108DCB50108ACB50108D4
:104C980000B6010804B50108A0B5010830B601083E
:104CA800D4B40108F8B4010858B5010828B50108BA
:104CB800C8B40108D0B5010834B50108BCB401086E
:104CC80040B5010810B501081CB5010864B5010814
:104CD80094B50108B8B5010888B50108C4B501083C
:104CE800F4B5010818B6010824B601080CB6010885
:104CF800E8B50108E0B40108ECB4010870B5010892
:104D08002DE9F04FDFF87091DFF88C81ADF2FC4DA2
:104D180003F034FA4846564941220DF09EFAD8F875
:104D280000300BB148469847524D002402E0B4F5D4
:104D38001C4F3BD0291906A84FF49C620DF08DFA40
:104D48009DF8183004F59C64002BF0D1BDF81A00CA
:104D58009DF819B0FFF7E6FE82469DF8F40404F0CA
:104D680025FB07469DF8F50404F0BEFA06469DF8B3
:104D7800F30404F043FB0DF11D0204900192CDF8F9
:104D880000A0029703965B463B483C4A4FF40071EB
:104D98000DF0DAFA10F0FF0F374860D0D8F800307D
:104DA800002BC4D09847B4F51C4FC3D1344CD8F865
:104DB80000500FCCC9F80000A6882068C9F8041074
:104DC800C9F80820C9F80C30C9F81000A9F814600F
:104DD8000DB12948A8472B4D002406A829194FF4DE
:104DE8009C620DF03AFA9DF8183073BB9DF81C20B0
:104DF800254B9DF8F4049DF819A0244E042A98BF69
:104E080053F8226004F0D2FA81469DF8F50404F0C4
:104E18006BFA07469DF8F30404F0F0FA0DF11D0251
:104E280004900192CDF808900397009653461248D3
:104E3800174A4FF400710DF087FA10F0FF0F0E4873
:104E48000DD0D8F8003003B1984704F59C64B4F548
:104E58009C5FC2D100200DF2FC4DBDE8F08F0D48DB
:104E68000DF00CFA07200DF2FC4DBDE8F08F00BFE5
:104E780044B60108F05200200439012088B6010820
:104E880080B70108F0EE0020D4B701083CB601084D
:104E98001CB70108ECB60108081000201F288CBFB9
:104EA80000200120704700BF213803288CBF002054
:104EB8000120704708B502F087FF054BD3E90023AE
:104EC800994208BF904234BF0020012008BD00BFAE
:104ED800101000202DE9F0411E4F1F4E82B0802097
:104EE80001210CF0BFF9012500244FF48058384601
:104EF8006946CDF800808DF804508DF807508DF87C
:104F080006408DF805400CF00DFA22463846414619
:104F18000CF074FA294608200CF0A4F94FF47843F1
:104F28006946304600938DF804508DF806408DF898
:104F380007508DF805400CF0F5F930460CF056FA9C
:104F4800C0F30A0141F4C05130460CF05DFA02B0DA
:104F5800BDE8F081001C0240000C024070B5044618
:104F68000D4600285CD043781F2B34D9A3F12102C9
:104F7800032A4BD9202B0CD03B493C484E220DF03C
:104F88006CF93A4802F008FE3948BDE870400DF067
:104F980075B90020012105F047F94FF480513548D3
:104FA80001220CF02BFA34480CF020FAC0F30A0165
:104FB80041F4C05130480CF027FA02F005FF2F4D9C
:104FC80010F57A7041F10001C5E9000100F066FDB5
:104FD8002B4B1C6070BD4688FF2E39D00020012164
:104FE80005F022F94FF48051012222480CF006FA0C
:104FF80021480CF0FBF9C0F30A0131431E480CF0BC
:1050080003FA012DD9D01E4B1C6070BD0379FF2B0C
:1050180026D0042B20D8DFE803F00F08181512005B
:105028001848BDE870400DF029B90821042005F0A2
:10503800FBF8134B1C6070BD08210320F7E7012122
:105048000020F4E708210620F1E708210720EEE711
:105058000D480DF013F9BBE70C480DF00FF9B7E751
:105068000B480DF00BF9B3E700B90108043901202A
:1050780050B90108001C0240000C0240101000202A
:105088000C100020A0B90108E8B70108B8B8010859
:1050980050B801081F2838B504460D4612D9A0F1AA
:1050A8002103032B4AD9202825D0264926485622F1
:1050B8000DF0D3F8244802F06FFD2448BDE83840CD
:1050C8000DF0DCB80020012105F0AEF84FF4805156
:1050D80001221F480CF092F91E480CF087F9C0F322
:1050E8000A0121431B480CF08FF9012D17D01A4BE8
:1050F80000221A6038BD0020012105F095F84FF410
:105108008051134801220CF079F912480CF06EF91D
:10511800C0F30A0141F4C0510E480CF075F902F0D1
:1051280053FE0E4B10F57A7041F10001C3E90001FE
:1051380000F0B4FC084B00221A6038BD08480DF096
:105148009DF8D4E7E0B901080439012050B90108F5
:10515800001C0240000C02400C100020101000201F
:10516800B8B8010810B50020104C012105F05CF812
:1051780001224FF480510E480CF040F920460CF003
:1051880035F9C0F30A0141F4C05120460CF03CF94E
:1051980002F01AFE074B10F57A7041F10001BDE8E4
:1051A8001040C3E9000100F079BC00BF000C0240C8
:1051B800001C0240101000200620082105F034B819
:1051C8000020012105F030B81F289ABF024B33F8A0
:1051D8001000FF20704700BF38BA0108F8B5044630
:1051E800411D20480DF04AF86378242B32D094F8FA
:1051F800DC1494F8DB2494F8DD0403F017FB94F82E
:10520800DC5494F8DD7494F8DB440646FFF722F981
:1052180029463846224603F0B7F90546124C13488A
:1052280031462A460DF02AF8C6F30722C6F307438B
:1052380020466270A370267005F0D0F8C5F30722E7
:10524800C5F3074325706270A3702046BDE8F84097
:1052580005F026B903F060FB064603F069FB054636
:10526800DCE700BFA8BA010824100020D8BA01085A
:1052780008B503480DF002F8024B00221A7008BD69
:1052880008BB01082010002070B5104D2C78A4B977
:105298000F48104E0CF0F2FF04F0B6FC0E4B0F4A0C
:1052A8000F49104814600C7001229C701C705C70CF
:1052B800DC70346004602A7070BD0B4B0B4853F8E7
:1052C8002410BDE870400CF0D9BF00BF20100020AA
:1052D80084BB01081C1000202C100020181000208E
:1052E800291000203410002088BA01083CBB0108AE
:1052F80010B5104C2378042B07D00F4A0F4852F8EA
:105308002310BDE810400CF0B9BF0D480CF0B6FFF3
:105318000C4B002202212170DA701A719A705A70AF
:105328001A70FFF71FFF4FF47A700021BDE8104094
:1053380002F098BD2010002088BA0108BCBB010803
:1053480004BC01082C10002038B50E4C2378042B1F
:10535800054607D00C4A0D4852F82310BDE83840DE
:105368000CF08CBF0A480CF089FF0A4B0022284633
:10537800DA7003251A7125700121BDE83840FFF75E
:1053880089BE00BF2010002088BA0108BCBB0108F4
:1053980004BC01082C10002038B5204C23785A1E74
:1053A800022A0BD903F0FD02052A07D01C4A1D4822
:1053B80052F82310BDE838400CF060BF1A480CF0D2
:1053C8005DFF0423237004F043FE012004F024FE53
:1053D8002420FFF709FB04460021FFF7BFFD94F8DE
:1053E800DD0404F097FF94F8DC0404F04DFF94F812
:1053F800DB0404F0E3FE2046FFF7F0FE012004F092
:105408000BFE04F025FE94F8D95402F0DDFC05F1FA
:10541800370304EBC304C4E9000138BD20100020A1
:1054280088BA01083CBC01087CBC01082DE9F04F92
:10543800B14C237883B0072B51D8DFE813F0530021
:105448000E006B00800013008700E700FA00AB48ED
:105458000CF014FFA94802F0E7FB03B0BDE8F04FD9
:10546800FFF79ABFA64B1A78012A00F0C0810020E6
:1054780004F086FD98B32420FFF7B6FA044601200D
:1054880004F0CAFD9F4B94F8D95400221A7004F016
:105498002FFD0A3594F8D93444F825000A332046FC
:1054A80054F82310FEF7A8FF94F8D9540135EDB24B
:1054B80084F8D95402F088FC373504EBC505C5E9F2
:1054C800000104F0C5FD94F8D93494F8D8249A4220
:1054D80000F0CA81642B02D1002384F8D93403B0C8
:1054E800BDE8F08F8848894F894D8A4E0CF0C6FE7A
:1054F80004F08AFB884A8948002301213B60336015
:105508002B600370937013705370D370217003B0C5
:10551800BDE8F08F804CE378002B98D12278062ADA
:1055280000F2B08061780F2900F27481A278012A14
:1055380040F2B0810131A37061702379A5E004F0D5
:10554800D5FD03B0BDE8F04FFFF726BF002004F0FB
:1055580017FD002800F08B80714C6E4D22782B6867
:10556800DFF8E48153F8226096F8D97404F0C0FC9F
:105578002378296807F1010E1AB2A8FB0E9C07F1DF
:105588000A0A4FEA5C1C51F8227046F82A004FF0CC
:10559800640909FB1CEE87F8D9E451F8220090F859
:1055A800D96490F8D804864201EB820200F08B801F
:1055B800DFF8688198F80000012840F2C780176872
:1055C800524EDFF84CA1DFF858B14FF0000906E061
:1055D80051F8230018B10278012A40F0FF80013306
:1055E800DBB2252B2370F3D1DAF800104D4832686E
:1055F8008BF8009001310CF041FEDAF800202968A0
:105608009BF800300132CAF80020E1E704F09CF969
:105618003F4E3E4C3F4D4148414A0023FF213360F5
:105628002B6023600370117003B0BDE8F04FFFF7E3
:10563800B3BE2420FFF7D8F9324B1B780546002B60
:105648003FF44DAF002004F09BFC002840F0E780B9
:10565800354D2B78052B00F01681023B022B40F2CA
:10566800CD80324803B0BDE8F04F0CF007BE2C4A9D
:10567800284B12781B6853F8220003B0BDE8F04F9E
:10568800FFF7DAB901222379E27007EE903AB8EE13
:10569800677ADFED277A67EE277A17EE900AFAF72E
:1056A80007FF244ACDE900014FF4007122480CF0AD
:1056B8004BFE214921480CF0E1FD1F4803B0BDE82D
:1056C800F04F02F0B1BA1E480CF0D8FD1D4802F0A8
:1056D80063FA237829681AB251F8220090F8D8643E
:1056E8000136A8FB06E77F0909FB176601EB820272
:1056F80080F8D8645CE700BF20100020E0BC0108F7
:10570800AC0000202810002084BB010818100020DD
:105718001C100020341000202C100020291000201C
:105728002A10002098BD0108381000208CBE0108FE
:105738004A92E43EACBC010804390120F892010801
:1057480010BD010860BD01081F85EB51DFF8FCA101
:105758007B4EDAF80030326800920133794A7A4891
:105768004FF400710CF0F0FD774802F05DFADAF8BA
:1057780000300133CAF8003004F06AFC2B68227844
:1057880053F8227097F8D99402F01EFB09F13703F9
:1057980007EBC307C7E90001DAF8002033686B4953
:1057A8009A427FF49CAE98F80030012B03D90B681D
:1057B800002B3FF494AE22782B6853F82200FFF7B1
:1057C8003BF9FFF7E9FD62480CF058FD614802F02B
:1057D8002BFA03B0BDE8F04FFEF7EABD87424ED082
:1057E8000121FFF7BBFB3846FFF726F9D4E7002273
:1057F8001A7003B0BDE8F04FFDF73ABCFFF75AFB4B
:1058080001287FF42EAF2B78237003B0BDE8F04F4A
:10581800FFF7D6BC013263702270237935E795F81B
:10582800D96404F065FB06F10A03014645F8230034
:105838002846FEF7E1FD484895F8D8740136A0FBE4
:1058480006235B09642101FB1363DAB2974285F8EA
:10585800D9247FF4FDAE0133A0FB0362520901FB9A
:10586800123385F8D834F3E63B495A1CA1FB0201F0
:105878004909642000FB112284F8D8242AE6374815
:105888000CF0FCFC78E7FFF715FB012806462ED044
:105898002B78E2E6324D334FA85C334E04F08EFC91
:1058A8006378F85C04F036FD2378F05C04F0ECFCD7
:1058B80004F0E8FB04F0C2FD61782278A378B25CBA
:1058C800795CEB5C03F0B0FA04F044FC04F054FD9E
:1058D80062782378B95CF25CA678AB5D0136A67075
:1058E80003F026FA23790133DBB22371CDE6FFF703
:1058F80067FC1E4A1E4B11781A682B7852F8215003
:10590800237095F8DD0404F005FD95F8DC0404F037
:10591800BBFC95F8DB0404F051FC2846FFF75EFC5D
:10592800304604F079FB04F093FB95F8D94402F073
:105938004BFA04F1370305EBC305C5E90001CEE5D1
:105948001810002098BD0108043901201C100020FF
:1059580038BE01086CBE01081F85EB51D0BD010897
:10596800C4C1010878BA0108BCC101082A10002086
:105978003410002008B504480CF080FCFFF70CFD3B
:10598800BDE80840FEF714BDB0BE0108F8B5384EB2
:105998003378042B07462AD100285ED0354C364888
:1059A8000023012A2360016029D03A1F01E0252B3A
:1059B8002FD052F8044FDDB20133002CF7D02178F4
:1059C8000029F4D12D4A2E4B157025221A702D4A24
:1059D80005232046012133701760FFF7BFFA33789B
:1059E800052B1BD00020BDE8F84004F015BB264A63
:1059F800264852F82310BDE8F8400CF03FBC3C683C
:105A08003CB1217801292DD01C481D4903700A702A
:105A1800DDE71F48BDE8F8400CF030BC94F8DD0421
:105A280004F078FC94F8DC0404F02EFC94F8DB0411
:105A380004F0C4FB2046FFF7D1FB002004F0ECFA89
:105A480004F006FB94F8D95402F0BEF905F13703C7
:105A580004EBC304C4E90001F8BD0E48BDE8F840F2
:105A68000CF00CBC0C48BDE8F8400CF007BC00BFBB
:105A7800201000201C100020181000202A100020E0
:105A8800291000203410002088BA0108DCBE010863
:105A980098BF010828BF010804C0010838B51F4C89
:105AA80023789A1E042A07D91D4A1E4852F8231043
:105AB800BDE838400CF0E2BB1B491C480CF0DEFB8B
:105AC8001B4B22781A7007232370FFF775FB2420DD
